{
  "contractName": "BaseRewardAddressList",
  "abi": [
    {
      "constant": true,
      "inputs": [],
      "name": "F_ADDR",
      "outputs": [
        {
          "name": "",
          "type": "address"
        }
      ],
      "payable": false,
      "stateMutability": "view",
      "type": "function"
    },
    {
      "anonymous": false,
      "inputs": [
        {
          "indexed": true,
          "name": "addr",
          "type": "address"
        }
      ],
      "name": "RewardAddressAdded",
      "type": "event"
    },
    {
      "anonymous": false,
      "inputs": [
        {
          "indexed": true,
          "name": "addr",
          "type": "address"
        }
      ],
      "name": "RewardAddressRemoved",
      "type": "event"
    },
    {
      "constant": true,
      "inputs": [],
      "name": "rewardAddressList",
      "outputs": [
        {
          "name": "",
          "type": "address[]"
        }
      ],
      "payable": false,
      "stateMutability": "view",
      "type": "function"
    },
    {
      "constant": true,
      "inputs": [],
      "name": "rewardAddressCount",
      "outputs": [
        {
          "name": "",
          "type": "uint256"
        }
      ],
      "payable": false,
      "stateMutability": "view",
      "type": "function"
    },
    {
      "constant": true,
      "inputs": [
        {
          "name": "_addr",
          "type": "address"
        }
      ],
      "name": "isRewardAddress",
      "outputs": [
        {
          "name": "",
          "type": "bool"
        }
      ],
      "payable": false,
      "stateMutability": "view",
      "type": "function"
    },
    {
      "constant": true,
      "inputs": [
        {
          "name": "_address",
          "type": "address"
        }
      ],
      "name": "getNextRewardAddress",
      "outputs": [
        {
          "name": "",
          "type": "address"
        }
      ],
      "payable": false,
      "stateMutability": "view",
      "type": "function"
    }
  ],
  "bytecode": "0x608060405234801561001057600080fd5b506103de806100206000396000f30060806040526004361061006c5763ffffffff7c0100000000000000000000000000000000000000000000000000000000600035041663071664c581146100715780636d92f509146100a657806371e9a8b2146100e3578063c794c7691461010a578063e9d6c0591461011f575b600080fd5b34801561007d57600080fd5b50610092600160a060020a0360043516610184565b604080519115158252519081900360200190f35b3480156100b257600080fd5b506100c7600160a060020a03600435166101b7565b60408051600160a060020a039092168252519081900360200190f35b3480156100ef57600080fd5b506100f861029f565b60408051918252519081900360200190f35b34801561011657600080fd5b506100c76102ed565b34801561012b57600080fd5b506101346102f8565b60408051602080825283518183015283519192839290830191858101910280838360005b83811015610170578181015183820152602001610158565b505050509050019250505060405180910390f35b6000600160a060020a03828116148015906101b1575060006101a5836101b7565b600160a060020a031614155b92915050565b6000600260008360405160200180807f726577617264416464726573734c69737400000000000000000000000000000081525060110182600160a060020a0316600160a060020a03166c010000000000000000000000000281526014019150506040516020818303038152906040526040518082805190602001908083835b602083106102555780518252601f199092019160209182019101610236565b51815160209384036101000a6000190180199092169116179052604080519290940182900390912086528501959095529290920160002054600160a060020a031695945050505050565b7fabc77c82721ced73eef2645facebe8c30249e6ac372cce6eb9d1fed31bd6648f60009081526020527f75fbf9e7a88379132f510aaafa152e59a595fda8e70d0b76dd34200dac99f82e5490565b600160a060020a0381565b60608060008061030661029f565b60405190808252806020026020018201604052801561032f578160200160208202803883390190505b50925060009150610346600160a060020a036101b7565b90505b600160a060020a03818116146103aa57600160a060020a038116151561036e57600080fd5b80838381518110151561037d57fe5b600160a060020a0390921660209283029091019091015261039d816101b7565b6001909201919050610349565b5090929150505600a165627a7a72305820a95be49ed90c62e5ca6028143b2d331d9b11bbe71b90c329747e8eb502e3d2670029",
  "source": "pragma solidity 0.4.24;\n\nimport \"openzeppelin-solidity/contracts/math/SafeMath.sol\";\nimport \"../upgradeability/EternalStorage.sol\";\n\n/**\n* @title BaseRewardAddressList\n* @dev Implements the logic to store, add and remove reward account addresses. Works as a linked list.\n*/\ncontract BaseRewardAddressList is EternalStorage {\n    using SafeMath for uint256;\n\n    address public constant F_ADDR = 0xFFfFfFffFFfffFFfFFfFFFFFffFFFffffFfFFFfF;\n    uint256 internal constant MAX_REWARD_ADDRESSES = 50;\n    bytes32 internal constant REWARD_ADDRESS_COUNT = 0xabc77c82721ced73eef2645facebe8c30249e6ac372cce6eb9d1fed31bd6648f; // keccak256(abi.encodePacked(\"rewardAddressCount\"))\n\n    event RewardAddressAdded(address indexed addr);\n    event RewardAddressRemoved(address indexed addr);\n\n    /**\n    * @dev Retrieves all registered reward accounts.\n    * @return address list of the registered reward receivers.\n    */\n    function rewardAddressList() external view returns (address[]) {\n        address[] memory list = new address[](rewardAddressCount());\n        uint256 counter = 0;\n        address nextAddr = getNextRewardAddress(F_ADDR);\n\n        while (nextAddr != F_ADDR) {\n            require(nextAddr != address(0));\n\n            list[counter] = nextAddr;\n            nextAddr = getNextRewardAddress(nextAddr);\n            counter++;\n        }\n\n        return list;\n    }\n\n    /**\n    * @dev Retrieves amount of registered reward accounts.\n    * @return length of reward addresses list.\n    */\n    function rewardAddressCount() public view returns (uint256) {\n        return uintStorage[REWARD_ADDRESS_COUNT];\n    }\n\n    /**\n    * @dev Checks if specified address is included into the registered rewards receivers list.\n    * @param _addr address to verify.\n    * @return true, if specified address is associated with one of the registered reward accounts.\n    */\n    function isRewardAddress(address _addr) public view returns (bool) {\n        return _addr != F_ADDR && getNextRewardAddress(_addr) != address(0);\n    }\n\n    /**\n    * @dev Retrieves next reward address in the linked list, or F_ADDR if given address is the last one.\n    * @param _address address of some reward account.\n    * @return address of the next reward receiver.\n    */\n    function getNextRewardAddress(address _address) public view returns (address) {\n        return addressStorage[keccak256(abi.encodePacked(\"rewardAddressList\", _address))];\n    }\n\n    /**\n    * @dev Internal function for adding a new reward address to the linked list.\n    * @param _addr new reward account.\n    */\n    function _addRewardAddress(address _addr) internal {\n        require(_addr != address(0) && _addr != F_ADDR);\n        require(!isRewardAddress(_addr));\n\n        address nextAddr = getNextRewardAddress(F_ADDR);\n\n        require(nextAddr != address(0));\n\n        _setNextRewardAddress(_addr, nextAddr);\n        _setNextRewardAddress(F_ADDR, _addr);\n        _setRewardAddressCount(rewardAddressCount().add(1));\n    }\n\n    /**\n    * @dev Internal function for removing existing reward address from the linked list.\n    * @param _addr old reward account which should be removed.\n    */\n    function _removeRewardAddress(address _addr) internal {\n        require(isRewardAddress(_addr));\n        address nextAddr = getNextRewardAddress(_addr);\n        address index = F_ADDR;\n        address next = getNextRewardAddress(index);\n\n        while (next != _addr) {\n            require(next != address(0));\n            index = next;\n            next = getNextRewardAddress(index);\n            require(next != F_ADDR);\n        }\n\n        _setNextRewardAddress(index, nextAddr);\n        delete addressStorage[keccak256(abi.encodePacked(\"rewardAddressList\", _addr))];\n        _setRewardAddressCount(rewardAddressCount().sub(1));\n    }\n\n    /**\n    * @dev Internal function for initializing linked list with the array of the initial reward addresses.\n    * @param _rewardAddresses initial reward addresses list, should be non-empty.\n    */\n    function _setRewardAddressList(address[] _rewardAddresses) internal {\n        require(_rewardAddresses.length > 0);\n\n        _setNextRewardAddress(F_ADDR, _rewardAddresses[0]);\n\n        for (uint256 i = 0; i < _rewardAddresses.length; i++) {\n            require(_rewardAddresses[i] != address(0) && _rewardAddresses[i] != F_ADDR);\n            require(!isRewardAddress(_rewardAddresses[i]));\n\n            if (i == _rewardAddresses.length - 1) {\n                _setNextRewardAddress(_rewardAddresses[i], F_ADDR);\n            } else {\n                _setNextRewardAddress(_rewardAddresses[i], _rewardAddresses[i + 1]);\n            }\n\n            emit RewardAddressAdded(_rewardAddresses[i]);\n        }\n\n        _setRewardAddressCount(_rewardAddresses.length);\n    }\n\n    /**\n    * @dev Internal function for updating the length of the reward accounts list.\n    * @param _rewardAddressCount new linked list length.\n    */\n    function _setRewardAddressCount(uint256 _rewardAddressCount) internal {\n        require(_rewardAddressCount <= MAX_REWARD_ADDRESSES);\n        uintStorage[REWARD_ADDRESS_COUNT] = _rewardAddressCount;\n    }\n\n    /**\n    * @dev Internal function for updating the pointer to the next reward receiver.\n    * @param _prevAddr address of some reward receiver.\n    * @param _addr address of the next receiver to which _prevAddr should point to.\n    */\n    function _setNextRewardAddress(address _prevAddr, address _addr) internal {\n        addressStorage[keccak256(abi.encodePacked(\"rewardAddressList\", _prevAddr))] = _addr;\n    }\n}\n",
  "sourcePath": "/Users/max/Projects/Symblox/TokenBridge/tokenbridge/contracts/contracts/upgradeable_contracts/BaseRewardAddressList.sol",
  "compiler": {
    "name": "solc",
    "version": "0.4.24+commit.e67f0147.Emscripten.clang"
  },
  "schemaVersion": "3.1.0",
  "updatedAt": "2020-11-26T16:22:39.807Z",
  "devdoc": {
    "methods": {
      "getNextRewardAddress(address)": {
        "details": "Retrieves next reward address in the linked list, or F_ADDR if given address is the last one.",
        "params": {
          "_address": "address of some reward account."
        },
        "return": "address of the next reward receiver."
      },
      "isRewardAddress(address)": {
        "details": "Checks if specified address is included into the registered rewards receivers list.",
        "params": {
          "_addr": "address to verify."
        },
        "return": "true, if specified address is associated with one of the registered reward accounts."
      },
      "rewardAddressCount()": {
        "details": "Retrieves amount of registered reward accounts.",
        "return": "length of reward addresses list."
      },
      "rewardAddressList()": {
        "details": "Retrieves all registered reward accounts.",
        "return": "address list of the registered reward receivers."
      }
    },
    "title": "BaseRewardAddressList"
  },
  "userdoc": {
    "methods": {}
  }
}