{
  "contractName": "BasicAMB",
  "abi": [
    {
      "constant": true,
      "inputs": [],
      "name": "isInitialized",
      "outputs": [
        {
          "name": "",
          "type": "bool"
        }
      ],
      "payable": false,
      "stateMutability": "view",
      "type": "function"
    },
    {
      "constant": true,
      "inputs": [],
      "name": "requiredBlockConfirmations",
      "outputs": [
        {
          "name": "",
          "type": "uint256"
        }
      ],
      "payable": false,
      "stateMutability": "view",
      "type": "function"
    },
    {
      "constant": true,
      "inputs": [],
      "name": "requiredSignatures",
      "outputs": [
        {
          "name": "",
          "type": "uint256"
        }
      ],
      "payable": false,
      "stateMutability": "view",
      "type": "function"
    },
    {
      "constant": true,
      "inputs": [],
      "name": "owner",
      "outputs": [
        {
          "name": "",
          "type": "address"
        }
      ],
      "payable": false,
      "stateMutability": "view",
      "type": "function"
    },
    {
      "constant": true,
      "inputs": [],
      "name": "validatorContract",
      "outputs": [
        {
          "name": "",
          "type": "address"
        }
      ],
      "payable": false,
      "stateMutability": "view",
      "type": "function"
    },
    {
      "constant": true,
      "inputs": [],
      "name": "deployedAtBlock",
      "outputs": [
        {
          "name": "",
          "type": "uint256"
        }
      ],
      "payable": false,
      "stateMutability": "view",
      "type": "function"
    },
    {
      "constant": true,
      "inputs": [],
      "name": "getBridgeInterfacesVersion",
      "outputs": [
        {
          "name": "major",
          "type": "uint64"
        },
        {
          "name": "minor",
          "type": "uint64"
        },
        {
          "name": "patch",
          "type": "uint64"
        }
      ],
      "payable": false,
      "stateMutability": "pure",
      "type": "function"
    },
    {
      "constant": false,
      "inputs": [
        {
          "name": "_blockConfirmations",
          "type": "uint256"
        }
      ],
      "name": "setRequiredBlockConfirmations",
      "outputs": [],
      "payable": false,
      "stateMutability": "nonpayable",
      "type": "function"
    },
    {
      "constant": false,
      "inputs": [
        {
          "name": "_gasPrice",
          "type": "uint256"
        }
      ],
      "name": "setGasPrice",
      "outputs": [],
      "payable": false,
      "stateMutability": "nonpayable",
      "type": "function"
    },
    {
      "constant": true,
      "inputs": [],
      "name": "decimalShift",
      "outputs": [
        {
          "name": "",
          "type": "int256"
        }
      ],
      "payable": false,
      "stateMutability": "view",
      "type": "function"
    },
    {
      "constant": false,
      "inputs": [
        {
          "name": "newOwner",
          "type": "address"
        }
      ],
      "name": "transferOwnership",
      "outputs": [],
      "payable": false,
      "stateMutability": "nonpayable",
      "type": "function"
    },
    {
      "constant": true,
      "inputs": [],
      "name": "gasPrice",
      "outputs": [
        {
          "name": "",
          "type": "uint256"
        }
      ],
      "payable": false,
      "stateMutability": "view",
      "type": "function"
    },
    {
      "anonymous": false,
      "inputs": [
        {
          "indexed": false,
          "name": "gasPrice",
          "type": "uint256"
        }
      ],
      "name": "GasPriceChanged",
      "type": "event"
    },
    {
      "anonymous": false,
      "inputs": [
        {
          "indexed": false,
          "name": "requiredBlockConfirmations",
          "type": "uint256"
        }
      ],
      "name": "RequiredBlockConfirmationChanged",
      "type": "event"
    },
    {
      "anonymous": false,
      "inputs": [
        {
          "indexed": false,
          "name": "previousOwner",
          "type": "address"
        },
        {
          "indexed": false,
          "name": "newOwner",
          "type": "address"
        }
      ],
      "name": "OwnershipTransferred",
      "type": "event"
    },
    {
      "constant": false,
      "inputs": [
        {
          "name": "_sourceChainId",
          "type": "uint256"
        },
        {
          "name": "_destinationChainId",
          "type": "uint256"
        },
        {
          "name": "_validatorContract",
          "type": "address"
        },
        {
          "name": "_maxGasPerTx",
          "type": "uint256"
        },
        {
          "name": "_gasPrice",
          "type": "uint256"
        },
        {
          "name": "_requiredBlockConfirmations",
          "type": "uint256"
        },
        {
          "name": "_owner",
          "type": "address"
        }
      ],
      "name": "initialize",
      "outputs": [
        {
          "name": "",
          "type": "bool"
        }
      ],
      "payable": false,
      "stateMutability": "nonpayable",
      "type": "function"
    },
    {
      "constant": true,
      "inputs": [],
      "name": "getBridgeMode",
      "outputs": [
        {
          "name": "_data",
          "type": "bytes4"
        }
      ],
      "payable": false,
      "stateMutability": "pure",
      "type": "function"
    },
    {
      "constant": true,
      "inputs": [],
      "name": "maxGasPerTx",
      "outputs": [
        {
          "name": "",
          "type": "uint256"
        }
      ],
      "payable": false,
      "stateMutability": "view",
      "type": "function"
    },
    {
      "constant": false,
      "inputs": [
        {
          "name": "_maxGasPerTx",
          "type": "uint256"
        }
      ],
      "name": "setMaxGasPerTx",
      "outputs": [],
      "payable": false,
      "stateMutability": "nonpayable",
      "type": "function"
    },
    {
      "constant": true,
      "inputs": [],
      "name": "sourceChainId",
      "outputs": [
        {
          "name": "",
          "type": "uint256"
        }
      ],
      "payable": false,
      "stateMutability": "view",
      "type": "function"
    },
    {
      "constant": true,
      "inputs": [],
      "name": "destinationChainId",
      "outputs": [
        {
          "name": "",
          "type": "uint256"
        }
      ],
      "payable": false,
      "stateMutability": "view",
      "type": "function"
    },
    {
      "constant": false,
      "inputs": [
        {
          "name": "_sourceChainId",
          "type": "uint256"
        },
        {
          "name": "_destinationChainId",
          "type": "uint256"
        }
      ],
      "name": "setChainIds",
      "outputs": [],
      "payable": false,
      "stateMutability": "nonpayable",
      "type": "function"
    }
  ],
  "bytecode": "0x608060405234801561001057600080fd5b50610e71806100206000396000f3006080604052600436106100ed5763ffffffff60e060020a6000350416631544298e81146100f257806325fbf4ee14610119578063392e53cd146101665780633f0a9f651461017b578063437764df14610190578063467ad35a146101da5780637bac29c7146101f75780638d0680431461020f5780638da5cb5b1461022457806399439089146102555780639a454b991461026a5780639cb7595a1461027f578063acf5c689146102c0578063b0750611146102d8578063bf1fe420146102ed578063dae5f0fd14610305578063e5789d031461031a578063f2fde38b1461032f578063fe173b9714610350575b600080fd5b3480156100fe57600080fd5b50610107610365565b60408051918252519081900360200190f35b34801561012557600080fd5b50610152600435602435600160a060020a03604435811690606435906084359060a4359060c435166103b3565b604080519115158252519081900360200190f35b34801561017257600080fd5b50610152610627565b34801561018757600080fd5b50610107610678565b34801561019c57600080fd5b506101a56106c6565b604080517fffffffff000000000000000000000000000000000000000000000000000000009092168252519081900360200190f35b3480156101e657600080fd5b506101f56004356024356106ea565b005b34801561020357600080fd5b506101f5600435610714565b34801561021b57600080fd5b5061010761077d565b34801561023057600080fd5b506102396107f5565b60408051600160a060020a039092168252519081900360200190f35b34801561026157600080fd5b5061023961084c565b34801561027657600080fd5b506101076108a3565b34801561028b57600080fd5b506102946108f1565b6040805167ffffffffffffffff9485168152928416602084015292168183015290519081900360600190f35b3480156102cc57600080fd5b506101f56004356108fc565b3480156102e457600080fd5b50610107610924565b3480156102f957600080fd5b506101f5600435610972565b34801561031157600080fd5b50610107610997565b34801561032657600080fd5b506101076109e5565b34801561033b57600080fd5b506101f5600160a060020a0360043516610a33565b34801561035c57600080fd5b50610107610a58565b7f67d6f42a1ed69c62022f2d160ddc6f2f0acd37ad1db0c24f4702d7d3343a4add60009081526020527ff6c66672b1a9fe5622677597b0da8fd180a2c85696efbcf7fe4b1e0f4f0f61085490565b60408051600481526024810182526020810180517bffffffffffffffffffffffffffffffffffffffffffffffffffffffff167f6fde8202000000000000000000000000000000000000000000000000000000001781529151815160009330939291829190808383895b8381101561043457818101518382015260200161041c565b50505050905090810190601f1680156104615780820380516001836020036101000a031916815260200191505b509150506000604051808303816000865af191505015806104f3575030600160a060020a0316636fde82026040518163ffffffff1660e060020a028152600401602060405180830381600087803b1580156104bb57600080fd5b505af11580156104cf573d6000803e3d6000fd5b505050506040513d60208110156104e557600080fd5b5051600160a060020a031633145b806104fd57503330145b151561050857600080fd5b610510610627565b1561051a57600080fd5b61052386610aa6565b151561052e57600080fd5b6105388888610aae565b7fab54f3fbbe62c59b7876a9bf9bd5e0c22dbae93f4d8ee0438f7ce62b198eb0e0805473ffffffffffffffffffffffffffffffffffffffff1916600160a060020a03881617905560006020819052437fe66bef0282a446f9848e2903380099bb6e431483ee78778868f33b4a154c818b557f2670ecc91ec356e32067fd27b36614132d727b84a1e03e08f412a4f2cf07597490527f3d7fe2ee9790702383ef0118b516833ef2542132d3ca4ac6c77f62f1230fa6108590556105f984610bfe565b61060283610c84565b61060b82610d17565b610613610dee565b61061b610627565b98975050505050505050565b7f0a6f646cd611241d8073675e00d1a1ff700fbf1b53fcf473de56d1e6e4b714ba60005260046020527f078d888f9b66f3f8bfa10909e31f1e16240db73449f0500afdbbe3a70da457cc5460ff1690565b7f916daedf6915000ff68ced2f0b6773fe6f2582237f92c3c95bb4d7940723007160009081526020527fd2ea0feb732edb0ffe32efd33a6b9d24d46b16eb34a4d07ce256537b6f131e425490565b7f2544fbb90000000000000000000000000000000000000000000000000000000090565b6106f26107f5565b600160a060020a0316331461070657600080fd5b6107108282610aae565b5050565b61071c6107f5565b600160a060020a0316331461073057600080fd5b7f2670ecc91ec356e32067fd27b36614132d727b84a1e03e08f412a4f2cf07597460009081526020527f3d7fe2ee9790702383ef0118b516833ef2542132d3ca4ac6c77f62f1230fa61055565b600061078761084c565b600160a060020a0316638d0680436040518163ffffffff1660e060020a028152600401602060405180830381600087803b1580156107c457600080fd5b505af11580156107d8573d6000803e3d6000fd5b505050506040513d60208110156107ee57600080fd5b5051905090565b7f02016836a56b71f0d02689e69e326f4f4c1b9057164ef592671cf0d37c8040c060005260026020527fb7802e97e87ef2842a6cce7da7ffaeaedaa2f61a6a7870b23d9d01fc9b73712e54600160a060020a031690565b7f5a74bb7e202fb8e4bf311841c7d64ec19df195fee77d7e7ae749b27921b6ddfe60005260026020527fab54f3fbbe62c59b7876a9bf9bd5e0c22dbae93f4d8ee0438f7ce62b198eb0e054600160a060020a031690565b7fb120ceec05576ad0c710bc6e85f1768535e27554458f05dcbb5c65b8c7a749b060009081526020527fe66bef0282a446f9848e2903380099bb6e431483ee78778868f33b4a154c818b5490565b600560046000909192565b6109046107f5565b600160a060020a0316331461091857600080fd5b61092181610c84565b50565b7fbbd454018e72a3f6c02bbd785bacc49e46292744f3f6761276723823aa33232060009081526020527f242329173dfc316001df0a0c3d5a8f58a7ffb1a8b7d99c268303b9a741bacdf95490565b61097a6107f5565b600160a060020a0316331461098e57600080fd5b61092181610bfe565b7f1e8ecaafaddea96ed9ac6d2642dcdfe1bebe58a930b1085842d8fc122b371ee560009081526020527fd5c78dd9468716ca9bb96be25d56436811b20aab3523a9904b12deef1cab239d5490565b7f2670ecc91ec356e32067fd27b36614132d727b84a1e03e08f412a4f2cf07597460009081526020527f3d7fe2ee9790702383ef0118b516833ef2542132d3ca4ac6c77f62f1230fa6105490565b610a3b6107f5565b600160a060020a03163314610a4f57600080fd5b61092181610d17565b7f55b3774520b5993024893d303890baa4e84b1244a43c60034d1ced2d3cf2b04b60009081526020527ff7d5eefab3776d7f0450bd0193564bcb4f832ce313ff2836c450fc63a4b944195490565b6000903b1190565b600080600080600086118015610ac45750600085115b1515610acf57600080fd5b85851415610adc57600080fd5b506000925082915060ff905060015b831580610af6575082155b15610b3e5783158015610b0a575085828716145b15610b13578093505b82158015610b22575084828616145b15610b2b578092505b6101009190910260ff1790600101610aeb565b5050600060208190527ff6c66672b1a9fe5622677597b0da8fd180a2c85696efbcf7fe4b1e0f4f0f6108949094557f2f30286a16f86ee067618e1a246990e40c07b7749418a6dd3133f9cfb7e814cc919091557f242329173dfc316001df0a0c3d5a8f58a7ffb1a8b7d99c268303b9a741bacdf9919091557ffb792ae4ad11102b93f26a51b3749c2b3667f8b561566a4806d49896928115949091527f7b62b32ff48350e85ce95b571fde6f8b1096bc44a26db769ad6d0b3a26bf1c6d55565b7f55b3774520b5993024893d303890baa4e84b1244a43c60034d1ced2d3cf2b04b600090815260209081527ff7d5eefab3776d7f0450bd0193564bcb4f832ce313ff2836c450fc63a4b944198290556040805183815290517f52264b89e0fceafb26e79fd49ef8a366eb6297483bf4035b027f0c99a7ad512e929181900390910190a150565b60008111610c9157600080fd5b7f916daedf6915000ff68ced2f0b6773fe6f2582237f92c3c95bb4d79407230071600090815260209081527fd2ea0feb732edb0ffe32efd33a6b9d24d46b16eb34a4d07ce256537b6f131e428290556040805183815290517f4fb76205cd57c896b21511d2114137d8e901b4ccd659e1a0f97d6306795264fb929181900390910190a150565b600160a060020a0381161515610d2c57600080fd5b7f8be0079c531659141344cd1fd0a4f28419497f9722a3daafe3b4186f6b6457e0610d556107f5565b60408051600160a060020a03928316815291841660208301528051918290030190a17f02016836a56b71f0d02689e69e326f4f4c1b9057164ef592671cf0d37c8040c060005260026020527fb7802e97e87ef2842a6cce7da7ffaeaedaa2f61a6a7870b23d9d01fc9b73712e805473ffffffffffffffffffffffffffffffffffffffff1916600160a060020a0392909216919091179055565b7f0a6f646cd611241d8073675e00d1a1ff700fbf1b53fcf473de56d1e6e4b714ba60005260046020527f078d888f9b66f3f8bfa10909e31f1e16240db73449f0500afdbbe3a70da457cc805460ff191660011790555600a165627a7a72305820cd783bab7b8f932173f5f4eeecda833c5781ab64a08a7c54709192e7c5ccdf8e0029",
  "source": "pragma solidity 0.4.24;\n\nimport \"../BasicBridge.sol\";\nimport \"./VersionableAMB.sol\";\n\ncontract BasicAMB is BasicBridge, VersionableAMB {\n    bytes32 internal constant MAX_GAS_PER_TX = 0x2670ecc91ec356e32067fd27b36614132d727b84a1e03e08f412a4f2cf075974; // keccak256(abi.encodePacked(\"maxGasPerTx\"))\n    bytes32 internal constant NONCE = 0x7ab1577440dd7bedf920cb6de2f9fc6bf7ba98c78c85a3fa1f8311aac95e1759; // keccak256(abi.encodePacked(\"nonce\"))\n    bytes32 internal constant SOURCE_CHAIN_ID = 0x67d6f42a1ed69c62022f2d160ddc6f2f0acd37ad1db0c24f4702d7d3343a4add; // keccak256(abi.encodePacked(\"sourceChainId\"))\n    bytes32 internal constant SOURCE_CHAIN_ID_LENGTH = 0xe504ae1fd6471eea80f18b8532a61a9bb91fba4f5b837f80a1cfb6752350af44; // keccak256(abi.encodePacked(\"sourceChainIdLength\"))\n    bytes32 internal constant DESTINATION_CHAIN_ID = 0xbbd454018e72a3f6c02bbd785bacc49e46292744f3f6761276723823aa332320; // keccak256(abi.encodePacked(\"destinationChainId\"))\n    bytes32 internal constant DESTINATION_CHAIN_ID_LENGTH = 0xfb792ae4ad11102b93f26a51b3749c2b3667f8b561566a4806d4989692811594; // keccak256(abi.encodePacked(\"destinationChainIdLength\"))\n\n    /**\n     * Initializes AMB contract\n     * @param _sourceChainId chain id of a network where this contract is deployed\n     * @param _destinationChainId chain id of a network where all outgoing messages are directed\n     * @param _validatorContract address of the validators contract\n     * @param _maxGasPerTx maximum amount of gas per one message execution\n     * @param _gasPrice default gas price used by oracles for sending transactions in this network\n     * @param _requiredBlockConfirmations number of block confirmations oracle will wait before processing passed messages\n     * @param _owner address of new bridge owner\n     */\n    function initialize(\n        uint256 _sourceChainId,\n        uint256 _destinationChainId,\n        address _validatorContract,\n        uint256 _maxGasPerTx,\n        uint256 _gasPrice,\n        uint256 _requiredBlockConfirmations,\n        address _owner\n    ) external onlyRelevantSender returns (bool) {\n        require(!isInitialized());\n        require(AddressUtils.isContract(_validatorContract));\n\n        _setChainIds(_sourceChainId, _destinationChainId);\n        addressStorage[VALIDATOR_CONTRACT] = _validatorContract;\n        uintStorage[DEPLOYED_AT_BLOCK] = block.number;\n        uintStorage[MAX_GAS_PER_TX] = _maxGasPerTx;\n        _setGasPrice(_gasPrice);\n        _setRequiredBlockConfirmations(_requiredBlockConfirmations);\n        _setOwner(_owner);\n        setInitialize();\n\n        return isInitialized();\n    }\n\n    function getBridgeMode() external pure returns (bytes4 _data) {\n        return 0x2544fbb9; // bytes4(keccak256(abi.encodePacked(\"arbitrary-message-bridge-core\")))\n    }\n\n    function maxGasPerTx() public view returns (uint256) {\n        return uintStorage[MAX_GAS_PER_TX];\n    }\n\n    function setMaxGasPerTx(uint256 _maxGasPerTx) external onlyOwner {\n        uintStorage[MAX_GAS_PER_TX] = _maxGasPerTx;\n    }\n\n    /**\n     * Internal function for retrieving chain id for the source network\n     * @return chain id for the current network\n     */\n    function sourceChainId() public view returns (uint256) {\n        return uintStorage[SOURCE_CHAIN_ID];\n    }\n\n    /**\n     * Internal function for retrieving chain id for the destination network\n     * @return chain id for the destination network\n     */\n    function destinationChainId() public view returns (uint256) {\n        return uintStorage[DESTINATION_CHAIN_ID];\n    }\n\n    /**\n     * Updates chain ids of used networks\n     * @param _sourceChainId chain id for current network\n     * @param _destinationChainId chain id for opposite network\n     */\n    function setChainIds(uint256 _sourceChainId, uint256 _destinationChainId) external onlyOwner {\n        _setChainIds(_sourceChainId, _destinationChainId);\n    }\n\n    /**\n     * Internal function for retrieving current nonce value\n     * @return nonce value\n     */\n    function _nonce() internal view returns (uint64) {\n        return uint64(uintStorage[NONCE]);\n    }\n\n    /**\n     * Internal function for updating nonce value\n     * @param _nonce new nonce value\n     */\n    function _setNonce(uint64 _nonce) internal {\n        uintStorage[NONCE] = uint256(_nonce);\n    }\n\n    /**\n     * Internal function for updating chain ids of used networks\n     * @param _sourceChainId chain id for current network\n     * @param _destinationChainId chain id for opposite network\n     */\n    function _setChainIds(uint256 _sourceChainId, uint256 _destinationChainId) internal {\n        require(_sourceChainId > 0 && _destinationChainId > 0);\n        require(_sourceChainId != _destinationChainId);\n\n        // Length fields are needed further when encoding the message.\n        // Chain ids are compressed, so that leading zero bytes are not preserved.\n        // In order to save some gas during calls to MessageDelivery.c,\n        // lengths of chain ids are precalculated and being saved in the storage.\n        uint256 sourceChainIdLength = 0;\n        uint256 destinationChainIdLength = 0;\n        uint256 mask = 0xff;\n\n        for (uint256 i = 1; sourceChainIdLength == 0 || destinationChainIdLength == 0; i++) {\n            if (sourceChainIdLength == 0 && _sourceChainId & mask == _sourceChainId) {\n                sourceChainIdLength = i;\n            }\n            if (destinationChainIdLength == 0 && _destinationChainId & mask == _destinationChainId) {\n                destinationChainIdLength = i;\n            }\n            mask = (mask << 8) | 0xff;\n        }\n\n        uintStorage[SOURCE_CHAIN_ID] = _sourceChainId;\n        uintStorage[SOURCE_CHAIN_ID_LENGTH] = sourceChainIdLength;\n        uintStorage[DESTINATION_CHAIN_ID] = _destinationChainId;\n        uintStorage[DESTINATION_CHAIN_ID_LENGTH] = destinationChainIdLength;\n    }\n\n    /**\n     * Internal function for retrieving chain id length for the source network\n     * @return chain id for the current network\n     */\n    function _sourceChainIdLength() internal view returns (uint256) {\n        return uintStorage[SOURCE_CHAIN_ID_LENGTH];\n    }\n\n    /**\n     * Internal function for retrieving chain id length for the destination network\n     * @return chain id for the destination network\n     */\n    function _destinationChainIdLength() internal view returns (uint256) {\n        return uintStorage[DESTINATION_CHAIN_ID_LENGTH];\n    }\n\n    /**\n     * Internal function for validating version of the received message\n     * @param _messageId id of the received message\n     */\n    function _isMessageVersionValid(bytes32 _messageId) internal returns (bool) {\n        return\n            _messageId & 0xffffffff00000000000000000000000000000000000000000000000000000000 == MESSAGE_PACKING_VERSION;\n    }\n\n    /**\n     * Internal function for validating destination chain id of the received message\n     * @param _chainId destination chain id of the received message\n     */\n    function _isDestinationChainIdValid(uint256 _chainId) internal returns (bool res) {\n        return _chainId == sourceChainId();\n    }\n}\n",
  "sourcePath": "/Users/max/Projects/Symblox/TokenBridge/tokenbridge/contracts/contracts/upgradeable_contracts/arbitrary_message/BasicAMB.sol",
  "compiler": {
    "name": "solc",
    "version": "0.4.24+commit.e67f0147.Emscripten.clang"
  },
  "schemaVersion": "3.1.0",
  "updatedAt": "2020-11-26T16:22:39.922Z",
  "devdoc": {
    "methods": {
      "decimalShift()": {
        "details": "Returns the value of foreign-to-home decimal shift.",
        "return": "decimal shift."
      },
      "destinationChainId()": {
        "return": "chain id for the destination network"
      },
      "getBridgeInterfacesVersion()": {
        "return": "(major, minor, patch) version triple"
      },
      "initialize(uint256,uint256,address,uint256,uint256,uint256,address)": {
        "params": {
          "_destinationChainId": "chain id of a network where all outgoing messages are directed",
          "_gasPrice": "default gas price used by oracles for sending transactions in this network",
          "_maxGasPerTx": "maximum amount of gas per one message execution",
          "_owner": "address of new bridge owner",
          "_requiredBlockConfirmations": "number of block confirmations oracle will wait before processing passed messages",
          "_sourceChainId": "chain id of a network where this contract is deployed",
          "_validatorContract": "address of the validators contract"
        }
      },
      "owner()": {
        "details": "Tells the address of the owner",
        "return": "the address of the owner"
      },
      "setChainIds(uint256,uint256)": {
        "params": {
          "_destinationChainId": "chain id for opposite network",
          "_sourceChainId": "chain id for current network"
        }
      },
      "setGasPrice(uint256)": {
        "details": "Public setter for fallback gas price value. Only bridge owner can call this method.",
        "params": {
          "_gasPrice": "new value for the gas price."
        }
      },
      "sourceChainId()": {
        "return": "chain id for the current network"
      },
      "transferOwnership(address)": {
        "details": "Allows the current owner to transfer control of the contract to a newOwner.",
        "params": {
          "newOwner": "the address to transfer ownership to."
        }
      }
    }
  },
  "userdoc": {
    "methods": {
      "destinationChainId()": {
        "notice": "Internal function for retrieving chain id for the destination network"
      },
      "getBridgeInterfacesVersion()": {
        "notice": "Returns currently used bridge version"
      },
      "initialize(uint256,uint256,address,uint256,uint256,uint256,address)": {
        "notice": "Initializes AMB contract"
      },
      "setChainIds(uint256,uint256)": {
        "notice": "Updates chain ids of used networks"
      },
      "sourceChainId()": {
        "notice": "Internal function for retrieving chain id for the source network"
      }
    }
  }
}