{
  "contractName": "BasicMultiTokenBridge",
  "abi": [
    {
      "constant": true,
      "inputs": [],
      "name": "owner",
      "outputs": [
        {
          "name": "",
          "type": "address"
        }
      ],
      "payable": false,
      "stateMutability": "view",
      "type": "function"
    },
    {
      "constant": false,
      "inputs": [
        {
          "name": "newOwner",
          "type": "address"
        }
      ],
      "name": "transferOwnership",
      "outputs": [],
      "payable": false,
      "stateMutability": "nonpayable",
      "type": "function"
    },
    {
      "anonymous": false,
      "inputs": [
        {
          "indexed": true,
          "name": "token",
          "type": "address"
        },
        {
          "indexed": false,
          "name": "newLimit",
          "type": "uint256"
        }
      ],
      "name": "DailyLimitChanged",
      "type": "event"
    },
    {
      "anonymous": false,
      "inputs": [
        {
          "indexed": true,
          "name": "token",
          "type": "address"
        },
        {
          "indexed": false,
          "name": "newLimit",
          "type": "uint256"
        }
      ],
      "name": "ExecutionDailyLimitChanged",
      "type": "event"
    },
    {
      "anonymous": false,
      "inputs": [
        {
          "indexed": false,
          "name": "previousOwner",
          "type": "address"
        },
        {
          "indexed": false,
          "name": "newOwner",
          "type": "address"
        }
      ],
      "name": "OwnershipTransferred",
      "type": "event"
    },
    {
      "constant": true,
      "inputs": [
        {
          "name": "_token",
          "type": "address"
        }
      ],
      "name": "isTokenRegistered",
      "outputs": [
        {
          "name": "",
          "type": "bool"
        }
      ],
      "payable": false,
      "stateMutability": "view",
      "type": "function"
    },
    {
      "constant": true,
      "inputs": [
        {
          "name": "_token",
          "type": "address"
        },
        {
          "name": "_day",
          "type": "uint256"
        }
      ],
      "name": "totalSpentPerDay",
      "outputs": [
        {
          "name": "",
          "type": "uint256"
        }
      ],
      "payable": false,
      "stateMutability": "view",
      "type": "function"
    },
    {
      "constant": true,
      "inputs": [
        {
          "name": "_token",
          "type": "address"
        },
        {
          "name": "_day",
          "type": "uint256"
        }
      ],
      "name": "totalExecutedPerDay",
      "outputs": [
        {
          "name": "",
          "type": "uint256"
        }
      ],
      "payable": false,
      "stateMutability": "view",
      "type": "function"
    },
    {
      "constant": true,
      "inputs": [
        {
          "name": "_token",
          "type": "address"
        }
      ],
      "name": "dailyLimit",
      "outputs": [
        {
          "name": "",
          "type": "uint256"
        }
      ],
      "payable": false,
      "stateMutability": "view",
      "type": "function"
    },
    {
      "constant": true,
      "inputs": [
        {
          "name": "_token",
          "type": "address"
        }
      ],
      "name": "executionDailyLimit",
      "outputs": [
        {
          "name": "",
          "type": "uint256"
        }
      ],
      "payable": false,
      "stateMutability": "view",
      "type": "function"
    },
    {
      "constant": true,
      "inputs": [
        {
          "name": "_token",
          "type": "address"
        }
      ],
      "name": "maxPerTx",
      "outputs": [
        {
          "name": "",
          "type": "uint256"
        }
      ],
      "payable": false,
      "stateMutability": "view",
      "type": "function"
    },
    {
      "constant": true,
      "inputs": [
        {
          "name": "_token",
          "type": "address"
        }
      ],
      "name": "executionMaxPerTx",
      "outputs": [
        {
          "name": "",
          "type": "uint256"
        }
      ],
      "payable": false,
      "stateMutability": "view",
      "type": "function"
    },
    {
      "constant": true,
      "inputs": [
        {
          "name": "_token",
          "type": "address"
        }
      ],
      "name": "minPerTx",
      "outputs": [
        {
          "name": "",
          "type": "uint256"
        }
      ],
      "payable": false,
      "stateMutability": "view",
      "type": "function"
    },
    {
      "constant": true,
      "inputs": [
        {
          "name": "_token",
          "type": "address"
        },
        {
          "name": "_amount",
          "type": "uint256"
        }
      ],
      "name": "withinLimit",
      "outputs": [
        {
          "name": "",
          "type": "bool"
        }
      ],
      "payable": false,
      "stateMutability": "view",
      "type": "function"
    },
    {
      "constant": true,
      "inputs": [
        {
          "name": "_token",
          "type": "address"
        },
        {
          "name": "_amount",
          "type": "uint256"
        }
      ],
      "name": "withinExecutionLimit",
      "outputs": [
        {
          "name": "",
          "type": "bool"
        }
      ],
      "payable": false,
      "stateMutability": "view",
      "type": "function"
    },
    {
      "constant": true,
      "inputs": [],
      "name": "getCurrentDay",
      "outputs": [
        {
          "name": "",
          "type": "uint256"
        }
      ],
      "payable": false,
      "stateMutability": "view",
      "type": "function"
    },
    {
      "constant": false,
      "inputs": [
        {
          "name": "_token",
          "type": "address"
        },
        {
          "name": "_dailyLimit",
          "type": "uint256"
        }
      ],
      "name": "setDailyLimit",
      "outputs": [],
      "payable": false,
      "stateMutability": "nonpayable",
      "type": "function"
    },
    {
      "constant": false,
      "inputs": [
        {
          "name": "_token",
          "type": "address"
        },
        {
          "name": "_dailyLimit",
          "type": "uint256"
        }
      ],
      "name": "setExecutionDailyLimit",
      "outputs": [],
      "payable": false,
      "stateMutability": "nonpayable",
      "type": "function"
    },
    {
      "constant": false,
      "inputs": [
        {
          "name": "_token",
          "type": "address"
        },
        {
          "name": "_maxPerTx",
          "type": "uint256"
        }
      ],
      "name": "setExecutionMaxPerTx",
      "outputs": [],
      "payable": false,
      "stateMutability": "nonpayable",
      "type": "function"
    },
    {
      "constant": false,
      "inputs": [
        {
          "name": "_token",
          "type": "address"
        },
        {
          "name": "_maxPerTx",
          "type": "uint256"
        }
      ],
      "name": "setMaxPerTx",
      "outputs": [],
      "payable": false,
      "stateMutability": "nonpayable",
      "type": "function"
    },
    {
      "constant": false,
      "inputs": [
        {
          "name": "_token",
          "type": "address"
        },
        {
          "name": "_minPerTx",
          "type": "uint256"
        }
      ],
      "name": "setMinPerTx",
      "outputs": [],
      "payable": false,
      "stateMutability": "nonpayable",
      "type": "function"
    },
    {
      "constant": true,
      "inputs": [
        {
          "name": "_token",
          "type": "address"
        }
      ],
      "name": "maxAvailablePerTx",
      "outputs": [
        {
          "name": "",
          "type": "uint256"
        }
      ],
      "payable": false,
      "stateMutability": "view",
      "type": "function"
    }
  ],
  "bytecode": "0x608060405234801561001057600080fd5b50611111806100206000396000f3006080604052600436106101065763ffffffff7c010000000000000000000000000000000000000000000000000000000060003504166301fcc1d3811461010b578063032f693f14610131578063107752381461016457806316ef19131461019c57806326aa101f146101bd5780632803212f146101de5780633a50bc87146102025780633e6968b61461022657806340f8dd861461023b5780637610722f1461025c5780637837cf911461027d5780638da5cb5b146102a1578063a4b1c243146102d2578063ab3a25d9146102f3578063db6fff8c14610317578063ec47de2a1461033b578063f2c54fe81461035f578063f2fde38b14610383578063f3f51415146103a4575b600080fd5b34801561011757600080fd5b5061012f600160a060020a03600435166024356103c5565b005b34801561013d57600080fd5b50610152600160a060020a03600435166104f4565b60408051918252519081900360200190f35b34801561017057600080fd5b50610188600160a060020a03600435166024356105c9565b604080519115158252519081900360200190f35b3480156101a857600080fd5b50610152600160a060020a0360043516610640565b3480156101c957600080fd5b50610188600160a060020a03600435166106d3565b3480156101ea57600080fd5b5061012f600160a060020a03600435166024356106e6565b34801561020e57600080fd5b50610188600160a060020a0360043516602435610847565b34801561023257600080fd5b5061015261089d565b34801561024757600080fd5b50610152600160a060020a03600435166108a6565b34801561026857600080fd5b50610152600160a060020a0360043516610939565b34801561028957600080fd5b5061012f600160a060020a0360043516602435610992565b3480156102ad57600080fd5b506102b6610af3565b60408051600160a060020a039092168252519081900360200190f35b3480156102de57600080fd5b50610152600160a060020a0360043516610b4a565b3480156102ff57600080fd5b50610152600160a060020a0360043516602435610bdd565b34801561032357600080fd5b5061012f600160a060020a0360043516602435610cbb565b34801561034757600080fd5b5061012f600160a060020a0360043516602435610dae565b34801561036b57600080fd5b50610152600160a060020a0360043516602435610ea5565b34801561038f57600080fd5b5061012f600160a060020a0360043516610f40565b3480156103b057600080fd5b50610152600160a060020a0360043516610f68565b6103cd610af3565b600160a060020a031633146103e157600080fd5b6103ea826106d3565b15156103f557600080fd5b80158061041457506000811180156104145750610411826108a6565b81105b151561041f57600080fd5b806000808460405160200180807f657865637574696f6e4d6178506572547800000000000000000000000000000081525060110182600160a060020a0316600160a060020a0316606060020a0281526014019150506040516020818303038152906040526040518082805190602001908083835b602083106104b25780518252601f199092019160209182019101610493565b51815160209384036101000a60001901801990921691161790526040805192909401829003909120865285019590955292909201600020939093555050505050565b60008060008360405160200180807f6d6178506572547800000000000000000000000000000000000000000000000081525060080182600160a060020a0316600160a060020a0316606060020a0281526014019150506040516020818303038152906040526040518082805190602001908083835b602083106105885780518252601f199092019160209182019101610569565b51815160209384036101000a600019018019909216911617905260408051929094018290039091208652850195909552929092016000205495945050505050565b6000806105ed836105e1866105dc61089d565b610bdd565b9063ffffffff610ffb16565b905060006105fb6000610f68565b11801561061057508061060d85610f68565b10155b80156106245750610620846104f4565b8311155b8015610638575061063484610b4a565b8310155b949350505050565b60008060008360405160200180807f657865637574696f6e4d6178506572547800000000000000000000000000000081525060110182600160a060020a0316600160a060020a0316606060020a028152601401915050604051602081830303815290604052604051808280519060200190808383602083106105885780518252601f199092019160209182019101610569565b6000806106df83610b4a565b1192915050565b6106ee610af3565b600160a060020a0316331461070257600080fd5b61070b826106d3565b151561071657600080fd5b61071f826104f4565b81118061072a575080155b151561073557600080fd5b806000808460405160200180807f6461696c794c696d697400000000000000000000000000000000000000000000815250600a0182600160a060020a0316600160a060020a0316606060020a0281526014019150506040516020818303038152906040526040518082805190602001908083835b602083106107c85780518252601f1990920191602091820191016107a9565b51815160209384036101000a6000190180199092169116179052604080519290940182900390912086528581019690965250928301600020949094555080518481529051600160a060020a03861693507fca0b3dabefdbd8c72c0a9cf4a6e9d107da897abf036ef3f3f3b010cdd2594159929181900390910190a25050565b60008061085f836105e18661085a61089d565b610ea5565b9050600061086d60006108a6565b11801561088257508061087f856108a6565b10155b8015610638575061089284610640565b909211159392505050565b62015180420490565b60008060008360405160200180807f657865637574696f6e4461696c794c696d69740000000000000000000000000081525060130182600160a060020a0316600160a060020a0316606060020a028152601401915050604051602081830303815290604052604051808280519060200190808383602083106105885780518252601f199092019160209182019101610569565b600080600080600061094a866104f4565b935061095586610f68565b9250610963866105dc61089d565b9150818311610973576000610977565b8183035b90508084106109865780610988565b835b9695505050505050565b61099a610af3565b600160a060020a031633146109ae57600080fd5b6109b7826106d3565b15156109c257600080fd5b6109cb82610640565b8111806109d6575080155b15156109e157600080fd5b806000808460405160200180807f657865637574696f6e4461696c794c696d69740000000000000000000000000081525060130182600160a060020a0316600160a060020a0316606060020a0281526014019150506040516020818303038152906040526040518082805190602001908083835b60208310610a745780518252601f199092019160209182019101610a55565b51815160209384036101000a6000190180199092169116179052604080519290940182900390912086528581019690965250928301600020949094555080518481529051600160a060020a03861693507f4c177b42dbe934b3abbc0208c11a42e46589983431616f1710ab19969c5ed62e929181900390910190a25050565b7f02016836a56b71f0d02689e69e326f4f4c1b9057164ef592671cf0d37c8040c060005260026020527fb7802e97e87ef2842a6cce7da7ffaeaedaa2f61a6a7870b23d9d01fc9b73712e54600160a060020a031690565b60008060008360405160200180807f6d696e506572547800000000000000000000000000000000000000000000000081525060080182600160a060020a0316600160a060020a0316606060020a028152601401915050604051602081830303815290604052604051808280519060200190808383602083106105885780518252601f199092019160209182019101610569565b6000806000848460405160200180807f746f74616c5370656e745065724461790000000000000000000000000000000081525060100183600160a060020a0316600160a060020a0316606060020a028152601401828152602001925050506040516020818303038152906040526040518082805190602001908083835b60208310610c795780518252601f199092019160209182019101610c5a565b51815160209384036101000a60001901801990921691161790526040805192909401829003909120865285019590955292909201600020549695505050505050565b610cc3610af3565b600160a060020a03163314610cd757600080fd5b610ce0826106d3565b1515610ceb57600080fd5b801580610d115750610cfc82610b4a565b81118015610d115750610d0e82610f68565b81105b1515610d1c57600080fd5b806000808460405160200180807f6d6178506572547800000000000000000000000000000000000000000000000081525060080182600160a060020a0316600160a060020a0316606060020a028152601401915050604051602081830303815290604052604051808280519060200190808383602083106104b25780518252601f199092019160209182019101610493565b610db6610af3565b600160a060020a03163314610dca57600080fd5b610dd3826106d3565b1515610dde57600080fd5b600081118015610df55750610df282610f68565b81105b8015610e085750610e05826104f4565b81105b1515610e1357600080fd5b806000808460405160200180807f6d696e506572547800000000000000000000000000000000000000000000000081525060080182600160a060020a0316600160a060020a0316606060020a028152601401915050604051602081830303815290604052604051808280519060200190808383602083106104b25780518252601f199092019160209182019101610493565b6000806000848460405160200180807f746f74616c45786563757465645065724461790000000000000000000000000081525060130183600160a060020a0316600160a060020a0316606060020a0281526014018281526020019250505060405160208183030381529060405260405180828051906020019080838360208310610c795780518252601f199092019160209182019101610c5a565b610f48610af3565b600160a060020a03163314610f5c57600080fd5b610f658161100e565b50565b60008060008360405160200180807f6461696c794c696d697400000000000000000000000000000000000000000000815250600a0182600160a060020a0316600160a060020a0316606060020a028152601401915050604051602081830303815290604052604051808280519060200190808383602083106105885780518252601f199092019160209182019101610569565b8181018281101561100857fe5b92915050565b600160a060020a038116151561102357600080fd5b7f8be0079c531659141344cd1fd0a4f28419497f9722a3daafe3b4186f6b6457e061104c610af3565b60408051600160a060020a03928316815291841660208301528051918290030190a17f02016836a56b71f0d02689e69e326f4f4c1b9057164ef592671cf0d37c8040c060005260026020527fb7802e97e87ef2842a6cce7da7ffaeaedaa2f61a6a7870b23d9d01fc9b73712e805473ffffffffffffffffffffffffffffffffffffffff1916600160a060020a03929092169190911790555600a165627a7a723058206a013980419bcead411e76f38f5c5a1c7c273357efa58b3be79c8246b2018fa90029",
  "source": "pragma solidity 0.4.24;\n\nimport \"openzeppelin-solidity/contracts/math/SafeMath.sol\";\nimport \"../../upgradeability/EternalStorage.sol\";\nimport \"../Ownable.sol\";\n\ncontract BasicMultiTokenBridge is EternalStorage, Ownable {\n    using SafeMath for uint256;\n\n    // token == 0x00..00 represents default limits (assuming decimals == 18) for all newly created tokens\n    event DailyLimitChanged(address indexed token, uint256 newLimit);\n    event ExecutionDailyLimitChanged(address indexed token, uint256 newLimit);\n\n    /**\n    * @dev Checks if specified token was already bridged at least once.\n    * @param _token address of the token contract.\n    * @return true, if token address is address(0) or token was already bridged.\n    */\n    function isTokenRegistered(address _token) public view returns (bool) {\n        return minPerTx(_token) > 0;\n    }\n\n    /**\n    * @dev Retrieves the total spent amount for particular token during specific day.\n    * @param _token address of the token contract.\n    * @param _day day number for which spent amount if requested.\n    * @return amount of tokens sent through the bridge to the other side.\n    */\n    function totalSpentPerDay(address _token, uint256 _day) public view returns (uint256) {\n        return uintStorage[keccak256(abi.encodePacked(\"totalSpentPerDay\", _token, _day))];\n    }\n\n    /**\n    * @dev Retrieves the total executed amount for particular token during specific day.\n    * @param _token address of the token contract.\n    * @param _day day number for which spent amount if requested.\n    * @return amount of tokens received from the bridge from the other side.\n    */\n    function totalExecutedPerDay(address _token, uint256 _day) public view returns (uint256) {\n        return uintStorage[keccak256(abi.encodePacked(\"totalExecutedPerDay\", _token, _day))];\n    }\n\n    /**\n    * @dev Retrieves current daily limit for a particular token contract.\n    * @param _token address of the token contract.\n    * @return daily limit on tokens that can be sent through the bridge per day.\n    */\n    function dailyLimit(address _token) public view returns (uint256) {\n        return uintStorage[keccak256(abi.encodePacked(\"dailyLimit\", _token))];\n    }\n\n    /**\n    * @dev Retrieves current execution daily limit for a particular token contract.\n    * @param _token address of the token contract.\n    * @return daily limit on tokens that can be received from the bridge on the other side per day.\n    */\n    function executionDailyLimit(address _token) public view returns (uint256) {\n        return uintStorage[keccak256(abi.encodePacked(\"executionDailyLimit\", _token))];\n    }\n\n    /**\n    * @dev Retrieves current maximum amount of tokens per one transfer for a particular token contract.\n    * @param _token address of the token contract.\n    * @return maximum amount on tokens that can be sent through the bridge in one transfer.\n    */\n    function maxPerTx(address _token) public view returns (uint256) {\n        return uintStorage[keccak256(abi.encodePacked(\"maxPerTx\", _token))];\n    }\n\n    /**\n    * @dev Retrieves current maximum execution amount of tokens per one transfer for a particular token contract.\n    * @param _token address of the token contract.\n    * @return maximum amount on tokens that can received from the bridge on the other side in one transaction.\n    */\n    function executionMaxPerTx(address _token) public view returns (uint256) {\n        return uintStorage[keccak256(abi.encodePacked(\"executionMaxPerTx\", _token))];\n    }\n\n    /**\n    * @dev Retrieves current minimum amount of tokens per one transfer for a particular token contract.\n    * @param _token address of the token contract.\n    * @return minimum amount on tokens that can be sent through the bridge in one transfer.\n    */\n    function minPerTx(address _token) public view returns (uint256) {\n        return uintStorage[keccak256(abi.encodePacked(\"minPerTx\", _token))];\n    }\n\n    /**\n    * @dev Checks that bridged amount of tokens conforms to the configured limits.\n    * @param _token address of the token contract.\n    * @param _amount amount of bridge tokens.\n    * @return true, if specified amount can be bridged.\n    */\n    function withinLimit(address _token, uint256 _amount) public view returns (bool) {\n        uint256 nextLimit = totalSpentPerDay(_token, getCurrentDay()).add(_amount);\n        return\n            dailyLimit(address(0)) > 0 &&\n                dailyLimit(_token) >= nextLimit &&\n                _amount <= maxPerTx(_token) &&\n                _amount >= minPerTx(_token);\n    }\n\n    /**\n    * @dev Checks that bridged amount of tokens conforms to the configured execution limits.\n    * @param _token address of the token contract.\n    * @param _amount amount of bridge tokens.\n    * @return true, if specified amount can be processed and executed.\n    */\n    function withinExecutionLimit(address _token, uint256 _amount) public view returns (bool) {\n        uint256 nextLimit = totalExecutedPerDay(_token, getCurrentDay()).add(_amount);\n        return\n            executionDailyLimit(address(0)) > 0 &&\n                executionDailyLimit(_token) >= nextLimit &&\n                _amount <= executionMaxPerTx(_token);\n    }\n\n    /**\n    * @dev Returns current day number.\n    * @return day number.\n    */\n    function getCurrentDay() public view returns (uint256) {\n        // solhint-disable-next-line not-rely-on-time\n        return now / 1 days;\n    }\n\n    /**\n    * @dev Updates daily limit for the particular token. Only owner can call this method.\n    * @param _token address of the token contract, or address(0) for configuring the efault limit.\n    * @param _dailyLimit daily allowed amount of bridged tokens, should be greater than maxPerTx.\n    * 0 value is also allowed, will stop the bridge operations in outgoing direction.\n    */\n    function setDailyLimit(address _token, uint256 _dailyLimit) external onlyOwner {\n        require(isTokenRegistered(_token));\n        require(_dailyLimit > maxPerTx(_token) || _dailyLimit == 0);\n        uintStorage[keccak256(abi.encodePacked(\"dailyLimit\", _token))] = _dailyLimit;\n        emit DailyLimitChanged(_token, _dailyLimit);\n    }\n\n    /**\n    * @dev Updates execution daily limit for the particular token. Only owner can call this method.\n    * @param _token address of the token contract, or address(0) for configuring the default limit.\n    * @param _dailyLimit daily allowed amount of executed tokens, should be greater than executionMaxPerTx.\n    * 0 value is also allowed, will stop the bridge operations in incoming direction.\n    */\n    function setExecutionDailyLimit(address _token, uint256 _dailyLimit) external onlyOwner {\n        require(isTokenRegistered(_token));\n        require(_dailyLimit > executionMaxPerTx(_token) || _dailyLimit == 0);\n        uintStorage[keccak256(abi.encodePacked(\"executionDailyLimit\", _token))] = _dailyLimit;\n        emit ExecutionDailyLimitChanged(_token, _dailyLimit);\n    }\n\n    /**\n    * @dev Updates execution maximum per transaction for the particular token. Only owner can call this method.\n    * @param _token address of the token contract, or address(0) for configuring the default limit.\n    * @param _maxPerTx maximum amount of executed tokens per one transaction, should be less than executionDailyLimit.\n    * 0 value is also allowed, will stop the bridge operations in incoming direction.\n    */\n    function setExecutionMaxPerTx(address _token, uint256 _maxPerTx) external onlyOwner {\n        require(isTokenRegistered(_token));\n        require(_maxPerTx == 0 || (_maxPerTx > 0 && _maxPerTx < executionDailyLimit(_token)));\n        uintStorage[keccak256(abi.encodePacked(\"executionMaxPerTx\", _token))] = _maxPerTx;\n    }\n\n    /**\n    * @dev Updates maximum per transaction for the particular token. Only owner can call this method.\n    * @param _token address of the token contract, or address(0) for configuring the default limit.\n    * @param _maxPerTx maximum amount of tokens per one transaction, should be less than dailyLimit, greater than minPerTx.\n    * 0 value is also allowed, will stop the bridge operations in outgoing direction.\n    */\n    function setMaxPerTx(address _token, uint256 _maxPerTx) external onlyOwner {\n        require(isTokenRegistered(_token));\n        require(_maxPerTx == 0 || (_maxPerTx > minPerTx(_token) && _maxPerTx < dailyLimit(_token)));\n        uintStorage[keccak256(abi.encodePacked(\"maxPerTx\", _token))] = _maxPerTx;\n    }\n\n    /**\n    * @dev Updates minumum per transaction for the particular token. Only owner can call this method.\n    * @param _token address of the token contract, or address(0) for configuring the default limit.\n    * @param _minPerTx minumum amount of tokens per one transaction, should be less than maxPerTx and dailyLimit.\n    */\n    function setMinPerTx(address _token, uint256 _minPerTx) external onlyOwner {\n        require(isTokenRegistered(_token));\n        require(_minPerTx > 0 && _minPerTx < dailyLimit(_token) && _minPerTx < maxPerTx(_token));\n        uintStorage[keccak256(abi.encodePacked(\"minPerTx\", _token))] = _minPerTx;\n    }\n\n    /**\n    * @dev Retrieves maximum available bridge amount per one transaction taking into account maxPerTx() and dailyLimit() parameters.\n    * @param _token address of the token contract, or address(0) for the default limit.\n    * @return minimum of maxPerTx parameter and remaining daily quota.\n    */\n    function maxAvailablePerTx(address _token) public view returns (uint256) {\n        uint256 _maxPerTx = maxPerTx(_token);\n        uint256 _dailyLimit = dailyLimit(_token);\n        uint256 _spent = totalSpentPerDay(_token, getCurrentDay());\n        uint256 _remainingOutOfDaily = _dailyLimit > _spent ? _dailyLimit - _spent : 0;\n        return _maxPerTx < _remainingOutOfDaily ? _maxPerTx : _remainingOutOfDaily;\n    }\n\n    /**\n    * @dev Internal function for adding spent amount for some token.\n    * @param _token address of the token contract.\n    * @param _day day number, when tokens are processed.\n    * @param _value amount of bridge tokens.\n    */\n    function addTotalSpentPerDay(address _token, uint256 _day, uint256 _value) internal {\n        uintStorage[keccak256(abi.encodePacked(\"totalSpentPerDay\", _token, _day))] = totalSpentPerDay(_token, _day).add(\n            _value\n        );\n    }\n\n    /**\n    * @dev Internal function for adding execcuted amount for some token.\n    * @param _token address of the token contract.\n    * @param _day day number, when tokens are processed.\n    * @param _value amount of bridge tokens.\n    */\n    function addTotalExecutedPerDay(address _token, uint256 _day, uint256 _value) internal {\n        uintStorage[keccak256(abi.encodePacked(\"totalExecutedPerDay\", _token, _day))] = totalExecutedPerDay(\n            _token,\n            _day\n        )\n            .add(_value);\n    }\n\n    /**\n    * @dev Internal function for initializing limits for some token.\n    * @param _token address of the token contract.\n    * @param _limits [ 0 = dailyLimit, 1 = maxPerTx, 2 = minPerTx ].\n    */\n    function _setLimits(address _token, uint256[3] _limits) internal {\n        require(\n            _limits[2] > 0 && // minPerTx > 0\n                _limits[1] > _limits[2] && // maxPerTx > minPerTx\n                _limits[0] > _limits[1] // dailyLimit > maxPerTx\n        );\n\n        uintStorage[keccak256(abi.encodePacked(\"dailyLimit\", _token))] = _limits[0];\n        uintStorage[keccak256(abi.encodePacked(\"maxPerTx\", _token))] = _limits[1];\n        uintStorage[keccak256(abi.encodePacked(\"minPerTx\", _token))] = _limits[2];\n\n        emit DailyLimitChanged(_token, _limits[0]);\n    }\n\n    /**\n    * @dev Internal function for initializing execution limits for some token.\n    * @param _token address of the token contract.\n    * @param _limits [ 0 = executionDailyLimit, 1 = executionMaxPerTx ].\n    */\n    function _setExecutionLimits(address _token, uint256[2] _limits) internal {\n        require(_limits[1] < _limits[0]); // foreignMaxPerTx < foreignDailyLimit\n\n        uintStorage[keccak256(abi.encodePacked(\"executionDailyLimit\", _token))] = _limits[0];\n        uintStorage[keccak256(abi.encodePacked(\"executionMaxPerTx\", _token))] = _limits[1];\n\n        emit ExecutionDailyLimitChanged(_token, _limits[0]);\n    }\n\n    /**\n    * @dev Internal function for initializing limits for some token relative to its decimals parameter.\n    * @param _token address of the token contract.\n    * @param _decimals token decimals parameter.\n    */\n    function _initializeTokenBridgeLimits(address _token, uint256 _decimals) internal {\n        uint256 factor;\n        if (_decimals < 18) {\n            factor = 10**(18 - _decimals);\n\n            uint256 _minPerTx = minPerTx(address(0)).div(factor);\n            uint256 _maxPerTx = maxPerTx(address(0)).div(factor);\n            uint256 _dailyLimit = dailyLimit(address(0)).div(factor);\n            uint256 _executionMaxPerTx = executionMaxPerTx(address(0)).div(factor);\n            uint256 _executionDailyLimit = executionDailyLimit(address(0)).div(factor);\n\n            // such situation can happen when calculated limits relative to the token decimals are too low\n            // e.g. minPerTx(address(0)) == 10 ** 14, _decimals == 3. _minPerTx happens to be 0, which is not allowed.\n            // in this case, limits are raised to the default values\n            if (_minPerTx == 0) {\n                // Numbers 1, 100, 10000 are chosen in a semi-random way,\n                // so that any token with small decimals can still be bridged in some amounts.\n                // It is possible to override limits for the particular token later if needed.\n                _minPerTx = 1;\n                if (_maxPerTx <= _minPerTx) {\n                    _maxPerTx = 100;\n                    _executionMaxPerTx = 100;\n                    if (_dailyLimit <= _maxPerTx || _executionDailyLimit <= _executionMaxPerTx) {\n                        _dailyLimit = 10000;\n                        _executionDailyLimit = 10000;\n                    }\n                }\n            }\n            _setLimits(_token, [_dailyLimit, _maxPerTx, _minPerTx]);\n            _setExecutionLimits(_token, [_executionDailyLimit, _executionMaxPerTx]);\n        } else {\n            factor = 10**(_decimals - 18);\n            _setLimits(\n                _token,\n                [dailyLimit(address(0)).mul(factor), maxPerTx(address(0)).mul(factor), minPerTx(address(0)).mul(factor)]\n            );\n            _setExecutionLimits(\n                _token,\n                [executionDailyLimit(address(0)).mul(factor), executionMaxPerTx(address(0)).mul(factor)]\n            );\n        }\n    }\n}\n",
  "sourcePath": "/Users/max/Projects/Symblox/TokenBridge/tokenbridge/contracts/contracts/upgradeable_contracts/multi_amb_erc20_to_erc677/BasicMultiTokenBridge.sol",
  "compiler": {
    "name": "solc",
    "version": "0.4.24+commit.e67f0147.Emscripten.clang"
  },
  "schemaVersion": "3.1.0",
  "updatedAt": "2020-11-26T16:22:39.977Z",
  "devdoc": {
    "methods": {
      "dailyLimit(address)": {
        "details": "Retrieves current daily limit for a particular token contract.",
        "params": {
          "_token": "address of the token contract."
        },
        "return": "daily limit on tokens that can be sent through the bridge per day."
      },
      "executionDailyLimit(address)": {
        "details": "Retrieves current execution daily limit for a particular token contract.",
        "params": {
          "_token": "address of the token contract."
        },
        "return": "daily limit on tokens that can be received from the bridge on the other side per day."
      },
      "executionMaxPerTx(address)": {
        "details": "Retrieves current maximum execution amount of tokens per one transfer for a particular token contract.",
        "params": {
          "_token": "address of the token contract."
        },
        "return": "maximum amount on tokens that can received from the bridge on the other side in one transaction."
      },
      "getCurrentDay()": {
        "details": "Returns current day number.",
        "return": "day number."
      },
      "isTokenRegistered(address)": {
        "details": "Checks if specified token was already bridged at least once.",
        "params": {
          "_token": "address of the token contract."
        },
        "return": "true, if token address is address(0) or token was already bridged."
      },
      "maxAvailablePerTx(address)": {
        "details": "Retrieves maximum available bridge amount per one transaction taking into account maxPerTx() and dailyLimit() parameters.",
        "params": {
          "_token": "address of the token contract, or address(0) for the default limit."
        },
        "return": "minimum of maxPerTx parameter and remaining daily quota."
      },
      "maxPerTx(address)": {
        "details": "Retrieves current maximum amount of tokens per one transfer for a particular token contract.",
        "params": {
          "_token": "address of the token contract."
        },
        "return": "maximum amount on tokens that can be sent through the bridge in one transfer."
      },
      "minPerTx(address)": {
        "details": "Retrieves current minimum amount of tokens per one transfer for a particular token contract.",
        "params": {
          "_token": "address of the token contract."
        },
        "return": "minimum amount on tokens that can be sent through the bridge in one transfer."
      },
      "owner()": {
        "details": "Tells the address of the owner",
        "return": "the address of the owner"
      },
      "setDailyLimit(address,uint256)": {
        "details": "Updates daily limit for the particular token. Only owner can call this method.",
        "params": {
          "_dailyLimit": "daily allowed amount of bridged tokens, should be greater than maxPerTx. 0 value is also allowed, will stop the bridge operations in outgoing direction.",
          "_token": "address of the token contract, or address(0) for configuring the efault limit."
        }
      },
      "setExecutionDailyLimit(address,uint256)": {
        "details": "Updates execution daily limit for the particular token. Only owner can call this method.",
        "params": {
          "_dailyLimit": "daily allowed amount of executed tokens, should be greater than executionMaxPerTx. 0 value is also allowed, will stop the bridge operations in incoming direction.",
          "_token": "address of the token contract, or address(0) for configuring the default limit."
        }
      },
      "setExecutionMaxPerTx(address,uint256)": {
        "details": "Updates execution maximum per transaction for the particular token. Only owner can call this method.",
        "params": {
          "_maxPerTx": "maximum amount of executed tokens per one transaction, should be less than executionDailyLimit. 0 value is also allowed, will stop the bridge operations in incoming direction.",
          "_token": "address of the token contract, or address(0) for configuring the default limit."
        }
      },
      "setMaxPerTx(address,uint256)": {
        "details": "Updates maximum per transaction for the particular token. Only owner can call this method.",
        "params": {
          "_maxPerTx": "maximum amount of tokens per one transaction, should be less than dailyLimit, greater than minPerTx. 0 value is also allowed, will stop the bridge operations in outgoing direction.",
          "_token": "address of the token contract, or address(0) for configuring the default limit."
        }
      },
      "setMinPerTx(address,uint256)": {
        "details": "Updates minumum per transaction for the particular token. Only owner can call this method.",
        "params": {
          "_minPerTx": "minumum amount of tokens per one transaction, should be less than maxPerTx and dailyLimit.",
          "_token": "address of the token contract, or address(0) for configuring the default limit."
        }
      },
      "totalExecutedPerDay(address,uint256)": {
        "details": "Retrieves the total executed amount for particular token during specific day.",
        "params": {
          "_day": "day number for which spent amount if requested.",
          "_token": "address of the token contract."
        },
        "return": "amount of tokens received from the bridge from the other side."
      },
      "totalSpentPerDay(address,uint256)": {
        "details": "Retrieves the total spent amount for particular token during specific day.",
        "params": {
          "_day": "day number for which spent amount if requested.",
          "_token": "address of the token contract."
        },
        "return": "amount of tokens sent through the bridge to the other side."
      },
      "transferOwnership(address)": {
        "details": "Allows the current owner to transfer control of the contract to a newOwner.",
        "params": {
          "newOwner": "the address to transfer ownership to."
        }
      },
      "withinExecutionLimit(address,uint256)": {
        "details": "Checks that bridged amount of tokens conforms to the configured execution limits.",
        "params": {
          "_amount": "amount of bridge tokens.",
          "_token": "address of the token contract."
        },
        "return": "true, if specified amount can be processed and executed."
      },
      "withinLimit(address,uint256)": {
        "details": "Checks that bridged amount of tokens conforms to the configured limits.",
        "params": {
          "_amount": "amount of bridge tokens.",
          "_token": "address of the token contract."
        },
        "return": "true, if specified amount can be bridged."
      }
    }
  },
  "userdoc": {
    "methods": {}
  }
}