{
  "contractName": "BlockRewardWithoutSystem",
  "abi": [
    {
      "constant": true,
      "inputs": [
        {
          "name": "_receiver",
          "type": "address"
        }
      ],
      "name": "extraReceiverAmount",
      "outputs": [
        {
          "name": "",
          "type": "uint256"
        }
      ],
      "payable": false,
      "stateMutability": "view",
      "type": "function"
    },
    {
      "constant": true,
      "inputs": [],
      "name": "bridgesAllowedLength",
      "outputs": [
        {
          "name": "",
          "type": "uint256"
        }
      ],
      "payable": false,
      "stateMutability": "view",
      "type": "function"
    },
    {
      "constant": true,
      "inputs": [],
      "name": "blockRewardContractId",
      "outputs": [
        {
          "name": "",
          "type": "bytes4"
        }
      ],
      "payable": false,
      "stateMutability": "pure",
      "type": "function"
    },
    {
      "constant": true,
      "inputs": [
        {
          "name": "_account",
          "type": "address"
        },
        {
          "name": "_blockNumber",
          "type": "uint256"
        }
      ],
      "name": "mintedForAccountInBlock",
      "outputs": [
        {
          "name": "",
          "type": "uint256"
        }
      ],
      "payable": false,
      "stateMutability": "view",
      "type": "function"
    },
    {
      "constant": true,
      "inputs": [
        {
          "name": "_account",
          "type": "address"
        }
      ],
      "name": "mintedForAccount",
      "outputs": [
        {
          "name": "",
          "type": "uint256"
        }
      ],
      "payable": false,
      "stateMutability": "view",
      "type": "function"
    },
    {
      "constant": true,
      "inputs": [
        {
          "name": "_blockNumber",
          "type": "uint256"
        }
      ],
      "name": "mintedInBlock",
      "outputs": [
        {
          "name": "",
          "type": "uint256"
        }
      ],
      "payable": false,
      "stateMutability": "view",
      "type": "function"
    },
    {
      "constant": true,
      "inputs": [],
      "name": "mintedTotally",
      "outputs": [
        {
          "name": "",
          "type": "uint256"
        }
      ],
      "payable": false,
      "stateMutability": "view",
      "type": "function"
    },
    {
      "constant": true,
      "inputs": [],
      "name": "bridgeContractAddress",
      "outputs": [
        {
          "name": "",
          "type": "address"
        }
      ],
      "payable": false,
      "stateMutability": "view",
      "type": "function"
    },
    {
      "constant": false,
      "inputs": [
        {
          "name": "_amount",
          "type": "uint256"
        },
        {
          "name": "_receiver",
          "type": "address"
        }
      ],
      "name": "addExtraReceiver",
      "outputs": [],
      "payable": false,
      "stateMutability": "nonpayable",
      "type": "function"
    },
    {
      "constant": true,
      "inputs": [
        {
          "name": "_bridge",
          "type": "address"
        }
      ],
      "name": "mintedTotallyByBridge",
      "outputs": [
        {
          "name": "",
          "type": "uint256"
        }
      ],
      "payable": false,
      "stateMutability": "view",
      "type": "function"
    },
    {
      "constant": true,
      "inputs": [
        {
          "name": "_index",
          "type": "uint256"
        }
      ],
      "name": "extraReceiverByIndex",
      "outputs": [
        {
          "name": "",
          "type": "address"
        }
      ],
      "payable": false,
      "stateMutability": "view",
      "type": "function"
    },
    {
      "constant": true,
      "inputs": [
        {
          "name": "_bridge",
          "type": "address"
        }
      ],
      "name": "bridgeAmount",
      "outputs": [
        {
          "name": "",
          "type": "uint256"
        }
      ],
      "payable": false,
      "stateMutability": "view",
      "type": "function"
    },
    {
      "constant": true,
      "inputs": [],
      "name": "extraReceiversLength",
      "outputs": [
        {
          "name": "",
          "type": "uint256"
        }
      ],
      "payable": false,
      "stateMutability": "view",
      "type": "function"
    },
    {
      "constant": false,
      "inputs": [
        {
          "name": "benefactors",
          "type": "address[]"
        },
        {
          "name": "kind",
          "type": "uint16[]"
        }
      ],
      "name": "reward",
      "outputs": [
        {
          "name": "",
          "type": "address[]"
        },
        {
          "name": "",
          "type": "uint256[]"
        }
      ],
      "payable": false,
      "stateMutability": "nonpayable",
      "type": "function"
    },
    {
      "anonymous": false,
      "inputs": [
        {
          "indexed": false,
          "name": "amount",
          "type": "uint256"
        },
        {
          "indexed": true,
          "name": "receiver",
          "type": "address"
        },
        {
          "indexed": true,
          "name": "bridge",
          "type": "address"
        }
      ],
      "name": "AddedReceiver",
      "type": "event"
    },
    {
      "constant": false,
      "inputs": [
        {
          "name": "_addr",
          "type": "address"
        }
      ],
      "name": "setBridgeContractAddress",
      "outputs": [],
      "payable": false,
      "stateMutability": "nonpayable",
      "type": "function"
    },
    {
      "constant": true,
      "inputs": [],
      "name": "bridgesAllowed",
      "outputs": [
        {
          "name": "",
          "type": "address[1]"
        }
      ],
      "payable": false,
      "stateMutability": "view",
      "type": "function"
    }
  ],
  "bytecode": "0x608060405234801561001057600080fd5b50611310806100206000396000f3006080604052600436106100e55763ffffffff7c01000000000000000000000000000000000000000000000000000000006000350416630f3a053381146100ea57806310f2ee7c1461011d5780631120a719146101325780632ee57f8d1461015557806330f6eb161461019f5780633d84b8c1146101c35780634476d66a146101e4578063553a5c85146101fc578063899ca7fc14610211578063a2d2b7731461025e578063aa9fa2741461028f578063b4a523e8146102b3578063db456f77146102d4578063e73b9e2f146102ec578063efdc4d011461030d578063f91c289814610322575b600080fd5b3480156100f657600080fd5b5061010b600160a060020a03600435166103e7565b60408051918252519081900360200190f35b34801561012957600080fd5b5061010b6104b0565b34801561013e57600080fd5b50610153600160a060020a03600435166104b5565b005b34801561016157600080fd5b5061016a6104e4565b604080517fffffffff000000000000000000000000000000000000000000000000000000009092168252519081900360200190f35b3480156101ab57600080fd5b5061010b600160a060020a0360043516602435610519565b3480156101cf57600080fd5b5061010b600160a060020a03600435166105eb565b3480156101f057600080fd5b5061010b600435610672565b34801561020857600080fd5b5061010b6106ea565b34801561021d57600080fd5b50610226610738565b6040518082602080838360005b8381101561024b578181015183820152602001610233565b5050505090500191505060405180910390f35b34801561026a57600080fd5b5061027361075d565b60408051600160a060020a039092168252519081900360200190f35b34801561029b57600080fd5b50610153600435600160a060020a036024351661076c565b3480156102bf57600080fd5b5061010b600160a060020a036004351661082a565b3480156102e057600080fd5b506102736004356108b1565b3480156102f857600080fd5b5061010b600160a060020a0360043516610975565b34801561031957600080fd5b5061010b6109fc565b34801561032e57600080fd5b5061034e6024600480358281019290820135918135918201910135610a4a565b604051808060200180602001838103835285818151815260200191508051906020019060200280838360005b8381101561039257818101518382015260200161037a565b50505050905001838103825284818151815260200191508051906020019060200280838360005b838110156103d15781810151838201526020016103b9565b5050505090500194505050505060405180910390f35b604080517f0f09dbb26898a3af738d25c5fff308337ac8f2b0acbbaf209b373fb1389bcf2f602080830191909152606060020a600160a060020a038516028284015282516034818403018152605490920192839052815160009384938493909282918401908083835b6020831061046f5780518252601f199092019160209182019101610450565b51815160209384036101000a600019018019909216911617905260408051929094018290039091208652850195909552929092016000205495945050505050565b600181565b6006805473ffffffffffffffffffffffffffffffffffffffff1916600160a060020a0392909216919091179055565b604080517f626c6f636b5265776172640000000000000000000000000000000000000000008152905190819003600b01902090565b604080517f24ae442c1f305c4f1294bf2dddd491a64250b2818b446706e9a74aeaaaf6f419602080830191909152606060020a600160a060020a0386160282840152605480830185905283518084039091018152607490920192839052815160009384938493909282918401908083835b602083106105a95780518252601f19909201916020918201910161058a565b51815160209384036101000a60001901801990921691161790526040805192909401829003909120865285019590955292909201600020549695505050505050565b604080517f0fd3be07b1332be84678873bf53feb10604cd09244fb4bb9154e03e00709b9e7602080830191909152606060020a600160a060020a038516028284015282516034818403018152605490920192839052815160009384938493909282918401908083836020831061046f5780518252601f199092019160209182019101610450565b604080517f3840e646f7ce9b3210f5440e2dbd6b36451169bfdac65ef00a161729eded81bd602080830191909152818301849052825180830384018152606090920192839052815160009384938493909282918401908083836020831061046f5780518252601f199092019160209182019101610450565b7f076e79ca1c3a46f0c7d1e9e7f14bcb9716bfc49eed37baf510328301a7109c2560009081526020527fec9588bd3242595c0e33049f6384a658ee56f04f9b9e85c6cc9a045c4948c9515490565b6107406112c5565b506040805160208101909152600654600160a060020a0316815290565b600654600160a060020a031681565b600082151561077a57600080fd5b600160a060020a038216151561078f57600080fd5b610798826103e7565b90508015156107aa576107aa82610bec565b6107c36107bd828563ffffffff610d2916565b83610d3c565b6107e56107df846107d333610975565b9063ffffffff610d2916565b33610e06565b6040805184815290513391600160a060020a038516917f3c798bbcf33115b42c728b8504cff11dd58736e9fa789f1cda2738db7d696b2a9181900360200190a3505050565b604080517f12e71282a577e2b463da2c18bc96b6122db29bcef9065ed5a7f0f9316c11c08e602080830191909152606060020a600160a060020a038516028284015282516034818403018152605490920192839052815160009384938493909282918401908083836020831061046f5780518252601f199092019160209182019101610450565b604080517fa47da669ec9f3749fbb12db00588b5fa6b5bbd24da81eb6cab44261334c21c1760208083019190915281830184905282518083038401815260609092019283905281516000936002938593909282918401908083835b6020831061092b5780518252601f19909201916020918201910161090c565b51815160209384036101000a6000190180199092169116179052604080519290940182900390912086528501959095529290920160002054600160a060020a031695945050505050565b604080517fa7f48dc57b1a051b1732e5ed136bbfd33bb5aa418e3e3498901320529e785461602080830191909152606060020a600160a060020a038516028284015282516034818403018152605490920192839052815160009384938493909282918401908083836020831061046f5780518252601f199092019160209182019101610450565b7f0678259008a66390de8a5ac3f500d1dfb0d0f57018441e2cc69aaa0f52c97d4460009081526020527f3f9dbe5402519a8ea505664ae3f65100b338acc0e57c0abec1fcff383511ac4f5490565b60608060008180828080808080808e15610a6357600080fd5b8c15610a6e57600080fd5b610a766109fc565b995089604051908082528060200260200182016040528015610aa2578160200160208202803883390190505b50985089604051908082528060200260200182016040528015610acf578160200160208202803883390190505b5097506000955060009450600096505b89871015610b6157610af0876108b1565b9350610afb846103e7565b9250610b08600085610d3c565b838988815181101515610b1757fe5b600160a060020a0390921660209283029091019091015287518390899089908110610b3e57fe5b60209081029091010152610b528385610e8d565b60019096019594820194610adf565b600096505b6001871015610bc257610b77610738565b8760018110610b8257fe5b60200201519150610b9282610975565b90506000811115610bb757610ba8600083610e06565b610bb28183611196565b938401935b600190960195610b66565b858514610bce57600080fd5b610bd6611276565b50969e959d50949b505050505050505050505050565b6000610bf66109fc565b604080517fa47da669ec9f3749fbb12db00588b5fa6b5bbd24da81eb6cab44261334c21c176020808301919091528183018490528251808303840181526060909201928390528151939450859360029360009392909182918401908083835b60208310610c745780518252601f199092019160209182019101610c55565b51815160209384036101000a6000190180199092169116179052604080519290940182900390912086528581019690965250929092016000908120805473ffffffffffffffffffffffffffffffffffffffff1916600160a060020a03969096169590951790945550507f0678259008a66390de8a5ac3f500d1dfb0d0f57018441e2cc69aaa0f52c97d448252526001017f3f9dbe5402519a8ea505664ae3f65100b338acc0e57c0abec1fcff383511ac4f5550565b81810182811015610d3657fe5b92915050565b604080517f0f09dbb26898a3af738d25c5fff308337ac8f2b0acbbaf209b373fb1389bcf2f602080830191909152606060020a600160a060020a038516028284015282516034818403018152605490920192839052815185936000938493909282918401908083835b60208310610dc45780518252601f199092019160209182019101610da5565b51815160209384036101000a60001901801990921691161790526040805192909401829003909120865285019590955292909201600020939093555050505050565b604080517fa7f48dc57b1a051b1732e5ed136bbfd33bb5aa418e3e3498901320529e785461602080830191909152606060020a600160a060020a0385160282840152825160348184030181526054909201928390528151859360009384939092829184019080838360208310610dc45780518252601f199092019160209182019101610da5565b604080517f24ae442c1f305c4f1294bf2dddd491a64250b2818b446706e9a74aeaaaf6f419602080830191909152606060020a600160a060020a038516028284015243605480840191909152835180840390910181526074909201928390528151600093918291908401908083835b60208310610f1b5780518252601f199092019160209182019101610efc565b51815160209384036101000a60001901801990921691161790526040805192909401829003822060008181528083528590208a90557f0fd3be07b1332be84678873bf53feb10604cd09244fb4bb9154e03e00709b9e783830152600160a060020a038916606060020a02838601528451808403603401815260549093019485905282519097509195509293508392850191508083835b60208310610fd05780518252601f199092019160209182019101610fb1565b51815160209384036101000a60001901801990921691161790526040805192909401829003909120600081815291829052929020549194506110189350909150859050610d29565b600082815260208181526040918290209290925580517f3840e646f7ce9b3210f5440e2dbd6b36451169bfdac65ef00a161729eded81bd818401524381830152815180820383018152606090910191829052805190928291908401908083835b602083106110975780518252601f199092019160209182019101611078565b51815160209384036101000a60001901801990921691161790526040805192909401829003909120600081815291829052929020549194506110df9350909150859050610d29565b6000828152602081905260408120919091557f076e79ca1c3a46f0c7d1e9e7f14bcb9716bfc49eed37baf510328301a7109c2590527fec9588bd3242595c0e33049f6384a658ee56f04f9b9e85c6cc9a045c4948c95154611146908463ffffffff610d2916565b7f076e79ca1c3a46f0c7d1e9e7f14bcb9716bfc49eed37baf510328301a7109c2560009081526020527fec9588bd3242595c0e33049f6384a658ee56f04f9b9e85c6cc9a045c4948c95155505050565b604080517f12e71282a577e2b463da2c18bc96b6122db29bcef9065ed5a7f0f9316c11c08e602080830191909152606060020a600160a060020a0385160282840152825160348184030181526054909201928390528151600093918291908401908083835b6020831061121a5780518252601f1990920191602091820191016111fb565b51815160209384036101000a60001901801990921691161790526040805192909401829003909120600081815291829052929020549194506112629350909150859050610d29565b600091825260208290526040909120555050565b7f0678259008a66390de8a5ac3f500d1dfb0d0f57018441e2cc69aaa0f52c97d44600090815260208190527f3f9dbe5402519a8ea505664ae3f65100b338acc0e57c0abec1fcff383511ac4f55565b60206040519081016040528060019060208202803883395091929150505600a165627a7a72305820d718df1fefe4b45394e8320de7b844609e183b8636e81ff1d4663384601d87f00029",
  "source": "pragma solidity ^0.4.24;\n\nimport \"../upgradeable_contracts/amb_erc20_to_native/BlockReward.sol\";\n\ncontract BlockRewardWithoutSystem is BlockReward {\n    address public bridgeContractAddress;\n\n    modifier onlySystem {\n        _;\n    }\n\n    modifier onlyBridgeContract {\n        _;\n    }\n\n    function setBridgeContractAddress(address _addr) external {\n        bridgeContractAddress = _addr;\n    }\n\n    function bridgesAllowed() public view returns (address[bridgesAllowedLength]) {\n        // These values must be changed before deploy\n        return [address(bridgeContractAddress)];\n    }\n}\n",
  "sourcePath": "/Users/max/Projects/Symblox/TokenBridge/tokenbridge/contracts/contracts/mocks/BlockRewardWithoutSystem.sol",
  "compiler": {
    "name": "solc",
    "version": "0.4.24+commit.e67f0147.Emscripten.clang"
  },
  "schemaVersion": "3.1.0",
  "updatedAt": "2020-11-26T16:22:39.595Z",
  "devdoc": {
    "methods": {
      "addExtraReceiver(uint256,address)": {
        "details": "Add a receiver for the minted native tokens. Can be called on by a valid bridge contract, that is whitelisted in the contract.",
        "params": {
          "_amount": "amount of native coins to mint for the receiver.",
          "_receiver": "address of a recipient account, to which coins should be minted."
        }
      },
      "blockRewardContractId()": {
        "details": "Verifies that this contract is indeed a block reward contract, by returning a 4-byte contract identifier.",
        "return": "4-byte identifier."
      },
      "bridgeAmount(address)": {
        "details": "Shows pending mint amount, requested by a particular bridge address that hasn't been yet processed by the call to reward().",
        "params": {
          "_bridge": "address of the bridge contract."
        },
        "return": "pending amount of minted tokens."
      },
      "extraReceiverAmount(address)": {
        "details": "Retrieves accumulated amount of requested minted value for the particular receiver address.",
        "params": {
          "_receiver": "address of the receiver."
        },
        "return": "total amount of requested mint operations in the current block."
      },
      "extraReceiverByIndex(uint256)": {
        "details": "Retrieves extra receiver address by its index from the extra receivers list.",
        "params": {
          "_index": "index of receiver in the list, should be less than extraReceiversLength()."
        },
        "return": "address of the receiver."
      },
      "extraReceiversLength()": {
        "details": "Retrieves a number of registered extra receivers in the pending block.",
        "return": "length of the extra receivers list."
      },
      "mintedForAccount(address)": {
        "details": "Retrieves the total minted amount for the given address for the whole chain lifetime.",
        "params": {
          "_account": "address of the receiver."
        },
        "return": "total amount of requested mint operations for the given user for all blocks."
      },
      "mintedForAccountInBlock(address,uint256)": {
        "details": "Retrieves the total minted amount for the given address in the particular block.",
        "params": {
          "_account": "address of the receiver.",
          "_blockNumber": "particular block number."
        },
        "return": "total amount of requested mint operations for given user in the given block."
      },
      "mintedInBlock(uint256)": {
        "details": "Retrieves the total minted amount in the given block.",
        "params": {
          "_blockNumber": "particular block number."
        },
        "return": "total amount of requested mint operations in the specific block."
      },
      "mintedTotally()": {
        "details": "Retrieves the total minted amount for all users for all blocks.",
        "return": "total amount of requested mint operations in this block reward contract."
      },
      "mintedTotallyByBridge(address)": {
        "details": "Retrieves the total minted amount for all users for all blocks for the particular bridge.",
        "params": {
          "_bridge": "address of the bridge contract."
        },
        "return": "total amount of requested mint operations in this block reward contract associated with the given bridge address."
      },
      "reward(address[],uint16[])": {
        "details": "Special method that is called by the system, in order to get accounts and values for minting new coins in upcoming block. Can be called only by a system-reserved address.",
        "params": {
          "benefactors": "list of block reward receivers, should be empty.",
          "kind": "list of reward types for addresses in benefactors list, should be empty."
        },
        "return": "tuple of addresses list and values list of the same length that describes where and how much new coins should be minted."
      }
    }
  },
  "userdoc": {
    "methods": {}
  }
}