{
  "contractName": "BlockReward",
  "abi": [
    {
      "constant": true,
      "inputs": [],
      "name": "bridgesAllowedLength",
      "outputs": [
        {
          "name": "",
          "type": "uint256"
        }
      ],
      "payable": false,
      "stateMutability": "view",
      "type": "function"
    },
    {
      "anonymous": false,
      "inputs": [
        {
          "indexed": false,
          "name": "amount",
          "type": "uint256"
        },
        {
          "indexed": true,
          "name": "receiver",
          "type": "address"
        },
        {
          "indexed": true,
          "name": "bridge",
          "type": "address"
        }
      ],
      "name": "AddedReceiver",
      "type": "event"
    },
    {
      "constant": true,
      "inputs": [],
      "name": "bridgesAllowed",
      "outputs": [
        {
          "name": "",
          "type": "address[1]"
        }
      ],
      "payable": false,
      "stateMutability": "view",
      "type": "function"
    },
    {
      "constant": true,
      "inputs": [],
      "name": "blockRewardContractId",
      "outputs": [
        {
          "name": "",
          "type": "bytes4"
        }
      ],
      "payable": false,
      "stateMutability": "pure",
      "type": "function"
    },
    {
      "constant": false,
      "inputs": [
        {
          "name": "_amount",
          "type": "uint256"
        },
        {
          "name": "_receiver",
          "type": "address"
        }
      ],
      "name": "addExtraReceiver",
      "outputs": [],
      "payable": false,
      "stateMutability": "nonpayable",
      "type": "function"
    },
    {
      "constant": false,
      "inputs": [
        {
          "name": "benefactors",
          "type": "address[]"
        },
        {
          "name": "kind",
          "type": "uint16[]"
        }
      ],
      "name": "reward",
      "outputs": [
        {
          "name": "",
          "type": "address[]"
        },
        {
          "name": "",
          "type": "uint256[]"
        }
      ],
      "payable": false,
      "stateMutability": "nonpayable",
      "type": "function"
    },
    {
      "constant": true,
      "inputs": [
        {
          "name": "_bridge",
          "type": "address"
        }
      ],
      "name": "bridgeAmount",
      "outputs": [
        {
          "name": "",
          "type": "uint256"
        }
      ],
      "payable": false,
      "stateMutability": "view",
      "type": "function"
    },
    {
      "constant": true,
      "inputs": [
        {
          "name": "_index",
          "type": "uint256"
        }
      ],
      "name": "extraReceiverByIndex",
      "outputs": [
        {
          "name": "",
          "type": "address"
        }
      ],
      "payable": false,
      "stateMutability": "view",
      "type": "function"
    },
    {
      "constant": true,
      "inputs": [
        {
          "name": "_receiver",
          "type": "address"
        }
      ],
      "name": "extraReceiverAmount",
      "outputs": [
        {
          "name": "",
          "type": "uint256"
        }
      ],
      "payable": false,
      "stateMutability": "view",
      "type": "function"
    },
    {
      "constant": true,
      "inputs": [],
      "name": "extraReceiversLength",
      "outputs": [
        {
          "name": "",
          "type": "uint256"
        }
      ],
      "payable": false,
      "stateMutability": "view",
      "type": "function"
    },
    {
      "constant": true,
      "inputs": [
        {
          "name": "_account",
          "type": "address"
        }
      ],
      "name": "mintedForAccount",
      "outputs": [
        {
          "name": "",
          "type": "uint256"
        }
      ],
      "payable": false,
      "stateMutability": "view",
      "type": "function"
    },
    {
      "constant": true,
      "inputs": [
        {
          "name": "_account",
          "type": "address"
        },
        {
          "name": "_blockNumber",
          "type": "uint256"
        }
      ],
      "name": "mintedForAccountInBlock",
      "outputs": [
        {
          "name": "",
          "type": "uint256"
        }
      ],
      "payable": false,
      "stateMutability": "view",
      "type": "function"
    },
    {
      "constant": true,
      "inputs": [
        {
          "name": "_blockNumber",
          "type": "uint256"
        }
      ],
      "name": "mintedInBlock",
      "outputs": [
        {
          "name": "",
          "type": "uint256"
        }
      ],
      "payable": false,
      "stateMutability": "view",
      "type": "function"
    },
    {
      "constant": true,
      "inputs": [],
      "name": "mintedTotally",
      "outputs": [
        {
          "name": "",
          "type": "uint256"
        }
      ],
      "payable": false,
      "stateMutability": "view",
      "type": "function"
    },
    {
      "constant": true,
      "inputs": [
        {
          "name": "_bridge",
          "type": "address"
        }
      ],
      "name": "mintedTotallyByBridge",
      "outputs": [
        {
          "name": "",
          "type": "uint256"
        }
      ],
      "payable": false,
      "stateMutability": "view",
      "type": "function"
    }
  ],
  "bytecode": "0x608060405234801561001057600080fd5b50611306806100206000396000f3006080604052600436106100cf5763ffffffff7c01000000000000000000000000000000000000000000000000000000006000350416630f3a053381146100d457806310f2ee7c146101075780632ee57f8d1461011c57806330f6eb16146101665780633d84b8c11461018a5780634476d66a146101ab578063553a5c85146101c3578063899ca7fc146101d8578063aa9fa27414610225578063b4a523e81461024b578063db456f771461026c578063e73b9e2f146102a0578063efdc4d01146102c1578063f91c2898146102d6575b600080fd5b3480156100e057600080fd5b506100f5600160a060020a036004351661039b565b60408051918252519081900360200190f35b34801561011357600080fd5b506100f5610464565b34801561012857600080fd5b50610131610469565b604080517fffffffff000000000000000000000000000000000000000000000000000000009092168252519081900360200190f35b34801561017257600080fd5b506100f5600160a060020a036004351660243561049e565b34801561019657600080fd5b506100f5600160a060020a0360043516610570565b3480156101b757600080fd5b506100f56004356105f7565b3480156101cf57600080fd5b506100f561066f565b3480156101e457600080fd5b506101ed6106bd565b6040518082602080838360005b838110156102125781810151838201526020016101fa565b5050505090500191505060405180910390f35b34801561023157600080fd5b50610249600435600160a060020a03602435166106d8565b005b34801561025757600080fd5b506100f5600160a060020a03600435166107aa565b34801561027857600080fd5b50610284600435610831565b60408051600160a060020a039092168252519081900360200190f35b3480156102ac57600080fd5b506100f5600160a060020a03600435166108f5565b3480156102cd57600080fd5b506100f561097c565b3480156102e257600080fd5b5061030260246004803582810192908201359181359182019101356109ca565b604051808060200180602001838103835285818151815260200191508051906020019060200280838360005b8381101561034657818101518382015260200161032e565b50505050905001838103825284818151815260200191508051906020019060200280838360005b8381101561038557818101518382015260200161036d565b5050505090500194505050505060405180910390f35b604080517f0f09dbb26898a3af738d25c5fff308337ac8f2b0acbbaf209b373fb1389bcf2f602080830191909152606060020a600160a060020a038516028284015282516034818403018152605490920192839052815160009384938493909282918401908083835b602083106104235780518252601f199092019160209182019101610404565b51815160209384036101000a600019018019909216911617905260408051929094018290039091208652850195909552929092016000205495945050505050565b600181565b604080517f626c6f636b5265776172640000000000000000000000000000000000000000008152905190819003600b01902090565b604080517f24ae442c1f305c4f1294bf2dddd491a64250b2818b446706e9a74aeaaaf6f419602080830191909152606060020a600160a060020a0386160282840152605480830185905283518084039091018152607490920192839052815160009384938493909282918401908083835b6020831061052e5780518252601f19909201916020918201910161050f565b51815160209384036101000a60001901801990921691161790526040805192909401829003909120865285019590955292909201600020549695505050505050565b604080517f0fd3be07b1332be84678873bf53feb10604cd09244fb4bb9154e03e00709b9e7602080830191909152606060020a600160a060020a03851602828401528251603481840301815260549092019283905281516000938493849390928291840190808383602083106104235780518252601f199092019160209182019101610404565b604080517f3840e646f7ce9b3210f5440e2dbd6b36451169bfdac65ef00a161729eded81bd60208083019190915281830184905282518083038401815260609092019283905281516000938493849390928291840190808383602083106104235780518252601f199092019160209182019101610404565b7f076e79ca1c3a46f0c7d1e9e7f14bcb9716bfc49eed37baf510328301a7109c2560009081526020527fec9588bd3242595c0e33049f6384a658ee56f04f9b9e85c6cc9a045c4948c9515490565b6106c56112bb565b5060408051602081019091526000815290565b60006106e333610b77565b15156106ee57600080fd5b8215156106fa57600080fd5b600160a060020a038216151561070f57600080fd5b6107188261039b565b905080151561072a5761072a82610be2565b61074361073d828563ffffffff610d1f16565b83610d32565b61076561075f84610753336108f5565b9063ffffffff610d1f16565b33610dfc565b6040805184815290513391600160a060020a038516917f3c798bbcf33115b42c728b8504cff11dd58736e9fa789f1cda2738db7d696b2a9181900360200190a3505050565b604080517f12e71282a577e2b463da2c18bc96b6122db29bcef9065ed5a7f0f9316c11c08e602080830191909152606060020a600160a060020a03851602828401528251603481840301815260549092019283905281516000938493849390928291840190808383602083106104235780518252601f199092019160209182019101610404565b604080517fa47da669ec9f3749fbb12db00588b5fa6b5bbd24da81eb6cab44261334c21c1760208083019190915281830184905282518083038401815260609092019283905281516000936002938593909282918401908083835b602083106108ab5780518252601f19909201916020918201910161088c565b51815160209384036101000a6000190180199092169116179052604080519290940182900390912086528501959095529290920160002054600160a060020a031695945050505050565b604080517fa7f48dc57b1a051b1732e5ed136bbfd33bb5aa418e3e3498901320529e785461602080830191909152606060020a600160a060020a03851602828401528251603481840301815260549092019283905281516000938493849390928291840190808383602083106104235780518252601f199092019160209182019101610404565b7f0678259008a66390de8a5ac3f500d1dfb0d0f57018441e2cc69aaa0f52c97d4460009081526020527f3f9dbe5402519a8ea505664ae3f65100b338acc0e57c0abec1fcff383511ac4f5490565b606080600081808280808080808033156109e357600080fd5b8e156109ee57600080fd5b8c156109f957600080fd5b610a0161097c565b995089604051908082528060200260200182016040528015610a2d578160200160208202803883390190505b50985089604051908082528060200260200182016040528015610a5a578160200160208202803883390190505b5097506000955060009450600096505b89871015610aec57610a7b87610831565b9350610a868461039b565b9250610a93600085610d32565b838988815181101515610aa257fe5b600160a060020a0390921660209283029091019091015287518390899089908110610ac957fe5b60209081029091010152610add8385610e83565b60019096019594820194610a6a565b600096505b6001871015610b4d57610b026106bd565b8760018110610b0d57fe5b60200201519150610b1d826108f5565b90506000811115610b4257610b33600083610dfc565b610b3d818361118c565b938401935b600190960195610af1565b858514610b5957600080fd5b610b6161126c565b50969e959d50949b505050505050505050505050565b6000610b816112bb565b6000610b8b6106bd565b9150600090505b6001811015610bd657818160018110610ba757fe5b6020020151600160a060020a031684600160a060020a03161415610bce5760019250610bdb565b600101610b92565b600092505b5050919050565b6000610bec61097c565b604080517fa47da669ec9f3749fbb12db00588b5fa6b5bbd24da81eb6cab44261334c21c176020808301919091528183018490528251808303840181526060909201928390528151939450859360029360009392909182918401908083835b60208310610c6a5780518252601f199092019160209182019101610c4b565b51815160209384036101000a6000190180199092169116179052604080519290940182900390912086528581019690965250929092016000908120805473ffffffffffffffffffffffffffffffffffffffff1916600160a060020a03969096169590951790945550507f0678259008a66390de8a5ac3f500d1dfb0d0f57018441e2cc69aaa0f52c97d448252526001017f3f9dbe5402519a8ea505664ae3f65100b338acc0e57c0abec1fcff383511ac4f5550565b81810182811015610d2c57fe5b92915050565b604080517f0f09dbb26898a3af738d25c5fff308337ac8f2b0acbbaf209b373fb1389bcf2f602080830191909152606060020a600160a060020a038516028284015282516034818403018152605490920192839052815185936000938493909282918401908083835b60208310610dba5780518252601f199092019160209182019101610d9b565b51815160209384036101000a60001901801990921691161790526040805192909401829003909120865285019590955292909201600020939093555050505050565b604080517fa7f48dc57b1a051b1732e5ed136bbfd33bb5aa418e3e3498901320529e785461602080830191909152606060020a600160a060020a0385160282840152825160348184030181526054909201928390528151859360009384939092829184019080838360208310610dba5780518252601f199092019160209182019101610d9b565b604080517f24ae442c1f305c4f1294bf2dddd491a64250b2818b446706e9a74aeaaaf6f419602080830191909152606060020a600160a060020a038516028284015243605480840191909152835180840390910181526074909201928390528151600093918291908401908083835b60208310610f115780518252601f199092019160209182019101610ef2565b51815160209384036101000a60001901801990921691161790526040805192909401829003822060008181528083528590208a90557f0fd3be07b1332be84678873bf53feb10604cd09244fb4bb9154e03e00709b9e783830152600160a060020a038916606060020a02838601528451808403603401815260549093019485905282519097509195509293508392850191508083835b60208310610fc65780518252601f199092019160209182019101610fa7565b51815160209384036101000a600019018019909216911617905260408051929094018290039091206000818152918290529290205491945061100e9350909150859050610d1f565b600082815260208181526040918290209290925580517f3840e646f7ce9b3210f5440e2dbd6b36451169bfdac65ef00a161729eded81bd818401524381830152815180820383018152606090910191829052805190928291908401908083835b6020831061108d5780518252601f19909201916020918201910161106e565b51815160209384036101000a60001901801990921691161790526040805192909401829003909120600081815291829052929020549194506110d59350909150859050610d1f565b6000828152602081905260408120919091557f076e79ca1c3a46f0c7d1e9e7f14bcb9716bfc49eed37baf510328301a7109c2590527fec9588bd3242595c0e33049f6384a658ee56f04f9b9e85c6cc9a045c4948c9515461113c908463ffffffff610d1f16565b7f076e79ca1c3a46f0c7d1e9e7f14bcb9716bfc49eed37baf510328301a7109c2560009081526020527fec9588bd3242595c0e33049f6384a658ee56f04f9b9e85c6cc9a045c4948c95155505050565b604080517f12e71282a577e2b463da2c18bc96b6122db29bcef9065ed5a7f0f9316c11c08e602080830191909152606060020a600160a060020a0385160282840152825160348184030181526054909201928390528151600093918291908401908083835b602083106112105780518252601f1990920191602091820191016111f1565b51815160209384036101000a60001901801990921691161790526040805192909401829003909120600081815291829052929020549194506112589350909150859050610d1f565b600091825260208290526040909120555050565b7f0678259008a66390de8a5ac3f500d1dfb0d0f57018441e2cc69aaa0f52c97d44600090815260208190527f3f9dbe5402519a8ea505664ae3f65100b338acc0e57c0abec1fcff383511ac4f55565b60206040519081016040528060019060208202803883395091929150505600a165627a7a72305820bf69f2b3bfb633d7111e90c3788451de21f8d0f3f9c17aa3961366089d070e290029",
  "source": "pragma solidity ^0.4.24;\n\nimport \"../../upgradeability/EternalStorage.sol\";\nimport \"openzeppelin-solidity/contracts/math/SafeMath.sol\";\n\ncontract BlockReward is EternalStorage {\n    using SafeMath for uint256;\n\n    bytes32 internal constant MINTED_TOTALLY = 0x076e79ca1c3a46f0c7d1e9e7f14bcb9716bfc49eed37baf510328301a7109c25; // keccak256(abi.encodePacked(\"mintedTotally\"))\n    bytes32 internal constant EXTRA_RECEIVERS_LENGTH = 0x0678259008a66390de8a5ac3f500d1dfb0d0f57018441e2cc69aaa0f52c97d44; // keccak256(abi.encodePacked(\"extraReceiversLength\"))\n    bytes32 internal constant EXTRA_RECEIVER_ADDRESS = 0xa47da669ec9f3749fbb12db00588b5fa6b5bbd24da81eb6cab44261334c21c17; // keccak256(abi.encodePacked(\"extraReceiverAddress\"))\n    bytes32 internal constant EXTRA_RECEIVER_AMOUNT = 0x0f09dbb26898a3af738d25c5fff308337ac8f2b0acbbaf209b373fb1389bcf2f; // keccak256(abi.encodePacked(\"extraReceiverAmount\"))\n    bytes32 internal constant BRIDGE_AMOUNT = 0xa7f48dc57b1a051b1732e5ed136bbfd33bb5aa418e3e3498901320529e785461; // keccak256(abi.encodePacked(\"bridgeAmount\"))\n    bytes32 internal constant MINTED_FOR_ACCOUNT = 0x0fd3be07b1332be84678873bf53feb10604cd09244fb4bb9154e03e00709b9e7; // keccak256(abi.encodePacked(\"mintedForAccount\"))\n    bytes32 internal constant MINTED_FOR_ACCOUNT_IN_BLOCK = 0x24ae442c1f305c4f1294bf2dddd491a64250b2818b446706e9a74aeaaaf6f419; // keccak256(abi.encodePacked(\"mintedForAccountInBlock\"))\n    bytes32 internal constant MINTED_IN_BLOCK = 0x3840e646f7ce9b3210f5440e2dbd6b36451169bfdac65ef00a161729eded81bd; // keccak256(abi.encodePacked(\"mintedInBlock\"))\n    bytes32 internal constant MINTED_TOTALLY_BY_BRIDGE = 0x12e71282a577e2b463da2c18bc96b6122db29bcef9065ed5a7f0f9316c11c08e; // keccak256(abi.encodePacked(\"mintedTotallyByBridge\"))\n\n    // solhint-disable const-name-snakecase\n    uint256 public constant bridgesAllowedLength = 1;\n    // solhint-enable const-name-snakecase\n\n    event AddedReceiver(uint256 amount, address indexed receiver, address indexed bridge);\n\n    /**\n    * @dev Throws if sender is not in the list of allowed bridge contracts.\n    */\n    modifier onlyBridgeContract {\n        require(_isBridgeContract(msg.sender));\n        _;\n    }\n\n    /**\n    * @dev Throws if sender is not account reserved for the system operations.\n    */\n    modifier onlySystem {\n        require(msg.sender == address(0));\n        _;\n    }\n\n    /**\n    * @dev Return the allowed bridge addresses.\n    * @return List of bridge contracts addresses.\n    */\n    function bridgesAllowed() public view returns (address[bridgesAllowedLength]) {\n        // These values must be changed before deploy\n        return [address(0x0000000000000000000000000000000000000000)];\n    }\n\n    /**\n    * @dev Verifies that this contract is indeed a block reward contract, by returning a 4-byte contract identifier.\n    * @return 4-byte identifier.\n    */\n    function blockRewardContractId() public pure returns (bytes4) {\n        return bytes4(keccak256(\"blockReward\"));\n    }\n\n    /**\n    * @dev Add a receiver for the minted native tokens.\n    * Can be called on by a valid bridge contract, that is whitelisted in the contract.\n    * @param _amount amount of native coins to mint for the receiver.\n    * @param _receiver address of a recipient account, to which coins should be minted.\n    */\n    function addExtraReceiver(uint256 _amount, address _receiver) external onlyBridgeContract {\n        require(_amount != 0);\n        require(_receiver != address(0));\n        uint256 oldAmount = extraReceiverAmount(_receiver);\n        if (oldAmount == 0) {\n            _addExtraReceiver(_receiver);\n        }\n        _setExtraReceiverAmount(oldAmount.add(_amount), _receiver);\n        _setBridgeAmount(bridgeAmount(msg.sender).add(_amount), msg.sender);\n        emit AddedReceiver(_amount, _receiver, msg.sender);\n    }\n\n    /**\n    * @dev Special method that is called by the system, in order to get accounts and values for minting new coins in upcoming block.\n    * Can be called only by a system-reserved address.\n    * @param benefactors list of block reward receivers, should be empty.\n    * @param kind list of reward types for addresses in benefactors list, should be empty.\n    * @return tuple of addresses list and values list of the same length that describes where and how much new coins should be minted.\n    */\n    function reward(address[] benefactors, uint16[] kind) external onlySystem returns (address[], uint256[]) {\n        // As these contracts were intended to work on top of the forked Quorum client,\n        // the arguments of this function will depend on the particular client code.\n        // For simplicity, and since Quorum does not have any block rewards,\n        // it was decided to keep argument arrays empty.\n        // However, in the original OpenEthereum blockReward implementation,\n        // first argument should contain some reward receiver addresses (i.e. miner of a block, uncle blocks miners, etc.),\n        // second argument describes the reward types of the benefactors.\n        require(benefactors.length == 0);\n        require(kind.length == 0);\n\n        uint256 extraLength = extraReceiversLength();\n\n        // Lists with extra receivers and their rewards. Extra receivers are generated by the bridge/mediator contracts,\n        // and they are not passed in the benefactors array.\n        address[] memory receivers = new address[](extraLength);\n        uint256[] memory rewards = new uint256[](extraLength);\n\n        uint256 i;\n\n        uint256 sumOfRewards = 0;\n        uint256 sumOfBridgeAmounts = 0;\n\n        for (i = 0; i < extraLength; i++) {\n            address extraAddress = extraReceiverByIndex(i);\n            uint256 extraAmount = extraReceiverAmount(extraAddress);\n            _setExtraReceiverAmount(0, extraAddress);\n            receivers[i] = extraAddress;\n            rewards[i] = extraAmount;\n            _setMinted(extraAmount, extraAddress);\n            sumOfRewards += extraAmount;\n        }\n\n        for (i = 0; i < bridgesAllowedLength; i++) {\n            address bridgeAddress = bridgesAllowed()[i];\n            uint256 bridgeAmountForBlock = bridgeAmount(bridgeAddress);\n\n            if (bridgeAmountForBlock > 0) {\n                _setBridgeAmount(0, bridgeAddress);\n                _addMintedTotallyByBridge(bridgeAmountForBlock, bridgeAddress);\n                sumOfBridgeAmounts += bridgeAmountForBlock;\n            }\n        }\n\n        require(sumOfRewards == sumOfBridgeAmounts);\n\n        _clearExtraReceivers();\n\n        return (receivers, rewards);\n    }\n\n    /**\n    * @dev Shows pending mint amount, requested by a particular bridge address that hasn't been yet processed by the call to reward().\n    * @param _bridge address of the bridge contract.\n    * @return pending amount of minted tokens.\n    */\n    function bridgeAmount(address _bridge) public view returns (uint256) {\n        return uintStorage[keccak256(abi.encodePacked(BRIDGE_AMOUNT, _bridge))];\n    }\n\n    /**\n    * @dev Retrieves extra receiver address by its index from the extra receivers list.\n    * @param _index index of receiver in the list, should be less than extraReceiversLength().\n    * @return address of the receiver.\n    */\n    function extraReceiverByIndex(uint256 _index) public view returns (address) {\n        return addressStorage[keccak256(abi.encodePacked(EXTRA_RECEIVER_ADDRESS, _index))];\n    }\n\n    /**\n    * @dev Retrieves accumulated amount of requested minted value for the particular receiver address.\n    * @param _receiver address of the receiver.\n    * @return total amount of requested mint operations in the current block.\n    */\n    function extraReceiverAmount(address _receiver) public view returns (uint256) {\n        return uintStorage[keccak256(abi.encodePacked(EXTRA_RECEIVER_AMOUNT, _receiver))];\n    }\n\n    /**\n    * @dev Retrieves a number of registered extra receivers in the pending block.\n    * @return length of the extra receivers list.\n    */\n    function extraReceiversLength() public view returns (uint256) {\n        return uintStorage[EXTRA_RECEIVERS_LENGTH];\n    }\n\n    /**\n    * @dev Retrieves the total minted amount for the given address for the whole chain lifetime.\n    * @param _account address of the receiver.\n    * @return total amount of requested mint operations for the given user for all blocks.\n    */\n    function mintedForAccount(address _account) public view returns (uint256) {\n        return uintStorage[keccak256(abi.encodePacked(MINTED_FOR_ACCOUNT, _account))];\n    }\n\n    /**\n    * @dev Retrieves the total minted amount for the given address in the particular block.\n    * @param _account address of the receiver.\n    * @param _blockNumber particular block number.\n    * @return total amount of requested mint operations for given user in the given block.\n    */\n    function mintedForAccountInBlock(address _account, uint256 _blockNumber) public view returns (uint256) {\n        return uintStorage[keccak256(abi.encodePacked(MINTED_FOR_ACCOUNT_IN_BLOCK, _account, _blockNumber))];\n    }\n\n    /**\n    * @dev Retrieves the total minted amount in the given block.\n    * @param _blockNumber particular block number.\n    * @return total amount of requested mint operations in the specific block.\n    */\n    function mintedInBlock(uint256 _blockNumber) public view returns (uint256) {\n        return uintStorage[keccak256(abi.encodePacked(MINTED_IN_BLOCK, _blockNumber))];\n    }\n\n    /**\n    * @dev Retrieves the total minted amount for all users for all blocks.\n    * @return total amount of requested mint operations in this block reward contract.\n    */\n    function mintedTotally() public view returns (uint256) {\n        return uintStorage[MINTED_TOTALLY];\n    }\n\n    /**\n    * @dev Retrieves the total minted amount for all users for all blocks for the particular bridge.\n    * @param _bridge address of the bridge contract.\n    * @return total amount of requested mint operations in this block reward contract associated with the given bridge address.\n    */\n    function mintedTotallyByBridge(address _bridge) public view returns (uint256) {\n        return uintStorage[keccak256(abi.encodePacked(MINTED_TOTALLY_BY_BRIDGE, _bridge))];\n    }\n\n    /**\n    * @dev Internal function for adding extra receiver in the list.\n    * New receiver is added to the end of the list.\n    * @param _receiver address of the receiver.\n    */\n    function _addExtraReceiver(address _receiver) private {\n        uint256 _index = extraReceiversLength();\n        addressStorage[keccak256(abi.encodePacked(EXTRA_RECEIVER_ADDRESS, _index))] = _receiver;\n        uintStorage[EXTRA_RECEIVERS_LENGTH] = _index + 1;\n    }\n\n    /**\n    * @dev Internal function for adding minted value for some particular bridge contract.\n    * @param _amount minted amount.\n    * @param _bridge address of the bridge contract.\n    */\n    function _addMintedTotallyByBridge(uint256 _amount, address _bridge) private {\n        bytes32 hash = keccak256(abi.encodePacked(MINTED_TOTALLY_BY_BRIDGE, _bridge));\n        uintStorage[hash] = uintStorage[hash].add(_amount);\n    }\n\n    /**\n    * @dev Internal function for updating pending bridge amount requested for minting for some particular bridge contract.\n    * @param _amount new minted amount.\n    * @param _bridge address of the bridge contract.\n    */\n    function _setBridgeAmount(uint256 _amount, address _bridge) private {\n        uintStorage[keccak256(abi.encodePacked(BRIDGE_AMOUNT, _bridge))] = _amount;\n    }\n\n    /**\n    * @dev Internal function clearing extra receivers list. It is done by setting receivers list length to 0.\n    */\n    function _clearExtraReceivers() private {\n        uintStorage[EXTRA_RECEIVERS_LENGTH] = 0;\n    }\n\n    /**\n    * @dev Checks if the given address is whitelisted.\n    * @param _addr address of the bridge to check.\n    * @return true, if given address is associated with one of the registered bridges.\n    */\n    function _isBridgeContract(address _addr) private view returns (bool) {\n        address[bridgesAllowedLength] memory bridges = bridgesAllowed();\n\n        for (uint256 i = 0; i < bridges.length; i++) {\n            if (_addr == bridges[i]) {\n                return true;\n            }\n        }\n\n        return false;\n    }\n\n    /**\n    * @dev Internal function for updating pending min amount for minting for some particular user.\n    * @param _amount new minted amount.\n    * @param _receiver address of the bridge receiver.\n    */\n    function _setExtraReceiverAmount(uint256 _amount, address _receiver) private {\n        uintStorage[keccak256(abi.encodePacked(EXTRA_RECEIVER_AMOUNT, _receiver))] = _amount;\n    }\n\n    /**\n    * @dev Internal function for updating different mint statistics.\n    * @param _amount new minted amount.\n    * @param _account address of the receiver.\n    */\n    function _setMinted(uint256 _amount, address _account) private {\n        bytes32 hash = keccak256(abi.encodePacked(MINTED_FOR_ACCOUNT_IN_BLOCK, _account, block.number));\n        uintStorage[hash] = _amount;\n\n        hash = keccak256(abi.encodePacked(MINTED_FOR_ACCOUNT, _account));\n        uintStorage[hash] = uintStorage[hash].add(_amount);\n\n        hash = keccak256(abi.encodePacked(MINTED_IN_BLOCK, block.number));\n        uintStorage[hash] = uintStorage[hash].add(_amount);\n\n        uintStorage[MINTED_TOTALLY] = uintStorage[MINTED_TOTALLY].add(_amount);\n    }\n}\n",
  "sourcePath": "/Users/max/Projects/Symblox/TokenBridge/tokenbridge/contracts/contracts/upgradeable_contracts/amb_erc20_to_native/BlockReward.sol",
  "compiler": {
    "name": "solc",
    "version": "0.4.24+commit.e67f0147.Emscripten.clang"
  },
  "schemaVersion": "3.1.0",
  "updatedAt": "2020-11-26T16:22:39.872Z",
  "devdoc": {
    "methods": {
      "addExtraReceiver(uint256,address)": {
        "details": "Add a receiver for the minted native tokens. Can be called on by a valid bridge contract, that is whitelisted in the contract.",
        "params": {
          "_amount": "amount of native coins to mint for the receiver.",
          "_receiver": "address of a recipient account, to which coins should be minted."
        }
      },
      "blockRewardContractId()": {
        "details": "Verifies that this contract is indeed a block reward contract, by returning a 4-byte contract identifier.",
        "return": "4-byte identifier."
      },
      "bridgeAmount(address)": {
        "details": "Shows pending mint amount, requested by a particular bridge address that hasn't been yet processed by the call to reward().",
        "params": {
          "_bridge": "address of the bridge contract."
        },
        "return": "pending amount of minted tokens."
      },
      "bridgesAllowed()": {
        "details": "Return the allowed bridge addresses.",
        "return": "List of bridge contracts addresses."
      },
      "extraReceiverAmount(address)": {
        "details": "Retrieves accumulated amount of requested minted value for the particular receiver address.",
        "params": {
          "_receiver": "address of the receiver."
        },
        "return": "total amount of requested mint operations in the current block."
      },
      "extraReceiverByIndex(uint256)": {
        "details": "Retrieves extra receiver address by its index from the extra receivers list.",
        "params": {
          "_index": "index of receiver in the list, should be less than extraReceiversLength()."
        },
        "return": "address of the receiver."
      },
      "extraReceiversLength()": {
        "details": "Retrieves a number of registered extra receivers in the pending block.",
        "return": "length of the extra receivers list."
      },
      "mintedForAccount(address)": {
        "details": "Retrieves the total minted amount for the given address for the whole chain lifetime.",
        "params": {
          "_account": "address of the receiver."
        },
        "return": "total amount of requested mint operations for the given user for all blocks."
      },
      "mintedForAccountInBlock(address,uint256)": {
        "details": "Retrieves the total minted amount for the given address in the particular block.",
        "params": {
          "_account": "address of the receiver.",
          "_blockNumber": "particular block number."
        },
        "return": "total amount of requested mint operations for given user in the given block."
      },
      "mintedInBlock(uint256)": {
        "details": "Retrieves the total minted amount in the given block.",
        "params": {
          "_blockNumber": "particular block number."
        },
        "return": "total amount of requested mint operations in the specific block."
      },
      "mintedTotally()": {
        "details": "Retrieves the total minted amount for all users for all blocks.",
        "return": "total amount of requested mint operations in this block reward contract."
      },
      "mintedTotallyByBridge(address)": {
        "details": "Retrieves the total minted amount for all users for all blocks for the particular bridge.",
        "params": {
          "_bridge": "address of the bridge contract."
        },
        "return": "total amount of requested mint operations in this block reward contract associated with the given bridge address."
      },
      "reward(address[],uint16[])": {
        "details": "Special method that is called by the system, in order to get accounts and values for minting new coins in upcoming block. Can be called only by a system-reserved address.",
        "params": {
          "benefactors": "list of block reward receivers, should be empty.",
          "kind": "list of reward types for addresses in benefactors list, should be empty."
        },
        "return": "tuple of addresses list and values list of the same length that describes where and how much new coins should be minted."
      }
    }
  },
  "userdoc": {
    "methods": {}
  }
}