{
  "contractName": "Box",
  "abi": [
    {
      "constant": true,
      "inputs": [],
      "name": "lastSender",
      "outputs": [
        {
          "name": "",
          "type": "address"
        }
      ],
      "payable": false,
      "stateMutability": "view",
      "type": "function"
    },
    {
      "constant": true,
      "inputs": [],
      "name": "value",
      "outputs": [
        {
          "name": "",
          "type": "uint256"
        }
      ],
      "payable": false,
      "stateMutability": "view",
      "type": "function"
    },
    {
      "constant": true,
      "inputs": [],
      "name": "messageId",
      "outputs": [
        {
          "name": "",
          "type": "bytes32"
        }
      ],
      "payable": false,
      "stateMutability": "view",
      "type": "function"
    },
    {
      "constant": true,
      "inputs": [],
      "name": "messageSourceChainId",
      "outputs": [
        {
          "name": "",
          "type": "uint256"
        }
      ],
      "payable": false,
      "stateMutability": "view",
      "type": "function"
    },
    {
      "constant": true,
      "inputs": [],
      "name": "txHash",
      "outputs": [
        {
          "name": "",
          "type": "bytes32"
        }
      ],
      "payable": false,
      "stateMutability": "view",
      "type": "function"
    },
    {
      "constant": false,
      "inputs": [
        {
          "name": "_value",
          "type": "uint256"
        }
      ],
      "name": "setValue",
      "outputs": [],
      "payable": false,
      "stateMutability": "nonpayable",
      "type": "function"
    },
    {
      "constant": false,
      "inputs": [],
      "name": "methodWillFail",
      "outputs": [],
      "payable": false,
      "stateMutability": "nonpayable",
      "type": "function"
    },
    {
      "constant": false,
      "inputs": [],
      "name": "methodOutOfGas",
      "outputs": [],
      "payable": false,
      "stateMutability": "nonpayable",
      "type": "function"
    },
    {
      "constant": false,
      "inputs": [
        {
          "name": "_bridge",
          "type": "address"
        },
        {
          "name": "_executor",
          "type": "address"
        }
      ],
      "name": "methodWillFailOnOtherNetwork",
      "outputs": [],
      "payable": false,
      "stateMutability": "nonpayable",
      "type": "function"
    },
    {
      "constant": false,
      "inputs": [
        {
          "name": "_bridge",
          "type": "address"
        },
        {
          "name": "_executor",
          "type": "address"
        }
      ],
      "name": "methodOutOfGasOnOtherNetwork",
      "outputs": [],
      "payable": false,
      "stateMutability": "nonpayable",
      "type": "function"
    },
    {
      "constant": false,
      "inputs": [
        {
          "name": "_i",
          "type": "uint256"
        },
        {
          "name": "_bridge",
          "type": "address"
        },
        {
          "name": "_executor",
          "type": "address"
        }
      ],
      "name": "setValueOnOtherNetwork",
      "outputs": [],
      "payable": false,
      "stateMutability": "nonpayable",
      "type": "function"
    },
    {
      "constant": false,
      "inputs": [
        {
          "name": "_i",
          "type": "uint256"
        },
        {
          "name": "_bridge",
          "type": "address"
        },
        {
          "name": "_executor",
          "type": "address"
        }
      ],
      "name": "setValueOnOtherNetworkUsingManualLane",
      "outputs": [],
      "payable": false,
      "stateMutability": "nonpayable",
      "type": "function"
    }
  ],
  "bytecode": "0x608060405234801561001057600080fd5b5061092e806100206000396000f3006080604052600436106100b95763ffffffff7c01000000000000000000000000000000000000000000000000000000006000350416631ec6021681146100be578063256fec88146100ea5780633b1718581461011b5780633fa4f245146101305780635524107714610157578063669f618b1461016f5780636b75f02b146101845780639e307dff146101ae578063b2333210146101c3578063b2d28688146101ea578063e6d00319146101ff578063eb2c89a314610226575b600080fd5b3480156100ca57600080fd5b506100e8600435600160a060020a036024358116906044351661023b565b005b3480156100f657600080fd5b506100ff610391565b60408051600160a060020a039092168252519081900360200190f35b34801561012757600080fd5b506100e86100b9565b34801561013c57600080fd5b506101456103a0565b60408051918252519081900360200190f35b34801561016357600080fd5b506100e86004356103a6565b34801561017b57600080fd5b506101456105e2565b34801561019057600080fd5b506100e8600435600160a060020a03602435811690604435166105e8565b3480156101ba57600080fd5b506101456106bc565b3480156101cf57600080fd5b506100e8600160a060020a03600435811690602435166106c2565b3480156101f657600080fd5b506100e8610810565b34801561020b57600080fd5b506100e8600160a060020a036004358116906024351661082e565b34801561023257600080fd5b506101456108fc565b60408051602480820186905282518083038201815260449283018452602081018051600160e060020a03167f5524107700000000000000000000000000000000000000000000000000000000908117825294517f94643f71000000000000000000000000000000000000000000000000000000008152600160a060020a03878116600483019081526202294f96830187905260609583019586528451606484015284519496918a16956394643f71958a9589956084019180838360005b838110156103105781810151838201526020016102f8565b50505050905090810190601f16801561033d5780820380516001836020036101000a031916815260200191505b50945050505050602060405180830381600087803b15801561035e57600080fd5b505af1158015610372573d6000803e3d6000fd5b505050506040513d602081101561038857600080fd5b50505050505050565b600154600160a060020a031681565b60005481565b8060008190555033600160a060020a031663d67bdd256040518163ffffffff167c0100000000000000000000000000000000000000000000000000000000028152600401602060405180830381600087803b15801561040457600080fd5b505af1158015610418573d6000803e3d6000fd5b505050506040513d602081101561042e57600080fd5b50516001805473ffffffffffffffffffffffffffffffffffffffff1916600160a060020a03909216919091179055604080517f669f618b0000000000000000000000000000000000000000000000000000000081529051339163669f618b9160048083019260209291908290030181600087803b1580156104ae57600080fd5b505af11580156104c2573d6000803e3d6000fd5b505050506040513d60208110156104d857600080fd5b5051600255604080517f0ac1c31300000000000000000000000000000000000000000000000000000000815290513391630ac1c3139160048083019260209291908290030181600087803b15801561052f57600080fd5b505af1158015610543573d6000803e3d6000fd5b505050506040513d602081101561055957600080fd5b5051600355604080517f9e307dff00000000000000000000000000000000000000000000000000000000815290513391639e307dff9160048083019260209291908290030181600087803b1580156105b057600080fd5b505af11580156105c4573d6000803e3d6000fd5b505050506040513d60208110156105da57600080fd5b505160045550565b60025481565b60408051602480820186905282518083038201815260449283018452602081018051600160e060020a03167f5524107700000000000000000000000000000000000000000000000000000000908117825294517fdc8601b3000000000000000000000000000000000000000000000000000000008152600160a060020a03878116600483019081526202294f96830187905260609583019586528451606484015284519496918a169563dc8601b3958a958995608401918083836000838110156103105781810151838201526020016102f8565b60045481565b60408051600480825260248083018452602083018051600160e060020a03167fb2d2868800000000000000000000000000000000000000000000000000000000908117825294517fdc8601b3000000000000000000000000000000000000000000000000000000008152600160a060020a038781169482019485526103e8604483018190526060948301948552865160648401528651918a169563dc8601b3958a95899593949293919260849092019180838360005b83811015610790578181015183820152602001610778565b50505050905090810190601f1680156107bd5780820380516001836020036101000a031916815260200191505b50945050505050602060405180830381600087803b1580156107de57600080fd5b505af11580156107f2573d6000803e3d6000fd5b505050506040513d602081101561080857600080fd5b505050505050565b6000805b6103e881101561082a5790810190600101610814565b5050565b60408051600480825260248083018452602083018051600160e060020a03167f3b17185800000000000000000000000000000000000000000000000000000000908117825294517fdc8601b3000000000000000000000000000000000000000000000000000000008152600160a060020a038781169482019485526202294f604483018190526060948301948552865160648401528651918a169563dc8601b3958a958995939492939192608490920191808383600083811015610790578181015183820152602001610778565b600354815600a165627a7a72305820460686e72516c80f884d4817d85c7dd4299ec1af26dbb65aa24a0270be1082220029",
  "source": "pragma solidity 0.4.24;\n\nimport \"../interfaces/IAMB.sol\";\n\ncontract Box {\n    uint256 public value;\n    address public lastSender;\n    bytes32 public messageId;\n    bytes32 public txHash;\n    uint256 public messageSourceChainId;\n\n    function setValue(uint256 _value) public {\n        value = _value;\n        lastSender = IAMB(msg.sender).messageSender();\n        messageId = IAMB(msg.sender).messageId();\n        txHash = IAMB(msg.sender).transactionHash();\n        messageSourceChainId = uint256(IAMB(msg.sender).messageSourceChainId());\n    }\n\n    function methodWillFail() public {\n        revert();\n    }\n\n    function methodOutOfGas() public {\n        uint256 a = 0;\n        for (uint256 i = 0; i < 1000; i++) {\n            a = a + i;\n        }\n    }\n\n    function methodWillFailOnOtherNetwork(address _bridge, address _executor) public {\n        bytes4 methodSelector = this.methodWillFail.selector;\n        bytes memory encodedData = abi.encodeWithSelector(methodSelector);\n        IAMB(_bridge).requireToPassMessage(_executor, encodedData, 141647);\n    }\n\n    function methodOutOfGasOnOtherNetwork(address _bridge, address _executor) public {\n        bytes4 methodSelector = this.methodOutOfGas.selector;\n        bytes memory encodedData = abi.encodeWithSelector(methodSelector);\n        IAMB(_bridge).requireToPassMessage(_executor, encodedData, 1000);\n    }\n\n    function setValueOnOtherNetwork(uint256 _i, address _bridge, address _executor) public {\n        bytes4 methodSelector = this.setValue.selector;\n        bytes memory encodedData = abi.encodeWithSelector(methodSelector, _i);\n        IAMB(_bridge).requireToPassMessage(_executor, encodedData, 141647);\n    }\n\n    function setValueOnOtherNetworkUsingManualLane(uint256 _i, address _bridge, address _executor) public {\n        bytes4 methodSelector = this.setValue.selector;\n        bytes memory encodedData = abi.encodeWithSelector(methodSelector, _i);\n        IAMB(_bridge).requireToConfirmMessage(_executor, encodedData, 141647);\n    }\n}\n",
  "sourcePath": "/Users/max/Projects/Symblox/TokenBridge/tokenbridge/contracts/contracts/mocks/Box.sol",
  "compiler": {
    "name": "solc",
    "version": "0.4.24+commit.e67f0147.Emscripten.clang"
  },
  "schemaVersion": "3.1.0",
  "updatedAt": "2020-11-26T16:22:39.596Z",
  "devdoc": {
    "methods": {}
  },
  "userdoc": {
    "methods": {}
  }
}