{
  "contractName": "ChaiMock",
  "abi": [
    {
      "constant": true,
      "inputs": [],
      "name": "name",
      "outputs": [
        {
          "name": "",
          "type": "string"
        }
      ],
      "payable": false,
      "stateMutability": "view",
      "type": "function"
    },
    {
      "constant": true,
      "inputs": [],
      "name": "totalSupply",
      "outputs": [
        {
          "name": "",
          "type": "uint256"
        }
      ],
      "payable": false,
      "stateMutability": "view",
      "type": "function"
    },
    {
      "constant": true,
      "inputs": [],
      "name": "PERMIT_TYPEHASH",
      "outputs": [
        {
          "name": "",
          "type": "bytes32"
        }
      ],
      "payable": false,
      "stateMutability": "view",
      "type": "function"
    },
    {
      "constant": true,
      "inputs": [],
      "name": "decimals",
      "outputs": [
        {
          "name": "",
          "type": "uint8"
        }
      ],
      "payable": false,
      "stateMutability": "view",
      "type": "function"
    },
    {
      "constant": true,
      "inputs": [],
      "name": "DOMAIN_SEPARATOR",
      "outputs": [
        {
          "name": "",
          "type": "bytes32"
        }
      ],
      "payable": false,
      "stateMutability": "view",
      "type": "function"
    },
    {
      "constant": true,
      "inputs": [],
      "name": "vat",
      "outputs": [
        {
          "name": "",
          "type": "address"
        }
      ],
      "payable": false,
      "stateMutability": "view",
      "type": "function"
    },
    {
      "constant": true,
      "inputs": [],
      "name": "pot",
      "outputs": [
        {
          "name": "",
          "type": "address"
        }
      ],
      "payable": false,
      "stateMutability": "view",
      "type": "function"
    },
    {
      "constant": true,
      "inputs": [],
      "name": "version",
      "outputs": [
        {
          "name": "",
          "type": "string"
        }
      ],
      "payable": false,
      "stateMutability": "view",
      "type": "function"
    },
    {
      "constant": true,
      "inputs": [
        {
          "name": "",
          "type": "address"
        }
      ],
      "name": "balanceOf",
      "outputs": [
        {
          "name": "",
          "type": "uint256"
        }
      ],
      "payable": false,
      "stateMutability": "view",
      "type": "function"
    },
    {
      "constant": true,
      "inputs": [
        {
          "name": "",
          "type": "address"
        }
      ],
      "name": "nonces",
      "outputs": [
        {
          "name": "",
          "type": "uint256"
        }
      ],
      "payable": false,
      "stateMutability": "view",
      "type": "function"
    },
    {
      "constant": true,
      "inputs": [],
      "name": "symbol",
      "outputs": [
        {
          "name": "",
          "type": "string"
        }
      ],
      "payable": false,
      "stateMutability": "view",
      "type": "function"
    },
    {
      "constant": true,
      "inputs": [],
      "name": "daiToken",
      "outputs": [
        {
          "name": "",
          "type": "address"
        }
      ],
      "payable": false,
      "stateMutability": "view",
      "type": "function"
    },
    {
      "constant": true,
      "inputs": [],
      "name": "daiJoin",
      "outputs": [
        {
          "name": "",
          "type": "address"
        }
      ],
      "payable": false,
      "stateMutability": "view",
      "type": "function"
    },
    {
      "constant": true,
      "inputs": [
        {
          "name": "",
          "type": "address"
        },
        {
          "name": "",
          "type": "address"
        }
      ],
      "name": "allowance",
      "outputs": [
        {
          "name": "",
          "type": "uint256"
        }
      ],
      "payable": false,
      "stateMutability": "view",
      "type": "function"
    },
    {
      "inputs": [
        {
          "name": "_vat",
          "type": "address"
        },
        {
          "name": "_pot",
          "type": "address"
        },
        {
          "name": "_daiJoin",
          "type": "address"
        },
        {
          "name": "_dai",
          "type": "address"
        }
      ],
      "payable": false,
      "stateMutability": "nonpayable",
      "type": "constructor"
    },
    {
      "anonymous": false,
      "inputs": [
        {
          "indexed": true,
          "name": "src",
          "type": "address"
        },
        {
          "indexed": true,
          "name": "guy",
          "type": "address"
        },
        {
          "indexed": false,
          "name": "wad",
          "type": "uint256"
        }
      ],
      "name": "Approval",
      "type": "event"
    },
    {
      "anonymous": false,
      "inputs": [
        {
          "indexed": true,
          "name": "src",
          "type": "address"
        },
        {
          "indexed": true,
          "name": "dst",
          "type": "address"
        },
        {
          "indexed": false,
          "name": "wad",
          "type": "uint256"
        }
      ],
      "name": "Transfer",
      "type": "event"
    },
    {
      "constant": false,
      "inputs": [
        {
          "name": "dst",
          "type": "address"
        },
        {
          "name": "wad",
          "type": "uint256"
        }
      ],
      "name": "transfer",
      "outputs": [
        {
          "name": "",
          "type": "bool"
        }
      ],
      "payable": false,
      "stateMutability": "nonpayable",
      "type": "function"
    },
    {
      "constant": false,
      "inputs": [
        {
          "name": "src",
          "type": "address"
        },
        {
          "name": "dst",
          "type": "address"
        },
        {
          "name": "wad",
          "type": "uint256"
        }
      ],
      "name": "move",
      "outputs": [
        {
          "name": "",
          "type": "bool"
        }
      ],
      "payable": false,
      "stateMutability": "nonpayable",
      "type": "function"
    },
    {
      "constant": false,
      "inputs": [
        {
          "name": "src",
          "type": "address"
        },
        {
          "name": "dst",
          "type": "address"
        },
        {
          "name": "wad",
          "type": "uint256"
        }
      ],
      "name": "transferFrom",
      "outputs": [
        {
          "name": "",
          "type": "bool"
        }
      ],
      "payable": false,
      "stateMutability": "nonpayable",
      "type": "function"
    },
    {
      "constant": false,
      "inputs": [
        {
          "name": "usr",
          "type": "address"
        },
        {
          "name": "wad",
          "type": "uint256"
        }
      ],
      "name": "approve",
      "outputs": [
        {
          "name": "",
          "type": "bool"
        }
      ],
      "payable": false,
      "stateMutability": "nonpayable",
      "type": "function"
    },
    {
      "constant": false,
      "inputs": [
        {
          "name": "holder",
          "type": "address"
        },
        {
          "name": "spender",
          "type": "address"
        },
        {
          "name": "nonce",
          "type": "uint256"
        },
        {
          "name": "expiry",
          "type": "uint256"
        },
        {
          "name": "allowed",
          "type": "bool"
        },
        {
          "name": "v",
          "type": "uint8"
        },
        {
          "name": "r",
          "type": "bytes32"
        },
        {
          "name": "s",
          "type": "bytes32"
        }
      ],
      "name": "permit",
      "outputs": [],
      "payable": false,
      "stateMutability": "nonpayable",
      "type": "function"
    },
    {
      "constant": false,
      "inputs": [
        {
          "name": "usr",
          "type": "address"
        }
      ],
      "name": "dai",
      "outputs": [
        {
          "name": "wad",
          "type": "uint256"
        }
      ],
      "payable": false,
      "stateMutability": "nonpayable",
      "type": "function"
    },
    {
      "constant": false,
      "inputs": [
        {
          "name": "dst",
          "type": "address"
        },
        {
          "name": "wad",
          "type": "uint256"
        }
      ],
      "name": "join",
      "outputs": [],
      "payable": false,
      "stateMutability": "nonpayable",
      "type": "function"
    },
    {
      "constant": false,
      "inputs": [
        {
          "name": "src",
          "type": "address"
        },
        {
          "name": "wad",
          "type": "uint256"
        }
      ],
      "name": "exit",
      "outputs": [],
      "payable": false,
      "stateMutability": "nonpayable",
      "type": "function"
    },
    {
      "constant": false,
      "inputs": [
        {
          "name": "src",
          "type": "address"
        },
        {
          "name": "wad",
          "type": "uint256"
        }
      ],
      "name": "draw",
      "outputs": [],
      "payable": false,
      "stateMutability": "nonpayable",
      "type": "function"
    }
  ],
  "bytecode": "0x608060405260008054600160a060020a03199081167335d1b3f3d7966a1dfe207aa4514c12a259a0492b1790915560018054821673197e90f9fad81970ba7976f33cbd77088e5d7cf7179055600280548216739759a6ac90977b93b58547b4a71c78317f391a2817905560038054909116736b175474e89094c44da98b954eedeac495271d0f17905534801561009457600080fd5b5060405160808062001df5833981016040818152825160208401518285015160609095015160008054600160a060020a0319908116600160a060020a0380871691909117808455600180548416838816179055600280548416838c16179081905560038054909416838716179093557fa3b22fc400000000000000000000000000000000000000000000000000000000895291811660048901529551949793969395929492169263a3b22fc4926024808301939282900301818387803b15801561015d57600080fd5b505af1158015610171573d6000803e3d6000fd5b505060008054600154604080517fa3b22fc4000000000000000000000000000000000000000000000000000000008152600160a060020a039283166004820152905191909216945063a3b22fc493506024808301939282900301818387803b1580156101dc57600080fd5b505af11580156101f0573d6000803e3d6000fd5b5050600354600254604080517f095ea7b3000000000000000000000000000000000000000000000000000000008152600160a060020a0392831660048201526000196024820152905191909216935063095ea7b3925060448083019260209291908290030181600087803b15801561026757600080fd5b505af115801561027b573d6000803e3d6000fd5b505050506040513d602081101561029157600080fd5b505050505050611b4e80620002a76000396000f3006080604052600436106101195763ffffffff60e060020a60003504166306fdde03811461011e578063095ea7b3146101a857806318160ddd146101e057806323b872dd1461020757806330adf81f14610231578063313ce567146102465780633644e5151461027157806336569e77146102865780633b4da69f146102b75780634a03707c146102dd5780634ba2363a1461030157806354fd4d50146103165780636c25b3461461032b57806370a082311461034c5780637ecebe001461036d5780638fcbaf0c1461038e57806395d89b41146103cc578063a9059cbb146103e1578063bb35783b14610405578063be22f5461461042f578063c11645bc14610444578063dd62ed3e14610459578063ef693bed14610480575b600080fd5b34801561012a57600080fd5b506101336104a4565b6040805160208082528351818301528351919283929083019185019080838360005b8381101561016d578181015183820152602001610155565b50505050905090810190601f16801561019a5780820380516001836020036101000a031916815260200191505b509250505060405180910390f35b3480156101b457600080fd5b506101cc600160a060020a03600435166024356104db565b604080519115158252519081900360200190f35b3480156101ec57600080fd5b506101f5610542565b60408051918252519081900360200190f35b34801561021357600080fd5b506101cc600160a060020a0360043581169060243516604435610548565b34801561023d57600080fd5b506101f561077c565b34801561025257600080fd5b5061025b6107a0565b6040805160ff9092168252519081900360200190f35b34801561027d57600080fd5b506101f56107a5565b34801561029257600080fd5b5061029b6107c9565b60408051600160a060020a039092168252519081900360200190f35b3480156102c357600080fd5b506102db600160a060020a03600435166024356107d8565b005b3480156102e957600080fd5b506102db600160a060020a0360043516602435610ba9565b34801561030d57600080fd5b5061029b610d58565b34801561032257600080fd5b50610133610d67565b34801561033757600080fd5b506101f5600160a060020a0360043516610d9e565b34801561035857600080fd5b506101f5600160a060020a0360043516610f58565b34801561037957600080fd5b506101f5600160a060020a0360043516610f6a565b34801561039a57600080fd5b506102db600160a060020a0360043581169060243516604435606435608435151560ff60a4351660c43560e435610f7c565b3480156103d857600080fd5b50610133611395565b3480156103ed57600080fd5b506101cc600160a060020a03600435166024356113cc565b34801561041157600080fd5b506101cc600160a060020a03600435811690602435166044356113d9565b34801561043b57600080fd5b5061029b611584565b34801561045057600080fd5b5061029b611593565b34801561046557600080fd5b506101f5600160a060020a03600435811690602435166115a2565b34801561048c57600080fd5b506102db600160a060020a03600435166024356115bf565b60408051808201909152600481527f4368616900000000000000000000000000000000000000000000000000000000602082015281565b336000818152600660209081526040808320600160a060020a038716808552908352818420869055815186815291519394909390927f8c5be1e5ebec7d5bd14f71427d1e84f3dd0314c0f7b2291e5b200ac8c7c3b925928290030190a35060015b92915050565b60045481565b600160a060020a0383166000908152600560205260408120548211156105b8576040805160e560020a62461bcd02815260206004820152601960248201527f636861692f696e73756666696369656e742d62616c616e636500000000000000604482015290519081900360640190fd5b600160a060020a03841633148015906105f65750600160a060020a038416600090815260066020908152604080832033845290915290205460001914155b156106c957600160a060020a0384166000908152600660209081526040808320338452909152902054821115610676576040805160e560020a62461bcd02815260206004820152601b60248201527f636861692f696e73756666696369656e742d616c6c6f77616e63650000000000604482015290519081900360640190fd5b600160a060020a03841660009081526006602090815260408083203384529091529020546106a49083611a6f565b600160a060020a03851660009081526006602090815260408083203384529091529020555b600160a060020a0384166000908152600560205260409020546106ec9083611a6f565b600160a060020a03808616600090815260056020526040808220939093559085168152205461071b9083611a7f565b600160a060020a0380851660008181526005602090815260409182902094909455805186815290519193928816927fddf252ad1be2c89b69c2b068fc378daa952ba7f163c4a11628f55a4df523b3ef92918290030190a35060019392505050565b7fea2aa0a1be11a07ed86d755c93467f4f82362b452371d1ba94d1715123511acb81565b601281565b7f0b50407de9fa158c2cba01a99633329490dfd22989a150c20e8c7b4c1fb0fcc381565b600054600160a060020a031681565b600080600160009054906101000a9004600160a060020a0316600160a060020a03166320aba08b6040518163ffffffff1660e060020a028152600401602060405180830381600087803b15801561082e57600080fd5b505af1158015610842573d6000803e3d6000fd5b505050506040513d602081101561085857600080fd5b505142116108e457600160009054906101000a9004600160a060020a0316600160a060020a031663c92aecc46040518163ffffffff1660e060020a028152600401602060405180830381600087803b1580156108b357600080fd5b505af11580156108c7573d6000803e3d6000fd5b505050506040513d60208110156108dd57600080fd5b5051610964565b600160009054906101000a9004600160a060020a0316600160a060020a0316639f678cca6040518163ffffffff1660e060020a028152600401602060405180830381600087803b15801561093757600080fd5b505af115801561094b573d6000803e3d6000fd5b505050506040513d602081101561096157600080fd5b50515b91506109708383611a8f565b600160a060020a0385166000908152600560205260409020549091506109969082611a7f565b600160a060020a0385166000908152600560205260409020556004546109bc9082611a7f565b6004908155600354604080517f23b872dd00000000000000000000000000000000000000000000000000000000815233938101939093523060248401526044830186905251600160a060020a03909116916323b872dd9160648083019260209291908290030181600087803b158015610a3457600080fd5b505af1158015610a48573d6000803e3d6000fd5b505050506040513d6020811015610a5e57600080fd5b5050600254604080517f3b4da69f000000000000000000000000000000000000000000000000000000008152306004820152602481018690529051600160a060020a0390921691633b4da69f9160448082019260009290919082900301818387803b158015610acc57600080fd5b505af1158015610ae0573d6000803e3d6000fd5b5050600154604080517f049878f3000000000000000000000000000000000000000000000000000000008152600481018690529051600160a060020a03909216935063049878f3925060248082019260009290919082900301818387803b158015610b4a57600080fd5b505af1158015610b5e573d6000803e3d6000fd5b5050604080518481529051600160a060020a0388169350600092507fddf252ad1be2c89b69c2b068fc378daa952ba7f163c4a11628f55a4df523b3ef9181900360200190a350505050565b600154604080517f20aba08b0000000000000000000000000000000000000000000000000000000081529051600092600160a060020a0316916320aba08b91600480830192602092919082900301818787803b158015610c0857600080fd5b505af1158015610c1c573d6000803e3d6000fd5b505050506040513d6020811015610c3257600080fd5b50514211610cbe57600160009054906101000a9004600160a060020a0316600160a060020a031663c92aecc46040518163ffffffff1660e060020a028152600401602060405180830381600087803b158015610c8d57600080fd5b505af1158015610ca1573d6000803e3d6000fd5b505050506040513d6020811015610cb757600080fd5b5051610d3e565b600160009054906101000a9004600160a060020a0316600160a060020a0316639f678cca6040518163ffffffff1660e060020a028152600401602060405180830381600087803b158015610d1157600080fd5b505af1158015610d25573d6000803e3d6000fd5b505050506040513d6020811015610d3b57600080fd5b50515b9050610d5383610d4e8484611ab9565b6115bf565b505050565b600154600160a060020a031681565b60408051808201909152600181527f3100000000000000000000000000000000000000000000000000000000000000602082015281565b600080600160009054906101000a9004600160a060020a0316600160a060020a03166320aba08b6040518163ffffffff1660e060020a028152600401602060405180830381600087803b158015610df457600080fd5b505af1158015610e08573d6000803e3d6000fd5b505050506040513d6020811015610e1e57600080fd5b50514211610eaa57600160009054906101000a9004600160a060020a0316600160a060020a031663c92aecc46040518163ffffffff1660e060020a028152600401602060405180830381600087803b158015610e7957600080fd5b505af1158015610e8d573d6000803e3d6000fd5b505050506040513d6020811015610ea357600080fd5b5051610f2a565b600160009054906101000a9004600160a060020a0316600160a060020a0316639f678cca6040518163ffffffff1660e060020a028152600401602060405180830381600087803b158015610efd57600080fd5b505af1158015610f11573d6000803e3d6000fd5b505050506040513d6020811015610f2757600080fd5b50515b600160a060020a038416600090815260056020526040902054909150610f51908290611ae5565b9392505050565b60056020526000908152604090205481565b60076020526000908152604090205481565b604080517fea2aa0a1be11a07ed86d755c93467f4f82362b452371d1ba94d1715123511acb602080830191909152600160a060020a03808c16838501528a1660608301526080820189905260a0820188905286151560c0808401919091528351808403909101815260e090920192839052815160009384937f0b50407de9fa158c2cba01a99633329490dfd22989a150c20e8c7b4c1fb0fcc393909282918401908083835b602083106110405780518252601f199092019160209182019101611021565b51815160209384036101000a6000190180199092169116179052604080519290940182900382207f190100000000000000000000000000000000000000000000000000000000000083830152602283019790975260428083019790975283518083039097018752606290910192839052855192945084935085019190508083835b602083106110e05780518252601f1990920191602091820191016110c1565b5181516020939093036101000a600019018019909116921691909117905260405192018290039091209450505050600160a060020a038a16151561116e576040805160e560020a62461bcd02815260206004820152601360248201527f636861692f696e76616c696420686f6c64657200000000000000000000000000604482015290519081900360640190fd5b604080516000808252602080830180855286905260ff8916838501526060830188905260808301879052925160019360a0808501949193601f19840193928390039091019190865af11580156111c8573d6000803e3d6000fd5b50505060206040510351600160a060020a03168a600160a060020a031614151561123c576040805160e560020a62461bcd02815260206004820152601360248201527f636861692f696e76616c69642d7065726d697400000000000000000000000000604482015290519081900360640190fd5b8615806112495750864211155b151561129f576040805160e560020a62461bcd02815260206004820152601360248201527f636861692f7065726d69742d6578706972656400000000000000000000000000604482015290519081900360640190fd5b600160a060020a038a1660009081526007602052604090208054600181019091558814611316576040805160e560020a62461bcd02815260206004820152601260248201527f636861692f696e76616c69642d6e6f6e63650000000000000000000000000000604482015290519081900360640190fd5b85611322576000611326565b6000195b600160a060020a03808c166000818152600660209081526040808320948f168084529482529182902085905581518581529151949550929391927f8c5be1e5ebec7d5bd14f71427d1e84f3dd0314c0f7b2291e5b200ac8c7c3b92592918290030190a350505050505050505050565b60408051808201909152600481527f4348414900000000000000000000000000000000000000000000000000000000602082015281565b6000610f51338484610548565b600080600160009054906101000a9004600160a060020a0316600160a060020a03166320aba08b6040518163ffffffff1660e060020a028152600401602060405180830381600087803b15801561142f57600080fd5b505af1158015611443573d6000803e3d6000fd5b505050506040513d602081101561145957600080fd5b505142116114e557600160009054906101000a9004600160a060020a0316600160a060020a031663c92aecc46040518163ffffffff1660e060020a028152600401602060405180830381600087803b1580156114b457600080fd5b505af11580156114c8573d6000803e3d6000fd5b505050506040513d60208110156114de57600080fd5b5051611565565b600160009054906101000a9004600160a060020a0316600160a060020a0316639f678cca6040518163ffffffff1660e060020a028152600401602060405180830381600087803b15801561153857600080fd5b505af115801561154c573d6000803e3d6000fd5b505050506040513d602081101561156257600080fd5b50515b905061157b85856115768685611ab9565b610548565b95945050505050565b600354600160a060020a031681565b600254600160a060020a031681565b600660209081526000928352604080842090915290825290205481565b600160a060020a03821660009081526005602052604081205482111561162f576040805160e560020a62461bcd02815260206004820152601960248201527f636861692f696e73756666696369656e742d62616c616e636500000000000000604482015290519081900360640190fd5b600160a060020a038316331480159061166d5750600160a060020a038316600090815260066020908152604080832033845290915290205460001914155b1561174057600160a060020a03831660009081526006602090815260408083203384529091529020548211156116ed576040805160e560020a62461bcd02815260206004820152601b60248201527f636861692f696e73756666696369656e742d616c6c6f77616e63650000000000604482015290519081900360640190fd5b600160a060020a038316600090815260066020908152604080832033845290915290205461171b9083611a6f565b600160a060020a03841660009081526006602090815260408083203384529091529020555b600160a060020a0383166000908152600560205260409020546117639083611a6f565b600160a060020a0384166000908152600560205260409020556004546117899083611a6f565b6004908155600154604080517f20aba08b0000000000000000000000000000000000000000000000000000000081529051600160a060020a03909216926320aba08b9282820192602092908290030181600087803b1580156117ea57600080fd5b505af11580156117fe573d6000803e3d6000fd5b505050506040513d602081101561181457600080fd5b505142116118a057600160009054906101000a9004600160a060020a0316600160a060020a031663c92aecc46040518163ffffffff1660e060020a028152600401602060405180830381600087803b15801561186f57600080fd5b505af1158015611883573d6000803e3d6000fd5b505050506040513d602081101561189957600080fd5b5051611920565b600160009054906101000a9004600160a060020a0316600160a060020a0316639f678cca6040518163ffffffff1660e060020a028152600401602060405180830381600087803b1580156118f357600080fd5b505af1158015611907573d6000803e3d6000fd5b505050506040513d602081101561191d57600080fd5b50515b600154604080517f7f8661a1000000000000000000000000000000000000000000000000000000008152600481018690529051929350600160a060020a0390911691637f8661a19160248082019260009290919082900301818387803b15801561198957600080fd5b505af115801561199d573d6000803e3d6000fd5b5050600254600160a060020a0316915063ef693bed9050336119bf8486611ae5565b6040518363ffffffff1660e060020a0281526004018083600160a060020a0316600160a060020a0316815260200182815260200192505050600060405180830381600087803b158015611a1157600080fd5b505af1158015611a25573d6000803e3d6000fd5b505060408051858152905160009350600160a060020a03871692507fddf252ad1be2c89b69c2b068fc378daa952ba7f163c4a11628f55a4df523b3ef9181900360200190a3505050565b8082038281111561053c57600080fd5b8082018281101561053c57600080fd5b600081611aa8846b033b2e3c9fd0803ce8000000611afa565b811515611ab157fe5b049392505050565b600081611aa8611ad5856b033b2e3c9fd0803ce8000000611afa565b611ae0856001611a6f565b611a7f565b60006b033b2e3c9fd0803ce8000000611aa884845b6000811580611b17575050808202828282811515611b1457fe5b04145b151561053c57600080fd00a165627a7a7230582031be09455993626710f951992edf621a15db289ae723d4e63dfc814dbb9387c30029",
  "source": "// chai.sol -- a dai savings token\n// Copyright (C) 2017, 2018, 2019 dbrock, rain, mrchico, lucasvo, livnev\n\n// This program is free software: you can redistribute it and/or modify\n// it under the terms of the GNU Affero General Public License as published by\n// the Free Software Foundation, either version 3 of the License, or\n// (at your option) any later version.\n//\n// This program is distributed in the hope that it will be useful,\n// but WITHOUT ANY WARRANTY; without even the implied warranty of\n// MERCHANTABILITY or FITNESS FOR A PARTICULAR PURPOSE.  See the\n// GNU Affero General Public License for more details.\n//\n// You should have received a copy of the GNU Affero General Public License\n// along with this program.  If not, see <https://www.gnu.org/licenses/>.\n\n/* solhint-disable */\npragma solidity 0.4.24;\n\ncontract VatLike {\n    function hope(address) external;\n}\n\ncontract PotLike {\n    function chi() external returns (uint256);\n    function rho() external returns (uint256);\n    function drip() external returns (uint256);\n    function join(uint256) external;\n    function exit(uint256) external;\n}\n\ncontract JoinLike {\n    function join(address, uint256) external;\n    function exit(address, uint256) external;\n}\n\ncontract GemLike {\n    function transferFrom(address, address, uint256) external returns (bool);\n    function approve(address, uint256) external returns (bool);\n}\n\ncontract ChaiMock {\n    // --- Data ---\n    VatLike public vat = VatLike(0x35D1b3F3D7966A1DFe207aa4514C12a259A0492B);\n    PotLike public pot = PotLike(0x197E90f9FAD81970bA7976f33CbD77088E5D7cf7);\n    JoinLike public daiJoin = JoinLike(0x9759A6Ac90977b93B58547b4A71c78317f391A28);\n    GemLike public daiToken = GemLike(0x6B175474E89094C44Da98b954EedeAC495271d0F);\n\n    // --- ERC20 Data ---\n    string public constant name = \"Chai\";\n    string public constant symbol = \"CHAI\";\n    string public constant version = \"1\";\n    uint8 public constant decimals = 18;\n    uint256 public totalSupply;\n\n    mapping(address => uint256) public balanceOf;\n    mapping(address => mapping(address => uint256)) public allowance;\n    mapping(address => uint256) public nonces;\n\n    event Approval(address indexed src, address indexed guy, uint256 wad);\n    event Transfer(address indexed src, address indexed dst, uint256 wad);\n\n    // --- Math ---\n    uint256 constant RAY = 10**27;\n    function add(uint256 x, uint256 y) internal pure returns (uint256 z) {\n        require((z = x + y) >= x);\n    }\n    function sub(uint256 x, uint256 y) internal pure returns (uint256 z) {\n        require((z = x - y) <= x);\n    }\n    function mul(uint256 x, uint256 y) internal pure returns (uint256 z) {\n        require(y == 0 || (z = x * y) / y == x);\n    }\n    function rmul(uint256 x, uint256 y) internal pure returns (uint256 z) {\n        // always rounds down\n        z = mul(x, y) / RAY;\n    }\n    function rdiv(uint256 x, uint256 y) internal pure returns (uint256 z) {\n        // always rounds down\n        z = mul(x, RAY) / y;\n    }\n    function rdivup(uint256 x, uint256 y) internal pure returns (uint256 z) {\n        // always rounds up\n        z = add(mul(x, RAY), sub(y, 1)) / y;\n    }\n\n    // --- EIP712 niceties ---\n    bytes32 public constant DOMAIN_SEPARATOR = 0x0b50407de9fa158c2cba01a99633329490dfd22989a150c20e8c7b4c1fb0fcc3;\n    // keccak256(\"Permit(address holder,address spender,uint256 nonce,uint256 expiry,bool allowed)\"));\n    bytes32 public constant PERMIT_TYPEHASH = 0xea2aa0a1be11a07ed86d755c93467f4f82362b452371d1ba94d1715123511acb;\n\n    constructor(address _vat, address _pot, address _daiJoin, address _dai) public {\n        vat = VatLike(_vat);\n        pot = PotLike(_pot);\n        daiJoin = JoinLike(_daiJoin);\n        daiToken = GemLike(_dai);\n\n        vat.hope(address(daiJoin));\n        vat.hope(address(pot));\n\n        daiToken.approve(address(daiJoin), uint256(-1));\n    }\n\n    // --- Token ---\n    function transfer(address dst, uint256 wad) external returns (bool) {\n        return transferFrom(msg.sender, dst, wad);\n    }\n    // like transferFrom but dai-denominated\n    function move(address src, address dst, uint256 wad) external returns (bool) {\n        uint256 chi = (now > pot.rho()) ? pot.drip() : pot.chi();\n        // rounding up ensures dst gets at least wad dai\n        return transferFrom(src, dst, rdivup(wad, chi));\n    }\n    function transferFrom(address src, address dst, uint256 wad) public returns (bool) {\n        require(balanceOf[src] >= wad, \"chai/insufficient-balance\");\n        if (src != msg.sender && allowance[src][msg.sender] != uint256(-1)) {\n            require(allowance[src][msg.sender] >= wad, \"chai/insufficient-allowance\");\n            allowance[src][msg.sender] = sub(allowance[src][msg.sender], wad);\n        }\n        balanceOf[src] = sub(balanceOf[src], wad);\n        balanceOf[dst] = add(balanceOf[dst], wad);\n        emit Transfer(src, dst, wad);\n        return true;\n    }\n    function approve(address usr, uint256 wad) external returns (bool) {\n        allowance[msg.sender][usr] = wad;\n        emit Approval(msg.sender, usr, wad);\n        return true;\n    }\n\n    // --- Approve by signature ---\n    function permit(\n        address holder,\n        address spender,\n        uint256 nonce,\n        uint256 expiry,\n        bool allowed,\n        uint8 v,\n        bytes32 r,\n        bytes32 s\n    ) external {\n        bytes32 digest = keccak256(\n            abi.encodePacked(\n                \"\\x19\\x01\",\n                DOMAIN_SEPARATOR,\n                keccak256(abi.encode(PERMIT_TYPEHASH, holder, spender, nonce, expiry, allowed))\n            )\n        );\n        require(holder != address(0), \"chai/invalid holder\");\n        require(holder == ecrecover(digest, v, r, s), \"chai/invalid-permit\");\n        require(expiry == 0 || now <= expiry, \"chai/permit-expired\");\n        require(nonce == nonces[holder]++, \"chai/invalid-nonce\");\n\n        uint256 can = allowed ? uint256(-1) : 0;\n        allowance[holder][spender] = can;\n        emit Approval(holder, spender, can);\n    }\n\n    function dai(address usr) external returns (uint256 wad) {\n        uint256 chi = (now > pot.rho()) ? pot.drip() : pot.chi();\n        wad = rmul(chi, balanceOf[usr]);\n    }\n    // wad is denominated in dai\n    function join(address dst, uint256 wad) external {\n        uint256 chi = (now > pot.rho()) ? pot.drip() : pot.chi();\n        uint256 pie = rdiv(wad, chi);\n        balanceOf[dst] = add(balanceOf[dst], pie);\n        totalSupply = add(totalSupply, pie);\n\n        daiToken.transferFrom(msg.sender, address(this), wad);\n        daiJoin.join(address(this), wad);\n        pot.join(pie);\n        emit Transfer(address(0), dst, pie);\n    }\n\n    // wad is denominated in (1/chi) * dai\n    function exit(address src, uint256 wad) public {\n        require(balanceOf[src] >= wad, \"chai/insufficient-balance\");\n        if (src != msg.sender && allowance[src][msg.sender] != uint256(-1)) {\n            require(allowance[src][msg.sender] >= wad, \"chai/insufficient-allowance\");\n            allowance[src][msg.sender] = sub(allowance[src][msg.sender], wad);\n        }\n        balanceOf[src] = sub(balanceOf[src], wad);\n        totalSupply = sub(totalSupply, wad);\n\n        uint256 chi = (now > pot.rho()) ? pot.drip() : pot.chi();\n        pot.exit(wad);\n        daiJoin.exit(msg.sender, rmul(chi, wad));\n        emit Transfer(src, address(0), wad);\n    }\n\n    // wad is denominated in dai\n    function draw(address src, uint256 wad) external {\n        uint256 chi = (now > pot.rho()) ? pot.drip() : pot.chi();\n        // rounding up ensures usr gets at least wad dai\n        exit(src, rdivup(wad, chi));\n    }\n}\n",
  "sourcePath": "/Users/max/Projects/Symblox/TokenBridge/tokenbridge/contracts/contracts/mocks/ChaiMock.sol",
  "compiler": {
    "name": "solc",
    "version": "0.4.24+commit.e67f0147.Emscripten.clang"
  },
  "schemaVersion": "3.1.0",
  "updatedAt": "2020-11-26T16:22:39.599Z",
  "devdoc": {
    "methods": {}
  },
  "userdoc": {
    "methods": {}
  }
}