{
  "contractName": "ChaiMock2",
  "abi": [
    {
      "constant": true,
      "inputs": [],
      "name": "pot",
      "outputs": [
        {
          "name": "",
          "type": "address"
        }
      ],
      "payable": false,
      "stateMutability": "view",
      "type": "function"
    },
    {
      "constant": true,
      "inputs": [],
      "name": "daiToken",
      "outputs": [
        {
          "name": "",
          "type": "address"
        }
      ],
      "payable": false,
      "stateMutability": "view",
      "type": "function"
    },
    {
      "anonymous": false,
      "inputs": [
        {
          "indexed": true,
          "name": "src",
          "type": "address"
        },
        {
          "indexed": true,
          "name": "dst",
          "type": "address"
        },
        {
          "indexed": false,
          "name": "wad",
          "type": "uint256"
        }
      ],
      "name": "Transfer",
      "type": "event"
    },
    {
      "constant": false,
      "inputs": [
        {
          "name": "",
          "type": "address"
        },
        {
          "name": "wad",
          "type": "uint256"
        }
      ],
      "name": "join",
      "outputs": [],
      "payable": false,
      "stateMutability": "nonpayable",
      "type": "function"
    },
    {
      "constant": false,
      "inputs": [
        {
          "name": "to",
          "type": "address"
        },
        {
          "name": "wad",
          "type": "uint256"
        }
      ],
      "name": "transfer",
      "outputs": [],
      "payable": false,
      "stateMutability": "nonpayable",
      "type": "function"
    },
    {
      "constant": false,
      "inputs": [
        {
          "name": "",
          "type": "address"
        },
        {
          "name": "wad",
          "type": "uint256"
        }
      ],
      "name": "exit",
      "outputs": [],
      "payable": false,
      "stateMutability": "nonpayable",
      "type": "function"
    },
    {
      "constant": false,
      "inputs": [
        {
          "name": "",
          "type": "address"
        },
        {
          "name": "wad",
          "type": "uint256"
        }
      ],
      "name": "draw",
      "outputs": [],
      "payable": false,
      "stateMutability": "nonpayable",
      "type": "function"
    },
    {
      "constant": true,
      "inputs": [
        {
          "name": "",
          "type": "address"
        }
      ],
      "name": "dai",
      "outputs": [
        {
          "name": "",
          "type": "uint256"
        }
      ],
      "payable": false,
      "stateMutability": "view",
      "type": "function"
    },
    {
      "constant": true,
      "inputs": [
        {
          "name": "",
          "type": "address"
        }
      ],
      "name": "balanceOf",
      "outputs": [
        {
          "name": "",
          "type": "uint256"
        }
      ],
      "payable": false,
      "stateMutability": "view",
      "type": "function"
    }
  ],
  "bytecode": "0x608060405234801561001057600080fd5b50610388806100206000396000f30060806040526004361061008d5763ffffffff7c01000000000000000000000000000000000000000000000000000000006000350416633b4da69f81146100925780634a03707c146100b85780634ba2363a146100dc5780636c25b3461461010d57806370a082311461010d578063a9059cbb14610140578063be22f54614610164578063ef693bed146100b8575b600080fd5b34801561009e57600080fd5b506100b6600160a060020a0360043516602435610179565b005b3480156100c457600080fd5b506100b6600160a060020a0360043516602435610225565b3480156100e857600080fd5b506100f16102db565b60408051600160a060020a039092168252519081900360200190f35b34801561011957600080fd5b5061012e600160a060020a03600435166102ea565b60408051918252519081900360200190f35b34801561014c57600080fd5b506100b6600160a060020a03600435166024356102f1565b34801561017057600080fd5b506100f161034d565b60008054604080517f23b872dd000000000000000000000000000000000000000000000000000000008152336004820152306024820152604481018590529051600160a060020a03909216926323b872dd926064808401936020939083900390910190829087803b1580156101ed57600080fd5b505af1158015610201573d6000803e3d6000fd5b505050506040513d602081101561021757600080fd5b505060018054909101905550565b60015481111561023457600080fd5b60018054829003905560008054604080517f40c10f19000000000000000000000000000000000000000000000000000000008152336004820152602481018590529051600160a060020a03909216926340c10f19926044808401936020939083900390910190829087803b1580156102ab57600080fd5b505af11580156102bf573d6000803e3d6000fd5b505050506040513d60208110156102d557600080fd5b50505050565b600254600160a060020a031681565b5060015490565b60015481111561030057600080fd5b600180548290039055604080518281529051600160a060020a0384169133917fddf252ad1be2c89b69c2b068fc378daa952ba7f163c4a11628f55a4df523b3ef9181900360200190a35050565b600054600160a060020a0316815600a165627a7a7230582095ad2e505eda23ba133e8a95fb0b174e4e7f1af250f14f534969b48829d736520029",
  "source": "pragma solidity 0.4.24;\n\ncontract GemLike {\n    function mint(address, uint256) external returns (bool);\n    function transferFrom(address, address, uint256) external returns (bool);\n}\n\n/**\n * @title ChaiMock2\n * @dev This contract is used for e2e tests only,\n * this mock represents a simplified version of Chai, which does not require other MakerDAO contracts to be deployed in e2e tests\n */\ncontract ChaiMock2 {\n    event Transfer(address indexed src, address indexed dst, uint256 wad);\n\n    GemLike public daiToken;\n    uint256 internal daiBalance;\n    address public pot;\n\n    // wad is denominated in dai\n    function join(address, uint256 wad) external {\n        daiToken.transferFrom(msg.sender, address(this), wad);\n        daiBalance += wad;\n    }\n\n    function transfer(address to, uint256 wad) external {\n        require(daiBalance >= wad);\n        daiBalance -= wad;\n        emit Transfer(msg.sender, to, wad);\n    }\n\n    function exit(address, uint256 wad) external {\n        require(daiBalance >= wad);\n        daiBalance -= wad;\n        daiToken.mint(msg.sender, wad);\n    }\n\n    function draw(address, uint256 wad) external {\n        require(daiBalance >= wad);\n        daiBalance -= wad;\n        daiToken.mint(msg.sender, wad);\n    }\n\n    function dai(address) external view returns (uint256) {\n        return daiBalance;\n    }\n\n    function balanceOf(address) external view returns (uint256) {\n        return daiBalance;\n    }\n}\n",
  "sourcePath": "/Users/max/Projects/Symblox/TokenBridge/tokenbridge/contracts/contracts/mocks/ChaiMock2.sol",
  "compiler": {
    "name": "solc",
    "version": "0.4.24+commit.e67f0147.Emscripten.clang"
  },
  "schemaVersion": "3.1.0",
  "updatedAt": "2020-11-26T16:22:39.643Z",
  "devdoc": {
    "methods": {},
    "title": "ChaiMock2"
  },
  "userdoc": {
    "methods": {}
  }
}