{
  "contractName": "DaiJoinMock",
  "abi": [
    {
      "constant": true,
      "inputs": [],
      "name": "vat",
      "outputs": [
        {
          "name": "",
          "type": "address"
        }
      ],
      "payable": false,
      "stateMutability": "view",
      "type": "function"
    },
    {
      "constant": true,
      "inputs": [],
      "name": "live",
      "outputs": [
        {
          "name": "",
          "type": "uint256"
        }
      ],
      "payable": false,
      "stateMutability": "view",
      "type": "function"
    },
    {
      "constant": true,
      "inputs": [
        {
          "name": "",
          "type": "address"
        }
      ],
      "name": "wards",
      "outputs": [
        {
          "name": "",
          "type": "uint256"
        }
      ],
      "payable": false,
      "stateMutability": "view",
      "type": "function"
    },
    {
      "constant": true,
      "inputs": [],
      "name": "dai",
      "outputs": [
        {
          "name": "",
          "type": "address"
        }
      ],
      "payable": false,
      "stateMutability": "view",
      "type": "function"
    },
    {
      "inputs": [
        {
          "name": "vat_",
          "type": "address"
        },
        {
          "name": "dai_",
          "type": "address"
        }
      ],
      "payable": false,
      "stateMutability": "nonpayable",
      "type": "constructor"
    },
    {
      "constant": false,
      "inputs": [
        {
          "name": "usr",
          "type": "address"
        }
      ],
      "name": "rely",
      "outputs": [],
      "payable": false,
      "stateMutability": "nonpayable",
      "type": "function"
    },
    {
      "constant": false,
      "inputs": [
        {
          "name": "usr",
          "type": "address"
        }
      ],
      "name": "deny",
      "outputs": [],
      "payable": false,
      "stateMutability": "nonpayable",
      "type": "function"
    },
    {
      "constant": false,
      "inputs": [],
      "name": "cage",
      "outputs": [],
      "payable": false,
      "stateMutability": "nonpayable",
      "type": "function"
    },
    {
      "constant": false,
      "inputs": [
        {
          "name": "usr",
          "type": "address"
        },
        {
          "name": "wad",
          "type": "uint256"
        }
      ],
      "name": "join",
      "outputs": [],
      "payable": false,
      "stateMutability": "nonpayable",
      "type": "function"
    },
    {
      "constant": false,
      "inputs": [
        {
          "name": "usr",
          "type": "address"
        },
        {
          "name": "wad",
          "type": "uint256"
        }
      ],
      "name": "exit",
      "outputs": [],
      "payable": false,
      "stateMutability": "nonpayable",
      "type": "function"
    }
  ],
  "bytecode": "0x608060405234801561001057600080fd5b5060405160408061078d8339810160409081528151602092830151336000908152938490529190922060019081905560038190558054600160a060020a03808516600160a060020a03199283161792839055600280548286169316929092179091551663e7086ccb306100986b033b2e3c9fd0803ce800000080640100000000610122810204565b6040518363ffffffff167c01000000000000000000000000000000000000000000000000000000000281526004018083600160a060020a0316600160a060020a0316815260200182815260200192505050600060405180830381600087803b15801561010357600080fd5b505af1158015610117573d6000803e3d6000fd5b505050505050610150565b600081158061013f57505080820282828281151561013c57fe5b04145b151561014a57600080fd5b92915050565b61062e8061015f6000396000f30060806040526004361061007f5763ffffffff60e060020a60003504166336569e7781146100845780633b4da69f146100b557806365fae35e146100db57806369245009146100fc578063957aa58c146101115780639c52a7f114610138578063bf353dbb14610159578063ef693bed1461017a578063f4b9fa751461019e575b600080fd5b34801561009057600080fd5b506100996101b3565b60408051600160a060020a039092168252519081900360200190f35b3480156100c157600080fd5b506100d9600160a060020a03600435166024356101c2565b005b3480156100e757600080fd5b506100d9600160a060020a03600435166102de565b34801561010857600080fd5b506100d9610362565b34801561011d57600080fd5b506101266103d0565b60408051918252519081900360200190f35b34801561014457600080fd5b506100d9600160a060020a03600435166103d6565b34801561016557600080fd5b50610126600160a060020a0360043516610457565b34801561018657600080fd5b506100d9600160a060020a0360043516602435610469565b3480156101aa57600080fd5b506100996105c5565b600154600160a060020a031681565b600154600160a060020a031663bb35783b30846101eb6b033b2e3c9fd0803ce8000000866105d4565b6040805160e060020a63ffffffff8716028152600160a060020a03948516600482015292909316602483015260448201529051606480830192600092919082900301818387803b15801561023e57600080fd5b505af1158015610252573d6000803e3d6000fd5b5050600254604080517f9dc29fac000000000000000000000000000000000000000000000000000000008152336004820152602481018690529051600160a060020a039092169350639dc29fac925060448082019260009290919082900301818387803b1580156102c257600080fd5b505af11580156102d6573d6000803e3d6000fd5b505050505050565b33600090815260208190526040902054600114610345576040805160e560020a62461bcd02815260206004820152601660248201527f4461694a6f696e2f6e6f742d617574686f72697a656400000000000000000000604482015290519081900360640190fd5b600160a060020a0316600090815260208190526040902060019055565b336000908152602081905260409020546001146103c9576040805160e560020a62461bcd02815260206004820152601660248201527f4461694a6f696e2f6e6f742d617574686f72697a656400000000000000000000604482015290519081900360640190fd5b6000600355565b60035481565b3360009081526020819052604090205460011461043d576040805160e560020a62461bcd02815260206004820152601660248201527f4461694a6f696e2f6e6f742d617574686f72697a656400000000000000000000604482015290519081900360640190fd5b600160a060020a0316600090815260208190526040812055565b60006020819052908152604090205481565b6003546001146104c3576040805160e560020a62461bcd02815260206004820152601060248201527f4461694a6f696e2f6e6f742d6c69766500000000000000000000000000000000604482015290519081900360640190fd5b600154600160a060020a031663bb35783b33306104ec6b033b2e3c9fd0803ce8000000866105d4565b6040805160e060020a63ffffffff8716028152600160a060020a03948516600482015292909316602483015260448201529051606480830192600092919082900301818387803b15801561053f57600080fd5b505af1158015610553573d6000803e3d6000fd5b5050600254604080517f40c10f19000000000000000000000000000000000000000000000000000000008152600160a060020a0387811660048301526024820187905291519190921693506340c10f199250604480830192600092919082900301818387803b1580156102c257600080fd5b600254600160a060020a031681565b60008115806105f15750508082028282828115156105ee57fe5b04145b15156105fc57600080fd5b929150505600a165627a7a7230582094cf102e95ab23270ce9b6756f6584da610885ffc11a614d17039868600aa56a0029",
  "source": "/// join.sol -- Basic token adapters\n\n// Copyright (C) 2018 Rain <rainbreak@riseup.net>\n//\n// This program is free software: you can redistribute it and/or modify\n// it under the terms of the GNU Affero General Public License as published by\n// the Free Software Foundation, either version 3 of the License, or\n// (at your option) any later version.\n//\n// This program is distributed in the hope that it will be useful,\n// but WITHOUT ANY WARRANTY; without even the implied warranty of\n// MERCHANTABILITY or FITNESS FOR A PARTICULAR PURPOSE.  See the\n// GNU Affero General Public License for more details.\n//\n// You should have received a copy of the GNU Affero General Public License\n// along with this program.  If not, see <https://www.gnu.org/licenses/>.\n\n/* solhint-disable */\npragma solidity 0.4.24;\n\ncontract DSTokenLike {\n    function mint(address, uint256) external;\n    function burn(address, uint256) external;\n    function allowance(address, address) external returns (uint256);\n}\n\ncontract VatLike {\n    function slip(bytes32, address, int256) external;\n    function move(address, address, uint256) external;\n    function setDai(address, uint256) external;\n}\n\ncontract DaiJoinMock {\n    // --- Auth ---\n    mapping(address => uint256) public wards;\n    function rely(address usr) external auth {\n        wards[usr] = 1;\n    }\n    function deny(address usr) external auth {\n        wards[usr] = 0;\n    }\n    modifier auth {\n        require(wards[msg.sender] == 1, \"DaiJoin/not-authorized\");\n        _;\n    }\n\n    VatLike public vat;\n    DSTokenLike public dai;\n    uint256 public live; // Access Flag\n\n    constructor(address vat_, address dai_) public {\n        wards[msg.sender] = 1;\n        live = 1;\n        vat = VatLike(vat_);\n        dai = DSTokenLike(dai_);\n        vat.setDai(address(this), mul(ONE, ONE));\n    }\n    function cage() external auth {\n        live = 0;\n    }\n    uint256 constant ONE = 10**27;\n    function mul(uint256 x, uint256 y) internal pure returns (uint256 z) {\n        require(y == 0 || (z = x * y) / y == x);\n    }\n    function join(address usr, uint256 wad) external {\n        vat.move(address(this), usr, mul(ONE, wad));\n        dai.burn(msg.sender, wad);\n    }\n    function exit(address usr, uint256 wad) external {\n        require(live == 1, \"DaiJoin/not-live\");\n        vat.move(msg.sender, address(this), mul(ONE, wad));\n        dai.mint(usr, wad);\n    }\n}\n",
  "sourcePath": "/Users/max/Projects/Symblox/TokenBridge/tokenbridge/contracts/contracts/mocks/DaiJoinMock.sol",
  "compiler": {
    "name": "solc",
    "version": "0.4.24+commit.e67f0147.Emscripten.clang"
  },
  "schemaVersion": "3.1.0",
  "updatedAt": "2020-11-26T16:22:39.649Z",
  "devdoc": {
    "methods": {}
  },
  "userdoc": {
    "methods": {}
  }
}