{
  "contractName": "DaiMock",
  "abi": [
    {
      "constant": true,
      "inputs": [],
      "name": "name",
      "outputs": [
        {
          "name": "",
          "type": "string"
        }
      ],
      "payable": false,
      "stateMutability": "view",
      "type": "function"
    },
    {
      "constant": true,
      "inputs": [],
      "name": "totalSupply",
      "outputs": [
        {
          "name": "",
          "type": "uint256"
        }
      ],
      "payable": false,
      "stateMutability": "view",
      "type": "function"
    },
    {
      "constant": true,
      "inputs": [],
      "name": "PERMIT_TYPEHASH",
      "outputs": [
        {
          "name": "",
          "type": "bytes32"
        }
      ],
      "payable": false,
      "stateMutability": "view",
      "type": "function"
    },
    {
      "constant": true,
      "inputs": [],
      "name": "decimals",
      "outputs": [
        {
          "name": "",
          "type": "uint8"
        }
      ],
      "payable": false,
      "stateMutability": "view",
      "type": "function"
    },
    {
      "constant": true,
      "inputs": [],
      "name": "DOMAIN_SEPARATOR",
      "outputs": [
        {
          "name": "",
          "type": "bytes32"
        }
      ],
      "payable": false,
      "stateMutability": "view",
      "type": "function"
    },
    {
      "constant": true,
      "inputs": [],
      "name": "version",
      "outputs": [
        {
          "name": "",
          "type": "string"
        }
      ],
      "payable": false,
      "stateMutability": "view",
      "type": "function"
    },
    {
      "constant": true,
      "inputs": [
        {
          "name": "",
          "type": "address"
        }
      ],
      "name": "balanceOf",
      "outputs": [
        {
          "name": "",
          "type": "uint256"
        }
      ],
      "payable": false,
      "stateMutability": "view",
      "type": "function"
    },
    {
      "constant": true,
      "inputs": [
        {
          "name": "",
          "type": "address"
        }
      ],
      "name": "nonces",
      "outputs": [
        {
          "name": "",
          "type": "uint256"
        }
      ],
      "payable": false,
      "stateMutability": "view",
      "type": "function"
    },
    {
      "constant": true,
      "inputs": [],
      "name": "symbol",
      "outputs": [
        {
          "name": "",
          "type": "string"
        }
      ],
      "payable": false,
      "stateMutability": "view",
      "type": "function"
    },
    {
      "constant": true,
      "inputs": [
        {
          "name": "",
          "type": "address"
        }
      ],
      "name": "wards",
      "outputs": [
        {
          "name": "",
          "type": "uint256"
        }
      ],
      "payable": false,
      "stateMutability": "view",
      "type": "function"
    },
    {
      "constant": true,
      "inputs": [
        {
          "name": "",
          "type": "address"
        },
        {
          "name": "",
          "type": "address"
        }
      ],
      "name": "allowance",
      "outputs": [
        {
          "name": "",
          "type": "uint256"
        }
      ],
      "payable": false,
      "stateMutability": "view",
      "type": "function"
    },
    {
      "inputs": [],
      "payable": false,
      "stateMutability": "nonpayable",
      "type": "constructor"
    },
    {
      "anonymous": false,
      "inputs": [
        {
          "indexed": true,
          "name": "src",
          "type": "address"
        },
        {
          "indexed": true,
          "name": "guy",
          "type": "address"
        },
        {
          "indexed": false,
          "name": "wad",
          "type": "uint256"
        }
      ],
      "name": "Approval",
      "type": "event"
    },
    {
      "anonymous": false,
      "inputs": [
        {
          "indexed": true,
          "name": "src",
          "type": "address"
        },
        {
          "indexed": true,
          "name": "dst",
          "type": "address"
        },
        {
          "indexed": false,
          "name": "wad",
          "type": "uint256"
        }
      ],
      "name": "Transfer",
      "type": "event"
    },
    {
      "constant": false,
      "inputs": [
        {
          "name": "guy",
          "type": "address"
        }
      ],
      "name": "rely",
      "outputs": [],
      "payable": false,
      "stateMutability": "nonpayable",
      "type": "function"
    },
    {
      "constant": false,
      "inputs": [
        {
          "name": "guy",
          "type": "address"
        }
      ],
      "name": "deny",
      "outputs": [],
      "payable": false,
      "stateMutability": "nonpayable",
      "type": "function"
    },
    {
      "constant": false,
      "inputs": [
        {
          "name": "dst",
          "type": "address"
        },
        {
          "name": "wad",
          "type": "uint256"
        }
      ],
      "name": "transfer",
      "outputs": [
        {
          "name": "",
          "type": "bool"
        }
      ],
      "payable": false,
      "stateMutability": "nonpayable",
      "type": "function"
    },
    {
      "constant": false,
      "inputs": [
        {
          "name": "src",
          "type": "address"
        },
        {
          "name": "dst",
          "type": "address"
        },
        {
          "name": "wad",
          "type": "uint256"
        }
      ],
      "name": "transferFrom",
      "outputs": [
        {
          "name": "",
          "type": "bool"
        }
      ],
      "payable": false,
      "stateMutability": "nonpayable",
      "type": "function"
    },
    {
      "constant": false,
      "inputs": [
        {
          "name": "usr",
          "type": "address"
        },
        {
          "name": "wad",
          "type": "uint256"
        }
      ],
      "name": "mint",
      "outputs": [],
      "payable": false,
      "stateMutability": "nonpayable",
      "type": "function"
    },
    {
      "constant": false,
      "inputs": [
        {
          "name": "usr",
          "type": "address"
        },
        {
          "name": "wad",
          "type": "uint256"
        }
      ],
      "name": "burn",
      "outputs": [],
      "payable": false,
      "stateMutability": "nonpayable",
      "type": "function"
    },
    {
      "constant": false,
      "inputs": [
        {
          "name": "usr",
          "type": "address"
        },
        {
          "name": "wad",
          "type": "uint256"
        }
      ],
      "name": "approve",
      "outputs": [
        {
          "name": "",
          "type": "bool"
        }
      ],
      "payable": false,
      "stateMutability": "nonpayable",
      "type": "function"
    },
    {
      "constant": false,
      "inputs": [
        {
          "name": "usr",
          "type": "address"
        },
        {
          "name": "wad",
          "type": "uint256"
        }
      ],
      "name": "push",
      "outputs": [],
      "payable": false,
      "stateMutability": "nonpayable",
      "type": "function"
    },
    {
      "constant": false,
      "inputs": [
        {
          "name": "usr",
          "type": "address"
        },
        {
          "name": "wad",
          "type": "uint256"
        }
      ],
      "name": "pull",
      "outputs": [],
      "payable": false,
      "stateMutability": "nonpayable",
      "type": "function"
    },
    {
      "constant": false,
      "inputs": [
        {
          "name": "src",
          "type": "address"
        },
        {
          "name": "dst",
          "type": "address"
        },
        {
          "name": "wad",
          "type": "uint256"
        }
      ],
      "name": "move",
      "outputs": [],
      "payable": false,
      "stateMutability": "nonpayable",
      "type": "function"
    },
    {
      "constant": false,
      "inputs": [
        {
          "name": "holder",
          "type": "address"
        },
        {
          "name": "spender",
          "type": "address"
        },
        {
          "name": "nonce",
          "type": "uint256"
        },
        {
          "name": "expiry",
          "type": "uint256"
        },
        {
          "name": "allowed",
          "type": "bool"
        },
        {
          "name": "v",
          "type": "uint8"
        },
        {
          "name": "r",
          "type": "bytes32"
        },
        {
          "name": "s",
          "type": "bytes32"
        }
      ],
      "name": "permit",
      "outputs": [],
      "payable": false,
      "stateMutability": "nonpayable",
      "type": "function"
    }
  ],
  "bytecode": "0x608060405234801561001057600080fd5b5033600090815260208190526040902060019055611108806100336000396000f3006080604052600436106101275763ffffffff7c010000000000000000000000000000000000000000000000000000000060003504166306fdde03811461012c578063095ea7b3146101b657806318160ddd146101ee57806323b872dd1461021557806330adf81f1461023f578063313ce567146102545780633644e5151461027f57806340c10f191461029457806354fd4d50146102ba57806365fae35e146102cf57806370a08231146102f05780637ecebe00146103115780638fcbaf0c1461033257806395d89b41146103705780639c52a7f1146103855780639dc29fac146103a6578063a9059cbb146103ca578063b753a98c146103ee578063bb35783b14610412578063bf353dbb1461043c578063dd62ed3e1461045d578063f2d5d56b14610484575b600080fd5b34801561013857600080fd5b506101416104a8565b6040805160208082528351818301528351919283929083019185019080838360005b8381101561017b578181015183820152602001610163565b50505050905090810190601f1680156101a85780820380516001836020036101000a031916815260200191505b509250505060405180910390f35b3480156101c257600080fd5b506101da600160a060020a03600435166024356104df565b604080519115158252519081900360200190f35b3480156101fa57600080fd5b50610203610546565b60408051918252519081900360200190f35b34801561022157600080fd5b506101da600160a060020a036004358116906024351660443561054c565b34801561024b57600080fd5b50610203610780565b34801561026057600080fd5b506102696107a4565b6040805160ff9092168252519081900360200190f35b34801561028b57600080fd5b506102036107a9565b3480156102a057600080fd5b506102b8600160a060020a03600435166024356107af565b005b3480156102c657600080fd5b506101416108a7565b3480156102db57600080fd5b506102b8600160a060020a03600435166108de565b3480156102fc57600080fd5b50610203600160a060020a0360043516610962565b34801561031d57600080fd5b50610203600160a060020a0360043516610974565b34801561033e57600080fd5b506102b8600160a060020a0360043581169060243516604435606435608435151560ff60a4351660c43560e435610986565b34801561037c57600080fd5b50610141610d83565b34801561039157600080fd5b506102b8600160a060020a0360043516610dba565b3480156103b257600080fd5b506102b8600160a060020a0360043516602435610e3b565b3480156103d657600080fd5b506101da600160a060020a036004351660243561104d565b3480156103fa57600080fd5b506102b8600160a060020a0360043516602435611061565b34801561041e57600080fd5b506102b8600160a060020a0360043581169060243516604435611071565b34801561044857600080fd5b50610203600160a060020a0360043516611082565b34801561046957600080fd5b50610203600160a060020a0360043581169060243516611094565b34801561049057600080fd5b506102b8600160a060020a03600435166024356110b1565b60408051808201909152600e81527f44616920537461626c65636f696e000000000000000000000000000000000000602082015281565b336000818152600360209081526040808320600160a060020a038716808552908352818420869055815186815291519394909390927f8c5be1e5ebec7d5bd14f71427d1e84f3dd0314c0f7b2291e5b200ac8c7c3b925928290030190a35060015b92915050565b60015481565b600160a060020a0383166000908152600260205260408120548211156105bc576040805160e560020a62461bcd02815260206004820152601860248201527f4461692f696e73756666696369656e742d62616c616e63650000000000000000604482015290519081900360640190fd5b600160a060020a03841633148015906105fa5750600160a060020a038416600090815260036020908152604080832033845290915290205460001914155b156106cd57600160a060020a038416600090815260036020908152604080832033845290915290205482111561067a576040805160e560020a62461bcd02815260206004820152601a60248201527f4461692f696e73756666696369656e742d616c6c6f77616e6365000000000000604482015290519081900360640190fd5b600160a060020a03841660009081526003602090815260408083203384529091529020546106a890836110bc565b600160a060020a03851660009081526003602090815260408083203384529091529020555b600160a060020a0384166000908152600260205260409020546106f090836110bc565b600160a060020a03808616600090815260026020526040808220939093559085168152205461071f90836110cc565b600160a060020a0380851660008181526002602090815260409182902094909455805186815290519193928816927fddf252ad1be2c89b69c2b068fc378daa952ba7f163c4a11628f55a4df523b3ef92918290030190a35060019392505050565b7fea2aa0a1be11a07ed86d755c93467f4f82362b452371d1ba94d1715123511acb81565b601281565b60055481565b33600090815260208190526040902054600114610816576040805160e560020a62461bcd02815260206004820152601260248201527f4461692f6e6f742d617574686f72697a65640000000000000000000000000000604482015290519081900360640190fd5b600160a060020a03821660009081526002602052604090205461083990826110cc565b600160a060020a03831660009081526002602052604090205560015461085f90826110cc565b600155604080518281529051600160a060020a038416916000917fddf252ad1be2c89b69c2b068fc378daa952ba7f163c4a11628f55a4df523b3ef9181900360200190a35050565b60408051808201909152600181527f3100000000000000000000000000000000000000000000000000000000000000602082015281565b33600090815260208190526040902054600114610945576040805160e560020a62461bcd02815260206004820152601260248201527f4461692f6e6f742d617574686f72697a65640000000000000000000000000000604482015290519081900360640190fd5b600160a060020a0316600090815260208190526040902060019055565b60026020526000908152604090205481565b60046020526000908152604090205481565b600554604080517fea2aa0a1be11a07ed86d755c93467f4f82362b452371d1ba94d1715123511acb602080830191909152600160a060020a03808d16838501528b166060830152608082018a905260a0820189905287151560c0808401919091528351808403909101815260e09092019283905281516000948594909392909182918401908083835b60208310610a2e5780518252601f199092019160209182019101610a0f565b51815160209384036101000a6000190180199092169116179052604080519290940182900382207f190100000000000000000000000000000000000000000000000000000000000083830152602283019790975260428083019790975283518083039097018752606290910192839052855192945084935085019190508083835b60208310610ace5780518252601f199092019160209182019101610aaf565b5181516020939093036101000a600019018019909116921691909117905260405192018290039091209450505050600160a060020a038a161515610b5c576040805160e560020a62461bcd02815260206004820152601560248201527f4461692f696e76616c69642d616464726573732d300000000000000000000000604482015290519081900360640190fd5b604080516000808252602080830180855286905260ff8916838501526060830188905260808301879052925160019360a0808501949193601f19840193928390039091019190865af1158015610bb6573d6000803e3d6000fd5b50505060206040510351600160a060020a03168a600160a060020a0316141515610c2a576040805160e560020a62461bcd02815260206004820152601260248201527f4461692f696e76616c69642d7065726d69740000000000000000000000000000604482015290519081900360640190fd5b861580610c375750864211155b1515610c8d576040805160e560020a62461bcd02815260206004820152601260248201527f4461692f7065726d69742d657870697265640000000000000000000000000000604482015290519081900360640190fd5b600160a060020a038a1660009081526004602052604090208054600181019091558814610d04576040805160e560020a62461bcd02815260206004820152601160248201527f4461692f696e76616c69642d6e6f6e6365000000000000000000000000000000604482015290519081900360640190fd5b85610d10576000610d14565b6000195b600160a060020a03808c166000818152600360209081526040808320948f168084529482529182902085905581518581529151949550929391927f8c5be1e5ebec7d5bd14f71427d1e84f3dd0314c0f7b2291e5b200ac8c7c3b92592918290030190a350505050505050505050565b60408051808201909152600381527f4441490000000000000000000000000000000000000000000000000000000000602082015281565b33600090815260208190526040902054600114610e21576040805160e560020a62461bcd02815260206004820152601260248201527f4461692f6e6f742d617574686f72697a65640000000000000000000000000000604482015290519081900360640190fd5b600160a060020a0316600090815260208190526040812055565b600160a060020a038216600090815260026020526040902054811115610eab576040805160e560020a62461bcd02815260206004820152601860248201527f4461692f696e73756666696369656e742d62616c616e63650000000000000000604482015290519081900360640190fd5b600160a060020a0382163314801590610ee95750600160a060020a038216600090815260036020908152604080832033845290915290205460001914155b15610fbc57600160a060020a0382166000908152600360209081526040808320338452909152902054811115610f69576040805160e560020a62461bcd02815260206004820152601a60248201527f4461692f696e73756666696369656e742d616c6c6f77616e6365000000000000604482015290519081900360640190fd5b600160a060020a0382166000908152600360209081526040808320338452909152902054610f9790826110bc565b600160a060020a03831660009081526003602090815260408083203384529091529020555b600160a060020a038216600090815260026020526040902054610fdf90826110bc565b600160a060020a03831660009081526002602052604090205560015461100590826110bc565b600155604080518281529051600091600160a060020a038516917fddf252ad1be2c89b69c2b068fc378daa952ba7f163c4a11628f55a4df523b3ef9181900360200190a35050565b600061105a33848461054c565b9392505050565b61106c33838361054c565b505050565b61107c83838361054c565b50505050565b60006020819052908152604090205481565b600360209081526000928352604080842090915290825290205481565b61106c82338361054c565b8082038281111561054057600080fd5b8082018281101561054057600080fd00a165627a7a7230582057e376fa5dd8db0922d15cc767f27f7b7f549b88cf9a49f748c72282c029559d0029",
  "source": "// Copyright (C) 2017, 2018, 2019 dbrock, rain, mrchico\n\n// This program is free software: you can redistribute it and/or modify\n// it under the terms of the GNU Affero General Public License as published by\n// the Free Software Foundation, either version 3 of the License, or\n// (at your option) any later version.\n//\n// This program is distributed in the hope that it will be useful,\n// but WITHOUT ANY WARRANTY; without even the implied warranty of\n// MERCHANTABILITY or FITNESS FOR A PARTICULAR PURPOSE.  See the\n// GNU Affero General Public License for more details.\n//\n// You should have received a copy of the GNU Affero General Public License\n// along with this program.  If not, see <https://www.gnu.org/licenses/>.\n\n/* solhint-disable */\npragma solidity 0.4.24;\n\ncontract DaiMock {\n    // --- Auth ---\n    mapping(address => uint256) public wards;\n    function rely(address guy) external auth {\n        wards[guy] = 1;\n    }\n    function deny(address guy) external auth {\n        wards[guy] = 0;\n    }\n    modifier auth {\n        require(wards[msg.sender] == 1, \"Dai/not-authorized\");\n        _;\n    }\n\n    // --- ERC20 Data ---\n    string public constant name = \"Dai Stablecoin\";\n    string public constant symbol = \"DAI\";\n    string public constant version = \"1\";\n    uint8 public constant decimals = 18;\n    uint256 public totalSupply;\n\n    mapping(address => uint256) public balanceOf;\n    mapping(address => mapping(address => uint256)) public allowance;\n    mapping(address => uint256) public nonces;\n\n    event Approval(address indexed src, address indexed guy, uint256 wad);\n    event Transfer(address indexed src, address indexed dst, uint256 wad);\n\n    // --- Math ---\n    function add(uint256 x, uint256 y) internal pure returns (uint256 z) {\n        require((z = x + y) >= x);\n    }\n    function sub(uint256 x, uint256 y) internal pure returns (uint256 z) {\n        require((z = x - y) <= x);\n    }\n\n    // --- EIP712 niceties ---\n    bytes32 public DOMAIN_SEPARATOR;\n    // bytes32 public constant PERMIT_TYPEHASH = keccak256(\"Permit(address holder,address spender,uint256 nonce,uint256 expiry,bool allowed)\");\n    bytes32 public constant PERMIT_TYPEHASH = 0xea2aa0a1be11a07ed86d755c93467f4f82362b452371d1ba94d1715123511acb;\n\n    constructor() public {\n        wards[msg.sender] = 1;\n    }\n\n    // --- Token ---\n    function transfer(address dst, uint256 wad) external returns (bool) {\n        return transferFrom(msg.sender, dst, wad);\n    }\n    function transferFrom(address src, address dst, uint256 wad) public returns (bool) {\n        require(balanceOf[src] >= wad, \"Dai/insufficient-balance\");\n        if (src != msg.sender && allowance[src][msg.sender] != uint256(-1)) {\n            require(allowance[src][msg.sender] >= wad, \"Dai/insufficient-allowance\");\n            allowance[src][msg.sender] = sub(allowance[src][msg.sender], wad);\n        }\n        balanceOf[src] = sub(balanceOf[src], wad);\n        balanceOf[dst] = add(balanceOf[dst], wad);\n        emit Transfer(src, dst, wad);\n        return true;\n    }\n    function mint(address usr, uint256 wad) external auth {\n        balanceOf[usr] = add(balanceOf[usr], wad);\n        totalSupply = add(totalSupply, wad);\n        emit Transfer(address(0), usr, wad);\n    }\n    function burn(address usr, uint256 wad) external {\n        require(balanceOf[usr] >= wad, \"Dai/insufficient-balance\");\n        if (usr != msg.sender && allowance[usr][msg.sender] != uint256(-1)) {\n            require(allowance[usr][msg.sender] >= wad, \"Dai/insufficient-allowance\");\n            allowance[usr][msg.sender] = sub(allowance[usr][msg.sender], wad);\n        }\n        balanceOf[usr] = sub(balanceOf[usr], wad);\n        totalSupply = sub(totalSupply, wad);\n        emit Transfer(usr, address(0), wad);\n    }\n    function approve(address usr, uint256 wad) external returns (bool) {\n        allowance[msg.sender][usr] = wad;\n        emit Approval(msg.sender, usr, wad);\n        return true;\n    }\n\n    // --- Alias ---\n    function push(address usr, uint256 wad) external {\n        transferFrom(msg.sender, usr, wad);\n    }\n    function pull(address usr, uint256 wad) external {\n        transferFrom(usr, msg.sender, wad);\n    }\n    function move(address src, address dst, uint256 wad) external {\n        transferFrom(src, dst, wad);\n    }\n\n    // --- Approve by signature ---\n    function permit(\n        address holder,\n        address spender,\n        uint256 nonce,\n        uint256 expiry,\n        bool allowed,\n        uint8 v,\n        bytes32 r,\n        bytes32 s\n    ) external {\n        bytes32 digest = keccak256(\n            abi.encodePacked(\n                \"\\x19\\x01\",\n                DOMAIN_SEPARATOR,\n                keccak256(abi.encode(PERMIT_TYPEHASH, holder, spender, nonce, expiry, allowed))\n            )\n        );\n\n        require(holder != address(0), \"Dai/invalid-address-0\");\n        require(holder == ecrecover(digest, v, r, s), \"Dai/invalid-permit\");\n        require(expiry == 0 || now <= expiry, \"Dai/permit-expired\");\n        require(nonce == nonces[holder]++, \"Dai/invalid-nonce\");\n        uint256 wad = allowed ? uint256(-1) : 0;\n        allowance[holder][spender] = wad;\n        emit Approval(holder, spender, wad);\n    }\n}\n",
  "sourcePath": "/Users/max/Projects/Symblox/TokenBridge/tokenbridge/contracts/contracts/mocks/DaiMock.sol",
  "compiler": {
    "name": "solc",
    "version": "0.4.24+commit.e67f0147.Emscripten.clang"
  },
  "schemaVersion": "3.1.0",
  "updatedAt": "2020-11-26T16:22:39.653Z",
  "devdoc": {
    "methods": {}
  },
  "userdoc": {
    "methods": {}
  }
}