{
  "contractName": "ERC677MultiBridgeToken",
  "abi": [
    {
      "constant": true,
      "inputs": [],
      "name": "mintingFinished",
      "outputs": [
        {
          "name": "",
          "type": "bool"
        }
      ],
      "payable": false,
      "stateMutability": "view",
      "type": "function"
    },
    {
      "constant": true,
      "inputs": [],
      "name": "name",
      "outputs": [
        {
          "name": "",
          "type": "string"
        }
      ],
      "payable": false,
      "stateMutability": "view",
      "type": "function"
    },
    {
      "constant": false,
      "inputs": [
        {
          "name": "_to",
          "type": "address"
        },
        {
          "name": "_value",
          "type": "uint256"
        }
      ],
      "name": "approve",
      "outputs": [
        {
          "name": "result",
          "type": "bool"
        }
      ],
      "payable": false,
      "stateMutability": "nonpayable",
      "type": "function"
    },
    {
      "constant": true,
      "inputs": [],
      "name": "totalSupply",
      "outputs": [
        {
          "name": "",
          "type": "uint256"
        }
      ],
      "payable": false,
      "stateMutability": "view",
      "type": "function"
    },
    {
      "constant": false,
      "inputs": [
        {
          "name": "_sender",
          "type": "address"
        },
        {
          "name": "_recipient",
          "type": "address"
        },
        {
          "name": "_amount",
          "type": "uint256"
        }
      ],
      "name": "transferFrom",
      "outputs": [
        {
          "name": "",
          "type": "bool"
        }
      ],
      "payable": false,
      "stateMutability": "nonpayable",
      "type": "function"
    },
    {
      "constant": true,
      "inputs": [],
      "name": "PERMIT_TYPEHASH",
      "outputs": [
        {
          "name": "",
          "type": "bytes32"
        }
      ],
      "payable": false,
      "stateMutability": "view",
      "type": "function"
    },
    {
      "constant": true,
      "inputs": [],
      "name": "decimals",
      "outputs": [
        {
          "name": "",
          "type": "uint8"
        }
      ],
      "payable": false,
      "stateMutability": "view",
      "type": "function"
    },
    {
      "constant": true,
      "inputs": [],
      "name": "DOMAIN_SEPARATOR",
      "outputs": [
        {
          "name": "",
          "type": "bytes32"
        }
      ],
      "payable": false,
      "stateMutability": "view",
      "type": "function"
    },
    {
      "constant": false,
      "inputs": [
        {
          "name": "_to",
          "type": "address"
        },
        {
          "name": "_addedValue",
          "type": "uint256"
        }
      ],
      "name": "increaseAllowance",
      "outputs": [
        {
          "name": "result",
          "type": "bool"
        }
      ],
      "payable": false,
      "stateMutability": "nonpayable",
      "type": "function"
    },
    {
      "constant": false,
      "inputs": [
        {
          "name": "_to",
          "type": "address"
        },
        {
          "name": "_value",
          "type": "uint256"
        },
        {
          "name": "_data",
          "type": "bytes"
        }
      ],
      "name": "transferAndCall",
      "outputs": [
        {
          "name": "",
          "type": "bool"
        }
      ],
      "payable": false,
      "stateMutability": "nonpayable",
      "type": "function"
    },
    {
      "constant": false,
      "inputs": [
        {
          "name": "_to",
          "type": "address"
        },
        {
          "name": "_amount",
          "type": "uint256"
        }
      ],
      "name": "mint",
      "outputs": [
        {
          "name": "",
          "type": "bool"
        }
      ],
      "payable": false,
      "stateMutability": "nonpayable",
      "type": "function"
    },
    {
      "constant": false,
      "inputs": [
        {
          "name": "_value",
          "type": "uint256"
        }
      ],
      "name": "burn",
      "outputs": [],
      "payable": false,
      "stateMutability": "nonpayable",
      "type": "function"
    },
    {
      "constant": true,
      "inputs": [
        {
          "name": "",
          "type": "address"
        }
      ],
      "name": "bridgePointers",
      "outputs": [
        {
          "name": "",
          "type": "address"
        }
      ],
      "payable": false,
      "stateMutability": "view",
      "type": "function"
    },
    {
      "constant": true,
      "inputs": [],
      "name": "version",
      "outputs": [
        {
          "name": "",
          "type": "string"
        }
      ],
      "payable": false,
      "stateMutability": "view",
      "type": "function"
    },
    {
      "constant": false,
      "inputs": [
        {
          "name": "_spender",
          "type": "address"
        },
        {
          "name": "_subtractedValue",
          "type": "uint256"
        }
      ],
      "name": "decreaseApproval",
      "outputs": [
        {
          "name": "",
          "type": "bool"
        }
      ],
      "payable": false,
      "stateMutability": "nonpayable",
      "type": "function"
    },
    {
      "constant": false,
      "inputs": [
        {
          "name": "_token",
          "type": "address"
        },
        {
          "name": "_to",
          "type": "address"
        }
      ],
      "name": "claimTokens",
      "outputs": [],
      "payable": false,
      "stateMutability": "nonpayable",
      "type": "function"
    },
    {
      "constant": true,
      "inputs": [
        {
          "name": "_owner",
          "type": "address"
        }
      ],
      "name": "balanceOf",
      "outputs": [
        {
          "name": "",
          "type": "uint256"
        }
      ],
      "payable": false,
      "stateMutability": "view",
      "type": "function"
    },
    {
      "constant": false,
      "inputs": [],
      "name": "renounceOwnership",
      "outputs": [],
      "payable": false,
      "stateMutability": "nonpayable",
      "type": "function"
    },
    {
      "constant": false,
      "inputs": [],
      "name": "finishMinting",
      "outputs": [
        {
          "name": "",
          "type": "bool"
        }
      ],
      "payable": false,
      "stateMutability": "nonpayable",
      "type": "function"
    },
    {
      "constant": true,
      "inputs": [
        {
          "name": "",
          "type": "address"
        }
      ],
      "name": "nonces",
      "outputs": [
        {
          "name": "",
          "type": "uint256"
        }
      ],
      "payable": false,
      "stateMutability": "view",
      "type": "function"
    },
    {
      "constant": true,
      "inputs": [],
      "name": "getTokenInterfacesVersion",
      "outputs": [
        {
          "name": "major",
          "type": "uint64"
        },
        {
          "name": "minor",
          "type": "uint64"
        },
        {
          "name": "patch",
          "type": "uint64"
        }
      ],
      "payable": false,
      "stateMutability": "pure",
      "type": "function"
    },
    {
      "constant": true,
      "inputs": [],
      "name": "owner",
      "outputs": [
        {
          "name": "",
          "type": "address"
        }
      ],
      "payable": false,
      "stateMutability": "view",
      "type": "function"
    },
    {
      "constant": false,
      "inputs": [
        {
          "name": "_holder",
          "type": "address"
        },
        {
          "name": "_spender",
          "type": "address"
        },
        {
          "name": "_nonce",
          "type": "uint256"
        },
        {
          "name": "_expiry",
          "type": "uint256"
        },
        {
          "name": "_allowed",
          "type": "bool"
        },
        {
          "name": "_v",
          "type": "uint8"
        },
        {
          "name": "_r",
          "type": "bytes32"
        },
        {
          "name": "_s",
          "type": "bytes32"
        }
      ],
      "name": "permit",
      "outputs": [],
      "payable": false,
      "stateMutability": "nonpayable",
      "type": "function"
    },
    {
      "constant": true,
      "inputs": [],
      "name": "symbol",
      "outputs": [
        {
          "name": "",
          "type": "string"
        }
      ],
      "payable": false,
      "stateMutability": "view",
      "type": "function"
    },
    {
      "constant": false,
      "inputs": [
        {
          "name": "spender",
          "type": "address"
        },
        {
          "name": "subtractedValue",
          "type": "uint256"
        }
      ],
      "name": "decreaseAllowance",
      "outputs": [
        {
          "name": "",
          "type": "bool"
        }
      ],
      "payable": false,
      "stateMutability": "nonpayable",
      "type": "function"
    },
    {
      "constant": false,
      "inputs": [
        {
          "name": "_to",
          "type": "address"
        },
        {
          "name": "_value",
          "type": "uint256"
        }
      ],
      "name": "transfer",
      "outputs": [
        {
          "name": "",
          "type": "bool"
        }
      ],
      "payable": false,
      "stateMutability": "nonpayable",
      "type": "function"
    },
    {
      "constant": false,
      "inputs": [
        {
          "name": "_to",
          "type": "address"
        },
        {
          "name": "_amount",
          "type": "uint256"
        }
      ],
      "name": "push",
      "outputs": [],
      "payable": false,
      "stateMutability": "nonpayable",
      "type": "function"
    },
    {
      "constant": false,
      "inputs": [
        {
          "name": "_from",
          "type": "address"
        },
        {
          "name": "_to",
          "type": "address"
        },
        {
          "name": "_amount",
          "type": "uint256"
        }
      ],
      "name": "move",
      "outputs": [],
      "payable": false,
      "stateMutability": "nonpayable",
      "type": "function"
    },
    {
      "constant": true,
      "inputs": [],
      "name": "F_ADDR",
      "outputs": [
        {
          "name": "",
          "type": "address"
        }
      ],
      "payable": false,
      "stateMutability": "view",
      "type": "function"
    },
    {
      "constant": false,
      "inputs": [
        {
          "name": "_spender",
          "type": "address"
        },
        {
          "name": "_addedValue",
          "type": "uint256"
        }
      ],
      "name": "increaseApproval",
      "outputs": [
        {
          "name": "",
          "type": "bool"
        }
      ],
      "payable": false,
      "stateMutability": "nonpayable",
      "type": "function"
    },
    {
      "constant": true,
      "inputs": [
        {
          "name": "_owner",
          "type": "address"
        },
        {
          "name": "_spender",
          "type": "address"
        }
      ],
      "name": "allowance",
      "outputs": [
        {
          "name": "",
          "type": "uint256"
        }
      ],
      "payable": false,
      "stateMutability": "view",
      "type": "function"
    },
    {
      "constant": false,
      "inputs": [
        {
          "name": "_from",
          "type": "address"
        },
        {
          "name": "_amount",
          "type": "uint256"
        }
      ],
      "name": "pull",
      "outputs": [],
      "payable": false,
      "stateMutability": "nonpayable",
      "type": "function"
    },
    {
      "constant": false,
      "inputs": [
        {
          "name": "_newOwner",
          "type": "address"
        }
      ],
      "name": "transferOwnership",
      "outputs": [],
      "payable": false,
      "stateMutability": "nonpayable",
      "type": "function"
    },
    {
      "constant": true,
      "inputs": [],
      "name": "bridgeCount",
      "outputs": [
        {
          "name": "",
          "type": "uint256"
        }
      ],
      "payable": false,
      "stateMutability": "view",
      "type": "function"
    },
    {
      "constant": true,
      "inputs": [
        {
          "name": "",
          "type": "address"
        },
        {
          "name": "",
          "type": "address"
        }
      ],
      "name": "expirations",
      "outputs": [
        {
          "name": "",
          "type": "uint256"
        }
      ],
      "payable": false,
      "stateMutability": "view",
      "type": "function"
    },
    {
      "inputs": [
        {
          "name": "_name",
          "type": "string"
        },
        {
          "name": "_symbol",
          "type": "string"
        },
        {
          "name": "_decimals",
          "type": "uint8"
        },
        {
          "name": "_chainId",
          "type": "uint256"
        }
      ],
      "payable": false,
      "stateMutability": "nonpayable",
      "type": "constructor"
    },
    {
      "anonymous": false,
      "inputs": [
        {
          "indexed": true,
          "name": "bridge",
          "type": "address"
        }
      ],
      "name": "BridgeAdded",
      "type": "event"
    },
    {
      "anonymous": false,
      "inputs": [
        {
          "indexed": true,
          "name": "bridge",
          "type": "address"
        }
      ],
      "name": "BridgeRemoved",
      "type": "event"
    },
    {
      "anonymous": false,
      "inputs": [
        {
          "indexed": true,
          "name": "to",
          "type": "address"
        },
        {
          "indexed": false,
          "name": "amount",
          "type": "uint256"
        }
      ],
      "name": "Mint",
      "type": "event"
    },
    {
      "anonymous": false,
      "inputs": [],
      "name": "MintFinished",
      "type": "event"
    },
    {
      "anonymous": false,
      "inputs": [
        {
          "indexed": true,
          "name": "previousOwner",
          "type": "address"
        }
      ],
      "name": "OwnershipRenounced",
      "type": "event"
    },
    {
      "anonymous": false,
      "inputs": [
        {
          "indexed": true,
          "name": "previousOwner",
          "type": "address"
        },
        {
          "indexed": true,
          "name": "newOwner",
          "type": "address"
        }
      ],
      "name": "OwnershipTransferred",
      "type": "event"
    },
    {
      "anonymous": false,
      "inputs": [
        {
          "indexed": true,
          "name": "burner",
          "type": "address"
        },
        {
          "indexed": false,
          "name": "value",
          "type": "uint256"
        }
      ],
      "name": "Burn",
      "type": "event"
    },
    {
      "anonymous": false,
      "inputs": [
        {
          "indexed": true,
          "name": "from",
          "type": "address"
        },
        {
          "indexed": true,
          "name": "to",
          "type": "address"
        },
        {
          "indexed": false,
          "name": "value",
          "type": "uint256"
        },
        {
          "indexed": false,
          "name": "data",
          "type": "bytes"
        }
      ],
      "name": "Transfer",
      "type": "event"
    },
    {
      "anonymous": false,
      "inputs": [
        {
          "indexed": true,
          "name": "owner",
          "type": "address"
        },
        {
          "indexed": true,
          "name": "spender",
          "type": "address"
        },
        {
          "indexed": false,
          "name": "value",
          "type": "uint256"
        }
      ],
      "name": "Approval",
      "type": "event"
    },
    {
      "anonymous": false,
      "inputs": [
        {
          "indexed": true,
          "name": "from",
          "type": "address"
        },
        {
          "indexed": true,
          "name": "to",
          "type": "address"
        },
        {
          "indexed": false,
          "name": "value",
          "type": "uint256"
        }
      ],
      "name": "Transfer",
      "type": "event"
    },
    {
      "constant": false,
      "inputs": [
        {
          "name": "",
          "type": "address"
        }
      ],
      "name": "setBridgeContract",
      "outputs": [],
      "payable": false,
      "stateMutability": "nonpayable",
      "type": "function"
    },
    {
      "constant": true,
      "inputs": [],
      "name": "bridgeContract",
      "outputs": [
        {
          "name": "",
          "type": "address"
        }
      ],
      "payable": false,
      "stateMutability": "view",
      "type": "function"
    },
    {
      "constant": false,
      "inputs": [
        {
          "name": "_bridge",
          "type": "address"
        }
      ],
      "name": "addBridge",
      "outputs": [],
      "payable": false,
      "stateMutability": "nonpayable",
      "type": "function"
    },
    {
      "constant": false,
      "inputs": [
        {
          "name": "_bridge",
          "type": "address"
        }
      ],
      "name": "removeBridge",
      "outputs": [],
      "payable": false,
      "stateMutability": "nonpayable",
      "type": "function"
    },
    {
      "constant": true,
      "inputs": [],
      "name": "bridgeList",
      "outputs": [
        {
          "name": "",
          "type": "address[]"
        }
      ],
      "payable": false,
      "stateMutability": "view",
      "type": "function"
    },
    {
      "constant": true,
      "inputs": [
        {
          "name": "_address",
          "type": "address"
        }
      ],
      "name": "isBridge",
      "outputs": [
        {
          "name": "",
          "type": "bool"
        }
      ],
      "payable": false,
      "stateMutability": "view",
      "type": "function"
    }
  ],
  "bytecode": "0x60806040526006805460a060020a60ff02191690553480156200002157600080fd5b506040516200231638038062002316833981016040908152815160208084015192840151606085015192850180519095949094019390929185918591859185918591859185918491849184916200007e916000918601906200031d565b508151620000949060019060208501906200031d565b506002805460ff90921660ff19909216919091179055505060068054600160a060020a03191633179055505050801515620000ce57600080fd5b60405180807f454950373132446f6d61696e28737472696e67206e616d652c737472696e672081526020017f76657273696f6e2c75696e7432353620636861696e49642c616464726573732081526020017f766572696679696e67436f6e747261637429000000000000000000000000000081525060520190506040518091039020846040518082805190602001908083835b60208310620001825780518252601f19909201916020918201910162000161565b51815160209384036101000a600019018019909216911617905260408051929094018290038220828501855260018084527f3100000000000000000000000000000000000000000000000000000000000000928401928352945190965091945090928392508083835b602083106200020c5780518252601f199092019160209182019101620001eb565b51815160209384036101000a6000190180199092169116179052604080519290940182900382208282019890985281840196909652606081019690965250608085018690523060a0808701919091528151808703909101815260c09095019081905284519093849350850191508083835b602083106200029e5780518252601f1990920191602091820191016200027d565b51815160209384036101000a600019018019909216911617905260405191909301819003902060085550600160a060020a036000819052600b9091527fbd0a91c9f9d084bad1a56f4df6c4c08bf6a3c9ff457e1c2f0ccbc02ffda9d3b18054600160a060020a031916909117905550620003c298505050505050505050565b828054600181600116156101000203166002900490600052602060002090601f016020900481019282601f106200036057805160ff191683800117855562000390565b8280016001018555821562000390579182015b828111156200039057825182559160200191906001019062000373565b506200039e929150620003a2565b5090565b620003bf91905b808211156200039e5760008155600101620003a9565b90565b611f4480620003d26000396000f3006080604052600436106101df5763ffffffff60e060020a60003504166304df017d81146101e457806305d2035b1461020757806306fdde0314610230578063095ea7b3146102ba5780630b26cf66146102de57806318160ddd146102ff57806323b872dd1461032657806330adf81f14610350578063313ce567146103655780633644e5151461039057806339509351146103a55780634000aea0146103c957806340c10f19146103fa57806342966c681461041e5780634bcb88bc1461043657806354fd4d5014610473578063661884631461048857806369ffa08a146104ac57806370a08231146104d3578063715018a6146104f4578063726600ce146105095780637d64bcb41461052a5780637ecebe001461053f578063859ba28c146105605780638da5cb5b146105a15780638fcbaf0c146105b657806395d89b41146105f45780639712fdf8146106095780639da38e2f1461062a578063a457c2d71461068f578063a9059cbb146106b3578063b753a98c146106d7578063bb35783b146106fb578063c794c76914610725578063cd5965831461073a578063d73dd6231461074f578063dd62ed3e14610773578063f2d5d56b1461079a578063f2fde38b146107be578063fbb2a53f146107df578063ff9e884d146107f4575b600080fd5b3480156101f057600080fd5b50610205600160a060020a036004351661081b565b005b34801561021357600080fd5b5061021c610987565b604080519115158252519081900360200190f35b34801561023c57600080fd5b506102456109a8565b6040805160208082528351818301528351919283929083019185019080838360005b8381101561027f578181015183820152602001610267565b50505050905090810190601f1680156102ac5780820380516001836020036101000a031916815260200191505b509250505060405180910390f35b3480156102c657600080fd5b5061021c600160a060020a0360043516602435610a36565b3480156102ea57600080fd5b50610205600160a060020a03600435166101df565b34801561030b57600080fd5b50610314610a79565b60408051918252519081900360200190f35b34801561033257600080fd5b5061021c600160a060020a0360043581169060243516604435610a7f565b34801561035c57600080fd5b50610314610c4e565b34801561037157600080fd5b5061037a610c72565b6040805160ff9092168252519081900360200190f35b34801561039c57600080fd5b50610314610c7b565b3480156103b157600080fd5b5061021c600160a060020a0360043516602435610c81565b3480156103d557600080fd5b5061021c60048035600160a060020a0316906024803591604435918201910135610ce7565b34801561040657600080fd5b5061021c600160a060020a0360043516602435610df8565b34801561042a57600080fd5b50610205600435610f03565b34801561044257600080fd5b50610457600160a060020a0360043516610f10565b60408051600160a060020a039092168252519081900360200190f35b34801561047f57600080fd5b50610245610f2b565b34801561049457600080fd5b5061021c600160a060020a0360043516602435610f62565b3480156104b857600080fd5b50610205600160a060020a036004358116906024351661103f565b3480156104df57600080fd5b50610314600160a060020a0360043516611064565b34801561050057600080fd5b5061020561107f565b34801561051557600080fd5b5061021c600160a060020a0360043516611096565b34801561053657600080fd5b5061021c6110cd565b34801561054b57600080fd5b50610314600160a060020a03600435166110d4565b34801561056c57600080fd5b506105756110e6565b6040805167ffffffffffffffff9485168152928416602084015292168183015290519081900360600190f35b3480156105ad57600080fd5b506104576110f1565b3480156105c257600080fd5b50610205600160a060020a0360043581169060243516604435606435608435151560ff60a4351660c43560e435611100565b34801561060057600080fd5b50610245611454565b34801561061557600080fd5b50610205600160a060020a03600435166114ae565b34801561063657600080fd5b5061063f6115ce565b60408051602080825283518183015283519192839290830191858101910280838360005b8381101561067b578181015183820152602001610663565b505050509050019250505060405180910390f35b34801561069b57600080fd5b5061021c600160a060020a03600435166024356116a3565b3480156106bf57600080fd5b5061021c600160a060020a03600435166024356116b6565b3480156106e357600080fd5b50610205600160a060020a03600435166024356116e1565b34801561070757600080fd5b50610205600160a060020a03600435811690602435166044356116f1565b34801561073157600080fd5b50610457611702565b34801561074657600080fd5b506104576110cd565b34801561075b57600080fd5b5061021c600160a060020a036004351660243561170d565b34801561077f57600080fd5b50610314600160a060020a0360043581169060243516611794565b3480156107a657600080fd5b50610205600160a060020a03600435166024356117bf565b3480156107ca57600080fd5b50610205600160a060020a03600435166117ca565b3480156107eb57600080fd5b506103146117ea565b34801561080057600080fd5b50610314600160a060020a03600435811690602435166117f0565b60065460009081908190600160a060020a0316331461083957600080fd5b61084284611096565b151561084d57600080fd5b505050600160a060020a038082166000908152600b602052604081205490829052600080516020611eb9833981519152549082169190811680151561089157600080fd5b600160a060020a03818116908516146108ec57600160a060020a038082166000908152600b60205260409020549192509081169081148015906108dc5750600160a060020a03811615155b15156108e757600080fd5b610891565b600160a060020a038083166000908152600b6020526040808220805484881673ffffffffffffffffffffffffffffffffffffffff19918216179091559287168252902080549091169055600c5461094a90600163ffffffff61180d16565b600c55604051600160a060020a038516907f5d9d5034656cb3ebfb0655057cd7f9b4077a9b42ff42ce223cbac5bc586d212690600090a250505050565b60065474010000000000000000000000000000000000000000900460ff1681565b6000805460408051602060026001851615610100026000190190941693909304601f81018490048402820184019092528181529291830182828015610a2e5780601f10610a0357610100808354040283529160200191610a2e565b820191906000526020600020905b815481529060010190602001808311610a1157829003601f168201915b505050505081565b6000610a42838361181f565b9050600019821415610a7357336000908152600a60209081526040808320600160a060020a03871684529091528120555b92915050565b60045490565b600080600160a060020a0385161515610a9757600080fd5b600160a060020a0384161515610aac57600080fd5b600160a060020a038516600090815260036020526040902054610ad5908463ffffffff61180d16565b600160a060020a038087166000908152600360205260408082209390935590861681522054610b0a908463ffffffff61187316565b600160a060020a038086166000818152600360209081526040918290209490945580518781529051919392891692600080516020611ed983398151915292918290030190a3600160a060020a0385163314610c3857610b698533611794565b90506000198114610bd357610b84818463ffffffff61180d16565b600160a060020a038616600081815260056020908152604080832033808552908352928190208590558051948552519193600080516020611ef9833981519152929081900390910190a3610c38565b600160a060020a0385166000908152600a602090815260408083203384529091529020541580610c2d5750610c06611880565b600160a060020a0386166000908152600a6020908152604080832033845290915290205410155b1515610c3857600080fd5b610c43858585611884565b506001949350505050565b7fea2aa0a1be11a07ed86d755c93467f4f82362b452371d1ba94d1715123511acb81565b60025460ff1681565b60085481565b6000610c8d83836118bb565b336000908152600560209081526040808320600160a060020a03881684529091529020549091506000191415610a7357336000908152600a60209081526040808320600160a060020a038716845290915281205592915050565b600084600160a060020a03811615801590610d0b5750600160a060020a0381163014155b1515610d1657600080fd5b610d2086866118c7565b1515610d2b57600080fd5b85600160a060020a031633600160a060020a03167fe19260aff97b920c7df27010903aeb9c8d2be5d310a2c67824cf3f15396e4c16878787604051808481526020018060200182810382528484828181526020019250808284376040519201829003965090945050505050a3610da0866118d3565b15610dec57610de133878787878080601f016020809104026020016040519081016040528093929190818152602001838380828437506118db945050505050565b1515610dec57600080fd5b50600195945050505050565b600654600090600160a060020a03163314610e1257600080fd5b60065474010000000000000000000000000000000000000000900460ff1615610e3a57600080fd5b600454610e4d908363ffffffff61187316565b600455600160a060020a038316600090815260036020526040902054610e79908363ffffffff61187316565b600160a060020a038416600081815260036020908152604091829020939093558051858152905191927f0f6798a560793a54c3bcfe86a93cde1e73087d944c0ea20544137d412139688592918290030190a2604080518381529051600160a060020a03851691600091600080516020611ed98339815191529181900360200190a350600192915050565b610f0d3382611a58565b50565b600b60205260009081526040902054600160a060020a031681565b60408051808201909152600181527f3100000000000000000000000000000000000000000000000000000000000000602082015281565b336000908152600560209081526040808320600160a060020a0386168452909152812054808310610fb657336000908152600560209081526040808320600160a060020a0388168452909152812055610feb565b610fc6818463ffffffff61180d16565b336000908152600560209081526040808320600160a060020a03891684529091529020555b336000818152600560209081526040808320600160a060020a038916808552908352928190205481519081529051929392600080516020611ef9833981519152929181900390910190a35060019392505050565b600654600160a060020a0316331461105657600080fd5b6110608282611b47565b5050565b600160a060020a031660009081526003602052604090205490565b600654600160a060020a031633146101df57600080fd5b6000600160a060020a0382811614801590610a73575050600160a060020a039081166000908152600b602052604090205416151590565b6000806000fd5b60096020526000908152604090205481565b600260046000909192565b600654600160a060020a031681565b600080600160a060020a038a16151561111857600080fd5b600160a060020a038916151561112d57600080fd5b86158061114157508661113e611880565b11155b151561114c57600080fd5b8460ff16601b148061116157508460ff16601c145b151561116c57600080fd5b7f7fffffffffffffffffffffffffffffff5d576e7357a4501ddfe92f46681b20a083111561119957600080fd5b600854604080517fea2aa0a1be11a07ed86d755c93467f4f82362b452371d1ba94d1715123511acb602080830191909152600160a060020a03808f16838501528d166060830152608082018c905260a082018b905289151560c0808401919091528351808403909101815260e090920192839052815191929182918401908083835b6020831061123a5780518252601f19909201916020918201910161121b565b51815160209384036101000a6000190180199092169116179052604080519290940182900382207f190100000000000000000000000000000000000000000000000000000000000083830152602283019790975260428083019790975283518083039097018752606290910192839052855192945084935085019190508083835b602083106112da5780518252601f1990920191602091820191016112bb565b51815160209384036101000a600019018019909216911617905260408051929094018290038220600080845283830180875282905260ff8d1684870152606084018c9052608084018b905294519098506001965060a080840196509194601f19820194509281900390910191865af115801561135a573d6000803e3d6000fd5b50505060206040510351600160a060020a03168a600160a060020a031614151561138357600080fd5b600160a060020a038a16600090815260096020526040902080546001810190915588146113af57600080fd5b856113bb5760006113bf565b6000195b600160a060020a03808c166000908152600560209081526040808320938e168352929052208190559050856113f55760006113f7565b865b600160a060020a03808c166000818152600a60209081526040808320948f1680845294825291829020949094558051858152905192939192600080516020611ef9833981519152929181900390910190a350505050505050505050565b60018054604080516020600284861615610100026000190190941693909304601f81018490048402820184019092528181529291830182828015610a2e5780601f10610a0357610100808354040283529160200191610a2e565b600654600090600160a060020a031633146114c857600080fd5b600c546032116114d757600080fd5b6114e0826118d3565b15156114eb57600080fd5b6114f482611096565b156114fe57600080fd5b50600160a060020a036000819052600b602052600080516020611eb9833981519152541680151561152e57600080fd5b600b602052600080516020611eb9833981519152805473ffffffffffffffffffffffffffffffffffffffff19908116600160a060020a038581169182179093556000908152604090208054909116918316919091179055600c54611593906001611873565b600c55604051600160a060020a038316907f3cda433c5679ae4c6a5dea50840e222a42cba3695e4663de4366be899348422190600090a25050565b606080600080600c54604051908082528060200260200182016040528015611600578160200160208202803883390190505b50600160a060020a036000818152600b602052600080516020611eb983398151915254929550935016905080151561163757600080fd5b600160a060020a038181161461169b5780838381518110151561165657fe5b600160a060020a0392831660209182029092018101919091529181166000908152600b909252604090912054600192909201911680151561169657600080fd5b611637565b509092915050565b60006116af8383610f62565b9392505050565b60006116c283836118c7565b15156116cd57600080fd5b6116d8338484611884565b50600192915050565b6116ec338383610a7f565b505050565b6116fc838383610a7f565b50505050565b600160a060020a0381565b336000908152600560209081526040808320600160a060020a0386168452909152812054611741908363ffffffff61187316565b336000818152600560209081526040808320600160a060020a038916808552908352928190208590558051948552519193600080516020611ef9833981519152929081900390910190a350600192915050565b600160a060020a03918216600090815260056020908152604080832093909416825291909152205490565b6116ec823383610a7f565b600654600160a060020a031633146117e157600080fd5b610f0d81611b85565b600c5481565b600a60209081526000928352604080842090915290825290205481565b60008282111561181957fe5b50900390565b336000818152600560209081526040808320600160a060020a03871680855290835281842086905581518681529151939490939092600080516020611ef9833981519152928290030190a350600192915050565b81810182811015610a7357fe5b4290565b61188d82611096565b156116ec576040805160008152602081019091526118b0908490849084906118db565b15156116ec57600080fd5b60006116af838361170d565b60006116af8383611c03565b6000903b1190565b600083600160a060020a031663a4c0ed3660e060020a028685856040516024018084600160a060020a0316600160a060020a0316815260200183815260200180602001828103825283818151815260200191508051906020019080838360005b8381101561195357818101518382015260200161193b565b50505050905090810190601f1680156119805780820380516001836020036101000a031916815260200191505b5060408051601f198184030181529181526020820180517bffffffffffffffffffffffffffffffffffffffffffffffffffffffff167fffffffff00000000000000000000000000000000000000000000000000000000909916989098178852518151919790965086955093509150819050838360005b83811015611a0e5781810151838201526020016119f6565b50505050905090810190601f168015611a3b5780820380516001836020036101000a031916815260200191505b509150506000604051808303816000865af1979650505050505050565b600160a060020a038216600090815260036020526040902054811115611a7d57600080fd5b600160a060020a038216600090815260036020526040902054611aa6908263ffffffff61180d16565b600160a060020a038316600090815260036020526040902055600454611ad2908263ffffffff61180d16565b600455604080518281529051600160a060020a038416917fcc16f5dbb4873280815c1ee09dbd06736cffcc184412cf7a71a0fdb75d397ca5919081900360200190a2604080518281529051600091600160a060020a03851691600080516020611ed98339815191529181900360200190a35050565b80600160a060020a0381161515611b5d57600080fd5b600160a060020a0383161515611b7b57611b7682611cd2565b6116ec565b6116ec8383611cde565b600160a060020a0381161515611b9a57600080fd5b600654604051600160a060020a038084169216907f8be0079c531659141344cd1fd0a4f28419497f9722a3daafe3b4186f6b6457e090600090a36006805473ffffffffffffffffffffffffffffffffffffffff1916600160a060020a0392909216919091179055565b33600090815260036020526040812054821115611c1f57600080fd5b600160a060020a0383161515611c3457600080fd5b33600090815260036020526040902054611c54908363ffffffff61180d16565b3360009081526003602052604080822092909255600160a060020a03851681522054611c86908363ffffffff61187316565b600160a060020a038416600081815260036020908152604091829020939093558051858152905191923392600080516020611ed98339815191529281900390910190a350600192915050565b30316110608282611d8b565b604080517f70a0823100000000000000000000000000000000000000000000000000000000815230600482015290518391600091600160a060020a038416916370a0823191602480830192602092919082900301818787803b158015611d4357600080fd5b505af1158015611d57573d6000803e3d6000fd5b505050506040513d6020811015611d6d57600080fd5b505190506116fc600160a060020a038516848363ffffffff611df316565b604051600160a060020a0383169082156108fc029083906000818181858888f193505050501515611060578082611dc0611e88565b600160a060020a039091168152604051908190036020019082f080158015611dec573d6000803e3d6000fd5b5050505050565b82600160a060020a031663a9059cbb83836040518363ffffffff1660e060020a0281526004018083600160a060020a0316600160a060020a0316815260200182815260200192505050600060405180830381600087803b158015611e5657600080fd5b505af1158015611e6a573d6000803e3d6000fd5b505050503d156116ec5760206000803e60005115156116ec57600080fd5b604051602180611e98833901905600608060405260405160208060218339810160405251600160a060020a038116ff00bd0a91c9f9d084bad1a56f4df6c4c08bf6a3c9ff457e1c2f0ccbc02ffda9d3b1ddf252ad1be2c89b69c2b068fc378daa952ba7f163c4a11628f55a4df523b3ef8c5be1e5ebec7d5bd14f71427d1e84f3dd0314c0f7b2291e5b200ac8c7c3b925a165627a7a72305820a59d3cc60c8d0d8a36e76064e660657a2f9256649348e86a7ee29db7e27abbed0029",
  "source": "pragma solidity 0.4.24;\n\nimport \"./PermittableToken.sol\";\n\n/**\n * @title ERC677MultiBridgeToken\n * @dev This contract extends ERC677BridgeToken to support several bridge simulteniously\n */\ncontract ERC677MultiBridgeToken is PermittableToken {\n    address public constant F_ADDR = 0xFFfFfFffFFfffFFfFFfFFFFFffFFFffffFfFFFfF;\n    uint256 internal constant MAX_BRIDGES = 50;\n    mapping(address => address) public bridgePointers;\n    uint256 public bridgeCount;\n\n    event BridgeAdded(address indexed bridge);\n    event BridgeRemoved(address indexed bridge);\n\n    constructor(string _name, string _symbol, uint8 _decimals, uint256 _chainId)\n        public\n        PermittableToken(_name, _symbol, _decimals, _chainId)\n    {\n        bridgePointers[F_ADDR] = F_ADDR; // empty bridge contracts list\n    }\n\n    /**\n    * @dev Removes unused function from ERC677BridgeToken contract\n    */\n    function setBridgeContract(address) external {\n        revert();\n    }\n\n    /**\n    * @dev Removes unused getter from ERC677BridgeToken contract\n    */\n    function bridgeContract() external view returns (address) {\n        revert();\n    }\n\n    /**\n    * @dev Adds one more bridge contract into the list\n    * @param _bridge bridge contract address\n    */\n    function addBridge(address _bridge) external onlyOwner {\n        require(bridgeCount < MAX_BRIDGES);\n        require(AddressUtils.isContract(_bridge));\n        require(!isBridge(_bridge));\n\n        address firstBridge = bridgePointers[F_ADDR];\n        require(firstBridge != address(0));\n        bridgePointers[F_ADDR] = _bridge;\n        bridgePointers[_bridge] = firstBridge;\n        bridgeCount = bridgeCount.add(1);\n\n        emit BridgeAdded(_bridge);\n    }\n\n    /**\n    * @dev Removes one existing bridge contract from the list\n    * @param _bridge bridge contract address\n    */\n    function removeBridge(address _bridge) external onlyOwner {\n        require(isBridge(_bridge));\n\n        address nextBridge = bridgePointers[_bridge];\n        address index = F_ADDR;\n        address next = bridgePointers[index];\n        require(next != address(0));\n\n        while (next != _bridge) {\n            index = next;\n            next = bridgePointers[index];\n\n            require(next != F_ADDR && next != address(0));\n        }\n\n        bridgePointers[index] = nextBridge;\n        delete bridgePointers[_bridge];\n        bridgeCount = bridgeCount.sub(1);\n\n        emit BridgeRemoved(_bridge);\n    }\n\n    /**\n    * @dev Returns all recorded bridge contract addresses\n    * @return address[] bridge contract addresses\n    */\n    function bridgeList() external view returns (address[]) {\n        address[] memory list = new address[](bridgeCount);\n        uint256 counter = 0;\n        address nextBridge = bridgePointers[F_ADDR];\n        require(nextBridge != address(0));\n\n        while (nextBridge != F_ADDR) {\n            list[counter] = nextBridge;\n            nextBridge = bridgePointers[nextBridge];\n            counter++;\n\n            require(nextBridge != address(0));\n        }\n\n        return list;\n    }\n\n    /**\n    * @dev Checks if given address is included into bridge contracts list\n    * @param _address bridge contract address\n    * @return bool true, if given address is a known bridge contract \n    */\n    function isBridge(address _address) public view returns (bool) {\n        return _address != F_ADDR && bridgePointers[_address] != address(0);\n    }\n}\n",
  "sourcePath": "/Users/max/Projects/Symblox/TokenBridge/tokenbridge/contracts/contracts/ERC677MultiBridgeToken.sol",
  "compiler": {
    "name": "solc",
    "version": "0.4.24+commit.e67f0147.Emscripten.clang"
  },
  "schemaVersion": "3.1.0",
  "updatedAt": "2020-11-26T16:22:39.561Z",
  "devdoc": {
    "methods": {
      "addBridge(address)": {
        "details": "Adds one more bridge contract into the list",
        "params": {
          "_bridge": "bridge contract address"
        }
      },
      "allowance(address,address)": {
        "details": "Function to check the amount of tokens that an owner allowed to a spender.",
        "params": {
          "_owner": "address The address which owns the funds.",
          "_spender": "address The address which will spend the funds."
        },
        "return": "A uint256 specifying the amount of tokens still available for the spender."
      },
      "approve(address,uint256)": {
        "details": "Approve the passed address to spend the specified amount of tokens on behalf of msg.sender.",
        "params": {
          "_to": "The address which will spend the funds.",
          "_value": "The amount of tokens to be spent."
        }
      },
      "balanceOf(address)": {
        "details": "Gets the balance of the specified address.",
        "params": {
          "_owner": "The address to query the the balance of."
        },
        "return": "An uint256 representing the amount owned by the passed address."
      },
      "bridgeContract()": {
        "details": "Removes unused getter from ERC677BridgeToken contract"
      },
      "bridgeList()": {
        "details": "Returns all recorded bridge contract addresses",
        "return": "address[] bridge contract addresses"
      },
      "burn(uint256)": {
        "details": "Burns a specific amount of tokens.",
        "params": {
          "_value": "The amount of token to be burned."
        }
      },
      "claimTokens(address,address)": {
        "details": "Withdraws the erc20 tokens or native coins from this contract.",
        "params": {
          "_to": "address of the tokens/coins receiver.",
          "_token": "address of the claimed token or address(0) for native coins."
        }
      },
      "decreaseApproval(address,uint256)": {
        "details": "Decrease the amount of tokens that an owner allowed to a spender. approve should be called when allowed[_spender] == 0. To decrement allowed value is better to use this function to avoid 2 calls (and wait until the first transaction is mined) From MonolithDAO Token.sol",
        "params": {
          "_spender": "The address which will spend the funds.",
          "_subtractedValue": "The amount of tokens to decrease the allowance by."
        }
      },
      "increaseAllowance(address,uint256)": {
        "details": "Atomically increases the allowance granted to spender by the caller.",
        "params": {
          "_addedValue": "The amount of tokens to increase the allowance by.",
          "_to": "The address which will spend the funds."
        }
      },
      "increaseApproval(address,uint256)": {
        "details": "Increase the amount of tokens that an owner allowed to a spender. approve should be called when allowed[_spender] == 0. To increment allowed value is better to use this function to avoid 2 calls (and wait until the first transaction is mined) From MonolithDAO Token.sol",
        "params": {
          "_addedValue": "The amount of tokens to increase the allowance by.",
          "_spender": "The address which will spend the funds."
        }
      },
      "isBridge(address)": {
        "details": "Checks if given address is included into bridge contracts list",
        "params": {
          "_address": "bridge contract address"
        },
        "return": "bool true, if given address is a known bridge contract "
      },
      "mint(address,uint256)": {
        "details": "Function to mint tokens",
        "params": {
          "_amount": "The amount of tokens to mint.",
          "_to": "The address that will receive the minted tokens."
        },
        "return": "A boolean that indicates if the operation was successful."
      },
      "move(address,address,uint256)": {
        "details": "An alias for `transferFrom` function.",
        "params": {
          "_amount": "The value to transfer.",
          "_from": "The address of the sender.",
          "_to": "The address of the recipient."
        }
      },
      "permit(address,address,uint256,uint256,bool,uint8,bytes32,bytes32)": {
        "details": "Allows to spend holder's unlimited amount by the specified spender. The function can be called by anyone, but requires having allowance parameters signed by the holder according to EIP712.",
        "params": {
          "_allowed": "True to enable unlimited allowance for the spender by the holder. False to disable.",
          "_expiry": "The allowance expiration date (unix timestamp in UTC). Can be zero for no expiration. Forced to zero if `_allowed` is `false`. Note that timestamps are not precise, malicious miner/validator can manipulate them to some extend. Assume that there can be a 900 seconds time delta between the desired timestamp and the actual expiration.",
          "_holder": "The holder's address.",
          "_nonce": "The nonce taken from `nonces(_holder)` public getter.",
          "_r": "The first 32 bytes of signature (ECDSA component).",
          "_s": "The second 32 bytes of signature (ECDSA component).",
          "_spender": "The spender's address.",
          "_v": "A final byte of signature (ECDSA component)."
        }
      },
      "pull(address,uint256)": {
        "details": "Makes a request to transfer the specified amount from the specified address to the caller's address.",
        "params": {
          "_amount": "The value to transfer.",
          "_from": "The address of the holder."
        }
      },
      "push(address,uint256)": {
        "details": "An alias for `transfer` function.",
        "params": {
          "_amount": "The value to transfer.",
          "_to": "The address of the recipient."
        }
      },
      "removeBridge(address)": {
        "details": "Removes one existing bridge contract from the list",
        "params": {
          "_bridge": "bridge contract address"
        }
      },
      "setBridgeContract(address)": {
        "details": "Removes unused function from ERC677BridgeToken contract"
      },
      "totalSupply()": {
        "details": "Total number of tokens in existence"
      },
      "transferFrom(address,address,uint256)": {
        "details": "transferFrom in this contract works in a slightly different form than the generic transferFrom function. This contract allows for \"unlimited approval\". Should the user approve an address for the maximum uint256 value, then that address will have unlimited approval until told otherwise.",
        "params": {
          "_amount": "The value to transfer.",
          "_recipient": "The address of the recipient.",
          "_sender": "The address of the sender."
        },
        "return": "Success status."
      },
      "transferOwnership(address)": {
        "details": "Allows the current owner to transfer control of the contract to a newOwner.",
        "params": {
          "_newOwner": "The address to transfer ownership to."
        }
      }
    },
    "title": "ERC677MultiBridgeToken"
  },
  "userdoc": {
    "methods": {}
  }
}