{
  "contractName": "FeeManagerMock",
  "abi": [
    {
      "constant": false,
      "inputs": [
        {
          "name": "_fee",
          "type": "uint256"
        }
      ],
      "name": "setForeignFee",
      "outputs": [],
      "payable": false,
      "stateMutability": "nonpayable",
      "type": "function"
    },
    {
      "constant": false,
      "inputs": [
        {
          "name": "_fee",
          "type": "uint256"
        }
      ],
      "name": "setHomeFee",
      "outputs": [],
      "payable": false,
      "stateMutability": "nonpayable",
      "type": "function"
    },
    {
      "constant": true,
      "inputs": [],
      "name": "getHomeFee",
      "outputs": [
        {
          "name": "",
          "type": "uint256"
        }
      ],
      "payable": false,
      "stateMutability": "view",
      "type": "function"
    },
    {
      "constant": true,
      "inputs": [
        {
          "name": "_value",
          "type": "uint256"
        },
        {
          "name": "_recover",
          "type": "bool"
        },
        {
          "name": "_feeType",
          "type": "bytes32"
        }
      ],
      "name": "calculateFee",
      "outputs": [
        {
          "name": "",
          "type": "uint256"
        }
      ],
      "payable": false,
      "stateMutability": "view",
      "type": "function"
    },
    {
      "constant": true,
      "inputs": [],
      "name": "getForeignFee",
      "outputs": [
        {
          "name": "",
          "type": "uint256"
        }
      ],
      "payable": false,
      "stateMutability": "view",
      "type": "function"
    },
    {
      "anonymous": false,
      "inputs": [
        {
          "indexed": false,
          "name": "fee",
          "type": "uint256"
        }
      ],
      "name": "HomeFeeUpdated",
      "type": "event"
    },
    {
      "anonymous": false,
      "inputs": [
        {
          "indexed": false,
          "name": "fee",
          "type": "uint256"
        }
      ],
      "name": "ForeignFeeUpdated",
      "type": "event"
    },
    {
      "constant": false,
      "inputs": [
        {
          "name": "_fee",
          "type": "uint256"
        }
      ],
      "name": "distributeFeeFromAffirmation",
      "outputs": [],
      "payable": false,
      "stateMutability": "nonpayable",
      "type": "function"
    },
    {
      "constant": false,
      "inputs": [
        {
          "name": "_fee",
          "type": "uint256"
        }
      ],
      "name": "distributeFeeFromSignatures",
      "outputs": [],
      "payable": false,
      "stateMutability": "nonpayable",
      "type": "function"
    },
    {
      "constant": true,
      "inputs": [],
      "name": "getFeeManagerMode",
      "outputs": [
        {
          "name": "",
          "type": "bytes4"
        }
      ],
      "payable": false,
      "stateMutability": "pure",
      "type": "function"
    },
    {
      "constant": true,
      "inputs": [
        {
          "name": "_count",
          "type": "uint256"
        }
      ],
      "name": "randomTest",
      "outputs": [
        {
          "name": "",
          "type": "uint256"
        }
      ],
      "payable": false,
      "stateMutability": "view",
      "type": "function"
    }
  ],
  "bytecode": "0x608060405234801561001057600080fd5b50610559806100206000396000f3006080604052600436106100985763ffffffff7c0100000000000000000000000000000000000000000000000000000000600035041663054d46ec811461009d578063286c4066146100b757806334a9e148146100cf57806359d784641461009d5780636dd0a998146100e757806394da17cd146101115780639862f26f14610126578063f2ba956114610146578063ffd6619614610190575b600080fd5b3480156100a957600080fd5b506100b56004356101a5565b005b3480156100c357600080fd5b506100b56004356101a8565b3480156100db57600080fd5b506100b5600435610244565b3480156100f357600080fd5b506100ff6004356102e0565b60408051918252519081900360200190f35b34801561011d57600080fd5b506100ff6102f1565b34801561013257600080fd5b506100ff600435602435151560443561033f565b34801561015257600080fd5b5061015b610446565b604080517fffffffff000000000000000000000000000000000000000000000000000000009092168252519081900360200190f35b34801561019c57600080fd5b506100ff61046a565b50565b80670de0b6b3a764000081106101bd57600080fd5b7f68c305f6c823f4d2fa4140f9cf28d32a1faccf9b8081ff1c2de11cf32c733efc600090815260209081527ffc8184861980b909b08b1c0a3bc8f07d63e2a591b0ee38baf91ff70732f793a48390556040805184815290517fa1bb1f345e2d0374ec182de8bb6e574798f6b4b3e89046d75c479d7d5620c216929181900390910190a15050565b80670de0b6b3a7640000811061025957600080fd5b7fc3781f3cec62d28f56efe98358f59c2105504b194242dbcb2cc0806850c306e7600090815260209081527f1d18a249ebed58dc38c0390af3a90c7c1c247e1be783f19d84a8f7c82cd2a4ba8390556040805184815290517f64afb51b44460415972849f8c01723cf624c005cbadf1024a2d8568694b73ac1929181900390910190a15050565b60006102eb826104b8565b92915050565b7fc3781f3cec62d28f56efe98358f59c2105504b194242dbcb2cc0806850c306e760009081526020527f1d18a249ebed58dc38c0390af3a90c7c1c247e1be783f19d84a8f7c82cd2a4ba5490565b600080827f89d93e5e92f7e37e490c25f0e50f7f4aad7cc94b308a566553280967be38bcf181148061039057507fdeb7f3adca07d6d1f708c1774389db532a2b2f18fd05a62b957e4089f4696ed581145b151561039b57600080fd5b7f89d93e5e92f7e37e490c25f0e50f7f4aad7cc94b308a566553280967be38bcf184146103cf576103ca61046a565b6103d7565b6103d76102f1565b915084151561040f57610408670de0b6b3a76400006103fc888563ffffffff6104dd16565b9063ffffffff61050616565b925061043d565b61043a61042a670de0b6b3a76400008463ffffffff61051b16565b6103fc888563ffffffff6104dd16565b92505b50509392505050565b7ff2aed8f70000000000000000000000000000000000000000000000000000000090565b7f68c305f6c823f4d2fa4140f9cf28d32a1faccf9b8081ff1c2de11cf32c733efc60009081526020527ffc8184861980b909b08b1c0a3bc8f07d63e2a591b0ee38baf91ff70732f793a45490565b6000816104cc43600163ffffffff61051b16565b408115156104d657fe5b0692915050565b60008215156104ee575060006102eb565b508181028183828115156104fe57fe5b04146102eb57fe5b6000818381151561051357fe5b049392505050565b60008282111561052757fe5b509003905600a165627a7a72305820ac619da44cd2ad1f49269c6fdeaabe98b21b17536882b0ecb02e8d0542027e5b0029",
  "source": "pragma solidity 0.4.24;\n\nimport \"../upgradeable_contracts/BaseFeeManager.sol\";\n\ncontract FeeManagerMock is BaseFeeManager {\n    function distributeFeeFromAffirmation(uint256 _fee) external {\n        // solhint-disable-previous-line no-empty-blocks\n    }\n\n    function distributeFeeFromSignatures(uint256 _fee) external {\n        // solhint-disable-previous-line no-empty-blocks\n    }\n\n    function getFeeManagerMode() external pure returns (bytes4) {\n        return 0xf2aed8f7; // bytes4(keccak256(abi.encodePacked(\"manages-one-direction\")))\n    }\n\n    function randomTest(uint256 _count) external view returns (uint256) {\n        return super.random(_count);\n    }\n}\n",
  "sourcePath": "/Users/max/Projects/Symblox/TokenBridge/tokenbridge/contracts/contracts/mocks/FeeManagerMock.sol",
  "compiler": {
    "name": "solc",
    "version": "0.4.24+commit.e67f0147.Emscripten.clang"
  },
  "schemaVersion": "3.1.0",
  "updatedAt": "2020-11-26T16:22:39.666Z",
  "devdoc": {
    "methods": {
      "calculateFee(uint256,bool,bytes32)": {
        "details": "Calculated the amount of fee for the particular bridge operation.",
        "params": {
          "_feeType": "type of the fee, should be either HOME_FEE of FOREIGN_FEE.",
          "_recover": "true, if the fee was already subtracted from the given _value and needs to be restored.",
          "_value": "bridged amount of tokens/coins for which fee amount is calculated."
        },
        "return": "calculated fee amount."
      }
    }
  },
  "userdoc": {
    "methods": {}
  }
}