{
  "contractName": "FeeManagerNativeToErc",
  "abi": [
    {
      "constant": false,
      "inputs": [
        {
          "name": "_fee",
          "type": "uint256"
        }
      ],
      "name": "distributeFeeFromAffirmation",
      "outputs": [],
      "payable": false,
      "stateMutability": "nonpayable",
      "type": "function"
    },
    {
      "constant": false,
      "inputs": [
        {
          "name": "_fee",
          "type": "uint256"
        }
      ],
      "name": "setForeignFee",
      "outputs": [],
      "payable": false,
      "stateMutability": "nonpayable",
      "type": "function"
    },
    {
      "constant": false,
      "inputs": [
        {
          "name": "_fee",
          "type": "uint256"
        }
      ],
      "name": "setHomeFee",
      "outputs": [],
      "payable": false,
      "stateMutability": "nonpayable",
      "type": "function"
    },
    {
      "constant": false,
      "inputs": [
        {
          "name": "_fee",
          "type": "uint256"
        }
      ],
      "name": "distributeFeeFromSignatures",
      "outputs": [],
      "payable": false,
      "stateMutability": "nonpayable",
      "type": "function"
    },
    {
      "constant": true,
      "inputs": [],
      "name": "REWARD_FOR_TRANSFERRING_FROM_FOREIGN",
      "outputs": [
        {
          "name": "",
          "type": "bytes32"
        }
      ],
      "payable": false,
      "stateMutability": "view",
      "type": "function"
    },
    {
      "constant": true,
      "inputs": [],
      "name": "REWARD_FOR_TRANSFERRING_FROM_HOME",
      "outputs": [
        {
          "name": "",
          "type": "bytes32"
        }
      ],
      "payable": false,
      "stateMutability": "view",
      "type": "function"
    },
    {
      "constant": true,
      "inputs": [],
      "name": "getHomeFee",
      "outputs": [
        {
          "name": "",
          "type": "uint256"
        }
      ],
      "payable": false,
      "stateMutability": "view",
      "type": "function"
    },
    {
      "constant": true,
      "inputs": [
        {
          "name": "_value",
          "type": "uint256"
        },
        {
          "name": "_recover",
          "type": "bool"
        },
        {
          "name": "_feeType",
          "type": "bytes32"
        }
      ],
      "name": "calculateFee",
      "outputs": [
        {
          "name": "",
          "type": "uint256"
        }
      ],
      "payable": false,
      "stateMutability": "view",
      "type": "function"
    },
    {
      "constant": true,
      "inputs": [],
      "name": "getForeignFee",
      "outputs": [
        {
          "name": "",
          "type": "uint256"
        }
      ],
      "payable": false,
      "stateMutability": "view",
      "type": "function"
    },
    {
      "anonymous": false,
      "inputs": [
        {
          "indexed": false,
          "name": "fee",
          "type": "uint256"
        }
      ],
      "name": "HomeFeeUpdated",
      "type": "event"
    },
    {
      "anonymous": false,
      "inputs": [
        {
          "indexed": false,
          "name": "fee",
          "type": "uint256"
        }
      ],
      "name": "ForeignFeeUpdated",
      "type": "event"
    },
    {
      "constant": true,
      "inputs": [],
      "name": "getFeeManagerMode",
      "outputs": [
        {
          "name": "",
          "type": "bytes4"
        }
      ],
      "payable": false,
      "stateMutability": "pure",
      "type": "function"
    },
    {
      "constant": true,
      "inputs": [],
      "name": "erc677token",
      "outputs": [
        {
          "name": "",
          "type": "address"
        }
      ],
      "payable": false,
      "stateMutability": "view",
      "type": "function"
    }
  ],
  "bytecode": "0x608060405234801561001057600080fd5b50610ba0806100206000396000f3006080604052600436106100955763ffffffff60e060020a600035041663054d46ec811461009a57806318d8f9c9146100b4578063286c4066146100e557806334a9e148146100fd57806359d78464146101155780637587f5761461012d578063767e15c11461015457806394da17cd146101695780639862f26f1461017e578063f2ba95611461019e578063ffd66196146101e8575b600080fd5b3480156100a657600080fd5b506100b26004356101fd565b005b3480156100c057600080fd5b506100c961022a565b60408051600160a060020a039092168252519081900360200190f35b3480156100f157600080fd5b506100b2600435610281565b34801561010957600080fd5b506100b260043561031d565b34801561012157600080fd5b506100b26004356103b9565b34801561013957600080fd5b506101426103e3565b60408051918252519081900360200190f35b34801561016057600080fd5b50610142610407565b34801561017557600080fd5b5061014261042b565b34801561018a57600080fd5b506101426004356024351515604435610479565b3480156101aa57600080fd5b506101b3610580565b604080517fffffffff000000000000000000000000000000000000000000000000000000009092168252519081900360200190f35b3480156101f457600080fd5b506101426105a4565b610227817fb14796d751eb4f2570065a479f9e526eabeb2077c564c8a1c5ea559883ea2fab6105f2565b50565b7fa8b0ade3e2b734f043ce298aca4cc8d19d74270223f34531d0988b7d00cba21d60005260026020527f603cd9dcbfa185d5c37504f4c8b3f16117ed744fba48d08b7aad44a162af1c9354600160a060020a031690565b80670de0b6b3a7640000811061029657600080fd5b7f68c305f6c823f4d2fa4140f9cf28d32a1faccf9b8081ff1c2de11cf32c733efc600090815260209081527ffc8184861980b909b08b1c0a3bc8f07d63e2a591b0ee38baf91ff70732f793a48390556040805184815290517fa1bb1f345e2d0374ec182de8bb6e574798f6b4b3e89046d75c479d7d5620c216929181900390910190a15050565b80670de0b6b3a7640000811061033257600080fd5b7fc3781f3cec62d28f56efe98358f59c2105504b194242dbcb2cc0806850c306e7600090815260209081527f1d18a249ebed58dc38c0390af3a90c7c1c247e1be783f19d84a8f7c82cd2a4ba8390556040805184815290517f64afb51b44460415972849f8c01723cf624c005cbadf1024a2d8568694b73ac1929181900390910190a15050565b610227817f2a11db67c480122765825a7e4bc5428e8b7b9eca0d4e62b91aac194f99edd0d76105f2565b7fb14796d751eb4f2570065a479f9e526eabeb2077c564c8a1c5ea559883ea2fab81565b7f2a11db67c480122765825a7e4bc5428e8b7b9eca0d4e62b91aac194f99edd0d781565b7fc3781f3cec62d28f56efe98358f59c2105504b194242dbcb2cc0806850c306e760009081526020527f1d18a249ebed58dc38c0390af3a90c7c1c247e1be783f19d84a8f7c82cd2a4ba5490565b600080827f89d93e5e92f7e37e490c25f0e50f7f4aad7cc94b308a566553280967be38bcf18114806104ca57507fdeb7f3adca07d6d1f708c1774389db532a2b2f18fd05a62b957e4089f4696ed581145b15156104d557600080fd5b7f89d93e5e92f7e37e490c25f0e50f7f4aad7cc94b308a566553280967be38bcf18414610509576105046105a4565b610511565b61051161042b565b915084151561054957610542670de0b6b3a7640000610536888563ffffffff61090f16565b9063ffffffff61093e16565b9250610577565b610574610564670de0b6b3a76400008463ffffffff61095316565b610536888563ffffffff61090f16565b92505b50509392505050565b7ff2aed8f70000000000000000000000000000000000000000000000000000000090565b7f68c305f6c823f4d2fa4140f9cf28d32a1faccf9b8081ff1c2de11cf32c733efc60009081526020527ffc8184861980b909b08b1c0a3bc8f07d63e2a591b0ee38baf91ff70732f793a45490565b600080600080600080600080600080610609610965565b9950600160a060020a03985089600160a060020a0316630f43a6776040518163ffffffff1660e060020a028152600401602060405180830381600087803b15801561065357600080fd5b505af1158015610667573d6000803e3d6000fd5b505050506040513d602081101561067d57600080fd5b505197506106918c8963ffffffff61093e16565b96506106b36106a6888a63ffffffff61090f16565b8d9063ffffffff61095316565b945060008511156106ca576106c7886109bc565b95505b89600160a060020a0316638d37052c8a6040518263ffffffff1660e060020a0281526004018082600160a060020a0316600160a060020a03168152602001915050602060405180830381600087803b15801561072557600080fd5b505af1158015610739573d6000803e3d6000fd5b505050506040513d602081101561074f57600080fd5b50519350600160a060020a03808516908a16148015906107775750600160a060020a03841615155b151561078257600080fd5b600092505b600160a060020a03848116908a1614610901578691506000851180156107ac57508286145b156107c4576107c1828663ffffffff6109e116565b91505b89600160a060020a03166381b91174856040518263ffffffff1660e060020a0281526004018082600160a060020a0316600160a060020a03168152602001915050602060405180830381600087803b15801561081f57600080fd5b505af1158015610833573d6000803e3d6000fd5b505050506040513d602081101561084957600080fd5b5051905061085881838d6109ee565b89600160a060020a0316638d37052c856040518263ffffffff1660e060020a0281526004018082600160a060020a0316600160a060020a03168152602001915050602060405180830381600087803b1580156108b357600080fd5b505af11580156108c7573d6000803e3d6000fd5b505050506040513d60208110156108dd57600080fd5b50519350600160a060020a03841615156108f657600080fd5b826001019250610787565b505050505050505050505050565b600082151561092057506000610938565b5081810281838281151561093057fe5b041461093857fe5b92915050565b6000818381151561094b57fe5b049392505050565b60008282111561095f57fe5b50900390565b7f5a74bb7e202fb8e4bf311841c7d64ec19df195fee77d7e7ae749b27921b6ddfe60005260026020527fab54f3fbbe62c59b7876a9bf9bd5e0c22dbae93f4d8ee0438f7ce62b198eb0e054600160a060020a031690565b6000816109d043600163ffffffff61095316565b408115156109da57fe5b0692915050565b8181018281101561093857fe5b7fb14796d751eb4f2570065a479f9e526eabeb2077c564c8a1c5ea559883ea2fab811415610a2557610a208383610a34565b610a2f565b610a2f8383610a42565b505050565b610a3e8282610adc565b5050565b610a4a61022a565b600160a060020a03166340c10f1983836040518363ffffffff1660e060020a0281526004018083600160a060020a0316600160a060020a0316815260200182815260200192505050602060405180830381600087803b158015610aac57600080fd5b505af1158015610ac0573d6000803e3d6000fd5b505050506040513d6020811015610ad657600080fd5b50505050565b604051600160a060020a0383169082156108fc029083906000818181858888f193505050501515610a3e578082610b11610b44565b600160a060020a039091168152604051908190036020019082f080158015610b3d573d6000803e3d6000fd5b5050505050565b604051602180610b54833901905600608060405260405160208060218339810160405251600160a060020a038116ff00a165627a7a723058201ab11f06a8881c4b1924ed68dd88c8a4e576cbab9908bff5af40dd7176e385320029",
  "source": "pragma solidity 0.4.24;\n\nimport \"../../interfaces/IBurnableMintableERC677Token.sol\";\nimport \"../../libraries/Address.sol\";\nimport \"../ValidatorsFeeManager.sol\";\nimport \"../ERC677Storage.sol\";\n\ncontract FeeManagerNativeToErc is ValidatorsFeeManager, ERC677Storage {\n    function getFeeManagerMode() external pure returns (bytes4) {\n        return 0xf2aed8f7; // bytes4(keccak256(abi.encodePacked(\"manages-one-direction\")))\n    }\n\n    function erc677token() public view returns (IBurnableMintableERC677Token) {\n        return IBurnableMintableERC677Token(addressStorage[ERC677_TOKEN]);\n    }\n\n    function onAffirmationFeeDistribution(address _rewardAddress, uint256 _fee) internal {\n        Address.safeSendValue(_rewardAddress, _fee);\n    }\n\n    function onSignatureFeeDistribution(address _rewardAddress, uint256 _fee) internal {\n        erc677token().mint(_rewardAddress, _fee);\n    }\n}\n",
  "sourcePath": "/Users/max/Projects/Symblox/TokenBridge/tokenbridge/contracts/contracts/upgradeable_contracts/native_to_erc20/FeeManagerNativeToErc.sol",
  "compiler": {
    "name": "solc",
    "version": "0.4.24+commit.e67f0147.Emscripten.clang"
  },
  "schemaVersion": "3.1.0",
  "updatedAt": "2020-11-26T16:22:40.019Z",
  "devdoc": {
    "methods": {
      "calculateFee(uint256,bool,bytes32)": {
        "details": "Calculated the amount of fee for the particular bridge operation.",
        "params": {
          "_feeType": "type of the fee, should be either HOME_FEE of FOREIGN_FEE.",
          "_recover": "true, if the fee was already subtracted from the given _value and needs to be restored.",
          "_value": "bridged amount of tokens/coins for which fee amount is calculated."
        },
        "return": "calculated fee amount."
      }
    }
  },
  "userdoc": {
    "methods": {}
  }
}