{
  "contractName": "FeeManagerErcToErcPOSDAO",
  "abi": [
    {
      "constant": false,
      "inputs": [
        {
          "name": "_fee",
          "type": "uint256"
        }
      ],
      "name": "distributeFeeFromAffirmation",
      "outputs": [],
      "payable": false,
      "stateMutability": "nonpayable",
      "type": "function"
    },
    {
      "constant": false,
      "inputs": [
        {
          "name": "_fee",
          "type": "uint256"
        }
      ],
      "name": "setForeignFee",
      "outputs": [],
      "payable": false,
      "stateMutability": "nonpayable",
      "type": "function"
    },
    {
      "constant": false,
      "inputs": [
        {
          "name": "_fee",
          "type": "uint256"
        }
      ],
      "name": "setHomeFee",
      "outputs": [],
      "payable": false,
      "stateMutability": "nonpayable",
      "type": "function"
    },
    {
      "constant": false,
      "inputs": [
        {
          "name": "_fee",
          "type": "uint256"
        }
      ],
      "name": "distributeFeeFromSignatures",
      "outputs": [],
      "payable": false,
      "stateMutability": "nonpayable",
      "type": "function"
    },
    {
      "constant": true,
      "inputs": [],
      "name": "getHomeFee",
      "outputs": [
        {
          "name": "",
          "type": "uint256"
        }
      ],
      "payable": false,
      "stateMutability": "view",
      "type": "function"
    },
    {
      "constant": true,
      "inputs": [
        {
          "name": "_value",
          "type": "uint256"
        },
        {
          "name": "_recover",
          "type": "bool"
        },
        {
          "name": "_feeType",
          "type": "bytes32"
        }
      ],
      "name": "calculateFee",
      "outputs": [
        {
          "name": "",
          "type": "uint256"
        }
      ],
      "payable": false,
      "stateMutability": "view",
      "type": "function"
    },
    {
      "constant": true,
      "inputs": [],
      "name": "getForeignFee",
      "outputs": [
        {
          "name": "",
          "type": "uint256"
        }
      ],
      "payable": false,
      "stateMutability": "view",
      "type": "function"
    },
    {
      "anonymous": false,
      "inputs": [
        {
          "indexed": false,
          "name": "fee",
          "type": "uint256"
        }
      ],
      "name": "HomeFeeUpdated",
      "type": "event"
    },
    {
      "anonymous": false,
      "inputs": [
        {
          "indexed": false,
          "name": "fee",
          "type": "uint256"
        }
      ],
      "name": "ForeignFeeUpdated",
      "type": "event"
    },
    {
      "constant": true,
      "inputs": [],
      "name": "getFeeManagerMode",
      "outputs": [
        {
          "name": "",
          "type": "bytes4"
        }
      ],
      "payable": false,
      "stateMutability": "pure",
      "type": "function"
    },
    {
      "constant": true,
      "inputs": [],
      "name": "blockRewardContract",
      "outputs": [
        {
          "name": "",
          "type": "address"
        }
      ],
      "payable": false,
      "stateMutability": "view",
      "type": "function"
    },
    {
      "constant": false,
      "inputs": [
        {
          "name": "_blockReward",
          "type": "address"
        }
      ],
      "name": "setBlockRewardContract",
      "outputs": [],
      "payable": false,
      "stateMutability": "nonpayable",
      "type": "function"
    }
  ],
  "bytecode": "0x608060405234801561001057600080fd5b506108c6806100206000396000f30060806040526004361061008a5763ffffffff60e060020a600035041663054d46ec811461008f57806327a3e16b146100a9578063286c4066146100ca57806334a9e148146100e257806356b54bae146100fa57806359d784641461008f57806394da17cd1461012b5780639862f26f14610152578063f2ba956114610172578063ffd66196146101b9575b600080fd5b34801561009b57600080fd5b506100a76004356101ce565b005b3480156100b557600080fd5b506100a7600160a060020a03600435166101da565b3480156100d657600080fd5b506100a76004356101e3565b3480156100ee57600080fd5b506100a760043561027f565b34801561010657600080fd5b5061010f61031b565b60408051600160a060020a039092168252519081900360200190f35b34801561013757600080fd5b5061014061032a565b60408051918252519081900360200190f35b34801561015e57600080fd5b506101406004356024351515604435610378565b34801561017e57600080fd5b5061018761047f565b604080517bffffffffffffffffffffffffffffffffffffffffffffffffffffffff199092168252519081900360200190f35b3480156101c557600080fd5b506101406104a3565b6101d7816104f1565b50565b6101d781610562565b80670de0b6b3a764000081106101f857600080fd5b7f68c305f6c823f4d2fa4140f9cf28d32a1faccf9b8081ff1c2de11cf32c733efc600090815260209081527ffc8184861980b909b08b1c0a3bc8f07d63e2a591b0ee38baf91ff70732f793a48390556040805184815290517fa1bb1f345e2d0374ec182de8bb6e574798f6b4b3e89046d75c479d7d5620c216929181900390910190a15050565b80670de0b6b3a7640000811061029457600080fd5b7fc3781f3cec62d28f56efe98358f59c2105504b194242dbcb2cc0806850c306e7600090815260209081527f1d18a249ebed58dc38c0390af3a90c7c1c247e1be783f19d84a8f7c82cd2a4ba8390556040805184815290517f64afb51b44460415972849f8c01723cf624c005cbadf1024a2d8568694b73ac1929181900390910190a15050565b60006103256107e5565b905090565b7fc3781f3cec62d28f56efe98358f59c2105504b194242dbcb2cc0806850c306e760009081526020527f1d18a249ebed58dc38c0390af3a90c7c1c247e1be783f19d84a8f7c82cd2a4ba5490565b600080827f89d93e5e92f7e37e490c25f0e50f7f4aad7cc94b308a566553280967be38bcf18114806103c957507fdeb7f3adca07d6d1f708c1774389db532a2b2f18fd05a62b957e4089f4696ed581145b15156103d457600080fd5b7f89d93e5e92f7e37e490c25f0e50f7f4aad7cc94b308a566553280967be38bcf18414610408576104036104a3565b610410565b61041061032a565b915084151561044857610441670de0b6b3a7640000610435888563ffffffff61083c16565b9063ffffffff61086b16565b9250610476565b610473610463670de0b6b3a76400008463ffffffff61088016565b610435888563ffffffff61083c16565b92505b50509392505050565b7fd7de965f0000000000000000000000000000000000000000000000000000000090565b7f68c305f6c823f4d2fa4140f9cf28d32a1faccf9b8081ff1c2de11cf32c733efc60009081526020527ffc8184861980b909b08b1c0a3bc8f07d63e2a591b0ee38baf91ff70732f793a45490565b60006104fb6107e5565b905080600160a060020a03166362178478836040518263ffffffff1660e060020a02815260040180828152602001915050600060405180830381600087803b15801561054657600080fd5b505af115801561055a573d6000803e3d6000fd5b505050505050565b600061056d82610892565b151561057857600080fd5b6000905081600160a060020a0316632ee57f8d60e060020a0260e060020a90046040518163ffffffff1660e060020a0281526004016000604051808303816000875af192505050156106aa5760405180807f626c6f636b526577617264000000000000000000000000000000000000000000815250600b01905060405180910390207bffffffffffffffffffffffffffffffffffffffffffffffffffffffff191682600160a060020a0316632ee57f8d6040518163ffffffff1660e060020a028152600401602060405180830381600087803b15801561065757600080fd5b505af115801561066b573d6000803e3d6000fd5b505050506040513d602081101561068157600080fd5b50517bffffffffffffffffffffffffffffffffffffffffffffffffffffffff1916149050610761565b81600160a060020a03166310f2ee7c60e060020a0260e060020a90046040518163ffffffff1660e060020a0281526004016000604051808303816000875af192505050156107615781600160a060020a03166310f2ee7c6040518163ffffffff1660e060020a028152600401602060405180830381600087803b15801561073057600080fd5b505af1158015610744573d6000803e3d6000fd5b505050506040513d602081101561075a57600080fd5b5051151590505b80151561076d57600080fd5b507f20ae0b8a761b32f3124efb075f427dd6ca669e88ae7747fec9fd1ad688699f3260005260026020527fd76793c705b076d97d490f0c1e5a620caae2c4973213dc37ef69a1be2a5ec070805473ffffffffffffffffffffffffffffffffffffffff1916600160a060020a0392909216919091179055565b7f20ae0b8a761b32f3124efb075f427dd6ca669e88ae7747fec9fd1ad688699f3260005260026020527fd76793c705b076d97d490f0c1e5a620caae2c4973213dc37ef69a1be2a5ec07054600160a060020a031690565b600082151561084d57506000610865565b5081810281838281151561085d57fe5b041461086557fe5b92915050565b6000818381151561087857fe5b049392505050565b60008282111561088c57fe5b50900390565b6000903b11905600a165627a7a7230582071c6a07e54f82b335b52eecc4f491d5faeb46fdcb8996d74f7cf8062bbc2ee130029",
  "source": "pragma solidity 0.4.24;\n\nimport \"../BlockRewardFeeManager.sol\";\n\ncontract FeeManagerErcToErcPOSDAO is BlockRewardFeeManager {\n    function getFeeManagerMode() external pure returns (bytes4) {\n        return 0xd7de965f; // bytes4(keccak256(abi.encodePacked(\"manages-both-directions\")))\n    }\n\n    function blockRewardContract() external view returns (address) {\n        return _blockRewardContract();\n    }\n\n    function setBlockRewardContract(address _blockReward) external {\n        _setBlockRewardContract(_blockReward);\n    }\n\n    function distributeFeeFromBlockReward(uint256 _fee) internal {\n        IBlockReward blockReward = _blockRewardContract();\n        blockReward.addBridgeTokenRewardReceivers(_fee);\n    }\n}\n",
  "sourcePath": "/Users/max/Projects/Symblox/TokenBridge/tokenbridge/contracts/contracts/upgradeable_contracts/erc20_to_erc20/FeeManagerErcToErcPOSDAO.sol",
  "compiler": {
    "name": "solc",
    "version": "0.4.24+commit.e67f0147.Emscripten.clang"
  },
  "schemaVersion": "3.1.0",
  "updatedAt": "2020-11-26T16:22:39.946Z",
  "devdoc": {
    "methods": {
      "calculateFee(uint256,bool,bytes32)": {
        "details": "Calculated the amount of fee for the particular bridge operation.",
        "params": {
          "_feeType": "type of the fee, should be either HOME_FEE of FOREIGN_FEE.",
          "_recover": "true, if the fee was already subtracted from the given _value and needs to be restored.",
          "_value": "bridged amount of tokens/coins for which fee amount is calculated."
        },
        "return": "calculated fee amount."
      }
    }
  },
  "userdoc": {
    "methods": {}
  }
}