{
  "contractName": "FeeManagerNativeToErcBothDirections",
  "abi": [
    {
      "constant": false,
      "inputs": [
        {
          "name": "_fee",
          "type": "uint256"
        }
      ],
      "name": "distributeFeeFromAffirmation",
      "outputs": [],
      "payable": false,
      "stateMutability": "nonpayable",
      "type": "function"
    },
    {
      "constant": false,
      "inputs": [
        {
          "name": "_fee",
          "type": "uint256"
        }
      ],
      "name": "setForeignFee",
      "outputs": [],
      "payable": false,
      "stateMutability": "nonpayable",
      "type": "function"
    },
    {
      "constant": false,
      "inputs": [
        {
          "name": "_fee",
          "type": "uint256"
        }
      ],
      "name": "setHomeFee",
      "outputs": [],
      "payable": false,
      "stateMutability": "nonpayable",
      "type": "function"
    },
    {
      "constant": false,
      "inputs": [
        {
          "name": "_fee",
          "type": "uint256"
        }
      ],
      "name": "distributeFeeFromSignatures",
      "outputs": [],
      "payable": false,
      "stateMutability": "nonpayable",
      "type": "function"
    },
    {
      "constant": true,
      "inputs": [],
      "name": "REWARD_FOR_TRANSFERRING_FROM_FOREIGN",
      "outputs": [
        {
          "name": "",
          "type": "bytes32"
        }
      ],
      "payable": false,
      "stateMutability": "view",
      "type": "function"
    },
    {
      "constant": true,
      "inputs": [],
      "name": "REWARD_FOR_TRANSFERRING_FROM_HOME",
      "outputs": [
        {
          "name": "",
          "type": "bytes32"
        }
      ],
      "payable": false,
      "stateMutability": "view",
      "type": "function"
    },
    {
      "constant": true,
      "inputs": [],
      "name": "getHomeFee",
      "outputs": [
        {
          "name": "",
          "type": "uint256"
        }
      ],
      "payable": false,
      "stateMutability": "view",
      "type": "function"
    },
    {
      "constant": true,
      "inputs": [
        {
          "name": "_value",
          "type": "uint256"
        },
        {
          "name": "_recover",
          "type": "bool"
        },
        {
          "name": "_feeType",
          "type": "bytes32"
        }
      ],
      "name": "calculateFee",
      "outputs": [
        {
          "name": "",
          "type": "uint256"
        }
      ],
      "payable": false,
      "stateMutability": "view",
      "type": "function"
    },
    {
      "constant": true,
      "inputs": [],
      "name": "getForeignFee",
      "outputs": [
        {
          "name": "",
          "type": "uint256"
        }
      ],
      "payable": false,
      "stateMutability": "view",
      "type": "function"
    },
    {
      "anonymous": false,
      "inputs": [
        {
          "indexed": false,
          "name": "fee",
          "type": "uint256"
        }
      ],
      "name": "HomeFeeUpdated",
      "type": "event"
    },
    {
      "anonymous": false,
      "inputs": [
        {
          "indexed": false,
          "name": "fee",
          "type": "uint256"
        }
      ],
      "name": "ForeignFeeUpdated",
      "type": "event"
    },
    {
      "constant": true,
      "inputs": [],
      "name": "getFeeManagerMode",
      "outputs": [
        {
          "name": "",
          "type": "bytes4"
        }
      ],
      "payable": false,
      "stateMutability": "pure",
      "type": "function"
    }
  ],
  "bytecode": "0x608060405234801561001057600080fd5b50610a78806100206000396000f30060806040526004361061008a5763ffffffff60e060020a600035041663054d46ec811461008f578063286c4066146100a957806334a9e148146100c157806359d78464146100d95780637587f576146100f1578063767e15c11461011857806394da17cd1461012d5780639862f26f14610142578063f2ba956114610162578063ffd66196146101ac575b600080fd5b34801561009b57600080fd5b506100a76004356101c1565b005b3480156100b557600080fd5b506100a76004356101ee565b3480156100cd57600080fd5b506100a760043561028a565b3480156100e557600080fd5b506100a7600435610326565b3480156100fd57600080fd5b50610106610350565b60408051918252519081900360200190f35b34801561012457600080fd5b50610106610374565b34801561013957600080fd5b50610106610398565b34801561014e57600080fd5b5061010660043560243515156044356103e6565b34801561016e57600080fd5b506101776104ed565b604080517fffffffff000000000000000000000000000000000000000000000000000000009092168252519081900360200190f35b3480156101b857600080fd5b50610106610511565b6101eb817fb14796d751eb4f2570065a479f9e526eabeb2077c564c8a1c5ea559883ea2fab61055f565b50565b80670de0b6b3a7640000811061020357600080fd5b7f68c305f6c823f4d2fa4140f9cf28d32a1faccf9b8081ff1c2de11cf32c733efc600090815260209081527ffc8184861980b909b08b1c0a3bc8f07d63e2a591b0ee38baf91ff70732f793a48390556040805184815290517fa1bb1f345e2d0374ec182de8bb6e574798f6b4b3e89046d75c479d7d5620c216929181900390910190a15050565b80670de0b6b3a7640000811061029f57600080fd5b7fc3781f3cec62d28f56efe98358f59c2105504b194242dbcb2cc0806850c306e7600090815260209081527f1d18a249ebed58dc38c0390af3a90c7c1c247e1be783f19d84a8f7c82cd2a4ba8390556040805184815290517f64afb51b44460415972849f8c01723cf624c005cbadf1024a2d8568694b73ac1929181900390910190a15050565b6101eb817f2a11db67c480122765825a7e4bc5428e8b7b9eca0d4e62b91aac194f99edd0d761055f565b7fb14796d751eb4f2570065a479f9e526eabeb2077c564c8a1c5ea559883ea2fab81565b7f2a11db67c480122765825a7e4bc5428e8b7b9eca0d4e62b91aac194f99edd0d781565b7fc3781f3cec62d28f56efe98358f59c2105504b194242dbcb2cc0806850c306e760009081526020527f1d18a249ebed58dc38c0390af3a90c7c1c247e1be783f19d84a8f7c82cd2a4ba5490565b600080827f89d93e5e92f7e37e490c25f0e50f7f4aad7cc94b308a566553280967be38bcf181148061043757507fdeb7f3adca07d6d1f708c1774389db532a2b2f18fd05a62b957e4089f4696ed581145b151561044257600080fd5b7f89d93e5e92f7e37e490c25f0e50f7f4aad7cc94b308a566553280967be38bcf1841461047657610471610511565b61047e565b61047e610398565b91508415156104b6576104af670de0b6b3a76400006104a3888563ffffffff61087c16565b9063ffffffff6108ab16565b92506104e4565b6104e16104d1670de0b6b3a76400008463ffffffff6108c016565b6104a3888563ffffffff61087c16565b92505b50509392505050565b7fd7de965f0000000000000000000000000000000000000000000000000000000090565b7f68c305f6c823f4d2fa4140f9cf28d32a1faccf9b8081ff1c2de11cf32c733efc60009081526020527ffc8184861980b909b08b1c0a3bc8f07d63e2a591b0ee38baf91ff70732f793a45490565b6000806000806000806000806000806105766108d2565b9950600160a060020a03985089600160a060020a0316630f43a6776040518163ffffffff1660e060020a028152600401602060405180830381600087803b1580156105c057600080fd5b505af11580156105d4573d6000803e3d6000fd5b505050506040513d60208110156105ea57600080fd5b505197506105fe8c8963ffffffff6108ab16565b9650610620610613888a63ffffffff61087c16565b8d9063ffffffff6108c016565b945060008511156106375761063488610929565b95505b89600160a060020a0316638d37052c8a6040518263ffffffff1660e060020a0281526004018082600160a060020a0316600160a060020a03168152602001915050602060405180830381600087803b15801561069257600080fd5b505af11580156106a6573d6000803e3d6000fd5b505050506040513d60208110156106bc57600080fd5b50519350600160a060020a03808516908a16148015906106e45750600160a060020a03841615155b15156106ef57600080fd5b600092505b600160a060020a03848116908a161461086e5786915060008511801561071957508286145b156107315761072e828663ffffffff61094e16565b91505b89600160a060020a03166381b91174856040518263ffffffff1660e060020a0281526004018082600160a060020a0316600160a060020a03168152602001915050602060405180830381600087803b15801561078c57600080fd5b505af11580156107a0573d6000803e3d6000fd5b505050506040513d60208110156107b657600080fd5b505190506107c581838d61095b565b89600160a060020a0316638d37052c856040518263ffffffff1660e060020a0281526004018082600160a060020a0316600160a060020a03168152602001915050602060405180830381600087803b15801561082057600080fd5b505af1158015610834573d6000803e3d6000fd5b505050506040513d602081101561084a57600080fd5b50519350600160a060020a038416151561086357600080fd5b8260010192506106f4565b505050505050505050505050565b600082151561088d575060006108a5565b5081810281838281151561089d57fe5b04146108a557fe5b92915050565b600081838115156108b857fe5b049392505050565b6000828211156108cc57fe5b50900390565b7f5a74bb7e202fb8e4bf311841c7d64ec19df195fee77d7e7ae749b27921b6ddfe60005260026020527fab54f3fbbe62c59b7876a9bf9bd5e0c22dbae93f4d8ee0438f7ce62b198eb0e054600160a060020a031690565b60008161093d43600163ffffffff6108c016565b4081151561094757fe5b0692915050565b818101828110156108a557fe5b7fb14796d751eb4f2570065a479f9e526eabeb2077c564c8a1c5ea559883ea2fab8114156109925761098d83836109a1565b61099c565b61099c83836109a1565b505050565b6109ab82826109af565b5050565b6109ab8282604051600160a060020a0383169082156108fc029083906000818181858888f1935050505015156109ab5780826109e9610a1c565b600160a060020a039091168152604051908190036020019082f080158015610a15573d6000803e3d6000fd5b5050505050565b604051602180610a2c833901905600608060405260405160208060218339810160405251600160a060020a038116ff00a165627a7a72305820072bba2ead24ccfe1b3acafe89e89c00333d8a3824898c3d3b1401000f3b91630029",
  "source": "pragma solidity 0.4.24;\n\nimport \"../../libraries/Address.sol\";\nimport \"../ValidatorsFeeManager.sol\";\n\ncontract FeeManagerNativeToErcBothDirections is ValidatorsFeeManager {\n    function getFeeManagerMode() external pure returns (bytes4) {\n        return 0xd7de965f; // bytes4(keccak256(abi.encodePacked(\"manages-both-directions\")))\n    }\n\n    function onAffirmationFeeDistribution(address _rewardAddress, uint256 _fee) internal {\n        _sendReward(_rewardAddress, _fee);\n    }\n\n    function onSignatureFeeDistribution(address _rewardAddress, uint256 _fee) internal {\n        _sendReward(_rewardAddress, _fee);\n    }\n\n    function _sendReward(address _rewardAddress, uint256 _fee) internal {\n        Address.safeSendValue(_rewardAddress, _fee);\n    }\n}\n",
  "sourcePath": "/Users/max/Projects/Symblox/TokenBridge/tokenbridge/contracts/contracts/upgradeable_contracts/native_to_erc20/FeeManagerNativeToErcBothDirections.sol",
  "compiler": {
    "name": "solc",
    "version": "0.4.24+commit.e67f0147.Emscripten.clang"
  },
  "schemaVersion": "3.1.0",
  "updatedAt": "2020-11-26T16:22:40.019Z",
  "devdoc": {
    "methods": {
      "calculateFee(uint256,bool,bytes32)": {
        "details": "Calculated the amount of fee for the particular bridge operation.",
        "params": {
          "_feeType": "type of the fee, should be either HOME_FEE of FOREIGN_FEE.",
          "_recover": "true, if the fee was already subtracted from the given _value and needs to be restored.",
          "_value": "bridged amount of tokens/coins for which fee amount is calculated."
        },
        "return": "calculated fee amount."
      }
    }
  },
  "userdoc": {
    "methods": {}
  }
}