{
  "contractName": "FeeManagerErcToNativePOSDAO",
  "abi": [
    {
      "constant": false,
      "inputs": [
        {
          "name": "_fee",
          "type": "uint256"
        }
      ],
      "name": "distributeFeeFromAffirmation",
      "outputs": [],
      "payable": false,
      "stateMutability": "nonpayable",
      "type": "function"
    },
    {
      "constant": false,
      "inputs": [
        {
          "name": "_fee",
          "type": "uint256"
        }
      ],
      "name": "setForeignFee",
      "outputs": [],
      "payable": false,
      "stateMutability": "nonpayable",
      "type": "function"
    },
    {
      "constant": false,
      "inputs": [
        {
          "name": "_fee",
          "type": "uint256"
        }
      ],
      "name": "setHomeFee",
      "outputs": [],
      "payable": false,
      "stateMutability": "nonpayable",
      "type": "function"
    },
    {
      "constant": false,
      "inputs": [
        {
          "name": "_fee",
          "type": "uint256"
        }
      ],
      "name": "distributeFeeFromSignatures",
      "outputs": [],
      "payable": false,
      "stateMutability": "nonpayable",
      "type": "function"
    },
    {
      "constant": true,
      "inputs": [],
      "name": "getHomeFee",
      "outputs": [
        {
          "name": "",
          "type": "uint256"
        }
      ],
      "payable": false,
      "stateMutability": "view",
      "type": "function"
    },
    {
      "constant": true,
      "inputs": [
        {
          "name": "_value",
          "type": "uint256"
        },
        {
          "name": "_recover",
          "type": "bool"
        },
        {
          "name": "_feeType",
          "type": "bytes32"
        }
      ],
      "name": "calculateFee",
      "outputs": [
        {
          "name": "",
          "type": "uint256"
        }
      ],
      "payable": false,
      "stateMutability": "view",
      "type": "function"
    },
    {
      "constant": true,
      "inputs": [],
      "name": "getForeignFee",
      "outputs": [
        {
          "name": "",
          "type": "uint256"
        }
      ],
      "payable": false,
      "stateMutability": "view",
      "type": "function"
    },
    {
      "anonymous": false,
      "inputs": [
        {
          "indexed": false,
          "name": "fee",
          "type": "uint256"
        }
      ],
      "name": "HomeFeeUpdated",
      "type": "event"
    },
    {
      "anonymous": false,
      "inputs": [
        {
          "indexed": false,
          "name": "fee",
          "type": "uint256"
        }
      ],
      "name": "ForeignFeeUpdated",
      "type": "event"
    },
    {
      "constant": true,
      "inputs": [],
      "name": "getFeeManagerMode",
      "outputs": [
        {
          "name": "",
          "type": "bytes4"
        }
      ],
      "payable": false,
      "stateMutability": "pure",
      "type": "function"
    },
    {
      "constant": true,
      "inputs": [
        {
          "name": "_value",
          "type": "uint256"
        }
      ],
      "name": "getAmountToBurn",
      "outputs": [
        {
          "name": "",
          "type": "uint256"
        }
      ],
      "payable": false,
      "stateMutability": "view",
      "type": "function"
    }
  ],
  "bytecode": "0x608060405234801561001057600080fd5b50610630806100206000396000f3006080604052600436106100985763ffffffff7c0100000000000000000000000000000000000000000000000000000000600035041663054d46ec811461009d578063286c4066146100b757806334a9e148146100cf57806359d784641461009d578063916850e9146100e757806394da17cd146101115780639862f26f14610126578063f2ba956114610146578063ffd6619614610190575b600080fd5b3480156100a957600080fd5b506100b56004356101a5565b005b3480156100c357600080fd5b506100b56004356101b1565b3480156100db57600080fd5b506100b560043561024d565b3480156100f357600080fd5b506100ff6004356102e9565b60408051918252519081900360200190f35b34801561011d57600080fd5b506100ff6102ec565b34801561013257600080fd5b506100ff600435602435151560443561033a565b34801561015257600080fd5b5061015b610441565b604080517fffffffff000000000000000000000000000000000000000000000000000000009092168252519081900360200190f35b34801561019c57600080fd5b506100ff610465565b6101ae816104b3565b50565b80670de0b6b3a764000081106101c657600080fd5b7f68c305f6c823f4d2fa4140f9cf28d32a1faccf9b8081ff1c2de11cf32c733efc600090815260209081527ffc8184861980b909b08b1c0a3bc8f07d63e2a591b0ee38baf91ff70732f793a48390556040805184815290517fa1bb1f345e2d0374ec182de8bb6e574798f6b4b3e89046d75c479d7d5620c216929181900390910190a15050565b80670de0b6b3a7640000811061026257600080fd5b7fc3781f3cec62d28f56efe98358f59c2105504b194242dbcb2cc0806850c306e7600090815260209081527f1d18a249ebed58dc38c0390af3a90c7c1c247e1be783f19d84a8f7c82cd2a4ba8390556040805184815290517f64afb51b44460415972849f8c01723cf624c005cbadf1024a2d8568694b73ac1929181900390910190a15050565b90565b7fc3781f3cec62d28f56efe98358f59c2105504b194242dbcb2cc0806850c306e760009081526020527f1d18a249ebed58dc38c0390af3a90c7c1c247e1be783f19d84a8f7c82cd2a4ba5490565b600080827f89d93e5e92f7e37e490c25f0e50f7f4aad7cc94b308a566553280967be38bcf181148061038b57507fdeb7f3adca07d6d1f708c1774389db532a2b2f18fd05a62b957e4089f4696ed581145b151561039657600080fd5b7f89d93e5e92f7e37e490c25f0e50f7f4aad7cc94b308a566553280967be38bcf184146103ca576103c5610465565b6103d2565b6103d26102ec565b915084151561040a57610403670de0b6b3a76400006103f7888563ffffffff61054a16565b9063ffffffff61057916565b9250610438565b610435610425670de0b6b3a76400008463ffffffff61058e16565b6103f7888563ffffffff61054a16565b92505b50509392505050565b7fd7de965f0000000000000000000000000000000000000000000000000000000090565b7f68c305f6c823f4d2fa4140f9cf28d32a1faccf9b8081ff1c2de11cf32c733efc60009081526020527ffc8184861980b909b08b1c0a3bc8f07d63e2a591b0ee38baf91ff70732f793a45490565b60006104bd6105a0565b90508073ffffffffffffffffffffffffffffffffffffffff1663222fafb2836040518263ffffffff167c010000000000000000000000000000000000000000000000000000000002815260040180828152602001915050600060405180830381600087803b15801561052e57600080fd5b505af1158015610542573d6000803e3d6000fd5b505050505050565b600082151561055b57506000610573565b5081810281838281151561056b57fe5b041461057357fe5b92915050565b6000818381151561058657fe5b049392505050565b60008282111561059a57fe5b50900390565b7f20ae0b8a761b32f3124efb075f427dd6ca669e88ae7747fec9fd1ad688699f3260005260026020527fd76793c705b076d97d490f0c1e5a620caae2c4973213dc37ef69a1be2a5ec0705473ffffffffffffffffffffffffffffffffffffffff16905600a165627a7a72305820ad6e5859b8339c26876d3d4566a4b3760b55ce8cbe0baffe66891e33548a8b0c0029",
  "source": "pragma solidity 0.4.24;\n\nimport \"../../interfaces/IBlockReward.sol\";\nimport \"../BlockRewardFeeManager.sol\";\n\ncontract FeeManagerErcToNativePOSDAO is BlockRewardFeeManager {\n    function getFeeManagerMode() external pure returns (bytes4) {\n        return 0xd7de965f; // bytes4(keccak256(abi.encodePacked(\"manages-both-directions\")))\n    }\n\n    function distributeFeeFromBlockReward(uint256 _fee) internal {\n        IBlockReward blockReward = _blockRewardContract();\n        blockReward.addBridgeNativeRewardReceivers(_fee);\n    }\n\n    function getAmountToBurn(uint256 _value) public view returns (uint256) {\n        return _value;\n    }\n}\n",
  "sourcePath": "/Users/max/Projects/Symblox/TokenBridge/tokenbridge/contracts/contracts/upgradeable_contracts/erc20_to_native/FeeManagerErcToNativePOSDAO.sol",
  "compiler": {
    "name": "solc",
    "version": "0.4.24+commit.e67f0147.Emscripten.clang"
  },
  "schemaVersion": "3.1.0",
  "updatedAt": "2020-11-26T16:22:39.963Z",
  "devdoc": {
    "methods": {
      "calculateFee(uint256,bool,bytes32)": {
        "details": "Calculated the amount of fee for the particular bridge operation.",
        "params": {
          "_feeType": "type of the fee, should be either HOME_FEE of FOREIGN_FEE.",
          "_recover": "true, if the fee was already subtracted from the given _value and needs to be restored.",
          "_value": "bridged amount of tokens/coins for which fee amount is calculated."
        },
        "return": "calculated fee amount."
      }
    }
  },
  "userdoc": {
    "methods": {}
  }
}