{
  "contractName": "FeeManagerErcToNative",
  "abi": [
    {
      "constant": false,
      "inputs": [
        {
          "name": "_fee",
          "type": "uint256"
        }
      ],
      "name": "distributeFeeFromAffirmation",
      "outputs": [],
      "payable": false,
      "stateMutability": "nonpayable",
      "type": "function"
    },
    {
      "constant": false,
      "inputs": [
        {
          "name": "_fee",
          "type": "uint256"
        }
      ],
      "name": "setForeignFee",
      "outputs": [],
      "payable": false,
      "stateMutability": "nonpayable",
      "type": "function"
    },
    {
      "constant": false,
      "inputs": [
        {
          "name": "_fee",
          "type": "uint256"
        }
      ],
      "name": "setHomeFee",
      "outputs": [],
      "payable": false,
      "stateMutability": "nonpayable",
      "type": "function"
    },
    {
      "constant": false,
      "inputs": [
        {
          "name": "_fee",
          "type": "uint256"
        }
      ],
      "name": "distributeFeeFromSignatures",
      "outputs": [],
      "payable": false,
      "stateMutability": "nonpayable",
      "type": "function"
    },
    {
      "constant": true,
      "inputs": [],
      "name": "REWARD_FOR_TRANSFERRING_FROM_FOREIGN",
      "outputs": [
        {
          "name": "",
          "type": "bytes32"
        }
      ],
      "payable": false,
      "stateMutability": "view",
      "type": "function"
    },
    {
      "constant": true,
      "inputs": [],
      "name": "REWARD_FOR_TRANSFERRING_FROM_HOME",
      "outputs": [
        {
          "name": "",
          "type": "bytes32"
        }
      ],
      "payable": false,
      "stateMutability": "view",
      "type": "function"
    },
    {
      "constant": true,
      "inputs": [],
      "name": "getHomeFee",
      "outputs": [
        {
          "name": "",
          "type": "uint256"
        }
      ],
      "payable": false,
      "stateMutability": "view",
      "type": "function"
    },
    {
      "constant": true,
      "inputs": [
        {
          "name": "_value",
          "type": "uint256"
        },
        {
          "name": "_recover",
          "type": "bool"
        },
        {
          "name": "_feeType",
          "type": "bytes32"
        }
      ],
      "name": "calculateFee",
      "outputs": [
        {
          "name": "",
          "type": "uint256"
        }
      ],
      "payable": false,
      "stateMutability": "view",
      "type": "function"
    },
    {
      "constant": true,
      "inputs": [],
      "name": "getForeignFee",
      "outputs": [
        {
          "name": "",
          "type": "uint256"
        }
      ],
      "payable": false,
      "stateMutability": "view",
      "type": "function"
    },
    {
      "anonymous": false,
      "inputs": [
        {
          "indexed": false,
          "name": "fee",
          "type": "uint256"
        }
      ],
      "name": "HomeFeeUpdated",
      "type": "event"
    },
    {
      "anonymous": false,
      "inputs": [
        {
          "indexed": false,
          "name": "fee",
          "type": "uint256"
        }
      ],
      "name": "ForeignFeeUpdated",
      "type": "event"
    },
    {
      "constant": true,
      "inputs": [],
      "name": "getFeeManagerMode",
      "outputs": [
        {
          "name": "",
          "type": "bytes4"
        }
      ],
      "payable": false,
      "stateMutability": "pure",
      "type": "function"
    },
    {
      "constant": true,
      "inputs": [
        {
          "name": "_value",
          "type": "uint256"
        }
      ],
      "name": "getAmountToBurn",
      "outputs": [
        {
          "name": "",
          "type": "uint256"
        }
      ],
      "payable": false,
      "stateMutability": "view",
      "type": "function"
    }
  ],
  "bytecode": "0x608060405234801561001057600080fd5b50610bbf806100206000396000f3006080604052600436106100955763ffffffff60e060020a600035041663054d46ec811461009a578063286c4066146100b457806334a9e148146100cc57806359d78464146100e45780637587f576146100fc578063767e15c114610123578063916850e91461013857806394da17cd146101505780639862f26f14610165578063f2ba956114610185578063ffd66196146101cf575b600080fd5b3480156100a657600080fd5b506100b26004356101e4565b005b3480156100c057600080fd5b506100b2600435610211565b3480156100d857600080fd5b506100b26004356102ad565b3480156100f057600080fd5b506100b2600435610349565b34801561010857600080fd5b50610111610373565b60408051918252519081900360200190f35b34801561012f57600080fd5b50610111610397565b34801561014457600080fd5b506101116004356103bb565b34801561015c57600080fd5b50610111610402565b34801561017157600080fd5b506101116004356024351515604435610450565b34801561019157600080fd5b5061019a610557565b604080517fffffffff000000000000000000000000000000000000000000000000000000009092168252519081900360200190f35b3480156101db57600080fd5b5061011161057b565b61020e817fb14796d751eb4f2570065a479f9e526eabeb2077c564c8a1c5ea559883ea2fab6105c9565b50565b80670de0b6b3a7640000811061022657600080fd5b7f68c305f6c823f4d2fa4140f9cf28d32a1faccf9b8081ff1c2de11cf32c733efc600090815260209081527ffc8184861980b909b08b1c0a3bc8f07d63e2a591b0ee38baf91ff70732f793a48390556040805184815290517fa1bb1f345e2d0374ec182de8bb6e574798f6b4b3e89046d75c479d7d5620c216929181900390910190a15050565b80670de0b6b3a764000081106102c257600080fd5b7fc3781f3cec62d28f56efe98358f59c2105504b194242dbcb2cc0806850c306e7600090815260209081527f1d18a249ebed58dc38c0390af3a90c7c1c247e1be783f19d84a8f7c82cd2a4ba8390556040805184815290517f64afb51b44460415972849f8c01723cf624c005cbadf1024a2d8568694b73ac1929181900390910190a15050565b61020e817f2a11db67c480122765825a7e4bc5428e8b7b9eca0d4e62b91aac194f99edd0d76105c9565b7fb14796d751eb4f2570065a479f9e526eabeb2077c564c8a1c5ea559883ea2fab81565b7f2a11db67c480122765825a7e4bc5428e8b7b9eca0d4e62b91aac194f99edd0d781565b6000806103e983827f89d93e5e92f7e37e490c25f0e50f7f4aad7cc94b308a566553280967be38bcf1610450565b90506103fb838263ffffffff6108e616565b9392505050565b7fc3781f3cec62d28f56efe98358f59c2105504b194242dbcb2cc0806850c306e760009081526020527f1d18a249ebed58dc38c0390af3a90c7c1c247e1be783f19d84a8f7c82cd2a4ba5490565b600080827f89d93e5e92f7e37e490c25f0e50f7f4aad7cc94b308a566553280967be38bcf18114806104a157507fdeb7f3adca07d6d1f708c1774389db532a2b2f18fd05a62b957e4089f4696ed581145b15156104ac57600080fd5b7f89d93e5e92f7e37e490c25f0e50f7f4aad7cc94b308a566553280967be38bcf184146104e0576104db61057b565b6104e8565b6104e8610402565b915084151561052057610519670de0b6b3a764000061050d888563ffffffff6108fd16565b9063ffffffff61092616565b925061054e565b61054b61053b670de0b6b3a76400008463ffffffff6108e616565b61050d888563ffffffff6108fd16565b92505b50509392505050565b7fd7de965f0000000000000000000000000000000000000000000000000000000090565b7f68c305f6c823f4d2fa4140f9cf28d32a1faccf9b8081ff1c2de11cf32c733efc60009081526020527ffc8184861980b909b08b1c0a3bc8f07d63e2a591b0ee38baf91ff70732f793a45490565b6000806000806000806000806000806105e061093b565b9950600160a060020a03985089600160a060020a0316630f43a6776040518163ffffffff1660e060020a028152600401602060405180830381600087803b15801561062a57600080fd5b505af115801561063e573d6000803e3d6000fd5b505050506040513d602081101561065457600080fd5b505197506106688c8963ffffffff61092616565b965061068a61067d888a63ffffffff6108fd16565b8d9063ffffffff6108e616565b945060008511156106a15761069e88610992565b95505b89600160a060020a0316638d37052c8a6040518263ffffffff1660e060020a0281526004018082600160a060020a0316600160a060020a03168152602001915050602060405180830381600087803b1580156106fc57600080fd5b505af1158015610710573d6000803e3d6000fd5b505050506040513d602081101561072657600080fd5b50519350600160a060020a03808516908a161480159061074e5750600160a060020a03841615155b151561075957600080fd5b600092505b600160a060020a03848116908a16146108d85786915060008511801561078357508286145b1561079b57610798828663ffffffff6109b716565b91505b89600160a060020a03166381b91174856040518263ffffffff1660e060020a0281526004018082600160a060020a0316600160a060020a03168152602001915050602060405180830381600087803b1580156107f657600080fd5b505af115801561080a573d6000803e3d6000fd5b505050506040513d602081101561082057600080fd5b5051905061082f81838d6109c4565b89600160a060020a0316638d37052c856040518263ffffffff1660e060020a0281526004018082600160a060020a0316600160a060020a03168152602001915050602060405180830381600087803b15801561088a57600080fd5b505af115801561089e573d6000803e3d6000fd5b505050506040513d60208110156108b457600080fd5b50519350600160a060020a03841615156108cd57600080fd5b82600101925061075e565b505050505050505050505050565b6000828211156108f257fe5b508082035b92915050565b600082151561090e575060006108f7565b5081810281838281151561091e57fe5b04146108f757fe5b6000818381151561093357fe5b049392505050565b7f5a74bb7e202fb8e4bf311841c7d64ec19df195fee77d7e7ae749b27921b6ddfe60005260026020527fab54f3fbbe62c59b7876a9bf9bd5e0c22dbae93f4d8ee0438f7ce62b198eb0e054600160a060020a031690565b6000816109a643600163ffffffff6108e616565b408115156109b057fe5b0692915050565b818101828110156108f757fe5b7fb14796d751eb4f2570065a479f9e526eabeb2077c564c8a1c5ea559883ea2fab8114156109fb576109f68383610a0a565b610a05565b610a058383610a96565b505050565b6000610a14610aa4565b905080600160a060020a031663aa9fa27483856040518363ffffffff1660e060020a0281526004018083815260200182600160a060020a0316600160a060020a0316815260200192505050600060405180830381600087803b158015610a7957600080fd5b505af1158015610a8d573d6000803e3d6000fd5b50505050505050565b610aa08282610afb565b5050565b7f20ae0b8a761b32f3124efb075f427dd6ca669e88ae7747fec9fd1ad688699f3260005260026020527fd76793c705b076d97d490f0c1e5a620caae2c4973213dc37ef69a1be2a5ec07054600160a060020a031690565b604051600160a060020a0383169082156108fc029083906000818181858888f193505050501515610aa0578082610b30610b63565b600160a060020a039091168152604051908190036020019082f080158015610b5c573d6000803e3d6000fd5b5050505050565b604051602180610b73833901905600608060405260405160208060218339810160405251600160a060020a038116ff00a165627a7a7230582074360608dcfd9b47665d59dbb6a8335f8f7cec46f1a2d3062915de7464114d250029",
  "source": "pragma solidity 0.4.24;\n\nimport \"../../interfaces/IBlockReward.sol\";\nimport \"../../libraries/Address.sol\";\nimport \"../ValidatorsFeeManager.sol\";\nimport \"../BlockRewardBridge.sol\";\n\ncontract FeeManagerErcToNative is ValidatorsFeeManager, BlockRewardBridge {\n    function getFeeManagerMode() external pure returns (bytes4) {\n        return 0xd7de965f; // bytes4(keccak256(abi.encodePacked(\"manages-both-directions\")))\n    }\n\n    function onAffirmationFeeDistribution(address _rewardAddress, uint256 _fee) internal {\n        IBlockReward blockReward = _blockRewardContract();\n        blockReward.addExtraReceiver(_fee, _rewardAddress);\n    }\n\n    function onSignatureFeeDistribution(address _rewardAddress, uint256 _fee) internal {\n        Address.safeSendValue(_rewardAddress, _fee);\n    }\n\n    function getAmountToBurn(uint256 _value) public view returns (uint256) {\n        uint256 fee = calculateFee(_value, false, HOME_FEE);\n        return _value.sub(fee);\n    }\n}\n",
  "sourcePath": "/Users/max/Projects/Symblox/TokenBridge/tokenbridge/contracts/contracts/upgradeable_contracts/erc20_to_native/FeeManagerErcToNative.sol",
  "compiler": {
    "name": "solc",
    "version": "0.4.24+commit.e67f0147.Emscripten.clang"
  },
  "schemaVersion": "3.1.0",
  "updatedAt": "2020-11-26T16:22:39.960Z",
  "devdoc": {
    "methods": {
      "calculateFee(uint256,bool,bytes32)": {
        "details": "Calculated the amount of fee for the particular bridge operation.",
        "params": {
          "_feeType": "type of the fee, should be either HOME_FEE of FOREIGN_FEE.",
          "_recover": "true, if the fee was already subtracted from the given _value and needs to be restored.",
          "_value": "bridged amount of tokens/coins for which fee amount is calculated."
        },
        "return": "calculated fee amount."
      }
    }
  },
  "userdoc": {
    "methods": {}
  }
}