{
  "contractName": "FeeReceiverMock",
  "abi": [
    {
      "constant": true,
      "inputs": [],
      "name": "mediator",
      "outputs": [
        {
          "name": "",
          "type": "address"
        }
      ],
      "payable": false,
      "stateMutability": "view",
      "type": "function"
    },
    {
      "constant": true,
      "inputs": [],
      "name": "token",
      "outputs": [
        {
          "name": "",
          "type": "address"
        }
      ],
      "payable": false,
      "stateMutability": "view",
      "type": "function"
    },
    {
      "inputs": [
        {
          "name": "_mediator",
          "type": "address"
        },
        {
          "name": "_token",
          "type": "address"
        }
      ],
      "payable": false,
      "stateMutability": "nonpayable",
      "type": "constructor"
    },
    {
      "constant": false,
      "inputs": [
        {
          "name": "",
          "type": "address"
        },
        {
          "name": "_value",
          "type": "uint256"
        },
        {
          "name": "",
          "type": "bytes"
        }
      ],
      "name": "onTokenTransfer",
      "outputs": [
        {
          "name": "",
          "type": "bool"
        }
      ],
      "payable": false,
      "stateMutability": "nonpayable",
      "type": "function"
    }
  ],
  "bytecode": "0x608060405234801561001057600080fd5b5060405160408061028483398101604052805160209091015160008054600160a060020a03938416600160a060020a0319918216179091556001805493909216921691909117905561021d806100676000396000f3006080604052600436106100565763ffffffff7c01000000000000000000000000000000000000000000000000000000006000350416636d0501f6811461005b578063a4c0ed3614610099578063fc0c546a146100eb575b600080fd5b34801561006757600080fd5b50610070610100565b6040805173ffffffffffffffffffffffffffffffffffffffff9092168252519081900360200190f35b3480156100a557600080fd5b506100d76004803573ffffffffffffffffffffffffffffffffffffffff1690602480359160443591820191013561011c565b604080519115158252519081900360200190f35b3480156100f757600080fd5b506100706101d5565b60005473ffffffffffffffffffffffffffffffffffffffff1681565b60015460008054604080517fa9059cbb00000000000000000000000000000000000000000000000000000000815273ffffffffffffffffffffffffffffffffffffffff92831660048201526024810188905290519293919091169163a9059cbb9160448082019260209290919082900301818787803b15801561019e57600080fd5b505af11580156101b2573d6000803e3d6000fd5b505050506040513d60208110156101c857600080fd5b5060019695505050505050565b60015473ffffffffffffffffffffffffffffffffffffffff16815600a165627a7a723058204dd2a2e6b41655d015847e165f98c12e7ecbddcacdf3d1b1915de76fefd7f22d0029",
  "source": "pragma solidity 0.4.24;\n\nimport \"openzeppelin-solidity/contracts/token/ERC20/ERC20Basic.sol\";\n\ncontract FeeReceiverMock {\n    address public mediator;\n    address public token;\n\n    constructor(address _mediator, address _token) public {\n        mediator = _mediator;\n        token = _token;\n    }\n\n    function onTokenTransfer(address, uint256 _value, bytes) external returns (bool) {\n        ERC20Basic(token).transfer(mediator, _value);\n        return true;\n    }\n}\n",
  "sourcePath": "/Users/max/Projects/Symblox/TokenBridge/tokenbridge/contracts/contracts/mocks/FeeReceiverMock.sol",
  "compiler": {
    "name": "solc",
    "version": "0.4.24+commit.e67f0147.Emscripten.clang"
  },
  "schemaVersion": "3.1.0",
  "updatedAt": "2020-11-26T16:22:39.667Z",
  "devdoc": {
    "methods": {}
  },
  "userdoc": {
    "methods": {}
  }
}