{
  "contractName": "ForeignMultiAMBErc20ToErc677",
  "abi": [
    {
      "constant": false,
      "inputs": [
        {
          "name": "token",
          "type": "address"
        },
        {
          "name": "_value",
          "type": "uint256"
        }
      ],
      "name": "relayTokens",
      "outputs": [],
      "payable": false,
      "stateMutability": "nonpayable",
      "type": "function"
    },
    {
      "constant": false,
      "inputs": [
        {
          "name": "_token",
          "type": "address"
        },
        {
          "name": "_maxPerTx",
          "type": "uint256"
        }
      ],
      "name": "setExecutionMaxPerTx",
      "outputs": [],
      "payable": false,
      "stateMutability": "nonpayable",
      "type": "function"
    },
    {
      "constant": true,
      "inputs": [
        {
          "name": "_token",
          "type": "address"
        }
      ],
      "name": "maxPerTx",
      "outputs": [
        {
          "name": "",
          "type": "uint256"
        }
      ],
      "payable": false,
      "stateMutability": "view",
      "type": "function"
    },
    {
      "constant": false,
      "inputs": [
        {
          "name": "_bridgeContract",
          "type": "address"
        }
      ],
      "name": "setBridgeContract",
      "outputs": [],
      "payable": false,
      "stateMutability": "nonpayable",
      "type": "function"
    },
    {
      "constant": true,
      "inputs": [
        {
          "name": "_token",
          "type": "address"
        },
        {
          "name": "_amount",
          "type": "uint256"
        }
      ],
      "name": "withinLimit",
      "outputs": [
        {
          "name": "",
          "type": "bool"
        }
      ],
      "payable": false,
      "stateMutability": "view",
      "type": "function"
    },
    {
      "constant": true,
      "inputs": [
        {
          "name": "_token",
          "type": "address"
        }
      ],
      "name": "executionMaxPerTx",
      "outputs": [
        {
          "name": "",
          "type": "uint256"
        }
      ],
      "payable": false,
      "stateMutability": "view",
      "type": "function"
    },
    {
      "constant": true,
      "inputs": [
        {
          "name": "_token",
          "type": "address"
        }
      ],
      "name": "isTokenRegistered",
      "outputs": [
        {
          "name": "",
          "type": "bool"
        }
      ],
      "payable": false,
      "stateMutability": "view",
      "type": "function"
    },
    {
      "constant": false,
      "inputs": [
        {
          "name": "_token",
          "type": "address"
        },
        {
          "name": "_dailyLimit",
          "type": "uint256"
        }
      ],
      "name": "setDailyLimit",
      "outputs": [],
      "payable": false,
      "stateMutability": "nonpayable",
      "type": "function"
    },
    {
      "constant": true,
      "inputs": [],
      "name": "isInitialized",
      "outputs": [
        {
          "name": "",
          "type": "bool"
        }
      ],
      "payable": false,
      "stateMutability": "view",
      "type": "function"
    },
    {
      "constant": true,
      "inputs": [
        {
          "name": "_token",
          "type": "address"
        },
        {
          "name": "_amount",
          "type": "uint256"
        }
      ],
      "name": "withinExecutionLimit",
      "outputs": [
        {
          "name": "",
          "type": "bool"
        }
      ],
      "payable": false,
      "stateMutability": "view",
      "type": "function"
    },
    {
      "constant": true,
      "inputs": [],
      "name": "getCurrentDay",
      "outputs": [
        {
          "name": "",
          "type": "uint256"
        }
      ],
      "payable": false,
      "stateMutability": "view",
      "type": "function"
    },
    {
      "constant": true,
      "inputs": [
        {
          "name": "_token",
          "type": "address"
        }
      ],
      "name": "executionDailyLimit",
      "outputs": [
        {
          "name": "",
          "type": "uint256"
        }
      ],
      "payable": false,
      "stateMutability": "view",
      "type": "function"
    },
    {
      "constant": true,
      "inputs": [],
      "name": "getBridgeMode",
      "outputs": [
        {
          "name": "_data",
          "type": "bytes4"
        }
      ],
      "payable": false,
      "stateMutability": "pure",
      "type": "function"
    },
    {
      "constant": true,
      "inputs": [
        {
          "name": "_messageId",
          "type": "bytes32"
        }
      ],
      "name": "messageFixed",
      "outputs": [
        {
          "name": "",
          "type": "bool"
        }
      ],
      "payable": false,
      "stateMutability": "view",
      "type": "function"
    },
    {
      "constant": false,
      "inputs": [
        {
          "name": "_token",
          "type": "address"
        },
        {
          "name": "_to",
          "type": "address"
        }
      ],
      "name": "claimTokens",
      "outputs": [],
      "payable": false,
      "stateMutability": "nonpayable",
      "type": "function"
    },
    {
      "constant": false,
      "inputs": [
        {
          "name": "_mediatorContract",
          "type": "address"
        }
      ],
      "name": "setMediatorContractOnOtherSide",
      "outputs": [],
      "payable": false,
      "stateMutability": "nonpayable",
      "type": "function"
    },
    {
      "constant": true,
      "inputs": [
        {
          "name": "_token",
          "type": "address"
        }
      ],
      "name": "maxAvailablePerTx",
      "outputs": [
        {
          "name": "",
          "type": "uint256"
        }
      ],
      "payable": false,
      "stateMutability": "view",
      "type": "function"
    },
    {
      "constant": false,
      "inputs": [
        {
          "name": "_token",
          "type": "address"
        },
        {
          "name": "_dailyLimit",
          "type": "uint256"
        }
      ],
      "name": "setExecutionDailyLimit",
      "outputs": [],
      "payable": false,
      "stateMutability": "nonpayable",
      "type": "function"
    },
    {
      "constant": true,
      "inputs": [],
      "name": "mediatorContractOnOtherSide",
      "outputs": [
        {
          "name": "",
          "type": "address"
        }
      ],
      "payable": false,
      "stateMutability": "view",
      "type": "function"
    },
    {
      "constant": true,
      "inputs": [],
      "name": "owner",
      "outputs": [
        {
          "name": "",
          "type": "address"
        }
      ],
      "payable": false,
      "stateMutability": "view",
      "type": "function"
    },
    {
      "constant": false,
      "inputs": [
        {
          "name": "_messageId",
          "type": "bytes32"
        }
      ],
      "name": "requestFailedMessageFix",
      "outputs": [],
      "payable": false,
      "stateMutability": "nonpayable",
      "type": "function"
    },
    {
      "constant": true,
      "inputs": [],
      "name": "getBridgeInterfacesVersion",
      "outputs": [
        {
          "name": "major",
          "type": "uint64"
        },
        {
          "name": "minor",
          "type": "uint64"
        },
        {
          "name": "patch",
          "type": "uint64"
        }
      ],
      "payable": false,
      "stateMutability": "pure",
      "type": "function"
    },
    {
      "constant": true,
      "inputs": [
        {
          "name": "_token",
          "type": "address"
        }
      ],
      "name": "minPerTx",
      "outputs": [
        {
          "name": "",
          "type": "uint256"
        }
      ],
      "payable": false,
      "stateMutability": "view",
      "type": "function"
    },
    {
      "constant": true,
      "inputs": [
        {
          "name": "_token",
          "type": "address"
        },
        {
          "name": "_day",
          "type": "uint256"
        }
      ],
      "name": "totalSpentPerDay",
      "outputs": [
        {
          "name": "",
          "type": "uint256"
        }
      ],
      "payable": false,
      "stateMutability": "view",
      "type": "function"
    },
    {
      "constant": false,
      "inputs": [
        {
          "name": "token",
          "type": "address"
        },
        {
          "name": "_receiver",
          "type": "address"
        },
        {
          "name": "_value",
          "type": "uint256"
        }
      ],
      "name": "relayTokens",
      "outputs": [],
      "payable": false,
      "stateMutability": "nonpayable",
      "type": "function"
    },
    {
      "constant": true,
      "inputs": [],
      "name": "requestGasLimit",
      "outputs": [
        {
          "name": "",
          "type": "uint256"
        }
      ],
      "payable": false,
      "stateMutability": "view",
      "type": "function"
    },
    {
      "constant": true,
      "inputs": [],
      "name": "bridgeContract",
      "outputs": [
        {
          "name": "",
          "type": "address"
        }
      ],
      "payable": false,
      "stateMutability": "view",
      "type": "function"
    },
    {
      "constant": false,
      "inputs": [
        {
          "name": "_token",
          "type": "address"
        },
        {
          "name": "_maxPerTx",
          "type": "uint256"
        }
      ],
      "name": "setMaxPerTx",
      "outputs": [],
      "payable": false,
      "stateMutability": "nonpayable",
      "type": "function"
    },
    {
      "constant": false,
      "inputs": [
        {
          "name": "_token",
          "type": "address"
        },
        {
          "name": "_minPerTx",
          "type": "uint256"
        }
      ],
      "name": "setMinPerTx",
      "outputs": [],
      "payable": false,
      "stateMutability": "nonpayable",
      "type": "function"
    },
    {
      "constant": true,
      "inputs": [
        {
          "name": "_token",
          "type": "address"
        },
        {
          "name": "_day",
          "type": "uint256"
        }
      ],
      "name": "totalExecutedPerDay",
      "outputs": [
        {
          "name": "",
          "type": "uint256"
        }
      ],
      "payable": false,
      "stateMutability": "view",
      "type": "function"
    },
    {
      "constant": false,
      "inputs": [
        {
          "name": "newOwner",
          "type": "address"
        }
      ],
      "name": "transferOwnership",
      "outputs": [],
      "payable": false,
      "stateMutability": "nonpayable",
      "type": "function"
    },
    {
      "constant": false,
      "inputs": [
        {
          "name": "_requestGasLimit",
          "type": "uint256"
        }
      ],
      "name": "setRequestGasLimit",
      "outputs": [],
      "payable": false,
      "stateMutability": "nonpayable",
      "type": "function"
    },
    {
      "constant": true,
      "inputs": [
        {
          "name": "_token",
          "type": "address"
        }
      ],
      "name": "dailyLimit",
      "outputs": [
        {
          "name": "",
          "type": "uint256"
        }
      ],
      "payable": false,
      "stateMutability": "view",
      "type": "function"
    },
    {
      "anonymous": false,
      "inputs": [
        {
          "indexed": true,
          "name": "messageId",
          "type": "bytes32"
        },
        {
          "indexed": false,
          "name": "token",
          "type": "address"
        },
        {
          "indexed": false,
          "name": "recipient",
          "type": "address"
        },
        {
          "indexed": false,
          "name": "value",
          "type": "uint256"
        }
      ],
      "name": "FailedMessageFixed",
      "type": "event"
    },
    {
      "anonymous": false,
      "inputs": [
        {
          "indexed": true,
          "name": "token",
          "type": "address"
        },
        {
          "indexed": true,
          "name": "recipient",
          "type": "address"
        },
        {
          "indexed": false,
          "name": "value",
          "type": "uint256"
        },
        {
          "indexed": true,
          "name": "messageId",
          "type": "bytes32"
        }
      ],
      "name": "TokensBridged",
      "type": "event"
    },
    {
      "anonymous": false,
      "inputs": [
        {
          "indexed": true,
          "name": "token",
          "type": "address"
        },
        {
          "indexed": false,
          "name": "newLimit",
          "type": "uint256"
        }
      ],
      "name": "DailyLimitChanged",
      "type": "event"
    },
    {
      "anonymous": false,
      "inputs": [
        {
          "indexed": true,
          "name": "token",
          "type": "address"
        },
        {
          "indexed": false,
          "name": "newLimit",
          "type": "uint256"
        }
      ],
      "name": "ExecutionDailyLimitChanged",
      "type": "event"
    },
    {
      "anonymous": false,
      "inputs": [
        {
          "indexed": false,
          "name": "previousOwner",
          "type": "address"
        },
        {
          "indexed": false,
          "name": "newOwner",
          "type": "address"
        }
      ],
      "name": "OwnershipTransferred",
      "type": "event"
    },
    {
      "constant": false,
      "inputs": [
        {
          "name": "_bridgeContract",
          "type": "address"
        },
        {
          "name": "_mediatorContract",
          "type": "address"
        },
        {
          "name": "_dailyLimitMaxPerTxMinPerTxArray",
          "type": "uint256[3]"
        },
        {
          "name": "_executionDailyLimitExecutionMaxPerTxArray",
          "type": "uint256[2]"
        },
        {
          "name": "_requestGasLimit",
          "type": "uint256"
        },
        {
          "name": "_owner",
          "type": "address"
        }
      ],
      "name": "initialize",
      "outputs": [
        {
          "name": "",
          "type": "bool"
        }
      ],
      "payable": false,
      "stateMutability": "nonpayable",
      "type": "function"
    },
    {
      "constant": false,
      "inputs": [
        {
          "name": "_from",
          "type": "address"
        },
        {
          "name": "_value",
          "type": "uint256"
        },
        {
          "name": "_data",
          "type": "bytes"
        }
      ],
      "name": "onTokenTransfer",
      "outputs": [
        {
          "name": "",
          "type": "bool"
        }
      ],
      "payable": false,
      "stateMutability": "nonpayable",
      "type": "function"
    },
    {
      "constant": false,
      "inputs": [
        {
          "name": "_token",
          "type": "address"
        },
        {
          "name": "_recipient",
          "type": "address"
        },
        {
          "name": "_value",
          "type": "uint256"
        }
      ],
      "name": "handleBridgedTokens",
      "outputs": [],
      "payable": false,
      "stateMutability": "nonpayable",
      "type": "function"
    },
    {
      "constant": false,
      "inputs": [
        {
          "name": "_messageId",
          "type": "bytes32"
        }
      ],
      "name": "fixFailedMessage",
      "outputs": [],
      "payable": false,
      "stateMutability": "nonpayable",
      "type": "function"
    },
    {
      "constant": false,
      "inputs": [
        {
          "name": "_token",
          "type": "address"
        },
        {
          "name": "_receiver",
          "type": "address"
        }
      ],
      "name": "fixMediatorBalance",
      "outputs": [],
      "payable": false,
      "stateMutability": "nonpayable",
      "type": "function"
    },
    {
      "constant": true,
      "inputs": [
        {
          "name": "_token",
          "type": "address"
        }
      ],
      "name": "mediatorBalance",
      "outputs": [
        {
          "name": "",
          "type": "uint256"
        }
      ],
      "payable": false,
      "stateMutability": "view",
      "type": "function"
    },
    {
      "constant": true,
      "inputs": [
        {
          "name": "_token",
          "type": "address"
        }
      ],
      "name": "tokenRegistrationMessageId",
      "outputs": [
        {
          "name": "",
          "type": "bytes32"
        }
      ],
      "payable": false,
      "stateMutability": "view",
      "type": "function"
    }
  ],
  "bytecode": "0x608060405234801561001057600080fd5b506142ac806100206000396000f3006080604052600436106101d45763ffffffff60e060020a60003504166301e4f53a81146101d957806301fcc1d3146101ff578063032f693f146102235780630950d515146102565780630b26cf661461026e578063107752381461028f578063125e4cfb146102c757806316ef1913146102f1578063194153d31461031257806326aa101f146103335780632803212f14610354578063351a826414610378578063392e53cd146103b05780633a50bc87146103c55780633e6968b6146103e957806340f8dd86146103fe578063437764df1461041f578063593399821461046657806369ffa08a1461047e5780636e5d6bea146104a55780637610722f146104c65780637837cf91146104e75780638190d9061461050b578063871c07601461052c5780638da5cb5b1461055d5780639a4a4395146105725780639cb7595a1461058a578063a4b1c243146105cb578063a4c0ed36146105ec578063ab3a25d914610655578063ad58bdd114610679578063be3b625b146106a3578063cd596583146106b8578063d0342acd146106cd578063db6fff8c146106f4578063ec47de2a14610718578063f2c54fe81461073c578063f2fde38b14610760578063f3b8379114610781578063f3f5141514610799575b600080fd5b3480156101e557600080fd5b506101fd600160a060020a03600435166024356107ba565b005b34801561020b57600080fd5b506101fd600160a060020a03600435166024356107c9565b34801561022f57600080fd5b50610244600160a060020a03600435166108e6565b60408051918252519081900360200190f35b34801561026257600080fd5b506101fd6004356109a9565b34801561027a57600080fd5b506101fd600160a060020a0360043516610d56565b34801561029b57600080fd5b506102b3600160a060020a0360043516602435610d7e565b604080519115158252519081900360200190f35b3480156102d357600080fd5b506101fd600160a060020a0360043581169060243516604435610df5565b3480156102fd57600080fd5b50610244600160a060020a0360043516610e61565b34801561031e57600080fd5b50610244600160a060020a0360043516610ee2565b34801561033f57600080fd5b506102b3600160a060020a0360043516610f75565b34801561036057600080fd5b506101fd600160a060020a0360043516602435610f88565b34801561038457600080fd5b506102b3600160a060020a0360043581169060243581169060449060a49060e4359061010435166110d7565b3480156103bc57600080fd5b506102b36112bf565b3480156103d157600080fd5b506102b3600160a060020a0360043516602435611310565b3480156103f557600080fd5b50610244611366565b34801561040a57600080fd5b50610244600160a060020a036004351661136f565b34801561042b57600080fd5b506104346113f0565b604080517bffffffffffffffffffffffffffffffffffffffffffffffffffffffff199092168252519081900360200190f35b34801561047257600080fd5b506102b3600435611414565b34801561048a57600080fd5b506101fd600160a060020a03600435811690602435166114dd565b3480156104b157600080fd5b506101fd600160a060020a036004351661158c565b3480156104d257600080fd5b50610244600160a060020a03600435166115b1565b3480156104f357600080fd5b506101fd600160a060020a036004351660243561160a565b34801561051757600080fd5b50610244600160a060020a0360043516611759565b34801561053857600080fd5b506105416117ec565b60408051600160a060020a039092168252519081900360200190f35b34801561056957600080fd5b50610541611843565b34801561057e57600080fd5b506101fd60043561189a565b34801561059657600080fd5b5061059f611bd6565b6040805167ffffffffffffffff9485168152928416602084015292168183015290519081900360600190f35b3480156105d757600080fd5b50610244600160a060020a0360043516611be1565b3480156105f857600080fd5b50604080516020600460443581810135601f81018490048402850184019095528484526102b3948235600160a060020a0316946024803595369594606494920191908190840183828082843750949750611c629650505050505050565b34801561066157600080fd5b50610244600160a060020a0360043516602435611c8c565b34801561068557600080fd5b506101fd600160a060020a0360043581169060243516604435611d6c565b3480156106af57600080fd5b50610244611d77565b3480156106c457600080fd5b50610541611dc5565b3480156106d957600080fd5b506101fd600160a060020a0360043581169060243516611e1c565b34801561070057600080fd5b506101fd600160a060020a036004351660243561216b565b34801561072457600080fd5b506101fd600160a060020a036004351660243561224c565b34801561074857600080fd5b50610244600160a060020a0360043516602435612331565b34801561076c57600080fd5b506101fd600160a060020a03600435166123cc565b34801561078d57600080fd5b506101fd6004356123f1565b3480156107a557600080fd5b50610244600160a060020a0360043516612416565b6107c5823383612497565b5050565b6107d1611843565b600160a060020a031633146107e557600080fd5b6107ee82610f75565b15156107f957600080fd5b801580610818575060008111801561081857506108158261136f565b81105b151561082357600080fd5b8060008084604051602001808060008051602061426183398151915281525060110182600160a060020a0316600160a060020a0316606060020a0281526014019150506040516020818303038152906040526040518082805190602001908083835b602083106108a45780518252601f199092019160209182019101610885565b51815160209384036101000a60001901801990921691161790526040805192909401829003909120865285019590955292909201600020939093555050505050565b600080600083604051602001808060008051602061420183398151915281525060080182600160a060020a0316600160a060020a0316606060020a0281526014019150506040516020818303038152906040526040518082805190602001908083835b602083106109685780518252601f199092019160209182019101610949565b51815160209384036101000a600019018019909216911617905260408051929094018290039091208652850195909552929092016000205495945050505050565b60006109b48261251a565b6109bd82612602565b90506109c881611759565b8214156107c557600080826040516020018080600080516020614241833981519152815250600a0182600160a060020a0316600160a060020a0316606060020a0281526014019150506040516020818303038152906040526040518082805190602001908083835b60208310610a4f5780518252601f199092019160209182019101610a30565b51815160209384036101000a60001901801990921691161790526040805192909401829003909120865285810196909652509283016000908120819055835160008051602061420183398151915281870152600160a060020a038716606060020a0260288201528451808203601c018152603c909101948590528051919586959194509092508291908401908083835b60208310610afe5780518252601f199092019160209182019101610adf565b51815160209384036101000a60001901801990921691161790526040805192909401829003909120865285810196909652509283016000908120819055835160008051602061422183398151915281870152600160a060020a038716606060020a0260288201528451808203601c018152603c909101948590528051919586959194509092508291908401908083835b60208310610bad5780518252601f199092019160209182019101610b8e565b51815160209384036101000a6000190180199092169116179052604080519290940182900390912086528581019690965250928301600090812081905583516000805160206141e183398151915281870152600160a060020a038716606060020a026033820152845180820360270181526047909101948590528051919586959194509092508291908401908083835b60208310610c5c5780518252601f199092019160209182019101610c3d565b51815160209384036101000a60001901801990921691161790526040805192909401829003909120865285810196909652509283016000908120819055835160008051602061426183398151915281870152600160a060020a038716606060020a026031820152845180820360250181526045909101948590528051919586959194509092508291908401908083835b60208310610d0b5780518252601f199092019160209182019101610cec565b51815160209384036101000a6000190180199092169116179052604080519290940182900390912086528501959095529290920160009081208190556107c5935084925090506126d1565b610d5e611843565b600160a060020a03163314610d7257600080fd5b610d7b81612759565b50565b600080610da283610d9686610d91611366565b611c8c565b9063ffffffff6127e416565b90506000610db06000612416565b118015610dc5575080610dc285612416565b10155b8015610dd95750610dd5846108e6565b8311155b8015610ded5750610de984611be1565b8310155b949350505050565b610dfd611dc5565b600160a060020a03163314610e1157600080fd5b610e196117ec565b600160a060020a0316610e2a6127f1565b600160a060020a031614610e3d57600080fd5b610e4683610f75565b1515610e5157600080fd5b610e5c838383612869565b505050565b600080600083604051602001808060008051602061426183398151915281525060110182600160a060020a0316600160a060020a0316606060020a028152601401915050604051602081830303815290604052604051808280519060200190808383602083106109685780518252601f199092019160209182019101610949565b60008060008360405160200180807f6d65646961746f7242616c616e63650000000000000000000000000000000000815250600f0182600160a060020a0316600160a060020a0316606060020a028152601401915050604051602081830303815290604052604051808280519060200190808383602083106109685780518252601f199092019160209182019101610949565b600080610f8183611be1565b1192915050565b610f90611843565b600160a060020a03163314610fa457600080fd5b610fad82610f75565b1515610fb857600080fd5b610fc1826108e6565b811180610fcc575080155b1515610fd757600080fd5b80600080846040516020018080600080516020614241833981519152815250600a0182600160a060020a0316600160a060020a0316606060020a0281526014019150506040516020818303038152906040526040518082805190602001908083835b602083106110585780518252601f199092019160209182019101611039565b51815160209384036101000a6000190180199092169116179052604080519290940182900390912086528581019690965250928301600020949094555080518481529051600160a060020a03861693507fca0b3dabefdbd8c72c0a9cf4a6e9d107da897abf036ef3f3f3b010cdd2594159929181900390910190a25050565b6040805160048152602481018252602081018051600160e060020a03167f6fde8202000000000000000000000000000000000000000000000000000000001781529151815160009330939291829190808383895b8381101561114357818101518382015260200161112b565b50505050905090810190601f1680156111705780820380516001836020036101000a031916815260200191505b509150506000604051808303816000865af19150501580611202575030600160a060020a0316636fde82026040518163ffffffff1660e060020a028152600401602060405180830381600087803b1580156111ca57600080fd5b505af11580156111de573d6000803e3d6000fd5b505050506040513d60208110156111f457600080fd5b5051600160a060020a031633145b8061120c57503330145b151561121757600080fd5b61121f6112bf565b1561122957600080fd5b61123287612759565b61123b866128a5565b61126960008660038060200260405190810160405280929190826003602002808284375061291c9350505050565b60408051808201825261129291600091908790600290839083908082843750612bbc9350505050565b61129b83612d6b565b6112a482612dcc565b6112ac612ea3565b6112b46112bf565b979650505050505050565b7f0a6f646cd611241d8073675e00d1a1ff700fbf1b53fcf473de56d1e6e4b714ba60005260046020527f078d888f9b66f3f8bfa10909e31f1e16240db73449f0500afdbbe3a70da457cc5460ff1690565b60008061132883610d9686611323611366565b612331565b90506000611336600061136f565b11801561134b5750806113488561136f565b10155b8015610ded575061135b84610e61565b909211159392505050565b62015180420490565b60008060008360405160200180806000805160206141e183398151915281525060130182600160a060020a0316600160a060020a0316606060020a028152601401915050604051602081830303815290604052604051808280519060200190808383602083106109685780518252601f199092019160209182019101610949565b7fb1516c260000000000000000000000000000000000000000000000000000000090565b6000600460008360405160200180807f6d65737361676546697865640000000000000000000000000000000000000000815250600c0182600019166000191681526020019150506040516020818303038152906040526040518082805190602001908083835b602083106114995780518252601f19909201916020918201910161147a565b51815160209384036101000a600019018019909216911617905260408051929094018290039091208652850195909552929092016000205460ff1695945050505050565b30600160a060020a0316636fde82026040518163ffffffff1660e060020a028152600401602060405180830381600087803b15801561151b57600080fd5b505af115801561152f573d6000803e3d6000fd5b505050506040513d602081101561154557600080fd5b5051600160a060020a0316331461155b57600080fd5b600160a060020a0382161580611577575061157582610f75565b155b151561158257600080fd5b6107c58282612efa565b611594611843565b600160a060020a031633146115a857600080fd5b610d7b816128a5565b60008060008060006115c2866108e6565b93506115cd86612416565b92506115db86610d91611366565b91508183116115eb5760006115ef565b8183035b90508084106115fe5780611600565b835b9695505050505050565b611612611843565b600160a060020a0316331461162657600080fd5b61162f82610f75565b151561163a57600080fd5b61164382610e61565b81118061164e575080155b151561165957600080fd5b806000808460405160200180806000805160206141e183398151915281525060130182600160a060020a0316600160a060020a0316606060020a0281526014019150506040516020818303038152906040526040518082805190602001908083835b602083106116da5780518252601f1990920191602091820191016116bb565b51815160209384036101000a6000190180199092169116179052604080519290940182900390912086528581019690965250928301600020949094555080518481529051600160a060020a03861693507f4c177b42dbe934b3abbc0208c11a42e46589983431616f1710ab19969c5ed62e929181900390910190a25050565b60008060008360405160200180807f746f6b656e526567697374726174696f6e4d6573736167654964000000000000815250601a0182600160a060020a0316600160a060020a0316606060020a028152601401915050604051602081830303815290604052604051808280519060200190808383602083106109685780518252601f199092019160209182019101610949565b7f98aa806e31e94a687a31c65769cb99670064dd7f5a87526da075c5fb4eab988060005260026020527f0c1206883be66049a02d4937078367c00b3d71dd1a9465df969363c6ddeac96d54600160a060020a031690565b7f02016836a56b71f0d02689e69e326f4f4c1b9057164ef592671cf0d37c8040c060005260026020527fb7802e97e87ef2842a6cce7da7ffaeaedaa2f61a6a7870b23d9d01fc9b73712e54600160a060020a031690565b600060606118a6611dc5565b600160a060020a031663cb08a10c846040518263ffffffff1660e060020a028152600401808260001916600019168152602001915050602060405180830381600087803b1580156118f657600080fd5b505af115801561190a573d6000803e3d6000fd5b505050506040513d602081101561192057600080fd5b50511561192c57600080fd5b30611935611dc5565b600160a060020a0316633f9a8e7e856040518263ffffffff1660e060020a028152600401808260001916600019168152602001915050602060405180830381600087803b15801561198557600080fd5b505af1158015611999573d6000803e3d6000fd5b505050506040513d60208110156119af57600080fd5b5051600160a060020a0316146119c457600080fd5b6119cc6117ec565b600160a060020a03166119dd611dc5565b600160a060020a0316634a610b04856040518263ffffffff1660e060020a028152600401808260001916600019168152602001915050602060405180830381600087803b158015611a2d57600080fd5b505af1158015611a41573d6000803e3d6000fd5b505050506040513d6020811015611a5757600080fd5b5051600160a060020a031614611a6c57600080fd5b5050604080516024808201849052825180830390910181526044909101909152602081018051600160e060020a03167f0950d5150000000000000000000000000000000000000000000000000000000090811790915290611acb611dc5565b600160a060020a031663dc8601b3611ae16117ec565b83611aea611d77565b6040518463ffffffff1660e060020a0281526004018084600160a060020a0316600160a060020a0316815260200180602001838152602001828103825284818151815260200191508051906020019080838360005b83811015611b57578181015183820152602001611b3f565b50505050905090810190601f168015611b845780820380516001836020036101000a031916815260200191505b50945050505050602060405180830381600087803b158015611ba557600080fd5b505af1158015611bb9573d6000803e3d6000fd5b505050506040513d6020811015611bcf57600080fd5b5050505050565b600160026000909192565b600080600083604051602001808060008051602061422183398151915281525060080182600160a060020a0316600160a060020a0316606060020a028152601401915050604051602081830303815290604052604051808280519060200190808383602083106109685780518252601f199092019160209182019101610949565b600080611c6d612f33565b1515611c81575033611c8181868686612f84565b506001949350505050565b6000806000848460405160200180807f746f74616c5370656e745065724461790000000000000000000000000000000081525060100183600160a060020a0316600160a060020a0316606060020a028152601401828152602001925050506040516020818303038152906040526040518082805190602001908083835b60208310611d285780518252601f199092019160209182019101611d09565b51815160209384036101000a600019018019909216911617905260408051929094018290039091208652850195909552929092016000205493505050505b92915050565b610e5c838383612497565b7f2dfd6c9f781bb6bbb5369c114e949b69ebb440ef3d4dd6b2836225eb1dc3a2be60009081526020527f2de0d2cdc19d356cb53b5984f91bfd3b31fe0c678a0d190a6db39274bb34753f5490565b7f811bbb11e8899da471f0e69a3ed55090fc90215227fc5fb1cb0d6e962ea7b74f60005260026020527fb4ed64697d3ef8518241966f7c6f28b0d72f20f51198717d198d2d55076c593d54600160a060020a031690565b6000806000806060600030600160a060020a0316636fde82026040518163ffffffff1660e060020a028152600401602060405180830381600087803b158015611e6457600080fd5b505af1158015611e78573d6000803e3d6000fd5b505050506040513d6020811015611e8e57600080fd5b5051600160a060020a03163314611ea457600080fd5b86600160a060020a0381161515611eba57600080fd5b611ec389610f75565b1515611ece57600080fd5b604080517f70a082310000000000000000000000000000000000000000000000000000000081523060048201529051600160a060020a038b16916370a082319160248083019260209291908290030181600087803b158015611f2f57600080fd5b505af1158015611f43573d6000803e3d6000fd5b505050506040513d6020811015611f5957600080fd5b50519650611f6689610ee2565b9550858711611f7457600080fd5b8587039450611f82896115b1565b935060008411611f9157600080fd5b83851115611f9d578394505b611faf89611fa9611366565b87613388565b611fc889611fc3888863ffffffff6127e416565b613473565b60408051600160a060020a03808c1660248301528a1660448201526064808201889052825180830390910181526084909101909152602081018051600160e060020a03167f125e4cfb00000000000000000000000000000000000000000000000000000000179052925061203a611dc5565b600160a060020a031663dc8601b36120506117ec565b85612059611d77565b6040518463ffffffff1660e060020a0281526004018084600160a060020a0316600160a060020a0316815260200180602001838152602001828103825284818151815260200191508051906020019080838360005b838110156120c65781810151838201526020016120ae565b50505050905090810190601f1680156120f35780820380516001836020036101000a031916815260200191505b50945050505050602060405180830381600087803b15801561211457600080fd5b505af1158015612128573d6000803e3d6000fd5b505050506040513d602081101561213e57600080fd5b5051915061214c828a613505565b61215682866135f3565b6121608289613675565b505050505050505050565b612173611843565b600160a060020a0316331461218757600080fd5b61219082610f75565b151561219b57600080fd5b8015806121c157506121ac82611be1565b811180156121c157506121be82612416565b81105b15156121cc57600080fd5b8060008084604051602001808060008051602061420183398151915281525060080182600160a060020a0316600160a060020a0316606060020a028152601401915050604051602081830303815290604052604051808280519060200190808383602083106108a45780518252601f199092019160209182019101610885565b612254611843565b600160a060020a0316331461226857600080fd5b61227182610f75565b151561227c57600080fd5b600081118015612293575061229082612416565b81105b80156122a657506122a3826108e6565b81105b15156122b157600080fd5b8060008084604051602001808060008051602061422183398151915281525060080182600160a060020a0316600160a060020a0316606060020a028152601401915050604051602081830303815290604052604051808280519060200190808383602083106108a45780518252601f199092019160209182019101610885565b6000806000848460405160200180807f746f74616c45786563757465645065724461790000000000000000000000000081525060130183600160a060020a0316600160a060020a0316606060020a0281526014018281526020019250505060405160208183030381529060405260405180828051906020019080838360208310611d285780518252601f199092019160209182019101611d09565b6123d4611843565b600160a060020a031633146123e857600080fd5b610d7b81612dcc565b6123f9611843565b600160a060020a0316331461240d57600080fd5b610d7b81612d6b565b6000806000836040516020018080600080516020614241833981519152815250600a0182600160a060020a0316600160a060020a0316606060020a028152601401915050604051602081830303815290604052604051808280519060200190808383602083106109685780518252601f199092019160209182019101610949565b61249f612f33565b156124a957600080fd5b6124b360016136f8565b6124cd600160a060020a038416338363ffffffff61375316565b6124d760006136f8565b610e5c833383856040516020018082600160a060020a0316600160a060020a0316606060020a028152601401915050604051602081830303815290604052612f84565b6000806000612527611dc5565b600160a060020a0316331461253b57600080fd5b6125436117ec565b600160a060020a03166125546127f1565b600160a060020a03161461256757600080fd5b61257084611414565b1561257a57600080fd5b61258384612602565b925061258e846137f6565b91506125998461387a565b90506125a4846138fd565b6125af8383836139cf565b60408051600160a060020a03808616825284166020820152808201839052905185917f07b5483b8e4bd8ea240a474d5117738350e7d431e3668c48a97910b0b397796a919081900360600190a250505050565b6000600260008360405160200180807f6d657373616765546f6b656e0000000000000000000000000000000000000000815250600c0182600019166000191681526020019150506040516020818303038152906040526040518082805190602001908083835b602083106126875780518252601f199092019160209182019101612668565b51815160209384036101000a6000190180199092169116179052604080519290940182900390912086528501959095529290920160002054600160a060020a031695945050505050565b604080517f746f6b656e526567697374726174696f6e4d6573736167654964000000000000602080830191909152606060020a600160a060020a03861602603a8301528251602e818403018152604e9092019283905281518493600093849390928291840190808383602083106108a45780518252601f199092019160209182019101610885565b61276281613a06565b151561276d57600080fd5b7f811bbb11e8899da471f0e69a3ed55090fc90215227fc5fb1cb0d6e962ea7b74f60005260026020527fb4ed64697d3ef8518241966f7c6f28b0d72f20f51198717d198d2d55076c593d805473ffffffffffffffffffffffffffffffffffffffff1916600160a060020a0392909216919091179055565b81810182811015611d6657fe5b60006127fb611dc5565b600160a060020a031663d67bdd256040518163ffffffff1660e060020a028152600401602060405180830381600087803b15801561283857600080fd5b505af115801561284c573d6000803e3d6000fd5b505050506040513d602081101561286257600080fd5b5051905090565b6128738382611310565b1561289a5761288a83612884611366565b83613a0e565b612895838383613ab5565b610e5c565b610e5c8383836101d4565b7f98aa806e31e94a687a31c65769cb99670064dd7f5a87526da075c5fb4eab988060005260026020527f0c1206883be66049a02d4937078367c00b3d71dd1a9465df969363c6ddeac96d805473ffffffffffffffffffffffffffffffffffffffff1916600160a060020a0392909216919091179055565b60408101516000108015612937575060408101516020820151115b8015612947575060208101518151115b151561295257600080fd5b805160408051600080516020614241833981519152602082810191909152606060020a600160a060020a03871602602a8301528251601e818403018152603e909201928390528151600093849392909182918401908083835b602083106129ca5780518252601f1990920191602091820191016129ab565b51815160209384036101000a6000190180199092169116179052604080519290940182900390912086528581019690965250928301600090812095909555505083820151815160008051602061420183398151915281850152600160a060020a038716606060020a0260288201528251808203601c018152603c9091019283905280519194938493919282918401908083835b60208310612a7c5780518252601f199092019160209182019101612a5d565b51815160209384036101000a6000190180199092169116179052604080519290940182900390912086528581019690965250928301600090812095909555505083810151815160008051602061422183398151915281850152600160a060020a038716606060020a0260288201528251808203601c018152603c9091019283905280519194938493919282918401908083835b60208310612b2e5780518252601f199092019160209182019101612b0f565b51815160209384036101000a60001901801990921691161790526040805192909401829003909120865285019590955292909201600090812094909455505050600160a060020a038316907fca0b3dabefdbd8c72c0a9cf4a6e9d107da897abf036ef3f3f3b010cdd25941599083905b60200201516040518082815260200191505060405180910390a25050565b8051602082015110612bcd57600080fd5b8051604080516000805160206141e1833981519152602082810191909152606060020a600160a060020a038716026033830152825160278184030181526047909201928390528151600093849392909182918401908083835b60208310612c455780518252601f199092019160209182019101612c26565b51815160209384036101000a6000190180199092169116179052604080519290940182900390912086528581019690965250928301600090812095909555505083820151815160008051602061426183398151915281850152600160a060020a038716606060020a0260318201528251808203602501815260459091019283905280519194938493919282918401908083835b60208310612cf75780518252601f199092019160209182019101612cd8565b51815160209384036101000a60001901801990921691161790526040805192909401829003909120865285019590955292909201600090812094909455505050600160a060020a038316907f4c177b42dbe934b3abbc0208c11a42e46589983431616f1710ab19969c5ed62e908390612b9e565b612d73613b38565b811115612d7f57600080fd5b7f2dfd6c9f781bb6bbb5369c114e949b69ebb440ef3d4dd6b2836225eb1dc3a2be60009081526020527f2de0d2cdc19d356cb53b5984f91bfd3b31fe0c678a0d190a6db39274bb34753f55565b600160a060020a0381161515612de157600080fd5b7f8be0079c531659141344cd1fd0a4f28419497f9722a3daafe3b4186f6b6457e0612e0a611843565b60408051600160a060020a03928316815291841660208301528051918290030190a17f02016836a56b71f0d02689e69e326f4f4c1b9057164ef592671cf0d37c8040c060005260026020527fb7802e97e87ef2842a6cce7da7ffaeaedaa2f61a6a7870b23d9d01fc9b73712e805473ffffffffffffffffffffffffffffffffffffffff1916600160a060020a0392909216919091179055565b7f0a6f646cd611241d8073675e00d1a1ff700fbf1b53fcf473de56d1e6e4b714ba60005260046020527f078d888f9b66f3f8bfa10909e31f1e16240db73449f0500afdbbe3a70da457cc805460ff19166001179055565b80600160a060020a0381161515612f1057600080fd5b600160a060020a0383161515612f295761289582613b7f565b610e5c8383613b8b565b7f6168652c307c1e813ca11cfb3a601f1cf3b22452021a5052d8b05f1f1f8a3e9260005260046020527fcb8d022f2163402334a4962e3279c5def3417d3d8dab9e27ba26e81e3f8337845460ff1690565b600060608060006060600080612f98612f33565b15612fa25761337b565b612fab8b610f75565b9650861515612ffe57612fbd8b613c3e565b9550612fc88b613d4f565b9450612fd38b613dd1565b9350600086511180612fe6575060008551115b1515612ff157600080fd5b612ffe8b8560ff16613e4f565b6130088b8a610d7e565b151561301357600080fd5b6130258b61301f611366565b8b613388565b61302f8a89613fe5565b915086156130a65760408051600160a060020a03808e1660248301528416604482015260648082018c9052825180830390910181526084909101909152602081018051600160e060020a03167f125e4cfb00000000000000000000000000000000000000000000000000000000179052925061322b565b30600160a060020a0316632ae87cdd905060e060020a028b878787868e6040516024018087600160a060020a0316600160a060020a0316815260200180602001806020018660ff1660ff16815260200185600160a060020a0316600160a060020a03168152602001848152602001838103835288818151815260200191508051906020019080838360005b83811015613149578181015183820152602001613131565b50505050905090810190601f1680156131765780820380516001836020036101000a031916815260200191505b50838103825287518152875160209182019189019080838360005b838110156131a9578181015183820152602001613191565b50505050905090810190601f1680156131d65780820380516001836020036101000a031916815260200191505b5060408051601f19818403018152919052602081018051600160e060020a03167bffffffffffffffffffffffffffffffffffffffffffffffffffffffff19909c169b909b17909a5250979a5050505050505050505b61323c8b611fc38b610d968f610ee2565b613244611dc5565b600160a060020a031663dc8601b361325a6117ec565b85613263611d77565b6040518463ffffffff1660e060020a0281526004018084600160a060020a0316600160a060020a0316815260200180602001838152602001828103825284818151815260200191508051906020019080838360005b838110156132d05781810151838201526020016132b8565b50505050905090810190601f1680156132fd5780820380516001836020036101000a031916815260200191505b50945050505050602060405180830381600087803b15801561331e57600080fd5b505af1158015613332573d6000803e3d6000fd5b505050506040513d602081101561334857600080fd5b50519050613356818c613505565b613360818a6135f3565b61336a818b613675565b86151561337b5761337b8b826126d1565b5050505050505050505050565b61339681610d968585611c8c565b600080858560405160200180807f746f74616c5370656e745065724461790000000000000000000000000000000081525060100183600160a060020a0316600160a060020a0316606060020a028152601401828152602001925050506040516020818303038152906040526040518082805190602001908083835b602083106134305780518252601f199092019160209182019101613411565b51815160209384036101000a6000190180199092169116179052604080519290940182900390912086528501959095529290920160002093909355505050505050565b806000808460405160200180807f6d65646961746f7242616c616e63650000000000000000000000000000000000815250600f0182600160a060020a0316600160a060020a0316606060020a028152601401915050604051602081830303815290604052604051808280519060200190808383602083106108a45780518252601f199092019160209182019101610885565b80600260008460405160200180807f6d657373616765546f6b656e0000000000000000000000000000000000000000815250600c0182600019166000191681526020019150506040516020818303038152906040526040518082805190602001908083835b602083106135895780518252601f19909201916020918201910161356a565b51815160209384036101000a60001901801990921691161790526040805192909401829003909120865285019590955292909201600020805473ffffffffffffffffffffffffffffffffffffffff1916600160a060020a0395909516949094179093555050505050565b806000808460405160200180807f6d65737361676556616c75650000000000000000000000000000000000000000815250600c018260001916600019168152602001915050604051602081830303815290604052604051808280519060200190808383602083106108a45780518252601f199092019160209182019101610885565b80600260008460405160200180807f6d657373616765526563697069656e74000000000000000000000000000000008152506010018260001916600019168152602001915050604051602081830303815290604052604051808280519060200190808383602083106135895780518252601f19909201916020918201910161356a565b7f6168652c307c1e813ca11cfb3a601f1cf3b22452021a5052d8b05f1f1f8a3e9260005260046020527fcb8d022f2163402334a4962e3279c5def3417d3d8dab9e27ba26e81e3f833784805460ff1916911515919091179055565b604080517f23b872dd000000000000000000000000000000000000000000000000000000008152600160a060020a038481166004830152306024830152604482018490529151918516916323b872dd9160648082019260009290919082900301818387803b1580156137c457600080fd5b505af11580156137d8573d6000803e3d6000fd5b505050503d15610e5c5760206000803e6000511515610e5c57600080fd5b6000600260008360405160200180807f6d657373616765526563697069656e74000000000000000000000000000000008152506010018260001916600019168152602001915050604051602081830303815290604052604051808280519060200190808383602083106126875780518252601f199092019160209182019101612668565b60008060008360405160200180807f6d65737361676556616c75650000000000000000000000000000000000000000815250600c018260001916600019168152602001915050604051602081830303815290604052604051808280519060200190808383602083106109685780518252601f199092019160209182019101610949565b6001600460008360405160200180807f6d65737361676546697865640000000000000000000000000000000000000000815250600c0182600019166000191681526020019150506040516020818303038152906040526040518082805190602001908083835b602083106139825780518252601f199092019160209182019101613963565b51815160209384036101000a60001901801990921691161790526040805192909401829003909120865285019590955292909201600020805460ff19169415159490941790935550505050565b6139ec83611fc3836139e087610ee2565b9063ffffffff61403f16565b610e5c600160a060020a038416838363ffffffff61405116565b6000903b1190565b613a1c81610d968585612331565b600080858560405160200180807f746f74616c45786563757465645065724461790000000000000000000000000081525060130183600160a060020a0316600160a060020a0316606060020a02815260140182815260200192505050604051602081830303815290604052604051808280519060200190808383602083106134305780518252601f199092019160209182019101613411565b6000613abf6140b4565b9050613adb600160a060020a038516848463ffffffff61405116565b613aec84611fc3846139e088610ee2565b6040805183815290518291600160a060020a0380871692908816917f9afd47907e25028cdaca89d193518c302bbb128617d5a992c5abd45815526593919081900360200190a450505050565b6000613b42611dc5565b600160a060020a031663e5789d036040518163ffffffff1660e060020a028152600401602060405180830381600087803b15801561283857600080fd5b30316107c582826140fb565b604080517f70a0823100000000000000000000000000000000000000000000000000000000815230600482015290518391600091600160a060020a038416916370a0823191602480830192602092919082900301818787803b158015613bf057600080fd5b505af1158015613c04573d6000803e3d6000fd5b505050506040513d6020811015613c1a57600080fd5b50519050613c38600160a060020a038516848363ffffffff61405116565b50505050565b6040517f06fdde03000000000000000000000000000000000000000000000000000000008152606090600082602083600481885afa1515613ca7577fa3f4df7e000000000000000000000000000000000000000000000000000000008352602083600485885afa505b3d830160405260203d1160018114613cc1573d9250613ccf565b6020806040513e6040515192505b50816040519080825280601f01601f191660200182016040528015613cfe578160200160208202803883390190505b50905060203d1115613d1757816040602083013e610ded565b60003d1115610ded576000835193508360208301525b6000841115613d455760089390931b92600101613d2d565b8152949350505050565b6040517f95d89b41000000000000000000000000000000000000000000000000000000008152606090600082602083600481885afa1515613ca7577ff76f8d78000000000000000000000000000000000000000000000000000000008352602083600485885afa503d830160405260203d1160018114613cc1573d9250613ccf565b600080604051602081016040527f313ce567000000000000000000000000000000000000000000000000000000008152602081600483875afa1515613e47577f2e0f2625000000000000000000000000000000000000000000000000000000008152602081600483875afa1515613e4757600081525b519392505050565b6000806000806000806012871015613f445786601203600a0a9550613e8486613e786000611be1565b9063ffffffff61415c16565b9450613e9486613e7860006108e6565b9350613ea486613e786000612416565b9250613eb486613e786000610e61565b9150613ec486613e78600061136f565b9050841515613efc5760019450848411613efc5760649350606491508383111580613eef5750818111155b15613efc57506127109150815b613f21886060604051908101604052808681526020018781526020018881525061291c565b613f3f88604080519081016040528084815260200185815250612bbc565b613fdb565b60128703600a0a9550613fa488606060405190810160405280613f778a613f6b6000612416565b9063ffffffff61417116565b8152602001613f8a8a613f6b60006108e6565b8152602001613f9d8a613f6b6000611be1565b905261291c565b613fdb886040805190810160405280613fc18a613f6b600061136f565b8152602001613fd48a613f6b6000610e61565b9052612bbc565b5050505050505050565b8051829060001015611d66578151601414613fff57600080fd5b6140088261419a565b9050600160a060020a038116151561401f57600080fd5b6140276141a1565b600160a060020a0382811691161415611d6657600080fd5b60008282111561404b57fe5b50900390565b82600160a060020a031663a9059cbb83836040518363ffffffff1660e060020a0281526004018083600160a060020a0316600160a060020a0316815260200182815260200192505050600060405180830381600087803b1580156137c457600080fd5b60006140be611dc5565b600160a060020a031663669f618b6040518163ffffffff1660e060020a028152600401602060405180830381600087803b15801561283857600080fd5b604051600160a060020a0383169082156108fc029083906000818181858888f1935050505015156107c55780826141306141b0565b600160a060020a039091168152604051908190036020019082f080158015611bcf573d6000803e3d6000fd5b6000818381151561416957fe5b049392505050565b600082151561418257506000611d66565b5081810281838281151561419257fe5b0414611d6657fe5b6014015190565b60006141ab6117ec565b905090565b6040516021806141c0833901905600608060405260405160208060218339810160405251600160a060020a038116ff00657865637574696f6e4461696c794c696d6974000000000000000000000000006d617850657254780000000000000000000000000000000000000000000000006d696e50657254780000000000000000000000000000000000000000000000006461696c794c696d697400000000000000000000000000000000000000000000657865637574696f6e4d61785065725478000000000000000000000000000000a165627a7a723058202b602b8d9a790dfbd23cd7bef6e3c8a97eb9d65f0ab9bc1b5d322f363cb829b20029",
  "source": "pragma solidity 0.4.24;\n\nimport \"openzeppelin-solidity/contracts/token/ERC20/DetailedERC20.sol\";\nimport \"./BasicMultiAMBErc20ToErc677.sol\";\nimport \"./HomeMultiAMBErc20ToErc677.sol\";\nimport \"../../libraries/TokenReader.sol\";\nimport \"../../libraries/SafeERC20.sol\";\n\n/**\n * @title ForeignMultiAMBErc20ToErc677\n * @dev Foreign side implementation for multi-erc20-to-erc677 mediator intended to work on top of AMB bridge.\n * It is designed to be used as an implementation contract of EternalStorageProxy contract.\n */\ncontract ForeignMultiAMBErc20ToErc677 is BasicMultiAMBErc20ToErc677 {\n    using SafeERC20 for address;\n    using SafeERC20 for ERC677;\n\n    /**\n    * @dev Stores the initial parameters of the mediator.\n    * @param _bridgeContract the address of the AMB bridge contract.\n    * @param _mediatorContract the address of the mediator contract on the other network.\n    * @param _dailyLimitMaxPerTxMinPerTxArray array with limit values for the assets to be bridged to the other network.\n    *   [ 0 = dailyLimit, 1 = maxPerTx, 2 = minPerTx ]\n    * @param _executionDailyLimitExecutionMaxPerTxArray array with limit values for the assets bridged from the other network.\n    *   [ 0 = executionDailyLimit, 1 = executionMaxPerTx ]\n    * @param _requestGasLimit the gas limit for the message execution.\n    * @param _owner address of the owner of the mediator contract.\n    */\n    function initialize(\n        address _bridgeContract,\n        address _mediatorContract,\n        uint256[3] _dailyLimitMaxPerTxMinPerTxArray, // [ 0 = _dailyLimit, 1 = _maxPerTx, 2 = _minPerTx ]\n        uint256[2] _executionDailyLimitExecutionMaxPerTxArray, // [ 0 = _executionDailyLimit, 1 = _executionMaxPerTx ]\n        uint256 _requestGasLimit,\n        address _owner\n    ) external onlyRelevantSender returns (bool) {\n        require(!isInitialized());\n\n        _setBridgeContract(_bridgeContract);\n        _setMediatorContractOnOtherSide(_mediatorContract);\n        _setLimits(address(0), _dailyLimitMaxPerTxMinPerTxArray);\n        _setExecutionLimits(address(0), _executionDailyLimitExecutionMaxPerTxArray);\n        _setRequestGasLimit(_requestGasLimit);\n        _setOwner(_owner);\n\n        setInitialize();\n\n        return isInitialized();\n    }\n\n    /**\n     * @dev Executes action on the request to withdraw tokens relayed from the other network\n     * @param _token address of the token contract\n     * @param _recipient address of tokens receiver\n     * @param _value amount of bridged tokens\n     */\n    function executeActionOnBridgedTokens(address _token, address _recipient, uint256 _value) internal {\n        bytes32 _messageId = messageId();\n        _token.safeTransfer(_recipient, _value);\n        _setMediatorBalance(_token, mediatorBalance(_token).sub(_value));\n        emit TokensBridged(_token, _recipient, _value, _messageId);\n    }\n\n    /**\n    * @dev ERC677 transfer callback function.\n    * @param _from address of tokens sender.\n    * @param _value amount of transferred tokens.\n    * @param _data additional transfer data, can be used for passing alternative receiver address.\n    */\n    function onTokenTransfer(address _from, uint256 _value, bytes _data) public returns (bool) {\n        if (!lock()) {\n            ERC677 token = ERC677(msg.sender);\n            bridgeSpecificActionsOnTokenTransfer(token, _from, _value, _data);\n        }\n        return true;\n    }\n\n    /**\n    * @dev Handles the bridged tokens. Checks that the value is inside the execution limits and invokes the method\n    * to execute the Mint or Unlock accordingly.\n    * @param _token bridged ERC20 token.\n    * @param _recipient address that will receive the tokens.\n    * @param _value amount of tokens to be received.\n    */\n    function handleBridgedTokens(ERC677 _token, address _recipient, uint256 _value) external onlyMediator {\n        require(isTokenRegistered(_token));\n        _handleBridgedTokens(_token, _recipient, _value);\n    }\n\n    /**\n    * @dev Validates that the token amount is inside the limits, calls transferFrom to transfer the tokens to the contract\n    * and invokes the method to burn/lock the tokens and unlock/mint the tokens on the other network.\n    * The user should first call Approve method of the ERC677 token.\n    * @param token bridge token contract address.\n    * @param _receiver address that will receive the native tokens on the other network.\n    * @param _value amount of tokens to be transferred to the other network.\n    */\n    function _relayTokens(ERC677 token, address _receiver, uint256 _value) internal {\n        // This lock is to prevent calling passMessage twice if a ERC677 token is used.\n        // When transferFrom is called, after the transfer, the ERC677 token will call onTokenTransfer from this contract\n        // which will call passMessage.\n        require(!lock());\n\n        setLock(true);\n        token.safeTransferFrom(msg.sender, _value);\n        setLock(false);\n        bridgeSpecificActionsOnTokenTransfer(token, msg.sender, _value, abi.encodePacked(_receiver));\n    }\n\n    /**\n     * @dev Executes action on deposit of bridged tokens\n     * @param _token address of the token contract\n     * @param _from address of tokens sender\n     * @param _value requsted amount of bridged tokens\n     * @param _data alternative receiver, if specified\n     */\n    function bridgeSpecificActionsOnTokenTransfer(ERC677 _token, address _from, uint256 _value, bytes _data) internal {\n        if (lock()) return;\n\n        bool isKnownToken = isTokenRegistered(_token);\n        if (!isKnownToken) {\n            string memory name = TokenReader.readName(_token);\n            string memory symbol = TokenReader.readSymbol(_token);\n            uint8 decimals = uint8(TokenReader.readDecimals(_token));\n\n            require(bytes(name).length > 0 || bytes(symbol).length > 0);\n\n            _initializeTokenBridgeLimits(_token, decimals);\n        }\n\n        require(withinLimit(_token, _value));\n        addTotalSpentPerDay(_token, getCurrentDay(), _value);\n\n        bytes memory data;\n        address receiver = chooseReceiver(_from, _data);\n\n        if (isKnownToken) {\n            data = abi.encodeWithSelector(this.handleBridgedTokens.selector, _token, receiver, _value);\n        } else {\n            data = abi.encodeWithSelector(\n                HomeMultiAMBErc20ToErc677(this).deployAndHandleBridgedTokens.selector,\n                _token,\n                name,\n                symbol,\n                decimals,\n                receiver,\n                _value\n            );\n        }\n\n        _setMediatorBalance(_token, mediatorBalance(_token).add(_value));\n\n        bytes32 _messageId = bridgeContract().requireToPassMessage(\n            mediatorContractOnOtherSide(),\n            data,\n            requestGasLimit()\n        );\n\n        setMessageToken(_messageId, _token);\n        setMessageValue(_messageId, _value);\n        setMessageRecipient(_messageId, _from);\n\n        if (!isKnownToken) {\n            _setTokenRegistrationMessageId(_token, _messageId);\n        }\n    }\n\n    /**\n    * @dev Handles the request to fix transferred assets which bridged message execution failed on the other network.\n    * It uses the information stored by passMessage method when the assets were initially transferred\n    * @param _messageId id of the message which execution failed on the other network.\n    */\n    function fixFailedMessage(bytes32 _messageId) public {\n        super.fixFailedMessage(_messageId);\n        address token = messageToken(_messageId);\n        if (_messageId == tokenRegistrationMessageId(token)) {\n            delete uintStorage[keccak256(abi.encodePacked(\"dailyLimit\", token))];\n            delete uintStorage[keccak256(abi.encodePacked(\"maxPerTx\", token))];\n            delete uintStorage[keccak256(abi.encodePacked(\"minPerTx\", token))];\n            delete uintStorage[keccak256(abi.encodePacked(\"executionDailyLimit\", token))];\n            delete uintStorage[keccak256(abi.encodePacked(\"executionMaxPerTx\", token))];\n            _setTokenRegistrationMessageId(token, bytes32(0));\n        }\n    }\n\n    /**\n    * @dev Unlock back the amount of tokens that were bridged to the other network but failed.\n    * @param _token address that bridged token contract.\n    * @param _recipient address that will receive the tokens.\n    * @param _value amount of tokens to be received.\n    */\n    function executeActionOnFixedTokens(address _token, address _recipient, uint256 _value) internal {\n        _setMediatorBalance(_token, mediatorBalance(_token).sub(_value));\n        _token.safeTransfer(_recipient, _value);\n    }\n\n    /**\n    * @dev Allows to send to the other network the amount of locked tokens that can be forced into the contract\n    * without the invocation of the required methods. (e. g. regular transfer without a call to onTokenTransfer)\n    * @param _token address of the token contract.\n    * @param _receiver the address that will receive the tokens on the other network.\n    */\n    function fixMediatorBalance(address _token, address _receiver)\n        external\n        onlyIfUpgradeabilityOwner\n        validAddress(_receiver)\n    {\n        require(isTokenRegistered(_token));\n        uint256 balance = ERC677(_token).balanceOf(address(this));\n        uint256 expectedBalance = mediatorBalance(_token);\n        require(balance > expectedBalance);\n        uint256 diff = balance - expectedBalance;\n        uint256 available = maxAvailablePerTx(_token);\n        require(available > 0);\n        if (diff > available) {\n            diff = available;\n        }\n        addTotalSpentPerDay(_token, getCurrentDay(), diff);\n        _setMediatorBalance(_token, expectedBalance.add(diff));\n\n        bytes memory data = abi.encodeWithSelector(this.handleBridgedTokens.selector, _token, _receiver, diff);\n\n        bytes32 _messageId = bridgeContract().requireToPassMessage(\n            mediatorContractOnOtherSide(),\n            data,\n            requestGasLimit()\n        );\n\n        setMessageToken(_messageId, _token);\n        setMessageValue(_messageId, diff);\n        setMessageRecipient(_messageId, _receiver);\n    }\n\n    /**\n    * @dev Tells the expected token balance of the contract.\n    * @param _token address of token contract.\n    * @return the current tracked token balance of the contract.\n    */\n    function mediatorBalance(address _token) public view returns (uint256) {\n        return uintStorage[keccak256(abi.encodePacked(\"mediatorBalance\", _token))];\n    }\n\n    /**\n    * @dev Returns message id where specified token was first seen and deploy on the other side was requested.\n    * @param _token address of token contract.\n    * @return message id of the send message.\n    */\n    function tokenRegistrationMessageId(address _token) public view returns (bytes32) {\n        return bytes32(uintStorage[keccak256(abi.encodePacked(\"tokenRegistrationMessageId\", _token))]);\n    }\n\n    /**\n    * @dev Updates expected token balance of the contract.\n    * @param _token address of token contract.\n    * @param _balance the new token balance of the contract.\n    */\n    function _setMediatorBalance(address _token, uint256 _balance) internal {\n        uintStorage[keccak256(abi.encodePacked(\"mediatorBalance\", _token))] = _balance;\n    }\n\n    /**\n    * @dev Updates message id where specified token was first seen and deploy on the other side was requested.\n    * @param _token address of token contract.\n    * @param _messageId message id of the send message.\n    */\n    function _setTokenRegistrationMessageId(address _token, bytes32 _messageId) internal {\n        uintStorage[keccak256(abi.encodePacked(\"tokenRegistrationMessageId\", _token))] = uint256(_messageId);\n    }\n}\n",
  "sourcePath": "/Users/max/Projects/Symblox/TokenBridge/tokenbridge/contracts/contracts/upgradeable_contracts/multi_amb_erc20_to_erc677/ForeignMultiAMBErc20ToErc677.sol",
  "compiler": {
    "name": "solc",
    "version": "0.4.24+commit.e67f0147.Emscripten.clang"
  },
  "schemaVersion": "3.1.0",
  "updatedAt": "2020-11-26T16:22:39.988Z",
  "devdoc": {
    "methods": {
      "bridgeContract()": {
        "details": "Get the AMB interface for the bridge contract address",
        "return": "AMB interface for the bridge contract address"
      },
      "claimTokens(address,address)": {
        "details": "Claims stucked tokens. Only unsupported tokens can be claimed. When dealing with already supported tokens, fixMediatorBalance can be used instead.",
        "params": {
          "_to": "address of tokens receiver",
          "_token": "address of claimed token, address(0) for native"
        }
      },
      "dailyLimit(address)": {
        "details": "Retrieves current daily limit for a particular token contract.",
        "params": {
          "_token": "address of the token contract."
        },
        "return": "daily limit on tokens that can be sent through the bridge per day."
      },
      "executionDailyLimit(address)": {
        "details": "Retrieves current execution daily limit for a particular token contract.",
        "params": {
          "_token": "address of the token contract."
        },
        "return": "daily limit on tokens that can be received from the bridge on the other side per day."
      },
      "executionMaxPerTx(address)": {
        "details": "Retrieves current maximum execution amount of tokens per one transfer for a particular token contract.",
        "params": {
          "_token": "address of the token contract."
        },
        "return": "maximum amount on tokens that can received from the bridge on the other side in one transaction."
      },
      "fixFailedMessage(bytes32)": {
        "details": "Handles the request to fix transferred assets which bridged message execution failed on the other network. It uses the information stored by passMessage method when the assets were initially transferred",
        "params": {
          "_messageId": "id of the message which execution failed on the other network."
        }
      },
      "fixMediatorBalance(address,address)": {
        "details": "Allows to send to the other network the amount of locked tokens that can be forced into the contract without the invocation of the required methods. (e. g. regular transfer without a call to onTokenTransfer)",
        "params": {
          "_receiver": "the address that will receive the tokens on the other network.",
          "_token": "address of the token contract."
        }
      },
      "getBridgeInterfacesVersion()": {
        "details": "Tells the bridge interface version that this contract supports.",
        "return": "major value of the versionminor value of the versionpatch value of the version"
      },
      "getBridgeMode()": {
        "details": "Tells the bridge mode that this contract supports.",
        "return": "_data 4 bytes representing the bridge mode"
      },
      "getCurrentDay()": {
        "details": "Returns current day number.",
        "return": "day number."
      },
      "handleBridgedTokens(address,address,uint256)": {
        "details": "Handles the bridged tokens. Checks that the value is inside the execution limits and invokes the method to execute the Mint or Unlock accordingly.",
        "params": {
          "_recipient": "address that will receive the tokens.",
          "_token": "bridged ERC20 token.",
          "_value": "amount of tokens to be received."
        }
      },
      "initialize(address,address,uint256[3],uint256[2],uint256,address)": {
        "details": "Stores the initial parameters of the mediator.",
        "params": {
          "_bridgeContract": "the address of the AMB bridge contract.",
          "_dailyLimitMaxPerTxMinPerTxArray": "array with limit values for the assets to be bridged to the other network.  [ 0 = dailyLimit, 1 = maxPerTx, 2 = minPerTx ]",
          "_executionDailyLimitExecutionMaxPerTxArray": "array with limit values for the assets bridged from the other network.  [ 0 = executionDailyLimit, 1 = executionMaxPerTx ]",
          "_mediatorContract": "the address of the mediator contract on the other network.",
          "_owner": "address of the owner of the mediator contract.",
          "_requestGasLimit": "the gas limit for the message execution."
        }
      },
      "isTokenRegistered(address)": {
        "details": "Checks if specified token was already bridged at least once.",
        "params": {
          "_token": "address of the token contract."
        },
        "return": "true, if token address is address(0) or token was already bridged."
      },
      "maxAvailablePerTx(address)": {
        "details": "Retrieves maximum available bridge amount per one transaction taking into account maxPerTx() and dailyLimit() parameters.",
        "params": {
          "_token": "address of the token contract, or address(0) for the default limit."
        },
        "return": "minimum of maxPerTx parameter and remaining daily quota."
      },
      "maxPerTx(address)": {
        "details": "Retrieves current maximum amount of tokens per one transfer for a particular token contract.",
        "params": {
          "_token": "address of the token contract."
        },
        "return": "maximum amount on tokens that can be sent through the bridge in one transfer."
      },
      "mediatorBalance(address)": {
        "details": "Tells the expected token balance of the contract.",
        "params": {
          "_token": "address of token contract."
        },
        "return": "the current tracked token balance of the contract."
      },
      "mediatorContractOnOtherSide()": {
        "details": "Tells the mediator contract address from the other network.",
        "return": "the address of the mediator contract."
      },
      "messageFixed(bytes32)": {
        "details": "Tells if a message sent to the AMB bridge has been fixed.",
        "return": "bool indicating the status of the message."
      },
      "minPerTx(address)": {
        "details": "Retrieves current minimum amount of tokens per one transfer for a particular token contract.",
        "params": {
          "_token": "address of the token contract."
        },
        "return": "minimum amount on tokens that can be sent through the bridge in one transfer."
      },
      "onTokenTransfer(address,uint256,bytes)": {
        "details": "ERC677 transfer callback function.",
        "params": {
          "_data": "additional transfer data, can be used for passing alternative receiver address.",
          "_from": "address of tokens sender.",
          "_value": "amount of transferred tokens."
        }
      },
      "owner()": {
        "details": "Tells the address of the owner",
        "return": "the address of the owner"
      },
      "relayTokens(address,address,uint256)": {
        "details": "Initiate the bridge operation for some amount of tokens from msg.sender. The user should first call Approve method of the ERC677 token.",
        "params": {
          "_receiver": "address that will receive the native tokens on the other network.",
          "_value": "amount of tokens to be transferred to the other network.",
          "token": "bridged token contract address."
        }
      },
      "relayTokens(address,uint256)": {
        "details": "Initiate the bridge operation for some amount of tokens from msg.sender to msg.sender on the other side. The user should first call Approve method of the ERC677 token.",
        "params": {
          "_value": "amount of tokens to be transferred to the other network.",
          "token": "bridged token contract address."
        }
      },
      "requestFailedMessageFix(bytes32)": {
        "details": "Method to be called when a bridged message execution failed. It will generate a new message requesting to fix/roll back the transferred assets on the other network.",
        "params": {
          "_messageId": "id of the message which execution failed."
        }
      },
      "requestGasLimit()": {
        "details": "Tells the gas limit to be used in the message execution by the AMB bridge on the other network.",
        "return": "the gas limit for the message execution."
      },
      "setBridgeContract(address)": {
        "details": "Sets the AMB bridge contract address. Only the owner can call this method.",
        "params": {
          "_bridgeContract": "the address of the bridge contract."
        }
      },
      "setDailyLimit(address,uint256)": {
        "details": "Updates daily limit for the particular token. Only owner can call this method.",
        "params": {
          "_dailyLimit": "daily allowed amount of bridged tokens, should be greater than maxPerTx. 0 value is also allowed, will stop the bridge operations in outgoing direction.",
          "_token": "address of the token contract, or address(0) for configuring the efault limit."
        }
      },
      "setExecutionDailyLimit(address,uint256)": {
        "details": "Updates execution daily limit for the particular token. Only owner can call this method.",
        "params": {
          "_dailyLimit": "daily allowed amount of executed tokens, should be greater than executionMaxPerTx. 0 value is also allowed, will stop the bridge operations in incoming direction.",
          "_token": "address of the token contract, or address(0) for configuring the default limit."
        }
      },
      "setExecutionMaxPerTx(address,uint256)": {
        "details": "Updates execution maximum per transaction for the particular token. Only owner can call this method.",
        "params": {
          "_maxPerTx": "maximum amount of executed tokens per one transaction, should be less than executionDailyLimit. 0 value is also allowed, will stop the bridge operations in incoming direction.",
          "_token": "address of the token contract, or address(0) for configuring the default limit."
        }
      },
      "setMaxPerTx(address,uint256)": {
        "details": "Updates maximum per transaction for the particular token. Only owner can call this method.",
        "params": {
          "_maxPerTx": "maximum amount of tokens per one transaction, should be less than dailyLimit, greater than minPerTx. 0 value is also allowed, will stop the bridge operations in outgoing direction.",
          "_token": "address of the token contract, or address(0) for configuring the default limit."
        }
      },
      "setMediatorContractOnOtherSide(address)": {
        "details": "Sets the mediator contract address from the other network. Only the owner can call this method.",
        "params": {
          "_mediatorContract": "the address of the mediator contract."
        }
      },
      "setMinPerTx(address,uint256)": {
        "details": "Updates minumum per transaction for the particular token. Only owner can call this method.",
        "params": {
          "_minPerTx": "minumum amount of tokens per one transaction, should be less than maxPerTx and dailyLimit.",
          "_token": "address of the token contract, or address(0) for configuring the default limit."
        }
      },
      "setRequestGasLimit(uint256)": {
        "details": "Sets the gas limit to be used in the message execution by the AMB bridge on the other network. This value can't exceed the parameter maxGasPerTx defined on the AMB bridge. Only the owner can call this method.",
        "params": {
          "_requestGasLimit": "the gas limit for the message execution."
        }
      },
      "tokenRegistrationMessageId(address)": {
        "details": "Returns message id where specified token was first seen and deploy on the other side was requested.",
        "params": {
          "_token": "address of token contract."
        },
        "return": "message id of the send message."
      },
      "totalExecutedPerDay(address,uint256)": {
        "details": "Retrieves the total executed amount for particular token during specific day.",
        "params": {
          "_day": "day number for which spent amount if requested.",
          "_token": "address of the token contract."
        },
        "return": "amount of tokens received from the bridge from the other side."
      },
      "totalSpentPerDay(address,uint256)": {
        "details": "Retrieves the total spent amount for particular token during specific day.",
        "params": {
          "_day": "day number for which spent amount if requested.",
          "_token": "address of the token contract."
        },
        "return": "amount of tokens sent through the bridge to the other side."
      },
      "transferOwnership(address)": {
        "details": "Allows the current owner to transfer control of the contract to a newOwner.",
        "params": {
          "newOwner": "the address to transfer ownership to."
        }
      },
      "withinExecutionLimit(address,uint256)": {
        "details": "Checks that bridged amount of tokens conforms to the configured execution limits.",
        "params": {
          "_amount": "amount of bridge tokens.",
          "_token": "address of the token contract."
        },
        "return": "true, if specified amount can be processed and executed."
      },
      "withinLimit(address,uint256)": {
        "details": "Checks that bridged amount of tokens conforms to the configured limits.",
        "params": {
          "_amount": "amount of bridge tokens.",
          "_token": "address of the token contract."
        },
        "return": "true, if specified amount can be bridged."
      }
    },
    "title": "ForeignMultiAMBErc20ToErc677"
  },
  "userdoc": {
    "methods": {}
  }
}