{
  "contractName": "ForeignAMBWithGasTokenMock",
  "abi": [
    {
      "constant": true,
      "inputs": [],
      "name": "transactionHash",
      "outputs": [
        {
          "name": "",
          "type": "bytes32"
        }
      ],
      "payable": false,
      "stateMutability": "view",
      "type": "function"
    },
    {
      "constant": true,
      "inputs": [],
      "name": "sourceChainId",
      "outputs": [
        {
          "name": "",
          "type": "uint256"
        }
      ],
      "payable": false,
      "stateMutability": "view",
      "type": "function"
    },
    {
      "constant": false,
      "inputs": [
        {
          "name": "_contract",
          "type": "address"
        },
        {
          "name": "_data",
          "type": "bytes"
        },
        {
          "name": "_gas",
          "type": "uint256"
        },
        {
          "name": "_dataType",
          "type": "uint256"
        }
      ],
      "name": "_sendMessage",
      "outputs": [
        {
          "name": "",
          "type": "bytes32"
        }
      ],
      "payable": false,
      "stateMutability": "nonpayable",
      "type": "function"
    },
    {
      "constant": true,
      "inputs": [
        {
          "name": "_txHash",
          "type": "bytes32"
        }
      ],
      "name": "relayedMessages",
      "outputs": [
        {
          "name": "",
          "type": "bool"
        }
      ],
      "payable": false,
      "stateMutability": "view",
      "type": "function"
    },
    {
      "constant": false,
      "inputs": [
        {
          "name": "_targetMintValue",
          "type": "uint256"
        }
      ],
      "name": "setGasTokenTargetMintValue",
      "outputs": [],
      "payable": false,
      "stateMutability": "nonpayable",
      "type": "function"
    },
    {
      "constant": false,
      "inputs": [
        {
          "name": "_sourceChainId",
          "type": "uint256"
        },
        {
          "name": "_destinationChainId",
          "type": "uint256"
        },
        {
          "name": "_validatorContract",
          "type": "address"
        },
        {
          "name": "_maxGasPerTx",
          "type": "uint256"
        },
        {
          "name": "_gasPrice",
          "type": "uint256"
        },
        {
          "name": "_requiredBlockConfirmations",
          "type": "uint256"
        },
        {
          "name": "_owner",
          "type": "address"
        }
      ],
      "name": "initialize",
      "outputs": [
        {
          "name": "",
          "type": "bool"
        }
      ],
      "payable": false,
      "stateMutability": "nonpayable",
      "type": "function"
    },
    {
      "constant": true,
      "inputs": [],
      "name": "isInitialized",
      "outputs": [
        {
          "name": "",
          "type": "bool"
        }
      ],
      "payable": false,
      "stateMutability": "view",
      "type": "function"
    },
    {
      "constant": true,
      "inputs": [],
      "name": "requiredBlockConfirmations",
      "outputs": [
        {
          "name": "",
          "type": "uint256"
        }
      ],
      "payable": false,
      "stateMutability": "view",
      "type": "function"
    },
    {
      "constant": false,
      "inputs": [
        {
          "name": "_data",
          "type": "bytes"
        },
        {
          "name": "_signatures",
          "type": "bytes"
        }
      ],
      "name": "executeSignatures",
      "outputs": [],
      "payable": false,
      "stateMutability": "nonpayable",
      "type": "function"
    },
    {
      "constant": true,
      "inputs": [
        {
          "name": "_data",
          "type": "bytes"
        }
      ],
      "name": "getMinimumGasUsage",
      "outputs": [
        {
          "name": "gas",
          "type": "uint256"
        }
      ],
      "payable": false,
      "stateMutability": "pure",
      "type": "function"
    },
    {
      "constant": true,
      "inputs": [
        {
          "name": "_messageId",
          "type": "bytes32"
        }
      ],
      "name": "failedMessageReceiver",
      "outputs": [
        {
          "name": "",
          "type": "address"
        }
      ],
      "payable": false,
      "stateMutability": "view",
      "type": "function"
    },
    {
      "constant": true,
      "inputs": [],
      "name": "getBridgeMode",
      "outputs": [
        {
          "name": "_data",
          "type": "bytes4"
        }
      ],
      "payable": false,
      "stateMutability": "pure",
      "type": "function"
    },
    {
      "constant": false,
      "inputs": [
        {
          "name": "_sourceChainId",
          "type": "uint256"
        },
        {
          "name": "_destinationChainId",
          "type": "uint256"
        }
      ],
      "name": "setChainIds",
      "outputs": [],
      "payable": false,
      "stateMutability": "nonpayable",
      "type": "function"
    },
    {
      "constant": true,
      "inputs": [
        {
          "name": "_messageId",
          "type": "bytes32"
        }
      ],
      "name": "failedMessageSender",
      "outputs": [
        {
          "name": "",
          "type": "address"
        }
      ],
      "payable": false,
      "stateMutability": "view",
      "type": "function"
    },
    {
      "constant": true,
      "inputs": [],
      "name": "messageId",
      "outputs": [
        {
          "name": "",
          "type": "bytes32"
        }
      ],
      "payable": false,
      "stateMutability": "view",
      "type": "function"
    },
    {
      "constant": true,
      "inputs": [],
      "name": "gasTokenReceiver",
      "outputs": [
        {
          "name": "",
          "type": "address"
        }
      ],
      "payable": false,
      "stateMutability": "view",
      "type": "function"
    },
    {
      "constant": false,
      "inputs": [
        {
          "name": "_maxGasPerTx",
          "type": "uint256"
        }
      ],
      "name": "setMaxGasPerTx",
      "outputs": [],
      "payable": false,
      "stateMutability": "nonpayable",
      "type": "function"
    },
    {
      "constant": true,
      "inputs": [],
      "name": "requiredSignatures",
      "outputs": [
        {
          "name": "",
          "type": "uint256"
        }
      ],
      "payable": false,
      "stateMutability": "view",
      "type": "function"
    },
    {
      "constant": true,
      "inputs": [],
      "name": "owner",
      "outputs": [
        {
          "name": "",
          "type": "address"
        }
      ],
      "payable": false,
      "stateMutability": "view",
      "type": "function"
    },
    {
      "constant": true,
      "inputs": [],
      "name": "validatorContract",
      "outputs": [
        {
          "name": "",
          "type": "address"
        }
      ],
      "payable": false,
      "stateMutability": "view",
      "type": "function"
    },
    {
      "constant": true,
      "inputs": [],
      "name": "deployedAtBlock",
      "outputs": [
        {
          "name": "",
          "type": "uint256"
        }
      ],
      "payable": false,
      "stateMutability": "view",
      "type": "function"
    },
    {
      "constant": true,
      "inputs": [],
      "name": "getBridgeInterfacesVersion",
      "outputs": [
        {
          "name": "major",
          "type": "uint64"
        },
        {
          "name": "minor",
          "type": "uint64"
        },
        {
          "name": "patch",
          "type": "uint64"
        }
      ],
      "payable": false,
      "stateMutability": "pure",
      "type": "function"
    },
    {
      "constant": true,
      "inputs": [],
      "name": "messageSourceChainId",
      "outputs": [
        {
          "name": "",
          "type": "uint256"
        }
      ],
      "payable": false,
      "stateMutability": "view",
      "type": "function"
    },
    {
      "constant": false,
      "inputs": [
        {
          "name": "_receiver",
          "type": "address"
        }
      ],
      "name": "setGasTokenReceiver",
      "outputs": [],
      "payable": false,
      "stateMutability": "nonpayable",
      "type": "function"
    },
    {
      "constant": false,
      "inputs": [
        {
          "name": "_blockConfirmations",
          "type": "uint256"
        }
      ],
      "name": "setRequiredBlockConfirmations",
      "outputs": [],
      "payable": false,
      "stateMutability": "nonpayable",
      "type": "function"
    },
    {
      "constant": true,
      "inputs": [],
      "name": "destinationChainId",
      "outputs": [
        {
          "name": "",
          "type": "uint256"
        }
      ],
      "payable": false,
      "stateMutability": "view",
      "type": "function"
    },
    {
      "constant": false,
      "inputs": [
        {
          "name": "_gasPrice",
          "type": "uint256"
        }
      ],
      "name": "setGasPrice",
      "outputs": [],
      "payable": false,
      "stateMutability": "nonpayable",
      "type": "function"
    },
    {
      "constant": true,
      "inputs": [
        {
          "name": "_messageId",
          "type": "bytes32"
        }
      ],
      "name": "messageCallStatus",
      "outputs": [
        {
          "name": "",
          "type": "bool"
        }
      ],
      "payable": false,
      "stateMutability": "view",
      "type": "function"
    },
    {
      "constant": true,
      "inputs": [],
      "name": "messageSender",
      "outputs": [
        {
          "name": "",
          "type": "address"
        }
      ],
      "payable": false,
      "stateMutability": "view",
      "type": "function"
    },
    {
      "constant": true,
      "inputs": [],
      "name": "decimalShift",
      "outputs": [
        {
          "name": "",
          "type": "int256"
        }
      ],
      "payable": false,
      "stateMutability": "view",
      "type": "function"
    },
    {
      "constant": false,
      "inputs": [
        {
          "name": "_contract",
          "type": "address"
        },
        {
          "name": "_data",
          "type": "bytes"
        },
        {
          "name": "_gas",
          "type": "uint256"
        }
      ],
      "name": "requireToPassMessage",
      "outputs": [
        {
          "name": "messageId",
          "type": "bytes32"
        }
      ],
      "payable": false,
      "stateMutability": "nonpayable",
      "type": "function"
    },
    {
      "constant": true,
      "inputs": [],
      "name": "gasTokenTargetMintValue",
      "outputs": [
        {
          "name": "",
          "type": "uint256"
        }
      ],
      "payable": false,
      "stateMutability": "view",
      "type": "function"
    },
    {
      "constant": true,
      "inputs": [
        {
          "name": "_messageId",
          "type": "bytes32"
        }
      ],
      "name": "failedMessageDataHash",
      "outputs": [
        {
          "name": "",
          "type": "bytes32"
        }
      ],
      "payable": false,
      "stateMutability": "view",
      "type": "function"
    },
    {
      "constant": true,
      "inputs": [],
      "name": "maxGasPerTx",
      "outputs": [
        {
          "name": "",
          "type": "uint256"
        }
      ],
      "payable": false,
      "stateMutability": "view",
      "type": "function"
    },
    {
      "constant": false,
      "inputs": [
        {
          "name": "_targetMintValue",
          "type": "uint256"
        },
        {
          "name": "_receiver",
          "type": "address"
        }
      ],
      "name": "setGasTokenParameters",
      "outputs": [],
      "payable": false,
      "stateMutability": "nonpayable",
      "type": "function"
    },
    {
      "constant": false,
      "inputs": [
        {
          "name": "newOwner",
          "type": "address"
        }
      ],
      "name": "transferOwnership",
      "outputs": [],
      "payable": false,
      "stateMutability": "nonpayable",
      "type": "function"
    },
    {
      "constant": true,
      "inputs": [],
      "name": "gasPrice",
      "outputs": [
        {
          "name": "",
          "type": "uint256"
        }
      ],
      "payable": false,
      "stateMutability": "view",
      "type": "function"
    },
    {
      "anonymous": false,
      "inputs": [
        {
          "indexed": true,
          "name": "messageId",
          "type": "bytes32"
        },
        {
          "indexed": false,
          "name": "encodedData",
          "type": "bytes"
        }
      ],
      "name": "UserRequestForAffirmation",
      "type": "event"
    },
    {
      "anonymous": false,
      "inputs": [
        {
          "indexed": true,
          "name": "sender",
          "type": "address"
        },
        {
          "indexed": true,
          "name": "executor",
          "type": "address"
        },
        {
          "indexed": true,
          "name": "messageId",
          "type": "bytes32"
        },
        {
          "indexed": false,
          "name": "status",
          "type": "bool"
        }
      ],
      "name": "RelayedMessage",
      "type": "event"
    },
    {
      "anonymous": false,
      "inputs": [
        {
          "indexed": false,
          "name": "gasPrice",
          "type": "uint256"
        }
      ],
      "name": "GasPriceChanged",
      "type": "event"
    },
    {
      "anonymous": false,
      "inputs": [
        {
          "indexed": false,
          "name": "requiredBlockConfirmations",
          "type": "uint256"
        }
      ],
      "name": "RequiredBlockConfirmationChanged",
      "type": "event"
    },
    {
      "anonymous": false,
      "inputs": [
        {
          "indexed": false,
          "name": "previousOwner",
          "type": "address"
        },
        {
          "indexed": false,
          "name": "newOwner",
          "type": "address"
        }
      ],
      "name": "OwnershipTransferred",
      "type": "event"
    },
    {
      "constant": true,
      "inputs": [],
      "name": "gasToken",
      "outputs": [
        {
          "name": "",
          "type": "address"
        }
      ],
      "payable": false,
      "stateMutability": "pure",
      "type": "function"
    },
    {
      "constant": false,
      "inputs": [],
      "name": "collectGasTokens",
      "outputs": [],
      "payable": false,
      "stateMutability": "nonpayable",
      "type": "function"
    }
  ],
  "bytecode": "0x608060405234801561001057600080fd5b506131cd806100206000396000f3006080604052600436106101c95763ffffffff60e060020a6000350416630ac1c31381146101ce5780631544298e146101f5578063163cef351461020a57806321d800ec1461027a57806323b4a1fd146102a657806325fbf4ee146102c0578063392e53cd146102f95780633f0a9f651461030e5780633f7658fd146103235780633f768c061461034f5780633f9a8e7e146103a8578063437764df146103dc578063467ad35a146104235780634a610b041461043e578063669f618b146104565780636a9bf6491461046b5780636c388e54146104805780637bac29c7146104955780638d068043146104ad5780638da5cb5b146104c257806399439089146104d75780639a454b99146104ec5780639cb7595a146105015780639e307dff146105425780639f1ed0c714610557578063acf5c68914610578578063b075061114610590578063bf1fe420146105a5578063c91d59fe146105bd578063cb08a10c146105d2578063d67bdd25146105ea578063dae5f0fd146105ff578063dc8601b314610614578063de6e02b81461067d578063e37c328914610692578063e5789d03146106aa578063ee033614146106bf578063f2fde38b146106e3578063fe173b9714610704575b600080fd5b3480156101da57600080fd5b506101e3610719565b60408051918252519081900360200190f35b34801561020157600080fd5b506101e3610728565b34801561021657600080fd5b5060408051602060046024803582810135601f81018590048502860185019096528585526101e3958335600160a060020a03169536956044949193909101919081908401838280828437509497505084359550505060209092013591506107769050565b34801561028657600080fd5b506102926004356108a9565b604080519115158252519081900360200190f35b3480156102b257600080fd5b506102be600435610972565b005b3480156102cc57600080fd5b50610292600435602435600160a060020a03604435811690606435906084359060a4359060c435166109db565b34801561030557600080fd5b50610292610c4f565b34801561031a57600080fd5b506101e3610ca0565b34801561032f57600080fd5b506102be6024600480358281019290820135918135918201910135610cee565b34801561035b57600080fd5b506040805160206004803580820135601f81018490048402850184019095528484526101e3943694929360249392840191908190840183828082843750949750610e359650505050505050565b3480156103b457600080fd5b506103c0600435610e51565b60408051600160a060020a039092168252519081900360200190f35b3480156103e857600080fd5b506103f1610f20565b604080517bffffffffffffffffffffffffffffffffffffffffffffffffffffffff199092168252519081900360200190f35b34801561042f57600080fd5b506102be600435602435610f44565b34801561044a57600080fd5b506103c0600435610f6e565b34801561046257600080fd5b506101e3610ff2565b34801561047757600080fd5b506102be611040565b34801561048c57600080fd5b506103c061104a565b3480156104a157600080fd5b506102be6004356110a1565b3480156104b957600080fd5b506101e361110a565b3480156104ce57600080fd5b506103c0611182565b3480156104e357600080fd5b506103c06111d9565b3480156104f857600080fd5b506101e3611230565b34801561050d57600080fd5b5061051661127e565b6040805167ffffffffffffffff9485168152928416602084015292168183015290519081900360600190f35b34801561054e57600080fd5b506101e3611289565b34801561056357600080fd5b506102be600160a060020a03600435166112d7565b34801561058457600080fd5b506102be60043561136a565b34801561059c57600080fd5b506101e3611392565b3480156105b157600080fd5b506102be6004356113e0565b3480156105c957600080fd5b506103c0611405565b3480156105de57600080fd5b5061029260043561141d565b3480156105f657600080fd5b506103c06114a1565b34801561060b57600080fd5b506101e36114f8565b34801561062057600080fd5b5060408051602060046024803582810135601f81018590048502860185019096528585526101e3958335600160a060020a031695369560449491939091019190819084018382808284375094975050933594506115469350505050565b34801561068957600080fd5b506101e3611564565b34801561069e57600080fd5b506101e36004356115b2565b3480156106b657600080fd5b506101e3611677565b3480156106cb57600080fd5b506102be600435600160a060020a03602435166116c5565b3480156106ef57600080fd5b506102be600160a060020a036004351661177c565b34801561071057600080fd5b506101e36117a1565b6000610723610ff2565b905090565b7f67d6f42a1ed69c62022f2d160ddc6f2f0acd37ad1db0c24f4702d7d3343a4add60009081526020527ff6c66672b1a9fe5622677597b0da8fd180a2c85696efbcf7fe4b1e0f4f0f61085490565b60008060608082610785610ff2565b1461078f57600080fd5b61079887610e35565b86101580156107ae57506107aa611677565b8611155b15156107b957600080fd5b6107c48887876117ef565b91506107d96107d161198b565b6001016119d9565b6020820151925081876040516020018083805190602001908083835b602083106108145780518252601f1990920191602091820191016107f5565b51815160209384036101000a600019018019909216911617905285519190930192850191508083835b6020831061085c5780518252601f19909201916020918201910161083d565b6001836020036101000a03801982511681845116808217855250505050505090500192505050604051602081830303815290604052905061089d8382611a30565b50909695505050505050565b6000600460008360405160200180807f72656c617965644d657373616765730000000000000000000000000000000000815250600f0182600019166000191681526020019150506040516020818303038152906040526040518082805190602001908083835b6020831061092e5780518252601f19909201916020918201910161090f565b51815160209384036101000a600019018019909216911617905260408051929094018290039091208652850195909552929092016000205460ff1695945050505050565b61097a611182565b600160a060020a0316331461098e57600080fd5b7f7188f1264c90762deb4dbddcab803d6487a8f108fbcdec3ff08c642d35826f9f60009081526020527f508af815a456b6ded512875db9df6b2d5693ac1edc789fb62dc528b792885e5155565b60408051600481526024810182526020810180517bffffffffffffffffffffffffffffffffffffffffffffffffffffffff167f6fde8202000000000000000000000000000000000000000000000000000000001781529151815160009330939291829190808383895b83811015610a5c578181015183820152602001610a44565b50505050905090810190601f168015610a895780820380516001836020036101000a031916815260200191505b509150506000604051808303816000865af19150501580610b1b575030600160a060020a0316636fde82026040518163ffffffff1660e060020a028152600401602060405180830381600087803b158015610ae357600080fd5b505af1158015610af7573d6000803e3d6000fd5b505050506040513d6020811015610b0d57600080fd5b5051600160a060020a031633145b80610b2557503330145b1515610b3057600080fd5b610b38610c4f565b15610b4257600080fd5b610b4b86611acd565b1515610b5657600080fd5b610b608888611ad5565b7fab54f3fbbe62c59b7876a9bf9bd5e0c22dbae93f4d8ee0438f7ce62b198eb0e0805473ffffffffffffffffffffffffffffffffffffffff1916600160a060020a03881617905560006020819052437fe66bef0282a446f9848e2903380099bb6e431483ee78778868f33b4a154c818b557f2670ecc91ec356e32067fd27b36614132d727b84a1e03e08f412a4f2cf07597490527f3d7fe2ee9790702383ef0118b516833ef2542132d3ca4ac6c77f62f1230fa610859055610c2184611c25565b610c2a83611c3b565b610c3382611cce565b610c3b611da5565b610c43610c4f565b98975050505050505050565b7f0a6f646cd611241d8073675e00d1a1ff700fbf1b53fcf473de56d1e6e4b714ba60005260046020527f078d888f9b66f3f8bfa10909e31f1e16240db73449f0500afdbbe3a70da457cc5460ff1690565b7f916daedf6915000ff68ced2f0b6773fe6f2582237f92c3c95bb4d7940723007160009081526020527fd2ea0feb732edb0ffe32efd33a6b9d24d46b16eb34a4d07ce256537b6f131e425490565b6000806000806000610cfe613186565b6060610d778b8b8080601f0160208091040260200160405190810160405280939291908181526020018383808284378201915050505050508a8a8080601f01602080910402602001604051908101604052809392919081815260200183838082843750610d7094506111d99350505050565b6001611dfc565b610db08b8b8080601f01602080910402602001604051908101604052809392919081815260200183838082843750612086945050505050565b959c50939a509198509650945092509050610dca87612174565b1515610dd557600080fd5b6020820151610de3906121ba565b1515610dee57600080fd5b610df7876108a9565b15610e0157600080fd5b610e0c8760016121cc565b610e2886868963ffffffff88168787600060200201518761229e565b5050505050505050505050565b8051600090610e4b90601063ffffffff6122f516565b92915050565b6000600260008360405160200180807f6661696c65644d6573736167655265636569766572000000000000000000000081525060150182600019166000191681526020019150506040516020818303038152906040526040518082805190602001908083835b60208310610ed65780518252601f199092019160209182019101610eb7565b51815160209384036101000a6000190180199092169116179052604080519290940182900390912086528501959095529290920160002054600160a060020a031695945050505050565b7f2544fbb90000000000000000000000000000000000000000000000000000000090565b610f4c611182565b600160a060020a03163314610f6057600080fd5b610f6a8282611ad5565b5050565b6000600260008360405160200180807f6661696c65644d65737361676553656e64657200000000000000000000000000815250601301826000191660001916815260200191505060405160208183030381529060405260405180828051906020019080838360208310610ed65780518252601f199092019160209182019101610eb7565b7fe34bb2103dc34f2c144cc216c132d6ffb55dac57575c22e089161bbe6508330460009081526020527f9f204e482014519ec310a8e752d4b19f9e9c5b073985c5f7fe150987771c9f0f5490565b61104861231e565b565b7f6778a39b83358b10315b40840597142f1db77a44f312ed9c0e45ee7af3bbc55260005260026020527fd0cda424605c5e6787a1f6db37df501d2e0a58cfcd57eff91a537a67146f164f54600160a060020a031690565b6110a9611182565b600160a060020a031633146110bd57600080fd5b7f2670ecc91ec356e32067fd27b36614132d727b84a1e03e08f412a4f2cf07597460009081526020527f3d7fe2ee9790702383ef0118b516833ef2542132d3ca4ac6c77f62f1230fa61055565b60006111146111d9565b600160a060020a0316638d0680436040518163ffffffff1660e060020a028152600401602060405180830381600087803b15801561115157600080fd5b505af1158015611165573d6000803e3d6000fd5b505050506040513d602081101561117b57600080fd5b5051905090565b7f02016836a56b71f0d02689e69e326f4f4c1b9057164ef592671cf0d37c8040c060005260026020527fb7802e97e87ef2842a6cce7da7ffaeaedaa2f61a6a7870b23d9d01fc9b73712e54600160a060020a031690565b7f5a74bb7e202fb8e4bf311841c7d64ec19df195fee77d7e7ae749b27921b6ddfe60005260026020527fab54f3fbbe62c59b7876a9bf9bd5e0c22dbae93f4d8ee0438f7ce62b198eb0e054600160a060020a031690565b7fb120ceec05576ad0c710bc6e85f1768535e27554458f05dcbb5c65b8c7a749b060009081526020527fe66bef0282a446f9848e2903380099bb6e431483ee78778868f33b4a154c818b5490565b600560046000909192565b7f7f0fcd9e49860f055dd0c1682d635d309ecb5e3011654c716d9eb59a7ddec7d260009081526020527f79cf5d7509b8972cfd9e9247b5a44821920518657d3bdf01549a471d922830235490565b6112df611182565b600160a060020a031633146112f357600080fd5b7f6778a39b83358b10315b40840597142f1db77a44f312ed9c0e45ee7af3bbc55260005260026020527fd0cda424605c5e6787a1f6db37df501d2e0a58cfcd57eff91a537a67146f164f805473ffffffffffffffffffffffffffffffffffffffff1916600160a060020a0392909216919091179055565b611372611182565b600160a060020a0316331461138657600080fd5b61138f81611c3b565b50565b7fbbd454018e72a3f6c02bbd785bacc49e46292744f3f6761276723823aa33232060009081526020527f242329173dfc316001df0a0c3d5a8f58a7ffb1a8b7d99c268303b9a741bacdf95490565b6113e8611182565b600160a060020a031633146113fc57600080fd5b61138f81611c25565b73ec8be1a5630364292e56d01129e8ee8a9578d7d890565b6000600460008360405160200180807f6d65737361676543616c6c53746174757300000000000000000000000000000081525060110182600019166000191681526020019150506040516020818303038152906040526040518082805190602001908083836020831061092e5780518252601f19909201916020918201910161090f565b7f7b58b2a669d8e0992eae9eaef641092c0f686fd31070e7236865557fa1571b5b60005260026020527f89d1797768793589e5608ebd54bdc3a99b59edcb38eb27eb2b8e05466743118c54600160a060020a031690565b7f1e8ecaafaddea96ed9ac6d2642dcdfe1bebe58a930b1085842d8fc122b371ee560009081526020527fd5c78dd9468716ca9bb96be25d56436811b20aab3523a9904b12deef1cab239d5490565b6000611553848484612751565b905061155d61231e565b9392505050565b7f7188f1264c90762deb4dbddcab803d6487a8f108fbcdec3ff08c642d35826f9f60009081526020527f508af815a456b6ded512875db9df6b2d5693ac1edc789fb62dc528b792885e515490565b60008060008360405160200180807f6661696c65644d6573736167654461746148617368000000000000000000000081525060150182600019166000191681526020019150506040516020818303038152906040526040518082805190602001908083835b602083106116365780518252601f199092019160209182019101611617565b51815160209384036101000a600019018019909216911617905260408051929094018290039091208652850195909552929092016000205495945050505050565b7f2670ecc91ec356e32067fd27b36614132d727b84a1e03e08f412a4f2cf07597460009081526020527f3d7fe2ee9790702383ef0118b516833ef2542132d3ca4ac6c77f62f1230fa6105490565b6116cd611182565b600160a060020a031633146116e157600080fd5b7f508af815a456b6ded512875db9df6b2d5693ac1edc789fb62dc528b792885e51919091557f6778a39b83358b10315b40840597142f1db77a44f312ed9c0e45ee7af3bbc55260005260026020527fd0cda424605c5e6787a1f6db37df501d2e0a58cfcd57eff91a537a67146f164f805473ffffffffffffffffffffffffffffffffffffffff1916600160a060020a03909216919091179055565b611784611182565b600160a060020a0316331461179857600080fd5b61138f81611cce565b7f55b3774520b5993024893d303890baa4e84b1244a43c60034d1ced2d3cf2b04b60009081526020527ff7d5eefab3776d7f0450bd0193564bcb4f832ce313ff2836c450fc63a4b944195490565b60606000806000806000806000611804610728565b965061180e612768565b9550611818611392565b94506118226127b6565b93507e05000000000000000000000000000000000000000000000000000000000000925061184e61198b565b6040805160208082018b90526c0100000000000000000000000030028284015282516034818403018152605490920192839052815167ffffffffffffffff949094169550909282918401908083835b602083106118bc5780518252601f19909201916020918201910161189d565b6001836020036101000a03801982511681845116808217855250505050505090500191505060405180910390207bffffffffffffffffffffffffffffffffffffffff00000000000000006001021690508386604f01016040519080825280601f01601f19166020018201604052801561193f578160200160208202803883390190505b50975087518801858152878582035289604f8a015284604e8a015286604d8a01528a604c8a01528b60488a01523360348a0152828217841760208a015250505050505050509392505050565b7f7ab1577440dd7bedf920cb6de2f9fc6bf7ba98c78c85a3fa1f8311aac95e175960009081526020527fa9b0f75b23e377b9b22d27feaca5d8a12329c0049ebce1dc695b905f3aa4cd005490565b7f7ab1577440dd7bedf920cb6de2f9fc6bf7ba98c78c85a3fa1f8311aac95e1759600090815260205267ffffffffffffffff167fa9b0f75b23e377b9b22d27feaca5d8a12329c0049ebce1dc695b905f3aa4cd0055565b604080516020808252835181830152835185937f482515ce3d9494a37ce83f18b72b363449458435fafdd7a53ddea7460fe01b589386939092839283019185019080838360005b83811015611a8f578181015183820152602001611a77565b50505050905090810190601f168015611abc5780820380516001836020036101000a031916815260200191505b509250505060405180910390a25050565b6000903b1190565b600080600080600086118015611aeb5750600085115b1515611af657600080fd5b85851415611b0357600080fd5b506000925082915060ff905060015b831580611b1d575082155b15611b655783158015611b31575085828716145b15611b3a578093505b82158015611b49575084828616145b15611b52578092505b6101009190910260ff1790600101611b12565b5050600060208190527ff6c66672b1a9fe5622677597b0da8fd180a2c85696efbcf7fe4b1e0f4f0f6108949094557f2f30286a16f86ee067618e1a246990e40c07b7749418a6dd3133f9cfb7e814cc919091557f242329173dfc316001df0a0c3d5a8f58a7ffb1a8b7d99c268303b9a741bacdf9919091557ffb792ae4ad11102b93f26a51b3749c2b3667f8b561566a4806d49896928115949091527f7b62b32ff48350e85ce95b571fde6f8b1096bc44a26db769ad6d0b3a26bf1c6d55565b60008111611c3257600080fd5b61138f81612804565b60008111611c4857600080fd5b7f916daedf6915000ff68ced2f0b6773fe6f2582237f92c3c95bb4d79407230071600090815260209081527fd2ea0feb732edb0ffe32efd33a6b9d24d46b16eb34a4d07ce256537b6f131e428290556040805183815290517f4fb76205cd57c896b21511d2114137d8e901b4ccd659e1a0f97d6306795264fb929181900390910190a150565b600160a060020a0381161515611ce357600080fd5b7f8be0079c531659141344cd1fd0a4f28419497f9722a3daafe3b4186f6b6457e0611d0c611182565b60408051600160a060020a03928316815291841660208301528051918290030190a17f02016836a56b71f0d02689e69e326f4f4c1b9057164ef592671cf0d37c8040c060005260026020527fb7802e97e87ef2842a6cce7da7ffaeaedaa2f61a6a7870b23d9d01fc9b73712e805473ffffffffffffffffffffffffffffffffffffffff1916600160a060020a0392909216919091179055565b7f0a6f646cd611241d8073675e00d1a1ff700fbf1b53fcf473de56d1e6e4b714ba60005260046020527f078d888f9b66f3f8bfa10909e31f1e16240db73449f0500afdbbe3a70da457cc805460ff19166001179055565b6000806000606060008060008060008060008b80611e1e5750611e1e8f61288a565b1515611e2957600080fd5b8c600160a060020a0316638d0680436040518163ffffffff1660e060020a028152600401602060405180830381600087803b158015611e6757600080fd5b505af1158015611e7b573d6000803e3d6000fd5b505050506040513d6020811015611e9157600080fd5b505160018f0151909b5060ff1699508a8a1015611ead57600080fd5b611eb78f8d61289e565b98508a604051908082528060200260200182016040528015611ee3578160200160208202803883390190505b509750600096505b8a87101561207557866020028a6021010192508960200283019150866002018e01519550828e01519450818e01519350600189878787604051600081526020016040526040518085600019166000191681526020018460ff1660ff1681526020018360001916600019168152602001826000191660001916815260200194505050505060206040516020810390808403906000865af1158015611f92573d6000803e3d6000fd5b5050506020604051035190508c600160a060020a031663facd743b826040518263ffffffff1660e060020a0281526004018082600160a060020a0316600160a060020a03168152602001915050602060405180830381600087803b158015611ff957600080fd5b505af115801561200d573d6000803e3d6000fd5b505050506040513d602081101561202357600080fd5b5051151561203057600080fd5b61203a8882612ab8565b1561204457600080fd5b80888881518110151561205357fe5b600160a060020a03909216602092830290910190910152600190960195611eeb565b505050505050505050505050505050565b6000806000806000612096613186565b6060600080604f915060208a01519850600160a060020a0360348b015116975060548a01518060601c975063ffffffff8160401c16965080601a1a955060008611156120e157600080fd5b8060181a6001808260031b1b03818501945080858e01511687528260191a91506001808360031b1b039050818501945080858e0151166020880152848d51039350505050806040519080825280601f01601f191660200182016040528015612153578160200160208202803883390190505b50925060248201915080826004350160208501375050919395979092949650565b7bffffffffffffffffffffffffffffffffffffffffffffffffffffffff1981167e0500000000000000000000000000000000000000000000000000000000000014919050565b60006121c4610728565b909114919050565b80600460008460405160200180807f72656c617965644d657373616765730000000000000000000000000000000000815250600f0182600019166000191681526020019150506040516020818303038152906040526040518082805190602001908083835b602083106122505780518252601f199092019160209182019101612231565b51815160209384036101000a60001901801990921691161790526040805192909401829003909120865285019590955292909201600020805460ff1916941515949094179093555050505050565b60006122ae888884888a88612b13565b90506122ba8682612bf2565b8015156122df576122cb8683612c75565b6122d58688612d84565b6122df8689612e72565b6122eb88888884612ef5565b5050505050505050565b600082151561230657506000610e4b565b5081810281838281151561231657fe5b0414610e4b57fe5b60008060008061232c611564565b935083151561233a5761274b565b61234261104a565b9250600160a060020a03831615156123595761274b565b612361611405565b604080517fdd62ed3e0000000000000000000000000000000000000000000000000000000081523360048201523060248201529051919350600160a060020a0384169163dd62ed3e916044808201926020929091908290030181600087803b1580156123cc57600080fd5b505af11580156123e0573d6000803e3d6000fd5b505050506040513d60208110156123f657600080fd5b505190508381106124af57604080517f23b872dd000000000000000000000000000000000000000000000000000000008152336004820152600160a060020a038581166024830152604482018790529151918416916323b872dd916064808201926020929091908290030181600087803b15801561247357600080fd5b505af1158015612487573d6000803e3d6000fd5b505050506040513d602081101561249d57600080fd5b505115156124aa57600080fd5b61265a565b600081111561255d57604080517f23b872dd000000000000000000000000000000000000000000000000000000008152336004820152306024820152604481018390529051600160a060020a038416916323b872dd9160648083019260209291908290030181600087803b15801561252657600080fd5b505af115801561253a573d6000803e3d6000fd5b505050506040513d602081101561255057600080fd5b5051151561255d57600080fd5b81600160a060020a031663a0712d688286036040518263ffffffff1660e060020a02815260040180828152602001915050600060405180830381600087803b1580156125a857600080fd5b505af11580156125bc573d6000803e3d6000fd5b5050505081600160a060020a031663a9059cbb84866040518363ffffffff1660e060020a0281526004018083600160a060020a0316600160a060020a0316815260200182815260200192505050602060405180830381600087803b15801561262357600080fd5b505af1158015612637573d6000803e3d6000fd5b505050506040513d602081101561264d57600080fd5b5051151561265a57600080fd5b604080513060248201526044810186905260606064820152600060848201819052825180830360a401815260c490920183526020820180517bffffffffffffffffffffffffffffffffffffffffffffffffffffffff167fa4c0ed360000000000000000000000000000000000000000000000000000000017815292518251600160a060020a038816949192839291908190849084905b838110156127085781810151838201526020016126f0565b50505050905090810190601f1680156127355780820380516001836020036101000a031916815260200191505b509150506000604051808303816000865af15050505b50505050565b60006127608484846000610776565b949350505050565b7fe504ae1fd6471eea80f18b8532a61a9bb91fba4f5b837f80a1cfb6752350af4460009081526020527f2f30286a16f86ee067618e1a246990e40c07b7749418a6dd3133f9cfb7e814cc5490565b7ffb792ae4ad11102b93f26a51b3749c2b3667f8b561566a4806d498969281159460009081526020527f7b62b32ff48350e85ce95b571fde6f8b1096bc44a26db769ad6d0b3a26bf1c6d5490565b7f55b3774520b5993024893d303890baa4e84b1244a43c60034d1ced2d3cf2b04b600090815260209081527ff7d5eefab3776d7f0450bd0193564bcb4f832ce313ff2836c450fc63a4b944198290556040805183815290517f52264b89e0fceafb26e79fd49ef8a366eb6297483bf4035b027f0c99a7ad512e929181900390910190a150565b6000612894612f43565b8251149050919050565b60408051808201909152601a81527f19457468657265756d205369676e6564204d6573736167653a0a000000000000602082015260009060608315612a4457816128e88651612f48565b866040516020018084805190602001908083835b6020831061291b5780518252601f1990920191602091820191016128fc565b51815160209384036101000a600019018019909216911617905286519190930192860191508083835b602083106129635780518252601f199092019160209182019101612944565b51815160209384036101000a600019018019909216911617905285519190930192850191508083835b602083106129ab5780518252601f19909201916020918201910161298c565b6001836020036101000a03801982511681845116808217855250505050505090500193505050506040516020818303038152906040526040518082805190602001908083835b60208310612a105780518252601f1990920191602091820191016129f1565b6001836020036101000a03801982511681845116808217855250505050505090500191505060405180910390209250612ab0565b6040805190810160405280600381526020017f313034000000000000000000000000000000000000000000000000000000000081525090508181866040516020018084805190602001908083836020831061291b5780518252601f1990920191602091820191016128fc565b505092915050565b6000805b8351811015612b075782600160a060020a03168482815181101515612add57fe5b90602001906020020151600160a060020a03161415612aff5760019150612b0c565b600101612abc565b600091505b5092915050565b600080612b1f8861306f565b612b28846130e6565b612b3183613133565b508460405a603f02811515612b4257fe5b0411612b4d57600080fd5b86600160a060020a0316858760405180828051906020019080838360005b83811015612b83578181015183820152602001612b6b565b50505050905090810190601f168015612bb05780820380516001836020036101000a031916815260200191505b5091505060006040518083038160008787f1925050509050612bd2600061306f565b612bdc60006130e6565b612be66000613133565b50979650505050505050565b80600460008460405160200180807f6d65737361676543616c6c5374617475730000000000000000000000000000008152506011018260001916600019168152602001915050604051602081830303815290604052604051808280519060200190808383602083106122505780518252601f199092019160209182019101612231565b806040518082805190602001908083835b60208310612ca55780518252601f199092019160209182019101612c86565b51815160209384036101000a6000190180199092169116179052604080519290940182900382207f6661696c65644d657373616765446174614861736800000000000000000000008383015260358084018a905285518085039091018152605590930194859052825190965060009550859492935082918401908083835b60208310612d425780518252601f199092019160209182019101612d23565b51815160209384036101000a60001901801990921691161790526040805192909401829003909120865285019590955292909201600020939093555050505050565b80600260008460405160200180807f6661696c65644d6573736167655265636569766572000000000000000000000081525060150182600019166000191681526020019150506040516020818303038152906040526040518082805190602001908083835b60208310612e085780518252601f199092019160209182019101612de9565b51815160209384036101000a60001901801990921691161790526040805192909401829003909120865285019590955292909201600020805473ffffffffffffffffffffffffffffffffffffffff1916600160a060020a0395909516949094179093555050505050565b80600260008460405160200180807f6661696c65644d65737361676553656e64657200000000000000000000000000815250601301826000191660001916815260200191505060405160208183030381529060405260405180828051906020019080838360208310612e085780518252601f199092019160209182019101612de9565b60408051821515815290518391600160a060020a0380871692908816917f27333edb8bdcd40a0ae944fb121b5e2d62ea782683946654a0f5e607a908d578919081900360200190a450505050565b606890565b60606000808281851515612f915760408051808201909152600181527f300000000000000000000000000000000000000000000000000000000000000060208201529450613066565b8593505b8315612fac57600190920191600a84049350612f95565b826040519080825280601f01601f191660200182016040528015612fda578160200160208202803883390190505b5091505060001982015b85156130625781516000198201917f01000000000000000000000000000000000000000000000000000000000000006030600a8a06010291849190811061302757fe5b9060200101907effffffffffffffffffffffffffffffffffffffffffffffffffffffffffffff1916908160001a905350600a86049550612fe4565b8194505b50505050919050565b7f7b58b2a669d8e0992eae9eaef641092c0f686fd31070e7236865557fa1571b5b60005260026020527f89d1797768793589e5608ebd54bdc3a99b59edcb38eb27eb2b8e05466743118c805473ffffffffffffffffffffffffffffffffffffffff1916600160a060020a0392909216919091179055565b7fe34bb2103dc34f2c144cc216c132d6ffb55dac57575c22e089161bbe6508330460009081526020527f9f204e482014519ec310a8e752d4b19f9e9c5b073985c5f7fe150987771c9f0f55565b7f7f0fcd9e49860f055dd0c1682d635d309ecb5e3011654c716d9eb59a7ddec7d2600090815260208190527f79cf5d7509b8972cfd9e9247b5a44821920518657d3bdf01549a471d922830239190915590565b604080518082018252906002908290803883395091929150505600a165627a7a723058209d5cc204bba7869dc79bdd00b70697de7722243dc6819abb08670f8afbe36b920029",
  "source": "pragma solidity 0.4.24;\n\nimport \"../upgradeable_contracts/arbitrary_message/ForeignAMBWithGasToken.sol\";\n\n/**\n* @title ForeignAMBWithGasTokenMock\n* @dev Wrapper on ForeignAMB contract, which supports minting gas tokens while passing messages\n*/\ncontract ForeignAMBWithGasTokenMock is ForeignAMBWithGasToken {\n    function gasToken() public pure returns (IGasToken) {\n        // Address generated in unit test, also hardcoded in GasTokenMock\n        return IGasToken(0xEC8bE1A5630364292E56D01129E8ee8A9578d7D8);\n    }\n\n    function collectGasTokens() external {\n        _collectGasTokens();\n    }\n}\n",
  "sourcePath": "/Users/max/Projects/Symblox/TokenBridge/tokenbridge/contracts/contracts/mocks/ForeignAMBWithGasTokenMock.sol",
  "compiler": {
    "name": "solc",
    "version": "0.4.24+commit.e67f0147.Emscripten.clang"
  },
  "schemaVersion": "3.1.0",
  "updatedAt": "2020-11-26T16:22:39.668Z",
  "devdoc": {
    "methods": {
      "_sendMessage(address,bytes,uint256,uint256)": {
        "details": "Initiates sending of an AMB message to the opposite network",
        "params": {
          "_contract": "executor address on the other side",
          "_data": "calldata passed to the executor on the other side",
          "_dataType": "AMB message dataType to be included as a part of the header",
          "_gas": "gas limit used on the other network for executing a message"
        }
      },
      "decimalShift()": {
        "details": "Returns the value of foreign-to-home decimal shift.",
        "return": "decimal shift."
      },
      "destinationChainId()": {
        "return": "chain id for the destination network"
      },
      "executeSignatures(bytes,bytes)": {
        "details": "Validates provided signatures and relays a given message",
        "params": {
          "_data": "bytes to be relayed",
          "_signatures": "bytes blob with signatures to be validated"
        }
      },
      "failedMessageDataHash(bytes32)": {
        "details": "Returns a data hash of the failed message that came from the other side. NOTE: dataHash was used previously to identify outgoing message before AMB message id was introduced. It is kept for backwards compatibility with old mediators contracts.",
        "params": {
          "_messageId": "id of the message from the other side that triggered a call."
        },
        "return": "keccak256 hash of message data."
      },
      "failedMessageReceiver(bytes32)": {
        "details": "Returns a receiver address of the failed message that came from the other side.",
        "params": {
          "_messageId": "id of the message from the other side that triggered a call."
        },
        "return": "receiver address."
      },
      "failedMessageSender(bytes32)": {
        "details": "Returns a sender address of the failed message that came from the other side.",
        "params": {
          "_messageId": "id of the message from the other side that triggered a call."
        },
        "return": "sender address on the other side."
      },
      "gasTokenReceiver()": {
        "return": "Configured gas token receiver"
      },
      "gasTokenTargetMintValue()": {
        "return": "Configured gas token target mint value"
      },
      "getBridgeInterfacesVersion()": {
        "return": "(major, minor, patch) version triple"
      },
      "getMinimumGasUsage(bytes)": {
        "details": "Returns a lower limit on gas limit for the particular message data",
        "params": {
          "_data": "calldata passed to the executor on the other side"
        }
      },
      "initialize(uint256,uint256,address,uint256,uint256,uint256,address)": {
        "params": {
          "_destinationChainId": "chain id of a network where all outgoing messages are directed",
          "_gasPrice": "default gas price used by oracles for sending transactions in this network",
          "_maxGasPerTx": "maximum amount of gas per one message execution",
          "_owner": "address of new bridge owner",
          "_requiredBlockConfirmations": "number of block confirmations oracle will wait before processing passed messages",
          "_sourceChainId": "chain id of a network where this contract is deployed",
          "_validatorContract": "address of the validators contract"
        }
      },
      "messageCallStatus(bytes32)": {
        "details": "Returns a status of the message that came from the other side.",
        "params": {
          "_messageId": "id of the message from the other side that triggered a call."
        },
        "return": "true if call executed successfully."
      },
      "messageId()": {
        "details": "Returns an id of the currently processed message.",
        "return": "id of the message that originated on the other side."
      },
      "messageSender()": {
        "details": "Returns an address of the sender on the other side for the currently processed message. Can be used by executors for getting other side caller address.",
        "return": "address of the sender on the other side."
      },
      "messageSourceChainId()": {
        "details": "Returns an originating chain id of the currently processed message.",
        "return": "source chain id of the message that originated on the other side."
      },
      "owner()": {
        "details": "Tells the address of the owner",
        "return": "the address of the owner"
      },
      "setChainIds(uint256,uint256)": {
        "params": {
          "_destinationChainId": "chain id for opposite network",
          "_sourceChainId": "chain id for current network"
        }
      },
      "setGasPrice(uint256)": {
        "details": "Public setter for fallback gas price value. Only bridge owner can call this method.",
        "params": {
          "_gasPrice": "new value for the gas price."
        }
      },
      "setGasTokenParameters(uint256,address)": {
        "details": "Updates gas token related parameters, target mint value and token receiver",
        "params": {
          "_receiver": "receiver of minted gas token",
          "_targetMintValue": "target amount of token to mint/transfer during one call to _collectGasTokens"
        }
      },
      "setGasTokenReceiver(address)": {
        "details": "Updates gas token receiver",
        "params": {
          "_receiver": "receiver of minted gas token"
        }
      },
      "setGasTokenTargetMintValue(uint256)": {
        "details": "Updates gas token target mint value",
        "params": {
          "_targetMintValue": "target amount of token to mint/transfer during one call to _collectGasTokens"
        }
      },
      "sourceChainId()": {
        "return": "chain id for the current network"
      },
      "transactionHash()": {
        "details": "Returns an id of the currently processed message. NOTE: transactionHash was used previously to identify incoming message before AMB message id was introduced. It is kept for backwards compatibility with old mediators contracts, although it doesn't return txHash anymore.",
        "return": "id of the message that originated on the other side."
      },
      "transferOwnership(address)": {
        "details": "Allows the current owner to transfer control of the contract to a newOwner.",
        "params": {
          "newOwner": "the address to transfer ownership to."
        }
      }
    },
    "title": "ForeignAMBWithGasTokenMock"
  },
  "userdoc": {
    "methods": {
      "destinationChainId()": {
        "notice": "Internal function for retrieving chain id for the destination network"
      },
      "getBridgeInterfacesVersion()": {
        "notice": "Returns currently used bridge version"
      },
      "initialize(uint256,uint256,address,uint256,uint256,uint256,address)": {
        "notice": "Initializes AMB contract"
      },
      "setChainIds(uint256,uint256)": {
        "notice": "Updates chain ids of used networks"
      },
      "sourceChainId()": {
        "notice": "Internal function for retrieving chain id for the source network"
      }
    }
  }
}