{
  "contractName": "ForeignFeeManagerAMBNativeToErc20",
  "abi": [
    {
      "constant": false,
      "inputs": [
        {
          "name": "_account",
          "type": "address"
        }
      ],
      "name": "removeRewardAccount",
      "outputs": [
        {
          "name": "",
          "type": "bool"
        }
      ],
      "payable": false,
      "stateMutability": "nonpayable",
      "type": "function"
    },
    {
      "constant": true,
      "inputs": [],
      "name": "rewardAccountsCount",
      "outputs": [
        {
          "name": "",
          "type": "uint256"
        }
      ],
      "payable": false,
      "stateMutability": "view",
      "type": "function"
    },
    {
      "constant": false,
      "inputs": [
        {
          "name": "_fee",
          "type": "uint256"
        }
      ],
      "name": "setFee",
      "outputs": [],
      "payable": false,
      "stateMutability": "nonpayable",
      "type": "function"
    },
    {
      "constant": false,
      "inputs": [],
      "name": "renounceOwnership",
      "outputs": [],
      "payable": false,
      "stateMutability": "nonpayable",
      "type": "function"
    },
    {
      "constant": true,
      "inputs": [],
      "name": "owner",
      "outputs": [
        {
          "name": "",
          "type": "address"
        }
      ],
      "payable": false,
      "stateMutability": "view",
      "type": "function"
    },
    {
      "constant": true,
      "inputs": [
        {
          "name": "_value",
          "type": "uint256"
        }
      ],
      "name": "calculateFee",
      "outputs": [
        {
          "name": "",
          "type": "uint256"
        }
      ],
      "payable": false,
      "stateMutability": "view",
      "type": "function"
    },
    {
      "constant": false,
      "inputs": [
        {
          "name": "",
          "type": "address"
        },
        {
          "name": "_value",
          "type": "uint256"
        },
        {
          "name": "",
          "type": "bytes"
        }
      ],
      "name": "onTokenTransfer",
      "outputs": [
        {
          "name": "",
          "type": "bool"
        }
      ],
      "payable": false,
      "stateMutability": "nonpayable",
      "type": "function"
    },
    {
      "constant": true,
      "inputs": [],
      "name": "fee",
      "outputs": [
        {
          "name": "",
          "type": "uint256"
        }
      ],
      "payable": false,
      "stateMutability": "view",
      "type": "function"
    },
    {
      "constant": false,
      "inputs": [
        {
          "name": "_account",
          "type": "address"
        }
      ],
      "name": "addRewardAccount",
      "outputs": [],
      "payable": false,
      "stateMutability": "nonpayable",
      "type": "function"
    },
    {
      "constant": false,
      "inputs": [
        {
          "name": "_newOwner",
          "type": "address"
        }
      ],
      "name": "transferOwnership",
      "outputs": [],
      "payable": false,
      "stateMutability": "nonpayable",
      "type": "function"
    },
    {
      "constant": true,
      "inputs": [],
      "name": "token",
      "outputs": [
        {
          "name": "",
          "type": "address"
        }
      ],
      "payable": false,
      "stateMutability": "view",
      "type": "function"
    },
    {
      "constant": true,
      "inputs": [],
      "name": "rewardAccountsList",
      "outputs": [
        {
          "name": "",
          "type": "address[]"
        }
      ],
      "payable": false,
      "stateMutability": "view",
      "type": "function"
    },
    {
      "inputs": [
        {
          "name": "_owner",
          "type": "address"
        },
        {
          "name": "_fee",
          "type": "uint256"
        },
        {
          "name": "_rewardAccountList",
          "type": "address[]"
        },
        {
          "name": "_mediatorContract",
          "type": "address"
        },
        {
          "name": "_token",
          "type": "address"
        }
      ],
      "payable": false,
      "stateMutability": "nonpayable",
      "type": "constructor"
    },
    {
      "anonymous": false,
      "inputs": [
        {
          "indexed": false,
          "name": "fee",
          "type": "uint256"
        }
      ],
      "name": "FeeUpdated",
      "type": "event"
    },
    {
      "anonymous": false,
      "inputs": [
        {
          "indexed": true,
          "name": "previousOwner",
          "type": "address"
        }
      ],
      "name": "OwnershipRenounced",
      "type": "event"
    },
    {
      "anonymous": false,
      "inputs": [
        {
          "indexed": true,
          "name": "previousOwner",
          "type": "address"
        },
        {
          "indexed": true,
          "name": "newOwner",
          "type": "address"
        }
      ],
      "name": "OwnershipTransferred",
      "type": "event"
    },
    {
      "constant": false,
      "inputs": [
        {
          "name": "_newToken",
          "type": "address"
        }
      ],
      "name": "setToken",
      "outputs": [],
      "payable": false,
      "stateMutability": "nonpayable",
      "type": "function"
    }
  ],
  "bytecode": "0x60806040523480156200001157600080fd5b5060405162000dce38038062000dce83398101604090815281516020830151918301516060840151608085015160008054600160a060020a031916331781559395929092019290919085908590859085906200007b82640100000000620009086200017f82021704565b15156200008757600080fd5b600083511180156200009b57506032835111155b1515620000a757600080fd5b620000bb8564010000000062000187810204565b620000cf84640100000000620001f8810204565b5060038054600160a060020a031916600160a060020a03831617905560005b82518110156200013f576200012a83828151811015156200010b57fe5b906020019060200201516200024a640100000000026401000000009004565b15156200013657600080fd5b600101620000ee565b825162000154906002906020860190620002c0565b505050505050620001748162000279640100000000026401000000009004565b505050505062000354565b6000903b1190565b600160a060020a03811615156200019d57600080fd5b60008054604051600160a060020a03808516939216917f8be0079c531659141344cd1fd0a4f28419497f9722a3daafe3b4186f6b6457e091a360008054600160a060020a031916600160a060020a0392909216919091179055565b80670de0b6b3a764000081106200020e57600080fd5b60018290556040805183815290517f8c4d35e54a3f2ef1134138fd8ea3daee6a3c89e10d2665996babdf70261e2c769181900360200190a15050565b6000600160a060020a03821615801590620002735750600354600160a060020a03838116911614155b92915050565b6200029281640100000000620009086200017f82021704565b15156200029e57600080fd5b60048054600160a060020a031916600160a060020a0392909216919091179055565b82805482825590600052602060002090810192821562000318579160200282015b82811115620003185782518254600160a060020a031916600160a060020a03909116178255602090920191600190910190620002e1565b50620003269291506200032a565b5090565b6200035191905b8082111562000326578054600160a060020a031916815560010162000331565b90565b610a6a80620003646000396000f3006080604052600436106100c45763ffffffff7c0100000000000000000000000000000000000000000000000000000000600035041663144fa6d781146100c95780634692d9b4146100ec5780635ab73f011461012157806369fe0e2d14610148578063715018a6146101605780638da5cb5b1461017557806399a5d747146101a6578063a4c0ed36146101be578063ddca3f43146101ef578063e219bdc614610204578063f2fde38b14610225578063fc0c546a14610246578063fdcbe9cd1461025b575b600080fd5b3480156100d557600080fd5b506100ea600160a060020a03600435166102c0565b005b3480156100f857600080fd5b5061010d600160a060020a03600435166102e3565b604080519115158252519081900360200190f35b34801561012d57600080fd5b5061013661041c565b60408051918252519081900360200190f35b34801561015457600080fd5b506100ea600435610423565b34801561016c57600080fd5b506100ea610443565b34801561018157600080fd5b5061018a6104af565b60408051600160a060020a039092168252519081900360200190f35b3480156101b257600080fd5b506101366004356104be565b3480156101ca57600080fd5b5061010d60048035600160a060020a03169060248035916044359182019101356104f3565b3480156101fb57600080fd5b50610136610509565b34801561021057600080fd5b506100ea600160a060020a036004351661050f565b34801561023157600080fd5b506100ea600160a060020a03600435166105bb565b34801561025257600080fd5b5061018a6105db565b34801561026757600080fd5b506102706105ea565b60408051602080825283518183015283519192839290830191858101910280838360005b838110156102ac578181015183820152602001610294565b505050509050019250505060405180910390f35b600054600160a060020a031633146102d757600080fd5b6102e08161064c565b50565b6000805481908190600160a060020a031633146102ff57600080fd5b61030761041c565b9150600090505b818110156100c45783600160a060020a031660028281548110151561032f57fe5b600091825260209091200154600160a060020a0316141561040d5760028054600019840190811061035c57fe5b60009182526020909120015460028054600160a060020a03909216918390811061038257fe5b6000918252602090912001805473ffffffffffffffffffffffffffffffffffffffff1916600160a060020a03929092169190911790556002805460001984019081106103ca57fe5b6000918252602090912001805473ffffffffffffffffffffffffffffffffffffffff1916905560028054906104039060001983016109f7565b5060019250610415565b60010161030e565b5050919050565b6002545b90565b600054600160a060020a0316331461043a57600080fd5b6102e08161068f565b600054600160a060020a0316331461045a57600080fd5b60008054604051600160a060020a03909116917ff8df31144d9c2f0f6b59d69b8b98abd5459d07f2742c4df920b25aae33c6482091a26000805473ffffffffffffffffffffffffffffffffffffffff19169055565b600054600160a060020a031681565b60006104ed670de0b6b3a76400006104e1600154856106e090919063ffffffff16565b9063ffffffff61070916565b92915050565b60006104fe8461071e565b506001949350505050565b60015481565b600054600160a060020a0316331461052657600080fd5b61052f816107fd565b151561053a57600080fd5b61054381610828565b1561054d57600080fd5b60025460321161055c57600080fd5b600280546001810182556000919091527f405787fa12a823e0f2b7631cc41b3ba8828b3321ca811111fa75cd3aa3bb5ace01805473ffffffffffffffffffffffffffffffffffffffff1916600160a060020a0392909216919091179055565b600054600160a060020a031633146105d257600080fd5b6102e08161088b565b600454600160a060020a031681565b6060600280548060200260200160405190810160405280929190818152602001828054801561064257602002820191906000526020600020905b8154600160a060020a03168152600190910190602001808311610624575b5050505050905090565b61065581610908565b151561066057600080fd5b6004805473ffffffffffffffffffffffffffffffffffffffff1916600160a060020a0392909216919091179055565b80670de0b6b3a764000081106106a457600080fd5b60018290556040805183815290517f8c4d35e54a3f2ef1134138fd8ea3daee6a3c89e10d2665996babdf70261e2c769181900360200190a15050565b60008215156106f1575060006104ed565b5081810281838281151561070157fe5b04146104ed57fe5b6000818381151561071657fe5b049392505050565b60008060008060008061072f61041c565b955085151561073d576107f4565b61074d878763ffffffff61070916565b945061076f610762868863ffffffff6106e016565b889063ffffffff61091016565b925060008311156107865761078386610922565b93505b600091505b858210156107f45750836000831180156107a457508184145b156107bc576107b9818463ffffffff61094716565b90505b6107e96002838154811015156107ce57fe5b600091825260209091200154600160a060020a031682610954565b60019091019061078b565b50505050505050565b6000600160a060020a038216158015906104ed575050600354600160a060020a039081169116141590565b6000805b61083461041c565b8110156108805782600160a060020a031660028281548110151561085457fe5b600091825260209091200154600160a060020a031614156108785760019150610885565b60010161082c565b600091505b50919050565b600160a060020a03811615156108a057600080fd5b60008054604051600160a060020a03808516939216917f8be0079c531659141344cd1fd0a4f28419497f9722a3daafe3b4186f6b6457e091a36000805473ffffffffffffffffffffffffffffffffffffffff1916600160a060020a0392909216919091179055565b6000903b1190565b60008282111561091c57fe5b50900390565b60008161093643600163ffffffff61091016565b4081151561094057fe5b0692915050565b818101828110156104ed57fe5b60048054604080517fa9059cbb000000000000000000000000000000000000000000000000000000008152600160a060020a0386811694820194909452602481018590529051929091169163a9059cbb916044808201926020929091908290030181600087803b1580156109c757600080fd5b505af11580156109db573d6000803e3d6000fd5b505050506040513d60208110156109f157600080fd5b50505050565b815481835581811115610a1b57600083815260209020610a1b918101908301610a20565b505050565b61042091905b80821115610a3a5760008155600101610a26565b50905600a165627a7a72305820cd00bcf9187ef10dde0efee3424cb45bd2f4c15d44f42690186b3ce71cc910520029",
  "source": "pragma solidity 0.4.24;\n\nimport \"openzeppelin-solidity/contracts/token/ERC20/ERC20Basic.sol\";\nimport \"openzeppelin-solidity/contracts/AddressUtils.sol\";\nimport \"../BaseMediatorFeeManager.sol\";\n\n/**\n* @title ForeignFeeManagerAMBNativeToErc20\n* @dev Implements the logic to distribute fees from the native to erc20 mediator contract operations.\n* The fees are distributed in the form of tokens to the list of reward accounts.\n*/\ncontract ForeignFeeManagerAMBNativeToErc20 is BaseMediatorFeeManager {\n    address public token;\n\n    /**\n    * @dev Stores the initial parameters of the fee manager.\n    * @param _owner address of the owner of the fee manager contract.\n    * @param _fee the fee percentage amount.\n    * @param _rewardAccountList list of addresses that will receive the fee rewards.\n    * @param _token address of the token in which the fees will be received.\n    */\n    constructor(address _owner, uint256 _fee, address[] _rewardAccountList, address _mediatorContract, address _token)\n        public\n        BaseMediatorFeeManager(_owner, _fee, _rewardAccountList, _mediatorContract)\n    {\n        _setToken(_token);\n    }\n\n    /**\n    * @dev Sets the token address.\n    * Only the owner can call this method.\n    * @param _newToken address of the token in which the fees will be received.\n    */\n    function setToken(address _newToken) external onlyOwner {\n        _setToken(_newToken);\n    }\n\n    /**\n    * @dev Stores the token address.\n    * @param _newToken address of the token in which the fees will be received.\n    */\n    function _setToken(address _newToken) internal {\n        require(AddressUtils.isContract(_newToken));\n        token = _newToken;\n    }\n\n    /**\n    * @dev Transfer the fee amount of tokens to the reward account.\n    * @param _rewardAddress address that will receive the tokens.\n    * @param _fee amount of tokens to be transferred.\n    */\n    function onFeeDistribution(address _rewardAddress, uint256 _fee) internal {\n        ERC20Basic(token).transfer(_rewardAddress, _fee);\n    }\n}\n",
  "sourcePath": "/Users/max/Projects/Symblox/TokenBridge/tokenbridge/contracts/contracts/upgradeable_contracts/amb_native_to_erc20/ForeignFeeManagerAMBNativeToErc20.sol",
  "compiler": {
    "name": "solc",
    "version": "0.4.24+commit.e67f0147.Emscripten.clang"
  },
  "schemaVersion": "3.1.0",
  "updatedAt": "2020-11-26T16:22:39.915Z",
  "devdoc": {
    "methods": {
      "addRewardAccount(address)": {
        "details": "Adds a new account to the list of accounts to receive rewards for the operations. Only the owner can call this method.",
        "params": {
          "_account": "new reward account"
        }
      },
      "calculateFee(uint256)": {
        "details": "Calculates the fee amount to be subtracted from the value.",
        "params": {
          "_value": "the base value from which fees are calculated"
        }
      },
      "onTokenTransfer(address,uint256,bytes)": {
        "details": "ERC677 transfer callback function, received fee is distributed.",
        "params": {
          "_value": "amount of transferred tokens"
        }
      },
      "removeRewardAccount(address)": {
        "details": "Removes an account from the list of accounts to receive rewards for the operations. Only the owner can call this method. finds the element, swaps it with the last element, and then deletes it;",
        "params": {
          "_account": "to be removed return boolean whether the element was found and deleted"
        }
      },
      "renounceOwnership()": {
        "details": "Allows the current owner to relinquish control of the contract."
      },
      "rewardAccountsCount()": {
        "details": "Tells the amount of accounts in the list of reward accounts.",
        "return": "amount of accounts."
      },
      "rewardAccountsList()": {
        "details": "Tells the list of accounts that receives rewards for the operations.",
        "return": "the list of reward accounts"
      },
      "setFee(uint256)": {
        "details": "Sets the fee percentage amount for the mediator operations. Only the owner can call this method.",
        "params": {
          "_fee": "the fee percentage"
        }
      },
      "setToken(address)": {
        "details": "Sets the token address. Only the owner can call this method.",
        "params": {
          "_newToken": "address of the token in which the fees will be received."
        }
      },
      "transferOwnership(address)": {
        "details": "Allows the current owner to transfer control of the contract to a newOwner.",
        "params": {
          "_newOwner": "The address to transfer ownership to."
        }
      }
    },
    "title": "ForeignFeeManagerAMBNativeToErc20"
  },
  "userdoc": {
    "methods": {
      "renounceOwnership()": {
        "notice": "Renouncing to ownership will leave the contract without an owner. It will not be possible to call the functions with the `onlyOwner` modifier anymore."
      }
    }
  }
}