{
  "contractName": "ForeignStakeTokenMediator",
  "abi": [
    {
      "constant": false,
      "inputs": [
        {
          "name": "_receiver",
          "type": "address"
        },
        {
          "name": "_value",
          "type": "uint256"
        }
      ],
      "name": "relayTokens",
      "outputs": [],
      "payable": false,
      "stateMutability": "nonpayable",
      "type": "function"
    },
    {
      "constant": false,
      "inputs": [
        {
          "name": "_messageId",
          "type": "bytes32"
        }
      ],
      "name": "fixFailedMessage",
      "outputs": [],
      "payable": false,
      "stateMutability": "nonpayable",
      "type": "function"
    },
    {
      "constant": false,
      "inputs": [
        {
          "name": "_bridgeContract",
          "type": "address"
        }
      ],
      "name": "setBridgeContract",
      "outputs": [],
      "payable": false,
      "stateMutability": "nonpayable",
      "type": "function"
    },
    {
      "constant": true,
      "inputs": [],
      "name": "erc677token",
      "outputs": [
        {
          "name": "",
          "type": "address"
        }
      ],
      "payable": false,
      "stateMutability": "view",
      "type": "function"
    },
    {
      "constant": true,
      "inputs": [
        {
          "name": "_day",
          "type": "uint256"
        }
      ],
      "name": "totalSpentPerDay",
      "outputs": [
        {
          "name": "",
          "type": "uint256"
        }
      ],
      "payable": false,
      "stateMutability": "view",
      "type": "function"
    },
    {
      "constant": true,
      "inputs": [],
      "name": "isInitialized",
      "outputs": [
        {
          "name": "",
          "type": "bool"
        }
      ],
      "payable": false,
      "stateMutability": "view",
      "type": "function"
    },
    {
      "constant": false,
      "inputs": [
        {
          "name": "_dailyLimit",
          "type": "uint256"
        }
      ],
      "name": "setExecutionDailyLimit",
      "outputs": [],
      "payable": false,
      "stateMutability": "nonpayable",
      "type": "function"
    },
    {
      "constant": true,
      "inputs": [],
      "name": "getCurrentDay",
      "outputs": [
        {
          "name": "",
          "type": "uint256"
        }
      ],
      "payable": false,
      "stateMutability": "view",
      "type": "function"
    },
    {
      "constant": true,
      "inputs": [],
      "name": "getBridgeMode",
      "outputs": [
        {
          "name": "_data",
          "type": "bytes4"
        }
      ],
      "payable": false,
      "stateMutability": "pure",
      "type": "function"
    },
    {
      "constant": true,
      "inputs": [],
      "name": "executionDailyLimit",
      "outputs": [
        {
          "name": "",
          "type": "uint256"
        }
      ],
      "payable": false,
      "stateMutability": "view",
      "type": "function"
    },
    {
      "constant": true,
      "inputs": [
        {
          "name": "_day",
          "type": "uint256"
        }
      ],
      "name": "totalExecutedPerDay",
      "outputs": [
        {
          "name": "",
          "type": "uint256"
        }
      ],
      "payable": false,
      "stateMutability": "view",
      "type": "function"
    },
    {
      "constant": true,
      "inputs": [
        {
          "name": "_messageId",
          "type": "bytes32"
        }
      ],
      "name": "messageFixed",
      "outputs": [
        {
          "name": "",
          "type": "bool"
        }
      ],
      "payable": false,
      "stateMutability": "view",
      "type": "function"
    },
    {
      "constant": true,
      "inputs": [],
      "name": "dailyLimit",
      "outputs": [
        {
          "name": "",
          "type": "uint256"
        }
      ],
      "payable": false,
      "stateMutability": "view",
      "type": "function"
    },
    {
      "constant": false,
      "inputs": [
        {
          "name": "_mediatorContract",
          "type": "address"
        }
      ],
      "name": "setMediatorContractOnOtherSide",
      "outputs": [],
      "payable": false,
      "stateMutability": "nonpayable",
      "type": "function"
    },
    {
      "constant": true,
      "inputs": [],
      "name": "mediatorContractOnOtherSide",
      "outputs": [
        {
          "name": "",
          "type": "address"
        }
      ],
      "payable": false,
      "stateMutability": "view",
      "type": "function"
    },
    {
      "constant": true,
      "inputs": [
        {
          "name": "_amount",
          "type": "uint256"
        }
      ],
      "name": "withinExecutionLimit",
      "outputs": [
        {
          "name": "",
          "type": "bool"
        }
      ],
      "payable": false,
      "stateMutability": "view",
      "type": "function"
    },
    {
      "constant": true,
      "inputs": [],
      "name": "executionMaxPerTx",
      "outputs": [
        {
          "name": "",
          "type": "uint256"
        }
      ],
      "payable": false,
      "stateMutability": "view",
      "type": "function"
    },
    {
      "constant": false,
      "inputs": [
        {
          "name": "_recipient",
          "type": "address"
        },
        {
          "name": "_value",
          "type": "uint256"
        }
      ],
      "name": "handleBridgedTokens",
      "outputs": [],
      "payable": false,
      "stateMutability": "nonpayable",
      "type": "function"
    },
    {
      "constant": true,
      "inputs": [],
      "name": "owner",
      "outputs": [
        {
          "name": "",
          "type": "address"
        }
      ],
      "payable": false,
      "stateMutability": "view",
      "type": "function"
    },
    {
      "constant": true,
      "inputs": [],
      "name": "maxAvailablePerTx",
      "outputs": [
        {
          "name": "",
          "type": "uint256"
        }
      ],
      "payable": false,
      "stateMutability": "view",
      "type": "function"
    },
    {
      "constant": false,
      "inputs": [
        {
          "name": "_messageId",
          "type": "bytes32"
        }
      ],
      "name": "requestFailedMessageFix",
      "outputs": [],
      "payable": false,
      "stateMutability": "nonpayable",
      "type": "function"
    },
    {
      "constant": true,
      "inputs": [],
      "name": "getBridgeInterfacesVersion",
      "outputs": [
        {
          "name": "major",
          "type": "uint64"
        },
        {
          "name": "minor",
          "type": "uint64"
        },
        {
          "name": "patch",
          "type": "uint64"
        }
      ],
      "payable": false,
      "stateMutability": "pure",
      "type": "function"
    },
    {
      "constant": true,
      "inputs": [],
      "name": "outOfLimitAmount",
      "outputs": [
        {
          "name": "",
          "type": "uint256"
        }
      ],
      "payable": false,
      "stateMutability": "view",
      "type": "function"
    },
    {
      "constant": false,
      "inputs": [
        {
          "name": "_minPerTx",
          "type": "uint256"
        }
      ],
      "name": "setMinPerTx",
      "outputs": [],
      "payable": false,
      "stateMutability": "nonpayable",
      "type": "function"
    },
    {
      "constant": false,
      "inputs": [
        {
          "name": "_from",
          "type": "address"
        },
        {
          "name": "_value",
          "type": "uint256"
        },
        {
          "name": "_data",
          "type": "bytes"
        }
      ],
      "name": "onTokenTransfer",
      "outputs": [
        {
          "name": "",
          "type": "bool"
        }
      ],
      "payable": false,
      "stateMutability": "nonpayable",
      "type": "function"
    },
    {
      "constant": false,
      "inputs": [
        {
          "name": "messageId",
          "type": "bytes32"
        },
        {
          "name": "unlockOnOtherSide",
          "type": "bool"
        },
        {
          "name": "valueToUnlock",
          "type": "uint256"
        }
      ],
      "name": "fixAssetsAboveLimits",
      "outputs": [],
      "payable": false,
      "stateMutability": "nonpayable",
      "type": "function"
    },
    {
      "constant": false,
      "inputs": [
        {
          "name": "_dailyLimit",
          "type": "uint256"
        }
      ],
      "name": "setDailyLimit",
      "outputs": [],
      "payable": false,
      "stateMutability": "nonpayable",
      "type": "function"
    },
    {
      "constant": true,
      "inputs": [],
      "name": "requestGasLimit",
      "outputs": [
        {
          "name": "",
          "type": "uint256"
        }
      ],
      "payable": false,
      "stateMutability": "view",
      "type": "function"
    },
    {
      "constant": false,
      "inputs": [
        {
          "name": "_bridgeContract",
          "type": "address"
        },
        {
          "name": "_mediatorContract",
          "type": "address"
        },
        {
          "name": "_erc677token",
          "type": "address"
        },
        {
          "name": "_dailyLimitMaxPerTxMinPerTxArray",
          "type": "uint256[3]"
        },
        {
          "name": "_executionDailyLimitExecutionMaxPerTxArray",
          "type": "uint256[2]"
        },
        {
          "name": "_requestGasLimit",
          "type": "uint256"
        },
        {
          "name": "_decimalShift",
          "type": "int256"
        },
        {
          "name": "_owner",
          "type": "address"
        }
      ],
      "name": "initialize",
      "outputs": [
        {
          "name": "",
          "type": "bool"
        }
      ],
      "payable": false,
      "stateMutability": "nonpayable",
      "type": "function"
    },
    {
      "constant": false,
      "inputs": [
        {
          "name": "_maxPerTx",
          "type": "uint256"
        }
      ],
      "name": "setMaxPerTx",
      "outputs": [],
      "payable": false,
      "stateMutability": "nonpayable",
      "type": "function"
    },
    {
      "constant": true,
      "inputs": [],
      "name": "bridgeContract",
      "outputs": [
        {
          "name": "",
          "type": "address"
        }
      ],
      "payable": false,
      "stateMutability": "view",
      "type": "function"
    },
    {
      "constant": true,
      "inputs": [],
      "name": "decimalShift",
      "outputs": [
        {
          "name": "",
          "type": "int256"
        }
      ],
      "payable": false,
      "stateMutability": "view",
      "type": "function"
    },
    {
      "constant": true,
      "inputs": [],
      "name": "minPerTx",
      "outputs": [
        {
          "name": "",
          "type": "uint256"
        }
      ],
      "payable": false,
      "stateMutability": "view",
      "type": "function"
    },
    {
      "constant": true,
      "inputs": [
        {
          "name": "_amount",
          "type": "uint256"
        }
      ],
      "name": "withinLimit",
      "outputs": [
        {
          "name": "",
          "type": "bool"
        }
      ],
      "payable": false,
      "stateMutability": "view",
      "type": "function"
    },
    {
      "constant": false,
      "inputs": [
        {
          "name": "_maxPerTx",
          "type": "uint256"
        }
      ],
      "name": "setExecutionMaxPerTx",
      "outputs": [],
      "payable": false,
      "stateMutability": "nonpayable",
      "type": "function"
    },
    {
      "constant": false,
      "inputs": [
        {
          "name": "newOwner",
          "type": "address"
        }
      ],
      "name": "transferOwnership",
      "outputs": [],
      "payable": false,
      "stateMutability": "nonpayable",
      "type": "function"
    },
    {
      "constant": false,
      "inputs": [
        {
          "name": "_requestGasLimit",
          "type": "uint256"
        }
      ],
      "name": "setRequestGasLimit",
      "outputs": [],
      "payable": false,
      "stateMutability": "nonpayable",
      "type": "function"
    },
    {
      "constant": true,
      "inputs": [],
      "name": "maxPerTx",
      "outputs": [
        {
          "name": "",
          "type": "uint256"
        }
      ],
      "payable": false,
      "stateMutability": "view",
      "type": "function"
    },
    {
      "anonymous": false,
      "inputs": [
        {
          "indexed": true,
          "name": "messageId",
          "type": "bytes32"
        },
        {
          "indexed": false,
          "name": "recipient",
          "type": "address"
        },
        {
          "indexed": false,
          "name": "value",
          "type": "uint256"
        }
      ],
      "name": "FailedMessageFixed",
      "type": "event"
    },
    {
      "anonymous": false,
      "inputs": [
        {
          "indexed": true,
          "name": "recipient",
          "type": "address"
        },
        {
          "indexed": false,
          "name": "value",
          "type": "uint256"
        },
        {
          "indexed": true,
          "name": "messageId",
          "type": "bytes32"
        }
      ],
      "name": "TokensBridged",
      "type": "event"
    },
    {
      "anonymous": false,
      "inputs": [
        {
          "indexed": false,
          "name": "newLimit",
          "type": "uint256"
        }
      ],
      "name": "DailyLimitChanged",
      "type": "event"
    },
    {
      "anonymous": false,
      "inputs": [
        {
          "indexed": false,
          "name": "newLimit",
          "type": "uint256"
        }
      ],
      "name": "ExecutionDailyLimitChanged",
      "type": "event"
    },
    {
      "anonymous": false,
      "inputs": [
        {
          "indexed": false,
          "name": "previousOwner",
          "type": "address"
        },
        {
          "indexed": false,
          "name": "newOwner",
          "type": "address"
        }
      ],
      "name": "OwnershipTransferred",
      "type": "event"
    },
    {
      "anonymous": false,
      "inputs": [
        {
          "indexed": false,
          "name": "recipient",
          "type": "address"
        },
        {
          "indexed": false,
          "name": "value",
          "type": "uint256"
        },
        {
          "indexed": true,
          "name": "messageId",
          "type": "bytes32"
        }
      ],
      "name": "MediatorAmountLimitExceeded",
      "type": "event"
    },
    {
      "anonymous": false,
      "inputs": [
        {
          "indexed": false,
          "name": "recipient",
          "type": "address"
        },
        {
          "indexed": false,
          "name": "value",
          "type": "uint256"
        },
        {
          "indexed": true,
          "name": "transactionHash",
          "type": "bytes32"
        },
        {
          "indexed": false,
          "name": "messageId",
          "type": "bytes32"
        }
      ],
      "name": "AmountLimitExceeded",
      "type": "event"
    },
    {
      "anonymous": false,
      "inputs": [
        {
          "indexed": true,
          "name": "messageId",
          "type": "bytes32"
        },
        {
          "indexed": false,
          "name": "value",
          "type": "uint256"
        },
        {
          "indexed": false,
          "name": "remaining",
          "type": "uint256"
        }
      ],
      "name": "AssetAboveLimitsFixed",
      "type": "event"
    },
    {
      "constant": false,
      "inputs": [
        {
          "name": "_token",
          "type": "address"
        },
        {
          "name": "_to",
          "type": "address"
        }
      ],
      "name": "claimTokens",
      "outputs": [],
      "payable": false,
      "stateMutability": "nonpayable",
      "type": "function"
    }
  ],
  "bytecode": "0x608060405234801561001057600080fd5b50613508806100206000396000f3006080604052600436106101c95763ffffffff60e060020a60003504166301e4f53a81146101ce5780630950d515146101f45780630b26cf661461020c57806318d8f9c91461022d5780632bd0bb051461025e578063392e53cd146102885780633dd95d1b146102b15780633e6968b6146102c9578063437764df146102de57806343b37dd3146103285780634fb3fef71461033d578063593399821461035557806367eeba0c1461036d57806369ffa08a146103825780636e5d6bea146103a9578063871c0760146103ca578063879ce676146103df5780638aa1949a146103f75780638b6c03541461040c5780638da5cb5b1461043057806395e54a17146104455780639a4a43951461045a5780639cb7595a14610472578063a0189345146104b3578063a2a6ca27146104c8578063a4c0ed36146104e0578063a7444c0d14610511578063b20d30a914610531578063be3b625b14610549578063c0b0d0221461055e578063c6f6f216146105f3578063cd5965831461060b578063dae5f0fd14610620578063df25f3f014610635578063ea9f49681461064a578063f20151e114610662578063f2fde38b1461067a578063f3b837911461069b578063f968adbe146106b3575b600080fd5b3480156101da57600080fd5b506101f2600160a060020a03600435166024356106c8565b005b34801561020057600080fd5b506101f2600435610814565b34801561021857600080fd5b506101f2600160a060020a03600435166108e3565b34801561023957600080fd5b5061024261090b565b60408051600160a060020a039092168252519081900360200190f35b34801561026a57600080fd5b5061027660043561091a565b60408051918252519081900360200190f35b34801561029457600080fd5b5061029d6109d7565b604080519115158252519081900360200190f35b3480156102bd57600080fd5b506101f2600435610a28565b3480156102d557600080fd5b50610276610ae8565b3480156102ea57600080fd5b506102f3610af1565b604080517fffffffff000000000000000000000000000000000000000000000000000000009092168252519081900360200190f35b34801561033457600080fd5b50610276610b15565b34801561034957600080fd5b50610276600435610b63565b34801561036157600080fd5b5061029d600435610bde565b34801561037957600080fd5b50610276610ca7565b34801561038e57600080fd5b506101f2600160a060020a0360043581169060243516610cf5565b3480156103b557600080fd5b506101f2600160a060020a0360043516610da1565b3480156103d657600080fd5b50610242610dc6565b3480156103eb57600080fd5b5061029d600435610e1d565b34801561040357600080fd5b50610276610e67565b34801561041857600080fd5b506101f2600160a060020a0360043516602435610eb5565b34801561043c57600080fd5b50610242610f35565b34801561045157600080fd5b50610276610f8c565b34801561046657600080fd5b506101f2600435610fe6565b34801561047e57600080fd5b50610487611337565b6040805167ffffffffffffffff9485168152928416602084015292168183015290519081900360600190f35b3480156104bf57600080fd5b50610276611342565b3480156104d457600080fd5b506101f2600435611390565b3480156104ec57600080fd5b5061029d60048035600160a060020a031690602480359160443591820191013561142c565b34801561051d57600080fd5b506101f260043560243515156044356114c9565b34801561053d57600080fd5b506101f260043561162c565b34801561055557600080fd5b506102766116ec565b34801561056a57600080fd5b5060408051606081810190925261029d91600160a060020a03600480358216936024358316936044359093169236929160c49160649060039083908390808284375050604080518082018252949796958181019594509250600291508390839080828437509396505083359450505060208201359160400135600160a060020a0316905061173a565b3480156105ff57600080fd5b506101f2600435611906565b34801561061757600080fd5b5061024261199e565b34801561062c57600080fd5b506102766119f5565b34801561064157600080fd5b50610276611a43565b34801561065657600080fd5b5061029d600435611a91565b34801561066e57600080fd5b506101f2600435611adc565b34801561068657600080fd5b506101f2600160a060020a0360043516611b58565b3480156106a757600080fd5b506101f2600435611b7d565b3480156106bf57600080fd5b50610276611ba2565b6000806106d3611bf0565b156106dd57600080fd5b6106e561090b565b91503090506106f383611a91565b15156106fe57600080fd5b61070f610709610ae8565b84611c41565b6107196001611d0a565b604080517f23b872dd000000000000000000000000000000000000000000000000000000008152336004820152600160a060020a038381166024830152604482018690529151918416916323b872dd916064808201926020929091908290030181600087803b15801561078b57600080fd5b505af115801561079f573d6000803e3d6000fd5b505050506040513d60208110156107b557600080fd5b506107c290506000611d0a565b61080e823385876040516020018082600160a060020a0316600160a060020a03166c01000000000000000000000000028152601401915050604051602081830303815290604052611d65565b50505050565b60008061081f61199e565b600160a060020a0316331461083357600080fd5b61083b610dc6565b600160a060020a031661084c611d87565b600160a060020a03161461085f57600080fd5b61086883610bde565b1561087257600080fd5b61087b83611dff565b915061088683611ece565b905061089183611f51565b61089b8282612023565b60408051600160a060020a038416815260208101839052815185927f06297b0797e3363e96e454edd4ab62862051bf559a7a431ce09415306771d133928290030190a2505050565b6108eb610f35565b600160a060020a031633146108ff57600080fd5b6109088161202d565b50565b60006109156120b8565b905090565b60008060008360405160200180807f746f74616c5370656e74506572446179000000000000000000000000000000008152506010018281526020019150506040516020818303038152906040526040518082805190602001908083835b602083106109965780518252601f199092019160209182019101610977565b51815160209384036101000a600019018019909216911617905260408051929094018290039091208652850195909552929092016000205495945050505050565b7f0a6f646cd611241d8073675e00d1a1ff700fbf1b53fcf473de56d1e6e4b714ba60005260046020527f078d888f9b66f3f8bfa10909e31f1e16240db73449f0500afdbbe3a70da457cc5460ff1690565b610a30610f35565b600160a060020a03163314610a4457600080fd5b610a4c610e67565b811180610a57575080155b1515610a6257600080fd5b7f21dbcab260e413c20dc13c28b7db95e2b423d1135f42bb8b7d5214a92270d237600090815260209081527fadd938dbd083a16bae12238cd914fca0afc7a30edb55b1cd5c7f1823f1b0e4218290556040805183815290517f9bebf928b90863f24cc31f726a3a7545efd409f1dcf552301b1ee3710da70d3b929181900390910190a150565b62015180420490565b7f16ea01e90000000000000000000000000000000000000000000000000000000090565b7f21dbcab260e413c20dc13c28b7db95e2b423d1135f42bb8b7d5214a92270d23760009081526020527fadd938dbd083a16bae12238cd914fca0afc7a30edb55b1cd5c7f1823f1b0e4215490565b60008060008360405160200180807f746f74616c457865637574656450657244617900000000000000000000000000815250601301828152602001915050604051602081830303815290604052604051808280519060200190808383602083106109965780518252601f199092019160209182019101610977565b6000600460008360405160200180807f6d65737361676546697865640000000000000000000000000000000000000000815250600c0182600019166000191681526020019150506040516020818303038152906040526040518082805190602001908083835b60208310610c635780518252601f199092019160209182019101610c44565b51815160209384036101000a600019018019909216911617905260408051929094018290039091208652850195909552929092016000205460ff1695945050505050565b7f4a6a899679f26b73530d8cf1001e83b6f7702e04b6fdb98f3c62dc7e47e041a560009081526020527f1ab29a5cca988aee50edccdd61c5bcaa7ad4b29a03b7ee50f298ceccfe14cc4e5490565b30600160a060020a0316636fde82026040518163ffffffff1660e060020a028152600401602060405180830381600087803b158015610d3357600080fd5b505af1158015610d47573d6000803e3d6000fd5b505050506040513d6020811015610d5d57600080fd5b5051600160a060020a03163314610d7357600080fd5b610d7b6120b8565b600160a060020a0383811691161415610d9357600080fd5b610d9d828261210f565b5050565b610da9610f35565b600160a060020a03163314610dbd57600080fd5b61090881612152565b7f98aa806e31e94a687a31c65769cb99670064dd7f5a87526da075c5fb4eab988060005260026020527f0c1206883be66049a02d4937078367c00b3d71dd1a9465df969363c6ddeac96d54600160a060020a031690565b600080610e4083610e34610e2f610ae8565b610b63565b9063ffffffff6121c916565b905080610e4b610b15565b10158015610e605750610e5c610e67565b8311155b9392505050565b7fc0ed44c192c86d1cc1ba51340b032c2766b4a2b0041031de13c46dd7104888d560009081526020527ff8e983ee86e5e377e9e34c9131b266382c3f04113d20de077f9e12663c7a646b5490565b610ebd61199e565b600160a060020a03163314610ed157600080fd5b610ed9610dc6565b600160a060020a0316610eea611d87565b600160a060020a031614610efd57600080fd5b610f0681610e1d565b15610f2b57610f1c610f16610ae8565b826121dc565b610f268282612262565b610d9d565b610d9d82826122ca565b7f02016836a56b71f0d02689e69e326f4f4c1b9057164ef592671cf0d37c8040c060005260026020527fb7802e97e87ef2842a6cce7da7ffaeaedaa2f61a6a7870b23d9d01fc9b73712e54600160a060020a031690565b6000806000806000610f9c611ba2565b9350610fa6610ca7565b9250610fb8610fb3610ae8565b61091a565b9150818311610fc8576000610fcc565b8183035b9050808410610fdb5780610fdd565b835b94505050505090565b60006060610ff261199e565b600160a060020a031663cb08a10c846040518263ffffffff1660e060020a028152600401808260001916600019168152602001915050602060405180830381600087803b15801561104257600080fd5b505af1158015611056573d6000803e3d6000fd5b505050506040513d602081101561106c57600080fd5b50511561107857600080fd5b3061108161199e565b600160a060020a0316633f9a8e7e856040518263ffffffff1660e060020a028152600401808260001916600019168152602001915050602060405180830381600087803b1580156110d157600080fd5b505af11580156110e5573d6000803e3d6000fd5b505050506040513d60208110156110fb57600080fd5b5051600160a060020a03161461111057600080fd5b611118610dc6565b600160a060020a031661112961199e565b600160a060020a0316634a610b04856040518263ffffffff1660e060020a028152600401808260001916600019168152602001915050602060405180830381600087803b15801561117957600080fd5b505af115801561118d573d6000803e3d6000fd5b505050506040513d60208110156111a357600080fd5b5051600160a060020a0316146111b857600080fd5b50506040805160248082018490528251808303909101815260449091019091526020810180517bffffffffffffffffffffffffffffffffffffffffffffffffffffffff167f0950d515000000000000000000000000000000000000000000000000000000009081179091529061122c61199e565b600160a060020a031663dc8601b3611242610dc6565b8361124b6116ec565b6040518463ffffffff1660e060020a0281526004018084600160a060020a0316600160a060020a0316815260200180602001838152602001828103825284818151815260200191508051906020019080838360005b838110156112b85781810151838201526020016112a0565b50505050905090810190601f1680156112e55780820380516001836020036101000a031916815260200191505b50945050505050602060405180830381600087803b15801561130657600080fd5b505af115801561131a573d6000803e3d6000fd5b505050506040513d602081101561133057600080fd5b5050505050565b600160026000909192565b7f145286dc85799b6fb9fe322391ba2d95683077b2adf34dd576dedc437e537ba760009081526020527fba10c7a68bf463c41368d64adcf7df23c0de931ea3b09f061e2dfec302fef95f5490565b611398610f35565b600160a060020a031633146113ac57600080fd5b6000811180156113c257506113bf610ca7565b81105b80156113d457506113d1611ba2565b81105b15156113df57600080fd5b7fbbb088c505d18e049d114c7c91f11724e69c55ad6c5397e2b929e68b41fa05d160009081526020527f8df5c48c6b6e11d97548adc824ba0c99103ec09830fa5d53a179984085e6eaa055565b60008061143761090b565b905033600160a060020a0382161461144e57600080fd5b611456611bf0565b15156114815761146585611a91565b151561147057600080fd5b61148161147b610ae8565b86611c41565b6114bd81878787878080601f01602080910402602001604051908101604052809392919081815260200183838082843750611d65945050505050565b50600195945050505050565b600080600030600160a060020a0316636fde82026040518163ffffffff1660e060020a028152600401602060405180830381600087803b15801561150c57600080fd5b505af1158015611520573d6000803e3d6000fd5b505050506040513d602081101561153657600080fd5b5051600160a060020a0316331461154c57600080fd5b6115558661236b565b9093509150600160a060020a038316158015906115725750600082115b801561157e5750838210155b151561158957600080fd5b6115a96115a485611598611342565b9063ffffffff6124f216565b612504565b6115b9828563ffffffff6124f216565b90506115c58187612551565b6040805185815260208101839052815188927f5bcec6564fe8d2cbb4e4eb8237510ceb6b291a5c2ee2e429948d25e9c924c1fa928290030190a284156116245761160d611ba2565b84111561161957600080fd5b6116248384866125d3565b505050505050565b611634610f35565b600160a060020a0316331461164857600080fd5b611650611ba2565b81118061165b575080155b151561166657600080fd5b7f4a6a899679f26b73530d8cf1001e83b6f7702e04b6fdb98f3c62dc7e47e041a5600090815260209081527f1ab29a5cca988aee50edccdd61c5bcaa7ad4b29a03b7ee50f298ceccfe14cc4e8290556040805183815290517fad4123ae17c414d9c6d2fec478b402e6b01856cc250fd01fbfd252fda0089d3c929181900390910190a150565b7f2dfd6c9f781bb6bbb5369c114e949b69ebb440ef3d4dd6b2836225eb1dc3a2be60009081526020527f2de0d2cdc19d356cb53b5984f91bfd3b31fe0c678a0d190a6db39274bb34753f5490565b60408051600481526024810182526020810180517bffffffffffffffffffffffffffffffffffffffffffffffffffffffff167f6fde8202000000000000000000000000000000000000000000000000000000001781529151815160009330939291829190808383895b838110156117bb5781810151838201526020016117a3565b50505050905090810190601f1680156117e85780820380516001836020036101000a031916815260200191505b509150506000604051808303816000865af1915050158061187a575030600160a060020a0316636fde82026040518163ffffffff1660e060020a028152600401602060405180830381600087803b15801561184257600080fd5b505af1158015611856573d6000803e3d6000fd5b505050506040513d602081101561186c57600080fd5b5051600160a060020a031633145b8061188457503330145b151561188f57600080fd5b6118976109d7565b156118a157600080fd5b6118aa8961202d565b6118b388612152565b6118bc87612772565b6118c5866127fd565b6118ce8561295a565b6118d784612a2f565b6118e083612a90565b6118e982612af9565b6118f1612bd0565b6118f96109d7565b9998505050505050505050565b61190e610f35565b600160a060020a0316331461192257600080fd5b8015806119465750611932611a43565b811180156119465750611943610ca7565b81105b151561195157600080fd5b7f0f8803acad17c63ee38bf2de71e1888bc7a079a6f73658e274b08018bea4e29c60009081526020527f9de0f81379b4d8e60fe509315d071b56e7b732abaf193e74e0d15808b0951d0955565b7f811bbb11e8899da471f0e69a3ed55090fc90215227fc5fb1cb0d6e962ea7b74f60005260026020527fb4ed64697d3ef8518241966f7c6f28b0d72f20f51198717d198d2d55076c593d54600160a060020a031690565b7f1e8ecaafaddea96ed9ac6d2642dcdfe1bebe58a930b1085842d8fc122b371ee560009081526020527fd5c78dd9468716ca9bb96be25d56436811b20aab3523a9904b12deef1cab239d5490565b7fbbb088c505d18e049d114c7c91f11724e69c55ad6c5397e2b929e68b41fa05d160009081526020527f8df5c48c6b6e11d97548adc824ba0c99103ec09830fa5d53a179984085e6eaa05490565b600080611aa383610e34610fb3610ae8565b905080611aae610ca7565b10158015611ac35750611abf611ba2565b8311155b8015610e605750611ad2611a43565b9092101592915050565b611ae4610f35565b600160a060020a03163314611af857600080fd5b611b00610b15565b8110611b0b57600080fd5b7fc0ed44c192c86d1cc1ba51340b032c2766b4a2b0041031de13c46dd7104888d560009081526020527ff8e983ee86e5e377e9e34c9131b266382c3f04113d20de077f9e12663c7a646b55565b611b60610f35565b600160a060020a03163314611b7457600080fd5b61090881612af9565b611b85610f35565b600160a060020a03163314611b9957600080fd5b61090881612a2f565b7f0f8803acad17c63ee38bf2de71e1888bc7a079a6f73658e274b08018bea4e29c60009081526020527f9de0f81379b4d8e60fe509315d071b56e7b732abaf193e74e0d15808b0951d095490565b7f6168652c307c1e813ca11cfb3a601f1cf3b22452021a5052d8b05f1f1f8a3e9260005260046020527fcb8d022f2163402334a4962e3279c5def3417d3d8dab9e27ba26e81e3f8337845460ff1690565b611c4e81610e348461091a565b6000808460405160200180807f746f74616c5370656e74506572446179000000000000000000000000000000008152506010018281526020019150506040516020818303038152906040526040518082805190602001908083835b60208310611cc85780518252601f199092019160209182019101611ca9565b51815160209384036101000a60001901801990921691161790526040805192909401829003909120865285019590955292909201600020939093555050505050565b7f6168652c307c1e813ca11cfb3a601f1cf3b22452021a5052d8b05f1f1f8a3e9260005260046020527fcb8d022f2163402334a4962e3279c5def3417d3d8dab9e27ba26e81e3f833784805460ff1916911515919091179055565b611d6d611bf0565b151561080e5761080e83611d818584612c27565b846125d3565b6000611d9161199e565b600160a060020a031663d67bdd256040518163ffffffff1660e060020a028152600401602060405180830381600087803b158015611dce57600080fd5b505af1158015611de2573d6000803e3d6000fd5b505050506040513d6020811015611df857600080fd5b5051905090565b6000600260008360405160200180807f6d657373616765526563697069656e740000000000000000000000000000000081525060100182600019166000191681526020019150506040516020818303038152906040526040518082805190602001908083835b60208310611e845780518252601f199092019160209182019101611e65565b51815160209384036101000a6000190180199092169116179052604080519290940182900390912086528501959095529290920160002054600160a060020a031695945050505050565b60008060008360405160200180807f6d65737361676556616c75650000000000000000000000000000000000000000815250600c018260001916600019168152602001915050604051602081830303815290604052604051808280519060200190808383602083106109965780518252601f199092019160209182019101610977565b6001600460008360405160200180807f6d65737361676546697865640000000000000000000000000000000000000000815250600c0182600019166000191681526020019150506040516020818303038152906040526040518082805190602001908083835b60208310611fd65780518252601f199092019160209182019101611fb7565b51815160209384036101000a60001901801990921691161790526040805192909401829003909120865285019590955292909201600020805460ff19169415159490941790935550505050565b610d9d8282612c81565b61203681612f51565b151561204157600080fd5b7f811bbb11e8899da471f0e69a3ed55090fc90215227fc5fb1cb0d6e962ea7b74f60005260026020527fb4ed64697d3ef8518241966f7c6f28b0d72f20f51198717d198d2d55076c593d805473ffffffffffffffffffffffffffffffffffffffff1916600160a060020a0392909216919091179055565b7fa8b0ade3e2b734f043ce298aca4cc8d19d74270223f34531d0988b7d00cba21d60005260026020527f603cd9dcbfa185d5c37504f4c8b3f16117ed744fba48d08b7aad44a162af1c9354600160a060020a031690565b80600160a060020a038116151561212557600080fd5b600160a060020a03831615156121435761213e82612f59565b61214d565b61214d8383612f65565b505050565b7f98aa806e31e94a687a31c65769cb99670064dd7f5a87526da075c5fb4eab988060005260026020527f0c1206883be66049a02d4937078367c00b3d71dd1a9465df969363c6ddeac96d805473ffffffffffffffffffffffffffffffffffffffff1916600160a060020a0392909216919091179055565b818101828110156121d657fe5b92915050565b6121e981610e3484610b63565b6000808460405160200180807f746f74616c45786563757465645065724461790000000000000000000000000081525060130182815260200191505060405160208183030381529060405260405180828051906020019080838360208310611cc85780518252601f199092019160209182019101611ca9565b60008061226e83613012565b9150612278613028565b90506122848483612c81565b6040805183815290518291600160a060020a038716917f2f9a6098d4503a127779ba975f5f6b04f842362b1809f346989e9abc0b4dedb69181900360200190a350505050565b60008060006122d7613028565b92506122e28361236b565b9092509050600160a060020a0382161580156122fc575080155b151561230757600080fd5b6123166115a485610e34611342565b61232185858561306f565b60408051600160a060020a038716815260208101869052815185927f3344bbb992063ed4b833dabd5d5e55fc18df085bb96654e83aafbfe22e4116ff928290030190a25050505050565b600080600260008460405160200180807f74784f75744f664c696d6974526563697069656e74000000000000000000000081525060150182600019166000191681526020019150506040516020818303038152906040526040518082805190602001908083835b602083106123f15780518252601f1990920191602091820191016123d2565b51815160209384036101000a600019018019909216911617905260408051929094018290039091208652858101969096525092830160009081205484517f74784f75744f664c696d697456616c75650000000000000000000000000000008188015260318082018b9052865180830390910181526051909101958690528051600160a060020a0390921698509195869592945091925082918401908083835b602083106124af5780518252601f199092019160209182019101612490565b51815160209384036101000a6000190180199092169116179052604080519290940182900390912086528501959095529290920160002054949694955050505050565b6000828211156124fe57fe5b50900390565b7f145286dc85799b6fb9fe322391ba2d95683077b2adf34dd576dedc437e537ba760009081526020527fba10c7a68bf463c41368d64adcf7df23c0de931ea3b09f061e2dfec302fef95f55565b816000808360405160200180807f74784f75744f664c696d697456616c7565000000000000000000000000000000815250601101826000191660001916815260200191505060405160208183030381529060405260405180828051906020019080838360208310611cc85780518252601f199092019160209182019101611ca9565b60408051600160a060020a038416602482015260448082018490528251808303909101815260649091019091526020810180517bffffffffffffffffffffffffffffffffffffffffffffffffffffffff167f8b6c03540000000000000000000000000000000000000000000000000000000090811790915290600061265661199e565b600160a060020a031663dc8601b361266c610dc6565b846126756116ec565b6040518463ffffffff1660e060020a0281526004018084600160a060020a0316600160a060020a0316815260200180602001838152602001828103825284818151815260200191508051906020019080838360005b838110156126e25781810151838201526020016126ca565b50505050905090810190601f16801561270f5780820380516001836020036101000a031916815260200191505b50945050505050602060405180830381600087803b15801561273057600080fd5b505af1158015612744573d6000803e3d6000fd5b505050506040513d602081101561275a57600080fd5b505190506127688185613165565b61162481876131e7565b61277b81612f51565b151561278657600080fd5b7fa8b0ade3e2b734f043ce298aca4cc8d19d74270223f34531d0988b7d00cba21d60005260026020527f603cd9dcbfa185d5c37504f4c8b3f16117ed744fba48d08b7aad44a162af1c93805473ffffffffffffffffffffffffffffffffffffffff1916600160a060020a0392909216919091179055565b60408101516000108015612818575060408101516020820151115b8015612828575060208101518151115b151561283357600080fd5b80517f4a6a899679f26b73530d8cf1001e83b6f7702e04b6fdb98f3c62dc7e47e041a5600090815260208181527f1ab29a5cca988aee50edccdd61c5bcaa7ad4b29a03b7ee50f298ceccfe14cc4e92909255908201517f0f8803acad17c63ee38bf2de71e1888bc7a079a6f73658e274b08018bea4e29c82527f9de0f81379b4d8e60fe509315d071b56e7b732abaf193e74e0d15808b0951d095560408201517fbbb088c505d18e049d114c7c91f11724e69c55ad6c5397e2b929e68b41fa05d182527f8df5c48c6b6e11d97548adc824ba0c99103ec09830fa5d53a179984085e6eaa0557fad4123ae17c414d9c6d2fec478b402e6b01856cc250fd01fbfd252fda0089d3c9082905b60200201516040518082815260200191505060405180910390a150565b805160208201511061296b57600080fd5b80517f21dbcab260e413c20dc13c28b7db95e2b423d1135f42bb8b7d5214a92270d237600090815260208181527fadd938dbd083a16bae12238cd914fca0afc7a30edb55b1cd5c7f1823f1b0e42192909255908201517fc0ed44c192c86d1cc1ba51340b032c2766b4a2b0041031de13c46dd7104888d582527ff8e983ee86e5e377e9e34c9131b266382c3f04113d20de077f9e12663c7a646b557f9bebf928b90863f24cc31f726a3a7545efd409f1dcf552301b1ee3710da70d3b90829061293d565b612a376132d5565b811115612a4357600080fd5b7f2dfd6c9f781bb6bbb5369c114e949b69ebb440ef3d4dd6b2836225eb1dc3a2be60009081526020527f2de0d2cdc19d356cb53b5984f91bfd3b31fe0c678a0d190a6db39274bb34753f55565b604c1981138015612aa15750604d81125b1515612aac57600080fd5b7f1e8ecaafaddea96ed9ac6d2642dcdfe1bebe58a930b1085842d8fc122b371ee560009081526020527fd5c78dd9468716ca9bb96be25d56436811b20aab3523a9904b12deef1cab239d55565b600160a060020a0381161515612b0e57600080fd5b7f8be0079c531659141344cd1fd0a4f28419497f9722a3daafe3b4186f6b6457e0612b37610f35565b60408051600160a060020a03928316815291841660208301528051918290030190a17f02016836a56b71f0d02689e69e326f4f4c1b9057164ef592671cf0d37c8040c060005260026020527fb7802e97e87ef2842a6cce7da7ffaeaedaa2f61a6a7870b23d9d01fc9b73712e805473ffffffffffffffffffffffffffffffffffffffff1916600160a060020a0392909216919091179055565b7f0a6f646cd611241d8073675e00d1a1ff700fbf1b53fcf473de56d1e6e4b714ba60005260046020527f078d888f9b66f3f8bfa10909e31f1e16240db73449f0500afdbbe3a70da457cc805460ff19166001179055565b80518290600010156121d6578151601414612c4157600080fd5b612c4a8261331c565b9050600160a060020a0381161515612c6157600080fd5b612c69613323565b600160a060020a03828116911614156121d657600080fd5b600080612c8c61090b565b604080517f70a082310000000000000000000000000000000000000000000000000000000081523060048201529051919350600160a060020a038416916370a08231916024808201926020929091908290030181600087803b158015612cf157600080fd5b505af1158015612d05573d6000803e3d6000fd5b505050506040513d6020811015612d1b57600080fd5b50519050801515612dbb5781600160a060020a03166340c10f1985856040518363ffffffff1660e060020a0281526004018083600160a060020a0316600160a060020a0316815260200182815260200192505050602060405180830381600087803b158015612d8957600080fd5b505af1158015612d9d573d6000803e3d6000fd5b505050506040513d6020811015612db357600080fd5b5061080e9050565b82811015612ec457604080517f40c10f1900000000000000000000000000000000000000000000000000000000815230600482015282850360248201529051600160a060020a038416916340c10f199160448083019260209291908290030181600087803b158015612e2c57600080fd5b505af1158015612e40573d6000803e3d6000fd5b505050506040513d6020811015612e5657600080fd5b5050604080517fa9059cbb000000000000000000000000000000000000000000000000000000008152600160a060020a0386811660048301526024820186905291519184169163a9059cbb916044808201926020929091908290030181600087803b158015612d8957600080fd5b81600160a060020a031663a9059cbb85856040518363ffffffff1660e060020a0281526004018083600160a060020a0316600160a060020a0316815260200182815260200192505050602060405180830381600087803b158015612f2757600080fd5b505af1158015612f3b573d6000803e3d6000fd5b505050506040513d602081101561162457600080fd5b6000903b1190565b3031610d9d828261332d565b604080517f70a0823100000000000000000000000000000000000000000000000000000000815230600482015290518391600091600160a060020a038416916370a0823191602480830192602092919082900301818787803b158015612fca57600080fd5b505af1158015612fde573d6000803e3d6000fd5b505050506040513d6020811015612ff457600080fd5b5051905061080e600160a060020a038516848363ffffffff61338e16565b60006121d6826130206119f5565b600003613423565b600061303261199e565b600160a060020a031663669f618b6040518163ffffffff1660e060020a028152600401602060405180830381600087803b158015611dce57600080fd5b82600260008360405160200180807f74784f75744f664c696d6974526563697069656e74000000000000000000000081525060150182600019166000191681526020019150506040516020818303038152906040526040518082805190602001908083835b602083106130f35780518252601f1990920191602091820191016130d4565b51815160209384036101000a60001901801990921691161790526040805192909401829003909120865285019590955292909201600020805473ffffffffffffffffffffffffffffffffffffffff1916600160a060020a0395909516949094179093555061214d915083905082612551565b806000808460405160200180807f6d65737361676556616c75650000000000000000000000000000000000000000815250600c01826000191660001916815260200191505060405160208183030381529060405260405180828051906020019080838360208310611cc85780518252601f199092019160209182019101611ca9565b80600260008460405160200180807f6d657373616765526563697069656e740000000000000000000000000000000081525060100182600019166000191681526020019150506040516020818303038152906040526040518082805190602001908083835b6020831061326b5780518252601f19909201916020918201910161324c565b51815160209384036101000a60001901801990921691161790526040805192909401829003909120865285019590955292909201600020805473ffffffffffffffffffffffffffffffffffffffff1916600160a060020a0395909516949094179093555050505050565b60006132df61199e565b600160a060020a031663e5789d036040518163ffffffff1660e060020a028152600401602060405180830381600087803b158015611dce57600080fd5b6014015190565b6000610915610dc6565b604051600160a060020a0383169082156108fc029083906000818181858888f193505050501515610d9d5780826133626134ac565b600160a060020a039091168152604051908190036020019082f080158015611330573d6000803e3d6000fd5b82600160a060020a031663a9059cbb83836040518363ffffffff1660e060020a0281526004018083600160a060020a0316600160a060020a0316815260200182815260200192505050600060405180830381600087803b1580156133f157600080fd5b505af1158015613405573d6000803e3d6000fd5b505050503d1561214d5760206000803e600051151561214d57600080fd5b60008115156134335750816121d6565b60008213156134575761345083600a84900a63ffffffff61346e16565b90506121d6565b610e60836000849003600a0a63ffffffff61349716565b600082151561347f575060006121d6565b5081810281838281151561348f57fe5b04146121d657fe5b600081838115156134a457fe5b049392505050565b6040516021806134bc833901905600608060405260405160208060218339810160405251600160a060020a038116ff00a165627a7a7230582075487b56968214d790fb8a06e72558bac547ef215d87b70505374524b12aefba0029",
  "source": "pragma solidity 0.4.24;\n\nimport \"./BasicStakeTokenMediator.sol\";\nimport \"../../interfaces/IBurnableMintableERC677Token.sol\";\n\n/**\n* @title ForeignStakeTokenMediator\n* @dev Foreign side implementation for stake token mediator intended to work on top of AMB bridge.\n* It is designed to be used as an implementation contract of EternalStorageProxy contract.\n*/\ncontract ForeignStakeTokenMediator is BasicStakeTokenMediator {\n    /**\n     * @dev Executes action on the request to withdraw tokens relayed from the other network\n     * @param _recipient address of tokens receiver\n     * @param _value amount of bridged tokens\n     */\n    function executeActionOnBridgedTokens(address _recipient, uint256 _value) internal {\n        uint256 value = _unshiftValue(_value);\n        bytes32 _messageId = messageId();\n        _transferWithOptionalMint(_recipient, value);\n        emit TokensBridged(_recipient, value, _messageId);\n    }\n\n    /**\n     * @dev Executes action on deposit of bridged tokens\n     * @param _from address of tokens sender\n     * @param _value requsted amount of bridged tokens\n     * @param _data alternative receiver, if specified\n     */\n    function bridgeSpecificActionsOnTokenTransfer(\n        ERC677, /* _token */\n        address _from,\n        uint256 _value,\n        bytes _data\n    ) internal {\n        if (!lock()) {\n            passMessage(_from, chooseReceiver(_from, _data), _value);\n        }\n    }\n\n    /**\n     * @dev Executes action on relayed request to fix the failed transfer of tokens\n     * @param _recipient address of tokens receiver\n     * @param _value amount of fixed tokens\n     */\n    function executeActionOnFixedTokens(address _recipient, uint256 _value) internal {\n        _transferWithOptionalMint(_recipient, _value);\n    }\n\n    /**\n     * @dev Internal function for transfer of tokens, with optional minting if current balance is insufficient\n     * @param _recipient address of tokens receiver\n     * @param _value amount of fixed tokens\n     */\n    function _transferWithOptionalMint(address _recipient, uint256 _value) internal {\n        IBurnableMintableERC677Token token = IBurnableMintableERC677Token(erc677token());\n        uint256 balance = token.balanceOf(address(this));\n        if (balance == 0) {\n            token.mint(_recipient, _value);\n        } else if (balance < _value) {\n            token.mint(address(this), _value - balance);\n            token.transfer(_recipient, _value);\n        } else {\n            token.transfer(_recipient, _value);\n        }\n    }\n\n    /**\n     * @dev Allows to transfer any locked token on this contract other than stake token.\n     * @param _token address of the token, if it is not provided, native tokens will be transferred.\n     * @param _to address that will receive the locked tokens on this contract.\n     */\n    function claimTokens(address _token, address _to) external onlyIfUpgradeabilityOwner {\n        require(_token != address(_erc677token()));\n        claimValues(_token, _to);\n    }\n}\n",
  "sourcePath": "/Users/max/Projects/Symblox/TokenBridge/tokenbridge/contracts/contracts/upgradeable_contracts/amb_erc677_to_erc677/ForeignStakeTokenMediator.sol",
  "compiler": {
    "name": "solc",
    "version": "0.4.24+commit.e67f0147.Emscripten.clang"
  },
  "schemaVersion": "3.1.0",
  "updatedAt": "2020-11-26T16:22:39.901Z",
  "devdoc": {
    "methods": {
      "bridgeContract()": {
        "details": "Get the AMB interface for the bridge contract address",
        "return": "AMB interface for the bridge contract address"
      },
      "claimTokens(address,address)": {
        "details": "Allows to transfer any locked token on this contract other than stake token.",
        "params": {
          "_to": "address that will receive the locked tokens on this contract.",
          "_token": "address of the token, if it is not provided, native tokens will be transferred."
        }
      },
      "decimalShift()": {
        "details": "Returns the value of foreign-to-home decimal shift.",
        "return": "decimal shift."
      },
      "erc677token()": {
        "details": "Public getter for token contract.",
        "return": "address of the used token contract"
      },
      "fixAssetsAboveLimits(bytes32,bool,uint256)": {
        "details": "Fixes locked tokens, that were out of execution limits during the call to handleBridgedTokens",
        "params": {
          "messageId": "reference for bridge operation that was out of execution limits",
          "unlockOnOtherSide": "true if fixed tokens should be unlocked to the other side of the bridge",
          "valueToUnlock": "unlocked amount of tokens, should be less than saved txAboveLimitsValue. Should be less than maxPerTx(), if tokens need to be unlocked on the other side."
        }
      },
      "fixFailedMessage(bytes32)": {
        "details": "Handles the request to fix transferred assets which bridged message execution failed on the other network. It uses the information stored by passMessage method when the assets were initially transferred",
        "params": {
          "_messageId": "id of the message which execution failed on the other network."
        }
      },
      "handleBridgedTokens(address,uint256)": {
        "details": "Handles the bridged tokens. Checks that the value is inside the execution limits and invokes the method to execute the Mint or Unlock accordingly.",
        "params": {
          "_recipient": "address that will receive the tokens",
          "_value": "amount of tokens to be received"
        }
      },
      "maxAvailablePerTx()": {
        "details": "Retrieves maximum available bridge amount per one transaction taking into account maxPerTx() and dailyLimit() parameters.",
        "return": "minimum of maxPerTx parameter and remaining daily quota."
      },
      "mediatorContractOnOtherSide()": {
        "details": "Tells the mediator contract address from the other network.",
        "return": "the address of the mediator contract."
      },
      "messageFixed(bytes32)": {
        "details": "Tells if a message sent to the AMB bridge has been fixed.",
        "return": "bool indicating the status of the message."
      },
      "outOfLimitAmount()": {
        "details": "Total amount coins/tokens that were bridged from the other side and are out of execution limits.",
        "return": "total amount of all bridge operations above limits."
      },
      "owner()": {
        "details": "Tells the address of the owner",
        "return": "the address of the owner"
      },
      "relayTokens(address,uint256)": {
        "details": "Initiates the bridge operation that will lock the amount of tokens transferred and mint the tokens on the other network. The user should first call Approve method of the ERC677 token.",
        "params": {
          "_receiver": "address that will receive the minted tokens on the other network.",
          "_value": "amount of tokens to be transferred to the other network."
        }
      },
      "requestFailedMessageFix(bytes32)": {
        "details": "Method to be called when a bridged message execution failed. It will generate a new message requesting to fix/roll back the transferred assets on the other network.",
        "params": {
          "_messageId": "id of the message which execution failed."
        }
      },
      "requestGasLimit()": {
        "details": "Tells the gas limit to be used in the message execution by the AMB bridge on the other network.",
        "return": "the gas limit for the message execution."
      },
      "setBridgeContract(address)": {
        "details": "Sets the AMB bridge contract address. Only the owner can call this method.",
        "params": {
          "_bridgeContract": "the address of the bridge contract."
        }
      },
      "setMediatorContractOnOtherSide(address)": {
        "details": "Sets the mediator contract address from the other network. Only the owner can call this method.",
        "params": {
          "_mediatorContract": "the address of the mediator contract."
        }
      },
      "setRequestGasLimit(uint256)": {
        "details": "Sets the gas limit to be used in the message execution by the AMB bridge on the other network. This value can't exceed the parameter maxGasPerTx defined on the AMB bridge. Only the owner can call this method.",
        "params": {
          "_requestGasLimit": "the gas limit for the message execution."
        }
      },
      "transferOwnership(address)": {
        "details": "Allows the current owner to transfer control of the contract to a newOwner.",
        "params": {
          "newOwner": "the address to transfer ownership to."
        }
      }
    },
    "title": "ForeignStakeTokenMediator"
  },
  "userdoc": {
    "methods": {}
  }
}