{
  "contractName": "ForeignAMBNativeToErc20",
  "abi": [
    {
      "constant": false,
      "inputs": [
        {
          "name": "_messageId",
          "type": "bytes32"
        }
      ],
      "name": "fixFailedMessage",
      "outputs": [],
      "payable": false,
      "stateMutability": "nonpayable",
      "type": "function"
    },
    {
      "constant": false,
      "inputs": [
        {
          "name": "_bridgeContract",
          "type": "address"
        }
      ],
      "name": "setBridgeContract",
      "outputs": [],
      "payable": false,
      "stateMutability": "nonpayable",
      "type": "function"
    },
    {
      "constant": true,
      "inputs": [
        {
          "name": "_day",
          "type": "uint256"
        }
      ],
      "name": "totalSpentPerDay",
      "outputs": [
        {
          "name": "",
          "type": "uint256"
        }
      ],
      "payable": false,
      "stateMutability": "view",
      "type": "function"
    },
    {
      "constant": true,
      "inputs": [],
      "name": "isInitialized",
      "outputs": [
        {
          "name": "",
          "type": "bool"
        }
      ],
      "payable": false,
      "stateMutability": "view",
      "type": "function"
    },
    {
      "constant": false,
      "inputs": [
        {
          "name": "_dailyLimit",
          "type": "uint256"
        }
      ],
      "name": "setExecutionDailyLimit",
      "outputs": [],
      "payable": false,
      "stateMutability": "nonpayable",
      "type": "function"
    },
    {
      "constant": true,
      "inputs": [],
      "name": "getCurrentDay",
      "outputs": [
        {
          "name": "",
          "type": "uint256"
        }
      ],
      "payable": false,
      "stateMutability": "view",
      "type": "function"
    },
    {
      "constant": true,
      "inputs": [],
      "name": "getBridgeMode",
      "outputs": [
        {
          "name": "_data",
          "type": "bytes4"
        }
      ],
      "payable": false,
      "stateMutability": "pure",
      "type": "function"
    },
    {
      "constant": true,
      "inputs": [],
      "name": "executionDailyLimit",
      "outputs": [
        {
          "name": "",
          "type": "uint256"
        }
      ],
      "payable": false,
      "stateMutability": "view",
      "type": "function"
    },
    {
      "constant": true,
      "inputs": [
        {
          "name": "_day",
          "type": "uint256"
        }
      ],
      "name": "totalExecutedPerDay",
      "outputs": [
        {
          "name": "",
          "type": "uint256"
        }
      ],
      "payable": false,
      "stateMutability": "view",
      "type": "function"
    },
    {
      "constant": true,
      "inputs": [
        {
          "name": "_messageId",
          "type": "bytes32"
        }
      ],
      "name": "messageFixed",
      "outputs": [
        {
          "name": "",
          "type": "bool"
        }
      ],
      "payable": false,
      "stateMutability": "view",
      "type": "function"
    },
    {
      "constant": false,
      "inputs": [
        {
          "name": "_feeManager",
          "type": "address"
        }
      ],
      "name": "setFeeManagerContract",
      "outputs": [],
      "payable": false,
      "stateMutability": "nonpayable",
      "type": "function"
    },
    {
      "constant": true,
      "inputs": [],
      "name": "dailyLimit",
      "outputs": [
        {
          "name": "",
          "type": "uint256"
        }
      ],
      "payable": false,
      "stateMutability": "view",
      "type": "function"
    },
    {
      "constant": false,
      "inputs": [
        {
          "name": "_mediatorContract",
          "type": "address"
        }
      ],
      "name": "setMediatorContractOnOtherSide",
      "outputs": [],
      "payable": false,
      "stateMutability": "nonpayable",
      "type": "function"
    },
    {
      "constant": true,
      "inputs": [],
      "name": "mediatorContractOnOtherSide",
      "outputs": [
        {
          "name": "",
          "type": "address"
        }
      ],
      "payable": false,
      "stateMutability": "view",
      "type": "function"
    },
    {
      "constant": true,
      "inputs": [
        {
          "name": "_amount",
          "type": "uint256"
        }
      ],
      "name": "withinExecutionLimit",
      "outputs": [
        {
          "name": "",
          "type": "bool"
        }
      ],
      "payable": false,
      "stateMutability": "view",
      "type": "function"
    },
    {
      "constant": true,
      "inputs": [],
      "name": "executionMaxPerTx",
      "outputs": [
        {
          "name": "",
          "type": "uint256"
        }
      ],
      "payable": false,
      "stateMutability": "view",
      "type": "function"
    },
    {
      "constant": false,
      "inputs": [
        {
          "name": "_recipient",
          "type": "address"
        },
        {
          "name": "_value",
          "type": "uint256"
        }
      ],
      "name": "handleBridgedTokens",
      "outputs": [],
      "payable": false,
      "stateMutability": "nonpayable",
      "type": "function"
    },
    {
      "constant": true,
      "inputs": [],
      "name": "owner",
      "outputs": [
        {
          "name": "",
          "type": "address"
        }
      ],
      "payable": false,
      "stateMutability": "view",
      "type": "function"
    },
    {
      "constant": true,
      "inputs": [],
      "name": "maxAvailablePerTx",
      "outputs": [
        {
          "name": "",
          "type": "uint256"
        }
      ],
      "payable": false,
      "stateMutability": "view",
      "type": "function"
    },
    {
      "constant": false,
      "inputs": [
        {
          "name": "_messageId",
          "type": "bytes32"
        }
      ],
      "name": "requestFailedMessageFix",
      "outputs": [],
      "payable": false,
      "stateMutability": "nonpayable",
      "type": "function"
    },
    {
      "constant": true,
      "inputs": [],
      "name": "getBridgeInterfacesVersion",
      "outputs": [
        {
          "name": "major",
          "type": "uint64"
        },
        {
          "name": "minor",
          "type": "uint64"
        },
        {
          "name": "patch",
          "type": "uint64"
        }
      ],
      "payable": false,
      "stateMutability": "pure",
      "type": "function"
    },
    {
      "constant": false,
      "inputs": [
        {
          "name": "_minPerTx",
          "type": "uint256"
        }
      ],
      "name": "setMinPerTx",
      "outputs": [],
      "payable": false,
      "stateMutability": "nonpayable",
      "type": "function"
    },
    {
      "constant": false,
      "inputs": [
        {
          "name": "_dailyLimit",
          "type": "uint256"
        }
      ],
      "name": "setDailyLimit",
      "outputs": [],
      "payable": false,
      "stateMutability": "nonpayable",
      "type": "function"
    },
    {
      "constant": true,
      "inputs": [],
      "name": "requestGasLimit",
      "outputs": [
        {
          "name": "",
          "type": "uint256"
        }
      ],
      "payable": false,
      "stateMutability": "view",
      "type": "function"
    },
    {
      "constant": false,
      "inputs": [
        {
          "name": "_maxPerTx",
          "type": "uint256"
        }
      ],
      "name": "setMaxPerTx",
      "outputs": [],
      "payable": false,
      "stateMutability": "nonpayable",
      "type": "function"
    },
    {
      "constant": true,
      "inputs": [],
      "name": "bridgeContract",
      "outputs": [
        {
          "name": "",
          "type": "address"
        }
      ],
      "payable": false,
      "stateMutability": "view",
      "type": "function"
    },
    {
      "constant": true,
      "inputs": [],
      "name": "decimalShift",
      "outputs": [
        {
          "name": "",
          "type": "int256"
        }
      ],
      "payable": false,
      "stateMutability": "view",
      "type": "function"
    },
    {
      "constant": true,
      "inputs": [],
      "name": "feeManagerContract",
      "outputs": [
        {
          "name": "",
          "type": "address"
        }
      ],
      "payable": false,
      "stateMutability": "view",
      "type": "function"
    },
    {
      "constant": true,
      "inputs": [],
      "name": "minPerTx",
      "outputs": [
        {
          "name": "",
          "type": "uint256"
        }
      ],
      "payable": false,
      "stateMutability": "view",
      "type": "function"
    },
    {
      "constant": true,
      "inputs": [
        {
          "name": "_amount",
          "type": "uint256"
        }
      ],
      "name": "withinLimit",
      "outputs": [
        {
          "name": "",
          "type": "bool"
        }
      ],
      "payable": false,
      "stateMutability": "view",
      "type": "function"
    },
    {
      "constant": false,
      "inputs": [
        {
          "name": "_maxPerTx",
          "type": "uint256"
        }
      ],
      "name": "setExecutionMaxPerTx",
      "outputs": [],
      "payable": false,
      "stateMutability": "nonpayable",
      "type": "function"
    },
    {
      "constant": false,
      "inputs": [
        {
          "name": "newOwner",
          "type": "address"
        }
      ],
      "name": "transferOwnership",
      "outputs": [],
      "payable": false,
      "stateMutability": "nonpayable",
      "type": "function"
    },
    {
      "constant": false,
      "inputs": [
        {
          "name": "_requestGasLimit",
          "type": "uint256"
        }
      ],
      "name": "setRequestGasLimit",
      "outputs": [],
      "payable": false,
      "stateMutability": "nonpayable",
      "type": "function"
    },
    {
      "constant": true,
      "inputs": [],
      "name": "maxPerTx",
      "outputs": [
        {
          "name": "",
          "type": "uint256"
        }
      ],
      "payable": false,
      "stateMutability": "view",
      "type": "function"
    },
    {
      "anonymous": false,
      "inputs": [
        {
          "indexed": false,
          "name": "feeAmount",
          "type": "uint256"
        },
        {
          "indexed": true,
          "name": "messageId",
          "type": "bytes32"
        }
      ],
      "name": "FeeDistributed",
      "type": "event"
    },
    {
      "anonymous": false,
      "inputs": [
        {
          "indexed": true,
          "name": "messageId",
          "type": "bytes32"
        },
        {
          "indexed": false,
          "name": "recipient",
          "type": "address"
        },
        {
          "indexed": false,
          "name": "value",
          "type": "uint256"
        }
      ],
      "name": "FailedMessageFixed",
      "type": "event"
    },
    {
      "anonymous": false,
      "inputs": [
        {
          "indexed": true,
          "name": "recipient",
          "type": "address"
        },
        {
          "indexed": false,
          "name": "value",
          "type": "uint256"
        },
        {
          "indexed": true,
          "name": "messageId",
          "type": "bytes32"
        }
      ],
      "name": "TokensBridged",
      "type": "event"
    },
    {
      "anonymous": false,
      "inputs": [
        {
          "indexed": false,
          "name": "newLimit",
          "type": "uint256"
        }
      ],
      "name": "DailyLimitChanged",
      "type": "event"
    },
    {
      "anonymous": false,
      "inputs": [
        {
          "indexed": false,
          "name": "newLimit",
          "type": "uint256"
        }
      ],
      "name": "ExecutionDailyLimitChanged",
      "type": "event"
    },
    {
      "anonymous": false,
      "inputs": [
        {
          "indexed": false,
          "name": "previousOwner",
          "type": "address"
        },
        {
          "indexed": false,
          "name": "newOwner",
          "type": "address"
        }
      ],
      "name": "OwnershipTransferred",
      "type": "event"
    },
    {
      "constant": false,
      "inputs": [
        {
          "name": "_bridgeContract",
          "type": "address"
        },
        {
          "name": "_mediatorContract",
          "type": "address"
        },
        {
          "name": "_dailyLimitMaxPerTxMinPerTxArray",
          "type": "uint256[3]"
        },
        {
          "name": "_executionDailyLimitExecutionMaxPerTxArray",
          "type": "uint256[2]"
        },
        {
          "name": "_requestGasLimit",
          "type": "uint256"
        },
        {
          "name": "_decimalShift",
          "type": "int256"
        },
        {
          "name": "_owner",
          "type": "address"
        },
        {
          "name": "_erc677token",
          "type": "address"
        },
        {
          "name": "_feeManager",
          "type": "address"
        }
      ],
      "name": "initialize",
      "outputs": [
        {
          "name": "",
          "type": "bool"
        }
      ],
      "payable": false,
      "stateMutability": "nonpayable",
      "type": "function"
    },
    {
      "constant": true,
      "inputs": [],
      "name": "erc677token",
      "outputs": [
        {
          "name": "",
          "type": "address"
        }
      ],
      "payable": false,
      "stateMutability": "view",
      "type": "function"
    },
    {
      "constant": false,
      "inputs": [
        {
          "name": "_receiver",
          "type": "address"
        },
        {
          "name": "_value",
          "type": "uint256"
        }
      ],
      "name": "relayTokens",
      "outputs": [],
      "payable": false,
      "stateMutability": "nonpayable",
      "type": "function"
    },
    {
      "constant": false,
      "inputs": [
        {
          "name": "_from",
          "type": "address"
        },
        {
          "name": "_value",
          "type": "uint256"
        },
        {
          "name": "_data",
          "type": "bytes"
        }
      ],
      "name": "onTokenTransfer",
      "outputs": [
        {
          "name": "",
          "type": "bool"
        }
      ],
      "payable": false,
      "stateMutability": "nonpayable",
      "type": "function"
    },
    {
      "constant": false,
      "inputs": [
        {
          "name": "_token",
          "type": "address"
        },
        {
          "name": "_to",
          "type": "address"
        }
      ],
      "name": "claimTokens",
      "outputs": [],
      "payable": false,
      "stateMutability": "nonpayable",
      "type": "function"
    },
    {
      "constant": false,
      "inputs": [
        {
          "name": "_token",
          "type": "address"
        },
        {
          "name": "_to",
          "type": "address"
        }
      ],
      "name": "claimTokensFromErc677",
      "outputs": [],
      "payable": false,
      "stateMutability": "nonpayable",
      "type": "function"
    }
  ],
  "bytecode": "0x608060405234801561001057600080fd5b506131fd806100206000396000f3006080604052600436106101d45763ffffffff60e060020a60003504166301e4f53a81146101d95780630950d515146101ff5780630b26cf661461021757806318d8f9c9146102385780632bd0bb0514610269578063392e53cd146102935780633dd95d1b146102bc5780633e6968b6146102d4578063437764df146102e957806343b37dd3146103335780634fb3fef714610348578063593399821461036057806360756f7c1461037857806367eeba0c1461039957806369ffa08a146103ae5780636e5d6bea146103d5578063871c0760146103f6578063879ce6761461040b5780638aa1949a146104235780638b6c0354146104385780638da5cb5b1461045c5780639313dc431461047157806395e54a17146104985780639a4a4395146104ad5780639cb7595a146104c5578063a2a6ca2714610506578063a4c0ed361461051e578063b20d30a91461054f578063b5deba3214610567578063be3b625b146105b2578063c6f6f216146105c7578063cd596583146105df578063dae5f0fd146105f4578063dbe03a8b14610609578063df25f3f01461061e578063ea9f496814610633578063f20151e11461064b578063f2fde38b14610663578063f3b8379114610684578063f968adbe1461069c575b600080fd5b3480156101e557600080fd5b506101fd600160a060020a03600435166024356106b1565b005b34801561020b57600080fd5b506101fd6004356107fd565b34801561022357600080fd5b506101fd600160a060020a03600435166108cc565b34801561024457600080fd5b5061024d6108f4565b60408051600160a060020a039092168252519081900360200190f35b34801561027557600080fd5b50610281600435610903565b60408051918252519081900360200190f35b34801561029f57600080fd5b506102a86109c0565b604080519115158252519081900360200190f35b3480156102c857600080fd5b506101fd600435610a11565b3480156102e057600080fd5b50610281610ad1565b3480156102f557600080fd5b506102fe610ada565b604080517fffffffff000000000000000000000000000000000000000000000000000000009092168252519081900360200190f35b34801561033f57600080fd5b50610281610afe565b34801561035457600080fd5b50610281600435610b4c565b34801561036c57600080fd5b506102a8600435610bc7565b34801561038457600080fd5b506101fd600160a060020a0360043516610c90565b3480156103a557600080fd5b50610281610cb5565b3480156103ba57600080fd5b506101fd600160a060020a0360043581169060243516610d03565b3480156103e157600080fd5b506101fd600160a060020a0360043516610d8f565b34801561040257600080fd5b5061024d610db4565b34801561041757600080fd5b506102a8600435610e0b565b34801561042f57600080fd5b50610281610e55565b34801561044457600080fd5b506101fd600160a060020a0360043516602435610ea3565b34801561046857600080fd5b5061024d610f23565b34801561047d57600080fd5b506101fd600160a060020a0360043581169060243516610f7a565b3480156104a457600080fd5b50610281611089565b3480156104b957600080fd5b506101fd6004356110e3565b3480156104d157600080fd5b506104da61141f565b6040805167ffffffffffffffff9485168152928416602084015292168183015290519081900360600190f35b34801561051257600080fd5b506101fd600435611429565b34801561052a57600080fd5b506102a860048035600160a060020a03169060248035916044359182019101356114c5565b34801561055b57600080fd5b506101fd600435611562565b34801561057357600080fd5b506102a8600160a060020a0360043581169060243581169060449060a49060e43590610104359061012435811690610144358116906101643516611622565b3480156105be57600080fd5b506102816117d9565b3480156105d357600080fd5b506101fd600435611827565b3480156105eb57600080fd5b5061024d6118bf565b34801561060057600080fd5b50610281611916565b34801561061557600080fd5b5061024d611964565b34801561062a57600080fd5b506102816119bb565b34801561063f57600080fd5b506102a8600435611a09565b34801561065757600080fd5b506101fd600435611a54565b34801561066f57600080fd5b506101fd600160a060020a0360043516611ad0565b34801561069057600080fd5b506101fd600435611af5565b3480156106a857600080fd5b50610281611b1a565b6000806106bc611b68565b156106c657600080fd5b6106ce6108f4565b91503090506106dc83611a09565b15156106e757600080fd5b6106f86106f2610ad1565b84611bb9565b6107026001611c82565b604080517f23b872dd000000000000000000000000000000000000000000000000000000008152336004820152600160a060020a038381166024830152604482018690529151918416916323b872dd916064808201926020929091908290030181600087803b15801561077457600080fd5b505af1158015610788573d6000803e3d6000fd5b505050506040513d602081101561079e57600080fd5b506107ab90506000611c82565b6107f7823385876040516020018082600160a060020a0316600160a060020a03166c01000000000000000000000000028152601401915050604051602081830303815290604052611cdd565b50505050565b6000806108086118bf565b600160a060020a0316331461081c57600080fd5b610824610db4565b600160a060020a0316610835611d60565b600160a060020a03161461084857600080fd5b61085183610bc7565b1561085b57600080fd5b61086483611dd8565b915061086f83611ea7565b905061087a83611f2a565b6108848282611ffc565b60408051600160a060020a038416815260208101839052815185927f06297b0797e3363e96e454edd4ab62862051bf559a7a431ce09415306771d133928290030190a2505050565b6108d4610f23565b600160a060020a031633146108e857600080fd5b6108f181612090565b50565b60006108fe61211b565b905090565b60008060008360405160200180807f746f74616c5370656e74506572446179000000000000000000000000000000008152506010018281526020019150506040516020818303038152906040526040518082805190602001908083835b6020831061097f5780518252601f199092019160209182019101610960565b51815160209384036101000a600019018019909216911617905260408051929094018290039091208652850195909552929092016000205495945050505050565b7f0a6f646cd611241d8073675e00d1a1ff700fbf1b53fcf473de56d1e6e4b714ba60005260046020527f078d888f9b66f3f8bfa10909e31f1e16240db73449f0500afdbbe3a70da457cc5460ff1690565b610a19610f23565b600160a060020a03163314610a2d57600080fd5b610a35610e55565b811180610a40575080155b1515610a4b57600080fd5b7f21dbcab260e413c20dc13c28b7db95e2b423d1135f42bb8b7d5214a92270d237600090815260209081527fadd938dbd083a16bae12238cd914fca0afc7a30edb55b1cd5c7f1823f1b0e4218290556040805183815290517f9bebf928b90863f24cc31f726a3a7545efd409f1dcf552301b1ee3710da70d3b929181900390910190a150565b62015180420490565b7f582ed8fd0000000000000000000000000000000000000000000000000000000090565b7f21dbcab260e413c20dc13c28b7db95e2b423d1135f42bb8b7d5214a92270d23760009081526020527fadd938dbd083a16bae12238cd914fca0afc7a30edb55b1cd5c7f1823f1b0e4215490565b60008060008360405160200180807f746f74616c4578656375746564506572446179000000000000000000000000008152506013018281526020019150506040516020818303038152906040526040518082805190602001908083836020831061097f5780518252601f199092019160209182019101610960565b6000600460008360405160200180807f6d65737361676546697865640000000000000000000000000000000000000000815250600c0182600019166000191681526020019150506040516020818303038152906040526040518082805190602001908083835b60208310610c4c5780518252601f199092019160209182019101610c2d565b51815160209384036101000a600019018019909216911617905260408051929094018290039091208652850195909552929092016000205460ff1695945050505050565b610c98610f23565b600160a060020a03163314610cac57600080fd5b6108f181612172565b7f4a6a899679f26b73530d8cf1001e83b6f7702e04b6fdb98f3c62dc7e47e041a560009081526020527f1ab29a5cca988aee50edccdd61c5bcaa7ad4b29a03b7ee50f298ceccfe14cc4e5490565b30600160a060020a0316636fde82026040518163ffffffff1660e060020a028152600401602060405180830381600087803b158015610d4157600080fd5b505af1158015610d55573d6000803e3d6000fd5b505050506040513d6020811015610d6b57600080fd5b5051600160a060020a03163314610d8157600080fd5b610d8b828261220e565b5050565b610d97610f23565b600160a060020a03163314610dab57600080fd5b6108f181612251565b7f98aa806e31e94a687a31c65769cb99670064dd7f5a87526da075c5fb4eab988060005260026020527f0c1206883be66049a02d4937078367c00b3d71dd1a9465df969363c6ddeac96d54600160a060020a031690565b600080610e2e83610e22610e1d610ad1565b610b4c565b9063ffffffff6122c816565b905080610e39610afe565b10158015610e4e5750610e4a610e55565b8311155b9392505050565b7fc0ed44c192c86d1cc1ba51340b032c2766b4a2b0041031de13c46dd7104888d560009081526020527ff8e983ee86e5e377e9e34c9131b266382c3f04113d20de077f9e12663c7a646b5490565b610eab6118bf565b600160a060020a03163314610ebf57600080fd5b610ec7610db4565b600160a060020a0316610ed8611d60565b600160a060020a031614610eeb57600080fd5b610ef481610e0b565b15610f1957610f0a610f04610ad1565b826122db565b610f148282612361565b610d8b565b610d8b82826101d4565b7f02016836a56b71f0d02689e69e326f4f4c1b9057164ef592671cf0d37c8040c060005260026020527fb7802e97e87ef2842a6cce7da7ffaeaedaa2f61a6a7870b23d9d01fc9b73712e54600160a060020a031690565b30600160a060020a0316636fde82026040518163ffffffff1660e060020a028152600401602060405180830381600087803b158015610fb857600080fd5b505af1158015610fcc573d6000803e3d6000fd5b505050506040513d6020811015610fe257600080fd5b5051600160a060020a03163314610ff857600080fd5b6110006108f4565b604080517f69ffa08a000000000000000000000000000000000000000000000000000000008152600160a060020a0385811660048301528481166024830152915192909116916369ffa08a9160448082019260009290919082900301818387803b15801561106d57600080fd5b505af1158015611081573d6000803e3d6000fd5b505050505050565b6000806000806000611099611b1a565b93506110a3610cb5565b92506110b56110b0610ad1565b610903565b91508183116110c55760006110c9565b8183035b90508084106110d857806110da565b835b94505050505090565b600060606110ef6118bf565b600160a060020a031663cb08a10c846040518263ffffffff1660e060020a028152600401808260001916600019168152602001915050602060405180830381600087803b15801561113f57600080fd5b505af1158015611153573d6000803e3d6000fd5b505050506040513d602081101561116957600080fd5b50511561117557600080fd5b3061117e6118bf565b600160a060020a0316633f9a8e7e856040518263ffffffff1660e060020a028152600401808260001916600019168152602001915050602060405180830381600087803b1580156111ce57600080fd5b505af11580156111e2573d6000803e3d6000fd5b505050506040513d60208110156111f857600080fd5b5051600160a060020a03161461120d57600080fd5b611215610db4565b600160a060020a03166112266118bf565b600160a060020a0316634a610b04856040518263ffffffff1660e060020a028152600401808260001916600019168152602001915050602060405180830381600087803b15801561127657600080fd5b505af115801561128a573d6000803e3d6000fd5b505050506040513d60208110156112a057600080fd5b5051600160a060020a0316146112b557600080fd5b5050604080516024808201849052825180830390910181526044909101909152602081018051600160e060020a03167f0950d51500000000000000000000000000000000000000000000000000000000908117909152906113146118bf565b600160a060020a031663dc8601b361132a610db4565b836113336117d9565b6040518463ffffffff1660e060020a0281526004018084600160a060020a0316600160a060020a0316815260200180602001838152602001828103825284818151815260200191508051906020019080838360005b838110156113a0578181015183820152602001611388565b50505050905090810190601f1680156113cd5780820380516001836020036101000a031916815260200191505b50945050505050602060405180830381600087803b1580156113ee57600080fd5b505af1158015611402573d6000803e3d6000fd5b505050506040513d602081101561141857600080fd5b5050505050565b6001806000909192565b611431610f23565b600160a060020a0316331461144557600080fd5b60008111801561145b5750611458610cb5565b81105b801561146d575061146a611b1a565b81105b151561147857600080fd5b7fbbb088c505d18e049d114c7c91f11724e69c55ad6c5397e2b929e68b41fa05d160009081526020527f8df5c48c6b6e11d97548adc824ba0c99103ec09830fa5d53a179984085e6eaa055565b6000806114d06108f4565b905033600160a060020a038216146114e757600080fd5b6114ef611b68565b151561151a576114fe85611a09565b151561150957600080fd5b61151a611514610ad1565b86611bb9565b61155681878787878080601f01602080910402602001604051908101604052809392919081815260200183838082843750611cdd945050505050565b50600195945050505050565b61156a610f23565b600160a060020a0316331461157e57600080fd5b611586611b1a565b811180611591575080155b151561159c57600080fd5b7f4a6a899679f26b73530d8cf1001e83b6f7702e04b6fdb98f3c62dc7e47e041a5600090815260209081527f1ab29a5cca988aee50edccdd61c5bcaa7ad4b29a03b7ee50f298ceccfe14cc4e8290556040805183815290517fad4123ae17c414d9c6d2fec478b402e6b01856cc250fd01fbfd252fda0089d3c929181900390910190a150565b6040805160048152602481018252602081018051600160e060020a03167f6fde8202000000000000000000000000000000000000000000000000000000001781529151815160009330939291829190808383895b8381101561168e578181015183820152602001611676565b50505050905090810190601f1680156116bb5780820380516001836020036101000a031916815260200191505b509150506000604051808303816000865af1915050158061174d575030600160a060020a0316636fde82026040518163ffffffff1660e060020a028152600401602060405180830381600087803b15801561171557600080fd5b505af1158015611729573d6000803e3d6000fd5b505050506040513d602081101561173f57600080fd5b5051600160a060020a031633145b8061175757503330145b151561176257600080fd5b6117b28a8a8a6003806020026040519081016040528092919082600360200280828437505060408051808201825293508e925060029150839083908082843782019150505050508a8a8a8961250e565b6117bb83612572565b6117c36125fd565b6117cb6109c0565b9a9950505050505050505050565b7f2dfd6c9f781bb6bbb5369c114e949b69ebb440ef3d4dd6b2836225eb1dc3a2be60009081526020527f2de0d2cdc19d356cb53b5984f91bfd3b31fe0c678a0d190a6db39274bb34753f5490565b61182f610f23565b600160a060020a0316331461184357600080fd5b80158061186757506118536119bb565b811180156118675750611864610cb5565b81105b151561187257600080fd5b7f0f8803acad17c63ee38bf2de71e1888bc7a079a6f73658e274b08018bea4e29c60009081526020527f9de0f81379b4d8e60fe509315d071b56e7b732abaf193e74e0d15808b0951d0955565b7f811bbb11e8899da471f0e69a3ed55090fc90215227fc5fb1cb0d6e962ea7b74f60005260026020527fb4ed64697d3ef8518241966f7c6f28b0d72f20f51198717d198d2d55076c593d54600160a060020a031690565b7f1e8ecaafaddea96ed9ac6d2642dcdfe1bebe58a930b1085842d8fc122b371ee560009081526020527fd5c78dd9468716ca9bb96be25d56436811b20aab3523a9904b12deef1cab239d5490565b7f779a349c5bee7817f04c960f525ee3e2f2516078c38c68a3149787976ee837e560005260026020527fc155b21a14c4592b97825e495fbe0d2705fb46420018cac5bfa7a09c43fae51754600160a060020a031690565b7fbbb088c505d18e049d114c7c91f11724e69c55ad6c5397e2b929e68b41fa05d160009081526020527f8df5c48c6b6e11d97548adc824ba0c99103ec09830fa5d53a179984085e6eaa05490565b600080611a1b83610e226110b0610ad1565b905080611a26610cb5565b10158015611a3b5750611a37611b1a565b8311155b8015610e4e5750611a4a6119bb565b9092101592915050565b611a5c610f23565b600160a060020a03163314611a7057600080fd5b611a78610afe565b8110611a8357600080fd5b7fc0ed44c192c86d1cc1ba51340b032c2766b4a2b0041031de13c46dd7104888d560009081526020527ff8e983ee86e5e377e9e34c9131b266382c3f04113d20de077f9e12663c7a646b55565b611ad8610f23565b600160a060020a03163314611aec57600080fd5b6108f181612654565b611afd610f23565b600160a060020a03163314611b1157600080fd5b6108f18161272b565b7f0f8803acad17c63ee38bf2de71e1888bc7a079a6f73658e274b08018bea4e29c60009081526020527f9de0f81379b4d8e60fe509315d071b56e7b732abaf193e74e0d15808b0951d095490565b7f6168652c307c1e813ca11cfb3a601f1cf3b22452021a5052d8b05f1f1f8a3e9260005260046020527fcb8d022f2163402334a4962e3279c5def3417d3d8dab9e27ba26e81e3f8337845460ff1690565b611bc681610e2284610903565b6000808460405160200180807f746f74616c5370656e74506572446179000000000000000000000000000000008152506010018281526020019150506040516020818303038152906040526040518082805190602001908083835b60208310611c405780518252601f199092019160209182019101611c21565b51815160209384036101000a60001901801990921691161790526040805192909401829003909120865285019590955292909201600020939093555050505050565b7f6168652c307c1e813ca11cfb3a601f1cf3b22452021a5052d8b05f1f1f8a3e9260005260046020527fcb8d022f2163402334a4962e3279c5def3417d3d8dab9e27ba26e81e3f833784805460ff1916911515919091179055565b611ce5611b68565b15156107f75783600160a060020a03166342966c68836040518263ffffffff1660e060020a02815260040180828152602001915050600060405180830381600087803b158015611d3457600080fd5b505af1158015611d48573d6000803e3d6000fd5b505050506107f783611d5a858461278c565b846127e6565b6000611d6a6118bf565b600160a060020a031663d67bdd256040518163ffffffff1660e060020a028152600401602060405180830381600087803b158015611da757600080fd5b505af1158015611dbb573d6000803e3d6000fd5b505050506040513d6020811015611dd157600080fd5b5051905090565b6000600260008360405160200180807f6d657373616765526563697069656e740000000000000000000000000000000081525060100182600019166000191681526020019150506040516020818303038152906040526040518082805190602001908083835b60208310611e5d5780518252601f199092019160209182019101611e3e565b51815160209384036101000a6000190180199092169116179052604080519290940182900390912086528501959095529290920160002054600160a060020a031695945050505050565b60008060008360405160200180807f6d65737361676556616c75650000000000000000000000000000000000000000815250600c0182600019166000191681526020019150506040516020818303038152906040526040518082805190602001908083836020831061097f5780518252601f199092019160209182019101610960565b6001600460008360405160200180807f6d65737361676546697865640000000000000000000000000000000000000000815250600c0182600019166000191681526020019150506040516020818303038152906040526040518082805190602001908083835b60208310611faf5780518252601f199092019160209182019101611f90565b51815160209384036101000a60001901801990921691161790526040805192909401829003909120865285019590955292909201600020805460ff19169415159490941790935550505050565b6120046108f4565b600160a060020a03166340c10f1983836040518363ffffffff1660e060020a0281526004018083600160a060020a0316600160a060020a0316815260200182815260200192505050602060405180830381600087803b15801561206657600080fd5b505af115801561207a573d6000803e3d6000fd5b505050506040513d60208110156107f757600080fd5b61209981612970565b15156120a457600080fd5b7f811bbb11e8899da471f0e69a3ed55090fc90215227fc5fb1cb0d6e962ea7b74f60005260026020527fb4ed64697d3ef8518241966f7c6f28b0d72f20f51198717d198d2d55076c593d805473ffffffffffffffffffffffffffffffffffffffff1916600160a060020a0392909216919091179055565b7fa8b0ade3e2b734f043ce298aca4cc8d19d74270223f34531d0988b7d00cba21d60005260026020527f603cd9dcbfa185d5c37504f4c8b3f16117ed744fba48d08b7aad44a162af1c9354600160a060020a031690565b600160a060020a038116158061218c575061218c81612970565b151561219757600080fd5b7f779a349c5bee7817f04c960f525ee3e2f2516078c38c68a3149787976ee837e560005260026020527fc155b21a14c4592b97825e495fbe0d2705fb46420018cac5bfa7a09c43fae517805473ffffffffffffffffffffffffffffffffffffffff1916600160a060020a0392909216919091179055565b80600160a060020a038116151561222457600080fd5b600160a060020a03831615156122425761223d82612978565b61224c565b61224c8383612984565b505050565b7f98aa806e31e94a687a31c65769cb99670064dd7f5a87526da075c5fb4eab988060005260026020527f0c1206883be66049a02d4937078367c00b3d71dd1a9465df969363c6ddeac96d805473ffffffffffffffffffffffffffffffffffffffff1916600160a060020a0392909216919091179055565b818101828110156122d557fe5b92915050565b6122e881610e2284610b4c565b6000808460405160200180807f746f74616c45786563757465645065724461790000000000000000000000000081525060130182815260200191505060405160208183030381529060405260405180828051906020019080838360208310611c405780518252601f199092019160209182019101611c21565b60008060008061237085612a31565b935061237a612a47565b9250612384611964565b9150600160a060020a038216156124305781600160a060020a03166399a5d747856040518263ffffffff1660e060020a02815260040180828152602001915050602060405180830381600087803b1580156123de57600080fd5b505af11580156123f2573d6000803e3d6000fd5b505050506040513d602081101561240857600080fd5b5051905080156124305761241d828285612a8e565b61242d848263ffffffff612bad16565b93505b6124386108f4565b600160a060020a03166340c10f1987866040518363ffffffff1660e060020a0281526004018083600160a060020a0316600160a060020a0316815260200182815260200192505050602060405180830381600087803b15801561249a57600080fd5b505af11580156124ae573d6000803e3d6000fd5b505050506040513d60208110156124c457600080fd5b50506040805185815290518491600160a060020a038916917f2f9a6098d4503a127779ba975f5f6b04f842362b1809f346989e9abc0b4dedb69181900360200190a3505050505050565b6125166109c0565b1561252057600080fd5b61252988612090565b61253287612251565b61253b8461272b565b61254486612bbf565b61254d85612d1c565b61255683612df1565b61255f81612172565b61256882612654565b5050505050505050565b61257b81612970565b151561258657600080fd5b7fa8b0ade3e2b734f043ce298aca4cc8d19d74270223f34531d0988b7d00cba21d60005260026020527f603cd9dcbfa185d5c37504f4c8b3f16117ed744fba48d08b7aad44a162af1c93805473ffffffffffffffffffffffffffffffffffffffff1916600160a060020a0392909216919091179055565b7f0a6f646cd611241d8073675e00d1a1ff700fbf1b53fcf473de56d1e6e4b714ba60005260046020527f078d888f9b66f3f8bfa10909e31f1e16240db73449f0500afdbbe3a70da457cc805460ff19166001179055565b600160a060020a038116151561266957600080fd5b7f8be0079c531659141344cd1fd0a4f28419497f9722a3daafe3b4186f6b6457e0612692610f23565b60408051600160a060020a03928316815291841660208301528051918290030190a17f02016836a56b71f0d02689e69e326f4f4c1b9057164ef592671cf0d37c8040c060005260026020527fb7802e97e87ef2842a6cce7da7ffaeaedaa2f61a6a7870b23d9d01fc9b73712e805473ffffffffffffffffffffffffffffffffffffffff1916600160a060020a0392909216919091179055565b612733612e5a565b81111561273f57600080fd5b7f2dfd6c9f781bb6bbb5369c114e949b69ebb440ef3d4dd6b2836225eb1dc3a2be60009081526020527f2de0d2cdc19d356cb53b5984f91bfd3b31fe0c678a0d190a6db39274bb34753f55565b80518290600010156122d55781516014146127a657600080fd5b6127af82612ea1565b9050600160a060020a03811615156127c657600080fd5b6127ce612ea8565b600160a060020a03828116911614156122d557600080fd5b60408051600160a060020a03841660248201526044808201849052825180830390910181526064909101909152602081018051600160e060020a03167f8b6c0354000000000000000000000000000000000000000000000000000000009081179091529060006128546118bf565b600160a060020a031663dc8601b361286a610db4565b846128736117d9565b6040518463ffffffff1660e060020a0281526004018084600160a060020a0316600160a060020a0316815260200180602001838152602001828103825284818151815260200191508051906020019080838360005b838110156128e05781810151838201526020016128c8565b50505050905090810190601f16801561290d5780820380516001836020036101000a031916815260200191505b50945050505050602060405180830381600087803b15801561292e57600080fd5b505af1158015612942573d6000803e3d6000fd5b505050506040513d602081101561295857600080fd5b505190506129668185612eb2565b6110818187612f34565b6000903b1190565b3031610d8b8282613022565b604080517f70a0823100000000000000000000000000000000000000000000000000000000815230600482015290518391600091600160a060020a038416916370a0823191602480830192602092919082900301818787803b1580156129e957600080fd5b505af11580156129fd573d6000803e3d6000fd5b505050506040513d6020811015612a1357600080fd5b505190506107f7600160a060020a038516848363ffffffff61308316565b60006122d582612a3f611916565b600003613118565b6000612a516118bf565b600160a060020a031663669f618b6040518163ffffffff1660e060020a028152600401602060405180830381600087803b158015611da757600080fd5b612a988383611ffc565b604080513060248201526044810184905260606064820152600060848201819052825180830360a401815260c49092018352602082018051600160e060020a03167fa4c0ed360000000000000000000000000000000000000000000000000000000017815292518251600160a060020a038816949192839291908190849084905b83811015612b31578181015183820152602001612b19565b50505050905090810190601f168015612b5e5780820380516001836020036101000a031916815260200191505b509150506000604051808303816000865af150506040805184815290518392507f681bf203c0adea167c3149ed45e4ec409535394f7bd8941e675f26d1b1a4b6569181900360200190a2505050565b600082821115612bb957fe5b50900390565b60408101516000108015612bda575060408101516020820151115b8015612bea575060208101518151115b1515612bf557600080fd5b80517f4a6a899679f26b73530d8cf1001e83b6f7702e04b6fdb98f3c62dc7e47e041a5600090815260208181527f1ab29a5cca988aee50edccdd61c5bcaa7ad4b29a03b7ee50f298ceccfe14cc4e92909255908201517f0f8803acad17c63ee38bf2de71e1888bc7a079a6f73658e274b08018bea4e29c82527f9de0f81379b4d8e60fe509315d071b56e7b732abaf193e74e0d15808b0951d095560408201517fbbb088c505d18e049d114c7c91f11724e69c55ad6c5397e2b929e68b41fa05d182527f8df5c48c6b6e11d97548adc824ba0c99103ec09830fa5d53a179984085e6eaa0557fad4123ae17c414d9c6d2fec478b402e6b01856cc250fd01fbfd252fda0089d3c9082905b60200201516040518082815260200191505060405180910390a150565b8051602082015110612d2d57600080fd5b80517f21dbcab260e413c20dc13c28b7db95e2b423d1135f42bb8b7d5214a92270d237600090815260208181527fadd938dbd083a16bae12238cd914fca0afc7a30edb55b1cd5c7f1823f1b0e42192909255908201517fc0ed44c192c86d1cc1ba51340b032c2766b4a2b0041031de13c46dd7104888d582527ff8e983ee86e5e377e9e34c9131b266382c3f04113d20de077f9e12663c7a646b557f9bebf928b90863f24cc31f726a3a7545efd409f1dcf552301b1ee3710da70d3b908290612cff565b604c1981138015612e025750604d81125b1515612e0d57600080fd5b7f1e8ecaafaddea96ed9ac6d2642dcdfe1bebe58a930b1085842d8fc122b371ee560009081526020527fd5c78dd9468716ca9bb96be25d56436811b20aab3523a9904b12deef1cab239d55565b6000612e646118bf565b600160a060020a031663e5789d036040518163ffffffff1660e060020a028152600401602060405180830381600087803b158015611da757600080fd5b6014015190565b60006108fe610db4565b806000808460405160200180807f6d65737361676556616c75650000000000000000000000000000000000000000815250600c01826000191660001916815260200191505060405160208183030381529060405260405180828051906020019080838360208310611c405780518252601f199092019160209182019101611c21565b80600260008460405160200180807f6d657373616765526563697069656e740000000000000000000000000000000081525060100182600019166000191681526020019150506040516020818303038152906040526040518082805190602001908083835b60208310612fb85780518252601f199092019160209182019101612f99565b51815160209384036101000a60001901801990921691161790526040805192909401829003909120865285019590955292909201600020805473ffffffffffffffffffffffffffffffffffffffff1916600160a060020a0395909516949094179093555050505050565b604051600160a060020a0383169082156108fc029083906000818181858888f193505050501515610d8b5780826130576131a1565b600160a060020a039091168152604051908190036020019082f080158015611418573d6000803e3d6000fd5b82600160a060020a031663a9059cbb83836040518363ffffffff1660e060020a0281526004018083600160a060020a0316600160a060020a0316815260200182815260200192505050600060405180830381600087803b1580156130e657600080fd5b505af11580156130fa573d6000803e3d6000fd5b505050503d1561224c5760206000803e600051151561224c57600080fd5b60008115156131285750816122d5565b600082131561314c5761314583600a84900a63ffffffff61316316565b90506122d5565b610e4e836000849003600a0a63ffffffff61318c16565b6000821515613174575060006122d5565b5081810281838281151561318457fe5b04146122d557fe5b6000818381151561319957fe5b049392505050565b6040516021806131b1833901905600608060405260405160208060218339810160405251600160a060020a038116ff00a165627a7a72305820c80aa35fada1b5068db7fcaa1e1526d729e9b72cca347963318622d9221b3e650029",
  "source": "pragma solidity 0.4.24;\n\nimport \"./BasicAMBNativeToErc20.sol\";\nimport \"../BaseERC677Bridge.sol\";\nimport \"../../interfaces/IBurnableMintableERC677Token.sol\";\nimport \"../ReentrancyGuard.sol\";\n\n/**\n* @title ForeignAMBNativeToErc20\n* @dev Foreign mediator implementation for native-to-erc20 bridge intended to work on top of AMB bridge.\n* It is design to be used as implementation contract of EternalStorageProxy contract.\n*/\ncontract ForeignAMBNativeToErc20 is BasicAMBNativeToErc20, ReentrancyGuard, BaseERC677Bridge {\n    /**\n    * @dev Stores the initial parameters of the mediator.\n    * @param _bridgeContract the address of the AMB bridge contract.\n    * @param _mediatorContract the address of the mediator contract on the other network.\n    * @param _dailyLimitMaxPerTxMinPerTxArray array with limit values for the assets to be bridged to the other network.\n    *   [ 0 = dailyLimit, 1 = maxPerTx, 2 = minPerTx ]\n    * @param _executionDailyLimitExecutionMaxPerTxArray array with limit values for the assets bridged from the other network.\n    *   [ 0 = executionDailyLimit, 1 = executionMaxPerTx ]\n    * @param _requestGasLimit the gas limit for the message execution.\n    * @param _decimalShift number of decimals shift required to adjust the amount of tokens bridged.\n    * @param _owner address of the owner of the mediator contract\n    * @param _erc677token address of the erc677 token contract\n    * @param _feeManager address of the fee manager contract\n    */\n    function initialize(\n        address _bridgeContract,\n        address _mediatorContract,\n        uint256[3] _dailyLimitMaxPerTxMinPerTxArray, // [ 0 = dailyLimit, 1 = maxPerTx, 2 = minPerTx ]\n        uint256[2] _executionDailyLimitExecutionMaxPerTxArray, // [ 0 = executionDailyLimit, 1 = executionMaxPerTx ]\n        uint256 _requestGasLimit,\n        int256 _decimalShift,\n        address _owner,\n        address _erc677token,\n        address _feeManager\n    ) external onlyRelevantSender returns (bool) {\n        _initialize(\n            _bridgeContract,\n            _mediatorContract,\n            _dailyLimitMaxPerTxMinPerTxArray,\n            _executionDailyLimitExecutionMaxPerTxArray,\n            _requestGasLimit,\n            _decimalShift,\n            _owner,\n            _feeManager\n        );\n        setErc677token(_erc677token);\n        setInitialize();\n        return isInitialized();\n    }\n\n    /**\n    * @dev Public getter for token contract.\n    * @return address of the used token contract\n    */\n    function erc677token() public view returns (ERC677) {\n        return _erc677token();\n    }\n\n    /**\n    * @dev Mint the amount of tokens that were bridged from the other network.\n    * If configured, it calculates, subtract and distribute the fees among the reward accounts.\n    * @param _receiver address that will receive the tokens\n    * @param _value amount of tokens to be received\n    */\n    function executeActionOnBridgedTokens(address _receiver, uint256 _value) internal {\n        uint256 valueToMint = _unshiftValue(_value);\n\n        bytes32 _messageId = messageId();\n        IMediatorFeeManager feeManager = feeManagerContract();\n        if (feeManager != address(0)) {\n            uint256 fee = feeManager.calculateFee(valueToMint);\n            if (fee != 0) {\n                distributeFee(feeManager, fee, _messageId);\n                valueToMint = valueToMint.sub(fee);\n            }\n        }\n\n        IBurnableMintableERC677Token(erc677token()).mint(_receiver, valueToMint);\n        emit TokensBridged(_receiver, valueToMint, _messageId);\n    }\n\n    /**\n    * @dev Mint back the amount of tokens that were bridged to the other network but failed.\n    * @param _receiver address that will receive the tokens\n    * @param _value amount of tokens to be received\n    */\n    function executeActionOnFixedTokens(address _receiver, uint256 _value) internal {\n        IBurnableMintableERC677Token(erc677token()).mint(_receiver, _value);\n    }\n\n    /**\n    * @dev It will initiate the bridge operation that will burn the amount of tokens transferred and unlock the native tokens on\n    * the other network. The user should first call Approve method of the ERC677 token.\n    * @param _receiver address that will receive the native tokens on the other network.\n    * @param _value amount of tokens to be transferred to the other network.\n    */\n    function relayTokens(address _receiver, uint256 _value) external {\n        // This lock is to prevent calling passMessage twice.\n        // When transferFrom is called, after the transfer, the ERC677 token will call onTokenTransfer from this contract\n        // which will call passMessage.\n        require(!lock());\n        ERC677 token = erc677token();\n        address to = address(this);\n        require(withinLimit(_value));\n        addTotalSpentPerDay(getCurrentDay(), _value);\n\n        setLock(true);\n        token.transferFrom(msg.sender, to, _value);\n        setLock(false);\n        bridgeSpecificActionsOnTokenTransfer(token, msg.sender, _value, abi.encodePacked(_receiver));\n    }\n\n    /**\n    * @dev This method is called when transferAndCall is used from ERC677 to transfer the tokens to this contract.\n    * It will initiate the bridge operation that will burn the amount of tokens transferred and unlock the native tokens on\n    * the other network.\n    * @param _from address that transferred the tokens.\n    * @param _value amount of tokens transferred.\n    * @param _data this parameter could contain the address of an alternative receiver of the tokens on the other network,\n    * otherwise it will be empty.\n    */\n    function onTokenTransfer(address _from, uint256 _value, bytes _data) external returns (bool) {\n        ERC677 token = erc677token();\n        require(msg.sender == address(token));\n        if (!lock()) {\n            require(withinLimit(_value));\n            addTotalSpentPerDay(getCurrentDay(), _value);\n        }\n        bridgeSpecificActionsOnTokenTransfer(token, _from, _value, _data);\n        return true;\n    }\n\n    /**\n    * @dev Burns the amount of tokens and makes the request to unlock the native tokens on the other network.\n    * @param _token address of the ERC677 token.\n    * @param _from address that transferred the tokens.\n    * @param _value amount of tokens transferred.\n    * @param _data this parameter could contain the address of an alternative receiver of the native tokens on the other\n    * network, otherwise it will be empty.\n    */\n    function bridgeSpecificActionsOnTokenTransfer(ERC677 _token, address _from, uint256 _value, bytes _data) internal {\n        if (!lock()) {\n            IBurnableMintableERC677Token(_token).burn(_value);\n            passMessage(_from, chooseReceiver(_from, _data), _value);\n        }\n    }\n\n    /**\n    * @dev Mint the fee amount of tokens to the fee manager contract.\n    * @param _feeManager address that will receive the minted tokens.\n    * @param _fee amount of tokens to be minted.\n    */\n    function onFeeDistribution(address _feeManager, uint256 _fee) internal {\n        IBurnableMintableERC677Token(erc677token()).mint(_feeManager, _fee);\n    }\n\n    /**\n    * @dev Allows to transfer any locked token on this contract that is not part of the bridge operations.\n    * @param _token address of the token, if it is not provided, native tokens will be transferred.\n    * @param _to address that will receive the locked tokens on this contract.\n    */\n    function claimTokens(address _token, address _to) external onlyIfUpgradeabilityOwner {\n        // For foreign side of the bridge, tokens are not locked at the contract, they are minted and burned instead.\n        // So, its is safe to allow claiming of any tokens. Native coins are allowed as well.\n        claimValues(_token, _to);\n    }\n\n    /**\n    * @dev Allows to transfer any locked token on the ERC677 token contract.\n    * @param _token address of the token, if it is not provided, native tokens will be transferred.\n    * @param _to address that will receive the locked tokens on this contract.\n    */\n    function claimTokensFromErc677(address _token, address _to) external onlyIfUpgradeabilityOwner {\n        IBurnableMintableERC677Token(erc677token()).claimTokens(_token, _to);\n    }\n\n    /**\n    * @dev Tells the address of the mediator contract on the other side, used by chooseReceiver method\n    * to avoid sending the native tokens to that address.\n    * @return address of the mediator contract con the other side\n    */\n    function bridgeContractOnOtherSide() internal view returns (address) {\n        return mediatorContractOnOtherSide();\n    }\n}\n",
  "sourcePath": "/Users/max/Projects/Symblox/TokenBridge/tokenbridge/contracts/contracts/upgradeable_contracts/amb_native_to_erc20/ForeignAMBNativeToErc20.sol",
  "compiler": {
    "name": "solc",
    "version": "0.4.24+commit.e67f0147.Emscripten.clang"
  },
  "schemaVersion": "3.1.0",
  "updatedAt": "2020-11-26T16:22:39.911Z",
  "devdoc": {
    "methods": {
      "bridgeContract()": {
        "details": "Get the AMB interface for the bridge contract address",
        "return": "AMB interface for the bridge contract address"
      },
      "claimTokens(address,address)": {
        "details": "Allows to transfer any locked token on this contract that is not part of the bridge operations.",
        "params": {
          "_to": "address that will receive the locked tokens on this contract.",
          "_token": "address of the token, if it is not provided, native tokens will be transferred."
        }
      },
      "claimTokensFromErc677(address,address)": {
        "details": "Allows to transfer any locked token on the ERC677 token contract.",
        "params": {
          "_to": "address that will receive the locked tokens on this contract.",
          "_token": "address of the token, if it is not provided, native tokens will be transferred."
        }
      },
      "decimalShift()": {
        "details": "Returns the value of foreign-to-home decimal shift.",
        "return": "decimal shift."
      },
      "erc677token()": {
        "details": "Public getter for token contract.",
        "return": "address of the used token contract"
      },
      "feeManagerContract()": {
        "details": "Tells the fee manager contract address",
        "return": "the address of the fee manager contract."
      },
      "fixFailedMessage(bytes32)": {
        "details": "Handles the request to fix transferred assets which bridged message execution failed on the other network. It uses the information stored by passMessage method when the assets were initially transferred",
        "params": {
          "_messageId": "id of the message which execution failed on the other network."
        }
      },
      "getBridgeInterfacesVersion()": {
        "details": "Tells the bridge interface version that this contract supports.",
        "return": "major value of the versionminor value of the versionpatch value of the version"
      },
      "getBridgeMode()": {
        "details": "Tells the bridge mode that this contract supports.",
        "return": "_data 4 bytes representing the bridge mode"
      },
      "handleBridgedTokens(address,uint256)": {
        "details": "Handles the bridged tokens. Checks that the value is inside the execution limits and invokes the method to execute the Mint or Unlock accordingly.",
        "params": {
          "_recipient": "address that will receive the tokens",
          "_value": "amount of tokens to be received"
        }
      },
      "initialize(address,address,uint256[3],uint256[2],uint256,int256,address,address,address)": {
        "details": "Stores the initial parameters of the mediator.",
        "params": {
          "_bridgeContract": "the address of the AMB bridge contract.",
          "_dailyLimitMaxPerTxMinPerTxArray": "array with limit values for the assets to be bridged to the other network.  [ 0 = dailyLimit, 1 = maxPerTx, 2 = minPerTx ]",
          "_decimalShift": "number of decimals shift required to adjust the amount of tokens bridged.",
          "_erc677token": "address of the erc677 token contract",
          "_executionDailyLimitExecutionMaxPerTxArray": "array with limit values for the assets bridged from the other network.  [ 0 = executionDailyLimit, 1 = executionMaxPerTx ]",
          "_feeManager": "address of the fee manager contract",
          "_mediatorContract": "the address of the mediator contract on the other network.",
          "_owner": "address of the owner of the mediator contract",
          "_requestGasLimit": "the gas limit for the message execution."
        }
      },
      "maxAvailablePerTx()": {
        "details": "Retrieves maximum available bridge amount per one transaction taking into account maxPerTx() and dailyLimit() parameters.",
        "return": "minimum of maxPerTx parameter and remaining daily quota."
      },
      "mediatorContractOnOtherSide()": {
        "details": "Tells the mediator contract address from the other network.",
        "return": "the address of the mediator contract."
      },
      "messageFixed(bytes32)": {
        "details": "Tells if a message sent to the AMB bridge has been fixed.",
        "return": "bool indicating the status of the message."
      },
      "onTokenTransfer(address,uint256,bytes)": {
        "details": "This method is called when transferAndCall is used from ERC677 to transfer the tokens to this contract. It will initiate the bridge operation that will burn the amount of tokens transferred and unlock the native tokens on the other network.",
        "params": {
          "_data": "this parameter could contain the address of an alternative receiver of the tokens on the other network, otherwise it will be empty.",
          "_from": "address that transferred the tokens.",
          "_value": "amount of tokens transferred."
        }
      },
      "owner()": {
        "details": "Tells the address of the owner",
        "return": "the address of the owner"
      },
      "relayTokens(address,uint256)": {
        "details": "It will initiate the bridge operation that will burn the amount of tokens transferred and unlock the native tokens on the other network. The user should first call Approve method of the ERC677 token.",
        "params": {
          "_receiver": "address that will receive the native tokens on the other network.",
          "_value": "amount of tokens to be transferred to the other network."
        }
      },
      "requestFailedMessageFix(bytes32)": {
        "details": "Method to be called when a bridged message execution failed. It will generate a new message requesting to fix/roll back the transferred assets on the other network.",
        "params": {
          "_messageId": "id of the message which execution failed."
        }
      },
      "requestGasLimit()": {
        "details": "Tells the gas limit to be used in the message execution by the AMB bridge on the other network.",
        "return": "the gas limit for the message execution."
      },
      "setBridgeContract(address)": {
        "details": "Sets the AMB bridge contract address. Only the owner can call this method.",
        "params": {
          "_bridgeContract": "the address of the bridge contract."
        }
      },
      "setFeeManagerContract(address)": {
        "details": "Sets the fee manager contract address. Only the owner can call this method.",
        "params": {
          "_feeManager": "the address of the fee manager contract."
        }
      },
      "setMediatorContractOnOtherSide(address)": {
        "details": "Sets the mediator contract address from the other network. Only the owner can call this method.",
        "params": {
          "_mediatorContract": "the address of the mediator contract."
        }
      },
      "setRequestGasLimit(uint256)": {
        "details": "Sets the gas limit to be used in the message execution by the AMB bridge on the other network. This value can't exceed the parameter maxGasPerTx defined on the AMB bridge. Only the owner can call this method.",
        "params": {
          "_requestGasLimit": "the gas limit for the message execution."
        }
      },
      "transferOwnership(address)": {
        "details": "Allows the current owner to transfer control of the contract to a newOwner.",
        "params": {
          "newOwner": "the address to transfer ownership to."
        }
      }
    },
    "title": "ForeignAMBNativeToErc20"
  },
  "userdoc": {
    "methods": {}
  }
}