{
  "contractName": "ForeignBridgeErcToNative",
  "abi": [
    {
      "constant": true,
      "inputs": [],
      "name": "erc20token",
      "outputs": [
        {
          "name": "",
          "type": "address"
        }
      ],
      "payable": false,
      "stateMutability": "view",
      "type": "function"
    },
    {
      "constant": true,
      "inputs": [
        {
          "name": "_txHash",
          "type": "bytes32"
        }
      ],
      "name": "relayedMessages",
      "outputs": [
        {
          "name": "",
          "type": "bool"
        }
      ],
      "payable": false,
      "stateMutability": "view",
      "type": "function"
    },
    {
      "constant": true,
      "inputs": [
        {
          "name": "_day",
          "type": "uint256"
        }
      ],
      "name": "totalSpentPerDay",
      "outputs": [
        {
          "name": "",
          "type": "uint256"
        }
      ],
      "payable": false,
      "stateMutability": "view",
      "type": "function"
    },
    {
      "constant": true,
      "inputs": [],
      "name": "isChaiTokenEnabled",
      "outputs": [
        {
          "name": "",
          "type": "bool"
        }
      ],
      "payable": false,
      "stateMutability": "view",
      "type": "function"
    },
    {
      "constant": true,
      "inputs": [],
      "name": "dsrBalance",
      "outputs": [
        {
          "name": "",
          "type": "uint256"
        }
      ],
      "payable": false,
      "stateMutability": "view",
      "type": "function"
    },
    {
      "constant": true,
      "inputs": [],
      "name": "isInitialized",
      "outputs": [
        {
          "name": "",
          "type": "bool"
        }
      ],
      "payable": false,
      "stateMutability": "view",
      "type": "function"
    },
    {
      "constant": false,
      "inputs": [
        {
          "name": "_dailyLimit",
          "type": "uint256"
        }
      ],
      "name": "setExecutionDailyLimit",
      "outputs": [],
      "payable": false,
      "stateMutability": "nonpayable",
      "type": "function"
    },
    {
      "constant": true,
      "inputs": [],
      "name": "getCurrentDay",
      "outputs": [
        {
          "name": "",
          "type": "uint256"
        }
      ],
      "payable": false,
      "stateMutability": "view",
      "type": "function"
    },
    {
      "constant": true,
      "inputs": [],
      "name": "requiredBlockConfirmations",
      "outputs": [
        {
          "name": "",
          "type": "uint256"
        }
      ],
      "payable": false,
      "stateMutability": "view",
      "type": "function"
    },
    {
      "constant": false,
      "inputs": [
        {
          "name": "message",
          "type": "bytes"
        },
        {
          "name": "signatures",
          "type": "bytes"
        }
      ],
      "name": "executeSignatures",
      "outputs": [],
      "payable": false,
      "stateMutability": "nonpayable",
      "type": "function"
    },
    {
      "constant": true,
      "inputs": [],
      "name": "executionDailyLimit",
      "outputs": [
        {
          "name": "",
          "type": "uint256"
        }
      ],
      "payable": false,
      "stateMutability": "view",
      "type": "function"
    },
    {
      "constant": true,
      "inputs": [
        {
          "name": "_day",
          "type": "uint256"
        }
      ],
      "name": "totalExecutedPerDay",
      "outputs": [
        {
          "name": "",
          "type": "uint256"
        }
      ],
      "payable": false,
      "stateMutability": "view",
      "type": "function"
    },
    {
      "constant": true,
      "inputs": [],
      "name": "dailyLimit",
      "outputs": [
        {
          "name": "",
          "type": "uint256"
        }
      ],
      "payable": false,
      "stateMutability": "view",
      "type": "function"
    },
    {
      "constant": true,
      "inputs": [],
      "name": "minDaiTokenBalance",
      "outputs": [
        {
          "name": "",
          "type": "uint256"
        }
      ],
      "payable": false,
      "stateMutability": "view",
      "type": "function"
    },
    {
      "constant": true,
      "inputs": [
        {
          "name": "_amount",
          "type": "uint256"
        }
      ],
      "name": "withinExecutionLimit",
      "outputs": [
        {
          "name": "",
          "type": "bool"
        }
      ],
      "payable": false,
      "stateMutability": "view",
      "type": "function"
    },
    {
      "constant": true,
      "inputs": [],
      "name": "executionMaxPerTx",
      "outputs": [
        {
          "name": "",
          "type": "uint256"
        }
      ],
      "payable": false,
      "stateMutability": "view",
      "type": "function"
    },
    {
      "constant": true,
      "inputs": [],
      "name": "requiredSignatures",
      "outputs": [
        {
          "name": "",
          "type": "uint256"
        }
      ],
      "payable": false,
      "stateMutability": "view",
      "type": "function"
    },
    {
      "constant": true,
      "inputs": [],
      "name": "owner",
      "outputs": [
        {
          "name": "",
          "type": "address"
        }
      ],
      "payable": false,
      "stateMutability": "view",
      "type": "function"
    },
    {
      "constant": false,
      "inputs": [
        {
          "name": "period",
          "type": "uint256"
        }
      ],
      "name": "setInterestCollectionPeriod",
      "outputs": [],
      "payable": false,
      "stateMutability": "nonpayable",
      "type": "function"
    },
    {
      "constant": true,
      "inputs": [],
      "name": "interestCollectionPeriod",
      "outputs": [
        {
          "name": "",
          "type": "uint256"
        }
      ],
      "payable": false,
      "stateMutability": "view",
      "type": "function"
    },
    {
      "constant": true,
      "inputs": [],
      "name": "maxAvailablePerTx",
      "outputs": [
        {
          "name": "",
          "type": "uint256"
        }
      ],
      "payable": false,
      "stateMutability": "view",
      "type": "function"
    },
    {
      "constant": true,
      "inputs": [],
      "name": "validatorContract",
      "outputs": [
        {
          "name": "",
          "type": "address"
        }
      ],
      "payable": false,
      "stateMutability": "view",
      "type": "function"
    },
    {
      "constant": true,
      "inputs": [],
      "name": "deployedAtBlock",
      "outputs": [
        {
          "name": "",
          "type": "uint256"
        }
      ],
      "payable": false,
      "stateMutability": "view",
      "type": "function"
    },
    {
      "constant": true,
      "inputs": [],
      "name": "getBridgeInterfacesVersion",
      "outputs": [
        {
          "name": "major",
          "type": "uint64"
        },
        {
          "name": "minor",
          "type": "uint64"
        },
        {
          "name": "patch",
          "type": "uint64"
        }
      ],
      "payable": false,
      "stateMutability": "pure",
      "type": "function"
    },
    {
      "constant": false,
      "inputs": [
        {
          "name": "receiver",
          "type": "address"
        }
      ],
      "name": "setInterestReceiver",
      "outputs": [],
      "payable": false,
      "stateMutability": "nonpayable",
      "type": "function"
    },
    {
      "constant": false,
      "inputs": [],
      "name": "payInterest",
      "outputs": [],
      "payable": false,
      "stateMutability": "nonpayable",
      "type": "function"
    },
    {
      "constant": true,
      "inputs": [],
      "name": "isDaiNeedsToBeInvested",
      "outputs": [
        {
          "name": "",
          "type": "bool"
        }
      ],
      "payable": false,
      "stateMutability": "view",
      "type": "function"
    },
    {
      "constant": false,
      "inputs": [
        {
          "name": "_minPerTx",
          "type": "uint256"
        }
      ],
      "name": "setMinPerTx",
      "outputs": [],
      "payable": false,
      "stateMutability": "nonpayable",
      "type": "function"
    },
    {
      "constant": false,
      "inputs": [
        {
          "name": "_minBalance",
          "type": "uint256"
        }
      ],
      "name": "setMinDaiTokenBalance",
      "outputs": [],
      "payable": false,
      "stateMutability": "nonpayable",
      "type": "function"
    },
    {
      "constant": true,
      "inputs": [],
      "name": "chaiToken",
      "outputs": [
        {
          "name": "",
          "type": "address"
        }
      ],
      "payable": false,
      "stateMutability": "view",
      "type": "function"
    },
    {
      "constant": false,
      "inputs": [
        {
          "name": "_blockConfirmations",
          "type": "uint256"
        }
      ],
      "name": "setRequiredBlockConfirmations",
      "outputs": [],
      "payable": false,
      "stateMutability": "nonpayable",
      "type": "function"
    },
    {
      "constant": false,
      "inputs": [
        {
          "name": "_dailyLimit",
          "type": "uint256"
        }
      ],
      "name": "setDailyLimit",
      "outputs": [],
      "payable": false,
      "stateMutability": "nonpayable",
      "type": "function"
    },
    {
      "constant": true,
      "inputs": [],
      "name": "investedAmountInDai",
      "outputs": [
        {
          "name": "",
          "type": "uint256"
        }
      ],
      "payable": false,
      "stateMutability": "view",
      "type": "function"
    },
    {
      "constant": false,
      "inputs": [
        {
          "name": "_gasPrice",
          "type": "uint256"
        }
      ],
      "name": "setGasPrice",
      "outputs": [],
      "payable": false,
      "stateMutability": "nonpayable",
      "type": "function"
    },
    {
      "constant": false,
      "inputs": [
        {
          "name": "_maxPerTx",
          "type": "uint256"
        }
      ],
      "name": "setMaxPerTx",
      "outputs": [],
      "payable": false,
      "stateMutability": "nonpayable",
      "type": "function"
    },
    {
      "constant": true,
      "inputs": [],
      "name": "interestReceiver",
      "outputs": [
        {
          "name": "",
          "type": "address"
        }
      ],
      "payable": false,
      "stateMutability": "view",
      "type": "function"
    },
    {
      "constant": false,
      "inputs": [
        {
          "name": "_interestReceiver",
          "type": "address"
        }
      ],
      "name": "initializeChaiToken",
      "outputs": [],
      "payable": false,
      "stateMutability": "nonpayable",
      "type": "function"
    },
    {
      "constant": true,
      "inputs": [],
      "name": "chaiBalance",
      "outputs": [
        {
          "name": "",
          "type": "uint256"
        }
      ],
      "payable": false,
      "stateMutability": "view",
      "type": "function"
    },
    {
      "constant": false,
      "inputs": [],
      "name": "convertDaiToChai",
      "outputs": [],
      "payable": false,
      "stateMutability": "nonpayable",
      "type": "function"
    },
    {
      "constant": false,
      "inputs": [],
      "name": "removeChaiToken",
      "outputs": [],
      "payable": false,
      "stateMutability": "nonpayable",
      "type": "function"
    },
    {
      "constant": true,
      "inputs": [],
      "name": "decimalShift",
      "outputs": [
        {
          "name": "",
          "type": "int256"
        }
      ],
      "payable": false,
      "stateMutability": "view",
      "type": "function"
    },
    {
      "constant": true,
      "inputs": [],
      "name": "minPerTx",
      "outputs": [
        {
          "name": "",
          "type": "uint256"
        }
      ],
      "payable": false,
      "stateMutability": "view",
      "type": "function"
    },
    {
      "constant": true,
      "inputs": [
        {
          "name": "_amount",
          "type": "uint256"
        }
      ],
      "name": "withinLimit",
      "outputs": [
        {
          "name": "",
          "type": "bool"
        }
      ],
      "payable": false,
      "stateMutability": "view",
      "type": "function"
    },
    {
      "constant": true,
      "inputs": [],
      "name": "lastInterestPayment",
      "outputs": [
        {
          "name": "",
          "type": "uint256"
        }
      ],
      "payable": false,
      "stateMutability": "view",
      "type": "function"
    },
    {
      "constant": false,
      "inputs": [],
      "name": "initializeChaiToken",
      "outputs": [],
      "payable": false,
      "stateMutability": "nonpayable",
      "type": "function"
    },
    {
      "constant": false,
      "inputs": [
        {
          "name": "_maxPerTx",
          "type": "uint256"
        }
      ],
      "name": "setExecutionMaxPerTx",
      "outputs": [],
      "payable": false,
      "stateMutability": "nonpayable",
      "type": "function"
    },
    {
      "constant": false,
      "inputs": [
        {
          "name": "newOwner",
          "type": "address"
        }
      ],
      "name": "transferOwnership",
      "outputs": [],
      "payable": false,
      "stateMutability": "nonpayable",
      "type": "function"
    },
    {
      "constant": true,
      "inputs": [],
      "name": "maxPerTx",
      "outputs": [
        {
          "name": "",
          "type": "uint256"
        }
      ],
      "payable": false,
      "stateMutability": "view",
      "type": "function"
    },
    {
      "constant": true,
      "inputs": [],
      "name": "gasPrice",
      "outputs": [
        {
          "name": "",
          "type": "uint256"
        }
      ],
      "payable": false,
      "stateMutability": "view",
      "type": "function"
    },
    {
      "anonymous": false,
      "inputs": [
        {
          "indexed": false,
          "name": "to",
          "type": "address"
        },
        {
          "indexed": false,
          "name": "value",
          "type": "uint256"
        }
      ],
      "name": "PaidInterest",
      "type": "event"
    },
    {
      "anonymous": false,
      "inputs": [
        {
          "indexed": true,
          "name": "from",
          "type": "address"
        },
        {
          "indexed": true,
          "name": "to",
          "type": "address"
        },
        {
          "indexed": false,
          "name": "value",
          "type": "uint256"
        }
      ],
      "name": "TokensSwapped",
      "type": "event"
    },
    {
      "anonymous": false,
      "inputs": [
        {
          "indexed": false,
          "name": "recipient",
          "type": "address"
        },
        {
          "indexed": false,
          "name": "value",
          "type": "uint256"
        },
        {
          "indexed": false,
          "name": "transactionHash",
          "type": "bytes32"
        }
      ],
      "name": "RelayedMessage",
      "type": "event"
    },
    {
      "anonymous": false,
      "inputs": [
        {
          "indexed": false,
          "name": "recipient",
          "type": "address"
        },
        {
          "indexed": false,
          "name": "value",
          "type": "uint256"
        }
      ],
      "name": "UserRequestForAffirmation",
      "type": "event"
    },
    {
      "anonymous": false,
      "inputs": [
        {
          "indexed": false,
          "name": "newLimit",
          "type": "uint256"
        }
      ],
      "name": "DailyLimitChanged",
      "type": "event"
    },
    {
      "anonymous": false,
      "inputs": [
        {
          "indexed": false,
          "name": "newLimit",
          "type": "uint256"
        }
      ],
      "name": "ExecutionDailyLimitChanged",
      "type": "event"
    },
    {
      "anonymous": false,
      "inputs": [
        {
          "indexed": false,
          "name": "gasPrice",
          "type": "uint256"
        }
      ],
      "name": "GasPriceChanged",
      "type": "event"
    },
    {
      "anonymous": false,
      "inputs": [
        {
          "indexed": false,
          "name": "requiredBlockConfirmations",
          "type": "uint256"
        }
      ],
      "name": "RequiredBlockConfirmationChanged",
      "type": "event"
    },
    {
      "anonymous": false,
      "inputs": [
        {
          "indexed": false,
          "name": "previousOwner",
          "type": "address"
        },
        {
          "indexed": false,
          "name": "newOwner",
          "type": "address"
        }
      ],
      "name": "OwnershipTransferred",
      "type": "event"
    },
    {
      "constant": false,
      "inputs": [
        {
          "name": "_validatorContract",
          "type": "address"
        },
        {
          "name": "_erc20token",
          "type": "address"
        },
        {
          "name": "_requiredBlockConfirmations",
          "type": "uint256"
        },
        {
          "name": "_gasPrice",
          "type": "uint256"
        },
        {
          "name": "_dailyLimitMaxPerTxMinPerTxArray",
          "type": "uint256[3]"
        },
        {
          "name": "_homeDailyLimitHomeMaxPerTxArray",
          "type": "uint256[2]"
        },
        {
          "name": "_owner",
          "type": "address"
        },
        {
          "name": "_decimalShift",
          "type": "int256"
        },
        {
          "name": "_bridgeOnOtherSide",
          "type": "address"
        }
      ],
      "name": "initialize",
      "outputs": [
        {
          "name": "",
          "type": "bool"
        }
      ],
      "payable": false,
      "stateMutability": "nonpayable",
      "type": "function"
    },
    {
      "constant": true,
      "inputs": [],
      "name": "getBridgeMode",
      "outputs": [
        {
          "name": "_data",
          "type": "bytes4"
        }
      ],
      "payable": false,
      "stateMutability": "pure",
      "type": "function"
    },
    {
      "constant": false,
      "inputs": [
        {
          "name": "_token",
          "type": "address"
        },
        {
          "name": "_to",
          "type": "address"
        }
      ],
      "name": "claimTokens",
      "outputs": [],
      "payable": false,
      "stateMutability": "nonpayable",
      "type": "function"
    },
    {
      "constant": false,
      "inputs": [
        {
          "name": "_receiver",
          "type": "address"
        },
        {
          "name": "_amount",
          "type": "uint256"
        }
      ],
      "name": "relayTokens",
      "outputs": [],
      "payable": false,
      "stateMutability": "nonpayable",
      "type": "function"
    }
  ],
  "bytecode": "0x608060405234801561001057600080fd5b50613d5f806100206000396000f3006080604052600436106102635763ffffffff60e060020a60003504166301e4f53a81146102685780631dcea4271461028e57806321d800ec146102bf5780632bd0bb05146102eb5780633308fda314610315578063357c016a1461032a578063392e53cd1461033f5780633dd95d1b146103545780633e6968b61461036c5780633f0a9f65146103815780633f7658fd14610396578063437764df146103c257806343b37dd31461040c5780634fb3fef71461042157806367eeba0c14610439578063689a0a7f1461044e57806369ffa08a146104635780636da8b9961461048a578063879ce676146104d25780638aa1949a146104ea5780638d068043146104ff5780638da5cb5b146105145780638daf859d1461052957806394806c691461054157806395e54a1714610556578063994390891461056b5780639a454b99146105805780639cb7595a146105955780639e994ca8146105d6578063a15a211c146105f7578063a15b7df31461060c578063a2a6ca2714610621578063a662e5c114610639578063aa2dfdaf14610651578063acf5c68914610666578063b20d30a91461067e578063b9be4efe14610696578063bf1fe420146106ab578063c6f6f216146106c3578063c77cf615146106db578063caa3af7f146106f0578063cf8e43a414610711578063d7f1cfad14610726578063da2cd0291461073b578063dae5f0fd14610750578063df25f3f014610765578063ea9f49681461077a578063eb3c119614610792578063f02a2584146107a7578063f20151e1146107bc578063f2fde38b146107d4578063f968adbe146107f5578063fe173b971461080a575b600080fd5b34801561027457600080fd5b5061028c600160a060020a036004351660243561081f565b005b34801561029a57600080fd5b506102a361099e565b60408051600160a060020a039092168252519081900360200190f35b3480156102cb57600080fd5b506102d76004356109f5565b604080519115158252519081900360200190f35b3480156102f757600080fd5b50610303600435610abe565b60408051918252519081900360200190f35b34801561032157600080fd5b506102d7610b7b565b34801561033657600080fd5b50610303610bcc565b34801561034b57600080fd5b506102d7610c61565b34801561036057600080fd5b5061028c600435610cb2565b34801561037857600080fd5b50610303610d72565b34801561038d57600080fd5b50610303610d7b565b3480156103a257600080fd5b5061028c6024600480358281019290820135918135918201910135610dc9565b3480156103ce57600080fd5b506103d7610f3e565b604080517fffffffff000000000000000000000000000000000000000000000000000000009092168252519081900360200190f35b34801561041857600080fd5b50610303610f62565b34801561042d57600080fd5b50610303600435610fb0565b34801561044557600080fd5b5061030361102b565b34801561045a57600080fd5b50610303611079565b34801561046f57600080fd5b5061028c600160a060020a03600435811690602435166110c7565b34801561049657600080fd5b506102d7600160a060020a03600435811690602435811690604435906064359060849060e49061012435811690610144359061016435166111a7565b3480156104de57600080fd5b506102d760043561147f565b3480156104f657600080fd5b506103036114c9565b34801561050b57600080fd5b50610303611517565b34801561052057600080fd5b506102a361155e565b34801561053557600080fd5b5061028c6004356115b5565b34801561054d57600080fd5b5061030361161e565b34801561056257600080fd5b5061030361166c565b34801561057757600080fd5b506102a36116c6565b34801561058c57600080fd5b5061030361171d565b3480156105a157600080fd5b506105aa61176b565b6040805167ffffffffffffffff9485168152928416602084015292168183015290519081900360600190f35b3480156105e257600080fd5b5061028c600160a060020a0360043516611776565b34801561060357600080fd5b5061028c61181f565b34801561061857600080fd5b506102d76118d9565b34801561062d57600080fd5b5061028c600435611904565b34801561064557600080fd5b5061028c6004356119a0565b34801561065d57600080fd5b506102a3611a09565b34801561067257600080fd5b5061028c600435611a21565b34801561068a57600080fd5b5061028c600435611a49565b3480156106a257600080fd5b50610303611b09565b3480156106b757600080fd5b5061028c600435611b57565b3480156106cf57600080fd5b5061028c600435611b7c565b3480156106e757600080fd5b506102a3611c14565b3480156106fc57600080fd5b5061028c600160a060020a0360043516611c6b565b34801561071d57600080fd5b50610303611c88565b34801561073257600080fd5b5061028c611cec565b34801561074757600080fd5b5061028c611eda565b34801561075c57600080fd5b50610303611f75565b34801561077157600080fd5b50610303611fc3565b34801561078657600080fd5b506102d7600435612011565b34801561079e57600080fd5b5061030361205c565b3480156107b357600080fd5b5061028c6120aa565b3480156107c857600080fd5b5061028c600435612217565b3480156107e057600080fd5b5061028c600160a060020a0360043516612293565b34801561080157600080fd5b506103036122b8565b34801561081657600080fd5b50610303612306565b610827612354565b600160a060020a038381169116141561083f57600080fd5b600160a060020a038216151561085457600080fd5b600160a060020a03821630141561086a57600080fd5b6000811161087757600080fd5b61088081612011565b151561088b57600080fd5b61089c610896610d72565b826123ab565b6108a461099e565b604080517f23b872dd000000000000000000000000000000000000000000000000000000008152336004820152306024820152604481018490529051600160a060020a0392909216916323b872dd916064808201926020929091908290030181600087803b15801561091557600080fd5b505af1158015610929573d6000803e3d6000fd5b505050506040513d602081101561093f57600080fd5b505060408051600160a060020a03841681526020810183905281517f1d491a427d1f8cc0d447496f300fac39f7306122481d8e663451eb268274146b929181900390910190a161098d6118d9565b1561099a5761099a611cec565b5050565b7f15d63b18dbc21bf4438b7972d80076747e1d93c4f87552fe498c90cbde51665e60005260026020527f70dfdbaec92bfd068fb9a67f8c22440e995abe75330f5b6b79a478c9bc8ccbd154600160a060020a031690565b6000600460008360405160200180807f72656c617965644d657373616765730000000000000000000000000000000000815250600f0182600019166000191681526020019150506040516020818303038152906040526040518082805190602001908083835b60208310610a7a5780518252601f199092019160209182019101610a5b565b51815160209384036101000a600019018019909216911617905260408051929094018290039091208652850195909552929092016000205460ff1695945050505050565b60008060008360405160200180807f746f74616c5370656e74506572446179000000000000000000000000000000008152506010018281526020019150506040516020818303038152906040526040518082805190602001908083835b60208310610b3a5780518252601f199092019160209182019101610b1b565b51815160209384036101000a600019018019909216911617905260408051929094018290039091208652850195909552929092016000205495945050505050565b7f2ae87563606f93f71ad2adf4d62661ccdfb63f3f508f94700934d5877fb9227860005260046020527fb43c4ea47a5b3cf194e0662836a0c1d8d8ed020ffeb2302df1043ef3c78cfefa5460ff1690565b6000610bd6611a09565b600160a060020a0316636c25b346306040518263ffffffff1660e060020a0281526004018082600160a060020a0316600160a060020a03168152602001915050602060405180830381600087803b158015610c3057600080fd5b505af1158015610c44573d6000803e3d6000fd5b505050506040513d6020811015610c5a57600080fd5b5051905090565b7f0a6f646cd611241d8073675e00d1a1ff700fbf1b53fcf473de56d1e6e4b714ba60005260046020527f078d888f9b66f3f8bfa10909e31f1e16240db73449f0500afdbbe3a70da457cc5460ff1690565b610cba61155e565b600160a060020a03163314610cce57600080fd5b610cd66114c9565b811180610ce1575080155b1515610cec57600080fd5b7f21dbcab260e413c20dc13c28b7db95e2b423d1135f42bb8b7d5214a92270d237600090815260209081527fadd938dbd083a16bae12238cd914fca0afc7a30edb55b1cd5c7f1823f1b0e4218290556040805183815290517f9bebf928b90863f24cc31f726a3a7545efd409f1dcf552301b1ee3710da70d3b929181900390910190a150565b62015180420490565b7f916daedf6915000ff68ced2f0b6773fe6f2582237f92c3c95bb4d7940723007160009081526020527fd2ea0feb732edb0ffe32efd33a6b9d24d46b16eb34a4d07ce256537b6f131e425490565b600080600080610e4188888080601f0160208091040260200160405190810160405280939291908181526020018383808284375050604080516020601f8e018190048102820181019092528c815294508c93508b9250829150840183828082843750610e3a94506116c69350505050565b6000612474565b610e7a88888080601f016020809104026020016040519081016040528093929190818152602001838380828437506126fe945050505050565b92965090945092509050610e8d8361147f565b15610f2957600160a060020a0381163014610ea757600080fd5b610eb0826109f5565b15610eba57600080fd5b610ec5826001612739565b610ed084848461280b565b1515610edb57600080fd5b60408051600160a060020a03861681526020810185905280820184905290517f4ab7d581336d92edbea22636a613e8e76c99ac7f91137c1523db38dbfb3bf3299181900360600190a1610f34565b610f34848484610263565b5050505050505050565b7f18762d460000000000000000000000000000000000000000000000000000000090565b7f21dbcab260e413c20dc13c28b7db95e2b423d1135f42bb8b7d5214a92270d23760009081526020527fadd938dbd083a16bae12238cd914fca0afc7a30edb55b1cd5c7f1823f1b0e4215490565b60008060008360405160200180807f746f74616c45786563757465645065724461790000000000000000000000000081525060130182815260200191505060405160208183030381529060405260405180828051906020019080838360208310610b3a5780518252601f199092019160209182019101610b1b565b7f4a6a899679f26b73530d8cf1001e83b6f7702e04b6fdb98f3c62dc7e47e041a560009081526020527f1ab29a5cca988aee50edccdd61c5bcaa7ad4b29a03b7ee50f298ceccfe14cc4e5490565b7fce70e1dac97909c26a87aa4ada3d490673a153b3a75b22ea3364c4c7df7c551f60009081526020527f9832ebc6a539503ffa825ed4487ebf9838d217d90dfb1bc20fcb8fd2dbeb79845490565b30600160a060020a0316636fde82026040518163ffffffff1660e060020a028152600401602060405180830381600087803b15801561110557600080fd5b505af1158015611119573d6000803e3d6000fd5b505050506040513d602081101561112f57600080fd5b5051600160a060020a0316331461114557600080fd5b61114d61099e565b600160a060020a038381169116141561116557600080fd5b61116d611a09565b600160a060020a031682600160a060020a03161415806111925750611190610b7b565b155b151561119d57600080fd5b61099a8282612906565b60408051600481526024810182526020810180517bffffffffffffffffffffffffffffffffffffffffffffffffffffffff167f6fde8202000000000000000000000000000000000000000000000000000000001781529151815160009330939291829190808383895b83811015611228578181015183820152602001611210565b50505050905090810190601f1680156112555780820380516001836020036101000a031916815260200191505b509150506000604051808303816000865af191505015806112e7575030600160a060020a0316636fde82026040518163ffffffff1660e060020a028152600401602060405180830381600087803b1580156112af57600080fd5b505af11580156112c3573d6000803e3d6000fd5b505050506040513d60208110156112d957600080fd5b5051600160a060020a031633145b806112f157503330145b15156112fc57600080fd5b611304610c61565b1561130e57600080fd5b6113178a612949565b151561132257600080fd5b7f5a74bb7e202fb8e4bf311841c7d64ec19df195fee77d7e7ae749b27921b6ddfe60005260026020527fab54f3fbbe62c59b7876a9bf9bd5e0c22dbae93f4d8ee0438f7ce62b198eb0e0805473ffffffffffffffffffffffffffffffffffffffff1916600160a060020a038c1617905561139b89612951565b7fb120ceec05576ad0c710bc6e85f1768535e27554458f05dcbb5c65b8c7a749b06000908152602052437fe66bef0282a446f9848e2903380099bb6e431483ee78778868f33b4a154c818b556113f0886129dc565b6113f987612a6f565b604080516060818101909252611421918890600390839083908082843750612a859350505050565b604080518082018252611446918790600290839083908082843750612be29350505050565b61144f83612cb7565b61145884612d20565b61146182612df7565b611469612e83565b611471610c61565b9a9950505050505050505050565b6000806114a283611496611491610d72565b610fb0565b9063ffffffff612eda16565b9050806114ad610f62565b101580156114c257506114be6114c9565b8311155b9392505050565b7fc0ed44c192c86d1cc1ba51340b032c2766b4a2b0041031de13c46dd7104888d560009081526020527ff8e983ee86e5e377e9e34c9131b266382c3f04113d20de077f9e12663c7a646b5490565b60006115216116c6565b600160a060020a0316638d0680436040518163ffffffff1660e060020a028152600401602060405180830381600087803b158015610c3057600080fd5b7f02016836a56b71f0d02689e69e326f4f4c1b9057164ef592671cf0d37c8040c060005260026020527fb7802e97e87ef2842a6cce7da7ffaeaedaa2f61a6a7870b23d9d01fc9b73712e54600160a060020a031690565b6115bd61155e565b600160a060020a031633146115d157600080fd5b7f68a6a652d193e5d6439c4309583048050a11a4cfb263a220f4cd798c61c3ad6e60009081526020527f3c2f35701aefcf659746068bfc07cbb316080a369ee530aedd89382885fa526655565b7f68a6a652d193e5d6439c4309583048050a11a4cfb263a220f4cd798c61c3ad6e60009081526020527f3c2f35701aefcf659746068bfc07cbb316080a369ee530aedd89382885fa52665490565b600080600080600061167c6122b8565b935061168661102b565b9250611698611693610d72565b610abe565b91508183116116a85760006116ac565b8183035b90508084106116bb57806116bd565b835b94505050505090565b7f5a74bb7e202fb8e4bf311841c7d64ec19df195fee77d7e7ae749b27921b6ddfe60005260026020527fab54f3fbbe62c59b7876a9bf9bd5e0c22dbae93f4d8ee0438f7ce62b198eb0e054600160a060020a031690565b7fb120ceec05576ad0c710bc6e85f1768535e27554458f05dcbb5c65b8c7a749b060009081526020527fe66bef0282a446f9848e2903380099bb6e431483ee78778868f33b4a154c818b5490565b600560026000909192565b61177e61155e565b600160a060020a0316331461179257600080fd5b600160a060020a0381163014156117a857600080fd5b7fd88509eb1a8da5d5a2fc7b9bad1c72874c9818c788e81d0bc46b29bfaa83adf660005260026020527f9fce7855975489c294c9e457c529ed8d5e394d90544806223ff4dfd426b3c5a0805473ffffffffffffffffffffffffffffffffffffffff1916600160a060020a0392909216919091179055565b611827610b7b565b151561183257600080fd5b4261183b61161e565b61184361205c565b0110806118ca575033600160a060020a031630600160a060020a0316636fde82026040518163ffffffff1660e060020a028152600401602060405180830381600087803b15801561189357600080fd5b505af11580156118a7573d6000803e3d6000fd5b505050506040513d60208110156118bd57600080fd5b5051600160a060020a0316145b156118d7576118d7612eed565b565b60006118e3610b7b565b80156118ff57506118f2611079565b6002026118fd613147565b115b905090565b61190c61155e565b600160a060020a0316331461192057600080fd5b600081118015611936575061193361102b565b81105b801561194857506119456122b8565b81105b151561195357600080fd5b7fbbb088c505d18e049d114c7c91f11724e69c55ad6c5397e2b929e68b41fa05d160009081526020527f8df5c48c6b6e11d97548adc824ba0c99103ec09830fa5d53a179984085e6eaa055565b6119a861155e565b600160a060020a031633146119bc57600080fd5b7fce70e1dac97909c26a87aa4ada3d490673a153b3a75b22ea3364c4c7df7c551f60009081526020527f9832ebc6a539503ffa825ed4487ebf9838d217d90dfb1bc20fcb8fd2dbeb798455565b7306af07097c9eeb7fd685c692751d5c66db49c21590565b611a2961155e565b600160a060020a03163314611a3d57600080fd5b611a46816129dc565b50565b611a5161155e565b600160a060020a03163314611a6557600080fd5b611a6d6122b8565b811180611a78575080155b1515611a8357600080fd5b7f4a6a899679f26b73530d8cf1001e83b6f7702e04b6fdb98f3c62dc7e47e041a5600090815260209081527f1ab29a5cca988aee50edccdd61c5bcaa7ad4b29a03b7ee50f298ceccfe14cc4e8290556040805183815290517fad4123ae17c414d9c6d2fec478b402e6b01856cc250fd01fbfd252fda0089d3c929181900390910190a150565b7fb6afb3323c9d7dc0e9dab5d34c3a1d1ae7739d2224c048d4ee7675d3c759dd1b60009081526020527f3460222b9a3ece8a5d0f3c356d71600f84469cf005d43ebf8cbead2960eb07005490565b611b5f61155e565b600160a060020a03163314611b7357600080fd5b611a4681612a6f565b611b8461155e565b600160a060020a03163314611b9857600080fd5b801580611bbc5750611ba8611fc3565b81118015611bbc5750611bb961102b565b81105b1515611bc757600080fd5b7f0f8803acad17c63ee38bf2de71e1888bc7a079a6f73658e274b08018bea4e29c60009081526020527f9de0f81379b4d8e60fe509315d071b56e7b732abaf193e74e0d15808b0951d0955565b7fd88509eb1a8da5d5a2fc7b9bad1c72874c9818c788e81d0bc46b29bfaa83adf660005260026020527f9fce7855975489c294c9e457c529ed8d5e394d90544806223ff4dfd426b3c5a054600160a060020a031690565b600160a060020a0381161515611c8057600080fd5b6117a86120aa565b6000611c92611a09565b600160a060020a03166370a08231306040518263ffffffff1660e060020a0281526004018082600160a060020a0316600160a060020a03168152602001915050602060405180830381600087803b158015610c3057600080fd5b600080611cf7610b7b565b1515611d0257600080fd5b611d21611d0d611079565b611d15613147565b9063ffffffff61315116565b915060008211611d3057600080fd5b81611d39611b09565b019050611d4581613163565b611d4d61099e565b600160a060020a031663095ea7b3611d63611a09565b846040518363ffffffff1660e060020a0281526004018083600160a060020a0316600160a060020a0316815260200182815260200192505050602060405180830381600087803b158015611db657600080fd5b505af1158015611dca573d6000803e3d6000fd5b505050506040513d6020811015611de057600080fd5b50611deb9050611a09565b600160a060020a0316633b4da69f30846040518363ffffffff1660e060020a0281526004018083600160a060020a0316600160a060020a0316815260200182815260200192505050600060405180830381600087803b158015611e4d57600080fd5b505af1158015611e61573d6000803e3d6000fd5b5050505080611e6e610bcc565b612710011015611e7d57600080fd5b611e85611a09565b600160a060020a0316611e9661099e565b600160a060020a03167fc9eb26923da1234c68dca895268e287fcc49c6aa94a6da3cc280180ae378de13846040518082815260200191505060405180910390a35050565b611ee261155e565b600160a060020a03163314611ef657600080fd5b611efe610b7b565b1515611f0957600080fd5b611f19611f14611b09565b6131b0565b611f21612eed565b7f2ae87563606f93f71ad2adf4d62661ccdfb63f3f508f94700934d5877fb9227860005260046020527fb43c4ea47a5b3cf194e0662836a0c1d8d8ed020ffeb2302df1043ef3c78cfefa805460ff19169055565b7f1e8ecaafaddea96ed9ac6d2642dcdfe1bebe58a930b1085842d8fc122b371ee560009081526020527fd5c78dd9468716ca9bb96be25d56436811b20aab3523a9904b12deef1cab239d5490565b7fbbb088c505d18e049d114c7c91f11724e69c55ad6c5397e2b929e68b41fa05d160009081526020527f8df5c48c6b6e11d97548adc824ba0c99103ec09830fa5d53a179984085e6eaa05490565b60008061202383611496611693610d72565b90508061202e61102b565b10158015612043575061203f6122b8565b8311155b80156114c25750612052611fc3565b9092101592915050565b7fcabd46177a706f95f4bb3e2c2ba45ac4aa1eac9c545425a19c62ab6de4aeea2660009081526020527f9c965725f76a89cb212c2b5980ead7d9327c2447d5a8f0097ac455ad5415c5e35490565b6120b261155e565b600160a060020a031633146120c657600080fd5b6120ce610b7b565b156120d857600080fd5b6120e061099e565b600160a060020a03166120f1611a09565b600160a060020a031663be22f5466040518163ffffffff1660e060020a028152600401602060405180830381600087803b15801561212e57600080fd5b505af1158015612142573d6000803e3d6000fd5b505050506040513d602081101561215857600080fd5b5051600160a060020a03161461216d57600080fd5b7fb43c4ea47a5b3cf194e0662836a0c1d8d8ed020ffeb2302df1043ef3c78cfefa805460ff191660011790556000602081905268056bc75e2d631000007f9832ebc6a539503ffa825ed4487ebf9838d217d90dfb1bc20fcb8fd2dbeb7984557f68a6a652d193e5d6439c4309583048050a11a4cfb263a220f4cd798c61c3ad6e905262093a807f3c2f35701aefcf659746068bfc07cbb316080a369ee530aedd89382885fa526655565b61221f61155e565b600160a060020a0316331461223357600080fd5b61223b610f62565b811061224657600080fd5b7fc0ed44c192c86d1cc1ba51340b032c2766b4a2b0041031de13c46dd7104888d560009081526020527ff8e983ee86e5e377e9e34c9131b266382c3f04113d20de077f9e12663c7a646b55565b61229b61155e565b600160a060020a031633146122af57600080fd5b611a4681612d20565b7f0f8803acad17c63ee38bf2de71e1888bc7a079a6f73658e274b08018bea4e29c60009081526020527f9de0f81379b4d8e60fe509315d071b56e7b732abaf193e74e0d15808b0951d095490565b7f55b3774520b5993024893d303890baa4e84b1244a43c60034d1ced2d3cf2b04b60009081526020527ff7d5eefab3776d7f0450bd0193564bcb4f832ce313ff2836c450fc63a4b944195490565b7f71483949fe7a14d16644d63320f24d10cf1d60abecc30cc677a340e82b699dd260005260026020527f21ffdf150a5d180f96d98d16f50e7b4dd63e2a067adc8386cf5af55dcecd8dd954600160a060020a031690565b6123b88161149684610abe565b6000808460405160200180807f746f74616c5370656e74506572446179000000000000000000000000000000008152506010018281526020019150506040516020818303038152906040526040518082805190602001908083835b602083106124325780518252601f199092019160209182019101612413565b51815160209384036101000a60001901801990921691161790526040805192909401829003909120865285019590955292909201600020939093555050505050565b6000806000606060008060008060008060008b8061249657506124968f61331a565b15156124a157600080fd5b8c600160a060020a0316638d0680436040518163ffffffff1660e060020a028152600401602060405180830381600087803b1580156124df57600080fd5b505af11580156124f3573d6000803e3d6000fd5b505050506040513d602081101561250957600080fd5b505160018f0151909b5060ff1699508a8a101561252557600080fd5b61252f8f8d61332e565b98508a60405190808252806020026020018201604052801561255b578160200160208202803883390190505b509750600096505b8a8710156126ed57866020028a6021010192508960200283019150866002018e01519550828e01519450818e01519350600189878787604051600081526020016040526040518085600019166000191681526020018460ff1660ff1681526020018360001916600019168152602001826000191660001916815260200194505050505060206040516020810390808403906000865af115801561260a573d6000803e3d6000fd5b5050506020604051035190508c600160a060020a031663facd743b826040518263ffffffff1660e060020a0281526004018082600160a060020a0316600160a060020a03168152602001915050602060405180830381600087803b15801561267157600080fd5b505af1158015612685573d6000803e3d6000fd5b505050506040513d602081101561269b57600080fd5b505115156126a857600080fd5b6126b28882613548565b156126bc57600080fd5b8088888151811015156126cb57fe5b600160a060020a03909216602092830290910190910152600190960195612563565b505050505050505050505050505050565b60008060008061270d8561331a565b151561271857600080fd5b50505050601481015160348201516054830151606890930151919390929190565b80600460008460405160200180807f72656c617965644d657373616765730000000000000000000000000000000000815250600f0182600019166000191681526020019150506040516020818303038152906040526040518082805190602001908083835b602083106127bd5780518252601f19909201916020918201910161279e565b51815160209384036101000a60001901801990921691161790526040805192909401829003909120865285019590955292909201600020805460ff1916941515949094179093555050505050565b60008060008061282261281c610d72565b876135a3565b61282b86613629565b925061283d61283861099e565b61363f565b91508282101561286557612865611f14612855611079565b611496868663ffffffff61315116565b61286d61099e565b600160a060020a031663a9059cbb88856040518363ffffffff1660e060020a0281526004018083600160a060020a0316600160a060020a0316815260200182815260200192505050602060405180830381600087803b1580156128cf57600080fd5b505af11580156128e3573d6000803e3d6000fd5b505050506040513d60208110156128f957600080fd5b5051979650505050505050565b80600160a060020a038116151561291c57600080fd5b600160a060020a038316151561293a57612935826136d5565b612944565b61294483836136e1565b505050565b6000903b1190565b61295a81612949565b151561296557600080fd5b7f15d63b18dbc21bf4438b7972d80076747e1d93c4f87552fe498c90cbde51665e60005260026020527f70dfdbaec92bfd068fb9a67f8c22440e995abe75330f5b6b79a478c9bc8ccbd1805473ffffffffffffffffffffffffffffffffffffffff1916600160a060020a0392909216919091179055565b600081116129e957600080fd5b7f916daedf6915000ff68ced2f0b6773fe6f2582237f92c3c95bb4d79407230071600090815260209081527fd2ea0feb732edb0ffe32efd33a6b9d24d46b16eb34a4d07ce256537b6f131e428290556040805183815290517f4fb76205cd57c896b21511d2114137d8e901b4ccd659e1a0f97d6306795264fb929181900390910190a150565b60008111612a7c57600080fd5b611a4681613794565b60408101516000108015612aa0575060408101516020820151115b8015612ab0575060208101518151115b1515612abb57600080fd5b80517f4a6a899679f26b73530d8cf1001e83b6f7702e04b6fdb98f3c62dc7e47e041a5600090815260208181527f1ab29a5cca988aee50edccdd61c5bcaa7ad4b29a03b7ee50f298ceccfe14cc4e92909255908201517f0f8803acad17c63ee38bf2de71e1888bc7a079a6f73658e274b08018bea4e29c82527f9de0f81379b4d8e60fe509315d071b56e7b732abaf193e74e0d15808b0951d095560408201517fbbb088c505d18e049d114c7c91f11724e69c55ad6c5397e2b929e68b41fa05d182527f8df5c48c6b6e11d97548adc824ba0c99103ec09830fa5d53a179984085e6eaa0557fad4123ae17c414d9c6d2fec478b402e6b01856cc250fd01fbfd252fda0089d3c9082905b60200201516040518082815260200191505060405180910390a150565b8051602082015110612bf357600080fd5b80517f21dbcab260e413c20dc13c28b7db95e2b423d1135f42bb8b7d5214a92270d237600090815260208181527fadd938dbd083a16bae12238cd914fca0afc7a30edb55b1cd5c7f1823f1b0e42192909255908201517fc0ed44c192c86d1cc1ba51340b032c2766b4a2b0041031de13c46dd7104888d582527ff8e983ee86e5e377e9e34c9131b266382c3f04113d20de077f9e12663c7a646b557f9bebf928b90863f24cc31f726a3a7545efd409f1dcf552301b1ee3710da70d3b908290612bc5565b604c1981138015612cc85750604d81125b1515612cd357600080fd5b7f1e8ecaafaddea96ed9ac6d2642dcdfe1bebe58a930b1085842d8fc122b371ee560009081526020527fd5c78dd9468716ca9bb96be25d56436811b20aab3523a9904b12deef1cab239d55565b600160a060020a0381161515612d3557600080fd5b7f8be0079c531659141344cd1fd0a4f28419497f9722a3daafe3b4186f6b6457e0612d5e61155e565b60408051600160a060020a03928316815291841660208301528051918290030190a17f02016836a56b71f0d02689e69e326f4f4c1b9057164ef592671cf0d37c8040c060005260026020527fb7802e97e87ef2842a6cce7da7ffaeaedaa2f61a6a7870b23d9d01fc9b73712e805473ffffffffffffffffffffffffffffffffffffffff1916600160a060020a0392909216919091179055565b600160a060020a0381161515612e0c57600080fd5b7f71483949fe7a14d16644d63320f24d10cf1d60abecc30cc677a340e82b699dd260005260026020527f21ffdf150a5d180f96d98d16f50e7b4dd63e2a067adc8386cf5af55dcecd8dd9805473ffffffffffffffffffffffffffffffffffffffff1916600160a060020a0392909216919091179055565b7f0a6f646cd611241d8073675e00d1a1ff700fbf1b53fcf473de56d1e6e4b714ba60005260046020527f078d888f9b66f3f8bfa10909e31f1e16240db73449f0500afdbbe3a70da457cc805460ff19166001179055565b81810182811015612ee757fe5b92915050565b600080612ef8611c14565b9150600160a060020a0382161515612f0f57600080fd5b7fcabd46177a706f95f4bb3e2c2ba45ac4aa1eac9c545425a19c62ab6de4aeea266000908152602052427f9c965725f76a89cb212c2b5980ead7d9327c2447d5a8f0097ac455ad5415c5e355612f6e612f6661381a565b611d15611c88565b9050612f78611a09565b600160a060020a031663a9059cbb83836040518363ffffffff1660e060020a0281526004018083600160a060020a0316600160a060020a0316815260200182815260200192505050600060405180830381600087803b158015612fda57600080fd5b505af1158015612fee573d6000803e3d6000fd5b5050604080513060248201526044810185905260606064820152600060848201819052825180830360a401815260c490920183526020820180517bffffffffffffffffffffffffffffffffffffffffffffffffffffffff167fa4c0ed360000000000000000000000000000000000000000000000000000000017815292518251600160a060020a038916965092945092839290918190849084905b838110156130a1578181015183820152602001613089565b50505050905090810190601f1680156130ce5780820380516001836020036101000a031916815260200191505b509150506000604051808303816000865af1915050506130ec611b09565b6130f4610bcc565b10156130ff57600080fd5b60408051600160a060020a03841681526020810183905281517f86dc5ede44424c20a9b49f40c8b747abf8ddd6cf308b4b7f936542c9b1e2571a929181900390910190a15050565b6000611c9261099e565b60008282111561315d57fe5b50900390565b7fb6afb3323c9d7dc0e9dab5d34c3a1d1ae7739d2224c048d4ee7675d3c759dd1b60009081526020527f3460222b9a3ece8a5d0f3c356d71600f84469cf005d43ebf8cbead2960eb070055565b6000808080808515156131c257613312565b6131ca611b09565b94506131d4613147565b9350848610156131e457856131e6565b845b92506131f0611a09565b600160a060020a0316634a03707c30856040518363ffffffff1660e060020a0281526004018083600160a060020a0316600160a060020a0316815260200182815260200192505050600060405180830381600087803b15801561325257600080fd5b505af1158015613266573d6000803e3d6000fd5b5050505083613273613147565b0391508282101561328357600080fd5b818511613291576000613295565b8185035b90506132a081613163565b806132a9610bcc565b6127100110156132b857600080fd5b6132c061099e565b600160a060020a03166132d1611a09565b600160a060020a03167fc9eb26923da1234c68dca895268e287fcc49c6aa94a6da3cc280180ae378de13846040518082815260200191505060405180910390a35b505050505050565b6000613324613a15565b8251149050919050565b60408051808201909152601a81527f19457468657265756d205369676e6564204d6573736167653a0a0000000000006020820152600090606083156134d457816133788651613a1a565b866040516020018084805190602001908083835b602083106133ab5780518252601f19909201916020918201910161338c565b51815160209384036101000a600019018019909216911617905286519190930192860191508083835b602083106133f35780518252601f1990920191602091820191016133d4565b51815160209384036101000a600019018019909216911617905285519190930192850191508083835b6020831061343b5780518252601f19909201916020918201910161341c565b6001836020036101000a03801982511681845116808217855250505050505090500193505050506040516020818303038152906040526040518082805190602001908083835b602083106134a05780518252601f199092019160209182019101613481565b6001836020036101000a03801982511681845116808217855250505050505090500191505060405180910390209250613540565b6040805190810160405280600381526020017f31303400000000000000000000000000000000000000000000000000000000008152509050818186604051602001808480519060200190808383602083106133ab5780518252601f19909201916020918201910161338c565b505092915050565b6000805b83518110156135975782600160a060020a0316848281518110151561356d57fe5b90602001906020020151600160a060020a0316141561358f576001915061359c565b60010161354c565b600091505b5092915050565b6135b08161149684610fb0565b6000808460405160200180807f746f74616c457865637574656450657244617900000000000000000000000000815250601301828152602001915050604051602081830303815290604052604051808280519060200190808383602083106124325780518252601f199092019160209182019101612413565b6000612ee782613637611f75565b600003613b41565b604080517f70a082310000000000000000000000000000000000000000000000000000000081523060048201529051600091600160a060020a038416916370a082319160248082019260209290919082900301818787803b1580156136a357600080fd5b505af11580156136b7573d6000803e3d6000fd5b505050506040513d60208110156136cd57600080fd5b505192915050565b303161099a8282613b8c565b604080517f70a0823100000000000000000000000000000000000000000000000000000000815230600482015290518391600091600160a060020a038416916370a0823191602480830192602092919082900301818787803b15801561374657600080fd5b505af115801561375a573d6000803e3d6000fd5b505050506040513d602081101561377057600080fd5b5051905061378e600160a060020a038516848363ffffffff613bf416565b50505050565b7f55b3774520b5993024893d303890baa4e84b1244a43c60034d1ced2d3cf2b04b600090815260209081527ff7d5eefab3776d7f0450bd0193564bcb4f832ce313ff2836c450fc63a4b944198290556040805183815290517f52264b89e0fceafb26e79fd49ef8a366eb6297483bf4035b027f0c99a7ad512e929181900390910190a150565b6000806000613827611a09565b600160a060020a0316634ba2363a6040518163ffffffff1660e060020a028152600401602060405180830381600087803b15801561386457600080fd5b505af1158015613878573d6000803e3d6000fd5b505050506040513d602081101561388e57600080fd5b5051604080517f20aba08b0000000000000000000000000000000000000000000000000000000081529051919350600160a060020a038416916320aba08b916004808201926020929091908290030181600087803b1580156138ef57600080fd5b505af1158015613903573d6000803e3d6000fd5b505050506040513d602081101561391957600080fd5b505142116139905781600160a060020a031663c92aecc46040518163ffffffff1660e060020a028152600401602060405180830381600087803b15801561395f57600080fd5b505af1158015613973573d6000803e3d6000fd5b505050506040513d602081101561398957600080fd5b50516139fb565b81600160a060020a0316639f678cca6040518163ffffffff1660e060020a028152600401602060405180830381600087803b1580156139ce57600080fd5b505af11580156139e2573d6000803e3d6000fd5b505050506040513d60208110156139f857600080fd5b50515b9050613a0e613a08611b09565b82613c89565b9250505090565b606890565b60606000808281851515613a635760408051808201909152600181527f300000000000000000000000000000000000000000000000000000000000000060208201529450613b38565b8593505b8315613a7e57600190920191600a84049350613a67565b826040519080825280601f01601f191660200182016040528015613aac578160200160208202803883390190505b5091505060001982015b8515613b345781516000198201917f01000000000000000000000000000000000000000000000000000000000000006030600a8a060102918491908110613af957fe5b9060200101907effffffffffffffffffffffffffffffffffffffffffffffffffffffffffffff1916908160001a905350600a86049550613ab6565b8194505b50505050919050565b6000811515613b51575081612ee7565b6000821315613b7557613b6e83600a84900a63ffffffff613ccd16565b9050612ee7565b6114c2836000849003600a0a63ffffffff613cf616565b604051600160a060020a0383169082156108fc029083906000818181858888f19350505050151561099a578082613bc1613d03565b600160a060020a039091168152604051908190036020019082f080158015613bed573d6000803e3d6000fd5b5050505050565b82600160a060020a031663a9059cbb83836040518363ffffffff1660e060020a0281526004018083600160a060020a0316600160a060020a0316815260200182815260200192505050600060405180830381600087803b158015613c5757600080fd5b505af1158015613c6b573d6000803e3d6000fd5b505050503d156129445760206000803e600051151561294457600080fd5b600081613cbc613ca082600163ffffffff61315116565b611496866b033b2e3c9fd0803ce800000063ffffffff613ccd16565b811515613cc557fe5b049392505050565b6000821515613cde57506000612ee7565b50818102818382811515613cee57fe5b0414612ee757fe5b60008183811515613cc557fe5b604051602180613d13833901905600608060405260405160208060218339810160405251600160a060020a038116ff00a165627a7a7230582077ada976cee9a373eef6de2911adc4a3e0d198321b7fba6b600215f86cf421850029",
  "source": "pragma solidity 0.4.24;\n\nimport \"../BasicForeignBridge.sol\";\nimport \"../ERC20Bridge.sol\";\nimport \"../OtherSideBridgeStorage.sol\";\nimport \"../ChaiConnector.sol\";\n\ncontract ForeignBridgeErcToNative is BasicForeignBridge, ERC20Bridge, OtherSideBridgeStorage, ChaiConnector {\n    function initialize(\n        address _validatorContract,\n        address _erc20token,\n        uint256 _requiredBlockConfirmations,\n        uint256 _gasPrice,\n        uint256[3] _dailyLimitMaxPerTxMinPerTxArray, // [ 0 = _dailyLimit, 1 = _maxPerTx, 2 = _minPerTx ]\n        uint256[2] _homeDailyLimitHomeMaxPerTxArray, //[ 0 = _homeDailyLimit, 1 = _homeMaxPerTx ]\n        address _owner,\n        int256 _decimalShift,\n        address _bridgeOnOtherSide\n    ) external onlyRelevantSender returns (bool) {\n        require(!isInitialized());\n        require(AddressUtils.isContract(_validatorContract));\n\n        addressStorage[VALIDATOR_CONTRACT] = _validatorContract;\n        setErc20token(_erc20token);\n        uintStorage[DEPLOYED_AT_BLOCK] = block.number;\n        _setRequiredBlockConfirmations(_requiredBlockConfirmations);\n        _setGasPrice(_gasPrice);\n        _setLimits(_dailyLimitMaxPerTxMinPerTxArray);\n        _setExecutionLimits(_homeDailyLimitHomeMaxPerTxArray);\n        _setDecimalShift(_decimalShift);\n        _setOwner(_owner);\n        _setBridgeContractOnOtherSide(_bridgeOnOtherSide);\n        setInitialize();\n\n        return isInitialized();\n    }\n\n    function getBridgeMode() external pure returns (bytes4 _data) {\n        return 0x18762d46; // bytes4(keccak256(abi.encodePacked(\"erc-to-native-core\")))\n    }\n\n    /**\n     * @dev Withdraws the erc20 tokens or native coins from this contract.\n     * @param _token address of the claimed token or address(0) for native coins.\n     * @param _to address of the tokens/coins receiver.\n     */\n    function claimTokens(address _token, address _to) external onlyIfUpgradeabilityOwner {\n        // Since bridged tokens are locked at this contract, it is not allowed to claim them with the use of claimTokens function\n        require(_token != address(erc20token()));\n        // Chai token is not claimable if investing into Chai is enabled\n        require(_token != address(chaiToken()) || !isChaiTokenEnabled());\n        claimValues(_token, _to);\n    }\n\n    function onExecuteMessage(\n        address _recipient,\n        uint256 _amount,\n        bytes32 /*_txHash*/\n    ) internal returns (bool) {\n        addTotalExecutedPerDay(getCurrentDay(), _amount);\n        uint256 amount = _unshiftValue(_amount);\n\n        uint256 currentBalance = tokenBalance(erc20token());\n\n        // Convert part of Chai tokens back to DAI, if DAI balance is insufficient.\n        // If Chai token is disabled, bridge will keep all funds directly in DAI token,\n        // so it will have enough funds to cover any xDai => Dai transfer,\n        // and currentBalance >= amount will always hold.\n        if (currentBalance < amount) {\n            _convertChaiToDai(amount.sub(currentBalance).add(minDaiTokenBalance()));\n        }\n\n        bool res = erc20token().transfer(_recipient, amount);\n\n        return res;\n    }\n\n    function onFailedMessage(address, uint256, bytes32) internal {\n        revert();\n    }\n\n    function tokenBalance(ERC20 _token) internal view returns (uint256) {\n        return _token.balanceOf(address(this));\n    }\n\n    function relayTokens(address _receiver, uint256 _amount) external {\n        require(_receiver != bridgeContractOnOtherSide());\n        require(_receiver != address(0));\n        require(_receiver != address(this));\n        require(_amount > 0);\n        require(withinLimit(_amount));\n\n        addTotalSpentPerDay(getCurrentDay(), _amount);\n\n        erc20token().transferFrom(msg.sender, address(this), _amount);\n        emit UserRequestForAffirmation(_receiver, _amount);\n\n        if (isDaiNeedsToBeInvested()) {\n            convertDaiToChai();\n        }\n    }\n}\n",
  "sourcePath": "/Users/max/Projects/Symblox/TokenBridge/tokenbridge/contracts/contracts/upgradeable_contracts/erc20_to_native/ForeignBridgeErcToNative.sol",
  "compiler": {
    "name": "solc",
    "version": "0.4.24+commit.e67f0147.Emscripten.clang"
  },
  "schemaVersion": "3.1.0",
  "updatedAt": "2020-11-26T16:22:39.963Z",
  "devdoc": {
    "methods": {
      "chaiBalance()": {
        "details": "Evaluates bridge balance in Chai tokens",
        "return": "Balance in chai, exact"
      },
      "chaiToken()": {
        "return": "Chai token contract address"
      },
      "claimTokens(address,address)": {
        "details": "Withdraws the erc20 tokens or native coins from this contract.",
        "params": {
          "_to": "address of the tokens/coins receiver.",
          "_token": "address of the claimed token or address(0) for native coins."
        }
      },
      "convertDaiToChai()": {
        "details": "Converts all DAI into Chai tokens, keeping minDaiTokenBalance() DAI as a buffer"
      },
      "decimalShift()": {
        "details": "Returns the value of foreign-to-home decimal shift.",
        "return": "decimal shift."
      },
      "dsrBalance()": {
        "details": "Evaluates bridge balance for tokens, holded in DSR",
        "return": "Balance in dai, truncated"
      },
      "executeSignatures(bytes,bytes)": {
        "details": "Validates provided signatures and relays a given message",
        "params": {
          "message": "bytes to be relayed",
          "signatures": "bytes blob with signatures to be validated"
        }
      },
      "initializeChaiToken()": {
        "details": "Initializes chai token"
      },
      "initializeChaiToken(address)": {
        "details": "Initializes chai token, with interestReceiver",
        "params": {
          "_interestReceiver": "Receiver address"
        }
      },
      "interestCollectionPeriod()": {
        "return": "Configured minimum interest collection period"
      },
      "interestReceiver()": {
        "return": "Configured address of a receiver"
      },
      "investedAmountInDai()": {
        "details": "Evaluates exact current invested amount, in DAI",
        "return": "Value in DAI"
      },
      "isChaiTokenEnabled()": {
        "return": "true, if chai token is enabled"
      },
      "isDaiNeedsToBeInvested()": {
        "details": "Checks if DAI balance is high enough to be partially converted to Chai Twice limit is used in order to decrease frequency of convertDaiToChai calls, In case of high bridge utilization in DAI => xDAI direction, convertDaiToChai() will be called as soon as DAI balance reaches 2 * limit, limit DAI will be left as a buffer for future operations.",
        "return": "true if convertDaiToChai() call is needed to be performed by the oracle"
      },
      "lastInterestPayment()": {
        "return": "Timestamp of last interest payment"
      },
      "maxAvailablePerTx()": {
        "details": "Retrieves maximum available bridge amount per one transaction taking into account maxPerTx() and dailyLimit() parameters.",
        "return": "minimum of maxPerTx parameter and remaining daily quota."
      },
      "minDaiTokenBalance()": {
        "details": "Evaluates edge DAI token balance, which has an impact on the invest amounts",
        "return": "Value in DAI"
      },
      "owner()": {
        "details": "Tells the address of the owner",
        "return": "the address of the owner"
      },
      "payInterest()": {
        "details": "Pays all available interest, in Dai tokens. Upgradeability owner can call this method without time restrictions, for others, the method can be called only once a specified period."
      },
      "removeChaiToken()": {
        "details": "Withdraws all invested tokens, pays remaining interest, removes chai token from contract storage"
      },
      "setGasPrice(uint256)": {
        "details": "Public setter for fallback gas price value. Only bridge owner can call this method.",
        "params": {
          "_gasPrice": "new value for the gas price."
        }
      },
      "setInterestCollectionPeriod(uint256)": {
        "details": "Configures minimum interest collection period",
        "params": {
          "period": "collection period"
        }
      },
      "setInterestReceiver(address)": {
        "params": {
          "receiver": "New receiver address"
        }
      },
      "setMinDaiTokenBalance(uint256)": {
        "details": "Sets minimum DAI limit, needed for converting DAI into CHAI"
      },
      "transferOwnership(address)": {
        "details": "Allows the current owner to transfer control of the contract to a newOwner.",
        "params": {
          "newOwner": "the address to transfer ownership to."
        }
      }
    }
  },
  "userdoc": {
    "methods": {
      "setInterestReceiver(address)": {
        "notice": "Updates interest receiver address"
      }
    }
  }
}