{
  "contractName": "GasTokenMock",
  "abi": [
    {
      "constant": true,
      "inputs": [],
      "name": "name",
      "outputs": [
        {
          "name": "",
          "type": "string"
        }
      ],
      "payable": false,
      "stateMutability": "view",
      "type": "function"
    },
    {
      "constant": true,
      "inputs": [],
      "name": "decimals",
      "outputs": [
        {
          "name": "",
          "type": "uint8"
        }
      ],
      "payable": false,
      "stateMutability": "view",
      "type": "function"
    },
    {
      "constant": true,
      "inputs": [],
      "name": "symbol",
      "outputs": [
        {
          "name": "",
          "type": "string"
        }
      ],
      "payable": false,
      "stateMutability": "view",
      "type": "function"
    },
    {
      "anonymous": false,
      "inputs": [
        {
          "indexed": true,
          "name": "from",
          "type": "address"
        },
        {
          "indexed": true,
          "name": "to",
          "type": "address"
        },
        {
          "indexed": false,
          "name": "value",
          "type": "uint256"
        }
      ],
      "name": "Transfer",
      "type": "event"
    },
    {
      "anonymous": false,
      "inputs": [
        {
          "indexed": true,
          "name": "owner",
          "type": "address"
        },
        {
          "indexed": true,
          "name": "spender",
          "type": "address"
        },
        {
          "indexed": false,
          "name": "value",
          "type": "uint256"
        }
      ],
      "name": "Approval",
      "type": "event"
    },
    {
      "constant": true,
      "inputs": [
        {
          "name": "owner",
          "type": "address"
        }
      ],
      "name": "balanceOf",
      "outputs": [
        {
          "name": "balance",
          "type": "uint256"
        }
      ],
      "payable": false,
      "stateMutability": "view",
      "type": "function"
    },
    {
      "constant": false,
      "inputs": [
        {
          "name": "to",
          "type": "address"
        },
        {
          "name": "value",
          "type": "uint256"
        }
      ],
      "name": "transfer",
      "outputs": [
        {
          "name": "success",
          "type": "bool"
        }
      ],
      "payable": false,
      "stateMutability": "nonpayable",
      "type": "function"
    },
    {
      "constant": false,
      "inputs": [
        {
          "name": "from",
          "type": "address"
        },
        {
          "name": "to",
          "type": "address"
        },
        {
          "name": "value",
          "type": "uint256"
        }
      ],
      "name": "transferFrom",
      "outputs": [
        {
          "name": "success",
          "type": "bool"
        }
      ],
      "payable": false,
      "stateMutability": "nonpayable",
      "type": "function"
    },
    {
      "constant": false,
      "inputs": [
        {
          "name": "spender",
          "type": "address"
        },
        {
          "name": "value",
          "type": "uint256"
        }
      ],
      "name": "approve",
      "outputs": [
        {
          "name": "success",
          "type": "bool"
        }
      ],
      "payable": false,
      "stateMutability": "nonpayable",
      "type": "function"
    },
    {
      "constant": true,
      "inputs": [
        {
          "name": "owner",
          "type": "address"
        },
        {
          "name": "spender",
          "type": "address"
        }
      ],
      "name": "allowance",
      "outputs": [
        {
          "name": "remaining",
          "type": "uint256"
        }
      ],
      "payable": false,
      "stateMutability": "view",
      "type": "function"
    },
    {
      "constant": true,
      "inputs": [],
      "name": "totalSupply",
      "outputs": [
        {
          "name": "supply",
          "type": "uint256"
        }
      ],
      "payable": false,
      "stateMutability": "view",
      "type": "function"
    },
    {
      "constant": false,
      "inputs": [
        {
          "name": "value",
          "type": "uint256"
        }
      ],
      "name": "mint",
      "outputs": [],
      "payable": false,
      "stateMutability": "nonpayable",
      "type": "function"
    },
    {
      "constant": false,
      "inputs": [
        {
          "name": "value",
          "type": "uint256"
        }
      ],
      "name": "free",
      "outputs": [
        {
          "name": "success",
          "type": "bool"
        }
      ],
      "payable": false,
      "stateMutability": "nonpayable",
      "type": "function"
    },
    {
      "constant": false,
      "inputs": [
        {
          "name": "value",
          "type": "uint256"
        }
      ],
      "name": "freeUpTo",
      "outputs": [
        {
          "name": "freed",
          "type": "uint256"
        }
      ],
      "payable": false,
      "stateMutability": "nonpayable",
      "type": "function"
    },
    {
      "constant": false,
      "inputs": [
        {
          "name": "from",
          "type": "address"
        },
        {
          "name": "value",
          "type": "uint256"
        }
      ],
      "name": "freeFrom",
      "outputs": [
        {
          "name": "success",
          "type": "bool"
        }
      ],
      "payable": false,
      "stateMutability": "nonpayable",
      "type": "function"
    },
    {
      "constant": false,
      "inputs": [
        {
          "name": "from",
          "type": "address"
        },
        {
          "name": "value",
          "type": "uint256"
        }
      ],
      "name": "freeFromUpTo",
      "outputs": [
        {
          "name": "freed",
          "type": "uint256"
        }
      ],
      "payable": false,
      "stateMutability": "nonpayable",
      "type": "function"
    }
  ],
  "bytecode": "0x608060405234801561001057600080fd5b506109b8806100206000396000f3006080604052600436106100cf5763ffffffff7c010000000000000000000000000000000000000000000000000000000060003504166306fdde0381146100d4578063079d229f1461015e578063095ea7b31461019457806318160ddd146101cc57806323b872dd146101e1578063313ce5671461020b5780635f2e2b45146102365780636366b9361461025a57806370a082311461027257806395d89b4114610293578063a0712d68146102a8578063a9059cbb146102c2578063d8ccd0f3146102e6578063dd62ed3e146102fe575b600080fd5b3480156100e057600080fd5b506100e9610325565b6040805160208082528351818301528351919283929083019185019080838360005b8381101561012357818101518382015260200161010b565b50505050905090810190601f1680156101505780820380516001836020036101000a031916815260200191505b509250505060405180910390f35b34801561016a57600080fd5b50610182600160a060020a036004351660243561035c565b60408051918252519081900360200190f35b3480156101a057600080fd5b506101b8600160a060020a03600435166024356103ff565b604080519115158252519081900360200190f35b3480156101d857600080fd5b506101826104ac565b3480156101ed57600080fd5b506101b8600160a060020a03600435811690602435166044356104b6565b34801561021757600080fd5b50610220610536565b6040805160ff9092168252519081900360200190f35b34801561024257600080fd5b506101b8600160a060020a036004351660243561053b565b34801561026657600080fd5b506101826004356105e5565b34801561027e57600080fd5b50610182600160a060020a0360043516610628565b34801561029f57600080fd5b506100e9610643565b3480156102b457600080fd5b506102c060043561067a565b005b3480156102ce57600080fd5b506101b8600160a060020a03600435166024356106b7565b3480156102f257600080fd5b506101b86004356106cd565b34801561030a57600080fd5b50610182600160a060020a0360043581169060243516610712565b60408051808201909152600b81527f476173746f6b656e2e696f000000000000000000000000000000000000000000602082015281565b600160a060020a0382166000908152602081905260408120543390828082861115610385578295505b5050600160a060020a038086166000908152600160209081526040808320938616835290839052902054808611156103bb578095505b6103c48661073d565b600160a060020a038088166000908152602081815260408083208a8803905592871682528490522086820390558594505b5050505092915050565b60003382158015906104355750600160a060020a0380821660009081526001602090815260408083209388168352929052205415155b1561044357600091506104a5565b600160a060020a03808216600081815260016020908152604080832094891680845294825291829020879055815187815291517f8c5be1e5ebec7d5bd14f71427d1e84f3dd0314c0f7b2291e5b200ac8c7c3b9259281900390910190a3600191505b5092915050565b6003546002540390565b600160a060020a038316600090815260016020908152604080832033808552925282205483118015906104ef57506104ef858585610784565b1561052957600160a060020a038086166000908152600160208181526040808420948616845293905291902080548590039055915061052e565b600091505b509392505050565b600281565b600160a060020a038216600090815260208190526040812054339082808286111561056957600094506103f5565b5050600160a060020a038086166000908152600160209081526040808320938616835290839052902054808611156105a457600094506103f5565b6105ad8661073d565b600160a060020a0396871660009081526020818152604080832095899003909555949097168752925290932091909203905550600190565b3360009081526020819052604081205480831115610601578092505b61060a8361073d565b33600090815260208190526040902083820390558291505b50919050565b600160a060020a031660009081526020819052604090205490565b60408051808201909152600481527f4753543200000000000000000000000000000000000000000000000000000000602082015281565b60005b818110156106965761068d61081b565b5060010161067d565b50600280548201905533600090815260208190526040902080549091019055565b6000336106c5818585610784565b949350505050565b33600090815260208190526040812054808311156106ee5760009150610622565b6106f78361073d565b33600090815260208190526040902092900390915550600190565b600160a060020a03918216600090815260016020908152604080832093909416825291909152205490565b600354600181015b818301811161077d576107583082610851565b600160a060020a03166040516000604051808303816000865af1505050600101610745565b5001600355565b600160a060020a038316600090815260208190526040812054821161081057600160a060020a0380851660008181526020818152604080832080548890039055938716808352918490208054870190558351868152935191937fddf252ad1be2c89b69c2b068fc378daa952ba7f163c4a11628f55a4df523b3ef929081900390910190a3506001610814565b5060005b9392505050565b60006040517e756eb3f879cb30fe243b4dfee438691c043310585733ff6000526016600af38152601f600182016000f091505090565b6000808080808068ffffffffffffffffff87111561086e57600080fd5b86600010801561087e5750608087105b156108905760019450600193506108a2565b6108998761096f565b94508460010193505b6015840192507f010000000000000000000000000000000000000000000000000000000000000060d58501026a0100000000000000000000600160a060020a038a1602017e940000000000000000000000000000000000000000000000000000000000000191506000871180156109195750608087105b15610934578669010000000000000000000282019150610957565b8460800169010000000000000000000282019150846009036101000a8702820191505b50604051908152600191909101902095945050505050565b60008060015b8084106104a55760019190910190610100026109755600a165627a7a723058204c2d98b0bd4ab9dd9bc8afb5fc37db47e6d5ff9f2e2c6a506262a1153476f1d30029",
  "source": "//solhint-disable\npragma solidity ^0.4.24;\n\ncontract Rlp {\n    uint256 constant ADDRESS_BYTES = 20;\n    uint256 constant MAX_SINGLE_BYTE = 128;\n    uint256 constant MAX_NONCE = 256**9 - 1;\n\n    // count number of bytes required to represent an unsigned integer\n    function count_bytes(uint256 n) pure internal returns (uint256 c) {\n        uint i = 0;\n        uint mask = 1;\n        while (n >= mask) {\n            i += 1;\n            mask *= 256;\n        }\n\n        return i;\n    }\n\n    function mk_contract_address(address a, uint256 n) pure internal returns (address rlp) {\n        /*\n         * make sure the RLP encoding fits in one word:\n         * total_length      1 byte\n         * address_length    1 byte\n         * address          20 bytes\n         * nonce_length      1 byte (or 0)\n         * nonce           1-9 bytes\n         *                ==========\n         *                24-32 bytes\n         */\n        require(n <= MAX_NONCE);\n\n        // number of bytes required to write down the nonce\n        uint256 nonce_bytes;\n        // length in bytes of the RLP encoding of the nonce\n        uint256 nonce_rlp_len;\n\n        if (0 < n && n < MAX_SINGLE_BYTE) {\n            // nonce fits in a single byte\n            // RLP(nonce) = nonce\n            nonce_bytes = 1;\n            nonce_rlp_len = 1;\n        } else {\n            // RLP(nonce) = [num_bytes_in_nonce nonce]\n            nonce_bytes = count_bytes(n);\n            nonce_rlp_len = nonce_bytes + 1;\n        }\n\n        // [address_length(1) address(20) nonce_length(0 or 1) nonce(1-9)]\n        uint256 tot_bytes = 1 + ADDRESS_BYTES + nonce_rlp_len;\n\n        // concatenate all parts of the RLP encoding in the leading bytes of\n        // one 32-byte word\n        uint256 word = ((192 + tot_bytes) * 256**31) +\n                       ((128 + ADDRESS_BYTES) * 256**30) +\n                       (uint256(a) * 256**10);\n\n        if (0 < n && n < MAX_SINGLE_BYTE) {\n            word += n * 256**9;\n        } else {\n            word += (128 + nonce_bytes) * 256**9;\n            word += n * 256**(9 - nonce_bytes);\n        }\n\n        uint256 hash;\n\n        assembly {\n            let mem_start := mload(0x40)        // get a pointer to free memory\n            mstore(mem_start, word)             // store the rlp encoding\n            hash := sha3(mem_start,\n                         add(tot_bytes, 1))     // hash the rlp encoding\n        }\n\n        // interpret hash as address (20 least significant bytes)\n        return address(hash);\n    }\n}\n\ncontract GasTokenMock is Rlp {\n    //////////////////////////////////////////////////////////////////////////\n    // Generic ERC20\n    //////////////////////////////////////////////////////////////////////////\n\n    // owner -> amount\n    mapping(address => uint256) s_balances;\n    // owner -> spender -> max amount\n    mapping(address => mapping(address => uint256)) s_allowances;\n\n    event Transfer(address indexed from, address indexed to, uint256 value);\n\n    event Approval(address indexed owner, address indexed spender, uint256 value);\n\n    // Spec: Get the account balance of another account with address `owner`\n    function balanceOf(address owner) public constant returns (uint256 balance) {\n        return s_balances[owner];\n    }\n\n    function internalTransfer(address from, address to, uint256 value) internal returns (bool success) {\n        if (value <= s_balances[from]) {\n            s_balances[from] -= value;\n            s_balances[to] += value;\n            Transfer(from, to, value);\n            return true;\n        } else {\n            return false;\n        }\n    }\n\n    // Spec: Send `value` amount of tokens to address `to`\n    function transfer(address to, uint256 value) public returns (bool success) {\n        address from = msg.sender;\n        return internalTransfer(from, to, value);\n    }\n\n    // Spec: Send `value` amount of tokens from address `from` to address `to`\n    function transferFrom(address from, address to, uint256 value) public returns (bool success) {\n        address spender = msg.sender;\n        if(value <= s_allowances[from][spender] && internalTransfer(from, to, value)) {\n            s_allowances[from][spender] -= value;\n            return true;\n        } else {\n            return false;\n        }\n    }\n\n    // Spec: Allow `spender` to withdraw from your account, multiple times, up\n    // to the `value` amount. If this function is called again it overwrites the\n    // current allowance with `value`.\n    function approve(address spender, uint256 value) public returns (bool success) {\n        address owner = msg.sender;\n        if (value != 0 && s_allowances[owner][spender] != 0) {\n            return false;\n        }\n        s_allowances[owner][spender] = value;\n        Approval(owner, spender, value);\n        return true;\n    }\n\n    // Spec: Returns the `amount` which `spender` is still allowed to withdraw\n    // from `owner`.\n    // What if the allowance is higher than the balance of the `owner`?\n    // Callers should be careful to use min(allowance, balanceOf) to make sure\n    // that the allowance is actually present in the account!\n    function allowance(address owner, address spender) public constant returns (uint256 remaining) {\n        return s_allowances[owner][spender];\n    }\n\n    //////////////////////////////////////////////////////////////////////////\n    // GasToken specifics\n    //////////////////////////////////////////////////////////////////////////\n\n    uint8 constant public decimals = 2;\n    string constant public name = \"Gastoken.io\";\n    string constant public symbol = \"GST2\";\n\n    // We build a queue of nonces at which child contracts are stored. s_head is\n    // the nonce at the head of the queue, s_tail is the nonce behind the tail\n    // of the queue. The queue grows at the head and shrinks from the tail.\n    // Note that when and only when a contract CREATEs another contract, the\n    // creating contract's nonce is incremented.\n    // The first child contract is created with nonce == 1, the second child\n    // contract is created with nonce == 2, and so on...\n    // For example, if there are child contracts at nonces [2,3,4],\n    // then s_head == 4 and s_tail == 1. If there are no child contracts,\n    // s_head == s_tail.\n    uint256 s_head;\n    uint256 s_tail;\n\n    // totalSupply gives  the number of tokens currently in existence\n    // Each token corresponds to one child contract that can be SELFDESTRUCTed\n    // for a gas refund.\n    function totalSupply() public constant returns (uint256 supply) {\n        return s_head - s_tail;\n    }\n\n    // Creates a child contract that can only be destroyed by this contract.\n    function makeChild() internal returns (address addr) {\n        assembly {\n            // EVM assembler of runtime portion of child contract:\n            //     ;; Pseudocode: if (msg.sender != 0x0000000000b3f879cb30fe243b4dfee438691c04) { throw; }\n            //     ;;             suicide(msg.sender)\n            //     PUSH15 0xb3f879cb30fe243b4dfee438691c04 ;; hardcoded address of this contract\n            //     CALLER\n            //     XOR\n            //     PC\n            //     JUMPI\n            //     CALLER\n            //     SELFDESTRUCT\n            // Or in binary: 6eb3f879cb30fe243b4dfee438691c043318585733ff\n            // Since the binary is so short (22 bytes), we can get away\n            // with a very simple initcode:\n            //     PUSH22 0x6eb3f879cb30fe243b4dfee438691c043318585733ff\n            //     PUSH1 0\n            //     MSTORE ;; at this point, memory locations mem[10] through\n            //            ;; mem[31] contain the runtime portion of the child\n            //            ;; contract. all that's left to do is to RETURN this\n            //            ;; chunk of memory.\n            //     PUSH1 22 ;; length\n            //     PUSH1 10 ;; offset\n            //     RETURN\n            // Or in binary: 756eb3f879cb30fe243b4dfee438691c043318585733ff6000526016600af3\n            // Almost done! All we have to do is put this short (31 bytes) blob into\n            // memory and call CREATE with the appropriate offsets.\n            let solidity_free_mem_ptr := mload(0x40)\n            // replaced XOR by LT in this mock\n            mstore(solidity_free_mem_ptr, 0x00756eb3f879cb30fe243b4dfee438691c043310585733ff6000526016600af3)\n            addr := create(0, add(solidity_free_mem_ptr, 1), 31)\n        }\n    }\n\n    // Mints `value` new sub-tokens (e.g. cents, pennies, ...) by creating `value`\n    // new child contracts. The minted tokens are owned by the caller of this\n    // function.\n    function mint(uint256 value) public {\n        for (uint256 i = 0; i < value; i++) {\n            makeChild();\n        }\n        s_head += value;\n        s_balances[msg.sender] += value;\n    }\n\n    // Destroys `value` child contracts and updates s_tail.\n    //\n    // This function is affected by an issue in solc: https://github.com/ethereum/solidity/issues/2999\n    // The `mk_contract_address(this, i).call();` doesn't forward all available gas, but only GAS - 25710.\n    // As a result, when this line is executed with e.g. 30000 gas, the callee will have less than 5000 gas\n    // available and its SELFDESTRUCT operation will fail leading to no gas refund occurring.\n    // The remaining ~29000 gas left after the call is enough to update s_tail and the caller's balance.\n    // Hence tokens will have been destroyed without a commensurate gas refund.\n    // Fortunately, there is a simple workaround:\n    // Whenever you call free, freeUpTo, freeFrom, or freeUpToFrom, ensure that you pass at least\n    // 25710 + `value` * (1148 + 5722 + 150) gas. (It won't all be used)\n    function destroyChildren(uint256 value) internal {\n        uint256 tail = s_tail;\n        // tail points to slot behind the last contract in the queue\n        for (uint256 i = tail + 1; i <= tail + value; i++) {\n            mk_contract_address(this, i).call();\n        }\n\n        s_tail = tail + value;\n    }\n\n    // Frees `value` sub-tokens (e.g. cents, pennies, ...) belonging to the\n    // caller of this function by destroying `value` child contracts, which\n    // will trigger a partial gas refund.\n    // You should ensure that you pass at least 25710 + `value` * (1148 + 5722 + 150) gas\n    // when calling this function. For details, see the comment above `destroyChildren`.\n    function free(uint256 value) public returns (bool success) {\n        uint256 from_balance = s_balances[msg.sender];\n        if (value > from_balance) {\n            return false;\n        }\n\n        destroyChildren(value);\n\n        s_balances[msg.sender] = from_balance - value;\n\n        return true;\n    }\n\n    // Frees up to `value` sub-tokens. Returns how many tokens were freed.\n    // Otherwise, identical to free.\n    // You should ensure that you pass at least 25710 + `value` * (1148 + 5722 + 150) gas\n    // when calling this function. For details, see the comment above `destroyChildren`.\n    function freeUpTo(uint256 value) public returns (uint256 freed) {\n        uint256 from_balance = s_balances[msg.sender];\n        if (value > from_balance) {\n            value = from_balance;\n        }\n\n        destroyChildren(value);\n\n        s_balances[msg.sender] = from_balance - value;\n\n        return value;\n    }\n\n    // Frees `value` sub-tokens owned by address `from`. Requires that `msg.sender`\n    // has been approved by `from`.\n    // You should ensure that you pass at least 25710 + `value` * (1148 + 5722 + 150) gas\n    // when calling this function. For details, see the comment above `destroyChildren`.\n    function freeFrom(address from, uint256 value) public returns (bool success) {\n        address spender = msg.sender;\n        uint256 from_balance = s_balances[from];\n        if (value > from_balance) {\n            return false;\n        }\n\n        mapping(address => uint256) from_allowances = s_allowances[from];\n        uint256 spender_allowance = from_allowances[spender];\n        if (value > spender_allowance) {\n            return false;\n        }\n\n        destroyChildren(value);\n\n        s_balances[from] = from_balance - value;\n        from_allowances[spender] = spender_allowance - value;\n\n        return true;\n    }\n\n    // Frees up to `value` sub-tokens owned by address `from`. Returns how many tokens were freed.\n    // Otherwise, identical to `freeFrom`.\n    // You should ensure that you pass at least 25710 + `value` * (1148 + 5722 + 150) gas\n    // when calling this function. For details, see the comment above `destroyChildren`.\n    function freeFromUpTo(address from, uint256 value) public returns (uint256 freed) {\n        address spender = msg.sender;\n        uint256 from_balance = s_balances[from];\n        if (value > from_balance) {\n            value = from_balance;\n        }\n\n        mapping(address => uint256) from_allowances = s_allowances[from];\n        uint256 spender_allowance = from_allowances[spender];\n        if (value > spender_allowance) {\n            value = spender_allowance;\n        }\n\n        destroyChildren(value);\n\n        s_balances[from] = from_balance - value;\n        from_allowances[spender] = spender_allowance - value;\n\n        return value;\n    }\n}\n//solhint-enable\n",
  "sourcePath": "/Users/max/Projects/Symblox/TokenBridge/tokenbridge/contracts/contracts/mocks/GasTokenMock.sol",
  "compiler": {
    "name": "solc",
    "version": "0.4.24+commit.e67f0147.Emscripten.clang"
  },
  "schemaVersion": "3.1.0",
  "updatedAt": "2020-11-26T16:22:39.676Z",
  "devdoc": {
    "methods": {}
  },
  "userdoc": {
    "methods": {}
  }
}