{
  "contractName": "GasTokenConnector",
  "abi": [
    {
      "constant": true,
      "inputs": [],
      "name": "owner",
      "outputs": [
        {
          "name": "",
          "type": "address"
        }
      ],
      "payable": false,
      "stateMutability": "view",
      "type": "function"
    },
    {
      "constant": false,
      "inputs": [
        {
          "name": "newOwner",
          "type": "address"
        }
      ],
      "name": "transferOwnership",
      "outputs": [],
      "payable": false,
      "stateMutability": "nonpayable",
      "type": "function"
    },
    {
      "anonymous": false,
      "inputs": [
        {
          "indexed": false,
          "name": "previousOwner",
          "type": "address"
        },
        {
          "indexed": false,
          "name": "newOwner",
          "type": "address"
        }
      ],
      "name": "OwnershipTransferred",
      "type": "event"
    },
    {
      "constant": false,
      "inputs": [
        {
          "name": "_targetMintValue",
          "type": "uint256"
        },
        {
          "name": "_receiver",
          "type": "address"
        }
      ],
      "name": "setGasTokenParameters",
      "outputs": [],
      "payable": false,
      "stateMutability": "nonpayable",
      "type": "function"
    },
    {
      "constant": false,
      "inputs": [
        {
          "name": "_targetMintValue",
          "type": "uint256"
        }
      ],
      "name": "setGasTokenTargetMintValue",
      "outputs": [],
      "payable": false,
      "stateMutability": "nonpayable",
      "type": "function"
    },
    {
      "constant": false,
      "inputs": [
        {
          "name": "_receiver",
          "type": "address"
        }
      ],
      "name": "setGasTokenReceiver",
      "outputs": [],
      "payable": false,
      "stateMutability": "nonpayable",
      "type": "function"
    },
    {
      "constant": true,
      "inputs": [],
      "name": "gasTokenTargetMintValue",
      "outputs": [
        {
          "name": "",
          "type": "uint256"
        }
      ],
      "payable": false,
      "stateMutability": "view",
      "type": "function"
    },
    {
      "constant": true,
      "inputs": [],
      "name": "gasTokenReceiver",
      "outputs": [
        {
          "name": "",
          "type": "address"
        }
      ],
      "payable": false,
      "stateMutability": "view",
      "type": "function"
    },
    {
      "constant": true,
      "inputs": [],
      "name": "gasToken",
      "outputs": [
        {
          "name": "",
          "type": "address"
        }
      ],
      "payable": false,
      "stateMutability": "pure",
      "type": "function"
    }
  ],
  "bytecode": "0x608060405234801561001057600080fd5b50610581806100206000396000f30060806040526004361061008d5763ffffffff7c010000000000000000000000000000000000000000000000000000000060003504166323b4a1fd81146100925780636c388e54146100ac5780638da5cb5b146100dd5780639f1ed0c7146100f2578063c91d59fe14610113578063de6e02b814610128578063ee0336141461014f578063f2fde38b14610173575b600080fd5b34801561009e57600080fd5b506100aa600435610194565b005b3480156100b857600080fd5b506100c16101fd565b60408051600160a060020a039092168252519081900360200190f35b3480156100e957600080fd5b506100c1610254565b3480156100fe57600080fd5b506100aa600160a060020a03600435166102ab565b34801561011f57600080fd5b506100c161033e565b34801561013457600080fd5b5061013d610351565b60408051918252519081900360200190f35b34801561015b57600080fd5b506100aa600435600160a060020a036024351661039f565b34801561017f57600080fd5b506100aa600160a060020a0360043516610456565b61019c610254565b600160a060020a031633146101b057600080fd5b7f7188f1264c90762deb4dbddcab803d6487a8f108fbcdec3ff08c642d35826f9f60009081526020527f508af815a456b6ded512875db9df6b2d5693ac1edc789fb62dc528b792885e5155565b7f6778a39b83358b10315b40840597142f1db77a44f312ed9c0e45ee7af3bbc55260005260026020527fd0cda424605c5e6787a1f6db37df501d2e0a58cfcd57eff91a537a67146f164f54600160a060020a031690565b7f02016836a56b71f0d02689e69e326f4f4c1b9057164ef592671cf0d37c8040c060005260026020527fb7802e97e87ef2842a6cce7da7ffaeaedaa2f61a6a7870b23d9d01fc9b73712e54600160a060020a031690565b6102b3610254565b600160a060020a031633146102c757600080fd5b7f6778a39b83358b10315b40840597142f1db77a44f312ed9c0e45ee7af3bbc55260005260026020527fd0cda424605c5e6787a1f6db37df501d2e0a58cfcd57eff91a537a67146f164f805473ffffffffffffffffffffffffffffffffffffffff1916600160a060020a0392909216919091179055565b6eb3f879cb30fe243b4dfee438691c0490565b7f7188f1264c90762deb4dbddcab803d6487a8f108fbcdec3ff08c642d35826f9f60009081526020527f508af815a456b6ded512875db9df6b2d5693ac1edc789fb62dc528b792885e515490565b6103a7610254565b600160a060020a031633146103bb57600080fd5b7f508af815a456b6ded512875db9df6b2d5693ac1edc789fb62dc528b792885e51919091557f6778a39b83358b10315b40840597142f1db77a44f312ed9c0e45ee7af3bbc55260005260026020527fd0cda424605c5e6787a1f6db37df501d2e0a58cfcd57eff91a537a67146f164f805473ffffffffffffffffffffffffffffffffffffffff1916600160a060020a03909216919091179055565b61045e610254565b600160a060020a0316331461047257600080fd5b61047b8161047e565b50565b600160a060020a038116151561049357600080fd5b7f8be0079c531659141344cd1fd0a4f28419497f9722a3daafe3b4186f6b6457e06104bc610254565b60408051600160a060020a03928316815291841660208301528051918290030190a17f02016836a56b71f0d02689e69e326f4f4c1b9057164ef592671cf0d37c8040c060005260026020527fb7802e97e87ef2842a6cce7da7ffaeaedaa2f61a6a7870b23d9d01fc9b73712e805473ffffffffffffffffffffffffffffffffffffffff1916600160a060020a03929092169190911790555600a165627a7a72305820f9355f75cd38d8147fabe998e84686f399d9215d8433080f21f552903761d40e0029",
  "source": "pragma solidity 0.4.24;\n\nimport \"../interfaces/IGasToken.sol\";\nimport \"../upgradeable_contracts/Ownable.sol\";\n\n/**\n* @title GasTokenConnector\n* @dev This logic allows to use GasToken (https://gastoken.io)\n*/\ncontract GasTokenConnector is Ownable {\n    bytes32 internal constant GAS_TOKEN_TARGET_MINT_VALUE = 0x7188f1264c90762deb4dbddcab803d6487a8f108fbcdec3ff08c642d35826f9f; // keccak256(abi.encodePacked(\"gasTokenTargetMintValue\"))\n    bytes32 internal constant GAS_TOKEN_RECEIVER = 0x6778a39b83358b10315b40840597142f1db77a44f312ed9c0e45ee7af3bbc552; // keccak256(abi.encodePacked(\"gasTokenReceiver\"))\n    bytes4 internal constant ON_TOKEN_TRANSFER = 0xa4c0ed36; // onTokenTransfer(address,uint256,bytes)\n\n    /**\n    * @dev Updates gas token related parameters, target mint value and token receiver\n    * @param _targetMintValue target amount of token to mint/transfer during one call to _collectGasTokens\n    * @param _receiver receiver of minted gas token\n    */\n    function setGasTokenParameters(uint256 _targetMintValue, address _receiver) external onlyOwner {\n        uintStorage[GAS_TOKEN_TARGET_MINT_VALUE] = _targetMintValue;\n        addressStorage[GAS_TOKEN_RECEIVER] = _receiver;\n    }\n\n    /**\n    * @dev Updates gas token target mint value\n    * @param _targetMintValue target amount of token to mint/transfer during one call to _collectGasTokens\n    */\n    function setGasTokenTargetMintValue(uint256 _targetMintValue) external onlyOwner {\n        uintStorage[GAS_TOKEN_TARGET_MINT_VALUE] = _targetMintValue;\n    }\n\n    /**\n    * @dev Updates gas token receiver\n    * @param _receiver receiver of minted gas token\n    */\n    function setGasTokenReceiver(address _receiver) external onlyOwner {\n        addressStorage[GAS_TOKEN_RECEIVER] = _receiver;\n    }\n\n    /**\n    * @return Configured gas token target mint value\n    */\n    function gasTokenTargetMintValue() public view returns (uint256) {\n        return uintStorage[GAS_TOKEN_TARGET_MINT_VALUE];\n    }\n\n    /**\n    * @return Configured gas token receiver\n    */\n    function gasTokenReceiver() public view returns (address) {\n        return addressStorage[GAS_TOKEN_RECEIVER];\n    }\n\n    /**\n    * @return GST2 contract address in ethereum Mainnet\n    */\n    function gasToken() public pure returns (IGasToken) {\n        return IGasToken(0x0000000000b3F879cb30FE243b4Dfee438691c04);\n    }\n\n    /**\n    * @dev Internal function, for collection gas tokens\n    * If sufficient allowance from sender exist, the new tokens are not minted at all\n    * Otherwise, all allowance is taken + remaining tokens are minted\n    * In total, configured target amount of tokens is transfered to gas token receiver\n    */\n    function _collectGasTokens() internal {\n        uint256 target = gasTokenTargetMintValue();\n\n        if (target == 0) return;\n\n        address receiver = gasTokenReceiver();\n        if (receiver == address(0)) return;\n\n        IGasToken gst = gasToken();\n        uint256 approved = gst.allowance(msg.sender, address(this));\n\n        if (approved >= target) {\n            // tokens are transfered directly to receiver, avoiding transfer to the bridge contract\n            require(gst.transferFrom(msg.sender, receiver, target));\n        } else {\n            if (approved > 0) {\n                require(gst.transferFrom(msg.sender, address(this), approved));\n            }\n\n            gst.mint(target - approved);\n            require(gst.transfer(receiver, target));\n        }\n\n        receiver.call(abi.encodeWithSelector(ON_TOKEN_TRANSFER, address(this), target, \"\"));\n    }\n}\n",
  "sourcePath": "/Users/max/Projects/Symblox/TokenBridge/tokenbridge/contracts/contracts/upgradeable_contracts/GasTokenConnector.sol",
  "compiler": {
    "name": "solc",
    "version": "0.4.24+commit.e67f0147.Emscripten.clang"
  },
  "schemaVersion": "3.1.0",
  "updatedAt": "2020-11-26T16:22:39.843Z",
  "devdoc": {
    "methods": {
      "gasToken()": {
        "return": "GST2 contract address in ethereum Mainnet"
      },
      "gasTokenReceiver()": {
        "return": "Configured gas token receiver"
      },
      "gasTokenTargetMintValue()": {
        "return": "Configured gas token target mint value"
      },
      "owner()": {
        "details": "Tells the address of the owner",
        "return": "the address of the owner"
      },
      "setGasTokenParameters(uint256,address)": {
        "details": "Updates gas token related parameters, target mint value and token receiver",
        "params": {
          "_receiver": "receiver of minted gas token",
          "_targetMintValue": "target amount of token to mint/transfer during one call to _collectGasTokens"
        }
      },
      "setGasTokenReceiver(address)": {
        "details": "Updates gas token receiver",
        "params": {
          "_receiver": "receiver of minted gas token"
        }
      },
      "setGasTokenTargetMintValue(uint256)": {
        "details": "Updates gas token target mint value",
        "params": {
          "_targetMintValue": "target amount of token to mint/transfer during one call to _collectGasTokens"
        }
      },
      "transferOwnership(address)": {
        "details": "Allows the current owner to transfer control of the contract to a newOwner.",
        "params": {
          "newOwner": "the address to transfer ownership to."
        }
      }
    },
    "title": "GasTokenConnector"
  },
  "userdoc": {
    "methods": {}
  }
}