{
  "contractName": "HomeFeeManagerAMBNativeToErc20",
  "abi": [
    {
      "constant": false,
      "inputs": [
        {
          "name": "_account",
          "type": "address"
        }
      ],
      "name": "removeRewardAccount",
      "outputs": [
        {
          "name": "",
          "type": "bool"
        }
      ],
      "payable": false,
      "stateMutability": "nonpayable",
      "type": "function"
    },
    {
      "constant": true,
      "inputs": [],
      "name": "rewardAccountsCount",
      "outputs": [
        {
          "name": "",
          "type": "uint256"
        }
      ],
      "payable": false,
      "stateMutability": "view",
      "type": "function"
    },
    {
      "constant": false,
      "inputs": [
        {
          "name": "_fee",
          "type": "uint256"
        }
      ],
      "name": "setFee",
      "outputs": [],
      "payable": false,
      "stateMutability": "nonpayable",
      "type": "function"
    },
    {
      "constant": false,
      "inputs": [],
      "name": "renounceOwnership",
      "outputs": [],
      "payable": false,
      "stateMutability": "nonpayable",
      "type": "function"
    },
    {
      "constant": true,
      "inputs": [],
      "name": "owner",
      "outputs": [
        {
          "name": "",
          "type": "address"
        }
      ],
      "payable": false,
      "stateMutability": "view",
      "type": "function"
    },
    {
      "constant": true,
      "inputs": [
        {
          "name": "_value",
          "type": "uint256"
        }
      ],
      "name": "calculateFee",
      "outputs": [
        {
          "name": "",
          "type": "uint256"
        }
      ],
      "payable": false,
      "stateMutability": "view",
      "type": "function"
    },
    {
      "constant": false,
      "inputs": [
        {
          "name": "",
          "type": "address"
        },
        {
          "name": "_value",
          "type": "uint256"
        },
        {
          "name": "",
          "type": "bytes"
        }
      ],
      "name": "onTokenTransfer",
      "outputs": [
        {
          "name": "",
          "type": "bool"
        }
      ],
      "payable": false,
      "stateMutability": "nonpayable",
      "type": "function"
    },
    {
      "constant": true,
      "inputs": [],
      "name": "fee",
      "outputs": [
        {
          "name": "",
          "type": "uint256"
        }
      ],
      "payable": false,
      "stateMutability": "view",
      "type": "function"
    },
    {
      "constant": false,
      "inputs": [
        {
          "name": "_account",
          "type": "address"
        }
      ],
      "name": "addRewardAccount",
      "outputs": [],
      "payable": false,
      "stateMutability": "nonpayable",
      "type": "function"
    },
    {
      "constant": false,
      "inputs": [
        {
          "name": "_newOwner",
          "type": "address"
        }
      ],
      "name": "transferOwnership",
      "outputs": [],
      "payable": false,
      "stateMutability": "nonpayable",
      "type": "function"
    },
    {
      "constant": true,
      "inputs": [],
      "name": "rewardAccountsList",
      "outputs": [
        {
          "name": "",
          "type": "address[]"
        }
      ],
      "payable": false,
      "stateMutability": "view",
      "type": "function"
    },
    {
      "inputs": [
        {
          "name": "_owner",
          "type": "address"
        },
        {
          "name": "_fee",
          "type": "uint256"
        },
        {
          "name": "_rewardAccountList",
          "type": "address[]"
        },
        {
          "name": "_mediatorContract",
          "type": "address"
        }
      ],
      "payable": false,
      "stateMutability": "nonpayable",
      "type": "constructor"
    },
    {
      "payable": true,
      "stateMutability": "payable",
      "type": "fallback"
    },
    {
      "anonymous": false,
      "inputs": [
        {
          "indexed": false,
          "name": "fee",
          "type": "uint256"
        }
      ],
      "name": "FeeUpdated",
      "type": "event"
    },
    {
      "anonymous": false,
      "inputs": [
        {
          "indexed": true,
          "name": "previousOwner",
          "type": "address"
        }
      ],
      "name": "OwnershipRenounced",
      "type": "event"
    },
    {
      "anonymous": false,
      "inputs": [
        {
          "indexed": true,
          "name": "previousOwner",
          "type": "address"
        },
        {
          "indexed": true,
          "name": "newOwner",
          "type": "address"
        }
      ],
      "name": "OwnershipTransferred",
      "type": "event"
    }
  ],
  "bytecode": "0x60806040523480156200001157600080fd5b5060405162000ca938038062000ca98339810160409081528151602083015191830151606084015160008054600160a060020a0319163317815592949190910191849084908490849062000073826401000000006200095a6200015c82021704565b15156200007f57600080fd5b600083511180156200009357506032835111155b15156200009f57600080fd5b620000b38564010000000062000164810204565b620000c784640100000000620001d5810204565b5060038054600160a060020a031916600160a060020a03831617905560005b825181101562000137576200012283828151811015156200010357fe5b9060200190602002015162000227640100000000026401000000009004565b15156200012e57600080fd5b600101620000e6565b82516200014c90600290602086019062000256565b50505050505050505050620002ea565b6000903b1190565b600160a060020a03811615156200017a57600080fd5b60008054604051600160a060020a03808516939216917f8be0079c531659141344cd1fd0a4f28419497f9722a3daafe3b4186f6b6457e091a360008054600160a060020a031916600160a060020a0392909216919091179055565b80670de0b6b3a76400008110620001eb57600080fd5b60018290556040805183815290517f8c4d35e54a3f2ef1134138fd8ea3daee6a3c89e10d2665996babdf70261e2c769181900360200190a15050565b6000600160a060020a03821615801590620002505750600354600160a060020a03838116911614155b92915050565b828054828255906000526020600020908101928215620002ae579160200282015b82811115620002ae5782518254600160a060020a031916600160a060020a0390911617825560209092019160019091019062000277565b50620002bc929150620002c0565b5090565b620002e791905b80821115620002bc578054600160a060020a0319168155600101620002c7565b90565b6109af80620002fa6000396000f3006080604052600436106100ae5763ffffffff7c01000000000000000000000000000000000000000000000000000000006000350416634692d9b481146100b05780635ab73f01146100e557806369fe0e2d1461010c578063715018a6146101245780638da5cb5b1461013957806399a5d7471461016a578063a4c0ed3614610182578063ddca3f43146101b3578063e219bdc6146101c8578063f2fde38b146101e9578063fdcbe9cd1461020a575b005b3480156100bc57600080fd5b506100d1600160a060020a036004351661026f565b604080519115158252519081900360200190f35b3480156100f157600080fd5b506100fa6103ad565b60408051918252519081900360200190f35b34801561011857600080fd5b506100ae6004356103b4565b34801561013057600080fd5b506100ae6103d7565b34801561014557600080fd5b5061014e610443565b60408051600160a060020a039092168252519081900360200190f35b34801561017657600080fd5b506100fa600435610452565b34801561018e57600080fd5b506100d160048035600160a060020a0316906024803591604435918201910135610487565b3480156101bf57600080fd5b506100fa61049d565b3480156101d457600080fd5b506100ae600160a060020a03600435166104a3565b3480156101f557600080fd5b506100ae600160a060020a036004351661054f565b34801561021657600080fd5b5061021f61056f565b60408051602080825283518183015283519192839290830191858101910280838360005b8381101561025b578181015183820152602001610243565b505050509050019250505060405180910390f35b6000805481908190600160a060020a0316331461028b57600080fd5b6102936103ad565b9150600090505b818110156103a15783600160a060020a03166002828154811015156102bb57fe5b600091825260209091200154600160a060020a03161415610399576002805460001984019081106102e857fe5b60009182526020909120015460028054600160a060020a03909216918390811061030e57fe5b6000918252602090912001805473ffffffffffffffffffffffffffffffffffffffff1916600160a060020a039290921691909117905560028054600019840190811061035657fe5b6000918252602090912001805473ffffffffffffffffffffffffffffffffffffffff19169055600280549061038f906000198301610904565b50600192506103a6565b60010161029a565b600080fd5b5050919050565b6002545b90565b600054600160a060020a031633146103cb57600080fd5b6103d4816105d1565b50565b600054600160a060020a031633146103ee57600080fd5b60008054604051600160a060020a03909116917ff8df31144d9c2f0f6b59d69b8b98abd5459d07f2742c4df920b25aae33c6482091a26000805473ffffffffffffffffffffffffffffffffffffffff19169055565b600054600160a060020a031681565b6000610481670de0b6b3a76400006104756001548561062290919063ffffffff16565b9063ffffffff61064b16565b92915050565b600061049284610660565b506001949350505050565b60015481565b600054600160a060020a031633146104ba57600080fd5b6104c38161073f565b15156104ce57600080fd5b6104d78161076a565b156104e157600080fd5b6002546032116104f057600080fd5b600280546001810182556000919091527f405787fa12a823e0f2b7631cc41b3ba8828b3321ca811111fa75cd3aa3bb5ace01805473ffffffffffffffffffffffffffffffffffffffff1916600160a060020a0392909216919091179055565b600054600160a060020a0316331461056657600080fd5b6103d4816107cd565b606060028054806020026020016040519081016040528092919081815260200182805480156105c757602002820191906000526020600020905b8154600160a060020a031681526001909101906020018083116105a9575b5050505050905090565b80670de0b6b3a764000081106105e657600080fd5b60018290556040805183815290517f8c4d35e54a3f2ef1134138fd8ea3daee6a3c89e10d2665996babdf70261e2c769181900360200190a15050565b600082151561063357506000610481565b5081810281838281151561064357fe5b041461048157fe5b6000818381151561065857fe5b049392505050565b6000806000806000806106716103ad565b955085151561067f57610736565b61068f878763ffffffff61064b16565b94506106b16106a4868863ffffffff61062216565b889063ffffffff61084a16565b925060008311156106c8576106c58661085c565b93505b600091505b858210156107365750836000831180156106e657508184145b156106fe576106fb818463ffffffff61088116565b90505b61072b60028381548110151561071057fe5b600091825260209091200154600160a060020a03168261088e565b6001909101906106cd565b50505050505050565b6000600160a060020a03821615801590610481575050600354600160a060020a039081169116141590565b6000805b6107766103ad565b8110156107c25782600160a060020a031660028281548110151561079657fe5b600091825260209091200154600160a060020a031614156107ba57600191506107c7565b60010161076e565b600091505b50919050565b600160a060020a03811615156107e257600080fd5b60008054604051600160a060020a03808516939216917f8be0079c531659141344cd1fd0a4f28419497f9722a3daafe3b4186f6b6457e091a36000805473ffffffffffffffffffffffffffffffffffffffff1916600160a060020a0392909216919091179055565b60008282111561085657fe5b50900390565b60008161087043600163ffffffff61084a16565b4081151561087a57fe5b0692915050565b8181018281101561048157fe5b610898828261089c565b5050565b604051600160a060020a0383169082156108fc029083906000818181858888f1935050505015156108985780826108d161092d565b600160a060020a039091168152604051908190036020019082f0801580156108fd573d6000803e3d6000fd5b5050505050565b8154818355818111156109285760008381526020902061092891810190830161093c565b505050565b60405160218061096383390190565b6103b191905b808211156109565760008155600101610942565b5090565b6000903b11905600608060405260405160208060218339810160405251600160a060020a038116ff00a165627a7a72305820ef12cc5a9b5dfccd544eb6d4db21d822385fc8b1e75186bff8ff86d6aa98b8d20029",
  "source": "pragma solidity 0.4.24;\n\nimport \"../../libraries/Address.sol\";\nimport \"../BaseMediatorFeeManager.sol\";\n\n/**\n* @title HomeFeeManagerAMBNativeToErc20\n* @dev Implements the logic to distribute fees from the native to erc20 mediator contract operations.\n* The fees are distributed in the form of native tokens to the list of reward accounts.\n*/\ncontract HomeFeeManagerAMBNativeToErc20 is BaseMediatorFeeManager {\n    /**\n    * @dev Stores the initial parameters of the fee manager.\n    * @param _owner address of the owner of the fee manager contract.\n    * @param _fee the fee percentage amount.\n    * @param _rewardAccountList list of addresses that will receive the fee rewards.\n    */\n    constructor(address _owner, uint256 _fee, address[] _rewardAccountList, address _mediatorContract)\n        public\n        BaseMediatorFeeManager(_owner, _fee, _rewardAccountList, _mediatorContract)\n    {\n        // solhint-disable-previous-line no-empty-blocks\n    }\n\n    /**\n    * @dev Fallback method to receive the fees.\n    */\n    function() public payable {\n        // solhint-disable-previous-line no-empty-blocks\n    }\n\n    /**\n    * @dev Transfer the fee as native tokens to the reward account.\n    * @param _rewardAddress address that will receive the native tokens.\n    * @param _fee amount of native tokens to be distribute.\n    */\n    function onFeeDistribution(address _rewardAddress, uint256 _fee) internal {\n        Address.safeSendValue(_rewardAddress, _fee);\n    }\n}\n",
  "sourcePath": "/Users/max/Projects/Symblox/TokenBridge/tokenbridge/contracts/contracts/upgradeable_contracts/amb_native_to_erc20/HomeFeeManagerAMBNativeToErc20.sol",
  "compiler": {
    "name": "solc",
    "version": "0.4.24+commit.e67f0147.Emscripten.clang"
  },
  "schemaVersion": "3.1.0",
  "updatedAt": "2020-11-26T16:22:39.921Z",
  "devdoc": {
    "methods": {
      "addRewardAccount(address)": {
        "details": "Adds a new account to the list of accounts to receive rewards for the operations. Only the owner can call this method.",
        "params": {
          "_account": "new reward account"
        }
      },
      "calculateFee(uint256)": {
        "details": "Calculates the fee amount to be subtracted from the value.",
        "params": {
          "_value": "the base value from which fees are calculated"
        }
      },
      "onTokenTransfer(address,uint256,bytes)": {
        "details": "ERC677 transfer callback function, received fee is distributed.",
        "params": {
          "_value": "amount of transferred tokens"
        }
      },
      "removeRewardAccount(address)": {
        "details": "Removes an account from the list of accounts to receive rewards for the operations. Only the owner can call this method. finds the element, swaps it with the last element, and then deletes it;",
        "params": {
          "_account": "to be removed return boolean whether the element was found and deleted"
        }
      },
      "renounceOwnership()": {
        "details": "Allows the current owner to relinquish control of the contract."
      },
      "rewardAccountsCount()": {
        "details": "Tells the amount of accounts in the list of reward accounts.",
        "return": "amount of accounts."
      },
      "rewardAccountsList()": {
        "details": "Tells the list of accounts that receives rewards for the operations.",
        "return": "the list of reward accounts"
      },
      "setFee(uint256)": {
        "details": "Sets the fee percentage amount for the mediator operations. Only the owner can call this method.",
        "params": {
          "_fee": "the fee percentage"
        }
      },
      "transferOwnership(address)": {
        "details": "Allows the current owner to transfer control of the contract to a newOwner.",
        "params": {
          "_newOwner": "The address to transfer ownership to."
        }
      }
    },
    "title": "HomeFeeManagerAMBNativeToErc20"
  },
  "userdoc": {
    "methods": {
      "renounceOwnership()": {
        "notice": "Renouncing to ownership will leave the contract without an owner. It will not be possible to call the functions with the `onlyOwner` modifier anymore."
      }
    }
  }
}