{
  "contractName": "HomeFeeManagerMultiAMBErc20ToErc677",
  "abi": [
    {
      "constant": false,
      "inputs": [
        {
          "name": "_token",
          "type": "address"
        },
        {
          "name": "_maxPerTx",
          "type": "uint256"
        }
      ],
      "name": "setExecutionMaxPerTx",
      "outputs": [],
      "payable": false,
      "stateMutability": "nonpayable",
      "type": "function"
    },
    {
      "constant": true,
      "inputs": [
        {
          "name": "_token",
          "type": "address"
        }
      ],
      "name": "maxPerTx",
      "outputs": [
        {
          "name": "",
          "type": "uint256"
        }
      ],
      "payable": false,
      "stateMutability": "view",
      "type": "function"
    },
    {
      "constant": true,
      "inputs": [
        {
          "name": "_addr",
          "type": "address"
        }
      ],
      "name": "isRewardAddress",
      "outputs": [
        {
          "name": "",
          "type": "bool"
        }
      ],
      "payable": false,
      "stateMutability": "view",
      "type": "function"
    },
    {
      "constant": true,
      "inputs": [
        {
          "name": "_token",
          "type": "address"
        },
        {
          "name": "_amount",
          "type": "uint256"
        }
      ],
      "name": "withinLimit",
      "outputs": [
        {
          "name": "",
          "type": "bool"
        }
      ],
      "payable": false,
      "stateMutability": "view",
      "type": "function"
    },
    {
      "constant": true,
      "inputs": [
        {
          "name": "_token",
          "type": "address"
        }
      ],
      "name": "executionMaxPerTx",
      "outputs": [
        {
          "name": "",
          "type": "uint256"
        }
      ],
      "payable": false,
      "stateMutability": "view",
      "type": "function"
    },
    {
      "constant": true,
      "inputs": [
        {
          "name": "_token",
          "type": "address"
        }
      ],
      "name": "isTokenRegistered",
      "outputs": [
        {
          "name": "",
          "type": "bool"
        }
      ],
      "payable": false,
      "stateMutability": "view",
      "type": "function"
    },
    {
      "constant": false,
      "inputs": [
        {
          "name": "_token",
          "type": "address"
        },
        {
          "name": "_dailyLimit",
          "type": "uint256"
        }
      ],
      "name": "setDailyLimit",
      "outputs": [],
      "payable": false,
      "stateMutability": "nonpayable",
      "type": "function"
    },
    {
      "constant": true,
      "inputs": [
        {
          "name": "_token",
          "type": "address"
        },
        {
          "name": "_amount",
          "type": "uint256"
        }
      ],
      "name": "withinExecutionLimit",
      "outputs": [
        {
          "name": "",
          "type": "bool"
        }
      ],
      "payable": false,
      "stateMutability": "view",
      "type": "function"
    },
    {
      "constant": true,
      "inputs": [],
      "name": "getCurrentDay",
      "outputs": [
        {
          "name": "",
          "type": "uint256"
        }
      ],
      "payable": false,
      "stateMutability": "view",
      "type": "function"
    },
    {
      "constant": true,
      "inputs": [
        {
          "name": "_token",
          "type": "address"
        }
      ],
      "name": "executionDailyLimit",
      "outputs": [
        {
          "name": "",
          "type": "uint256"
        }
      ],
      "payable": false,
      "stateMutability": "view",
      "type": "function"
    },
    {
      "constant": true,
      "inputs": [
        {
          "name": "_address",
          "type": "address"
        }
      ],
      "name": "getNextRewardAddress",
      "outputs": [
        {
          "name": "",
          "type": "address"
        }
      ],
      "payable": false,
      "stateMutability": "view",
      "type": "function"
    },
    {
      "constant": true,
      "inputs": [],
      "name": "rewardAddressCount",
      "outputs": [
        {
          "name": "",
          "type": "uint256"
        }
      ],
      "payable": false,
      "stateMutability": "view",
      "type": "function"
    },
    {
      "constant": true,
      "inputs": [
        {
          "name": "_token",
          "type": "address"
        }
      ],
      "name": "maxAvailablePerTx",
      "outputs": [
        {
          "name": "",
          "type": "uint256"
        }
      ],
      "payable": false,
      "stateMutability": "view",
      "type": "function"
    },
    {
      "constant": false,
      "inputs": [
        {
          "name": "_token",
          "type": "address"
        },
        {
          "name": "_dailyLimit",
          "type": "uint256"
        }
      ],
      "name": "setExecutionDailyLimit",
      "outputs": [],
      "payable": false,
      "stateMutability": "nonpayable",
      "type": "function"
    },
    {
      "constant": true,
      "inputs": [],
      "name": "owner",
      "outputs": [
        {
          "name": "",
          "type": "address"
        }
      ],
      "payable": false,
      "stateMutability": "view",
      "type": "function"
    },
    {
      "constant": true,
      "inputs": [
        {
          "name": "_token",
          "type": "address"
        }
      ],
      "name": "minPerTx",
      "outputs": [
        {
          "name": "",
          "type": "uint256"
        }
      ],
      "payable": false,
      "stateMutability": "view",
      "type": "function"
    },
    {
      "constant": true,
      "inputs": [
        {
          "name": "_token",
          "type": "address"
        },
        {
          "name": "_day",
          "type": "uint256"
        }
      ],
      "name": "totalSpentPerDay",
      "outputs": [
        {
          "name": "",
          "type": "uint256"
        }
      ],
      "payable": false,
      "stateMutability": "view",
      "type": "function"
    },
    {
      "constant": true,
      "inputs": [],
      "name": "F_ADDR",
      "outputs": [
        {
          "name": "",
          "type": "address"
        }
      ],
      "payable": false,
      "stateMutability": "view",
      "type": "function"
    },
    {
      "constant": false,
      "inputs": [
        {
          "name": "_token",
          "type": "address"
        },
        {
          "name": "_maxPerTx",
          "type": "uint256"
        }
      ],
      "name": "setMaxPerTx",
      "outputs": [],
      "payable": false,
      "stateMutability": "nonpayable",
      "type": "function"
    },
    {
      "constant": true,
      "inputs": [],
      "name": "rewardAddressList",
      "outputs": [
        {
          "name": "",
          "type": "address[]"
        }
      ],
      "payable": false,
      "stateMutability": "view",
      "type": "function"
    },
    {
      "constant": false,
      "inputs": [
        {
          "name": "_token",
          "type": "address"
        },
        {
          "name": "_minPerTx",
          "type": "uint256"
        }
      ],
      "name": "setMinPerTx",
      "outputs": [],
      "payable": false,
      "stateMutability": "nonpayable",
      "type": "function"
    },
    {
      "constant": true,
      "inputs": [
        {
          "name": "_token",
          "type": "address"
        },
        {
          "name": "_day",
          "type": "uint256"
        }
      ],
      "name": "totalExecutedPerDay",
      "outputs": [
        {
          "name": "",
          "type": "uint256"
        }
      ],
      "payable": false,
      "stateMutability": "view",
      "type": "function"
    },
    {
      "constant": false,
      "inputs": [
        {
          "name": "newOwner",
          "type": "address"
        }
      ],
      "name": "transferOwnership",
      "outputs": [],
      "payable": false,
      "stateMutability": "nonpayable",
      "type": "function"
    },
    {
      "constant": true,
      "inputs": [],
      "name": "FOREIGN_TO_HOME_FEE",
      "outputs": [
        {
          "name": "",
          "type": "bytes32"
        }
      ],
      "payable": false,
      "stateMutability": "view",
      "type": "function"
    },
    {
      "constant": true,
      "inputs": [
        {
          "name": "_token",
          "type": "address"
        }
      ],
      "name": "dailyLimit",
      "outputs": [
        {
          "name": "",
          "type": "uint256"
        }
      ],
      "payable": false,
      "stateMutability": "view",
      "type": "function"
    },
    {
      "constant": true,
      "inputs": [],
      "name": "HOME_TO_FOREIGN_FEE",
      "outputs": [
        {
          "name": "",
          "type": "bytes32"
        }
      ],
      "payable": false,
      "stateMutability": "view",
      "type": "function"
    },
    {
      "anonymous": false,
      "inputs": [
        {
          "indexed": false,
          "name": "feeType",
          "type": "bytes32"
        },
        {
          "indexed": true,
          "name": "token",
          "type": "address"
        },
        {
          "indexed": false,
          "name": "fee",
          "type": "uint256"
        }
      ],
      "name": "FeeUpdated",
      "type": "event"
    },
    {
      "anonymous": false,
      "inputs": [
        {
          "indexed": false,
          "name": "fee",
          "type": "uint256"
        },
        {
          "indexed": true,
          "name": "token",
          "type": "address"
        },
        {
          "indexed": true,
          "name": "messageId",
          "type": "bytes32"
        }
      ],
      "name": "FeeDistributed",
      "type": "event"
    },
    {
      "anonymous": false,
      "inputs": [
        {
          "indexed": true,
          "name": "token",
          "type": "address"
        },
        {
          "indexed": false,
          "name": "newLimit",
          "type": "uint256"
        }
      ],
      "name": "DailyLimitChanged",
      "type": "event"
    },
    {
      "anonymous": false,
      "inputs": [
        {
          "indexed": true,
          "name": "token",
          "type": "address"
        },
        {
          "indexed": false,
          "name": "newLimit",
          "type": "uint256"
        }
      ],
      "name": "ExecutionDailyLimitChanged",
      "type": "event"
    },
    {
      "anonymous": false,
      "inputs": [
        {
          "indexed": false,
          "name": "previousOwner",
          "type": "address"
        },
        {
          "indexed": false,
          "name": "newOwner",
          "type": "address"
        }
      ],
      "name": "OwnershipTransferred",
      "type": "event"
    },
    {
      "anonymous": false,
      "inputs": [
        {
          "indexed": true,
          "name": "addr",
          "type": "address"
        }
      ],
      "name": "RewardAddressAdded",
      "type": "event"
    },
    {
      "anonymous": false,
      "inputs": [
        {
          "indexed": true,
          "name": "addr",
          "type": "address"
        }
      ],
      "name": "RewardAddressRemoved",
      "type": "event"
    },
    {
      "constant": false,
      "inputs": [
        {
          "name": "_addr",
          "type": "address"
        }
      ],
      "name": "addRewardAddress",
      "outputs": [],
      "payable": false,
      "stateMutability": "nonpayable",
      "type": "function"
    },
    {
      "constant": false,
      "inputs": [
        {
          "name": "_addr",
          "type": "address"
        }
      ],
      "name": "removeRewardAddress",
      "outputs": [],
      "payable": false,
      "stateMutability": "nonpayable",
      "type": "function"
    },
    {
      "constant": false,
      "inputs": [
        {
          "name": "_feeType",
          "type": "bytes32"
        },
        {
          "name": "_token",
          "type": "address"
        },
        {
          "name": "_fee",
          "type": "uint256"
        }
      ],
      "name": "setFee",
      "outputs": [],
      "payable": false,
      "stateMutability": "nonpayable",
      "type": "function"
    },
    {
      "constant": true,
      "inputs": [
        {
          "name": "_feeType",
          "type": "bytes32"
        },
        {
          "name": "_token",
          "type": "address"
        }
      ],
      "name": "getFee",
      "outputs": [
        {
          "name": "",
          "type": "uint256"
        }
      ],
      "payable": false,
      "stateMutability": "view",
      "type": "function"
    },
    {
      "constant": true,
      "inputs": [
        {
          "name": "_feeType",
          "type": "bytes32"
        },
        {
          "name": "_token",
          "type": "address"
        },
        {
          "name": "_value",
          "type": "uint256"
        }
      ],
      "name": "calculateFee",
      "outputs": [
        {
          "name": "",
          "type": "uint256"
        }
      ],
      "payable": false,
      "stateMutability": "view",
      "type": "function"
    }
  ],
  "bytecode": "0x608060405234801561001057600080fd5b50611cba806100206000396000f30060806040526004361061018a5763ffffffff7c010000000000000000000000000000000000000000000000000000000060003504166301fcc1d3811461018f578063032f693f146101b5578063071664c5146101e8578063107752381461021d57806310b8075b1461024157806316ef19131461026257806326aa101f146102835780632803212f146102a45780633a50bc87146102c85780633e6968b6146102ec57806340f8dd86146103015780634b1a75821461032257806368400963146103495780636d92f5091461036d578063710c6013146103aa57806371e9a8b2146103d15780637610722f146103e65780637837cf91146104075780638da5cb5b1461042b578063a4b1c24314610440578063ab3a25d914610461578063b4be506e14610485578063c794c769146104a6578063db6fff8c146104bb578063e9d6c059146104df578063ec47de2a14610544578063f2c54fe814610568578063f2fde38b1461058c578063f3ce14c2146105ad578063f3f51415146105c2578063fab19091146105e3575b600080fd5b34801561019b57600080fd5b506101b3600160a060020a03600435166024356105f8565b005b3480156101c157600080fd5b506101d6600160a060020a0360043516610727565b60408051918252519081900360200190f35b3480156101f457600080fd5b50610209600160a060020a03600435166107fc565b604080519115158252519081900360200190f35b34801561022957600080fd5b50610209600160a060020a036004351660243561082f565b34801561024d57600080fd5b506101b3600160a060020a03600435166108a6565b34801561026e57600080fd5b506101d6600160a060020a03600435166108ce565b34801561028f57600080fd5b50610209600160a060020a0360043516610961565b3480156102b057600080fd5b506101b3600160a060020a0360043516602435610974565b3480156102d457600080fd5b50610209600160a060020a0360043516602435610ad5565b3480156102f857600080fd5b506101d6610b2b565b34801561030d57600080fd5b506101d6600160a060020a0360043516610b34565b34801561032e57600080fd5b506101b3600435600160a060020a0360243516604435610bc7565b34801561035557600080fd5b506101d6600435600160a060020a0360243516610bf3565b34801561037957600080fd5b5061038e600160a060020a0360043516610cf6565b60408051600160a060020a039092168252519081900360200190f35b3480156103b657600080fd5b506101d6600435600160a060020a0360243516604435610dd5565b3480156103dd57600080fd5b506101d6610e15565b3480156103f257600080fd5b506101d6600160a060020a0360043516610e63565b34801561041357600080fd5b506101b3600160a060020a0360043516602435610ebc565b34801561043757600080fd5b5061038e61101d565b34801561044c57600080fd5b506101d6600160a060020a0360043516611074565b34801561046d57600080fd5b506101d6600160a060020a0360043516602435611107565b34801561049157600080fd5b506101b3600160a060020a03600435166111e6565b3480156104b257600080fd5b5061038e61120b565b3480156104c757600080fd5b506101b3600160a060020a0360043516602435611216565b3480156104eb57600080fd5b506104f4611309565b60408051602080825283518183015283519192839290830191858101910280838360005b83811015610530578181015183820152602001610518565b505050509050019250505060405180910390f35b34801561055057600080fd5b506101b3600160a060020a03600435166024356113c3565b34801561057457600080fd5b506101d6600160a060020a03600435166024356114ba565b34801561059857600080fd5b506101b3600160a060020a0360043516611555565b3480156105b957600080fd5b506101d661157a565b3480156105ce57600080fd5b506101d6600160a060020a036004351661159e565b3480156105ef57600080fd5b506101d6611631565b61060061101d565b600160a060020a0316331461061457600080fd5b61061d82610961565b151561062857600080fd5b8015806106475750600081118015610647575061064482610b34565b81105b151561065257600080fd5b806000808460405160200180807f657865637574696f6e4d6178506572547800000000000000000000000000000081525060110182600160a060020a0316600160a060020a0316606060020a0281526014019150506040516020818303038152906040526040518082805190602001908083835b602083106106e55780518252601f1990920191602091820191016106c6565b51815160209384036101000a60001901801990921691161790526040805192909401829003909120865285019590955292909201600020939093555050505050565b60008060008360405160200180807f6d6178506572547800000000000000000000000000000000000000000000000081525060080182600160a060020a0316600160a060020a0316606060020a0281526014019150506040516020818303038152906040526040518082805190602001908083835b602083106107bb5780518252601f19909201916020918201910161079c565b51815160209384036101000a600019018019909216911617905260408051929094018290039091208652850195909552929092016000205495945050505050565b6000600160a060020a03828116148015906108295750600061081d83610cf6565b600160a060020a031614155b92915050565b6000806108538361084786610842610b2b565b611107565b9063ffffffff61165516565b90506000610861600061159e565b1180156108765750806108738561159e565b10155b801561088a575061088684610727565b8311155b801561089e575061089a84611074565b8310155b949350505050565b6108ae61101d565b600160a060020a031633146108c257600080fd5b6108cb81611662565b50565b60008060008360405160200180807f657865637574696f6e4d6178506572547800000000000000000000000000000081525060110182600160a060020a0316600160a060020a0316606060020a028152601401915050604051602081830303815290604052604051808280519060200190808383602083106107bb5780518252601f19909201916020918201910161079c565b60008061096d83611074565b1192915050565b61097c61101d565b600160a060020a0316331461099057600080fd5b61099982610961565b15156109a457600080fd5b6109ad82610727565b8111806109b8575080155b15156109c357600080fd5b806000808460405160200180807f6461696c794c696d697400000000000000000000000000000000000000000000815250600a0182600160a060020a0316600160a060020a0316606060020a0281526014019150506040516020818303038152906040526040518082805190602001908083835b60208310610a565780518252601f199092019160209182019101610a37565b51815160209384036101000a6000190180199092169116179052604080519290940182900390912086528581019690965250928301600020949094555080518481529051600160a060020a03861693507fca0b3dabefdbd8c72c0a9cf4a6e9d107da897abf036ef3f3f3b010cdd2594159929181900390910190a25050565b600080610aed8361084786610ae8610b2b565b6114ba565b90506000610afb6000610b34565b118015610b10575080610b0d85610b34565b10155b801561089e5750610b20846108ce565b909211159392505050565b62015180420490565b60008060008360405160200180807f657865637574696f6e4461696c794c696d69740000000000000000000000000081525060130182600160a060020a0316600160a060020a0316606060020a028152601401915050604051602081830303815290604052604051808280519060200190808383602083106107bb5780518252601f19909201916020918201910161079c565b610bcf61101d565b600160a060020a03163314610be357600080fd5b610bee838383611808565b505050565b6000827f741ede137d0537e88e0ea0ff25b1f22d837903dbbee8980b4a06e8523247ee26811480610c4357507f03be2b2875cb41e0e77355e802a16769bb8dfcf825061cde185c73bf94f1262581145b1515610c4e57600080fd5b604080516020808201879052606060020a600160a060020a0387160282840152825160348184030181526054909201928390528151600093849392909182918401908083835b60208310610cb35780518252601f199092019160209182019101610c94565b51815160209384036101000a6000190180199092169116179052604080519290940182900390912086528501959095529290920160002054979650505050505050565b6000600260008360405160200180807f726577617264416464726573734c69737400000000000000000000000000000081525060110182600160a060020a0316600160a060020a0316606060020a0281526014019150506040516020818303038152906040526040518082805190602001908083835b60208310610d8b5780518252601f199092019160209182019101610d6c565b51815160209384036101000a6000190180199092169116179052604080519290940182900390912086528501959095529290920160002054600160a060020a031695945050505050565b600080610de28585610bf3565b9050610e0c670de0b6b3a7640000610e00858463ffffffff61197716565b9063ffffffff6119a016565b95945050505050565b7fabc77c82721ced73eef2645facebe8c30249e6ac372cce6eb9d1fed31bd6648f60009081526020527f75fbf9e7a88379132f510aaafa152e59a595fda8e70d0b76dd34200dac99f82e5490565b6000806000806000610e7486610727565b9350610e7f8661159e565b9250610e8d86610842610b2b565b9150818311610e9d576000610ea1565b8183035b9050808410610eb05780610eb2565b835b9695505050505050565b610ec461101d565b600160a060020a03163314610ed857600080fd5b610ee182610961565b1515610eec57600080fd5b610ef5826108ce565b811180610f00575080155b1515610f0b57600080fd5b806000808460405160200180807f657865637574696f6e4461696c794c696d69740000000000000000000000000081525060130182600160a060020a0316600160a060020a0316606060020a0281526014019150506040516020818303038152906040526040518082805190602001908083835b60208310610f9e5780518252601f199092019160209182019101610f7f565b51815160209384036101000a6000190180199092169116179052604080519290940182900390912086528581019690965250928301600020949094555080518481529051600160a060020a03861693507f4c177b42dbe934b3abbc0208c11a42e46589983431616f1710ab19969c5ed62e929181900390910190a25050565b7f02016836a56b71f0d02689e69e326f4f4c1b9057164ef592671cf0d37c8040c060005260026020527fb7802e97e87ef2842a6cce7da7ffaeaedaa2f61a6a7870b23d9d01fc9b73712e54600160a060020a031690565b60008060008360405160200180807f6d696e506572547800000000000000000000000000000000000000000000000081525060080182600160a060020a0316600160a060020a0316606060020a028152601401915050604051602081830303815290604052604051808280519060200190808383602083106107bb5780518252601f19909201916020918201910161079c565b6000806000848460405160200180807f746f74616c5370656e745065724461790000000000000000000000000000000081525060100183600160a060020a0316600160a060020a0316606060020a028152601401828152602001925050506040516020818303038152906040526040518082805190602001908083835b602083106111a35780518252601f199092019160209182019101611184565b51815160209384036101000a6000190180199092169116179052604080519290940182900390912086528501959095529290920160002054935050505092915050565b6111ee61101d565b600160a060020a0316331461120257600080fd5b6108cb816119b5565b600160a060020a0381565b61121e61101d565b600160a060020a0316331461123257600080fd5b61123b82610961565b151561124657600080fd5b80158061126c575061125782611074565b8111801561126c57506112698261159e565b81105b151561127757600080fd5b806000808460405160200180807f6d6178506572547800000000000000000000000000000000000000000000000081525060080182600160a060020a0316600160a060020a0316606060020a028152601401915050604051602081830303815290604052604051808280519060200190808383602083106106e55780518252601f1990920191602091820191016106c6565b606080600080611317610e15565b604051908082528060200260200182016040528015611340578160200160208202803883390190505b50925060009150611357600160a060020a03610cf6565b90505b600160a060020a03818116146113bb57600160a060020a038116151561137f57600080fd5b80838381518110151561138e57fe5b600160a060020a039092166020928302909101909101526113ae81610cf6565b600190920191905061135a565b509092915050565b6113cb61101d565b600160a060020a031633146113df57600080fd5b6113e882610961565b15156113f357600080fd5b60008111801561140a57506114078261159e565b81105b801561141d575061141a82610727565b81105b151561142857600080fd5b806000808460405160200180807f6d696e506572547800000000000000000000000000000000000000000000000081525060080182600160a060020a0316600160a060020a0316606060020a028152601401915050604051602081830303815290604052604051808280519060200190808383602083106106e55780518252601f1990920191602091820191016106c6565b6000806000848460405160200180807f746f74616c45786563757465645065724461790000000000000000000000000081525060130183600160a060020a0316600160a060020a0316606060020a02815260140182815260200192505050604051602081830303815290604052604051808280519060200190808383602083106111a35780518252601f199092019160209182019101611184565b61155d61101d565b600160a060020a0316331461157157600080fd5b6108cb81611a4c565b7f03be2b2875cb41e0e77355e802a16769bb8dfcf825061cde185c73bf94f1262581565b60008060008360405160200180807f6461696c794c696d697400000000000000000000000000000000000000000000815250600a0182600160a060020a0316600160a060020a0316606060020a028152601401915050604051602081830303815290604052604051808280519060200190808383602083106107bb5780518252601f19909201916020918201910161079c565b7f741ede137d0537e88e0ea0ff25b1f22d837903dbbee8980b4a06e8523247ee2681565b8181018281101561082957fe5b6000806000611670846107fc565b151561167b57600080fd5b61168484610cf6565b9250600160a060020a03915061169982610cf6565b90505b600160a060020a03818116908516146116ed57600160a060020a03811615156116c457600080fd5b8091506116d082610cf6565b9050600160a060020a0380821614156116e857600080fd5b61169c565b6116f78284611b23565b600260008560405160200180807f726577617264416464726573734c69737400000000000000000000000000000081525060110182600160a060020a0316600160a060020a0316606060020a0281526014019150506040516020818303038152906040526040518082805190602001908083835b6020831061178a5780518252601f19909201916020918201910161176b565b51815160209384036101000a60001901801990921691161790526040805192909401829003909120865285019590955292909201600020805473ffffffffffffffffffffffffffffffffffffffff191690555061180291506117fd905060016117f1610e15565b9063ffffffff611c2116565b611c33565b50505050565b827f741ede137d0537e88e0ea0ff25b1f22d837903dbbee8980b4a06e8523247ee2681148061185657507f03be2b2875cb41e0e77355e802a16769bb8dfcf825061cde185c73bf94f1262581145b151561186157600080fd5b81670de0b6b3a7640000811061187657600080fd5b61187f84610961565b151561188a57600080fd5b604080516020808201889052606060020a600160a060020a038816028284015282516034818403018152605490920192839052815186936000938493909282918401908083835b602083106118f05780518252601f1990920191602091820191016118d1565b51815160209384036101000a6000190180199092169116179052604080519290940182900390912086528581019690965250928301600020949094555080518881529182018690528051600160a060020a03881693507fb8ff7722579ab646299f4f7d3ec42f3aaa482cce1e47d6041e8ca971600455309281900390910190a25050505050565b600082151561198857506000610829565b5081810281838281151561199857fe5b041461082957fe5b600081838115156119ad57fe5b049392505050565b6000600160a060020a038216158015906119d85750600160a060020a0382811614155b15156119e357600080fd5b6119ec826107fc565b156119f657600080fd5b611a06600160a060020a03610cf6565b9050600160a060020a0381161515611a1d57600080fd5b611a278282611b23565b611a38600160a060020a0383611b23565b611a486117fd6001610847610e15565b5050565b600160a060020a0381161515611a6157600080fd5b7f8be0079c531659141344cd1fd0a4f28419497f9722a3daafe3b4186f6b6457e0611a8a61101d565b60408051600160a060020a03928316815291841660208301528051918290030190a17f02016836a56b71f0d02689e69e326f4f4c1b9057164ef592671cf0d37c8040c060005260026020527fb7802e97e87ef2842a6cce7da7ffaeaedaa2f61a6a7870b23d9d01fc9b73712e805473ffffffffffffffffffffffffffffffffffffffff1916600160a060020a0392909216919091179055565b80600260008460405160200180807f726577617264416464726573734c69737400000000000000000000000000000081525060110182600160a060020a0316600160a060020a0316606060020a0281526014019150506040516020818303038152906040526040518082805190602001908083835b60208310611bb75780518252601f199092019160209182019101611b98565b51815160209384036101000a60001901801990921691161790526040805192909401829003909120865285019590955292909201600020805473ffffffffffffffffffffffffffffffffffffffff1916600160a060020a0395909516949094179093555050505050565b600082821115611c2d57fe5b50900390565b6032811115611c4157600080fd5b7fabc77c82721ced73eef2645facebe8c30249e6ac372cce6eb9d1fed31bd6648f60009081526020527f75fbf9e7a88379132f510aaafa152e59a595fda8e70d0b76dd34200dac99f82e555600a165627a7a7230582082cfd6f781b86bba76b2eb823f5916d08f0e9abd0febe587d2accd721e287e400029",
  "source": "pragma solidity 0.4.24;\n\nimport \"./BasicMultiTokenBridge.sol\";\nimport \"../BaseRewardAddressList.sol\";\nimport \"../Ownable.sol\";\nimport \"../../interfaces/ERC677.sol\";\nimport \"../../interfaces/IBurnableMintableERC677Token.sol\";\n\n/**\n* @title HomeFeeManagerMultiAMBErc20ToErc677\n* @dev Implements the logic to distribute fees from the multi erc20 to erc677 mediator contract operations.\n* The fees are distributed in the form of native tokens to the list of reward accounts.\n*/\ncontract HomeFeeManagerMultiAMBErc20ToErc677 is BaseRewardAddressList, Ownable, BasicMultiTokenBridge {\n    using SafeMath for uint256;\n\n    event FeeUpdated(bytes32 feeType, address indexed token, uint256 fee);\n    event FeeDistributed(uint256 fee, address indexed token, bytes32 indexed messageId);\n\n    // This is not a real fee value but a relative value used to calculate the fee percentage\n    uint256 internal constant MAX_FEE = 1 ether;\n    bytes32 public constant HOME_TO_FOREIGN_FEE = 0x741ede137d0537e88e0ea0ff25b1f22d837903dbbee8980b4a06e8523247ee26; // keccak256(abi.encodePacked(\"homeToForeignFee\"))\n    bytes32 public constant FOREIGN_TO_HOME_FEE = 0x03be2b2875cb41e0e77355e802a16769bb8dfcf825061cde185c73bf94f12625; // keccak256(abi.encodePacked(\"foreignToHomeFee\"))\n\n    /**\n    * @dev Throws if given fee percentage is >= 100%.\n    */\n    modifier validFee(uint256 _fee) {\n        require(_fee < MAX_FEE);\n        /* solcov ignore next */\n        _;\n    }\n\n    /**\n    * @dev Throws if given fee type is unknown.\n    */\n    modifier validFeeType(bytes32 _feeType) {\n        require(_feeType == HOME_TO_FOREIGN_FEE || _feeType == FOREIGN_TO_HOME_FEE);\n        /* solcov ignore next */\n        _;\n    }\n\n    /**\n    * @dev Adds a new reward address to the list, which will receive fees collected from the bridge operations.\n    * Only the owner can call this method.\n    * @param _addr new reward account.\n    */\n    function addRewardAddress(address _addr) external onlyOwner {\n        _addRewardAddress(_addr);\n    }\n\n    /**\n    * @dev Removes a reward address from the rewards list.\n    * Only the owner can call this method.\n    * @param _addr old reward account, that should be removed.\n    */\n    function removeRewardAddress(address _addr) external onlyOwner {\n        _removeRewardAddress(_addr);\n    }\n\n    /**\n    * @dev Updates the value for the particular fee type.\n    * Only the owner can call this method.\n    * @param _feeType type of the updated fee, can be one of [HOME_TO_FOREIGN_FEE, FOREIGN_TO_HOME_FEE].\n    * @param _token address of the token contract for which fee should apply, 0x00..00 describes the initial fee for newly created tokens.\n    * @param _fee new fee value, in percentage (1 ether == 10**18 == 100%).\n    */\n    function setFee(bytes32 _feeType, address _token, uint256 _fee) external onlyOwner {\n        _setFee(_feeType, _token, _fee);\n    }\n\n    /**\n    * @dev Retrieves the value for the particular fee type.\n    * @param _feeType type of the updated fee, can be one of [HOME_TO_FOREIGN_FEE, FOREIGN_TO_HOME_FEE].\n    * @param _token address of the token contract for which fee should apply, 0x00..00 describes the initial fee for newly created tokens.\n    * @return fee value associated with the requested fee type.\n    */\n    function getFee(bytes32 _feeType, address _token) public view validFeeType(_feeType) returns (uint256) {\n        return uintStorage[keccak256(abi.encodePacked(_feeType, _token))];\n    }\n\n    /**\n    * @dev Calculates the amount of fee to pay for the value of the particular fee type.\n    * @param _feeType type of the updated fee, can be one of [HOME_TO_FOREIGN_FEE, FOREIGN_TO_HOME_FEE].\n    * @param _token address of the token contract for which fee should apply, 0x00..00 describes the initial fee for newly created tokens.\n    * @param _value bridged value, for which fee should be evaluated.\n    * @return amount of fee to be subtracted from the transferred value.\n    */\n    function calculateFee(bytes32 _feeType, address _token, uint256 _value) public view returns (uint256) {\n        uint256 _fee = getFee(_feeType, _token);\n        return _value.mul(_fee).div(MAX_FEE);\n    }\n\n    /**\n    * @dev Internal function for updating the fee value for the given fee type.\n    * @param _feeType type of the updated fee, can be one of [HOME_TO_FOREIGN_FEE, FOREIGN_TO_HOME_FEE].\n    * @param _token address of the token contract for which fee should apply, 0x00..00 describes the initial fee for newly created tokens.\n    * @param _fee new fee value, in percentage (1 ether == 10**18 == 100%).\n    */\n    function _setFee(bytes32 _feeType, address _token, uint256 _fee) internal validFeeType(_feeType) validFee(_fee) {\n        require(isTokenRegistered(_token));\n        uintStorage[keccak256(abi.encodePacked(_feeType, _token))] = _fee;\n        emit FeeUpdated(_feeType, _token, _fee);\n    }\n\n    /**\n    * @dev Calculates a random number based on the block number.\n    * @param _count the max value for the random number.\n    * @return a number between 0 and _count.\n    */\n    function random(uint256 _count) internal view returns (uint256) {\n        return uint256(blockhash(block.number.sub(1))) % _count;\n    }\n\n    /**\n    * @dev Calculates and distributes the amount of fee proportionally between registered reward addresses.\n    * @param _feeType type of the updated fee, can be one of [HOME_TO_FOREIGN_FEE, FOREIGN_TO_HOME_FEE].\n    * @param _token address of the token contract for which fee should apply, 0x00..00 describes the initial fee for newly created tokens.\n    * @param _value bridged value, for which fee should be evaluated.\n    * @return total amount of fee subtracted from the transferred value and distributed between the reward accounts.\n    */\n    function _distributeFee(bytes32 _feeType, address _token, uint256 _value) internal returns (uint256) {\n        uint256 numOfAccounts = rewardAddressCount();\n        uint256 _fee = calculateFee(_feeType, _token, _value);\n        if (numOfAccounts == 0 || _fee == 0) {\n            return 0;\n        }\n        uint256 feePerAccount = _fee.div(numOfAccounts);\n        uint256 randomAccountIndex;\n        uint256 diff = _fee.sub(feePerAccount.mul(numOfAccounts));\n        if (diff > 0) {\n            randomAccountIndex = random(numOfAccounts);\n        }\n\n        address nextAddr = getNextRewardAddress(F_ADDR);\n        require(nextAddr != F_ADDR && nextAddr != address(0));\n\n        uint256 i = 0;\n        while (nextAddr != F_ADDR) {\n            uint256 feeToDistribute = feePerAccount;\n            if (diff > 0 && randomAccountIndex == i) {\n                feeToDistribute = feeToDistribute.add(diff);\n            }\n\n            if (_feeType == HOME_TO_FOREIGN_FEE) {\n                ERC677(_token).transfer(nextAddr, feeToDistribute);\n            } else {\n                IBurnableMintableERC677Token(_token).mint(nextAddr, feeToDistribute);\n            }\n\n            nextAddr = getNextRewardAddress(nextAddr);\n            require(nextAddr != address(0));\n            i = i + 1;\n        }\n        return _fee;\n    }\n}\n",
  "sourcePath": "/Users/max/Projects/Symblox/TokenBridge/tokenbridge/contracts/contracts/upgradeable_contracts/multi_amb_erc20_to_erc677/HomeFeeManagerMultiAMBErc20ToErc677.sol",
  "compiler": {
    "name": "solc",
    "version": "0.4.24+commit.e67f0147.Emscripten.clang"
  },
  "schemaVersion": "3.1.0",
  "updatedAt": "2020-11-26T16:22:39.998Z",
  "devdoc": {
    "methods": {
      "addRewardAddress(address)": {
        "details": "Adds a new reward address to the list, which will receive fees collected from the bridge operations. Only the owner can call this method.",
        "params": {
          "_addr": "new reward account."
        }
      },
      "calculateFee(bytes32,address,uint256)": {
        "details": "Calculates the amount of fee to pay for the value of the particular fee type.",
        "params": {
          "_feeType": "type of the updated fee, can be one of [HOME_TO_FOREIGN_FEE, FOREIGN_TO_HOME_FEE].",
          "_token": "address of the token contract for which fee should apply, 0x00..00 describes the initial fee for newly created tokens.",
          "_value": "bridged value, for which fee should be evaluated."
        },
        "return": "amount of fee to be subtracted from the transferred value."
      },
      "dailyLimit(address)": {
        "details": "Retrieves current daily limit for a particular token contract.",
        "params": {
          "_token": "address of the token contract."
        },
        "return": "daily limit on tokens that can be sent through the bridge per day."
      },
      "executionDailyLimit(address)": {
        "details": "Retrieves current execution daily limit for a particular token contract.",
        "params": {
          "_token": "address of the token contract."
        },
        "return": "daily limit on tokens that can be received from the bridge on the other side per day."
      },
      "executionMaxPerTx(address)": {
        "details": "Retrieves current maximum execution amount of tokens per one transfer for a particular token contract.",
        "params": {
          "_token": "address of the token contract."
        },
        "return": "maximum amount on tokens that can received from the bridge on the other side in one transaction."
      },
      "getCurrentDay()": {
        "details": "Returns current day number.",
        "return": "day number."
      },
      "getFee(bytes32,address)": {
        "details": "Retrieves the value for the particular fee type.",
        "params": {
          "_feeType": "type of the updated fee, can be one of [HOME_TO_FOREIGN_FEE, FOREIGN_TO_HOME_FEE].",
          "_token": "address of the token contract for which fee should apply, 0x00..00 describes the initial fee for newly created tokens."
        },
        "return": "fee value associated with the requested fee type."
      },
      "getNextRewardAddress(address)": {
        "details": "Retrieves next reward address in the linked list, or F_ADDR if given address is the last one.",
        "params": {
          "_address": "address of some reward account."
        },
        "return": "address of the next reward receiver."
      },
      "isRewardAddress(address)": {
        "details": "Checks if specified address is included into the registered rewards receivers list.",
        "params": {
          "_addr": "address to verify."
        },
        "return": "true, if specified address is associated with one of the registered reward accounts."
      },
      "isTokenRegistered(address)": {
        "details": "Checks if specified token was already bridged at least once.",
        "params": {
          "_token": "address of the token contract."
        },
        "return": "true, if token address is address(0) or token was already bridged."
      },
      "maxAvailablePerTx(address)": {
        "details": "Retrieves maximum available bridge amount per one transaction taking into account maxPerTx() and dailyLimit() parameters.",
        "params": {
          "_token": "address of the token contract, or address(0) for the default limit."
        },
        "return": "minimum of maxPerTx parameter and remaining daily quota."
      },
      "maxPerTx(address)": {
        "details": "Retrieves current maximum amount of tokens per one transfer for a particular token contract.",
        "params": {
          "_token": "address of the token contract."
        },
        "return": "maximum amount on tokens that can be sent through the bridge in one transfer."
      },
      "minPerTx(address)": {
        "details": "Retrieves current minimum amount of tokens per one transfer for a particular token contract.",
        "params": {
          "_token": "address of the token contract."
        },
        "return": "minimum amount on tokens that can be sent through the bridge in one transfer."
      },
      "owner()": {
        "details": "Tells the address of the owner",
        "return": "the address of the owner"
      },
      "removeRewardAddress(address)": {
        "details": "Removes a reward address from the rewards list. Only the owner can call this method.",
        "params": {
          "_addr": "old reward account, that should be removed."
        }
      },
      "rewardAddressCount()": {
        "details": "Retrieves amount of registered reward accounts.",
        "return": "length of reward addresses list."
      },
      "rewardAddressList()": {
        "details": "Retrieves all registered reward accounts.",
        "return": "address list of the registered reward receivers."
      },
      "setDailyLimit(address,uint256)": {
        "details": "Updates daily limit for the particular token. Only owner can call this method.",
        "params": {
          "_dailyLimit": "daily allowed amount of bridged tokens, should be greater than maxPerTx. 0 value is also allowed, will stop the bridge operations in outgoing direction.",
          "_token": "address of the token contract, or address(0) for configuring the efault limit."
        }
      },
      "setExecutionDailyLimit(address,uint256)": {
        "details": "Updates execution daily limit for the particular token. Only owner can call this method.",
        "params": {
          "_dailyLimit": "daily allowed amount of executed tokens, should be greater than executionMaxPerTx. 0 value is also allowed, will stop the bridge operations in incoming direction.",
          "_token": "address of the token contract, or address(0) for configuring the default limit."
        }
      },
      "setExecutionMaxPerTx(address,uint256)": {
        "details": "Updates execution maximum per transaction for the particular token. Only owner can call this method.",
        "params": {
          "_maxPerTx": "maximum amount of executed tokens per one transaction, should be less than executionDailyLimit. 0 value is also allowed, will stop the bridge operations in incoming direction.",
          "_token": "address of the token contract, or address(0) for configuring the default limit."
        }
      },
      "setFee(bytes32,address,uint256)": {
        "details": "Updates the value for the particular fee type. Only the owner can call this method.",
        "params": {
          "_fee": "new fee value, in percentage (1 ether == 10**18 == 100%).",
          "_feeType": "type of the updated fee, can be one of [HOME_TO_FOREIGN_FEE, FOREIGN_TO_HOME_FEE].",
          "_token": "address of the token contract for which fee should apply, 0x00..00 describes the initial fee for newly created tokens."
        }
      },
      "setMaxPerTx(address,uint256)": {
        "details": "Updates maximum per transaction for the particular token. Only owner can call this method.",
        "params": {
          "_maxPerTx": "maximum amount of tokens per one transaction, should be less than dailyLimit, greater than minPerTx. 0 value is also allowed, will stop the bridge operations in outgoing direction.",
          "_token": "address of the token contract, or address(0) for configuring the default limit."
        }
      },
      "setMinPerTx(address,uint256)": {
        "details": "Updates minumum per transaction for the particular token. Only owner can call this method.",
        "params": {
          "_minPerTx": "minumum amount of tokens per one transaction, should be less than maxPerTx and dailyLimit.",
          "_token": "address of the token contract, or address(0) for configuring the default limit."
        }
      },
      "totalExecutedPerDay(address,uint256)": {
        "details": "Retrieves the total executed amount for particular token during specific day.",
        "params": {
          "_day": "day number for which spent amount if requested.",
          "_token": "address of the token contract."
        },
        "return": "amount of tokens received from the bridge from the other side."
      },
      "totalSpentPerDay(address,uint256)": {
        "details": "Retrieves the total spent amount for particular token during specific day.",
        "params": {
          "_day": "day number for which spent amount if requested.",
          "_token": "address of the token contract."
        },
        "return": "amount of tokens sent through the bridge to the other side."
      },
      "transferOwnership(address)": {
        "details": "Allows the current owner to transfer control of the contract to a newOwner.",
        "params": {
          "newOwner": "the address to transfer ownership to."
        }
      },
      "withinExecutionLimit(address,uint256)": {
        "details": "Checks that bridged amount of tokens conforms to the configured execution limits.",
        "params": {
          "_amount": "amount of bridge tokens.",
          "_token": "address of the token contract."
        },
        "return": "true, if specified amount can be processed and executed."
      },
      "withinLimit(address,uint256)": {
        "details": "Checks that bridged amount of tokens conforms to the configured limits.",
        "params": {
          "_amount": "amount of bridge tokens.",
          "_token": "address of the token contract."
        },
        "return": "true, if specified amount can be bridged."
      }
    },
    "title": "HomeFeeManagerMultiAMBErc20ToErc677"
  },
  "userdoc": {
    "methods": {}
  }
}