{
  "contractName": "HomeAMB",
  "abi": [
    {
      "constant": true,
      "inputs": [],
      "name": "transactionHash",
      "outputs": [
        {
          "name": "",
          "type": "bytes32"
        }
      ],
      "payable": false,
      "stateMutability": "view",
      "type": "function"
    },
    {
      "constant": true,
      "inputs": [
        {
          "name": "_message",
          "type": "bytes32"
        }
      ],
      "name": "numMessagesSigned",
      "outputs": [
        {
          "name": "",
          "type": "uint256"
        }
      ],
      "payable": false,
      "stateMutability": "view",
      "type": "function"
    },
    {
      "constant": true,
      "inputs": [],
      "name": "sourceChainId",
      "outputs": [
        {
          "name": "",
          "type": "uint256"
        }
      ],
      "payable": false,
      "stateMutability": "view",
      "type": "function"
    },
    {
      "constant": false,
      "inputs": [
        {
          "name": "_contract",
          "type": "address"
        },
        {
          "name": "_data",
          "type": "bytes"
        },
        {
          "name": "_gas",
          "type": "uint256"
        },
        {
          "name": "_dataType",
          "type": "uint256"
        }
      ],
      "name": "_sendMessage",
      "outputs": [
        {
          "name": "",
          "type": "bytes32"
        }
      ],
      "payable": false,
      "stateMutability": "nonpayable",
      "type": "function"
    },
    {
      "constant": true,
      "inputs": [
        {
          "name": "_hash",
          "type": "bytes32"
        },
        {
          "name": "_index",
          "type": "uint256"
        }
      ],
      "name": "signature",
      "outputs": [
        {
          "name": "",
          "type": "bytes"
        }
      ],
      "payable": false,
      "stateMutability": "view",
      "type": "function"
    },
    {
      "constant": false,
      "inputs": [
        {
          "name": "_sourceChainId",
          "type": "uint256"
        },
        {
          "name": "_destinationChainId",
          "type": "uint256"
        },
        {
          "name": "_validatorContract",
          "type": "address"
        },
        {
          "name": "_maxGasPerTx",
          "type": "uint256"
        },
        {
          "name": "_gasPrice",
          "type": "uint256"
        },
        {
          "name": "_requiredBlockConfirmations",
          "type": "uint256"
        },
        {
          "name": "_owner",
          "type": "address"
        }
      ],
      "name": "initialize",
      "outputs": [
        {
          "name": "",
          "type": "bool"
        }
      ],
      "payable": false,
      "stateMutability": "nonpayable",
      "type": "function"
    },
    {
      "constant": true,
      "inputs": [],
      "name": "isInitialized",
      "outputs": [
        {
          "name": "",
          "type": "bool"
        }
      ],
      "payable": false,
      "stateMutability": "view",
      "type": "function"
    },
    {
      "constant": true,
      "inputs": [],
      "name": "requiredBlockConfirmations",
      "outputs": [
        {
          "name": "",
          "type": "uint256"
        }
      ],
      "payable": false,
      "stateMutability": "view",
      "type": "function"
    },
    {
      "constant": true,
      "inputs": [
        {
          "name": "_data",
          "type": "bytes"
        }
      ],
      "name": "getMinimumGasUsage",
      "outputs": [
        {
          "name": "gas",
          "type": "uint256"
        }
      ],
      "payable": false,
      "stateMutability": "pure",
      "type": "function"
    },
    {
      "constant": true,
      "inputs": [
        {
          "name": "_messageId",
          "type": "bytes32"
        }
      ],
      "name": "failedMessageReceiver",
      "outputs": [
        {
          "name": "",
          "type": "address"
        }
      ],
      "payable": false,
      "stateMutability": "view",
      "type": "function"
    },
    {
      "constant": true,
      "inputs": [],
      "name": "getBridgeMode",
      "outputs": [
        {
          "name": "_data",
          "type": "bytes4"
        }
      ],
      "payable": false,
      "stateMutability": "pure",
      "type": "function"
    },
    {
      "constant": false,
      "inputs": [
        {
          "name": "_sourceChainId",
          "type": "uint256"
        },
        {
          "name": "_destinationChainId",
          "type": "uint256"
        }
      ],
      "name": "setChainIds",
      "outputs": [],
      "payable": false,
      "stateMutability": "nonpayable",
      "type": "function"
    },
    {
      "constant": true,
      "inputs": [
        {
          "name": "_hash",
          "type": "bytes32"
        }
      ],
      "name": "message",
      "outputs": [
        {
          "name": "",
          "type": "bytes"
        }
      ],
      "payable": false,
      "stateMutability": "view",
      "type": "function"
    },
    {
      "constant": true,
      "inputs": [
        {
          "name": "_messageId",
          "type": "bytes32"
        }
      ],
      "name": "failedMessageSender",
      "outputs": [
        {
          "name": "",
          "type": "address"
        }
      ],
      "payable": false,
      "stateMutability": "view",
      "type": "function"
    },
    {
      "constant": false,
      "inputs": [
        {
          "name": "signature",
          "type": "bytes"
        },
        {
          "name": "message",
          "type": "bytes"
        }
      ],
      "name": "submitSignature",
      "outputs": [],
      "payable": false,
      "stateMutability": "nonpayable",
      "type": "function"
    },
    {
      "constant": true,
      "inputs": [],
      "name": "messageId",
      "outputs": [
        {
          "name": "",
          "type": "bytes32"
        }
      ],
      "payable": false,
      "stateMutability": "view",
      "type": "function"
    },
    {
      "constant": true,
      "inputs": [
        {
          "name": "_hash",
          "type": "bytes32"
        }
      ],
      "name": "numAffirmationsSigned",
      "outputs": [
        {
          "name": "",
          "type": "uint256"
        }
      ],
      "payable": false,
      "stateMutability": "view",
      "type": "function"
    },
    {
      "constant": true,
      "inputs": [
        {
          "name": "_hash",
          "type": "bytes32"
        }
      ],
      "name": "affirmationsSigned",
      "outputs": [
        {
          "name": "",
          "type": "bool"
        }
      ],
      "payable": false,
      "stateMutability": "view",
      "type": "function"
    },
    {
      "constant": false,
      "inputs": [
        {
          "name": "_maxGasPerTx",
          "type": "uint256"
        }
      ],
      "name": "setMaxGasPerTx",
      "outputs": [],
      "payable": false,
      "stateMutability": "nonpayable",
      "type": "function"
    },
    {
      "constant": true,
      "inputs": [],
      "name": "requiredSignatures",
      "outputs": [
        {
          "name": "",
          "type": "uint256"
        }
      ],
      "payable": false,
      "stateMutability": "view",
      "type": "function"
    },
    {
      "constant": true,
      "inputs": [],
      "name": "owner",
      "outputs": [
        {
          "name": "",
          "type": "address"
        }
      ],
      "payable": false,
      "stateMutability": "view",
      "type": "function"
    },
    {
      "constant": true,
      "inputs": [
        {
          "name": "_message",
          "type": "bytes32"
        }
      ],
      "name": "messagesSigned",
      "outputs": [
        {
          "name": "",
          "type": "bool"
        }
      ],
      "payable": false,
      "stateMutability": "view",
      "type": "function"
    },
    {
      "constant": false,
      "inputs": [
        {
          "name": "_contract",
          "type": "address"
        },
        {
          "name": "_data",
          "type": "bytes"
        },
        {
          "name": "_gas",
          "type": "uint256"
        }
      ],
      "name": "requireToConfirmMessage",
      "outputs": [
        {
          "name": "",
          "type": "bytes32"
        }
      ],
      "payable": false,
      "stateMutability": "nonpayable",
      "type": "function"
    },
    {
      "constant": true,
      "inputs": [],
      "name": "validatorContract",
      "outputs": [
        {
          "name": "",
          "type": "address"
        }
      ],
      "payable": false,
      "stateMutability": "view",
      "type": "function"
    },
    {
      "constant": true,
      "inputs": [],
      "name": "deployedAtBlock",
      "outputs": [
        {
          "name": "",
          "type": "uint256"
        }
      ],
      "payable": false,
      "stateMutability": "view",
      "type": "function"
    },
    {
      "constant": true,
      "inputs": [],
      "name": "getBridgeInterfacesVersion",
      "outputs": [
        {
          "name": "major",
          "type": "uint64"
        },
        {
          "name": "minor",
          "type": "uint64"
        },
        {
          "name": "patch",
          "type": "uint64"
        }
      ],
      "payable": false,
      "stateMutability": "pure",
      "type": "function"
    },
    {
      "constant": true,
      "inputs": [],
      "name": "messageSourceChainId",
      "outputs": [
        {
          "name": "",
          "type": "uint256"
        }
      ],
      "payable": false,
      "stateMutability": "view",
      "type": "function"
    },
    {
      "constant": false,
      "inputs": [
        {
          "name": "_blockConfirmations",
          "type": "uint256"
        }
      ],
      "name": "setRequiredBlockConfirmations",
      "outputs": [],
      "payable": false,
      "stateMutability": "nonpayable",
      "type": "function"
    },
    {
      "constant": true,
      "inputs": [],
      "name": "destinationChainId",
      "outputs": [
        {
          "name": "",
          "type": "uint256"
        }
      ],
      "payable": false,
      "stateMutability": "view",
      "type": "function"
    },
    {
      "constant": false,
      "inputs": [
        {
          "name": "_gasPrice",
          "type": "uint256"
        }
      ],
      "name": "setGasPrice",
      "outputs": [],
      "payable": false,
      "stateMutability": "nonpayable",
      "type": "function"
    },
    {
      "constant": true,
      "inputs": [
        {
          "name": "_messageId",
          "type": "bytes32"
        }
      ],
      "name": "messageCallStatus",
      "outputs": [
        {
          "name": "",
          "type": "bool"
        }
      ],
      "payable": false,
      "stateMutability": "view",
      "type": "function"
    },
    {
      "constant": true,
      "inputs": [],
      "name": "messageSender",
      "outputs": [
        {
          "name": "",
          "type": "address"
        }
      ],
      "payable": false,
      "stateMutability": "view",
      "type": "function"
    },
    {
      "constant": true,
      "inputs": [],
      "name": "decimalShift",
      "outputs": [
        {
          "name": "",
          "type": "int256"
        }
      ],
      "payable": false,
      "stateMutability": "view",
      "type": "function"
    },
    {
      "constant": false,
      "inputs": [
        {
          "name": "_contract",
          "type": "address"
        },
        {
          "name": "_data",
          "type": "bytes"
        },
        {
          "name": "_gas",
          "type": "uint256"
        }
      ],
      "name": "requireToPassMessage",
      "outputs": [
        {
          "name": "",
          "type": "bytes32"
        }
      ],
      "payable": false,
      "stateMutability": "nonpayable",
      "type": "function"
    },
    {
      "constant": true,
      "inputs": [
        {
          "name": "_messageId",
          "type": "bytes32"
        }
      ],
      "name": "failedMessageDataHash",
      "outputs": [
        {
          "name": "",
          "type": "bytes32"
        }
      ],
      "payable": false,
      "stateMutability": "view",
      "type": "function"
    },
    {
      "constant": true,
      "inputs": [],
      "name": "maxGasPerTx",
      "outputs": [
        {
          "name": "",
          "type": "uint256"
        }
      ],
      "payable": false,
      "stateMutability": "view",
      "type": "function"
    },
    {
      "constant": false,
      "inputs": [
        {
          "name": "message",
          "type": "bytes"
        }
      ],
      "name": "executeAffirmation",
      "outputs": [],
      "payable": false,
      "stateMutability": "nonpayable",
      "type": "function"
    },
    {
      "constant": false,
      "inputs": [
        {
          "name": "newOwner",
          "type": "address"
        }
      ],
      "name": "transferOwnership",
      "outputs": [],
      "payable": false,
      "stateMutability": "nonpayable",
      "type": "function"
    },
    {
      "constant": true,
      "inputs": [],
      "name": "gasPrice",
      "outputs": [
        {
          "name": "",
          "type": "uint256"
        }
      ],
      "payable": false,
      "stateMutability": "view",
      "type": "function"
    },
    {
      "constant": true,
      "inputs": [
        {
          "name": "_number",
          "type": "uint256"
        }
      ],
      "name": "isAlreadyProcessed",
      "outputs": [
        {
          "name": "",
          "type": "bool"
        }
      ],
      "payable": false,
      "stateMutability": "pure",
      "type": "function"
    },
    {
      "anonymous": false,
      "inputs": [
        {
          "indexed": true,
          "name": "messageId",
          "type": "bytes32"
        },
        {
          "indexed": false,
          "name": "encodedData",
          "type": "bytes"
        }
      ],
      "name": "UserRequestForSignature",
      "type": "event"
    },
    {
      "anonymous": false,
      "inputs": [
        {
          "indexed": true,
          "name": "sender",
          "type": "address"
        },
        {
          "indexed": true,
          "name": "executor",
          "type": "address"
        },
        {
          "indexed": true,
          "name": "messageId",
          "type": "bytes32"
        },
        {
          "indexed": false,
          "name": "status",
          "type": "bool"
        }
      ],
      "name": "AffirmationCompleted",
      "type": "event"
    },
    {
      "anonymous": false,
      "inputs": [
        {
          "indexed": true,
          "name": "signer",
          "type": "address"
        },
        {
          "indexed": false,
          "name": "messageHash",
          "type": "bytes32"
        }
      ],
      "name": "SignedForUserRequest",
      "type": "event"
    },
    {
      "anonymous": false,
      "inputs": [
        {
          "indexed": true,
          "name": "signer",
          "type": "address"
        },
        {
          "indexed": false,
          "name": "messageHash",
          "type": "bytes32"
        }
      ],
      "name": "SignedForAffirmation",
      "type": "event"
    },
    {
      "anonymous": false,
      "inputs": [
        {
          "indexed": false,
          "name": "authorityResponsibleForRelay",
          "type": "address"
        },
        {
          "indexed": false,
          "name": "messageHash",
          "type": "bytes32"
        },
        {
          "indexed": false,
          "name": "NumberOfCollectedSignatures",
          "type": "uint256"
        }
      ],
      "name": "CollectedSignatures",
      "type": "event"
    },
    {
      "anonymous": false,
      "inputs": [
        {
          "indexed": false,
          "name": "gasPrice",
          "type": "uint256"
        }
      ],
      "name": "GasPriceChanged",
      "type": "event"
    },
    {
      "anonymous": false,
      "inputs": [
        {
          "indexed": false,
          "name": "requiredBlockConfirmations",
          "type": "uint256"
        }
      ],
      "name": "RequiredBlockConfirmationChanged",
      "type": "event"
    },
    {
      "anonymous": false,
      "inputs": [
        {
          "indexed": false,
          "name": "previousOwner",
          "type": "address"
        },
        {
          "indexed": false,
          "name": "newOwner",
          "type": "address"
        }
      ],
      "name": "OwnershipTransferred",
      "type": "event"
    }
  ],
  "bytecode": "0x608060405234801561001057600080fd5b50613867806100206000396000f3006080604052600436106101d45763ffffffff60e060020a6000350416630ac1c31381146101d95780630cbf0601146102005780631544298e14610218578063163cef351461022d5780631812d9961461029d57806325fbf4ee1461032d578063392e53cd1461037a5780633f0a9f651461038f5780633f768c06146103a45780633f9a8e7e146103fd578063437764df14610431578063467ad35a14610478578063490a32c6146104955780634a610b04146104ad578063630cea8e146104c5578063669f618b146104f15780636ae1a976146105065780637698da241461051e5780637bac29c7146105365780638d0680431461054e5780638da5cb5b146105635780638f4b4b981461057857806394643f711461059057806399439089146105c05780639a454b99146105d55780639cb7595a146105ea5780639e307dff1461062b578063acf5c68914610640578063b075061114610658578063bf1fe4201461066d578063cb08a10c14610685578063d67bdd251461069d578063dae5f0fd146106b2578063dc8601b3146106c7578063e37c328914610730578063e5789d0314610748578063e7a2c01f1461075d578063f2fde38b1461077d578063fe173b971461079e578063ffd19e8c146107b3575b600080fd5b3480156101e557600080fd5b506101ee6107cb565b60408051918252519081900360200190f35b34801561020c57600080fd5b506101ee6004356107db565b34801561022457600080fd5b506101ee6108a0565b34801561023957600080fd5b5060408051602060046024803582810135601f81018590048502860185019096528585526101ee958335600160a060020a03169536956044949193909101919081908401838280828437509497505084359550505060209092013591506108ee9050565b3480156102a957600080fd5b506102b8600435602435610a21565b6040805160208082528351818301528351919283929083019185019080838360005b838110156102f25781810151838201526020016102da565b50505050905090810190601f16801561031f5780820380516001836020036101000a031916815260200191505b509250505060405180910390f35b34801561033957600080fd5b50610366600435602435600160a060020a03604435811690606435906084359060a4359060c43516610bfe565b604080519115158252519081900360200190f35b34801561038657600080fd5b50610366610e72565b34801561039b57600080fd5b506101ee610ec3565b3480156103b057600080fd5b506040805160206004803580820135601f81018490048402850184019095528484526101ee943694929360249392840191908190840183828082843750949750610f119650505050505050565b34801561040957600080fd5b50610415600435610f2d565b60408051600160a060020a039092168252519081900360200190f35b34801561043d57600080fd5b50610446610ffc565b604080517bffffffffffffffffffffffffffffffffffffffffffffffffffffffff199092168252519081900360200190f35b34801561048457600080fd5b50610493600435602435611020565b005b3480156104a157600080fd5b506102b860043561104a565b3480156104b957600080fd5b50610415600435611055565b3480156104d157600080fd5b5061049360246004803582810192908201359181359182019101356110d9565b3480156104fd57600080fd5b506101ee611505565b34801561051257600080fd5b506101ee600435611553565b34801561052a57600080fd5b506103666004356115d6565b34801561054257600080fd5b5061049360043561169f565b34801561055a57600080fd5b506101ee611708565b34801561056f57600080fd5b50610415611780565b34801561058457600080fd5b506103666004356117d7565b34801561059c57600080fd5b506101ee60048035600160a060020a0316906024803590810191013560443561185b565b3480156105cc57600080fd5b506104156118a5565b3480156105e157600080fd5b506101ee6118fc565b3480156105f657600080fd5b506105ff61194a565b6040805167ffffffffffffffff9485168152928416602084015292168183015290519081900360600190f35b34801561063757600080fd5b506101ee611955565b34801561064c57600080fd5b506104936004356119a3565b34801561066457600080fd5b506101ee6119cb565b34801561067957600080fd5b50610493600435611a19565b34801561069157600080fd5b50610366600435611a3e565b3480156106a957600080fd5b50610415611ac2565b3480156106be57600080fd5b506101ee611b19565b3480156106d357600080fd5b5060408051602060046024803582810135601f81018590048502860185019096528585526101ee958335600160a060020a03169536956044949193909101919081908401838280828437509497505093359450611b679350505050565b34801561073c57600080fd5b506101ee600435611b7e565b34801561075457600080fd5b506101ee611c01565b34801561076957600080fd5b506104936004803560248101910135611c4f565b34801561078957600080fd5b50610493600160a060020a0360043516611edb565b3480156107aa57600080fd5b506101ee611f00565b3480156107bf57600080fd5b50610366600435611f4e565b60006107d5611505565b90505b90565b60008060008360405160200180807f6e756d4d657373616765735369676e656400000000000000000000000000000081525060110182600019166000191681526020019150506040516020818303038152906040526040518082805190602001908083835b6020831061085f5780518252601f199092019160209182019101610840565b51815160209384036101000a600019018019909216911617905260408051929094018290039091208652850195909552929092016000205495945050505050565b7f67d6f42a1ed69c62022f2d160ddc6f2f0acd37ad1db0c24f4702d7d3343a4add60009081526020527ff6c66672b1a9fe5622677597b0da8fd180a2c85696efbcf7fe4b1e0f4f0f61085490565b600080606080826108fd611505565b1461090757600080fd5b61091087610f11565b86101580156109265750610922611c01565b8611155b151561093157600080fd5b61093c888787611f76565b9150610951610949612112565b600101612160565b6020820151925081876040516020018083805190602001908083835b6020831061098c5780518252601f19909201916020918201910161096d565b51815160209384036101000a600019018019909216911617905285519190930192850191508083835b602083106109d45780518252601f1990920191602091820191016109b5565b6001836020036101000a038019825116818451168082178552505050505050905001925050506040516020818303038152906040529050610a1583826121b7565b50909695505050505050565b604080516020808201859052818301849052825180830384018152606092830193849052805192936000939192909182918401908083835b60208310610a785780518252601f199092019160209182019101610a59565b51815160209384036101000a6000190180199092169116179052604080519290940182900382207f7369676e6174757265730000000000000000000000000000000000000000000083830152602a80840182905285518085039091018152604a9093019485905282519097506003965060009550919392508291908401908083835b60208310610b195780518252601f199092019160209182019101610afa565b6001836020036101000a0380198251168184511680821785525050505050509050019150506040518091039020600019166000191681526020019081526020016000208054600181600116156101000203166002900480601f016020809104026020016040519081016040528092919081815260200182805460018160011615610100020316600290048015610bf05780601f10610bc557610100808354040283529160200191610bf0565b820191906000526020600020905b815481529060010190602001808311610bd357829003601f168201915b505050505091505092915050565b60408051600481526024810182526020810180517bffffffffffffffffffffffffffffffffffffffffffffffffffffffff167f6fde8202000000000000000000000000000000000000000000000000000000001781529151815160009330939291829190808383895b83811015610c7f578181015183820152602001610c67565b50505050905090810190601f168015610cac5780820380516001836020036101000a031916815260200191505b509150506000604051808303816000865af19150501580610d3e575030600160a060020a0316636fde82026040518163ffffffff1660e060020a028152600401602060405180830381600087803b158015610d0657600080fd5b505af1158015610d1a573d6000803e3d6000fd5b505050506040513d6020811015610d3057600080fd5b5051600160a060020a031633145b80610d4857503330145b1515610d5357600080fd5b610d5b610e72565b15610d6557600080fd5b610d6e86612254565b1515610d7957600080fd5b610d83888861225c565b7fab54f3fbbe62c59b7876a9bf9bd5e0c22dbae93f4d8ee0438f7ce62b198eb0e0805473ffffffffffffffffffffffffffffffffffffffff1916600160a060020a03881617905560006020819052437fe66bef0282a446f9848e2903380099bb6e431483ee78778868f33b4a154c818b557f2670ecc91ec356e32067fd27b36614132d727b84a1e03e08f412a4f2cf07597490527f3d7fe2ee9790702383ef0118b516833ef2542132d3ca4ac6c77f62f1230fa610859055610e44846123ac565b610e4d83612432565b610e56826124c5565b610e5e61259c565b610e66610e72565b98975050505050505050565b7f0a6f646cd611241d8073675e00d1a1ff700fbf1b53fcf473de56d1e6e4b714ba60005260046020527f078d888f9b66f3f8bfa10909e31f1e16240db73449f0500afdbbe3a70da457cc5460ff1690565b7f916daedf6915000ff68ced2f0b6773fe6f2582237f92c3c95bb4d7940723007160009081526020527fd2ea0feb732edb0ffe32efd33a6b9d24d46b16eb34a4d07ce256537b6f131e425490565b8051600090610f2790601063ffffffff6125f316565b92915050565b6000600260008360405160200180807f6661696c65644d6573736167655265636569766572000000000000000000000081525060150182600019166000191681526020019150506040516020818303038152906040526040518082805190602001908083835b60208310610fb25780518252601f199092019160209182019101610f93565b51815160209384036101000a6000190180199092169116179052604080519290940182900390912086528501959095529290920160002054600160a060020a031695945050505050565b7f2544fbb90000000000000000000000000000000000000000000000000000000090565b611028611780565b600160a060020a0316331461103c57600080fd5b611046828261225c565b5050565b6060610f278261261c565b6000600260008360405160200180807f6661696c65644d65737361676553656e64657200000000000000000000000000815250601301826000191660001916815260200191505060405160208183030381529060405260405180828051906020019080838360208310610fb25780518252601f199092019160209182019101610f93565b60008060008060006110e96118a5565b600160a060020a031663facd743b336040518263ffffffff1660e060020a0281526004018082600160a060020a0316600160a060020a03168152602001915050602060405180830381600087803b15801561114357600080fd5b505af1158015611157573d6000803e3d6000fd5b505050506040513d602081101561116d57600080fd5b5051151561117a57600080fd5b6111e489898080601f0160208091040260200160405190810160405280939291908181526020018383808284375050604080516020601f8f018190048102820181019092528d815294508d93508c9250829150840183828082843750600194506127849350505050565b600160a060020a031633146111f857600080fd5b8686604051602001808383808284378201915050925050506040516020818303038152906040526040518082805190602001908083835b6020831061124e5780518252601f19909201916020918201910161122f565b51815160209384036101000a600019018019909216911617905260408051929094018290038220336c0100000000000000000000000002838301526034808401829052855180850390910181526054909301948590528251909b509195509293508392850191508083835b602083106112d85780518252601f1990920191602091820191016112b9565b6001836020036101000a03801982511681845116808217855250505050505090500191505060405180910390209350611310856107db565b925061131b83611f4e565b1561132557600080fd5b60019283019283111561134a5761133b846117d7565b1561134557600080fd5b611384565b6113848588888080601f01602080910402602001604051908101604052809392919081815260200183838082843750612883945050505050565b61138f84600161295a565b846113a184600163ffffffff612a2c16565b604080516020808201949094528082019290925280518083038201815260609092019081905281519192909182918401908083835b602083106113f55780518252601f1990920191602091820191016113d6565b51815160209384036101000a600019018019909216911617905260408051929094018290038220601f8f018290048202830182019094528d82529296506114569450869350918d91508c908190840183828082843750612a3e945050505050565b6114608584612ac1565b60408051868152905133917fbf06885f40778f5ccfb64497d3f92ce568ddaedb7e2fb4487f72690418cf8e4c919081900360200190a261149e611708565b90508083106114fa576114b9856114b485612b86565b612ac1565b604080513381526020810187905280820183905290517f415557404d88a0c0b8e3b16967cafffc511213fd9c465c16832ee17ed57d72379181900360600190a15b505050505050505050565b7fe34bb2103dc34f2c144cc216c132d6ffb55dac57575c22e089161bbe6508330460009081526020527f9f204e482014519ec310a8e752d4b19f9e9c5b073985c5f7fe150987771c9f0f5490565b60008060008360405160200180807f6e756d41666669726d6174696f6e735369676e6564000000000000000000000081525060150182600019166000191681526020019150506040516020818303038152906040526040518082805190602001908083836020831061085f5780518252601f199092019160209182019101610840565b6000600460008360405160200180807f61666669726d6174696f6e735369676e6564000000000000000000000000000081525060120182600019166000191681526020019150506040516020818303038152906040526040518082805190602001908083835b6020831061165b5780518252601f19909201916020918201910161163c565b51815160209384036101000a600019018019909216911617905260408051929094018290039091208652850195909552929092016000205460ff1695945050505050565b6116a7611780565b600160a060020a031633146116bb57600080fd5b7f2670ecc91ec356e32067fd27b36614132d727b84a1e03e08f412a4f2cf07597460009081526020527f3d7fe2ee9790702383ef0118b516833ef2542132d3ca4ac6c77f62f1230fa61055565b60006117126118a5565b600160a060020a0316638d0680436040518163ffffffff1660e060020a028152600401602060405180830381600087803b15801561174f57600080fd5b505af1158015611763573d6000803e3d6000fd5b505050506040513d602081101561177957600080fd5b5051905090565b7f02016836a56b71f0d02689e69e326f4f4c1b9057164ef592671cf0d37c8040c060005260026020527fb7802e97e87ef2842a6cce7da7ffaeaedaa2f61a6a7870b23d9d01fc9b73712e54600160a060020a031690565b6000600460008360405160200180807f6d657373616765735369676e6564000000000000000000000000000000000000815250600e0182600019166000191681526020019150506040516020818303038152906040526040518082805190602001908083836020831061165b5780518252601f19909201916020918201910161163c565b600061189c8585858080601f0160208091040260200160405190810160405280939291908181526020018383808284378201915050505050508460f06108ee565b95945050505050565b7f5a74bb7e202fb8e4bf311841c7d64ec19df195fee77d7e7ae749b27921b6ddfe60005260026020527fab54f3fbbe62c59b7876a9bf9bd5e0c22dbae93f4d8ee0438f7ce62b198eb0e054600160a060020a031690565b7fb120ceec05576ad0c710bc6e85f1768535e27554458f05dcbb5c65b8c7a749b060009081526020527fe66bef0282a446f9848e2903380099bb6e431483ee78778868f33b4a154c818b5490565b600560046000909192565b7f7f0fcd9e49860f055dd0c1682d635d309ecb5e3011654c716d9eb59a7ddec7d260009081526020527f79cf5d7509b8972cfd9e9247b5a44821920518657d3bdf01549a471d922830235490565b6119ab611780565b600160a060020a031633146119bf57600080fd5b6119c881612432565b50565b7fbbd454018e72a3f6c02bbd785bacc49e46292744f3f6761276723823aa33232060009081526020527f242329173dfc316001df0a0c3d5a8f58a7ffb1a8b7d99c268303b9a741bacdf95490565b611a21611780565b600160a060020a03163314611a3557600080fd5b6119c8816123ac565b6000600460008360405160200180807f6d65737361676543616c6c53746174757300000000000000000000000000000081525060110182600019166000191681526020019150506040516020818303038152906040526040518082805190602001908083836020831061165b5780518252601f19909201916020918201910161163c565b7f7b58b2a669d8e0992eae9eaef641092c0f686fd31070e7236865557fa1571b5b60005260026020527f89d1797768793589e5608ebd54bdc3a99b59edcb38eb27eb2b8e05466743118c54600160a060020a031690565b7f1e8ecaafaddea96ed9ac6d2642dcdfe1bebe58a930b1085842d8fc122b371ee560009081526020527fd5c78dd9468716ca9bb96be25d56436811b20aab3523a9904b12deef1cab239d5490565b6000611b7684848460006108ee565b949350505050565b60008060008360405160200180807f6661696c65644d6573736167654461746148617368000000000000000000000081525060150182600019166000191681526020019150506040516020818303038152906040526040518082805190602001908083836020831061085f5780518252601f199092019160209182019101610840565b7f2670ecc91ec356e32067fd27b36614132d727b84a1e03e08f412a4f2cf07597460009081526020527f3d7fe2ee9790702383ef0118b516833ef2542132d3ca4ac6c77f62f1230fa6105490565b6000806000611c5c6118a5565b600160a060020a031663facd743b336040518263ffffffff1660e060020a0281526004018082600160a060020a0316600160a060020a03168152602001915050602060405180830381600087803b158015611cb657600080fd5b505af1158015611cca573d6000803e3d6000fd5b505050506040513d6020811015611ce057600080fd5b50511515611ced57600080fd5b8484604051602001808383808284378201915050925050506040516020818303038152906040526040518082805190602001908083835b60208310611d435780518252601f199092019160209182019101611d24565b51815160209384036101000a600019018019909216911617905260408051929094018290038220336c01000000000000000000000000028383015260348084018290528551808503909101815260549093019485905282519099509195509293508392850191508083835b60208310611dcd5780518252601f199092019160209182019101611dae565b6001836020036101000a03801982511681845116808217855250505050505090500191505060405180910390209150611e05826115d6565b15611e0f57600080fd5b611e1a826001612bab565b611e2383611553565b9050611e2e81611f4e565b15611e3857600080fd5b600101611e458382612c2e565b60408051848152905133917f5df9cc3eb93d8a9a481857a3b70a8ca966e6b80b25cf0ee2cce180ec5afa80a1919081900360200190a2611e83611708565b8110611ed457611e9b83611e9683612b86565b612c2e565b611ed485858080601f01602080910402602001604051908101604052809392919081815260200183838082843750612cb0945050505050565b5050505050565b611ee3611780565b600160a060020a03163314611ef757600080fd5b6119c8816124c5565b7f55b3774520b5993024893d303890baa4e84b1244a43c60034d1ced2d3cf2b04b60009081526020527ff7d5eefab3776d7f0450bd0193564bcb4f832ce313ff2836c450fc63a4b944195490565b7f80000000000000000000000000000000000000000000000000000000000000009081161490565b60606000806000806000806000611f8b6108a0565b9650611f95612d2f565b9550611f9f6119cb565b9450611fa9612d7d565b93507e050000000000000000000000000000000000000000000000000000000000009250611fd5612112565b6040805160208082018b90526c0100000000000000000000000030028284015282516034818403018152605490920192839052815167ffffffffffffffff949094169550909282918401908083835b602083106120435780518252601f199092019160209182019101612024565b6001836020036101000a03801982511681845116808217855250505050505090500191505060405180910390207bffffffffffffffffffffffffffffffffffffffff00000000000000006001021690508386604f01016040519080825280601f01601f1916602001820160405280156120c6578160200160208202803883390190505b50975087518801858152878582035289604f8a015284604e8a015286604d8a01528a604c8a01528b60488a01523360348a0152828217841760208a015250505050505050509392505050565b7f7ab1577440dd7bedf920cb6de2f9fc6bf7ba98c78c85a3fa1f8311aac95e175960009081526020527fa9b0f75b23e377b9b22d27feaca5d8a12329c0049ebce1dc695b905f3aa4cd005490565b7f7ab1577440dd7bedf920cb6de2f9fc6bf7ba98c78c85a3fa1f8311aac95e1759600090815260205267ffffffffffffffff167fa9b0f75b23e377b9b22d27feaca5d8a12329c0049ebce1dc695b905f3aa4cd0055565b604080516020808252835181830152835185937f520d2afde79cbd5db58755ac9480f81bc658e5c517fcae7365a3d832590b01839386939092839283019185019080838360005b838110156122165781810151838201526020016121fe565b50505050905090810190601f1680156122435780820380516001836020036101000a031916815260200191505b509250505060405180910390a25050565b6000903b1190565b6000806000806000861180156122725750600085115b151561227d57600080fd5b8585141561228a57600080fd5b506000925082915060ff905060015b8315806122a4575082155b156122ec57831580156122b8575085828716145b156122c1578093505b821580156122d0575084828616145b156122d9578092505b6101009190910260ff1790600101612299565b5050600060208190527ff6c66672b1a9fe5622677597b0da8fd180a2c85696efbcf7fe4b1e0f4f0f6108949094557f2f30286a16f86ee067618e1a246990e40c07b7749418a6dd3133f9cfb7e814cc919091557f242329173dfc316001df0a0c3d5a8f58a7ffb1a8b7d99c268303b9a741bacdf9919091557ffb792ae4ad11102b93f26a51b3749c2b3667f8b561566a4806d49896928115949091527f7b62b32ff48350e85ce95b571fde6f8b1096bc44a26db769ad6d0b3a26bf1c6d55565b7f55b3774520b5993024893d303890baa4e84b1244a43c60034d1ced2d3cf2b04b600090815260209081527ff7d5eefab3776d7f0450bd0193564bcb4f832ce313ff2836c450fc63a4b944198290556040805183815290517f52264b89e0fceafb26e79fd49ef8a366eb6297483bf4035b027f0c99a7ad512e929181900390910190a150565b6000811161243f57600080fd5b7f916daedf6915000ff68ced2f0b6773fe6f2582237f92c3c95bb4d79407230071600090815260209081527fd2ea0feb732edb0ffe32efd33a6b9d24d46b16eb34a4d07ce256537b6f131e428290556040805183815290517f4fb76205cd57c896b21511d2114137d8e901b4ccd659e1a0f97d6306795264fb929181900390910190a150565b600160a060020a03811615156124da57600080fd5b7f8be0079c531659141344cd1fd0a4f28419497f9722a3daafe3b4186f6b6457e0612503611780565b60408051600160a060020a03928316815291841660208301528051918290030190a17f02016836a56b71f0d02689e69e326f4f4c1b9057164ef592671cf0d37c8040c060005260026020527fb7802e97e87ef2842a6cce7da7ffaeaedaa2f61a6a7870b23d9d01fc9b73712e805473ffffffffffffffffffffffffffffffffffffffff1916600160a060020a0392909216919091179055565b7f0a6f646cd611241d8073675e00d1a1ff700fbf1b53fcf473de56d1e6e4b714ba60005260046020527f078d888f9b66f3f8bfa10909e31f1e16240db73449f0500afdbbe3a70da457cc805460ff19166001179055565b600082151561260457506000610f27565b5081810281838281151561261457fe5b0414610f2757fe5b6060600360008360405160200180807f6d6573736167657300000000000000000000000000000000000000000000000081525060080182600019166000191681526020019150506040516020818303038152906040526040518082805190602001908083835b602083106126a15780518252601f199092019160209182019101612682565b6001836020036101000a0380198251168184511680821785525050505050509050019150506040518091039020600019166000191681526020019081526020016000208054600181600116156101000203166002900480601f0160208091040260200160405190810160405280929190818152602001828054600181600116156101000203166002900480156127785780601f1061274d57610100808354040283529160200191612778565b820191906000526020600020905b81548152906001019060200180831161275b57829003601f168201915b50505050509050919050565b6000806000808651604114151561279a57600080fd5b505050602084015160408501516060860151601b60ff60f860020a83041614806127cd5750601c60ff60f860020a830416145b15156127d857600080fd5b7f7fffffffffffffffffffffffffffffff5d576e7357a4501ddfe92f46681b20a082111561280557600080fd5b60016128118787612dcb565b60408051600080825260208083018085529490945260ff60f860020a870416828401526060820188905260808201879052915160a08083019493601f198301938390039091019190865af115801561286d573d6000803e3d6000fd5b5050604051601f19015198975050505050505050565b80600360008460405160200180807f6d6573736167657300000000000000000000000000000000000000000000000081525060080182600019166000191681526020019150506040516020818303038152906040526040518082805190602001908083835b602083106129075780518252601f1990920191602091820191016128e8565b51815160001960209485036101000a01908116901991909116179052604080519490920184900390932086528583019690965250929093016000208451612955959194509201919050613788565b505050565b80600460008460405160200180807f6d657373616765735369676e6564000000000000000000000000000000000000815250600e0182600019166000191681526020019150506040516020818303038152906040526040518082805190602001908083835b602083106129de5780518252601f1990920191602091820191016129bf565b51815160209384036101000a60001901801990921691161790526040805192909401829003909120865285019590955292909201600020805460ff1916941515949094179093555050505050565b600082821115612a3857fe5b50900390565b80600360008460405160200180807f7369676e61747572657300000000000000000000000000000000000000000000815250600a018260001916600019168152602001915050604051602081830303815290604052604051808280519060200190808383602083106129075780518252601f1990920191602091820191016128e8565b806000808460405160200180807f6e756d4d657373616765735369676e656400000000000000000000000000000081525060110182600019166000191681526020019150506040516020818303038152906040526040518082805190602001908083835b60208310612b445780518252601f199092019160209182019101612b25565b51815160209384036101000a60001901801990921691161790526040805192909401829003909120865285019590955292909201600020939093555050505050565b7f80000000000000000000000000000000000000000000000000000000000000001790565b80600460008460405160200180807f61666669726d6174696f6e735369676e656400000000000000000000000000008152506012018260001916600019168152602001915050604051602081830303815290604052604051808280519060200190808383602083106129de5780518252601f1990920191602091820191016129bf565b806000808460405160200180807f6e756d41666669726d6174696f6e735369676e65640000000000000000000000815250601501826000191660001916815260200191505060405160208183030381529060405260405180828051906020019080838360208310612b445780518252601f199092019160209182019101612b25565b6000806000806000612cc0613806565b6060612ccb88612fe5565b959c50939a509198509650945092509050612ce5876130d3565b1515612cf057600080fd5b6020820151612cfe90613119565b1515612d0957600080fd5b612d2586868963ffffffff88168787600060200201518761312b565b5050505050505050565b7fe504ae1fd6471eea80f18b8532a61a9bb91fba4f5b837f80a1cfb6752350af4460009081526020527f2f30286a16f86ee067618e1a246990e40c07b7749418a6dd3133f9cfb7e814cc5490565b7ffb792ae4ad11102b93f26a51b3749c2b3667f8b561566a4806d498969281159460009081526020527f7b62b32ff48350e85ce95b571fde6f8b1096bc44a26db769ad6d0b3a26bf1c6d5490565b60408051808201909152601a81527f19457468657265756d205369676e6564204d6573736167653a0a000000000000602082015260009060608315612f715781612e158651613178565b866040516020018084805190602001908083835b60208310612e485780518252601f199092019160209182019101612e29565b51815160209384036101000a600019018019909216911617905286519190930192860191508083835b60208310612e905780518252601f199092019160209182019101612e71565b51815160209384036101000a600019018019909216911617905285519190930192850191508083835b60208310612ed85780518252601f199092019160209182019101612eb9565b6001836020036101000a03801982511681845116808217855250505050505090500193505050506040516020818303038152906040526040518082805190602001908083835b60208310612f3d5780518252601f199092019160209182019101612f1e565b6001836020036101000a03801982511681845116808217855250505050505090500191505060405180910390209250612fdd565b6040805190810160405280600381526020017f3130340000000000000000000000000000000000000000000000000000000000815250905081818660405160200180848051906020019080838360208310612e485780518252601f199092019160209182019101612e29565b505092915050565b6000806000806000612ff5613806565b6060600080604f915060208a01519850600160a060020a0360348b015116975060548a01518060601c975063ffffffff8160401c16965080601a1a9550600086111561304057600080fd5b8060181a6001808260031b1b03818501945080858e01511687528260191a91506001808360031b1b039050818501945080858e0151166020880152848d51039350505050806040519080825280601f01601f1916602001820160405280156130b2578160200160208202803883390190505b50925060248201915080826004350160208501375050919395979092949650565b7bffffffffffffffffffffffffffffffffffffffffffffffffffffffff1981167e0500000000000000000000000000000000000000000000000000000000000014919050565b60006131236108a0565b909114919050565b600061313b888884888a88613283565b90506131478682613362565b80151561316c5761315886836133e5565b61316286886134b2565b61316c86896135a0565b612d2588888884613623565b606060008082818515156131c15760408051808201909152600181527f30000000000000000000000000000000000000000000000000000000000000006020820152945061327a565b8593505b83156131dc57600190920191600a840493506131c5565b826040519080825280601f01601f19166020018201604052801561320a578160200160208202803883390190505b5091505060001982015b851561327657815160001982019160f860020a6030600a8a06010291849190811061323b57fe5b9060200101907effffffffffffffffffffffffffffffffffffffffffffffffffffffffffffff1916908160001a905350600a86049550613214565b8194505b50505050919050565b60008061328f88613671565b613298846136e8565b6132a183613735565b508460405a603f028115156132b257fe5b04116132bd57600080fd5b86600160a060020a0316858760405180828051906020019080838360005b838110156132f35781810151838201526020016132db565b50505050905090810190601f1680156133205780820380516001836020036101000a031916815260200191505b5091505060006040518083038160008787f19250505090506133426000613671565b61334c60006136e8565b6133566000613735565b50979650505050505050565b80600460008460405160200180807f6d65737361676543616c6c5374617475730000000000000000000000000000008152506011018260001916600019168152602001915050604051602081830303815290604052604051808280519060200190808383602083106129de5780518252601f1990920191602091820191016129bf565b806040518082805190602001908083835b602083106134155780518252601f1990920191602091820191016133f6565b51815160001960209485036101000a01908116901991909116179052604080519490920184900384207f6661696c65644d657373616765446174614861736800000000000000000000008583015260358086018a90528351808703909101815260559095019283905284519096506000955085949350829184019080838360208310612b445780518252601f199092019160209182019101612b25565b80600260008460405160200180807f6661696c65644d6573736167655265636569766572000000000000000000000081525060150182600019166000191681526020019150506040516020818303038152906040526040518082805190602001908083835b602083106135365780518252601f199092019160209182019101613517565b51815160209384036101000a60001901801990921691161790526040805192909401829003909120865285019590955292909201600020805473ffffffffffffffffffffffffffffffffffffffff1916600160a060020a0395909516949094179093555050505050565b80600260008460405160200180807f6661696c65644d65737361676553656e646572000000000000000000000000008152506013018260001916600019168152602001915050604051602081830303815290604052604051808280519060200190808383602083106135365780518252601f199092019160209182019101613517565b60408051821515815290518391600160a060020a0380871692908816917fe194ef610f9150a2db4110b3db5116fd623175dca3528d7ae7046a1042f84fe7919081900360200190a450505050565b7f7b58b2a669d8e0992eae9eaef641092c0f686fd31070e7236865557fa1571b5b60005260026020527f89d1797768793589e5608ebd54bdc3a99b59edcb38eb27eb2b8e05466743118c805473ffffffffffffffffffffffffffffffffffffffff1916600160a060020a0392909216919091179055565b7fe34bb2103dc34f2c144cc216c132d6ffb55dac57575c22e089161bbe6508330460009081526020527f9f204e482014519ec310a8e752d4b19f9e9c5b073985c5f7fe150987771c9f0f55565b7f7f0fcd9e49860f055dd0c1682d635d309ecb5e3011654c716d9eb59a7ddec7d2600090815260208190527f79cf5d7509b8972cfd9e9247b5a44821920518657d3bdf01549a471d922830239190915590565b828054600181600116156101000203166002900490600052602060002090601f016020900481019282601f106137c957805160ff19168380011785556137f6565b828001600101855582156137f6579182015b828111156137f65782518255916020019190600101906137db565b50613802929150613821565b5090565b60408051808201825290600290829080388339509192915050565b6107d891905b8082111561380257600081556001016138275600a165627a7a723058204dfd7dcef2bfb5a617ca2fc9c76c542d1ab2247b3814316055030e96946ab9640029",
  "source": "pragma solidity 0.4.24;\n\nimport \"./BasicHomeAMB.sol\";\n\ncontract HomeAMB is BasicHomeAMB {\n    event UserRequestForSignature(bytes32 indexed messageId, bytes encodedData);\n    event AffirmationCompleted(\n        address indexed sender,\n        address indexed executor,\n        bytes32 indexed messageId,\n        bool status\n    );\n\n    function emitEventOnMessageRequest(bytes32 messageId, bytes encodedData) internal {\n        emit UserRequestForSignature(messageId, encodedData);\n    }\n\n    function emitEventOnMessageProcessed(address sender, address executor, bytes32 messageId, bool status) internal {\n        emit AffirmationCompleted(sender, executor, messageId, status);\n    }\n}\n",
  "sourcePath": "/Users/max/Projects/Symblox/TokenBridge/tokenbridge/contracts/contracts/upgradeable_contracts/arbitrary_message/HomeAMB.sol",
  "compiler": {
    "name": "solc",
    "version": "0.4.24+commit.e67f0147.Emscripten.clang"
  },
  "schemaVersion": "3.1.0",
  "updatedAt": "2020-11-26T16:22:39.937Z",
  "devdoc": {
    "methods": {
      "_sendMessage(address,bytes,uint256,uint256)": {
        "details": "Initiates sending of an AMB message to the opposite network",
        "params": {
          "_contract": "executor address on the other side",
          "_data": "calldata passed to the executor on the other side",
          "_dataType": "AMB message dataType to be included as a part of the header",
          "_gas": "gas limit used on the other network for executing a message"
        }
      },
      "decimalShift()": {
        "details": "Returns the value of foreign-to-home decimal shift.",
        "return": "decimal shift."
      },
      "destinationChainId()": {
        "return": "chain id for the destination network"
      },
      "failedMessageDataHash(bytes32)": {
        "details": "Returns a data hash of the failed message that came from the other side. NOTE: dataHash was used previously to identify outgoing message before AMB message id was introduced. It is kept for backwards compatibility with old mediators contracts.",
        "params": {
          "_messageId": "id of the message from the other side that triggered a call."
        },
        "return": "keccak256 hash of message data."
      },
      "failedMessageReceiver(bytes32)": {
        "details": "Returns a receiver address of the failed message that came from the other side.",
        "params": {
          "_messageId": "id of the message from the other side that triggered a call."
        },
        "return": "receiver address."
      },
      "failedMessageSender(bytes32)": {
        "details": "Returns a sender address of the failed message that came from the other side.",
        "params": {
          "_messageId": "id of the message from the other side that triggered a call."
        },
        "return": "sender address on the other side."
      },
      "getBridgeInterfacesVersion()": {
        "return": "(major, minor, patch) version triple"
      },
      "getMinimumGasUsage(bytes)": {
        "details": "Returns a lower limit on gas limit for the particular message data",
        "params": {
          "_data": "calldata passed to the executor on the other side"
        }
      },
      "initialize(uint256,uint256,address,uint256,uint256,uint256,address)": {
        "params": {
          "_destinationChainId": "chain id of a network where all outgoing messages are directed",
          "_gasPrice": "default gas price used by oracles for sending transactions in this network",
          "_maxGasPerTx": "maximum amount of gas per one message execution",
          "_owner": "address of new bridge owner",
          "_requiredBlockConfirmations": "number of block confirmations oracle will wait before processing passed messages",
          "_sourceChainId": "chain id of a network where this contract is deployed",
          "_validatorContract": "address of the validators contract"
        }
      },
      "messageCallStatus(bytes32)": {
        "details": "Returns a status of the message that came from the other side.",
        "params": {
          "_messageId": "id of the message from the other side that triggered a call."
        },
        "return": "true if call executed successfully."
      },
      "messageId()": {
        "details": "Returns an id of the currently processed message.",
        "return": "id of the message that originated on the other side."
      },
      "messageSender()": {
        "details": "Returns an address of the sender on the other side for the currently processed message. Can be used by executors for getting other side caller address.",
        "return": "address of the sender on the other side."
      },
      "messageSourceChainId()": {
        "details": "Returns an originating chain id of the currently processed message.",
        "return": "source chain id of the message that originated on the other side."
      },
      "owner()": {
        "details": "Tells the address of the owner",
        "return": "the address of the owner"
      },
      "requireToConfirmMessage(address,bytes,uint256)": {
        "details": "Requests message relay to the opposite network, message is sent to the manual lane.",
        "params": {
          "_contract": "executor address on the other side.",
          "_data": "calldata passed to the executor on the other side.",
          "_gas": "gas limit used on the other network for executing a message."
        }
      },
      "requireToPassMessage(address,bytes,uint256)": {
        "details": "Requests message relay to the opposite network",
        "params": {
          "_contract": "executor address on the other side",
          "_data": "calldata passed to the executor on the other side",
          "_gas": "gas limit used on the other network for executing a message"
        }
      },
      "setChainIds(uint256,uint256)": {
        "params": {
          "_destinationChainId": "chain id for opposite network",
          "_sourceChainId": "chain id for current network"
        }
      },
      "setGasPrice(uint256)": {
        "details": "Public setter for fallback gas price value. Only bridge owner can call this method.",
        "params": {
          "_gasPrice": "new value for the gas price."
        }
      },
      "sourceChainId()": {
        "return": "chain id for the current network"
      },
      "transactionHash()": {
        "details": "Returns an id of the currently processed message. NOTE: transactionHash was used previously to identify incoming message before AMB message id was introduced. It is kept for backwards compatibility with old mediators contracts, although it doesn't return txHash anymore.",
        "return": "id of the message that originated on the other side."
      },
      "transferOwnership(address)": {
        "details": "Allows the current owner to transfer control of the contract to a newOwner.",
        "params": {
          "newOwner": "the address to transfer ownership to."
        }
      }
    }
  },
  "userdoc": {
    "methods": {
      "destinationChainId()": {
        "notice": "Internal function for retrieving chain id for the destination network"
      },
      "getBridgeInterfacesVersion()": {
        "notice": "Returns currently used bridge version"
      },
      "initialize(uint256,uint256,address,uint256,uint256,uint256,address)": {
        "notice": "Initializes AMB contract"
      },
      "setChainIds(uint256,uint256)": {
        "notice": "Updates chain ids of used networks"
      },
      "sourceChainId()": {
        "notice": "Internal function for retrieving chain id for the source network"
      }
    }
  }
}