{
  "contractName": "HomeBridgeErcToErc",
  "abi": [
    {
      "constant": true,
      "inputs": [
        {
          "name": "_message",
          "type": "bytes32"
        }
      ],
      "name": "numMessagesSigned",
      "outputs": [
        {
          "name": "",
          "type": "uint256"
        }
      ],
      "payable": false,
      "stateMutability": "view",
      "type": "function"
    },
    {
      "constant": true,
      "inputs": [
        {
          "name": "_hash",
          "type": "bytes32"
        },
        {
          "name": "_index",
          "type": "uint256"
        }
      ],
      "name": "signature",
      "outputs": [
        {
          "name": "",
          "type": "bytes"
        }
      ],
      "payable": false,
      "stateMutability": "view",
      "type": "function"
    },
    {
      "constant": true,
      "inputs": [],
      "name": "erc677token",
      "outputs": [
        {
          "name": "",
          "type": "address"
        }
      ],
      "payable": false,
      "stateMutability": "view",
      "type": "function"
    },
    {
      "constant": false,
      "inputs": [
        {
          "name": "_fee",
          "type": "uint256"
        }
      ],
      "name": "setForeignFee",
      "outputs": [],
      "payable": false,
      "stateMutability": "nonpayable",
      "type": "function"
    },
    {
      "constant": true,
      "inputs": [
        {
          "name": "_day",
          "type": "uint256"
        }
      ],
      "name": "totalSpentPerDay",
      "outputs": [
        {
          "name": "",
          "type": "uint256"
        }
      ],
      "payable": false,
      "stateMutability": "view",
      "type": "function"
    },
    {
      "constant": false,
      "inputs": [
        {
          "name": "_fee",
          "type": "uint256"
        }
      ],
      "name": "setHomeFee",
      "outputs": [],
      "payable": false,
      "stateMutability": "nonpayable",
      "type": "function"
    },
    {
      "constant": true,
      "inputs": [],
      "name": "isInitialized",
      "outputs": [
        {
          "name": "",
          "type": "bool"
        }
      ],
      "payable": false,
      "stateMutability": "view",
      "type": "function"
    },
    {
      "constant": false,
      "inputs": [
        {
          "name": "_dailyLimit",
          "type": "uint256"
        }
      ],
      "name": "setExecutionDailyLimit",
      "outputs": [],
      "payable": false,
      "stateMutability": "nonpayable",
      "type": "function"
    },
    {
      "constant": true,
      "inputs": [],
      "name": "getCurrentDay",
      "outputs": [
        {
          "name": "",
          "type": "uint256"
        }
      ],
      "payable": false,
      "stateMutability": "view",
      "type": "function"
    },
    {
      "constant": true,
      "inputs": [],
      "name": "requiredBlockConfirmations",
      "outputs": [
        {
          "name": "",
          "type": "uint256"
        }
      ],
      "payable": false,
      "stateMutability": "view",
      "type": "function"
    },
    {
      "constant": true,
      "inputs": [],
      "name": "requiredMessageLength",
      "outputs": [
        {
          "name": "",
          "type": "uint256"
        }
      ],
      "payable": false,
      "stateMutability": "pure",
      "type": "function"
    },
    {
      "constant": true,
      "inputs": [],
      "name": "executionDailyLimit",
      "outputs": [
        {
          "name": "",
          "type": "uint256"
        }
      ],
      "payable": false,
      "stateMutability": "view",
      "type": "function"
    },
    {
      "constant": true,
      "inputs": [
        {
          "name": "_hash",
          "type": "bytes32"
        }
      ],
      "name": "message",
      "outputs": [
        {
          "name": "",
          "type": "bytes"
        }
      ],
      "payable": false,
      "stateMutability": "view",
      "type": "function"
    },
    {
      "constant": true,
      "inputs": [
        {
          "name": "_day",
          "type": "uint256"
        }
      ],
      "name": "totalExecutedPerDay",
      "outputs": [
        {
          "name": "",
          "type": "uint256"
        }
      ],
      "payable": false,
      "stateMutability": "view",
      "type": "function"
    },
    {
      "constant": false,
      "inputs": [
        {
          "name": "_feeManager",
          "type": "address"
        }
      ],
      "name": "setFeeManagerContract",
      "outputs": [],
      "payable": false,
      "stateMutability": "nonpayable",
      "type": "function"
    },
    {
      "constant": false,
      "inputs": [
        {
          "name": "signature",
          "type": "bytes"
        },
        {
          "name": "message",
          "type": "bytes"
        }
      ],
      "name": "submitSignature",
      "outputs": [],
      "payable": false,
      "stateMutability": "nonpayable",
      "type": "function"
    },
    {
      "constant": true,
      "inputs": [],
      "name": "dailyLimit",
      "outputs": [
        {
          "name": "",
          "type": "uint256"
        }
      ],
      "payable": false,
      "stateMutability": "view",
      "type": "function"
    },
    {
      "constant": true,
      "inputs": [
        {
          "name": "_withdrawal",
          "type": "bytes32"
        }
      ],
      "name": "numAffirmationsSigned",
      "outputs": [
        {
          "name": "",
          "type": "uint256"
        }
      ],
      "payable": false,
      "stateMutability": "view",
      "type": "function"
    },
    {
      "constant": true,
      "inputs": [
        {
          "name": "_withdrawal",
          "type": "bytes32"
        }
      ],
      "name": "affirmationsSigned",
      "outputs": [
        {
          "name": "",
          "type": "bool"
        }
      ],
      "payable": false,
      "stateMutability": "view",
      "type": "function"
    },
    {
      "constant": true,
      "inputs": [
        {
          "name": "_amount",
          "type": "uint256"
        }
      ],
      "name": "withinExecutionLimit",
      "outputs": [
        {
          "name": "",
          "type": "bool"
        }
      ],
      "payable": false,
      "stateMutability": "view",
      "type": "function"
    },
    {
      "constant": true,
      "inputs": [],
      "name": "executionMaxPerTx",
      "outputs": [
        {
          "name": "",
          "type": "uint256"
        }
      ],
      "payable": false,
      "stateMutability": "view",
      "type": "function"
    },
    {
      "constant": true,
      "inputs": [],
      "name": "requiredSignatures",
      "outputs": [
        {
          "name": "",
          "type": "uint256"
        }
      ],
      "payable": false,
      "stateMutability": "view",
      "type": "function"
    },
    {
      "constant": true,
      "inputs": [],
      "name": "owner",
      "outputs": [
        {
          "name": "",
          "type": "address"
        }
      ],
      "payable": false,
      "stateMutability": "view",
      "type": "function"
    },
    {
      "constant": true,
      "inputs": [
        {
          "name": "_message",
          "type": "bytes32"
        }
      ],
      "name": "messagesSigned",
      "outputs": [
        {
          "name": "",
          "type": "bool"
        }
      ],
      "payable": false,
      "stateMutability": "view",
      "type": "function"
    },
    {
      "constant": true,
      "inputs": [],
      "name": "getHomeFee",
      "outputs": [
        {
          "name": "",
          "type": "uint256"
        }
      ],
      "payable": false,
      "stateMutability": "view",
      "type": "function"
    },
    {
      "constant": true,
      "inputs": [],
      "name": "maxAvailablePerTx",
      "outputs": [
        {
          "name": "",
          "type": "uint256"
        }
      ],
      "payable": false,
      "stateMutability": "view",
      "type": "function"
    },
    {
      "constant": true,
      "inputs": [],
      "name": "validatorContract",
      "outputs": [
        {
          "name": "",
          "type": "address"
        }
      ],
      "payable": false,
      "stateMutability": "view",
      "type": "function"
    },
    {
      "constant": false,
      "inputs": [
        {
          "name": "recipient",
          "type": "address"
        },
        {
          "name": "value",
          "type": "uint256"
        },
        {
          "name": "transactionHash",
          "type": "bytes32"
        }
      ],
      "name": "executeAffirmation",
      "outputs": [],
      "payable": false,
      "stateMutability": "nonpayable",
      "type": "function"
    },
    {
      "constant": true,
      "inputs": [],
      "name": "deployedAtBlock",
      "outputs": [
        {
          "name": "",
          "type": "uint256"
        }
      ],
      "payable": false,
      "stateMutability": "view",
      "type": "function"
    },
    {
      "constant": true,
      "inputs": [],
      "name": "getBridgeInterfacesVersion",
      "outputs": [
        {
          "name": "major",
          "type": "uint64"
        },
        {
          "name": "minor",
          "type": "uint64"
        },
        {
          "name": "patch",
          "type": "uint64"
        }
      ],
      "payable": false,
      "stateMutability": "pure",
      "type": "function"
    },
    {
      "constant": true,
      "inputs": [],
      "name": "outOfLimitAmount",
      "outputs": [
        {
          "name": "",
          "type": "uint256"
        }
      ],
      "payable": false,
      "stateMutability": "view",
      "type": "function"
    },
    {
      "constant": false,
      "inputs": [
        {
          "name": "_minPerTx",
          "type": "uint256"
        }
      ],
      "name": "setMinPerTx",
      "outputs": [],
      "payable": false,
      "stateMutability": "nonpayable",
      "type": "function"
    },
    {
      "constant": false,
      "inputs": [
        {
          "name": "_from",
          "type": "address"
        },
        {
          "name": "_value",
          "type": "uint256"
        },
        {
          "name": "_data",
          "type": "bytes"
        }
      ],
      "name": "onTokenTransfer",
      "outputs": [
        {
          "name": "",
          "type": "bool"
        }
      ],
      "payable": false,
      "stateMutability": "nonpayable",
      "type": "function"
    },
    {
      "constant": false,
      "inputs": [
        {
          "name": "hashMsg",
          "type": "bytes32"
        },
        {
          "name": "unlockOnForeign",
          "type": "bool"
        },
        {
          "name": "valueToUnlock",
          "type": "uint256"
        }
      ],
      "name": "fixAssetsAboveLimits",
      "outputs": [],
      "payable": false,
      "stateMutability": "nonpayable",
      "type": "function"
    },
    {
      "constant": false,
      "inputs": [
        {
          "name": "_blockConfirmations",
          "type": "uint256"
        }
      ],
      "name": "setRequiredBlockConfirmations",
      "outputs": [],
      "payable": false,
      "stateMutability": "nonpayable",
      "type": "function"
    },
    {
      "constant": false,
      "inputs": [
        {
          "name": "_dailyLimit",
          "type": "uint256"
        }
      ],
      "name": "setDailyLimit",
      "outputs": [],
      "payable": false,
      "stateMutability": "nonpayable",
      "type": "function"
    },
    {
      "constant": false,
      "inputs": [
        {
          "name": "_gasPrice",
          "type": "uint256"
        }
      ],
      "name": "setGasPrice",
      "outputs": [],
      "payable": false,
      "stateMutability": "nonpayable",
      "type": "function"
    },
    {
      "constant": false,
      "inputs": [
        {
          "name": "_maxPerTx",
          "type": "uint256"
        }
      ],
      "name": "setMaxPerTx",
      "outputs": [],
      "payable": false,
      "stateMutability": "nonpayable",
      "type": "function"
    },
    {
      "constant": true,
      "inputs": [],
      "name": "decimalShift",
      "outputs": [
        {
          "name": "",
          "type": "int256"
        }
      ],
      "payable": false,
      "stateMutability": "view",
      "type": "function"
    },
    {
      "constant": true,
      "inputs": [],
      "name": "feeManagerContract",
      "outputs": [
        {
          "name": "",
          "type": "address"
        }
      ],
      "payable": false,
      "stateMutability": "view",
      "type": "function"
    },
    {
      "constant": true,
      "inputs": [],
      "name": "minPerTx",
      "outputs": [
        {
          "name": "",
          "type": "uint256"
        }
      ],
      "payable": false,
      "stateMutability": "view",
      "type": "function"
    },
    {
      "constant": true,
      "inputs": [
        {
          "name": "_amount",
          "type": "uint256"
        }
      ],
      "name": "withinLimit",
      "outputs": [
        {
          "name": "",
          "type": "bool"
        }
      ],
      "payable": false,
      "stateMutability": "view",
      "type": "function"
    },
    {
      "constant": false,
      "inputs": [
        {
          "name": "_maxPerTx",
          "type": "uint256"
        }
      ],
      "name": "setExecutionMaxPerTx",
      "outputs": [],
      "payable": false,
      "stateMutability": "nonpayable",
      "type": "function"
    },
    {
      "constant": true,
      "inputs": [],
      "name": "getFeeManagerMode",
      "outputs": [
        {
          "name": "mode",
          "type": "bytes4"
        }
      ],
      "payable": false,
      "stateMutability": "view",
      "type": "function"
    },
    {
      "constant": false,
      "inputs": [
        {
          "name": "newOwner",
          "type": "address"
        }
      ],
      "name": "transferOwnership",
      "outputs": [],
      "payable": false,
      "stateMutability": "nonpayable",
      "type": "function"
    },
    {
      "constant": true,
      "inputs": [],
      "name": "maxPerTx",
      "outputs": [
        {
          "name": "",
          "type": "uint256"
        }
      ],
      "payable": false,
      "stateMutability": "view",
      "type": "function"
    },
    {
      "constant": true,
      "inputs": [],
      "name": "gasPrice",
      "outputs": [
        {
          "name": "",
          "type": "uint256"
        }
      ],
      "payable": false,
      "stateMutability": "view",
      "type": "function"
    },
    {
      "constant": true,
      "inputs": [
        {
          "name": "_number",
          "type": "uint256"
        }
      ],
      "name": "isAlreadyProcessed",
      "outputs": [
        {
          "name": "",
          "type": "bool"
        }
      ],
      "payable": false,
      "stateMutability": "pure",
      "type": "function"
    },
    {
      "constant": true,
      "inputs": [],
      "name": "getForeignFee",
      "outputs": [
        {
          "name": "",
          "type": "uint256"
        }
      ],
      "payable": false,
      "stateMutability": "view",
      "type": "function"
    },
    {
      "anonymous": false,
      "inputs": [
        {
          "indexed": false,
          "name": "recipient",
          "type": "address"
        },
        {
          "indexed": false,
          "name": "value",
          "type": "uint256"
        }
      ],
      "name": "UserRequestForSignature",
      "type": "event"
    },
    {
      "anonymous": false,
      "inputs": [
        {
          "indexed": false,
          "name": "recipient",
          "type": "address"
        },
        {
          "indexed": false,
          "name": "value",
          "type": "uint256"
        },
        {
          "indexed": false,
          "name": "transactionHash",
          "type": "bytes32"
        }
      ],
      "name": "AffirmationCompleted",
      "type": "event"
    },
    {
      "anonymous": false,
      "inputs": [
        {
          "indexed": true,
          "name": "signer",
          "type": "address"
        },
        {
          "indexed": false,
          "name": "messageHash",
          "type": "bytes32"
        }
      ],
      "name": "SignedForUserRequest",
      "type": "event"
    },
    {
      "anonymous": false,
      "inputs": [
        {
          "indexed": true,
          "name": "signer",
          "type": "address"
        },
        {
          "indexed": false,
          "name": "transactionHash",
          "type": "bytes32"
        }
      ],
      "name": "SignedForAffirmation",
      "type": "event"
    },
    {
      "anonymous": false,
      "inputs": [
        {
          "indexed": false,
          "name": "authorityResponsibleForRelay",
          "type": "address"
        },
        {
          "indexed": false,
          "name": "messageHash",
          "type": "bytes32"
        },
        {
          "indexed": false,
          "name": "NumberOfCollectedSignatures",
          "type": "uint256"
        }
      ],
      "name": "CollectedSignatures",
      "type": "event"
    },
    {
      "anonymous": false,
      "inputs": [
        {
          "indexed": false,
          "name": "newLimit",
          "type": "uint256"
        }
      ],
      "name": "DailyLimitChanged",
      "type": "event"
    },
    {
      "anonymous": false,
      "inputs": [
        {
          "indexed": false,
          "name": "newLimit",
          "type": "uint256"
        }
      ],
      "name": "ExecutionDailyLimitChanged",
      "type": "event"
    },
    {
      "anonymous": false,
      "inputs": [
        {
          "indexed": false,
          "name": "gasPrice",
          "type": "uint256"
        }
      ],
      "name": "GasPriceChanged",
      "type": "event"
    },
    {
      "anonymous": false,
      "inputs": [
        {
          "indexed": false,
          "name": "requiredBlockConfirmations",
          "type": "uint256"
        }
      ],
      "name": "RequiredBlockConfirmationChanged",
      "type": "event"
    },
    {
      "anonymous": false,
      "inputs": [
        {
          "indexed": false,
          "name": "feeAmount",
          "type": "uint256"
        },
        {
          "indexed": true,
          "name": "transactionHash",
          "type": "bytes32"
        }
      ],
      "name": "FeeDistributedFromAffirmation",
      "type": "event"
    },
    {
      "anonymous": false,
      "inputs": [
        {
          "indexed": false,
          "name": "feeAmount",
          "type": "uint256"
        },
        {
          "indexed": true,
          "name": "transactionHash",
          "type": "bytes32"
        }
      ],
      "name": "FeeDistributedFromSignatures",
      "type": "event"
    },
    {
      "anonymous": false,
      "inputs": [
        {
          "indexed": false,
          "name": "previousOwner",
          "type": "address"
        },
        {
          "indexed": false,
          "name": "newOwner",
          "type": "address"
        }
      ],
      "name": "OwnershipTransferred",
      "type": "event"
    },
    {
      "anonymous": false,
      "inputs": [
        {
          "indexed": false,
          "name": "recipient",
          "type": "address"
        },
        {
          "indexed": false,
          "name": "value",
          "type": "uint256"
        },
        {
          "indexed": true,
          "name": "messageId",
          "type": "bytes32"
        }
      ],
      "name": "MediatorAmountLimitExceeded",
      "type": "event"
    },
    {
      "anonymous": false,
      "inputs": [
        {
          "indexed": false,
          "name": "recipient",
          "type": "address"
        },
        {
          "indexed": false,
          "name": "value",
          "type": "uint256"
        },
        {
          "indexed": true,
          "name": "transactionHash",
          "type": "bytes32"
        },
        {
          "indexed": false,
          "name": "messageId",
          "type": "bytes32"
        }
      ],
      "name": "AmountLimitExceeded",
      "type": "event"
    },
    {
      "anonymous": false,
      "inputs": [
        {
          "indexed": true,
          "name": "messageId",
          "type": "bytes32"
        },
        {
          "indexed": false,
          "name": "value",
          "type": "uint256"
        },
        {
          "indexed": false,
          "name": "remaining",
          "type": "uint256"
        }
      ],
      "name": "AssetAboveLimitsFixed",
      "type": "event"
    },
    {
      "constant": false,
      "inputs": [
        {
          "name": "_validatorContract",
          "type": "address"
        },
        {
          "name": "_dailyLimitMaxPerTxMinPerTxArray",
          "type": "uint256[3]"
        },
        {
          "name": "_homeGasPrice",
          "type": "uint256"
        },
        {
          "name": "_requiredBlockConfirmations",
          "type": "uint256"
        },
        {
          "name": "_erc677token",
          "type": "address"
        },
        {
          "name": "_foreignDailyLimitForeignMaxPerTxArray",
          "type": "uint256[2]"
        },
        {
          "name": "_owner",
          "type": "address"
        },
        {
          "name": "_decimalShift",
          "type": "int256"
        }
      ],
      "name": "initialize",
      "outputs": [
        {
          "name": "",
          "type": "bool"
        }
      ],
      "payable": false,
      "stateMutability": "nonpayable",
      "type": "function"
    },
    {
      "constant": false,
      "inputs": [
        {
          "name": "_validatorContract",
          "type": "address"
        },
        {
          "name": "_dailyLimitMaxPerTxMinPerTxArray",
          "type": "uint256[3]"
        },
        {
          "name": "_homeGasPrice",
          "type": "uint256"
        },
        {
          "name": "_requiredBlockConfirmations",
          "type": "uint256"
        },
        {
          "name": "_erc677token",
          "type": "address"
        },
        {
          "name": "_foreignDailyLimitForeignMaxPerTxArray",
          "type": "uint256[2]"
        },
        {
          "name": "_owner",
          "type": "address"
        },
        {
          "name": "_feeManager",
          "type": "address"
        },
        {
          "name": "_homeFeeForeignFeeArray",
          "type": "uint256[2]"
        },
        {
          "name": "_decimalShift",
          "type": "int256"
        }
      ],
      "name": "rewardableInitialize",
      "outputs": [
        {
          "name": "",
          "type": "bool"
        }
      ],
      "payable": false,
      "stateMutability": "nonpayable",
      "type": "function"
    },
    {
      "constant": false,
      "inputs": [
        {
          "name": "_token",
          "type": "address"
        },
        {
          "name": "_to",
          "type": "address"
        }
      ],
      "name": "claimTokensFromErc677",
      "outputs": [],
      "payable": false,
      "stateMutability": "nonpayable",
      "type": "function"
    },
    {
      "constant": true,
      "inputs": [],
      "name": "getBridgeMode",
      "outputs": [
        {
          "name": "_data",
          "type": "bytes4"
        }
      ],
      "payable": false,
      "stateMutability": "pure",
      "type": "function"
    }
  ],
  "bytecode": "0x608060405234801561001057600080fd5b506149f1806100206000396000f3006080604052600436106102635763ffffffff60e060020a6000350416630cbf060181146102685780631812d9961461029257806318d8f9c914610322578063286c4066146103535780632bd0bb051461036d57806334a9e14814610385578063392e53cd1461039d5780633dd95d1b146103c65780633e6968b6146103de5780633f0a9f65146103f3578063408fef2e14610408578063437764df1461041d57806343b37dd314610464578063490a32c6146104795780634fb3fef71461049157806360756f7c146104a9578063630cea8e146104ca57806367eeba0c146104f65780636ae1a9761461050b5780637698da2414610523578063865c80281461053b578063879ce6761461057b5780638aa1949a146105935780638d068043146105a85780638da5cb5b146105bd5780638f4b4b98146105d25780639313dc43146105ea57806394da17cd1461061157806395e54a1714610626578063994390891461063b578063995b2cff146106505780639a454b99146106775780639cb7595a1461068c578063a0189345146106cd578063a2a6ca27146106e2578063a4c0ed36146106fa578063a7444c0d1461072b578063acf5c6891461074b578063b20d30a914610763578063bf1fe4201461077b578063c6f6f21614610793578063dae5f0fd146107ab578063dbe03a8b146107c0578063df25f3f0146107d5578063e13d3c79146107ea578063ea9f496814610834578063f20151e11461084c578063f2ba956114610864578063f2fde38b14610879578063f968adbe1461089a578063fe173b97146108af578063ffd19e8c146108c4578063ffd66196146108dc575b600080fd5b34801561027457600080fd5b506102806004356108f1565b60408051918252519081900360200190f35b34801561029e57600080fd5b506102ad6004356024356109b6565b6040805160208082528351818301528351919283929083019185019080838360005b838110156102e75781810151838201526020016102cf565b50505050905090810190601f1680156103145780820380516001836020036101000a031916815260200191505b509250505060405180910390f35b34801561032e57600080fd5b50610337610b93565b60408051600160a060020a039092168252519081900360200190f35b34801561035f57600080fd5b5061036b600435610ba3565b005b34801561037957600080fd5b50610280600435610be2565b34801561039157600080fd5b5061036b600435610c5d565b3480156103a957600080fd5b506103b2610c99565b604080519115158252519081900360200190f35b3480156103d257600080fd5b5061036b600435610cea565b3480156103ea57600080fd5b50610280610daa565b3480156103ff57600080fd5b50610280610db3565b34801561041457600080fd5b50610280610e01565b34801561042957600080fd5b50610432610e0b565b604080517bffffffffffffffffffffffffffffffffffffffffffffffffffffffff199092168252519081900360200190f35b34801561047057600080fd5b50610280610e2f565b34801561048557600080fd5b506102ad600435610e7d565b34801561049d57600080fd5b50610280600435610fe5565b3480156104b557600080fd5b5061036b600160a060020a0360043516611060565b3480156104d657600080fd5b5061036b6024600480358281019290820135918135918201910135611118565b34801561050257600080fd5b506102806115ae565b34801561051757600080fd5b506102806004356115fc565b34801561052f57600080fd5b506103b260043561167f565b34801561054757600080fd5b506103b2600160a060020a036004358116906024906084359060a4359060c43581169060e490610124351661014435611748565b34801561058757600080fd5b506103b26004356118f8565b34801561059f57600080fd5b50610280611942565b3480156105b457600080fd5b50610280611990565b3480156105c957600080fd5b50610337611a08565b3480156105de57600080fd5b506103b2600435611a5f565b3480156105f657600080fd5b5061036b600160a060020a0360043581169060243516611ae3565b34801561061d57600080fd5b50610280611bf2565b34801561063257600080fd5b50610280611c0b565b34801561064757600080fd5b50610337611c65565b34801561065c57600080fd5b5061036b600160a060020a0360043516602435604435611cbc565b34801561068357600080fd5b50610280611fba565b34801561069857600080fd5b506106a1612008565b6040805167ffffffffffffffff9485168152928416602084015292168183015290519081900360600190f35b3480156106d957600080fd5b50610280612013565b3480156106ee57600080fd5b5061036b600435612061565b34801561070657600080fd5b506103b260048035600160a060020a03169060248035916044359182019101356120fd565b34801561073757600080fd5b5061036b600435602435151560443561218c565b34801561075757600080fd5b5061036b60043561239d565b34801561076f57600080fd5b5061036b6004356123c2565b34801561078757600080fd5b5061036b600435612482565b34801561079f57600080fd5b5061036b6004356124a7565b3480156107b757600080fd5b5061028061253f565b3480156107cc57600080fd5b5061033761258d565b3480156107e157600080fd5b506102806125e4565b3480156107f657600080fd5b506103b2600160a060020a036004358116906024906084359060a4359060c43581169060e4906101243581169061014435166101646101a435612632565b34801561084057600080fd5b506103b2600435612811565b34801561085857600080fd5b5061036b60043561285c565b34801561087057600080fd5b506104326128d8565b34801561088557600080fd5b5061036b600160a060020a036004351661294e565b3480156108a657600080fd5b50610280612973565b3480156108bb57600080fd5b506102806129c1565b3480156108d057600080fd5b506103b2600435612a0f565b3480156108e857600080fd5b50610280612a37565b60008060008360405160200180807f6e756d4d657373616765735369676e656400000000000000000000000000000081525060110182600019166000191681526020019150506040516020818303038152906040526040518082805190602001908083835b602083106109755780518252601f199092019160209182019101610956565b51815160209384036101000a600019018019909216911617905260408051929094018290039091208652850195909552929092016000205495945050505050565b604080516020808201859052818301849052825180830384018152606092830193849052805192936000939192909182918401908083835b60208310610a0d5780518252601f1990920191602091820191016109ee565b51815160209384036101000a6000190180199092169116179052604080519290940182900382207f7369676e6174757265730000000000000000000000000000000000000000000083830152602a80840182905285518085039091018152604a9093019485905282519097506003965060009550919392508291908401908083835b60208310610aae5780518252601f199092019160209182019101610a8f565b6001836020036101000a0380198251168184511680821785525050505050509050019150506040518091039020600019166000191681526020019081526020016000208054600181600116156101000203166002900480601f016020809104026020016040519081016040528092919081815260200182805460018160011615610100020316600290048015610b855780601f10610b5a57610100808354040283529160200191610b85565b820191906000526020600020905b815481529060010190602001808311610b6857829003601f168201915b505050505091505092915050565b6000610b9d612a50565b90505b90565b610bab611a08565b600160a060020a03163314610bbf57600080fd5b610bdf610bca61258d565b82600080516020614986833981519152612aa7565b50565b60008060008360405160200180807f746f74616c5370656e7450657244617900000000000000000000000000000000815250601001828152602001915050604051602081830303815290604052604051808280519060200190808383602083106109755780518252601f199092019160209182019101610956565b610c65611a08565b600160a060020a03163314610c7957600080fd5b610bdf610c8461258d565b826000805160206149a6833981519152612aa7565b7f0a6f646cd611241d8073675e00d1a1ff700fbf1b53fcf473de56d1e6e4b714ba60005260046020527f078d888f9b66f3f8bfa10909e31f1e16240db73449f0500afdbbe3a70da457cc5460ff1690565b610cf2611a08565b600160a060020a03163314610d0657600080fd5b610d0e611942565b811180610d19575080155b1515610d2457600080fd5b7f21dbcab260e413c20dc13c28b7db95e2b423d1135f42bb8b7d5214a92270d237600090815260209081527fadd938dbd083a16bae12238cd914fca0afc7a30edb55b1cd5c7f1823f1b0e4218290556040805183815290517f9bebf928b90863f24cc31f726a3a7545efd409f1dcf552301b1ee3710da70d3b929181900390910190a150565b62015180420490565b7f916daedf6915000ff68ced2f0b6773fe6f2582237f92c3c95bb4d7940723007160009081526020527fd2ea0feb732edb0ffe32efd33a6b9d24d46b16eb34a4d07ce256537b6f131e425490565b6000610b9d612c13565b7fba4690f50000000000000000000000000000000000000000000000000000000090565b7f21dbcab260e413c20dc13c28b7db95e2b423d1135f42bb8b7d5214a92270d23760009081526020527fadd938dbd083a16bae12238cd914fca0afc7a30edb55b1cd5c7f1823f1b0e4215490565b6060600360008360405160200180807f6d6573736167657300000000000000000000000000000000000000000000000081525060080182600019166000191681526020019150506040516020818303038152906040526040518082805190602001908083835b60208310610f025780518252601f199092019160209182019101610ee3565b6001836020036101000a0380198251168184511680821785525050505050509050019150506040518091039020600019166000191681526020019081526020016000208054600181600116156101000203166002900480601f016020809104026020016040519081016040528092919081815260200182805460018160011615610100020316600290048015610fd95780601f10610fae57610100808354040283529160200191610fd9565b820191906000526020600020905b815481529060010190602001808311610fbc57829003601f168201915b50505050509050919050565b60008060008360405160200180807f746f74616c457865637574656450657244617900000000000000000000000000815250601301828152602001915050604051602081830303815290604052604051808280519060200190808383602083106109755780518252601f199092019160209182019101610956565b611068611a08565b600160a060020a0316331461107c57600080fd5b600160a060020a0381161580611096575061109681612c18565b15156110a157600080fd5b7f779a349c5bee7817f04c960f525ee3e2f2516078c38c68a3149787976ee837e560005260026020527fc155b21a14c4592b97825e495fbe0d2705fb46420018cac5bfa7a09c43fae517805473ffffffffffffffffffffffffffffffffffffffff1916600160a060020a0392909216919091179055565b6000806000806000611128611c65565b600160a060020a031663facd743b336040518263ffffffff1660e060020a0281526004018082600160a060020a0316600160a060020a03168152602001915050602060405180830381600087803b15801561118257600080fd5b505af1158015611196573d6000803e3d6000fd5b505050506040513d60208110156111ac57600080fd5b505115156111b957600080fd5b6111f287878080601f01602080910402602001604051908101604052809392919081815260200183838082843750612c20945050505050565b15156111fd57600080fd5b61126789898080601f0160208091040260200160405190810160405280939291908181526020018383808284375050604080516020601f8f018190048102820181019092528d815294508d93508c925082915084018382808284375060009450612c349350505050565b600160a060020a0316331461127b57600080fd5b8686604051602001808383808284378201915050925050506040516020818303038152906040526040518082805190602001908083835b602083106112d15780518252601f1990920191602091820191016112b2565b51815160209384036101000a600019018019909216911617905260408051929094018290038220336c0100000000000000000000000002838301526034808401829052855180850390910181526054909301948590528251909b509195509293508392850191508083835b6020831061135b5780518252601f19909201916020918201910161133c565b6001836020036101000a03801982511681845116808217855250505050505090500191505060405180910390209350611393856108f1565b925061139e83612a0f565b156113a857600080fd5b6001928301928311156113cd576113be84611a5f565b156113c857600080fd5b611407565b6114078588888080601f01602080910402602001604051908101604052809392919081815260200183838082843750612d33945050505050565b611412846001612e0a565b604080516020808201889052600019860182840152825180830384018152606090920192839052815191929182918401908083835b602083106114665780518252601f199092019160209182019101611447565b51815160209384036101000a600019018019909216911617905260408051929094018290038220601f8f018290048202830182019094528d82529296506114c79450869350918d91508c908190840183828082843750612edc945050505050565b6114d18584612f5f565b60408051868152905133917fbf06885f40778f5ccfb64497d3f92ce568ddaedb7e2fb4487f72690418cf8e4c919081900360200190a261150f611990565b90508083106115a35761152a8561152585613024565b612f5f565b604080513381526020810187905280820183905290517f415557404d88a0c0b8e3b16967cafffc511213fd9c465c16832ee17ed57d72379181900360600190a16115a387878080601f01602080910402602001604051908101604052809392919081815260200183838082843750613049945050505050565b505050505050505050565b7f4a6a899679f26b73530d8cf1001e83b6f7702e04b6fdb98f3c62dc7e47e041a560009081526020527f1ab29a5cca988aee50edccdd61c5bcaa7ad4b29a03b7ee50f298ceccfe14cc4e5490565b60008060008360405160200180807f6e756d41666669726d6174696f6e735369676e656400000000000000000000008152506015018260001916600019168152602001915050604051602081830303815290604052604051808280519060200190808383602083106109755780518252601f199092019160209182019101610956565b6000600460008360405160200180807f61666669726d6174696f6e735369676e6564000000000000000000000000000081525060120182600019166000191681526020019150506040516020818303038152906040526040518082805190602001908083835b602083106117045780518252601f1990920191602091820191016116e5565b51815160209384036101000a600019018019909216911617905260408051929094018290039091208652850195909552929092016000205460ff1695945050505050565b6040805160048152602481018252602081018051600160e060020a03167f6fde8202000000000000000000000000000000000000000000000000000000001781529151815160009330939291829190808383895b838110156117b457818101518382015260200161179c565b50505050905090810190601f1680156117e15780820380516001836020036101000a031916815260200191505b509150506000604051808303816000865af19150501580611873575030600160a060020a0316636fde82026040518163ffffffff1660e060020a028152600401602060405180830381600087803b15801561183b57600080fd5b505af115801561184f573d6000803e3d6000fd5b505050506040513d602081101561186557600080fd5b5051600160a060020a031633145b8061187d57503330145b151561188857600080fd5b6118db8989600380602002604051908101604052809291908260036020028082843750506040805180820182528e94508d93508c9250908b906002908390839080828437820191505050505089896130a2565b6118e36131a4565b6118eb610c99565b9998505050505050505050565b60008061191b8361190f61190a610daa565b610fe5565b9063ffffffff6131fb16565b905080611926610e2f565b1015801561193b5750611937611942565b8311155b9392505050565b7fc0ed44c192c86d1cc1ba51340b032c2766b4a2b0041031de13c46dd7104888d560009081526020527ff8e983ee86e5e377e9e34c9131b266382c3f04113d20de077f9e12663c7a646b5490565b600061199a611c65565b600160a060020a0316638d0680436040518163ffffffff1660e060020a028152600401602060405180830381600087803b1580156119d757600080fd5b505af11580156119eb573d6000803e3d6000fd5b505050506040513d6020811015611a0157600080fd5b5051905090565b7f02016836a56b71f0d02689e69e326f4f4c1b9057164ef592671cf0d37c8040c060005260026020527fb7802e97e87ef2842a6cce7da7ffaeaedaa2f61a6a7870b23d9d01fc9b73712e54600160a060020a031690565b6000600460008360405160200180807f6d657373616765735369676e6564000000000000000000000000000000000000815250600e018260001916600019168152602001915050604051602081830303815290604052604051808280519060200190808383602083106117045780518252601f1990920191602091820191016116e5565b30600160a060020a0316636fde82026040518163ffffffff1660e060020a028152600401602060405180830381600087803b158015611b2157600080fd5b505af1158015611b35573d6000803e3d6000fd5b505050506040513d6020811015611b4b57600080fd5b5051600160a060020a03163314611b6157600080fd5b611b69610b93565b604080517f69ffa08a000000000000000000000000000000000000000000000000000000008152600160a060020a0385811660048301528481166024830152915192909116916369ffa08a9160448082019260009290919082900301818387803b158015611bd657600080fd5b505af1158015611bea573d6000803e3d6000fd5b505050505050565b6000610b9d6000805160206149a683398151915261320e565b6000806000806000611c1b612973565b9350611c256115ae565b9250611c37611c32610daa565b610be2565b9150818311611c47576000611c4b565b8183035b9050808410611c5a5780611c5c565b835b94505050505090565b7f5a74bb7e202fb8e4bf311841c7d64ec19df195fee77d7e7ae749b27921b6ddfe60005260026020527fab54f3fbbe62c59b7876a9bf9bd5e0c22dbae93f4d8ee0438f7ce62b198eb0e054600160a060020a031690565b6000806000611cc9611c65565b600160a060020a031663facd743b336040518263ffffffff1660e060020a0281526004018082600160a060020a0316600160a060020a03168152602001915050602060405180830381600087803b158015611d2357600080fd5b505af1158015611d37573d6000803e3d6000fd5b505050506040513d6020811015611d4d57600080fd5b50511515611d5a57600080fd5b604080516c01000000000000000000000000600160a060020a0389160260208083019190915260348201889052605480830188905283518084039091018152607490920192839052815191929182918401908083835b60208310611dcf5780518252601f199092019160209182019101611db0565b6001836020036101000a03801982511681845116808217855250505050505090500191505060405180910390209250611e07856118f8565b15611fae57604080516c010000000000000000000000003302602080830191909152603480830187905283518084039091018152605490920192839052815191929182918401908083835b60208310611e715780518252601f199092019160209182019101611e52565b6001836020036101000a03801982511681845116808217855250505050505090500191505060405180910390209150611ea98261167f565b15611eb357600080fd5b611ebe82600161331d565b611ec7836115fc565b9050611ed281612a0f565b15611edc57600080fd5b600101611ee983826133a0565b60408051858152905133917f5df9cc3eb93d8a9a481857a3b70a8ca966e6b80b25cf0ee2cce180ec5afa80a1919081900360200190a2611f27611990565b8110611fa957611f3f83611f3a83613024565b6133a0565b6000851115611f5f57611f5486868686613422565b1515611f5f57600080fd5b60408051600160a060020a03881681526020810187905280820186905290517f6fc115a803b8703117d9a3956c5a15401cb42401f91630f015eb6b043fa762539181900360600190a15b611bea565b611bea86868686613544565b7fb120ceec05576ad0c710bc6e85f1768535e27554458f05dcbb5c65b8c7a749b060009081526020527fe66bef0282a446f9848e2903380099bb6e431483ee78778868f33b4a154c818b5490565b600560026000909192565b7f145286dc85799b6fb9fe322391ba2d95683077b2adf34dd576dedc437e537ba760009081526020527fba10c7a68bf463c41368d64adcf7df23c0de931ea3b09f061e2dfec302fef95f5490565b612069611a08565b600160a060020a0316331461207d57600080fd5b60008111801561209357506120906115ae565b81105b80156120a557506120a2612973565b81105b15156120b057600080fd5b7fbbb088c505d18e049d114c7c91f11724e69c55ad6c5397e2b929e68b41fa05d160009081526020527f8df5c48c6b6e11d97548adc824ba0c99103ec09830fa5d53a179984085e6eaa055565b600080612108612a50565b905033600160a060020a0382161461211f57600080fd5b61212885612811565b151561213357600080fd5b61214461213e610daa565b866135e3565b61218081878787878080601f01602080910402602001604051908101604052809392919081815260200183838082843750613669945050505050565b50600195945050505050565b600080600080600080600030600160a060020a0316636fde82026040518163ffffffff1660e060020a028152600401602060405180830381600087803b1580156121d557600080fd5b505af11580156121e9573d6000803e3d6000fd5b505050506040513d60208110156121ff57600080fd5b5051600160a060020a0316331461221557600080fd5b61221e8a6115fc565b965061222987612a0f565b1561223357600080fd5b61223c8a6136e3565b9096509450600160a060020a038616158015906122595750600085115b80156122655750878510155b151561227057600080fd5b61229061228b8961227f612013565b9063ffffffff61386a16565b61387c565b6122a0858963ffffffff61386a16565b93506122ac848b6138c9565b604080518981526020810186905281518c927f5bcec6564fe8d2cbb4e4eb8237510ceb6b291a5c2ee2e429948d25e9c924c1fa928290030190a28815612391576122f4612973565b88111561230057600080fd5b61230861258d565b9250879150600160a060020a0383161561234c57612337886000856000805160206149a683398151915261394b565b9050612349888263ffffffff61386a16565b91505b60408051600160a060020a03881681526020810184905281517f127650bcfb0ba017401abe4931453a405140a8fd36fece67bae2db174d3fdd63929181900390910190a15b50505050505050505050565b6123a5611a08565b600160a060020a031633146123b957600080fd5b610bdf816139dc565b6123ca611a08565b600160a060020a031633146123de57600080fd5b6123e6612973565b8111806123f1575080155b15156123fc57600080fd5b7f4a6a899679f26b73530d8cf1001e83b6f7702e04b6fdb98f3c62dc7e47e041a5600090815260209081527f1ab29a5cca988aee50edccdd61c5bcaa7ad4b29a03b7ee50f298ceccfe14cc4e8290556040805183815290517fad4123ae17c414d9c6d2fec478b402e6b01856cc250fd01fbfd252fda0089d3c929181900390910190a150565b61248a611a08565b600160a060020a0316331461249e57600080fd5b610bdf81613a6f565b6124af611a08565b600160a060020a031633146124c357600080fd5b8015806124e757506124d36125e4565b811180156124e757506124e46115ae565b81105b15156124f257600080fd5b7f0f8803acad17c63ee38bf2de71e1888bc7a079a6f73658e274b08018bea4e29c60009081526020527f9de0f81379b4d8e60fe509315d071b56e7b732abaf193e74e0d15808b0951d0955565b7f1e8ecaafaddea96ed9ac6d2642dcdfe1bebe58a930b1085842d8fc122b371ee560009081526020527fd5c78dd9468716ca9bb96be25d56436811b20aab3523a9904b12deef1cab239d5490565b7f779a349c5bee7817f04c960f525ee3e2f2516078c38c68a3149787976ee837e560005260026020527fc155b21a14c4592b97825e495fbe0d2705fb46420018cac5bfa7a09c43fae51754600160a060020a031690565b7fbbb088c505d18e049d114c7c91f11724e69c55ad6c5397e2b929e68b41fa05d160009081526020527f8df5c48c6b6e11d97548adc824ba0c99103ec09830fa5d53a179984085e6eaa05490565b6040805160048152602481018252602081018051600160e060020a03167f6fde8202000000000000000000000000000000000000000000000000000000001781529151815160009330939291829190808383895b8381101561269e578181015183820152602001612686565b50505050905090810190601f1680156126cb5780820380516001836020036101000a031916815260200191505b509150506000604051808303816000865af1915050158061275d575030600160a060020a0316636fde82026040518163ffffffff1660e060020a028152600401602060405180830381600087803b15801561272557600080fd5b505af1158015612739573d6000803e3d6000fd5b505050506040513d602081101561274f57600080fd5b5051600160a060020a031633145b8061276757503330145b151561277257600080fd5b6127f28b8b600380602002604051908101604052809291908260036020028082843782019150505050508b8b8b8b600280602002604051908101604052809291908260026020028082843782019150505050508b8b8b6002806020026040519081016040528092919082600260200280828437508f9350613af592505050565b6127fa6131a4565b612802610c99565b9b9a5050505050505050505050565b6000806128238361190f611c32610daa565b90508061282e6115ae565b10158015612843575061283f612973565b8311155b801561193b57506128526125e4565b9092101592915050565b612864611a08565b600160a060020a0316331461287857600080fd5b612880610e2f565b811061288b57600080fd5b7fc0ed44c192c86d1cc1ba51340b032c2766b4a2b0041031de13c46dd7104888d560009081526020527ff8e983ee86e5e377e9e34c9131b266382c3f04113d20de077f9e12663c7a646b55565b604080516004815260248101909152602081018051600160e060020a03167ff2ba9561000000000000000000000000000000000000000000000000000000001790526000908161292661258d565b9050600460008351602085016000855af28060203d1416156129485760005193505b50505090565b612956611a08565b600160a060020a0316331461296a57600080fd5b610bdf81613bc5565b7f0f8803acad17c63ee38bf2de71e1888bc7a079a6f73658e274b08018bea4e29c60009081526020527f9de0f81379b4d8e60fe509315d071b56e7b732abaf193e74e0d15808b0951d095490565b7f55b3774520b5993024893d303890baa4e84b1244a43c60034d1ced2d3cf2b04b60009081526020527ff7d5eefab3776d7f0450bd0193564bcb4f832ce313ff2836c450fc63a4b944195490565b7f80000000000000000000000000000000000000000000000000000000000000009081161490565b6000610b9d60008051602061498683398151915261320e565b7fa8b0ade3e2b734f043ce298aca4cc8d19d74270223f34531d0988b7d00cba21d60005260026020527f603cd9dcbfa185d5c37504f4c8b3f16117ed744fba48d08b7aad44a162af1c9354600160a060020a031690565b6000816000805160206149a6833981519152811480612ad3575060008051602061498683398151915281145b1515612ade57600080fd5b6000805160206149a68339815191528314612b19577f286c406600000000000000000000000000000000000000000000000000000000612b3b565b7f34a9e148000000000000000000000000000000000000000000000000000000005b6040805160248082018890528251808303909101815260449091018252602081018051600160e060020a03167bffffffffffffffffffffffffffffffffffffffffffffffffffffffff19851617815291518151939550600160a060020a038916939192909182919080838360005b83811015612bc1578181015183820152602001612ba9565b50505050905090810190601f168015612bee5780820380516001836020036101000a031916815260200191505b50915050600060405180830381855af49150501515612c0c57600080fd5b5050505050565b606890565b6000903b1190565b6000612c2a612c13565b8251149050919050565b60008060008086516041141515612c4a57600080fd5b505050602084015160408501516060860151601b60ff60f860020a8304161480612c7d5750601c60ff60f860020a830416145b1515612c8857600080fd5b7f7fffffffffffffffffffffffffffffff5d576e7357a4501ddfe92f46681b20a0821115612cb557600080fd5b6001612cc18787613c9c565b60408051600080825260208083018085529490945260ff60f860020a870416828401526060820188905260808201879052915160a08083019493601f198301938390039091019190865af1158015612d1d573d6000803e3d6000fd5b5050604051601f19015198975050505050505050565b80600360008460405160200180807f6d6573736167657300000000000000000000000000000000000000000000000081525060080182600019166000191681526020019150506040516020818303038152906040526040518082805190602001908083835b60208310612db75780518252601f199092019160209182019101612d98565b51815160001960209485036101000a01908116901991909116179052604080519490920184900390932086528583019690965250929093016000208451612e059591945092019190506148ed565b505050565b80600460008460405160200180807f6d657373616765735369676e6564000000000000000000000000000000000000815250600e0182600019166000191681526020019150506040516020818303038152906040526040518082805190602001908083835b60208310612e8e5780518252601f199092019160209182019101612e6f565b51815160209384036101000a60001901801990921691161790526040805192909401829003909120865285019590955292909201600020805460ff1916941515949094179093555050505050565b80600360008460405160200180807f7369676e61747572657300000000000000000000000000000000000000000000815250600a01826000191660001916815260200191505060405160208183030381529060405260405180828051906020019080838360208310612db75780518252601f199092019160209182019101612d98565b806000808460405160200180807f6e756d4d657373616765735369676e656400000000000000000000000000000081525060110182600019166000191681526020019150506040516020818303038152906040526040518082805190602001908083835b60208310612fe25780518252601f199092019160209182019101612fc3565b51815160209384036101000a60001901801990921691161790526040805192909401829003909120865285019590955292909201600020939093555050505050565b7f80000000000000000000000000000000000000000000000000000000000000001790565b60008060008061305761258d565b9350600160a060020a03841615612c0c5761307185613eb6565b509350935050613095836001866000805160206149a683398151915260010261394b565b9050612c0c818584613ef1565b6130aa610c99565b156130b457600080fd5b6130bd88612c18565b15156130c857600080fd5b7fab54f3fbbe62c59b7876a9bf9bd5e0c22dbae93f4d8ee0438f7ce62b198eb0e0805473ffffffffffffffffffffffffffffffffffffffff1916600160a060020a038a161790557fb120ceec05576ad0c710bc6e85f1768535e27554458f05dcbb5c65b8c7a749b06000908152602052437fe66bef0282a446f9848e2903380099bb6e431483ee78778868f33b4a154c818b5561316487613fff565b61316d86613a6f565b613176856139dc565b61317f8361415c565b61318881614231565b61319182613bc5565b61319a8461429a565b5050505050505050565b7f0a6f646cd611241d8073675e00d1a1ff700fbf1b53fcf473de56d1e6e4b714ba60005260046020527f078d888f9b66f3f8bfa10909e31f1e16240db73449f0500afdbbe3a70da457cc805460ff19166001179055565b8181018281101561320857fe5b92915050565b600080806060846000805160206149a683398151915281148061323e575060008051602061498683398151915281145b151561324957600080fd5b61325161258d565b93506000805160206149a6833981519152861461328e577fffd66196000000000000000000000000000000000000000000000000000000006132b0565b7f94da17cd000000000000000000000000000000000000000000000000000000005b60408051600481526024810190915260208082018051600160e060020a03167bffffffffffffffffffffffffffffffffffffffffffffffffffffffff19851617815282519396509194509160009182885af28060203d1416156133135760005195505b5050505050919050565b80600460008460405160200180807f61666669726d6174696f6e735369676e65640000000000000000000000000000815250601201826000191660001916815260200191505060405160208183030381529060405260405180828051906020019080838360208310612e8e5780518252601f199092019160209182019101612e6f565b806000808460405160200180807f6e756d41666669726d6174696f6e735369676e65640000000000000000000000815250601501826000191660001916815260200191505060405160208183030381529060405260405180828051906020019080838360208310612fe25780518252601f199092019160209182019101612fc3565b6000806000806134328588614325565b61344361343d610daa565b8861436c565b61344c876143f2565b925061345661258d565b9150600160a060020a038216156134a2576134828360008460008051602061498683398151915261394b565b905061348f818388614405565b61349f838263ffffffff61386a16565b92505b6134aa610b93565b600160a060020a03166340c10f1989856040518363ffffffff1660e060020a0281526004018083600160a060020a0316600160a060020a0316815260200182815260200192505050602060405180830381600087803b15801561350c57600080fd5b505af1158015613520573d6000803e3d6000fd5b505050506040513d602081101561353657600080fd5b505198975050505050505050565b600080613550836136e3565b9092509050600160a060020a03821615801561356a575080155b151561357557600080fd5b61358461228b8661190f612013565b61358f868685614513565b60408051600160a060020a038816815260208101879052808201859052905185917f26c0a209907d8e06e55b84dfc43d1429e22a3bab2b4f9cfd49d5f7f447a42c4f919081900360600190a2505050505050565b6135f08161190f84610be2565b6000808460405160200180807f746f74616c5370656e745065724461790000000000000000000000000000000081525060100182815260200191505060405160208183030381529060405260405180828051906020019080838360208310612fe25780518252601f199092019160209182019101612fc3565b83600160a060020a03166342966c68836040518263ffffffff1660e060020a02815260040180828152602001915050600060405180830381600087803b1580156136b257600080fd5b505af11580156136c6573d6000803e3d6000fd5b505050506136dd6136d78483614609565b83614663565b50505050565b600080600260008460405160200180807f74784f75744f664c696d6974526563697069656e74000000000000000000000081525060150182600019166000191681526020019150506040516020818303038152906040526040518082805190602001908083835b602083106137695780518252601f19909201916020918201910161374a565b51815160209384036101000a600019018019909216911617905260408051929094018290039091208652858101969096525092830160009081205484517f74784f75744f664c696d697456616c75650000000000000000000000000000008188015260318082018b9052865180830390910181526051909101958690528051600160a060020a0390921698509195869592945091925082918401908083835b602083106138275780518252601f199092019160209182019101613808565b51815160209384036101000a6000190180199092169116179052604080519290940182900390912086528501959095529290920160002054949694955050505050565b60008282111561387657fe5b50900390565b7f145286dc85799b6fb9fe322391ba2d95683077b2adf34dd576dedc437e537ba760009081526020527fba10c7a68bf463c41368d64adcf7df23c0de931ea3b09f061e2dfec302fef95f55565b816000808360405160200180807f74784f75744f664c696d697456616c7565000000000000000000000000000000815250601101826000191660001916815260200191505060405160208183030381529060405260405180828051906020019080838360208310612fe25780518252601f199092019160209182019101612fc3565b60408051602481018690528415156044820152606480820184905282518083039091018152608490910190915260208181018051600160e060020a03167f9862f26f000000000000000000000000000000000000000000000000000000001781528251600093929184919082885af28060203d1416600181146139cd57600080fd5b50506000519695505050505050565b600081116139e957600080fd5b7f916daedf6915000ff68ced2f0b6773fe6f2582237f92c3c95bb4d79407230071600090815260209081527fd2ea0feb732edb0ffe32efd33a6b9d24d46b16eb34a4d07ce256537b6f131e428290556040805183815290517f4fb76205cd57c896b21511d2114137d8e901b4ccd659e1a0f97d6306795264fb929181900390910190a150565b7f55b3774520b5993024893d303890baa4e84b1244a43c60034d1ced2d3cf2b04b600090815260209081527ff7d5eefab3776d7f0450bd0193564bcb4f832ce313ff2836c450fc63a4b944198290556040805183815290517f52264b89e0fceafb26e79fd49ef8a366eb6297483bf4035b027f0c99a7ad512e929181900390910190a150565b613b058a8a8a8a8a8a8a886130a2565b613b0e83612c18565b1515613b1957600080fd5b7f779a349c5bee7817f04c960f525ee3e2f2516078c38c68a3149787976ee837e560005260026020527fc155b21a14c4592b97825e495fbe0d2705fb46420018cac5bfa7a09c43fae517805473ffffffffffffffffffffffffffffffffffffffff1916600160a060020a0385161790558151613ba59084906000805160206149a6833981519152612aa7565b612391838360016020020151600080516020614986833981519152612aa7565b600160a060020a0381161515613bda57600080fd5b7f8be0079c531659141344cd1fd0a4f28419497f9722a3daafe3b4186f6b6457e0613c03611a08565b60408051600160a060020a03928316815291841660208301528051918290030190a17f02016836a56b71f0d02689e69e326f4f4c1b9057164ef592671cf0d37c8040c060005260026020527fb7802e97e87ef2842a6cce7da7ffaeaedaa2f61a6a7870b23d9d01fc9b73712e805473ffffffffffffffffffffffffffffffffffffffff1916600160a060020a0392909216919091179055565b60408051808201909152601a81527f19457468657265756d205369676e6564204d6573736167653a0a000000000000602082015260009060608315613e425781613ce686516146fb565b866040516020018084805190602001908083835b60208310613d195780518252601f199092019160209182019101613cfa565b51815160209384036101000a600019018019909216911617905286519190930192860191508083835b60208310613d615780518252601f199092019160209182019101613d42565b51815160209384036101000a600019018019909216911617905285519190930192850191508083835b60208310613da95780518252601f199092019160209182019101613d8a565b6001836020036101000a03801982511681845116808217855250505050505090500193505050506040516020818303038152906040526040518082805190602001908083835b60208310613e0e5780518252601f199092019160209182019101613def565b6001836020036101000a03801982511681845116808217855250505050505090500191505060405180910390209250613eae565b6040805190810160405280600381526020017f3130340000000000000000000000000000000000000000000000000000000000815250905081818660405160200180848051906020019080838360208310613d195780518252601f199092019160209182019101613cfa565b505092915050565b600080600080613ec585612c20565b1515613ed057600080fd5b50505050601481015160348201516054830151606890930151919390929190565b6000831115612e05576040805160248082018690528251808303909101815260449091018252602081018051600160e060020a03167f59d784640000000000000000000000000000000000000000000000000000000017815291518151600160a060020a03861693829180838360005b83811015613f79578181015183820152602001613f61565b50505050905090810190601f168015613fa65780820380516001836020036101000a031916815260200191505b50915050600060405180830381855af49150501515613fc457600080fd5b60408051848152905182917f858abdcd5efcaebb936e8e8516f0cfe9a0ef5157ff99d16cdabb6db625be90d0919081900360200190a2505050565b6040810151600010801561401a575060408101516020820151115b801561402a575060208101518151115b151561403557600080fd5b80517f4a6a899679f26b73530d8cf1001e83b6f7702e04b6fdb98f3c62dc7e47e041a5600090815260208181527f1ab29a5cca988aee50edccdd61c5bcaa7ad4b29a03b7ee50f298ceccfe14cc4e92909255908201517f0f8803acad17c63ee38bf2de71e1888bc7a079a6f73658e274b08018bea4e29c82527f9de0f81379b4d8e60fe509315d071b56e7b732abaf193e74e0d15808b0951d095560408201517fbbb088c505d18e049d114c7c91f11724e69c55ad6c5397e2b929e68b41fa05d182527f8df5c48c6b6e11d97548adc824ba0c99103ec09830fa5d53a179984085e6eaa0557fad4123ae17c414d9c6d2fec478b402e6b01856cc250fd01fbfd252fda0089d3c9082905b60200201516040518082815260200191505060405180910390a150565b805160208201511061416d57600080fd5b80517f21dbcab260e413c20dc13c28b7db95e2b423d1135f42bb8b7d5214a92270d237600090815260208181527fadd938dbd083a16bae12238cd914fca0afc7a30edb55b1cd5c7f1823f1b0e42192909255908201517fc0ed44c192c86d1cc1ba51340b032c2766b4a2b0041031de13c46dd7104888d582527ff8e983ee86e5e377e9e34c9131b266382c3f04113d20de077f9e12663c7a646b557f9bebf928b90863f24cc31f726a3a7545efd409f1dcf552301b1ee3710da70d3b90829061413f565b604c19811380156142425750604d81125b151561424d57600080fd5b7f1e8ecaafaddea96ed9ac6d2642dcdfe1bebe58a930b1085842d8fc122b371ee560009081526020527fd5c78dd9468716ca9bb96be25d56436811b20aab3523a9904b12deef1cab239d55565b6142a381612c18565b15156142ae57600080fd5b7fa8b0ade3e2b734f043ce298aca4cc8d19d74270223f34531d0988b7d00cba21d60005260026020527f603cd9dcbfa185d5c37504f4c8b3f16117ed744fba48d08b7aad44a162af1c93805473ffffffffffffffffffffffffffffffffffffffff1916600160a060020a0392909216919091179055565b600080614331846136e3565b9092509050600160a060020a038216156136dd5780831461435157600080fd5b61435d60008086614513565b6136dd61228b8461227f612013565b6143798161190f84610fe5565b6000808460405160200180807f746f74616c45786563757465645065724461790000000000000000000000000081525060130182815260200191505060405160208183030381529060405260405180828051906020019080838360208310612fe25780518252601f199092019160209182019101612fc3565b60006132088261440061253f565b614806565b6000831115612e05576040805160248082018690528251808303909101815260449091018252602081018051600160e060020a03167f054d46ec0000000000000000000000000000000000000000000000000000000017815291518151600160a060020a03861693829180838360005b8381101561448d578181015183820152602001614475565b50505050905090810190601f1680156144ba5780820380516001836020036101000a031916815260200191505b50915050600060405180830381855af491505015156144d857600080fd5b60408051848152905182917fa52d3c9cbc541772e4edd92e2e4e2a3865ab73630f25deed8a6c8de41ff0f65c919081900360200190a2505050565b82600260008360405160200180807f74784f75744f664c696d6974526563697069656e74000000000000000000000081525060150182600019166000191681526020019150506040516020818303038152906040526040518082805190602001908083835b602083106145975780518252601f199092019160209182019101614578565b51815160209384036101000a60001901801990921691161790526040805192909401829003909120865285019590955292909201600020805473ffffffffffffffffffffffffffffffffffffffff1916600160a060020a03959095169490941790935550612e059150839050826138c9565b805182906000101561320857815160141461462357600080fd5b61462c82614851565b9050600160a060020a038116151561464357600080fd5b61464b614858565b600160a060020a038281169116141561320857600080fd5b8060008061466f61258d565b9150600160a060020a038216156146b05761469b836000846000805160206149a683398151915261394b565b90506146ad838263ffffffff61386a16565b92505b60408051600160a060020a03871681526020810185905281517f127650bcfb0ba017401abe4931453a405140a8fd36fece67bae2db174d3fdd63929181900390910190a15050505050565b606060008082818515156147445760408051808201909152600181527f3000000000000000000000000000000000000000000000000000000000000000602082015294506147fd565b8593505b831561475f57600190920191600a84049350614748565b826040519080825280601f01601f19166020018201604052801561478d578160200160208202803883390190505b5091505060001982015b85156147f957815160001982019160f860020a6030600a8a0601029184919081106147be57fe5b9060200101907effffffffffffffffffffffffffffffffffffffffffffffffffffffffffffff1916908160001a905350600a86049550614797565b8194505b50505050919050565b6000811515614816575081613208565b600082131561483a5761483383600a84900a63ffffffff6148af16565b9050613208565b61193b836000849003600a0a63ffffffff6148d816565b6014015190565b7f71483949fe7a14d16644d63320f24d10cf1d60abecc30cc677a340e82b699dd260005260026020527f21ffdf150a5d180f96d98d16f50e7b4dd63e2a067adc8386cf5af55dcecd8dd954600160a060020a031690565b60008215156148c057506000613208565b508181028183828115156148d057fe5b041461320857fe5b600081838115156148e557fe5b049392505050565b828054600181600116156101000203166002900490600052602060002090601f016020900481019282601f1061492e57805160ff191683800117855561495b565b8280016001018555821561495b579182015b8281111561495b578251825591602001919060010190614940565b5061496792915061496b565b5090565b610ba091905b8082111561496757600081556001016149715600deb7f3adca07d6d1f708c1774389db532a2b2f18fd05a62b957e4089f4696ed589d93e5e92f7e37e490c25f0e50f7f4aad7cc94b308a566553280967be38bcf1a165627a7a72305820ba1193b05ee9d9a1621241a6f142714cbb6827d28d7f44fe3de05f10b23d6e010029",
  "source": "pragma solidity 0.4.24;\n\nimport \"../../libraries/Message.sol\";\nimport \"../../upgradeability/EternalStorage.sol\";\nimport \"../../interfaces/IBurnableMintableERC677Token.sol\";\nimport \"../BasicHomeBridge.sol\";\nimport \"../HomeOverdrawManagement.sol\";\nimport \"./RewardableHomeBridgeErcToErc.sol\";\nimport \"../ERC677BridgeForBurnableMintableToken.sol\";\n\n/**\n * @title HomeBridgeErcToErc\n * @dev This contract Home side logic for the erc-to-erc vanilla bridge mode.\n * It is designed to be used as an implementation contract of EternalStorageProxy contract.\n */\ncontract HomeBridgeErcToErc is\n    EternalStorage,\n    BasicHomeBridge,\n    ERC677BridgeForBurnableMintableToken,\n    HomeOverdrawManagement,\n    RewardableHomeBridgeErcToErc\n{\n    function initialize(\n        address _validatorContract,\n        uint256[3] _dailyLimitMaxPerTxMinPerTxArray, // [ 0 = _dailyLimit, 1 = _maxPerTx, 2 = _minPerTx ]\n        uint256 _homeGasPrice,\n        uint256 _requiredBlockConfirmations,\n        address _erc677token,\n        uint256[2] _foreignDailyLimitForeignMaxPerTxArray, // [ 0 = _foreignDailyLimit, 1 = _foreignMaxPerTx ]\n        address _owner,\n        int256 _decimalShift\n    ) external onlyRelevantSender returns (bool) {\n        _initialize(\n            _validatorContract,\n            _dailyLimitMaxPerTxMinPerTxArray,\n            _homeGasPrice,\n            _requiredBlockConfirmations,\n            _erc677token,\n            _foreignDailyLimitForeignMaxPerTxArray,\n            _owner,\n            _decimalShift\n        );\n        setInitialize();\n\n        return isInitialized();\n    }\n\n    function rewardableInitialize(\n        address _validatorContract,\n        uint256[3] _dailyLimitMaxPerTxMinPerTxArray, // [ 0 = _dailyLimit, 1 = _maxPerTx, 2 = _minPerTx ]\n        uint256 _homeGasPrice,\n        uint256 _requiredBlockConfirmations,\n        address _erc677token,\n        uint256[2] _foreignDailyLimitForeignMaxPerTxArray, // [ 0 = _foreignDailyLimit, 1 = _foreignMaxPerTx ]\n        address _owner,\n        address _feeManager,\n        uint256[2] _homeFeeForeignFeeArray, // [ 0 = _homeFee, 1 = _foreignFee ]\n        int256 _decimalShift\n    ) external onlyRelevantSender returns (bool) {\n        _rewardableInitialize(\n            _validatorContract,\n            _dailyLimitMaxPerTxMinPerTxArray,\n            _homeGasPrice,\n            _requiredBlockConfirmations,\n            _erc677token,\n            _foreignDailyLimitForeignMaxPerTxArray,\n            _owner,\n            _feeManager,\n            _homeFeeForeignFeeArray,\n            _decimalShift\n        );\n        setInitialize();\n\n        return isInitialized();\n    }\n\n    function _rewardableInitialize(\n        address _validatorContract,\n        uint256[3] _dailyLimitMaxPerTxMinPerTxArray, // [ 0 = _dailyLimit, 1 = _maxPerTx, 2 = _minPerTx ]\n        uint256 _homeGasPrice,\n        uint256 _requiredBlockConfirmations,\n        address _erc677token,\n        uint256[2] _foreignDailyLimitForeignMaxPerTxArray, // [ 0 = _foreignDailyLimit, 1 = _foreignMaxPerTx ]\n        address _owner,\n        address _feeManager,\n        uint256[2] _homeFeeForeignFeeArray, // [ 0 = _homeFee, 1 = _foreignFee ]\n        int256 _decimalShift\n    ) internal {\n        _initialize(\n            _validatorContract,\n            _dailyLimitMaxPerTxMinPerTxArray,\n            _homeGasPrice,\n            _requiredBlockConfirmations,\n            _erc677token,\n            _foreignDailyLimitForeignMaxPerTxArray,\n            _owner,\n            _decimalShift\n        );\n        require(AddressUtils.isContract(_feeManager));\n        addressStorage[FEE_MANAGER_CONTRACT] = _feeManager;\n        _setFee(_feeManager, _homeFeeForeignFeeArray[0], HOME_FEE);\n        _setFee(_feeManager, _homeFeeForeignFeeArray[1], FOREIGN_FEE);\n    }\n\n    function _initialize(\n        address _validatorContract,\n        uint256[3] _dailyLimitMaxPerTxMinPerTxArray, // [ 0 = _dailyLimit, 1 = _maxPerTx, 2 = _minPerTx ]\n        uint256 _homeGasPrice,\n        uint256 _requiredBlockConfirmations,\n        address _erc677token,\n        uint256[2] _foreignDailyLimitForeignMaxPerTxArray, // [ 0 = _foreignDailyLimit, 1 = _foreignMaxPerTx ]\n        address _owner,\n        int256 _decimalShift\n    ) internal {\n        require(!isInitialized());\n        require(AddressUtils.isContract(_validatorContract));\n\n        addressStorage[VALIDATOR_CONTRACT] = _validatorContract;\n        uintStorage[DEPLOYED_AT_BLOCK] = block.number;\n        _setLimits(_dailyLimitMaxPerTxMinPerTxArray);\n        _setGasPrice(_homeGasPrice);\n        _setRequiredBlockConfirmations(_requiredBlockConfirmations);\n        _setExecutionLimits(_foreignDailyLimitForeignMaxPerTxArray);\n        _setDecimalShift(_decimalShift);\n        _setOwner(_owner);\n        setErc677token(_erc677token);\n    }\n\n    /**\n     * @dev Withdraws erc20 tokens or native coins from the token contract. It is required since the bridge contract is the owner of the token contract.\n     * @param _token address of the claimed token or address(0) for native coins.\n     * @param _to address of the tokens/coins receiver.\n     */\n    function claimTokensFromErc677(address _token, address _to) external onlyIfUpgradeabilityOwner {\n        IBurnableMintableERC677Token(erc677token()).claimTokens(_token, _to);\n    }\n\n    function getBridgeMode() external pure returns (bytes4 _data) {\n        return 0xba4690f5; // bytes4(keccak256(abi.encodePacked(\"erc-to-erc-core\")))\n    }\n\n    /**\n     * @dev Internal callback to be called on successfull message execution.\n     * Should be called only after enough affirmations from the validators are already collected.\n     * @param _recipient address of the receiver where the new tokens should be minted.\n     * @param _value amount of tokens to mint.\n     * @param _txHash reference transaction hash on the Foreign side of the bridge which cause this operation.\n     * @param _hashMsg unique identifier of the particular bridge operation.\n     * @return true, if execution completed successfully.\n     */\n    function onExecuteAffirmation(address _recipient, uint256 _value, bytes32 _txHash, bytes32 _hashMsg)\n        internal\n        returns (bool)\n    {\n        _clearAboveLimitsMarker(_hashMsg, _value);\n        addTotalExecutedPerDay(getCurrentDay(), _value);\n        uint256 valueToMint = _shiftValue(_value);\n        address feeManager = feeManagerContract();\n        if (feeManager != address(0)) {\n            uint256 fee = calculateFee(valueToMint, false, feeManager, FOREIGN_FEE);\n            distributeFeeFromAffirmation(fee, feeManager, _txHash);\n            valueToMint = valueToMint.sub(fee);\n        }\n        return IBurnableMintableERC677Token(erc677token()).mint(_recipient, valueToMint);\n    }\n\n    function fireEventOnTokenTransfer(address _from, uint256 _value) internal {\n        uint256 valueToTransfer = _value;\n        address feeManager = feeManagerContract();\n        if (feeManager != address(0)) {\n            uint256 fee = calculateFee(valueToTransfer, false, feeManager, HOME_FEE);\n            valueToTransfer = valueToTransfer.sub(fee);\n        }\n        emit UserRequestForSignature(_from, valueToTransfer);\n    }\n\n    /**\n     * @dev Internal function to be called when enough signatures are collected.\n     * Distributed the fee for collecting signatures.\n     * @param _message encoded message signed by the validators.\n     */\n    function onSignaturesCollected(bytes _message) internal {\n        address feeManager = feeManagerContract();\n        if (feeManager != address(0)) {\n            (, uint256 amount, bytes32 txHash, ) = Message.parseMessage(_message);\n            uint256 fee = calculateFee(amount, true, feeManager, HOME_FEE);\n            distributeFeeFromSignatures(fee, feeManager, txHash);\n        }\n    }\n\n    /**\n     * @dev Internal callback to be called on failed message execution due to the out-of-limits error.\n     * This function saves the bridge operation information for further processing.\n     * @param _recipient address of the receiver where the new tokens should be minted.\n     * @param _value amount of tokens to mint.\n     * @param _txHash reference transaction hash on the Foreign side of the bridge which cause this operation.\n     * @param _hashMsg unique identifier of the particular bridge operation.\n     */\n    function onFailedAffirmation(address _recipient, uint256 _value, bytes32 _txHash, bytes32 _hashMsg) internal {\n        (address recipient, uint256 value) = txAboveLimits(_hashMsg);\n        require(recipient == address(0) && value == 0);\n        setOutOfLimitAmount(outOfLimitAmount().add(_value));\n        setTxAboveLimits(_recipient, _value, _hashMsg);\n        emit AmountLimitExceeded(_recipient, _value, _txHash, _hashMsg);\n    }\n}\n",
  "sourcePath": "/Users/max/Projects/Symblox/TokenBridge/tokenbridge/contracts/contracts/upgradeable_contracts/erc20_to_erc20/HomeBridgeErcToErc.sol",
  "compiler": {
    "name": "solc",
    "version": "0.4.24+commit.e67f0147.Emscripten.clang"
  },
  "schemaVersion": "3.1.0",
  "updatedAt": "2020-11-26T16:22:39.951Z",
  "devdoc": {
    "methods": {
      "claimTokensFromErc677(address,address)": {
        "details": "Withdraws erc20 tokens or native coins from the token contract. It is required since the bridge contract is the owner of the token contract.",
        "params": {
          "_to": "address of the tokens/coins receiver.",
          "_token": "address of the claimed token or address(0) for native coins."
        }
      },
      "decimalShift()": {
        "details": "Returns the value of foreign-to-home decimal shift.",
        "return": "decimal shift."
      },
      "executeAffirmation(address,uint256,bytes32)": {
        "details": "Executes a message affirmation for some Foreign side event. Can be called only by a current bridge validator.",
        "params": {
          "recipient": "tokens/coins of receiver address, where the assets should be unlocked/minted.",
          "transactionHash": "reference event transaction hash on the Foreign side of the bridge.",
          "value": "amount of assets to unlock/mint."
        }
      },
      "feeManagerContract()": {
        "details": "Retrieves the address of the fee manager contract used.",
        "return": "address of the fee manager contract."
      },
      "fixAssetsAboveLimits(bytes32,bool,uint256)": {
        "details": "Fixes locked tokens, that were out of execution limits during the call to executeAffirmation.",
        "params": {
          "hashMsg": "reference for bridge operation that was out of execution limits.",
          "unlockOnForeign": "true if fixed tokens should be unlocked to the other side of the bridge.",
          "valueToUnlock": "unlocked amount of tokens, should be less than txAboveLimitsValue. Should be less than maxPerTx(), if tokens need to be unlocked on the other side."
        }
      },
      "getFeeManagerMode()": {
        "details": "Retrieves the mode of the used fee manager.",
        "return": "manager mode identifier, or zero bytes otherwise."
      },
      "maxAvailablePerTx()": {
        "details": "Retrieves maximum available bridge amount per one transaction taking into account maxPerTx() and dailyLimit() parameters.",
        "return": "minimum of maxPerTx parameter and remaining daily quota."
      },
      "outOfLimitAmount()": {
        "details": "Total amount coins/tokens that were bridged from the other side and are out of execution limits.",
        "return": "total amount of all bridge operations above limits."
      },
      "owner()": {
        "details": "Tells the address of the owner",
        "return": "the address of the owner"
      },
      "setFeeManagerContract(address)": {
        "details": "Updates the address of the used fee manager contract. Only contract owner can call this method. If during this operation, home fee is changed, it is highly recommended to stop the bridge operations first. Otherwise, pending signature requests can become a reason for imbalance between two bridge sides.",
        "params": {
          "_feeManager": "address of the new fee manager contract, or zero address to disable fee collection."
        }
      },
      "setForeignFee(uint256)": {
        "details": "Updates the fee percentage for foreign->home bridge operations. Only owner is allowed to call this method.",
        "params": {
          "_fee": "new value for fee percentage."
        }
      },
      "setGasPrice(uint256)": {
        "details": "Public setter for fallback gas price value. Only bridge owner can call this method.",
        "params": {
          "_gasPrice": "new value for the gas price."
        }
      },
      "setHomeFee(uint256)": {
        "details": "Updates the fee percentage for home->foreign bridge operations. Only owner is allowed to call this method. If during this operation, home fee is changed, it is highly recommended to stop the bridge operations first. Otherwise, pending signature requests can become a reason for imbalance between two bridge sides.",
        "params": {
          "_fee": "new value for fee percentage."
        }
      },
      "transferOwnership(address)": {
        "details": "Allows the current owner to transfer control of the contract to a newOwner.",
        "params": {
          "newOwner": "the address to transfer ownership to."
        }
      }
    },
    "title": "HomeBridgeErcToErc"
  },
  "userdoc": {
    "methods": {}
  }
}