{
  "contractName": "HomeStakeTokenMediator",
  "abi": [
    {
      "constant": false,
      "inputs": [
        {
          "name": "_receiver",
          "type": "address"
        },
        {
          "name": "_value",
          "type": "uint256"
        }
      ],
      "name": "relayTokens",
      "outputs": [],
      "payable": false,
      "stateMutability": "nonpayable",
      "type": "function"
    },
    {
      "constant": false,
      "inputs": [
        {
          "name": "_messageId",
          "type": "bytes32"
        }
      ],
      "name": "fixFailedMessage",
      "outputs": [],
      "payable": false,
      "stateMutability": "nonpayable",
      "type": "function"
    },
    {
      "constant": false,
      "inputs": [
        {
          "name": "_bridgeContract",
          "type": "address"
        }
      ],
      "name": "setBridgeContract",
      "outputs": [],
      "payable": false,
      "stateMutability": "nonpayable",
      "type": "function"
    },
    {
      "constant": true,
      "inputs": [],
      "name": "erc677token",
      "outputs": [
        {
          "name": "",
          "type": "address"
        }
      ],
      "payable": false,
      "stateMutability": "view",
      "type": "function"
    },
    {
      "constant": true,
      "inputs": [],
      "name": "isFeeCollectingActivated",
      "outputs": [
        {
          "name": "",
          "type": "bool"
        }
      ],
      "payable": false,
      "stateMutability": "view",
      "type": "function"
    },
    {
      "constant": false,
      "inputs": [
        {
          "name": "_blockReward",
          "type": "address"
        }
      ],
      "name": "setBlockRewardContract",
      "outputs": [],
      "payable": false,
      "stateMutability": "nonpayable",
      "type": "function"
    },
    {
      "constant": true,
      "inputs": [
        {
          "name": "_day",
          "type": "uint256"
        }
      ],
      "name": "totalSpentPerDay",
      "outputs": [
        {
          "name": "",
          "type": "uint256"
        }
      ],
      "payable": false,
      "stateMutability": "view",
      "type": "function"
    },
    {
      "constant": true,
      "inputs": [],
      "name": "isInitialized",
      "outputs": [
        {
          "name": "",
          "type": "bool"
        }
      ],
      "payable": false,
      "stateMutability": "view",
      "type": "function"
    },
    {
      "constant": false,
      "inputs": [
        {
          "name": "_dailyLimit",
          "type": "uint256"
        }
      ],
      "name": "setExecutionDailyLimit",
      "outputs": [],
      "payable": false,
      "stateMutability": "nonpayable",
      "type": "function"
    },
    {
      "constant": true,
      "inputs": [],
      "name": "getCurrentDay",
      "outputs": [
        {
          "name": "",
          "type": "uint256"
        }
      ],
      "payable": false,
      "stateMutability": "view",
      "type": "function"
    },
    {
      "constant": true,
      "inputs": [],
      "name": "getBridgeMode",
      "outputs": [
        {
          "name": "_data",
          "type": "bytes4"
        }
      ],
      "payable": false,
      "stateMutability": "pure",
      "type": "function"
    },
    {
      "constant": true,
      "inputs": [],
      "name": "executionDailyLimit",
      "outputs": [
        {
          "name": "",
          "type": "uint256"
        }
      ],
      "payable": false,
      "stateMutability": "view",
      "type": "function"
    },
    {
      "constant": true,
      "inputs": [
        {
          "name": "_day",
          "type": "uint256"
        }
      ],
      "name": "totalExecutedPerDay",
      "outputs": [
        {
          "name": "",
          "type": "uint256"
        }
      ],
      "payable": false,
      "stateMutability": "view",
      "type": "function"
    },
    {
      "constant": true,
      "inputs": [],
      "name": "blockRewardContract",
      "outputs": [
        {
          "name": "",
          "type": "address"
        }
      ],
      "payable": false,
      "stateMutability": "view",
      "type": "function"
    },
    {
      "constant": true,
      "inputs": [
        {
          "name": "_messageId",
          "type": "bytes32"
        }
      ],
      "name": "messageFixed",
      "outputs": [
        {
          "name": "",
          "type": "bool"
        }
      ],
      "payable": false,
      "stateMutability": "view",
      "type": "function"
    },
    {
      "constant": true,
      "inputs": [],
      "name": "dailyLimit",
      "outputs": [
        {
          "name": "",
          "type": "uint256"
        }
      ],
      "payable": false,
      "stateMutability": "view",
      "type": "function"
    },
    {
      "constant": false,
      "inputs": [
        {
          "name": "_fee",
          "type": "uint256"
        }
      ],
      "name": "setFee",
      "outputs": [],
      "payable": false,
      "stateMutability": "nonpayable",
      "type": "function"
    },
    {
      "constant": false,
      "inputs": [
        {
          "name": "_mediatorContract",
          "type": "address"
        }
      ],
      "name": "setMediatorContractOnOtherSide",
      "outputs": [],
      "payable": false,
      "stateMutability": "nonpayable",
      "type": "function"
    },
    {
      "constant": true,
      "inputs": [],
      "name": "mediatorContractOnOtherSide",
      "outputs": [
        {
          "name": "",
          "type": "address"
        }
      ],
      "payable": false,
      "stateMutability": "view",
      "type": "function"
    },
    {
      "constant": true,
      "inputs": [
        {
          "name": "_amount",
          "type": "uint256"
        }
      ],
      "name": "withinExecutionLimit",
      "outputs": [
        {
          "name": "",
          "type": "bool"
        }
      ],
      "payable": false,
      "stateMutability": "view",
      "type": "function"
    },
    {
      "constant": true,
      "inputs": [],
      "name": "executionMaxPerTx",
      "outputs": [
        {
          "name": "",
          "type": "uint256"
        }
      ],
      "payable": false,
      "stateMutability": "view",
      "type": "function"
    },
    {
      "constant": false,
      "inputs": [
        {
          "name": "_recipient",
          "type": "address"
        },
        {
          "name": "_value",
          "type": "uint256"
        }
      ],
      "name": "handleBridgedTokens",
      "outputs": [],
      "payable": false,
      "stateMutability": "nonpayable",
      "type": "function"
    },
    {
      "constant": true,
      "inputs": [],
      "name": "owner",
      "outputs": [
        {
          "name": "",
          "type": "address"
        }
      ],
      "payable": false,
      "stateMutability": "view",
      "type": "function"
    },
    {
      "constant": true,
      "inputs": [],
      "name": "maxAvailablePerTx",
      "outputs": [
        {
          "name": "",
          "type": "uint256"
        }
      ],
      "payable": false,
      "stateMutability": "view",
      "type": "function"
    },
    {
      "constant": true,
      "inputs": [
        {
          "name": "_value",
          "type": "uint256"
        }
      ],
      "name": "calculateFee",
      "outputs": [
        {
          "name": "",
          "type": "uint256"
        }
      ],
      "payable": false,
      "stateMutability": "view",
      "type": "function"
    },
    {
      "constant": false,
      "inputs": [
        {
          "name": "_messageId",
          "type": "bytes32"
        }
      ],
      "name": "requestFailedMessageFix",
      "outputs": [],
      "payable": false,
      "stateMutability": "nonpayable",
      "type": "function"
    },
    {
      "constant": true,
      "inputs": [],
      "name": "getBridgeInterfacesVersion",
      "outputs": [
        {
          "name": "major",
          "type": "uint64"
        },
        {
          "name": "minor",
          "type": "uint64"
        },
        {
          "name": "patch",
          "type": "uint64"
        }
      ],
      "payable": false,
      "stateMutability": "pure",
      "type": "function"
    },
    {
      "constant": true,
      "inputs": [],
      "name": "outOfLimitAmount",
      "outputs": [
        {
          "name": "",
          "type": "uint256"
        }
      ],
      "payable": false,
      "stateMutability": "view",
      "type": "function"
    },
    {
      "constant": false,
      "inputs": [
        {
          "name": "_minPerTx",
          "type": "uint256"
        }
      ],
      "name": "setMinPerTx",
      "outputs": [],
      "payable": false,
      "stateMutability": "nonpayable",
      "type": "function"
    },
    {
      "constant": false,
      "inputs": [
        {
          "name": "_from",
          "type": "address"
        },
        {
          "name": "_value",
          "type": "uint256"
        },
        {
          "name": "_data",
          "type": "bytes"
        }
      ],
      "name": "onTokenTransfer",
      "outputs": [
        {
          "name": "",
          "type": "bool"
        }
      ],
      "payable": false,
      "stateMutability": "nonpayable",
      "type": "function"
    },
    {
      "constant": false,
      "inputs": [
        {
          "name": "messageId",
          "type": "bytes32"
        },
        {
          "name": "unlockOnOtherSide",
          "type": "bool"
        },
        {
          "name": "valueToUnlock",
          "type": "uint256"
        }
      ],
      "name": "fixAssetsAboveLimits",
      "outputs": [],
      "payable": false,
      "stateMutability": "nonpayable",
      "type": "function"
    },
    {
      "constant": false,
      "inputs": [
        {
          "name": "_dailyLimit",
          "type": "uint256"
        }
      ],
      "name": "setDailyLimit",
      "outputs": [],
      "payable": false,
      "stateMutability": "nonpayable",
      "type": "function"
    },
    {
      "constant": true,
      "inputs": [],
      "name": "requestGasLimit",
      "outputs": [
        {
          "name": "",
          "type": "uint256"
        }
      ],
      "payable": false,
      "stateMutability": "view",
      "type": "function"
    },
    {
      "constant": false,
      "inputs": [
        {
          "name": "_maxPerTx",
          "type": "uint256"
        }
      ],
      "name": "setMaxPerTx",
      "outputs": [],
      "payable": false,
      "stateMutability": "nonpayable",
      "type": "function"
    },
    {
      "constant": true,
      "inputs": [],
      "name": "bridgeContract",
      "outputs": [
        {
          "name": "",
          "type": "address"
        }
      ],
      "payable": false,
      "stateMutability": "view",
      "type": "function"
    },
    {
      "constant": true,
      "inputs": [],
      "name": "getFee",
      "outputs": [
        {
          "name": "",
          "type": "uint256"
        }
      ],
      "payable": false,
      "stateMutability": "view",
      "type": "function"
    },
    {
      "constant": true,
      "inputs": [],
      "name": "decimalShift",
      "outputs": [
        {
          "name": "",
          "type": "int256"
        }
      ],
      "payable": false,
      "stateMutability": "view",
      "type": "function"
    },
    {
      "constant": true,
      "inputs": [],
      "name": "minPerTx",
      "outputs": [
        {
          "name": "",
          "type": "uint256"
        }
      ],
      "payable": false,
      "stateMutability": "view",
      "type": "function"
    },
    {
      "constant": true,
      "inputs": [
        {
          "name": "_amount",
          "type": "uint256"
        }
      ],
      "name": "withinLimit",
      "outputs": [
        {
          "name": "",
          "type": "bool"
        }
      ],
      "payable": false,
      "stateMutability": "view",
      "type": "function"
    },
    {
      "constant": false,
      "inputs": [
        {
          "name": "_maxPerTx",
          "type": "uint256"
        }
      ],
      "name": "setExecutionMaxPerTx",
      "outputs": [],
      "payable": false,
      "stateMutability": "nonpayable",
      "type": "function"
    },
    {
      "constant": false,
      "inputs": [
        {
          "name": "newOwner",
          "type": "address"
        }
      ],
      "name": "transferOwnership",
      "outputs": [],
      "payable": false,
      "stateMutability": "nonpayable",
      "type": "function"
    },
    {
      "constant": false,
      "inputs": [
        {
          "name": "_requestGasLimit",
          "type": "uint256"
        }
      ],
      "name": "setRequestGasLimit",
      "outputs": [],
      "payable": false,
      "stateMutability": "nonpayable",
      "type": "function"
    },
    {
      "constant": true,
      "inputs": [],
      "name": "maxPerTx",
      "outputs": [
        {
          "name": "",
          "type": "uint256"
        }
      ],
      "payable": false,
      "stateMutability": "view",
      "type": "function"
    },
    {
      "anonymous": false,
      "inputs": [
        {
          "indexed": false,
          "name": "fee",
          "type": "uint256"
        }
      ],
      "name": "FeeUpdated",
      "type": "event"
    },
    {
      "anonymous": false,
      "inputs": [
        {
          "indexed": true,
          "name": "messageId",
          "type": "bytes32"
        },
        {
          "indexed": false,
          "name": "recipient",
          "type": "address"
        },
        {
          "indexed": false,
          "name": "value",
          "type": "uint256"
        }
      ],
      "name": "FailedMessageFixed",
      "type": "event"
    },
    {
      "anonymous": false,
      "inputs": [
        {
          "indexed": true,
          "name": "recipient",
          "type": "address"
        },
        {
          "indexed": false,
          "name": "value",
          "type": "uint256"
        },
        {
          "indexed": true,
          "name": "messageId",
          "type": "bytes32"
        }
      ],
      "name": "TokensBridged",
      "type": "event"
    },
    {
      "anonymous": false,
      "inputs": [
        {
          "indexed": false,
          "name": "newLimit",
          "type": "uint256"
        }
      ],
      "name": "DailyLimitChanged",
      "type": "event"
    },
    {
      "anonymous": false,
      "inputs": [
        {
          "indexed": false,
          "name": "newLimit",
          "type": "uint256"
        }
      ],
      "name": "ExecutionDailyLimitChanged",
      "type": "event"
    },
    {
      "anonymous": false,
      "inputs": [
        {
          "indexed": false,
          "name": "previousOwner",
          "type": "address"
        },
        {
          "indexed": false,
          "name": "newOwner",
          "type": "address"
        }
      ],
      "name": "OwnershipTransferred",
      "type": "event"
    },
    {
      "anonymous": false,
      "inputs": [
        {
          "indexed": false,
          "name": "recipient",
          "type": "address"
        },
        {
          "indexed": false,
          "name": "value",
          "type": "uint256"
        },
        {
          "indexed": true,
          "name": "messageId",
          "type": "bytes32"
        }
      ],
      "name": "MediatorAmountLimitExceeded",
      "type": "event"
    },
    {
      "anonymous": false,
      "inputs": [
        {
          "indexed": false,
          "name": "recipient",
          "type": "address"
        },
        {
          "indexed": false,
          "name": "value",
          "type": "uint256"
        },
        {
          "indexed": true,
          "name": "transactionHash",
          "type": "bytes32"
        },
        {
          "indexed": false,
          "name": "messageId",
          "type": "bytes32"
        }
      ],
      "name": "AmountLimitExceeded",
      "type": "event"
    },
    {
      "anonymous": false,
      "inputs": [
        {
          "indexed": true,
          "name": "messageId",
          "type": "bytes32"
        },
        {
          "indexed": false,
          "name": "value",
          "type": "uint256"
        },
        {
          "indexed": false,
          "name": "remaining",
          "type": "uint256"
        }
      ],
      "name": "AssetAboveLimitsFixed",
      "type": "event"
    },
    {
      "constant": false,
      "inputs": [
        {
          "name": "_bridgeContract",
          "type": "address"
        },
        {
          "name": "_mediatorContract",
          "type": "address"
        },
        {
          "name": "_erc677token",
          "type": "address"
        },
        {
          "name": "_dailyLimitMaxPerTxMinPerTxArray",
          "type": "uint256[3]"
        },
        {
          "name": "_executionDailyLimitExecutionMaxPerTxArray",
          "type": "uint256[2]"
        },
        {
          "name": "_requestGasLimit",
          "type": "uint256"
        },
        {
          "name": "_decimalShift",
          "type": "int256"
        },
        {
          "name": "_owner",
          "type": "address"
        }
      ],
      "name": "initialize",
      "outputs": [
        {
          "name": "",
          "type": "bool"
        }
      ],
      "payable": false,
      "stateMutability": "nonpayable",
      "type": "function"
    },
    {
      "constant": false,
      "inputs": [
        {
          "name": "_bridgeContract",
          "type": "address"
        },
        {
          "name": "_mediatorContract",
          "type": "address"
        },
        {
          "name": "_erc677token",
          "type": "address"
        },
        {
          "name": "_dailyLimitMaxPerTxMinPerTxArray",
          "type": "uint256[3]"
        },
        {
          "name": "_executionDailyLimitExecutionMaxPerTxArray",
          "type": "uint256[2]"
        },
        {
          "name": "_requestGasLimit",
          "type": "uint256"
        },
        {
          "name": "_decimalShift",
          "type": "int256"
        },
        {
          "name": "_owner",
          "type": "address"
        },
        {
          "name": "_blockReward",
          "type": "address"
        },
        {
          "name": "_fee",
          "type": "uint256"
        }
      ],
      "name": "rewardableInitialize",
      "outputs": [
        {
          "name": "",
          "type": "bool"
        }
      ],
      "payable": false,
      "stateMutability": "nonpayable",
      "type": "function"
    },
    {
      "constant": false,
      "inputs": [
        {
          "name": "_owner",
          "type": "address"
        }
      ],
      "name": "transferTokenOwnership",
      "outputs": [],
      "payable": false,
      "stateMutability": "nonpayable",
      "type": "function"
    },
    {
      "constant": false,
      "inputs": [
        {
          "name": "_mintHandler",
          "type": "address"
        }
      ],
      "name": "setMintHandler",
      "outputs": [],
      "payable": false,
      "stateMutability": "nonpayable",
      "type": "function"
    },
    {
      "constant": true,
      "inputs": [],
      "name": "getMintHandler",
      "outputs": [
        {
          "name": "",
          "type": "address"
        }
      ],
      "payable": false,
      "stateMutability": "view",
      "type": "function"
    },
    {
      "constant": false,
      "inputs": [
        {
          "name": "_token",
          "type": "address"
        },
        {
          "name": "_to",
          "type": "address"
        }
      ],
      "name": "claimTokens",
      "outputs": [],
      "payable": false,
      "stateMutability": "nonpayable",
      "type": "function"
    }
  ],
  "bytecode": "0x608060405234801561001057600080fd5b50613c02806100206000396000f3006080604052600436106102375763ffffffff60e060020a60003504166301e4f53a811461023c5780630950d515146102625780630b26cf661461027a57806318d8f9c91461029b5780631c86a526146102cc57806321e6b53d146102f557806327a3e16b146103165780632bd0bb0514610337578063392e53cd146103615780633dd95d1b146103765780633e6968b61461038e578063437764df146103a357806343b37dd3146103ea5780634fb3fef7146103ff57806356b54bae14610417578063593399821461042c57806367eeba0c1461044457806369fe0e2d1461045957806369ffa08a146104715780636e5d6bea1461049857806370f62449146104b957806378aceaf2146104da578063871c0760146104ef578063879ce676146105045780638aa1949a1461051c5780638b6c0354146105315780638da5cb5b1461055557806395e54a171461056a57806399a5d7471461057f5780639a4a4395146105975780639cb7595a146105af578063a0189345146105f0578063a2a6ca2714610605578063a4c0ed361461061d578063a7444c0d1461064e578063b20d30a91461066e578063b578648314610686578063be3b625b146106d5578063c0b0d022146106ea578063c6f6f2161461077f578063cd59658314610797578063ced72f87146107ac578063dae5f0fd146107c1578063df25f3f0146107d6578063ea9f4968146107eb578063f20151e114610803578063f2fde38b1461081b578063f3b837911461083c578063f968adbe14610854575b600080fd5b34801561024857600080fd5b50610260600160a060020a0360043516602435610869565b005b34801561026e57600080fd5b506102606004356109b5565b34801561028657600080fd5b50610260600160a060020a0360043516610a84565b3480156102a757600080fd5b506102b0610aac565b60408051600160a060020a039092168252519081900360200190f35b3480156102d857600080fd5b506102e1610abb565b604080519115158252519081900360200190f35b34801561030157600080fd5b50610260600160a060020a0360043516610ae8565b34801561032257600080fd5b50610260600160a060020a0360043516610b81565b34801561034357600080fd5b5061034f600435610ba6565b60408051918252519081900360200190f35b34801561036d57600080fd5b506102e1610c63565b34801561038257600080fd5b50610260600435610cb4565b34801561039a57600080fd5b5061034f610d74565b3480156103af57600080fd5b506103b8610d7d565b604080517bffffffffffffffffffffffffffffffffffffffffffffffffffffffff199092168252519081900360200190f35b3480156103f657600080fd5b5061034f610da1565b34801561040b57600080fd5b5061034f600435610def565b34801561042357600080fd5b506102b0610e6a565b34801561043857600080fd5b506102e1600435610e74565b34801561045057600080fd5b5061034f610f3d565b34801561046557600080fd5b50610260600435610f8b565b34801561047d57600080fd5b50610260600160a060020a0360043581169060243516610fb0565b3480156104a457600080fd5b50610260600160a060020a036004351661103c565b3480156104c557600080fd5b50610260600160a060020a0360043516611061565b3480156104e657600080fd5b506102b06110fb565b3480156104fb57600080fd5b506102b0611152565b34801561051057600080fd5b506102e16004356111a9565b34801561052857600080fd5b5061034f6111f3565b34801561053d57600080fd5b50610260600160a060020a0360043516602435611241565b34801561056157600080fd5b506102b06112c1565b34801561057657600080fd5b5061034f611318565b34801561058b57600080fd5b5061034f600435611372565b3480156105a357600080fd5b506102606004356113aa565b3480156105bb57600080fd5b506105c46116df565b6040805167ffffffffffffffff9485168152928416602084015292168183015290519081900360600190f35b3480156105fc57600080fd5b5061034f6116ea565b34801561061157600080fd5b50610260600435611738565b34801561062957600080fd5b506102e160048035600160a060020a03169060248035916044359182019101356117d4565b34801561065a57600080fd5b506102606004356024351515604435611871565b34801561067a57600080fd5b506102606004356119d4565b34801561069257600080fd5b506102e1600160a060020a0360043581169060243581169060443581169060649060c4906101043590610124359061014435811690610164351661018435611a94565b3480156106e157600080fd5b5061034f611b07565b3480156106f657600080fd5b506040805160608181019092526102e191600160a060020a03600480358216936024358316936044359093169236929160c49160649060039083908390808284375050604080518082018252949796958181019594509250600291508390839080828437509396505083359450505060208201359160400135600160a060020a03169050611b55565b34801561078b57600080fd5b50610260600435611bd7565b3480156107a357600080fd5b506102b0611c6f565b3480156107b857600080fd5b5061034f611cc6565b3480156107cd57600080fd5b5061034f611d14565b3480156107e257600080fd5b5061034f611d62565b3480156107f757600080fd5b506102e1600435611db0565b34801561080f57600080fd5b50610260600435611dfb565b34801561082757600080fd5b50610260600160a060020a0360043516611e77565b34801561084857600080fd5b50610260600435611e9c565b34801561086057600080fd5b5061034f611ec1565b600080610874611f0f565b1561087e57600080fd5b610886610aac565b915030905061089483611db0565b151561089f57600080fd5b6108b06108aa610d74565b84611f60565b6108ba6001612029565b604080517f23b872dd000000000000000000000000000000000000000000000000000000008152336004820152600160a060020a038381166024830152604482018690529151918416916323b872dd916064808201926020929091908290030181600087803b15801561092c57600080fd5b505af1158015610940573d6000803e3d6000fd5b505050506040513d602081101561095657600080fd5b5061096390506000612029565b6109af823385876040516020018082600160a060020a0316600160a060020a03166c01000000000000000000000000028152601401915050604051602081830303815290604052612084565b50505050565b6000806109c0611c6f565b600160a060020a031633146109d457600080fd5b6109dc611152565b600160a060020a03166109ed61215b565b600160a060020a031614610a0057600080fd5b610a0983610e74565b15610a1357600080fd5b610a1c836121d3565b9150610a27836122a2565b9050610a3283612325565b610a3c82826123f7565b60408051600160a060020a038416815260208101839052815185927f06297b0797e3363e96e454edd4ab62862051bf559a7a431ce09415306771d133928290030190a2505050565b610a8c6112c1565b600160a060020a03163314610aa057600080fd5b610aa98161248b565b50565b6000610ab6612509565b905090565b600080610ac6612560565b600160a060020a031614158015610ab657506000610ae2611cc6565b11905090565b610af06112c1565b600160a060020a03163314610b0457600080fd5b610b0c610aac565b600160a060020a031663f2fde38b826040518263ffffffff1660e060020a0281526004018082600160a060020a0316600160a060020a03168152602001915050600060405180830381600087803b158015610b6657600080fd5b505af1158015610b7a573d6000803e3d6000fd5b5050505050565b610b896112c1565b600160a060020a03163314610b9d57600080fd5b610aa9816125b7565b60008060008360405160200180807f746f74616c5370656e74506572446179000000000000000000000000000000008152506010018281526020019150506040516020818303038152906040526040518082805190602001908083835b60208310610c225780518252601f199092019160209182019101610c03565b51815160209384036101000a600019018019909216911617905260408051929094018290039091208652850195909552929092016000205495945050505050565b7f0a6f646cd611241d8073675e00d1a1ff700fbf1b53fcf473de56d1e6e4b714ba60005260046020527f078d888f9b66f3f8bfa10909e31f1e16240db73449f0500afdbbe3a70da457cc5460ff1690565b610cbc6112c1565b600160a060020a03163314610cd057600080fd5b610cd86111f3565b811180610ce3575080155b1515610cee57600080fd5b7f21dbcab260e413c20dc13c28b7db95e2b423d1135f42bb8b7d5214a92270d237600090815260209081527fadd938dbd083a16bae12238cd914fca0afc7a30edb55b1cd5c7f1823f1b0e4218290556040805183815290517f9bebf928b90863f24cc31f726a3a7545efd409f1dcf552301b1ee3710da70d3b929181900390910190a150565b62015180420490565b7f16ea01e90000000000000000000000000000000000000000000000000000000090565b7f21dbcab260e413c20dc13c28b7db95e2b423d1135f42bb8b7d5214a92270d23760009081526020527fadd938dbd083a16bae12238cd914fca0afc7a30edb55b1cd5c7f1823f1b0e4215490565b60008060008360405160200180807f746f74616c45786563757465645065724461790000000000000000000000000081525060130182815260200191505060405160208183030381529060405260405180828051906020019080838360208310610c225780518252601f199092019160209182019101610c03565b6000610ab6612560565b6000600460008360405160200180807f6d65737361676546697865640000000000000000000000000000000000000000815250600c0182600019166000191681526020019150506040516020818303038152906040526040518082805190602001908083835b60208310610ef95780518252601f199092019160209182019101610eda565b51815160209384036101000a600019018019909216911617905260408051929094018290039091208652850195909552929092016000205460ff1695945050505050565b7f4a6a899679f26b73530d8cf1001e83b6f7702e04b6fdb98f3c62dc7e47e041a560009081526020527f1ab29a5cca988aee50edccdd61c5bcaa7ad4b29a03b7ee50f298ceccfe14cc4e5490565b610f936112c1565b600160a060020a03163314610fa757600080fd5b610aa981612818565b30600160a060020a0316636fde82026040518163ffffffff1660e060020a028152600401602060405180830381600087803b158015610fee57600080fd5b505af1158015611002573d6000803e3d6000fd5b505050506040513d602081101561101857600080fd5b5051600160a060020a0316331461102e57600080fd5b61103882826128b2565b5050565b6110446112c1565b600160a060020a0316331461105857600080fd5b610aa9816128f5565b6110696112c1565b600160a060020a0316331461107d57600080fd5b6110868161295f565b151561109157600080fd5b7f8a8236f871f2bbb44f59e8c68b82f7587d19c987e09aba39148cc97ea004a32e60005260026020527ff5de62257e76692f16fec877f26599010536c0cb971bab5dd0f47f8f1a66c7bf8054600160a060020a031916600160a060020a0392909216919091179055565b7f8a8236f871f2bbb44f59e8c68b82f7587d19c987e09aba39148cc97ea004a32e60005260026020527ff5de62257e76692f16fec877f26599010536c0cb971bab5dd0f47f8f1a66c7bf54600160a060020a031690565b7f98aa806e31e94a687a31c65769cb99670064dd7f5a87526da075c5fb4eab988060005260026020527f0c1206883be66049a02d4937078367c00b3d71dd1a9465df969363c6ddeac96d54600160a060020a031690565b6000806111cc836111c06111bb610d74565b610def565b9063ffffffff61296716565b9050806111d7610da1565b101580156111ec57506111e86111f3565b8311155b9392505050565b7fc0ed44c192c86d1cc1ba51340b032c2766b4a2b0041031de13c46dd7104888d560009081526020527ff8e983ee86e5e377e9e34c9131b266382c3f04113d20de077f9e12663c7a646b5490565b611249611c6f565b600160a060020a0316331461125d57600080fd5b611265611152565b600160a060020a031661127661215b565b600160a060020a03161461128957600080fd5b611292816111a9565b156112b7576112a86112a2610d74565b82612974565b6112b282826129fa565b611038565b6110388282612aee565b7f02016836a56b71f0d02689e69e326f4f4c1b9057164ef592671cf0d37c8040c060005260026020527fb7802e97e87ef2842a6cce7da7ffaeaedaa2f61a6a7870b23d9d01fc9b73712e54600160a060020a031690565b6000806000806000611328611ec1565b9350611332610f3d565b925061134461133f610d74565b610ba6565b9150818311611354576000611358565b8183035b90508084106113675780611369565b835b94505050505090565b60006113a4670de0b6b3a764000061139861138b611cc6565b859063ffffffff612b8f16565b9063ffffffff612bb816565b92915050565b600060606113b6611c6f565b600160a060020a031663cb08a10c846040518263ffffffff1660e060020a028152600401808260001916600019168152602001915050602060405180830381600087803b15801561140657600080fd5b505af115801561141a573d6000803e3d6000fd5b505050506040513d602081101561143057600080fd5b50511561143c57600080fd5b30611445611c6f565b600160a060020a0316633f9a8e7e856040518263ffffffff1660e060020a028152600401808260001916600019168152602001915050602060405180830381600087803b15801561149557600080fd5b505af11580156114a9573d6000803e3d6000fd5b505050506040513d60208110156114bf57600080fd5b5051600160a060020a0316146114d457600080fd5b6114dc611152565b600160a060020a03166114ed611c6f565b600160a060020a0316634a610b04856040518263ffffffff1660e060020a028152600401808260001916600019168152602001915050602060405180830381600087803b15801561153d57600080fd5b505af1158015611551573d6000803e3d6000fd5b505050506040513d602081101561156757600080fd5b5051600160a060020a03161461157c57600080fd5b5050604080516024808201849052825180830390910181526044909101909152602081018051600160e060020a03167f0950d51500000000000000000000000000000000000000000000000000000000908117909152906115db611c6f565b600160a060020a031663dc8601b36115f1611152565b836115fa611b07565b6040518463ffffffff1660e060020a0281526004018084600160a060020a0316600160a060020a0316815260200180602001838152602001828103825284818151815260200191508051906020019080838360005b8381101561166757818101518382015260200161164f565b50505050905090810190601f1680156116945780820380516001836020036101000a031916815260200191505b50945050505050602060405180830381600087803b1580156116b557600080fd5b505af11580156116c9573d6000803e3d6000fd5b505050506040513d6020811015610b7a57600080fd5b600160026000909192565b7f145286dc85799b6fb9fe322391ba2d95683077b2adf34dd576dedc437e537ba760009081526020527fba10c7a68bf463c41368d64adcf7df23c0de931ea3b09f061e2dfec302fef95f5490565b6117406112c1565b600160a060020a0316331461175457600080fd5b60008111801561176a5750611767610f3d565b81105b801561177c5750611779611ec1565b81105b151561178757600080fd5b7fbbb088c505d18e049d114c7c91f11724e69c55ad6c5397e2b929e68b41fa05d160009081526020527f8df5c48c6b6e11d97548adc824ba0c99103ec09830fa5d53a179984085e6eaa055565b6000806117df610aac565b905033600160a060020a038216146117f657600080fd5b6117fe611f0f565b15156118295761180d85611db0565b151561181857600080fd5b611829611823610d74565b86611f60565b61186581878787878080601f01602080910402602001604051908101604052809392919081815260200183838082843750612084945050505050565b50600195945050505050565b600080600030600160a060020a0316636fde82026040518163ffffffff1660e060020a028152600401602060405180830381600087803b1580156118b457600080fd5b505af11580156118c8573d6000803e3d6000fd5b505050506040513d60208110156118de57600080fd5b5051600160a060020a031633146118f457600080fd5b6118fd86612bcd565b9093509150600160a060020a0383161580159061191a5750600082115b80156119265750838210155b151561193157600080fd5b61195161194c856119406116ea565b9063ffffffff612d5416565b612d66565b611961828563ffffffff612d5416565b905061196d8187612db3565b6040805185815260208101839052815188927f5bcec6564fe8d2cbb4e4eb8237510ceb6b291a5c2ee2e429948d25e9c924c1fa928290030190a284156119cc576119b5611ec1565b8411156119c157600080fd5b6119cc838486612e35565b505050505050565b6119dc6112c1565b600160a060020a031633146119f057600080fd5b6119f8611ec1565b811180611a03575080155b1515611a0e57600080fd5b7f4a6a899679f26b73530d8cf1001e83b6f7702e04b6fdb98f3c62dc7e47e041a5600090815260209081527f1ab29a5cca988aee50edccdd61c5bcaa7ad4b29a03b7ee50f298ceccfe14cc4e8290556040805183815290517fad4123ae17c414d9c6d2fec478b402e6b01856cc250fd01fbfd252fda0089d3c929181900390910190a150565b6000611a9f82612818565b611aa8836125b7565b611af88b8b8b8b6003806020026040519081016040528092919082600360200280828437505060408051808201825293508f925060029150839083908082843782019150505050508b8b8b611b55565b9b9a5050505050505050505050565b7f2dfd6c9f781bb6bbb5369c114e949b69ebb440ef3d4dd6b2836225eb1dc3a2be60009081526020527f2de0d2cdc19d356cb53b5984f91bfd3b31fe0c678a0d190a6db39274bb34753f5490565b7f8a8236f871f2bbb44f59e8c68b82f7587d19c987e09aba39148cc97ea004a32e600090815260026020527ff5de62257e76692f16fec877f26599010536c0cb971bab5dd0f47f8f1a66c7bf8054600160a060020a031916600160a060020a038916179055611bca8989898989898989612fbf565b9998505050505050505050565b611bdf6112c1565b600160a060020a03163314611bf357600080fd5b801580611c175750611c03611d62565b81118015611c175750611c14610f3d565b81105b1515611c2257600080fd5b7f0f8803acad17c63ee38bf2de71e1888bc7a079a6f73658e274b08018bea4e29c60009081526020527f9de0f81379b4d8e60fe509315d071b56e7b732abaf193e74e0d15808b0951d0955565b7f811bbb11e8899da471f0e69a3ed55090fc90215227fc5fb1cb0d6e962ea7b74f60005260026020527fb4ed64697d3ef8518241966f7c6f28b0d72f20f51198717d198d2d55076c593d54600160a060020a031690565b7f241773621b963145d8e249ca69b0240df7de56fca52fb3ec9e2ddd08a968570e60009081526020527f5a69665d049b580e222420a3d5bc58a062e4ab28243d1b83814ab8de398d3a175490565b7f1e8ecaafaddea96ed9ac6d2642dcdfe1bebe58a930b1085842d8fc122b371ee560009081526020527fd5c78dd9468716ca9bb96be25d56436811b20aab3523a9904b12deef1cab239d5490565b7fbbb088c505d18e049d114c7c91f11724e69c55ad6c5397e2b929e68b41fa05d160009081526020527f8df5c48c6b6e11d97548adc824ba0c99103ec09830fa5d53a179984085e6eaa05490565b600080611dc2836111c061133f610d74565b905080611dcd610f3d565b10158015611de25750611dde611ec1565b8311155b80156111ec5750611df1611d62565b9092101592915050565b611e036112c1565b600160a060020a03163314611e1757600080fd5b611e1f610da1565b8110611e2a57600080fd5b7fc0ed44c192c86d1cc1ba51340b032c2766b4a2b0041031de13c46dd7104888d560009081526020527ff8e983ee86e5e377e9e34c9131b266382c3f04113d20de077f9e12663c7a646b55565b611e7f6112c1565b600160a060020a03163314611e9357600080fd5b610aa981613169565b611ea46112c1565b600160a060020a03163314611eb857600080fd5b610aa981613233565b7f0f8803acad17c63ee38bf2de71e1888bc7a079a6f73658e274b08018bea4e29c60009081526020527f9de0f81379b4d8e60fe509315d071b56e7b732abaf193e74e0d15808b0951d095490565b7f6168652c307c1e813ca11cfb3a601f1cf3b22452021a5052d8b05f1f1f8a3e9260005260046020527fcb8d022f2163402334a4962e3279c5def3417d3d8dab9e27ba26e81e3f8337845460ff1690565b611f6d816111c084610ba6565b6000808460405160200180807f746f74616c5370656e74506572446179000000000000000000000000000000008152506010018281526020019150506040516020818303038152906040526040518082805190602001908083835b60208310611fe75780518252601f199092019160209182019101611fc8565b51815160209384036101000a60001901801990921691161790526040805192909401829003909120865285019590955292909201600020939093555050505050565b7f6168652c307c1e813ca11cfb3a601f1cf3b22452021a5052d8b05f1f1f8a3e9260005260046020527fcb8d022f2163402334a4962e3279c5def3417d3d8dab9e27ba26e81e3f833784805460ff1916911515919091179055565b600061208e611f0f565b1515610b7a5784600160a060020a03166342966c68846040518263ffffffff1660e060020a02815260040180828152602001915050600060405180830381600087803b1580156120dd57600080fd5b505af11580156120f1573d6000803e3d6000fd5b505050506120fd610abb565b156121475761210b83611372565b90506121308461211b8685613294565b61212b868563ffffffff612d5416565b612e35565b600081111561214257612142816132ee565b610b7a565b610b7a846121558685613294565b85612e35565b6000612165611c6f565b600160a060020a031663d67bdd256040518163ffffffff1660e060020a028152600401602060405180830381600087803b1580156121a257600080fd5b505af11580156121b6573d6000803e3d6000fd5b505050506040513d60208110156121cc57600080fd5b5051905090565b6000600260008360405160200180807f6d657373616765526563697069656e740000000000000000000000000000000081525060100182600019166000191681526020019150506040516020818303038152906040526040518082805190602001908083835b602083106122585780518252601f199092019160209182019101612239565b51815160209384036101000a6000190180199092169116179052604080519290940182900390912086528501959095529290920160002054600160a060020a031695945050505050565b60008060008360405160200180807f6d65737361676556616c75650000000000000000000000000000000000000000815250600c01826000191660001916815260200191505060405160208183030381529060405260405180828051906020019080838360208310610c225780518252601f199092019160209182019101610c03565b6001600460008360405160200180807f6d65737361676546697865640000000000000000000000000000000000000000815250600c0182600019166000191681526020019150506040516020818303038152906040526040518082805190602001908083835b602083106123aa5780518252601f19909201916020918201910161238b565b51815160209384036101000a60001901801990921691161790526040805192909401829003909120865285019590955292909201600020805460ff19169415159490941790935550505050565b6123ff6110fb565b600160a060020a03166340c10f1983836040518363ffffffff1660e060020a0281526004018083600160a060020a0316600160a060020a0316815260200182815260200192505050602060405180830381600087803b15801561246157600080fd5b505af1158015612475573d6000803e3d6000fd5b505050506040513d60208110156109af57600080fd5b6124948161295f565b151561249f57600080fd5b7f811bbb11e8899da471f0e69a3ed55090fc90215227fc5fb1cb0d6e962ea7b74f60005260026020527fb4ed64697d3ef8518241966f7c6f28b0d72f20f51198717d198d2d55076c593d8054600160a060020a031916600160a060020a0392909216919091179055565b7fa8b0ade3e2b734f043ce298aca4cc8d19d74270223f34531d0988b7d00cba21d60005260026020527f603cd9dcbfa185d5c37504f4c8b3f16117ed744fba48d08b7aad44a162af1c9354600160a060020a031690565b7f20ae0b8a761b32f3124efb075f427dd6ca669e88ae7747fec9fd1ad688699f3260005260026020527fd76793c705b076d97d490f0c1e5a620caae2c4973213dc37ef69a1be2a5ec07054600160a060020a031690565b60006125c28261295f565b15156125cd57600080fd5b6000905081600160a060020a0316632ee57f8d60e060020a0260e060020a90046040518163ffffffff1660e060020a0281526004016000604051808303816000875af192505050156126ea5760405180807f626c6f636b526577617264000000000000000000000000000000000000000000815250600b0190506040518091039020600160e060020a03191682600160a060020a0316632ee57f8d6040518163ffffffff1660e060020a028152600401602060405180830381600087803b15801561269757600080fd5b505af11580156126ab573d6000803e3d6000fd5b505050506040513d60208110156126c157600080fd5b50517bffffffffffffffffffffffffffffffffffffffffffffffffffffffff19161490506127a1565b81600160a060020a03166310f2ee7c60e060020a0260e060020a90046040518163ffffffff1660e060020a0281526004016000604051808303816000875af192505050156127a15781600160a060020a03166310f2ee7c6040518163ffffffff1660e060020a028152600401602060405180830381600087803b15801561277057600080fd5b505af1158015612784573d6000803e3d6000fd5b505050506040513d602081101561279a57600080fd5b5051151590505b8015156127ad57600080fd5b507f20ae0b8a761b32f3124efb075f427dd6ca669e88ae7747fec9fd1ad688699f3260005260026020527fd76793c705b076d97d490f0c1e5a620caae2c4973213dc37ef69a1be2a5ec0708054600160a060020a031916600160a060020a0392909216919091179055565b670de0b6b3a7640000811061282c57600080fd5b7f241773621b963145d8e249ca69b0240df7de56fca52fb3ec9e2ddd08a968570e600090815260209081527f5a69665d049b580e222420a3d5bc58a062e4ab28243d1b83814ab8de398d3a178290556040805183815290517f8c4d35e54a3f2ef1134138fd8ea3daee6a3c89e10d2665996babdf70261e2c76929181900390910190a150565b80600160a060020a03811615156128c857600080fd5b600160a060020a03831615156128e6576128e18261333e565b6128f0565b6128f0838361334a565b505050565b7f98aa806e31e94a687a31c65769cb99670064dd7f5a87526da075c5fb4eab988060005260026020527f0c1206883be66049a02d4937078367c00b3d71dd1a9465df969363c6ddeac96d8054600160a060020a031916600160a060020a0392909216919091179055565b6000903b1190565b818101828110156113a457fe5b612981816111c084610def565b6000808460405160200180807f746f74616c45786563757465645065724461790000000000000000000000000081525060130182815260200191505060405160208183030381529060405260405180828051906020019080838360208310611fe75780518252601f199092019160209182019101611fc8565b600080612a06836133f7565b9150612a1061340a565b9050612a1a6110fb565b600160a060020a03166340c10f1985846040518363ffffffff1660e060020a0281526004018083600160a060020a0316600160a060020a0316815260200182815260200192505050602060405180830381600087803b158015612a7c57600080fd5b505af1158015612a90573d6000803e3d6000fd5b505050506040513d6020811015612aa657600080fd5b50506040805183815290518291600160a060020a038716917f2f9a6098d4503a127779ba975f5f6b04f842362b1809f346989e9abc0b4dedb69181900360200190a350505050565b6000806000612afb61340a565b9250612b0683612bcd565b9092509050600160a060020a038216158015612b20575080155b1515612b2b57600080fd5b612b3a61194c856111c06116ea565b612b45858585613451565b60408051600160a060020a038716815260208101869052815185927f3344bbb992063ed4b833dabd5d5e55fc18df085bb96654e83aafbfe22e4116ff928290030190a25050505050565b6000821515612ba0575060006113a4565b50818102818382811515612bb057fe5b04146113a457fe5b60008183811515612bc557fe5b049392505050565b600080600260008460405160200180807f74784f75744f664c696d6974526563697069656e74000000000000000000000081525060150182600019166000191681526020019150506040516020818303038152906040526040518082805190602001908083835b60208310612c535780518252601f199092019160209182019101612c34565b51815160209384036101000a600019018019909216911617905260408051929094018290039091208652858101969096525092830160009081205484517f74784f75744f664c696d697456616c75650000000000000000000000000000008188015260318082018b9052865180830390910181526051909101958690528051600160a060020a0390921698509195869592945091925082918401908083835b60208310612d115780518252601f199092019160209182019101612cf2565b51815160209384036101000a6000190180199092169116179052604080519290940182900390912086528501959095529290920160002054949694955050505050565b600082821115612d6057fe5b50900390565b7f145286dc85799b6fb9fe322391ba2d95683077b2adf34dd576dedc437e537ba760009081526020527fba10c7a68bf463c41368d64adcf7df23c0de931ea3b09f061e2dfec302fef95f55565b816000808360405160200180807f74784f75744f664c696d697456616c7565000000000000000000000000000000815250601101826000191660001916815260200191505060405160208183030381529060405260405180828051906020019080838360208310611fe75780518252601f199092019160209182019101611fc8565b60408051600160a060020a03841660248201526044808201849052825180830390910181526064909101909152602081018051600160e060020a03167f8b6c035400000000000000000000000000000000000000000000000000000000908117909152906000612ea3611c6f565b600160a060020a031663dc8601b3612eb9611152565b84612ec2611b07565b6040518463ffffffff1660e060020a0281526004018084600160a060020a0316600160a060020a0316815260200180602001838152602001828103825284818151815260200191508051906020019080838360005b83811015612f2f578181015183820152602001612f17565b50505050905090810190601f168015612f5c5780820380516001836020036101000a031916815260200191505b50945050505050602060405180830381600087803b158015612f7d57600080fd5b505af1158015612f91573d6000803e3d6000fd5b505050506040513d6020811015612fa757600080fd5b50519050612fb5818561353a565b6119cc81876135bc565b6040805160048152602481018252602081018051600160e060020a03167f6fde8202000000000000000000000000000000000000000000000000000000001781529151815160009330939291829190808383895b8381101561302b578181015183820152602001613013565b50505050905090810190601f1680156130585780820380516001836020036101000a031916815260200191505b509150506000604051808303816000865af191505015806130ea575030600160a060020a0316636fde82026040518163ffffffff1660e060020a028152600401602060405180830381600087803b1580156130b257600080fd5b505af11580156130c6573d6000803e3d6000fd5b505050506040513d60208110156130dc57600080fd5b5051600160a060020a031633145b806130f457503330145b15156130ff57600080fd5b613107610c63565b1561311157600080fd5b61311a8961248b565b613123886128f5565b61312c8761369d565b6131358661371b565b61313e85613878565b61314784613233565b6131508361394d565b61315982613169565b6131616139b6565b611bca610c63565b600160a060020a038116151561317e57600080fd5b7f8be0079c531659141344cd1fd0a4f28419497f9722a3daafe3b4186f6b6457e06131a76112c1565b60408051600160a060020a03928316815291841660208301528051918290030190a17f02016836a56b71f0d02689e69e326f4f4c1b9057164ef592671cf0d37c8040c060005260026020527fb7802e97e87ef2842a6cce7da7ffaeaedaa2f61a6a7870b23d9d01fc9b73712e8054600160a060020a031916600160a060020a0392909216919091179055565b61323b613a0d565b81111561324757600080fd5b7f2dfd6c9f781bb6bbb5369c114e949b69ebb440ef3d4dd6b2836225eb1dc3a2be60009081526020527f2de0d2cdc19d356cb53b5984f91bfd3b31fe0c678a0d190a6db39274bb34753f55565b80518290600010156113a45781516014146132ae57600080fd5b6132b782613a54565b9050600160a060020a03811615156132ce57600080fd5b6132d6613a5b565b600160a060020a03828116911614156113a457600080fd5b6132f6612560565b600160a060020a03166362178478826040518263ffffffff1660e060020a02815260040180828152602001915050600060405180830381600087803b158015610b6657600080fd5b30316110388282613a65565b604080517f70a0823100000000000000000000000000000000000000000000000000000000815230600482015290518391600091600160a060020a038416916370a0823191602480830192602092919082900301818787803b1580156133af57600080fd5b505af11580156133c3573d6000803e3d6000fd5b505050506040513d60208110156133d957600080fd5b505190506109af600160a060020a038516848363ffffffff613ac616565b60006113a482613405611d14565b613b5b565b6000613414611c6f565b600160a060020a031663669f618b6040518163ffffffff1660e060020a028152600401602060405180830381600087803b1580156121a257600080fd5b82600260008360405160200180807f74784f75744f664c696d6974526563697069656e74000000000000000000000081525060150182600019166000191681526020019150506040516020818303038152906040526040518082805190602001908083835b602083106134d55780518252601f1990920191602091820191016134b6565b51815160209384036101000a600019018019909216911617905260408051929094018290039091208652850195909552929092016000208054600160a060020a031916600160a060020a039590951694909417909355506128f0915083905082612db3565b806000808460405160200180807f6d65737361676556616c75650000000000000000000000000000000000000000815250600c01826000191660001916815260200191505060405160208183030381529060405260405180828051906020019080838360208310611fe75780518252601f199092019160209182019101611fc8565b80600260008460405160200180807f6d657373616765526563697069656e740000000000000000000000000000000081525060100182600019166000191681526020019150506040516020818303038152906040526040518082805190602001908083835b602083106136405780518252601f199092019160209182019101613621565b51815160209384036101000a600019018019909216911617905260408051929094018290039091208652850195909552929092016000208054600160a060020a031916600160a060020a0395909516949094179093555050505050565b6136a68161295f565b15156136b157600080fd5b7fa8b0ade3e2b734f043ce298aca4cc8d19d74270223f34531d0988b7d00cba21d60005260026020527f603cd9dcbfa185d5c37504f4c8b3f16117ed744fba48d08b7aad44a162af1c938054600160a060020a031916600160a060020a0392909216919091179055565b60408101516000108015613736575060408101516020820151115b8015613746575060208101518151115b151561375157600080fd5b80517f4a6a899679f26b73530d8cf1001e83b6f7702e04b6fdb98f3c62dc7e47e041a5600090815260208181527f1ab29a5cca988aee50edccdd61c5bcaa7ad4b29a03b7ee50f298ceccfe14cc4e92909255908201517f0f8803acad17c63ee38bf2de71e1888bc7a079a6f73658e274b08018bea4e29c82527f9de0f81379b4d8e60fe509315d071b56e7b732abaf193e74e0d15808b0951d095560408201517fbbb088c505d18e049d114c7c91f11724e69c55ad6c5397e2b929e68b41fa05d182527f8df5c48c6b6e11d97548adc824ba0c99103ec09830fa5d53a179984085e6eaa0557fad4123ae17c414d9c6d2fec478b402e6b01856cc250fd01fbfd252fda0089d3c9082905b60200201516040518082815260200191505060405180910390a150565b805160208201511061388957600080fd5b80517f21dbcab260e413c20dc13c28b7db95e2b423d1135f42bb8b7d5214a92270d237600090815260208181527fadd938dbd083a16bae12238cd914fca0afc7a30edb55b1cd5c7f1823f1b0e42192909255908201517fc0ed44c192c86d1cc1ba51340b032c2766b4a2b0041031de13c46dd7104888d582527ff8e983ee86e5e377e9e34c9131b266382c3f04113d20de077f9e12663c7a646b557f9bebf928b90863f24cc31f726a3a7545efd409f1dcf552301b1ee3710da70d3b90829061385b565b604c198113801561395e5750604d81125b151561396957600080fd5b7f1e8ecaafaddea96ed9ac6d2642dcdfe1bebe58a930b1085842d8fc122b371ee560009081526020527fd5c78dd9468716ca9bb96be25d56436811b20aab3523a9904b12deef1cab239d55565b7f0a6f646cd611241d8073675e00d1a1ff700fbf1b53fcf473de56d1e6e4b714ba60005260046020527f078d888f9b66f3f8bfa10909e31f1e16240db73449f0500afdbbe3a70da457cc805460ff19166001179055565b6000613a17611c6f565b600160a060020a031663e5789d036040518163ffffffff1660e060020a028152600401602060405180830381600087803b1580156121a257600080fd5b6014015190565b6000610ab6611152565b604051600160a060020a0383169082156108fc029083906000818181858888f193505050501515611038578082613a9a613ba6565b600160a060020a039091168152604051908190036020019082f080158015610b7a573d6000803e3d6000fd5b82600160a060020a031663a9059cbb83836040518363ffffffff1660e060020a0281526004018083600160a060020a0316600160a060020a0316815260200182815260200192505050600060405180830381600087803b158015613b2957600080fd5b505af1158015613b3d573d6000803e3d6000fd5b505050503d156128f05760206000803e60005115156128f057600080fd5b6000811515613b6b5750816113a4565b6000821315613b8f57613b8883600a84900a63ffffffff612b8f16565b90506113a4565b6111ec836000849003600a0a63ffffffff612bb816565b604051602180613bb6833901905600608060405260405160208060218339810160405251600160a060020a038116ff00a165627a7a7230582053734d5c1d9e43495bc1a2c510cfa24c55210b408890a0745040e5a59d19314e0029",
  "source": "pragma solidity 0.4.24;\n\nimport \"../../interfaces/IMintHandler.sol\";\nimport \"./BasicStakeTokenMediator.sol\";\nimport \"./HomeStakeTokenFeeManager.sol\";\nimport \"../../interfaces/IBurnableMintableERC677Token.sol\";\n\n/**\n* @title HomeStakeTokenMediator\n* @dev Home side implementation for stake token mediator intended to work on top of AMB bridge.\n* It is designed to be used as an implementation contract of EternalStorageProxy contract.\n*/\ncontract HomeStakeTokenMediator is BasicStakeTokenMediator, HomeStakeTokenFeeManager {\n    bytes32 internal constant MINT_HANDLER = 0x8a8236f871f2bbb44f59e8c68b82f7587d19c987e09aba39148cc97ea004a32e; // keccak256(abi.encodePacked(\"mintHandler\"))\n\n    /**\n     * Initializes home mediator\n     * @param _bridgeContract HomeAMB bridge contract\n     * @param _mediatorContract address of the mediator contract in the Foreign chain\n     * @param _erc677token address of STAKE token in the Home chain\n     * @param _dailyLimitMaxPerTxMinPerTxArray Home limits for outgoing transfers\n     * @param _executionDailyLimitExecutionMaxPerTxArray Home execution limits for incoming transfers\n     * @param _requestGasLimit gas limit used for AMB operations\n     * @param _decimalShift decimal shift for bridged STAKE token\n     * @param _owner address of new bridge owner\n     */\n    function initialize(\n        address _bridgeContract,\n        address _mediatorContract,\n        address _erc677token,\n        uint256[3] _dailyLimitMaxPerTxMinPerTxArray, // [ 0 = _dailyLimit, 1 = _maxPerTx, 2 = _minPerTx ]\n        uint256[2] _executionDailyLimitExecutionMaxPerTxArray, // [ 0 = _executionDailyLimit, 1 = _executionMaxPerTx ]\n        uint256 _requestGasLimit,\n        int256 _decimalShift,\n        address _owner\n    ) public returns (bool) {\n        addressStorage[MINT_HANDLER] = _erc677token;\n        return\n            super.initialize(\n                _bridgeContract,\n                _mediatorContract,\n                _erc677token,\n                _dailyLimitMaxPerTxMinPerTxArray,\n                _executionDailyLimitExecutionMaxPerTxArray,\n                _requestGasLimit,\n                _decimalShift,\n                _owner\n            );\n    }\n\n    /**\n     * Initializes rewardable home mediator\n     * @param _bridgeContract HomeAMB bridge contract\n     * @param _mediatorContract address of the mediator contract in the Foreign chain\n     * @param _erc677token address of STAKE token in the Home chain\n     * @param _dailyLimitMaxPerTxMinPerTxArray Home limits for outgoing transfers\n     * @param _executionDailyLimitExecutionMaxPerTxArray Home execution limits for incoming transfers\n     * @param _requestGasLimit gas limit used for AMB operations\n     * @param _decimalShift decimal shift for bridged STAKE token\n     * @param _owner address of new bridge owner\n     * @param _blockReward address of block reward contract used for fee distribution\n     * @param _fee initial home fee\n     */\n    function rewardableInitialize(\n        address _bridgeContract,\n        address _mediatorContract,\n        address _erc677token,\n        uint256[3] _dailyLimitMaxPerTxMinPerTxArray, // [ 0 = _dailyLimit, 1 = _maxPerTx, 2 = _minPerTx ]\n        uint256[2] _executionDailyLimitExecutionMaxPerTxArray, // [ 0 = _executionDailyLimit, 1 = _executionMaxPerTx ]\n        uint256 _requestGasLimit,\n        int256 _decimalShift,\n        address _owner,\n        address _blockReward,\n        uint256 _fee\n    ) external returns (bool) {\n        _setFee(_fee);\n        _setBlockRewardContract(_blockReward);\n        return\n            initialize(\n                _bridgeContract,\n                _mediatorContract,\n                _erc677token,\n                _dailyLimitMaxPerTxMinPerTxArray,\n                _executionDailyLimitExecutionMaxPerTxArray,\n                _requestGasLimit,\n                _decimalShift,\n                _owner\n            );\n    }\n\n    /**\n     * @dev Allows to transfer token ownership to different proxy contract.\n     * Can be called only once, when mediator is the current owner of a token.\n     * All subsequent calls to erc677 token will be done through new proxy contract.\n     * @param _owner token proxy contract address\n     */\n    function transferTokenOwnership(address _owner) external onlyOwner {\n        Ownable(erc677token()).transferOwnership(_owner);\n    }\n\n    /**\n     * @dev Updates address of contract used for handling mint operations,\n     * all subsequent mint operations will be called through this contract\n     * @param _mintHandler address of new contract\n     */\n    function setMintHandler(address _mintHandler) external onlyOwner {\n        require(AddressUtils.isContract(_mintHandler));\n        addressStorage[MINT_HANDLER] = _mintHandler;\n    }\n\n    /**\n     * @dev Retrieves currently used contract for handling mint operations, defaults to token itself\n     * @return address of mint handler contract\n     */\n    function getMintHandler() public view returns (IMintHandler) {\n        return IMintHandler(addressStorage[MINT_HANDLER]);\n    }\n\n    /**\n     * @dev Executes action on the request to deposit tokens relayed from the other network\n     * @param _recipient address of tokens receiver\n     * @param _value amount of bridged tokens\n     */\n    function executeActionOnBridgedTokens(address _recipient, uint256 _value) internal {\n        uint256 value = _shiftValue(_value);\n        bytes32 _messageId = messageId();\n        getMintHandler().mint(_recipient, value);\n        emit TokensBridged(_recipient, value, _messageId);\n    }\n\n    /**\n     * @dev Executes action on withdrawal of bridged tokens\n     * @param _token address of token contract\n     * @param _from address of tokens sender\n     * @param _value requsted amount of bridged tokens\n     * @param _data alternative receiver, if specified\n     */\n    function bridgeSpecificActionsOnTokenTransfer(ERC677 _token, address _from, uint256 _value, bytes _data) internal {\n        if (!lock()) {\n            // burn all incoming tokens\n            IBurnableMintableERC677Token(_token).burn(_value);\n\n            if (isFeeCollectingActivated()) {\n                uint256 fee = calculateFee(_value);\n                // the calculated fee is subtracted from the original value\n                passMessage(_from, chooseReceiver(_from, _data), _value.sub(fee));\n                if (fee > 0) {\n                    // the fee manager will take care about fee distribution\n                    _distributeFee(fee);\n                }\n            } else {\n                passMessage(_from, chooseReceiver(_from, _data), _value);\n            }\n        }\n    }\n\n    /**\n     * @dev Withdraws the erc20 tokens or native coins from this contract.\n     * @param _token address of the claimed token or address(0) for native coins.\n     * @param _to address of the tokens/coins receiver.\n     */\n    function claimTokens(address _token, address _to) external onlyIfUpgradeabilityOwner {\n        // For home side of the bridge, tokens are not locked at the contract, they are minted and burned instead.\n        // So, its is safe to allow claiming of any tokens. Native coins are allowed as well.\n        claimValues(_token, _to);\n    }\n\n    /**\n     * @dev Executes action on relayed request to fix the failed transfer of tokens\n     * @param _recipient address of tokens receiver\n     * @param _value amount of fixed tokens\n     */\n    function executeActionOnFixedTokens(address _recipient, uint256 _value) internal {\n        getMintHandler().mint(_recipient, _value);\n    }\n}\n",
  "sourcePath": "/Users/max/Projects/Symblox/TokenBridge/tokenbridge/contracts/contracts/upgradeable_contracts/amb_erc677_to_erc677/HomeStakeTokenMediator.sol",
  "compiler": {
    "name": "solc",
    "version": "0.4.24+commit.e67f0147.Emscripten.clang"
  },
  "schemaVersion": "3.1.0",
  "updatedAt": "2020-11-26T16:22:39.907Z",
  "devdoc": {
    "methods": {
      "blockRewardContract()": {
        "details": "Retrieves currently used block reward contract",
        "return": "configured block reward contract address"
      },
      "bridgeContract()": {
        "details": "Get the AMB interface for the bridge contract address",
        "return": "AMB interface for the bridge contract address"
      },
      "calculateFee(uint256)": {
        "details": "Calculates the fee amount to be subtracted from the value.",
        "params": {
          "_value": "the base value from which fees are calculated"
        }
      },
      "claimTokens(address,address)": {
        "details": "Withdraws the erc20 tokens or native coins from this contract.",
        "params": {
          "_to": "address of the tokens/coins receiver.",
          "_token": "address of the claimed token or address(0) for native coins."
        }
      },
      "decimalShift()": {
        "details": "Returns the value of foreign-to-home decimal shift.",
        "return": "decimal shift."
      },
      "erc677token()": {
        "details": "Public getter for token contract.",
        "return": "address of the used token contract"
      },
      "fixAssetsAboveLimits(bytes32,bool,uint256)": {
        "details": "Fixes locked tokens, that were out of execution limits during the call to handleBridgedTokens",
        "params": {
          "messageId": "reference for bridge operation that was out of execution limits",
          "unlockOnOtherSide": "true if fixed tokens should be unlocked to the other side of the bridge",
          "valueToUnlock": "unlocked amount of tokens, should be less than saved txAboveLimitsValue. Should be less than maxPerTx(), if tokens need to be unlocked on the other side."
        }
      },
      "fixFailedMessage(bytes32)": {
        "details": "Handles the request to fix transferred assets which bridged message execution failed on the other network. It uses the information stored by passMessage method when the assets were initially transferred",
        "params": {
          "_messageId": "id of the message which execution failed on the other network."
        }
      },
      "getFee()": {
        "details": "Retrieves current fee value",
        "return": "current value of fee, 1e18 is 100%"
      },
      "getMintHandler()": {
        "details": "Retrieves currently used contract for handling mint operations, defaults to token itself",
        "return": "address of mint handler contract"
      },
      "handleBridgedTokens(address,uint256)": {
        "details": "Handles the bridged tokens. Checks that the value is inside the execution limits and invokes the method to execute the Mint or Unlock accordingly.",
        "params": {
          "_recipient": "address that will receive the tokens",
          "_value": "amount of tokens to be received"
        }
      },
      "initialize(address,address,address,uint256[3],uint256[2],uint256,int256,address)": {
        "params": {
          "_bridgeContract": "HomeAMB bridge contract",
          "_dailyLimitMaxPerTxMinPerTxArray": "Home limits for outgoing transfers",
          "_decimalShift": "decimal shift for bridged STAKE token",
          "_erc677token": "address of STAKE token in the Home chain",
          "_executionDailyLimitExecutionMaxPerTxArray": "Home execution limits for incoming transfers",
          "_mediatorContract": "address of the mediator contract in the Foreign chain",
          "_owner": "address of new bridge owner",
          "_requestGasLimit": "gas limit used for AMB operations"
        }
      },
      "isFeeCollectingActivated()": {
        "details": "Returns the state of the fee manager configuration: whether it is ready to collect and distribute fee or not."
      },
      "maxAvailablePerTx()": {
        "details": "Retrieves maximum available bridge amount per one transaction taking into account maxPerTx() and dailyLimit() parameters.",
        "return": "minimum of maxPerTx parameter and remaining daily quota."
      },
      "mediatorContractOnOtherSide()": {
        "details": "Tells the mediator contract address from the other network.",
        "return": "the address of the mediator contract."
      },
      "messageFixed(bytes32)": {
        "details": "Tells if a message sent to the AMB bridge has been fixed.",
        "return": "bool indicating the status of the message."
      },
      "outOfLimitAmount()": {
        "details": "Total amount coins/tokens that were bridged from the other side and are out of execution limits.",
        "return": "total amount of all bridge operations above limits."
      },
      "owner()": {
        "details": "Tells the address of the owner",
        "return": "the address of the owner"
      },
      "relayTokens(address,uint256)": {
        "details": "Initiates the bridge operation that will lock the amount of tokens transferred and mint the tokens on the other network. The user should first call Approve method of the ERC677 token.",
        "params": {
          "_receiver": "address that will receive the minted tokens on the other network.",
          "_value": "amount of tokens to be transferred to the other network."
        }
      },
      "requestFailedMessageFix(bytes32)": {
        "details": "Method to be called when a bridged message execution failed. It will generate a new message requesting to fix/roll back the transferred assets on the other network.",
        "params": {
          "_messageId": "id of the message which execution failed."
        }
      },
      "requestGasLimit()": {
        "details": "Tells the gas limit to be used in the message execution by the AMB bridge on the other network.",
        "return": "the gas limit for the message execution."
      },
      "rewardableInitialize(address,address,address,uint256[3],uint256[2],uint256,int256,address,address,uint256)": {
        "params": {
          "_blockReward": "address of block reward contract used for fee distribution",
          "_bridgeContract": "HomeAMB bridge contract",
          "_dailyLimitMaxPerTxMinPerTxArray": "Home limits for outgoing transfers",
          "_decimalShift": "decimal shift for bridged STAKE token",
          "_erc677token": "address of STAKE token in the Home chain",
          "_executionDailyLimitExecutionMaxPerTxArray": "Home execution limits for incoming transfers",
          "_fee": "initial home fee",
          "_mediatorContract": "address of the mediator contract in the Foreign chain",
          "_owner": "address of new bridge owner",
          "_requestGasLimit": "gas limit used for AMB operations"
        }
      },
      "setBlockRewardContract(address)": {
        "details": "Updates address of currently used block reward contract",
        "params": {
          "_blockReward": "address of a new contract"
        }
      },
      "setBridgeContract(address)": {
        "details": "Sets the AMB bridge contract address. Only the owner can call this method.",
        "params": {
          "_bridgeContract": "the address of the bridge contract."
        }
      },
      "setFee(uint256)": {
        "details": "Sets the fee percentage amount for the mediator operations. Only the owner can call this method.",
        "params": {
          "_fee": "the fee percentage"
        }
      },
      "setMediatorContractOnOtherSide(address)": {
        "details": "Sets the mediator contract address from the other network. Only the owner can call this method.",
        "params": {
          "_mediatorContract": "the address of the mediator contract."
        }
      },
      "setMintHandler(address)": {
        "details": "Updates address of contract used for handling mint operations, all subsequent mint operations will be called through this contract",
        "params": {
          "_mintHandler": "address of new contract"
        }
      },
      "setRequestGasLimit(uint256)": {
        "details": "Sets the gas limit to be used in the message execution by the AMB bridge on the other network. This value can't exceed the parameter maxGasPerTx defined on the AMB bridge. Only the owner can call this method.",
        "params": {
          "_requestGasLimit": "the gas limit for the message execution."
        }
      },
      "transferOwnership(address)": {
        "details": "Allows the current owner to transfer control of the contract to a newOwner.",
        "params": {
          "newOwner": "the address to transfer ownership to."
        }
      },
      "transferTokenOwnership(address)": {
        "details": "Allows to transfer token ownership to different proxy contract. Can be called only once, when mediator is the current owner of a token. All subsequent calls to erc677 token will be done through new proxy contract.",
        "params": {
          "_owner": "token proxy contract address"
        }
      }
    },
    "title": "HomeStakeTokenMediator"
  },
  "userdoc": {
    "methods": {
      "initialize(address,address,address,uint256[3],uint256[2],uint256,int256,address)": {
        "notice": "Initializes home mediator"
      },
      "rewardableInitialize(address,address,address,uint256[3],uint256[2],uint256,int256,address,address,uint256)": {
        "notice": "Initializes rewardable home mediator"
      }
    }
  }
}