{
  "contractName": "HomeAMBNativeToErc20",
  "abi": [
    {
      "constant": false,
      "inputs": [
        {
          "name": "_messageId",
          "type": "bytes32"
        }
      ],
      "name": "fixFailedMessage",
      "outputs": [],
      "payable": false,
      "stateMutability": "nonpayable",
      "type": "function"
    },
    {
      "constant": false,
      "inputs": [
        {
          "name": "_bridgeContract",
          "type": "address"
        }
      ],
      "name": "setBridgeContract",
      "outputs": [],
      "payable": false,
      "stateMutability": "nonpayable",
      "type": "function"
    },
    {
      "constant": true,
      "inputs": [
        {
          "name": "_day",
          "type": "uint256"
        }
      ],
      "name": "totalSpentPerDay",
      "outputs": [
        {
          "name": "",
          "type": "uint256"
        }
      ],
      "payable": false,
      "stateMutability": "view",
      "type": "function"
    },
    {
      "constant": true,
      "inputs": [],
      "name": "isInitialized",
      "outputs": [
        {
          "name": "",
          "type": "bool"
        }
      ],
      "payable": false,
      "stateMutability": "view",
      "type": "function"
    },
    {
      "constant": false,
      "inputs": [
        {
          "name": "_dailyLimit",
          "type": "uint256"
        }
      ],
      "name": "setExecutionDailyLimit",
      "outputs": [],
      "payable": false,
      "stateMutability": "nonpayable",
      "type": "function"
    },
    {
      "constant": true,
      "inputs": [],
      "name": "getCurrentDay",
      "outputs": [
        {
          "name": "",
          "type": "uint256"
        }
      ],
      "payable": false,
      "stateMutability": "view",
      "type": "function"
    },
    {
      "constant": true,
      "inputs": [],
      "name": "getBridgeMode",
      "outputs": [
        {
          "name": "_data",
          "type": "bytes4"
        }
      ],
      "payable": false,
      "stateMutability": "pure",
      "type": "function"
    },
    {
      "constant": true,
      "inputs": [],
      "name": "executionDailyLimit",
      "outputs": [
        {
          "name": "",
          "type": "uint256"
        }
      ],
      "payable": false,
      "stateMutability": "view",
      "type": "function"
    },
    {
      "constant": true,
      "inputs": [],
      "name": "mediatorBalance",
      "outputs": [
        {
          "name": "",
          "type": "uint256"
        }
      ],
      "payable": false,
      "stateMutability": "view",
      "type": "function"
    },
    {
      "constant": true,
      "inputs": [
        {
          "name": "_day",
          "type": "uint256"
        }
      ],
      "name": "totalExecutedPerDay",
      "outputs": [
        {
          "name": "",
          "type": "uint256"
        }
      ],
      "payable": false,
      "stateMutability": "view",
      "type": "function"
    },
    {
      "constant": true,
      "inputs": [
        {
          "name": "_messageId",
          "type": "bytes32"
        }
      ],
      "name": "messageFixed",
      "outputs": [
        {
          "name": "",
          "type": "bool"
        }
      ],
      "payable": false,
      "stateMutability": "view",
      "type": "function"
    },
    {
      "constant": false,
      "inputs": [
        {
          "name": "_feeManager",
          "type": "address"
        }
      ],
      "name": "setFeeManagerContract",
      "outputs": [],
      "payable": false,
      "stateMutability": "nonpayable",
      "type": "function"
    },
    {
      "constant": true,
      "inputs": [],
      "name": "dailyLimit",
      "outputs": [
        {
          "name": "",
          "type": "uint256"
        }
      ],
      "payable": false,
      "stateMutability": "view",
      "type": "function"
    },
    {
      "constant": false,
      "inputs": [
        {
          "name": "_mediatorContract",
          "type": "address"
        }
      ],
      "name": "setMediatorContractOnOtherSide",
      "outputs": [],
      "payable": false,
      "stateMutability": "nonpayable",
      "type": "function"
    },
    {
      "constant": true,
      "inputs": [],
      "name": "mediatorContractOnOtherSide",
      "outputs": [
        {
          "name": "",
          "type": "address"
        }
      ],
      "payable": false,
      "stateMutability": "view",
      "type": "function"
    },
    {
      "constant": true,
      "inputs": [
        {
          "name": "_amount",
          "type": "uint256"
        }
      ],
      "name": "withinExecutionLimit",
      "outputs": [
        {
          "name": "",
          "type": "bool"
        }
      ],
      "payable": false,
      "stateMutability": "view",
      "type": "function"
    },
    {
      "constant": true,
      "inputs": [],
      "name": "executionMaxPerTx",
      "outputs": [
        {
          "name": "",
          "type": "uint256"
        }
      ],
      "payable": false,
      "stateMutability": "view",
      "type": "function"
    },
    {
      "constant": false,
      "inputs": [
        {
          "name": "_recipient",
          "type": "address"
        },
        {
          "name": "_value",
          "type": "uint256"
        }
      ],
      "name": "handleBridgedTokens",
      "outputs": [],
      "payable": false,
      "stateMutability": "nonpayable",
      "type": "function"
    },
    {
      "constant": true,
      "inputs": [],
      "name": "owner",
      "outputs": [
        {
          "name": "",
          "type": "address"
        }
      ],
      "payable": false,
      "stateMutability": "view",
      "type": "function"
    },
    {
      "constant": true,
      "inputs": [],
      "name": "maxAvailablePerTx",
      "outputs": [
        {
          "name": "",
          "type": "uint256"
        }
      ],
      "payable": false,
      "stateMutability": "view",
      "type": "function"
    },
    {
      "constant": false,
      "inputs": [
        {
          "name": "_messageId",
          "type": "bytes32"
        }
      ],
      "name": "requestFailedMessageFix",
      "outputs": [],
      "payable": false,
      "stateMutability": "nonpayable",
      "type": "function"
    },
    {
      "constant": true,
      "inputs": [],
      "name": "getBridgeInterfacesVersion",
      "outputs": [
        {
          "name": "major",
          "type": "uint64"
        },
        {
          "name": "minor",
          "type": "uint64"
        },
        {
          "name": "patch",
          "type": "uint64"
        }
      ],
      "payable": false,
      "stateMutability": "pure",
      "type": "function"
    },
    {
      "constant": false,
      "inputs": [
        {
          "name": "_minPerTx",
          "type": "uint256"
        }
      ],
      "name": "setMinPerTx",
      "outputs": [],
      "payable": false,
      "stateMutability": "nonpayable",
      "type": "function"
    },
    {
      "constant": false,
      "inputs": [
        {
          "name": "_dailyLimit",
          "type": "uint256"
        }
      ],
      "name": "setDailyLimit",
      "outputs": [],
      "payable": false,
      "stateMutability": "nonpayable",
      "type": "function"
    },
    {
      "constant": true,
      "inputs": [],
      "name": "requestGasLimit",
      "outputs": [
        {
          "name": "",
          "type": "uint256"
        }
      ],
      "payable": false,
      "stateMutability": "view",
      "type": "function"
    },
    {
      "constant": false,
      "inputs": [
        {
          "name": "_maxPerTx",
          "type": "uint256"
        }
      ],
      "name": "setMaxPerTx",
      "outputs": [],
      "payable": false,
      "stateMutability": "nonpayable",
      "type": "function"
    },
    {
      "constant": true,
      "inputs": [],
      "name": "bridgeContract",
      "outputs": [
        {
          "name": "",
          "type": "address"
        }
      ],
      "payable": false,
      "stateMutability": "view",
      "type": "function"
    },
    {
      "constant": true,
      "inputs": [],
      "name": "decimalShift",
      "outputs": [
        {
          "name": "",
          "type": "int256"
        }
      ],
      "payable": false,
      "stateMutability": "view",
      "type": "function"
    },
    {
      "constant": true,
      "inputs": [],
      "name": "feeManagerContract",
      "outputs": [
        {
          "name": "",
          "type": "address"
        }
      ],
      "payable": false,
      "stateMutability": "view",
      "type": "function"
    },
    {
      "constant": true,
      "inputs": [],
      "name": "minPerTx",
      "outputs": [
        {
          "name": "",
          "type": "uint256"
        }
      ],
      "payable": false,
      "stateMutability": "view",
      "type": "function"
    },
    {
      "constant": true,
      "inputs": [
        {
          "name": "_amount",
          "type": "uint256"
        }
      ],
      "name": "withinLimit",
      "outputs": [
        {
          "name": "",
          "type": "bool"
        }
      ],
      "payable": false,
      "stateMutability": "view",
      "type": "function"
    },
    {
      "constant": false,
      "inputs": [
        {
          "name": "_maxPerTx",
          "type": "uint256"
        }
      ],
      "name": "setExecutionMaxPerTx",
      "outputs": [],
      "payable": false,
      "stateMutability": "nonpayable",
      "type": "function"
    },
    {
      "constant": false,
      "inputs": [
        {
          "name": "newOwner",
          "type": "address"
        }
      ],
      "name": "transferOwnership",
      "outputs": [],
      "payable": false,
      "stateMutability": "nonpayable",
      "type": "function"
    },
    {
      "constant": false,
      "inputs": [
        {
          "name": "_requestGasLimit",
          "type": "uint256"
        }
      ],
      "name": "setRequestGasLimit",
      "outputs": [],
      "payable": false,
      "stateMutability": "nonpayable",
      "type": "function"
    },
    {
      "constant": true,
      "inputs": [],
      "name": "maxPerTx",
      "outputs": [
        {
          "name": "",
          "type": "uint256"
        }
      ],
      "payable": false,
      "stateMutability": "view",
      "type": "function"
    },
    {
      "payable": true,
      "stateMutability": "payable",
      "type": "fallback"
    },
    {
      "anonymous": false,
      "inputs": [
        {
          "indexed": false,
          "name": "feeAmount",
          "type": "uint256"
        },
        {
          "indexed": true,
          "name": "messageId",
          "type": "bytes32"
        }
      ],
      "name": "FeeDistributed",
      "type": "event"
    },
    {
      "anonymous": false,
      "inputs": [
        {
          "indexed": true,
          "name": "messageId",
          "type": "bytes32"
        },
        {
          "indexed": false,
          "name": "recipient",
          "type": "address"
        },
        {
          "indexed": false,
          "name": "value",
          "type": "uint256"
        }
      ],
      "name": "FailedMessageFixed",
      "type": "event"
    },
    {
      "anonymous": false,
      "inputs": [
        {
          "indexed": true,
          "name": "recipient",
          "type": "address"
        },
        {
          "indexed": false,
          "name": "value",
          "type": "uint256"
        },
        {
          "indexed": true,
          "name": "messageId",
          "type": "bytes32"
        }
      ],
      "name": "TokensBridged",
      "type": "event"
    },
    {
      "anonymous": false,
      "inputs": [
        {
          "indexed": false,
          "name": "newLimit",
          "type": "uint256"
        }
      ],
      "name": "DailyLimitChanged",
      "type": "event"
    },
    {
      "anonymous": false,
      "inputs": [
        {
          "indexed": false,
          "name": "newLimit",
          "type": "uint256"
        }
      ],
      "name": "ExecutionDailyLimitChanged",
      "type": "event"
    },
    {
      "anonymous": false,
      "inputs": [
        {
          "indexed": false,
          "name": "previousOwner",
          "type": "address"
        },
        {
          "indexed": false,
          "name": "newOwner",
          "type": "address"
        }
      ],
      "name": "OwnershipTransferred",
      "type": "event"
    },
    {
      "constant": false,
      "inputs": [
        {
          "name": "_bridgeContract",
          "type": "address"
        },
        {
          "name": "_mediatorContract",
          "type": "address"
        },
        {
          "name": "_dailyLimitMaxPerTxMinPerTxArray",
          "type": "uint256[3]"
        },
        {
          "name": "_executionDailyLimitExecutionMaxPerTxArray",
          "type": "uint256[2]"
        },
        {
          "name": "_requestGasLimit",
          "type": "uint256"
        },
        {
          "name": "_decimalShift",
          "type": "int256"
        },
        {
          "name": "_owner",
          "type": "address"
        },
        {
          "name": "_feeManager",
          "type": "address"
        }
      ],
      "name": "initialize",
      "outputs": [
        {
          "name": "",
          "type": "bool"
        }
      ],
      "payable": false,
      "stateMutability": "nonpayable",
      "type": "function"
    },
    {
      "constant": false,
      "inputs": [
        {
          "name": "_receiver",
          "type": "address"
        }
      ],
      "name": "relayTokens",
      "outputs": [],
      "payable": true,
      "stateMutability": "payable",
      "type": "function"
    },
    {
      "constant": false,
      "inputs": [
        {
          "name": "_token",
          "type": "address"
        },
        {
          "name": "_to",
          "type": "address"
        }
      ],
      "name": "claimTokens",
      "outputs": [],
      "payable": false,
      "stateMutability": "nonpayable",
      "type": "function"
    },
    {
      "constant": false,
      "inputs": [
        {
          "name": "_receiver",
          "type": "address"
        }
      ],
      "name": "fixMediatorBalance",
      "outputs": [],
      "payable": false,
      "stateMutability": "nonpayable",
      "type": "function"
    }
  ],
  "bytecode": "0x608060405234801561001057600080fd5b50612d5d806100206000396000f3006080604052600436106101c95763ffffffff60e060020a6000350416630950d51581146101df5780630b26cf66146101f75780632bd0bb0514610218578063392e53cd146102425780633dd95d1b1461026b5780633e6968b614610283578063437764df1461029857806343b37dd3146102e25780634b94f815146102f75780634fb3fef71461030c578063521c5dcf1461032457806358bf7c791461036857806359339982146103895780635d1e9307146103a157806360756f7c146103b557806367eeba0c146103d657806369ffa08a146103eb5780636e5d6bea14610412578063871c076014610433578063879ce676146104645780638aa1949a1461047c5780638b6c0354146104915780638da5cb5b146104b557806395e54a17146104ca5780639a4a4395146104df5780639cb7595a146104f7578063a2a6ca2714610538578063b20d30a914610550578063be3b625b14610568578063c6f6f2161461057d578063cd59658314610595578063dae5f0fd146105aa578063dbe03a8b146105bf578063df25f3f0146105d4578063ea9f4968146105e9578063f20151e114610601578063f2fde38b14610619578063f3b837911461063a578063f968adbe14610652575b36156101d457600080fd5b6101dd33610667565b005b3480156101eb57600080fd5b506101dd6004356106c7565b34801561020357600080fd5b506101dd600160a060020a0360043516610796565b34801561022457600080fd5b506102306004356107bb565b60408051918252519081900360200190f35b34801561024e57600080fd5b50610257610878565b604080519115158252519081900360200190f35b34801561027757600080fd5b506101dd6004356108c9565b34801561028f57600080fd5b50610230610989565b3480156102a457600080fd5b506102ad610992565b604080517fffffffff000000000000000000000000000000000000000000000000000000009092168252519081900360200190f35b3480156102ee57600080fd5b506102306109b6565b34801561030357600080fd5b50610230610a04565b34801561031857600080fd5b50610230600435610a51565b34801561033057600080fd5b50610257600160a060020a0360043581169060243581169060449060a49060e435906101043590610124358116906101443516610acc565b34801561037457600080fd5b506101dd600160a060020a0360043516610c79565b34801561039557600080fd5b50610257600435610d8c565b6101dd600160a060020a0360043516610e55565b3480156103c157600080fd5b506101dd600160a060020a0360043516610e5e565b3480156103e257600080fd5b50610230610e83565b3480156103f757600080fd5b506101dd600160a060020a0360043581169060243516610ed1565b34801561041e57600080fd5b506101dd600160a060020a0360043516610f72565b34801561043f57600080fd5b50610448610f97565b60408051600160a060020a039092168252519081900360200190f35b34801561047057600080fd5b50610257600435610fee565b34801561048857600080fd5b5061023061102c565b34801561049d57600080fd5b506101dd600160a060020a036004351660243561107a565b3480156104c157600080fd5b506104486110fa565b3480156104d657600080fd5b50610230611151565b3480156104eb57600080fd5b506101dd6004356111ab565b34801561050357600080fd5b5061050c6114e7565b6040805167ffffffffffffffff9485168152928416602084015292168183015290519081900360600190f35b34801561054457600080fd5b506101dd6004356114f1565b34801561055c57600080fd5b506101dd60043561158d565b34801561057457600080fd5b5061023061164d565b34801561058957600080fd5b506101dd60043561169b565b3480156105a157600080fd5b50610448611733565b3480156105b657600080fd5b5061023061178a565b3480156105cb57600080fd5b506104486117d8565b3480156105e057600080fd5b5061023061182f565b3480156105f557600080fd5b5061025760043561187d565b34801561060d57600080fd5b506101dd6004356118c8565b34801561062557600080fd5b506101dd600160a060020a0360043516611944565b34801561064657600080fd5b506101dd600435611969565b34801561065e57600080fd5b5061023061198e565b6000341161067457600080fd5b61067d3461187d565b151561068857600080fd5b610699610693610989565b346119dc565b6106b96106b4346106a8610a04565b9063ffffffff611aa516565b611ab8565b6106c4338234611b04565b50565b6000806106d2611733565b600160a060020a031633146106e657600080fd5b6106ee610f97565b600160a060020a03166106ff611c8e565b600160a060020a03161461071257600080fd5b61071b83610d8c565b1561072557600080fd5b61072e83611d06565b915061073983611dd5565b905061074483611e58565b61074e8282611f2a565b60408051600160a060020a038416815260208101839052815185927f06297b0797e3363e96e454edd4ab62862051bf559a7a431ce09415306771d133928290030190a2505050565b61079e6110fa565b600160a060020a031633146107b257600080fd5b6106c481611f4f565b60008060008360405160200180807f746f74616c5370656e74506572446179000000000000000000000000000000008152506010018281526020019150506040516020818303038152906040526040518082805190602001908083835b602083106108375780518252601f199092019160209182019101610818565b51815160209384036101000a600019018019909216911617905260408051929094018290039091208652850195909552929092016000205495945050505050565b7f0a6f646cd611241d8073675e00d1a1ff700fbf1b53fcf473de56d1e6e4b714ba60005260046020527f078d888f9b66f3f8bfa10909e31f1e16240db73449f0500afdbbe3a70da457cc5460ff1690565b6108d16110fa565b600160a060020a031633146108e557600080fd5b6108ed61102c565b8111806108f8575080155b151561090357600080fd5b7f21dbcab260e413c20dc13c28b7db95e2b423d1135f42bb8b7d5214a92270d237600090815260209081527fadd938dbd083a16bae12238cd914fca0afc7a30edb55b1cd5c7f1823f1b0e4218290556040805183815290517f9bebf928b90863f24cc31f726a3a7545efd409f1dcf552301b1ee3710da70d3b929181900390910190a150565b62015180420490565b7f582ed8fd0000000000000000000000000000000000000000000000000000000090565b7f21dbcab260e413c20dc13c28b7db95e2b423d1135f42bb8b7d5214a92270d23760009081526020527fadd938dbd083a16bae12238cd914fca0afc7a30edb55b1cd5c7f1823f1b0e4215490565b7f3db340e280667ee926fa8c51e8f9fcf88a0ff221a66d84d63b4778127d97d13960009081526020527ef98556deae64bbaa11436ee534ae029e85ed112aff9b71330af4c2d320eac95490565b60008060008360405160200180807f746f74616c457865637574656450657244617900000000000000000000000000815250601301828152602001915050604051602081830303815290604052604051808280519060200190808383602083106108375780518252601f199092019160209182019101610818565b6040805160048152602481018252602081018051600160e060020a03167f6fde8202000000000000000000000000000000000000000000000000000000001781529151815160009330939291829190808383895b83811015610b38578181015183820152602001610b20565b50505050905090810190601f168015610b655780820380516001836020036101000a031916815260200191505b509150506000604051808303816000865af19150501580610bf7575030600160a060020a0316636fde82026040518163ffffffff1660e060020a028152600401602060405180830381600087803b158015610bbf57600080fd5b505af1158015610bd3573d6000803e3d6000fd5b505050506040513d6020811015610be957600080fd5b5051600160a060020a031633145b80610c0157503330145b1515610c0c57600080fd5b610c5c8989896003806020026040519081016040528092919082600360200280828437505060408051808201825293508d9250600291508390839080828437820191505050505089898989611fda565b610c6461203e565b610c6c610878565b9998505050505050505050565b60008060008030600160a060020a0316636fde82026040518163ffffffff1660e060020a028152600401602060405180830381600087803b158015610cbd57600080fd5b505af1158015610cd1573d6000803e3d6000fd5b505050506040513d6020811015610ce757600080fd5b5051600160a060020a03163314610cfd57600080fd5b84600160a060020a0381161515610d1357600080fd5b30319450610d1f610a04565b9350838511610d2d57600080fd5b8385039250610d3a611151565b915060008211610d4957600080fd5b81831115610d55578192505b610d66610d60610989565b846119dc565b610d796106b4858563ffffffff611aa516565b610d84868785611b04565b505050505050565b6000600460008360405160200180807f6d65737361676546697865640000000000000000000000000000000000000000815250600c0182600019166000191681526020019150506040516020818303038152906040526040518082805190602001908083835b60208310610e115780518252601f199092019160209182019101610df2565b51815160209384036101000a600019018019909216911617905260408051929094018290039091208652850195909552929092016000205460ff1695945050505050565b6106c481610667565b610e666110fa565b600160a060020a03163314610e7a57600080fd5b6106c481612095565b7f4a6a899679f26b73530d8cf1001e83b6f7702e04b6fdb98f3c62dc7e47e041a560009081526020527f1ab29a5cca988aee50edccdd61c5bcaa7ad4b29a03b7ee50f298ceccfe14cc4e5490565b30600160a060020a0316636fde82026040518163ffffffff1660e060020a028152600401602060405180830381600087803b158015610f0f57600080fd5b505af1158015610f23573d6000803e3d6000fd5b505050506040513d6020811015610f3957600080fd5b5051600160a060020a03163314610f4f57600080fd5b600160a060020a0382161515610f6457600080fd5b610f6e8282612131565b5050565b610f7a6110fa565b600160a060020a03163314610f8e57600080fd5b6106c481612174565b7f98aa806e31e94a687a31c65769cb99670064dd7f5a87526da075c5fb4eab988060005260026020527f0c1206883be66049a02d4937078367c00b3d71dd1a9465df969363c6ddeac96d54600160a060020a031690565b600080611005836106a8611000610989565b610a51565b9050806110106109b6565b10158015611025575061102161102c565b8311155b9392505050565b7fc0ed44c192c86d1cc1ba51340b032c2766b4a2b0041031de13c46dd7104888d560009081526020527ff8e983ee86e5e377e9e34c9131b266382c3f04113d20de077f9e12663c7a646b5490565b611082611733565b600160a060020a0316331461109657600080fd5b61109e610f97565b600160a060020a03166110af611c8e565b600160a060020a0316146110c257600080fd5b6110cb81610fee565b156110f0576110e16110db610989565b826121eb565b6110eb8282612271565b610f6e565b610f6e82826123a1565b7f02016836a56b71f0d02689e69e326f4f4c1b9057164ef592671cf0d37c8040c060005260026020527fb7802e97e87ef2842a6cce7da7ffaeaedaa2f61a6a7870b23d9d01fc9b73712e54600160a060020a031690565b600080600080600061116161198e565b935061116b610e83565b925061117d611178610989565b6107bb565b915081831161118d576000611191565b8183035b90508084106111a057806111a2565b835b94505050505090565b600060606111b7611733565b600160a060020a031663cb08a10c846040518263ffffffff1660e060020a028152600401808260001916600019168152602001915050602060405180830381600087803b15801561120757600080fd5b505af115801561121b573d6000803e3d6000fd5b505050506040513d602081101561123157600080fd5b50511561123d57600080fd5b30611246611733565b600160a060020a0316633f9a8e7e856040518263ffffffff1660e060020a028152600401808260001916600019168152602001915050602060405180830381600087803b15801561129657600080fd5b505af11580156112aa573d6000803e3d6000fd5b505050506040513d60208110156112c057600080fd5b5051600160a060020a0316146112d557600080fd5b6112dd610f97565b600160a060020a03166112ee611733565b600160a060020a0316634a610b04856040518263ffffffff1660e060020a028152600401808260001916600019168152602001915050602060405180830381600087803b15801561133e57600080fd5b505af1158015611352573d6000803e3d6000fd5b505050506040513d602081101561136857600080fd5b5051600160a060020a03161461137d57600080fd5b5050604080516024808201849052825180830390910181526044909101909152602081018051600160e060020a03167f0950d51500000000000000000000000000000000000000000000000000000000908117909152906113dc611733565b600160a060020a031663dc8601b36113f2610f97565b836113fb61164d565b6040518463ffffffff1660e060020a0281526004018084600160a060020a0316600160a060020a0316815260200180602001838152602001828103825284818151815260200191508051906020019080838360005b83811015611468578181015183820152602001611450565b50505050905090810190601f1680156114955780820380516001836020036101000a031916815260200191505b50945050505050602060405180830381600087803b1580156114b657600080fd5b505af11580156114ca573d6000803e3d6000fd5b505050506040513d60208110156114e057600080fd5b5050505050565b6001806000909192565b6114f96110fa565b600160a060020a0316331461150d57600080fd5b6000811180156115235750611520610e83565b81105b8015611535575061153261198e565b81105b151561154057600080fd5b7fbbb088c505d18e049d114c7c91f11724e69c55ad6c5397e2b929e68b41fa05d160009081526020527f8df5c48c6b6e11d97548adc824ba0c99103ec09830fa5d53a179984085e6eaa055565b6115956110fa565b600160a060020a031633146115a957600080fd5b6115b161198e565b8111806115bc575080155b15156115c757600080fd5b7f4a6a899679f26b73530d8cf1001e83b6f7702e04b6fdb98f3c62dc7e47e041a5600090815260209081527f1ab29a5cca988aee50edccdd61c5bcaa7ad4b29a03b7ee50f298ceccfe14cc4e8290556040805183815290517fad4123ae17c414d9c6d2fec478b402e6b01856cc250fd01fbfd252fda0089d3c929181900390910190a150565b7f2dfd6c9f781bb6bbb5369c114e949b69ebb440ef3d4dd6b2836225eb1dc3a2be60009081526020527f2de0d2cdc19d356cb53b5984f91bfd3b31fe0c678a0d190a6db39274bb34753f5490565b6116a36110fa565b600160a060020a031633146116b757600080fd5b8015806116db57506116c761182f565b811180156116db57506116d8610e83565b81105b15156116e657600080fd5b7f0f8803acad17c63ee38bf2de71e1888bc7a079a6f73658e274b08018bea4e29c60009081526020527f9de0f81379b4d8e60fe509315d071b56e7b732abaf193e74e0d15808b0951d0955565b7f811bbb11e8899da471f0e69a3ed55090fc90215227fc5fb1cb0d6e962ea7b74f60005260026020527fb4ed64697d3ef8518241966f7c6f28b0d72f20f51198717d198d2d55076c593d54600160a060020a031690565b7f1e8ecaafaddea96ed9ac6d2642dcdfe1bebe58a930b1085842d8fc122b371ee560009081526020527fd5c78dd9468716ca9bb96be25d56436811b20aab3523a9904b12deef1cab239d5490565b7f779a349c5bee7817f04c960f525ee3e2f2516078c38c68a3149787976ee837e560005260026020527fc155b21a14c4592b97825e495fbe0d2705fb46420018cac5bfa7a09c43fae51754600160a060020a031690565b7fbbb088c505d18e049d114c7c91f11724e69c55ad6c5397e2b929e68b41fa05d160009081526020527f8df5c48c6b6e11d97548adc824ba0c99103ec09830fa5d53a179984085e6eaa05490565b60008061188f836106a8611178610989565b90508061189a610e83565b101580156118af57506118ab61198e565b8311155b801561102557506118be61182f565b9092101592915050565b6118d06110fa565b600160a060020a031633146118e457600080fd5b6118ec6109b6565b81106118f757600080fd5b7fc0ed44c192c86d1cc1ba51340b032c2766b4a2b0041031de13c46dd7104888d560009081526020527ff8e983ee86e5e377e9e34c9131b266382c3f04113d20de077f9e12663c7a646b55565b61194c6110fa565b600160a060020a0316331461196057600080fd5b6106c4816123a6565b6119716110fa565b600160a060020a0316331461198557600080fd5b6106c48161247d565b7f0f8803acad17c63ee38bf2de71e1888bc7a079a6f73658e274b08018bea4e29c60009081526020527f9de0f81379b4d8e60fe509315d071b56e7b732abaf193e74e0d15808b0951d095490565b6119e9816106a8846107bb565b6000808460405160200180807f746f74616c5370656e74506572446179000000000000000000000000000000008152506010018281526020019150506040516020818303038152906040526040518082805190602001908083835b60208310611a635780518252601f199092019160209182019101611a44565b51815160209384036101000a60001901801990921691161790526040805192909401829003909120865285019590955292909201600020939093555050505050565b81810182811015611ab257fe5b92915050565b7f3db340e280667ee926fa8c51e8f9fcf88a0ff221a66d84d63b4778127d97d13960009081526020527ef98556deae64bbaa11436ee534ae029e85ed112aff9b71330af4c2d320eac955565b60408051600160a060020a03841660248201526044808201849052825180830390910181526064909101909152602081018051600160e060020a03167f8b6c035400000000000000000000000000000000000000000000000000000000908117909152906000611b72611733565b600160a060020a031663dc8601b3611b88610f97565b84611b9161164d565b6040518463ffffffff1660e060020a0281526004018084600160a060020a0316600160a060020a0316815260200180602001838152602001828103825284818151815260200191508051906020019080838360005b83811015611bfe578181015183820152602001611be6565b50505050905090810190601f168015611c2b5780820380516001836020036101000a031916815260200191505b50945050505050602060405180830381600087803b158015611c4c57600080fd5b505af1158015611c60573d6000803e3d6000fd5b505050506040513d6020811015611c7657600080fd5b50519050611c8481856124de565b610d848187612560565b6000611c98611733565b600160a060020a031663d67bdd256040518163ffffffff1660e060020a028152600401602060405180830381600087803b158015611cd557600080fd5b505af1158015611ce9573d6000803e3d6000fd5b505050506040513d6020811015611cff57600080fd5b5051905090565b6000600260008360405160200180807f6d657373616765526563697069656e740000000000000000000000000000000081525060100182600019166000191681526020019150506040516020818303038152906040526040518082805190602001908083835b60208310611d8b5780518252601f199092019160209182019101611d6c565b51815160209384036101000a6000190180199092169116179052604080519290940182900390912086528501959095529290920160002054600160a060020a031695945050505050565b60008060008360405160200180807f6d65737361676556616c75650000000000000000000000000000000000000000815250600c018260001916600019168152602001915050604051602081830303815290604052604051808280519060200190808383602083106108375780518252601f199092019160209182019101610818565b6001600460008360405160200180807f6d65737361676546697865640000000000000000000000000000000000000000815250600c0182600019166000191681526020019150506040516020818303038152906040526040518082805190602001908083835b60208310611edd5780518252601f199092019160209182019101611ebe565b51815160209384036101000a60001901801990921691161790526040805192909401829003909120865285019590955292909201600020805460ff19169415159490941790935550505050565b611f456106b482611f39610a04565b9063ffffffff61264e16565b610f6e8282612660565b611f58816126c1565b1515611f6357600080fd5b7f811bbb11e8899da471f0e69a3ed55090fc90215227fc5fb1cb0d6e962ea7b74f60005260026020527fb4ed64697d3ef8518241966f7c6f28b0d72f20f51198717d198d2d55076c593d805473ffffffffffffffffffffffffffffffffffffffff1916600160a060020a0392909216919091179055565b611fe2610878565b15611fec57600080fd5b611ff588611f4f565b611ffe87612174565b6120078461247d565b612010866126c9565b61201985612826565b612022836128fb565b61202b81612095565b612034826123a6565b5050505050505050565b7f0a6f646cd611241d8073675e00d1a1ff700fbf1b53fcf473de56d1e6e4b714ba60005260046020527f078d888f9b66f3f8bfa10909e31f1e16240db73449f0500afdbbe3a70da457cc805460ff19166001179055565b600160a060020a03811615806120af57506120af816126c1565b15156120ba57600080fd5b7f779a349c5bee7817f04c960f525ee3e2f2516078c38c68a3149787976ee837e560005260026020527fc155b21a14c4592b97825e495fbe0d2705fb46420018cac5bfa7a09c43fae517805473ffffffffffffffffffffffffffffffffffffffff1916600160a060020a0392909216919091179055565b80600160a060020a038116151561214757600080fd5b600160a060020a03831615156121655761216082612964565b61216f565b61216f8383612970565b505050565b7f98aa806e31e94a687a31c65769cb99670064dd7f5a87526da075c5fb4eab988060005260026020527f0c1206883be66049a02d4937078367c00b3d71dd1a9465df969363c6ddeac96d805473ffffffffffffffffffffffffffffffffffffffff1916600160a060020a0392909216919091179055565b6121f8816106a884610a51565b6000808460405160200180807f746f74616c45786563757465645065724461790000000000000000000000000081525060130182815260200191505060405160208183030381529060405260405180828051906020019080838360208310611a635780518252601f199092019160209182019101611a44565b60008060008061228085612a23565b93506122916106b485611f39610a04565b612299612a36565b92506122a36117d8565b9150600160a060020a0382161561234f5781600160a060020a03166399a5d747856040518263ffffffff1660e060020a02815260040180828152602001915050602060405180830381600087803b1580156122fd57600080fd5b505af1158015612311573d6000803e3d6000fd5b505050506040513d602081101561232757600080fd5b50519050801561234f5761233c828285612a7d565b61234c848263ffffffff61264e16565b93505b6123598685612660565b6040805185815290518491600160a060020a038916917f2f9a6098d4503a127779ba975f5f6b04f842362b1809f346989e9abc0b4dedb69181900360200190a3505050505050565b600080fd5b600160a060020a03811615156123bb57600080fd5b7f8be0079c531659141344cd1fd0a4f28419497f9722a3daafe3b4186f6b6457e06123e46110fa565b60408051600160a060020a03928316815291841660208301528051918290030190a17f02016836a56b71f0d02689e69e326f4f4c1b9057164ef592671cf0d37c8040c060005260026020527fb7802e97e87ef2842a6cce7da7ffaeaedaa2f61a6a7870b23d9d01fc9b73712e805473ffffffffffffffffffffffffffffffffffffffff1916600160a060020a0392909216919091179055565b612485612b9c565b81111561249157600080fd5b7f2dfd6c9f781bb6bbb5369c114e949b69ebb440ef3d4dd6b2836225eb1dc3a2be60009081526020527f2de0d2cdc19d356cb53b5984f91bfd3b31fe0c678a0d190a6db39274bb34753f55565b806000808460405160200180807f6d65737361676556616c75650000000000000000000000000000000000000000815250600c01826000191660001916815260200191505060405160208183030381529060405260405180828051906020019080838360208310611a635780518252601f199092019160209182019101611a44565b80600260008460405160200180807f6d657373616765526563697069656e740000000000000000000000000000000081525060100182600019166000191681526020019150506040516020818303038152906040526040518082805190602001908083835b602083106125e45780518252601f1990920191602091820191016125c5565b51815160209384036101000a60001901801990921691161790526040805192909401829003909120865285019590955292909201600020805473ffffffffffffffffffffffffffffffffffffffff1916600160a060020a0395909516949094179093555050505050565b60008282111561265a57fe5b50900390565b604051600160a060020a0383169082156108fc029083906000818181858888f193505050501515610f6e578082612695612d01565b600160a060020a039091168152604051908190036020019082f0801580156114e0573d6000803e3d6000fd5b6000903b1190565b604081015160001080156126e4575060408101516020820151115b80156126f4575060208101518151115b15156126ff57600080fd5b80517f4a6a899679f26b73530d8cf1001e83b6f7702e04b6fdb98f3c62dc7e47e041a5600090815260208181527f1ab29a5cca988aee50edccdd61c5bcaa7ad4b29a03b7ee50f298ceccfe14cc4e92909255908201517f0f8803acad17c63ee38bf2de71e1888bc7a079a6f73658e274b08018bea4e29c82527f9de0f81379b4d8e60fe509315d071b56e7b732abaf193e74e0d15808b0951d095560408201517fbbb088c505d18e049d114c7c91f11724e69c55ad6c5397e2b929e68b41fa05d182527f8df5c48c6b6e11d97548adc824ba0c99103ec09830fa5d53a179984085e6eaa0557fad4123ae17c414d9c6d2fec478b402e6b01856cc250fd01fbfd252fda0089d3c9082905b60200201516040518082815260200191505060405180910390a150565b805160208201511061283757600080fd5b80517f21dbcab260e413c20dc13c28b7db95e2b423d1135f42bb8b7d5214a92270d237600090815260208181527fadd938dbd083a16bae12238cd914fca0afc7a30edb55b1cd5c7f1823f1b0e42192909255908201517fc0ed44c192c86d1cc1ba51340b032c2766b4a2b0041031de13c46dd7104888d582527ff8e983ee86e5e377e9e34c9131b266382c3f04113d20de077f9e12663c7a646b557f9bebf928b90863f24cc31f726a3a7545efd409f1dcf552301b1ee3710da70d3b908290612809565b604c198113801561290c5750604d81125b151561291757600080fd5b7f1e8ecaafaddea96ed9ac6d2642dcdfe1bebe58a930b1085842d8fc122b371ee560009081526020527fd5c78dd9468716ca9bb96be25d56436811b20aab3523a9904b12deef1cab239d55565b3031610f6e8282612660565b604080517f70a0823100000000000000000000000000000000000000000000000000000000815230600482015290518391600091600160a060020a038416916370a0823191602480830192602092919082900301818787803b1580156129d557600080fd5b505af11580156129e9573d6000803e3d6000fd5b505050506040513d60208110156129ff57600080fd5b50519050612a1d600160a060020a038516848363ffffffff612be316565b50505050565b6000611ab282612a3161178a565b612c78565b6000612a40611733565b600160a060020a031663669f618b6040518163ffffffff1660e060020a028152600401602060405180830381600087803b158015611cd557600080fd5b612a878383611f45565b604080513060248201526044810184905260606064820152600060848201819052825180830360a401815260c49092018352602082018051600160e060020a03167fa4c0ed360000000000000000000000000000000000000000000000000000000017815292518251600160a060020a038816949192839291908190849084905b83811015612b20578181015183820152602001612b08565b50505050905090810190601f168015612b4d5780820380516001836020036101000a031916815260200191505b509150506000604051808303816000865af150506040805184815290518392507f681bf203c0adea167c3149ed45e4ec409535394f7bd8941e675f26d1b1a4b6569181900360200190a2505050565b6000612ba6611733565b600160a060020a031663e5789d036040518163ffffffff1660e060020a028152600401602060405180830381600087803b158015611cd557600080fd5b82600160a060020a031663a9059cbb83836040518363ffffffff1660e060020a0281526004018083600160a060020a0316600160a060020a0316815260200182815260200192505050600060405180830381600087803b158015612c4657600080fd5b505af1158015612c5a573d6000803e3d6000fd5b505050503d1561216f5760206000803e600051151561216f57600080fd5b6000811515612c88575081611ab2565b6000821315612cac57612ca583600a84900a63ffffffff612cc316565b9050611ab2565b611025836000849003600a0a63ffffffff612cec16565b6000821515612cd457506000611ab2565b50818102818382811515612ce457fe5b0414611ab257fe5b60008183811515612cf957fe5b049392505050565b604051602180612d11833901905600608060405260405160208060218339810160405251600160a060020a038116ff00a165627a7a7230582015e023f90364ef25c2fbc6418b146bf2fc6699285e118576ab89a42c87f79f260029",
  "source": "pragma solidity 0.4.24;\n\nimport \"../MediatorBalanceStorage.sol\";\nimport \"./BasicAMBNativeToErc20.sol\";\n\n/**\n* @title HomeAMBNativeToErc20\n* @dev Home mediator implementation for native-to-erc20 bridge intended to work on top of AMB bridge.\n* It is design to be used as implementation contract of EternalStorageProxy contract.\n*/\ncontract HomeAMBNativeToErc20 is BasicAMBNativeToErc20, MediatorBalanceStorage {\n    /**\n    * @dev Stores the initial parameters of the mediator.\n    * @param _bridgeContract the address of the AMB bridge contract.\n    * @param _mediatorContract the address of the mediator contract on the other network.\n    * @param _dailyLimitMaxPerTxMinPerTxArray array with limit values for the assets to be bridged to the other network.\n    *   [ 0 = dailyLimit, 1 = maxPerTx, 2 = minPerTx ]\n    * @param _executionDailyLimitExecutionMaxPerTxArray array with limit values for the assets bridged from the other network.\n    *   [ 0 = executionDailyLimit, 1 = executionMaxPerTx ]\n    * @param _requestGasLimit the gas limit for the message execution.\n    * @param _decimalShift number of decimals shift required to adjust the amount of tokens bridged.\n    * @param _owner address of the owner of the mediator contract\n    * @param _feeManager address of the fee manager contract\n    */\n    function initialize(\n        address _bridgeContract,\n        address _mediatorContract,\n        uint256[3] _dailyLimitMaxPerTxMinPerTxArray, // [ 0 = dailyLimit, 1 = maxPerTx, 2 = minPerTx ]\n        uint256[2] _executionDailyLimitExecutionMaxPerTxArray, // [ 0 = executionDailyLimit, 1 = executionMaxPerTx ]\n        uint256 _requestGasLimit,\n        int256 _decimalShift,\n        address _owner,\n        address _feeManager\n    ) external onlyRelevantSender returns (bool) {\n        _initialize(\n            _bridgeContract,\n            _mediatorContract,\n            _dailyLimitMaxPerTxMinPerTxArray,\n            _executionDailyLimitExecutionMaxPerTxArray,\n            _requestGasLimit,\n            _decimalShift,\n            _owner,\n            _feeManager\n        );\n        setInitialize();\n        return isInitialized();\n    }\n\n    /**\n    * @dev Fallback method to be called to initiate the bridge operation of the native tokens to an erc20 representation\n    * that the user will receive in the same address on the other network.\n    */\n    function() public payable {\n        require(msg.data.length == 0);\n        nativeTransfer(msg.sender);\n    }\n\n    /**\n    * @dev Method to be called to initiate the bridge operation of the native tokens to an erc20 representation\n    * that the user will receive in the address specified by parameter on the other network.\n    * @param _receiver address that will receive the erc20 tokens on the other network.\n    */\n    function relayTokens(address _receiver) external payable {\n        nativeTransfer(_receiver);\n    }\n\n    /**\n    * @dev Validates the received native tokens and makes the request to mint the erc20 tokens on the other network.\n    * @param _receiver address that will receive the erc20 tokens on the other network.\n    */\n    function nativeTransfer(address _receiver) internal {\n        require(msg.value > 0);\n        require(withinLimit(msg.value));\n        addTotalSpentPerDay(getCurrentDay(), msg.value);\n        _setMediatorBalance(mediatorBalance().add(msg.value));\n        passMessage(msg.sender, _receiver, msg.value);\n    }\n\n    /**\n    * @dev Transfers the amount of locked native tokens that were bridged from the other network.\n    * If configured, it calculates, subtract and distribute the fees among the reward accounts.\n    * @param _receiver address that will receive the native tokens\n    * @param _value amount of native tokens to be received\n    */\n    function executeActionOnBridgedTokens(address _receiver, uint256 _value) internal {\n        uint256 valueToTransfer = _shiftValue(_value);\n        _setMediatorBalance(mediatorBalance().sub(valueToTransfer));\n\n        bytes32 _messageId = messageId();\n        IMediatorFeeManager feeManager = feeManagerContract();\n        if (feeManager != address(0)) {\n            uint256 fee = feeManager.calculateFee(valueToTransfer);\n            if (fee != 0) {\n                distributeFee(feeManager, fee, _messageId);\n                valueToTransfer = valueToTransfer.sub(fee);\n            }\n        }\n\n        Address.safeSendValue(_receiver, valueToTransfer);\n        emit TokensBridged(_receiver, valueToTransfer, _messageId);\n    }\n\n    /**\n    * @dev Transfers back the amount of locked native tokens that were bridged to the other network but failed.\n    * @param _receiver address that will receive the native tokens\n    * @param _value amount of native tokens to be received\n    */\n    function executeActionOnFixedTokens(address _receiver, uint256 _value) internal {\n        _setMediatorBalance(mediatorBalance().sub(_value));\n        Address.safeSendValue(_receiver, _value);\n    }\n\n    /**\n    * @dev Transfer the fee amount as native tokens to the fee manager contract.\n    * @param _feeManager address that will receive the native tokens.\n    * @param _fee amount of native tokens to be distribute.\n    */\n    function onFeeDistribution(address _feeManager, uint256 _fee) internal {\n        Address.safeSendValue(_feeManager, _fee);\n    }\n\n    /**\n    * @dev Allows to transfer any locked token on this contract that is not part of the bridge operations.\n    * Native tokens are not allowed to be claimed.\n    * @param _token address of the token.\n    * @param _to address that will receive the locked tokens on this contract.\n    */\n    function claimTokens(address _token, address _to) external onlyIfUpgradeabilityOwner {\n        // Since bridged coins are locked at this contract, it is not allowed to claim them with the use of claimTokens function\n        require(_token != address(0));\n        claimValues(_token, _to);\n    }\n\n    /**\n    * @dev Allows to send to the other network the amount of locked native tokens that can be forced into the contract\n    * without the invocation of the required methods.\n    * @param _receiver the address that will receive the tokens on the other network\n    */\n    function fixMediatorBalance(address _receiver) external onlyIfUpgradeabilityOwner validAddress(_receiver) {\n        uint256 balance = address(this).balance;\n        uint256 expectedBalance = mediatorBalance();\n        require(balance > expectedBalance);\n        uint256 diff = balance - expectedBalance;\n        uint256 available = maxAvailablePerTx();\n        require(available > 0);\n        if (diff > available) {\n            diff = available;\n        }\n        addTotalSpentPerDay(getCurrentDay(), diff);\n        _setMediatorBalance(expectedBalance.add(diff));\n        passMessage(_receiver, _receiver, diff);\n    }\n}\n",
  "sourcePath": "/Users/max/Projects/Symblox/TokenBridge/tokenbridge/contracts/contracts/upgradeable_contracts/amb_native_to_erc20/HomeAMBNativeToErc20.sol",
  "compiler": {
    "name": "solc",
    "version": "0.4.24+commit.e67f0147.Emscripten.clang"
  },
  "schemaVersion": "3.1.0",
  "updatedAt": "2020-11-26T16:22:39.916Z",
  "devdoc": {
    "methods": {
      "bridgeContract()": {
        "details": "Get the AMB interface for the bridge contract address",
        "return": "AMB interface for the bridge contract address"
      },
      "claimTokens(address,address)": {
        "details": "Allows to transfer any locked token on this contract that is not part of the bridge operations. Native tokens are not allowed to be claimed.",
        "params": {
          "_to": "address that will receive the locked tokens on this contract.",
          "_token": "address of the token."
        }
      },
      "decimalShift()": {
        "details": "Returns the value of foreign-to-home decimal shift.",
        "return": "decimal shift."
      },
      "feeManagerContract()": {
        "details": "Tells the fee manager contract address",
        "return": "the address of the fee manager contract."
      },
      "fixFailedMessage(bytes32)": {
        "details": "Handles the request to fix transferred assets which bridged message execution failed on the other network. It uses the information stored by passMessage method when the assets were initially transferred",
        "params": {
          "_messageId": "id of the message which execution failed on the other network."
        }
      },
      "fixMediatorBalance(address)": {
        "details": "Allows to send to the other network the amount of locked native tokens that can be forced into the contract without the invocation of the required methods.",
        "params": {
          "_receiver": "the address that will receive the tokens on the other network"
        }
      },
      "getBridgeInterfacesVersion()": {
        "details": "Tells the bridge interface version that this contract supports.",
        "return": "major value of the versionminor value of the versionpatch value of the version"
      },
      "getBridgeMode()": {
        "details": "Tells the bridge mode that this contract supports.",
        "return": "_data 4 bytes representing the bridge mode"
      },
      "handleBridgedTokens(address,uint256)": {
        "details": "Handles the bridged tokens. Checks that the value is inside the execution limits and invokes the method to execute the Mint or Unlock accordingly.",
        "params": {
          "_recipient": "address that will receive the tokens",
          "_value": "amount of tokens to be received"
        }
      },
      "initialize(address,address,uint256[3],uint256[2],uint256,int256,address,address)": {
        "details": "Stores the initial parameters of the mediator.",
        "params": {
          "_bridgeContract": "the address of the AMB bridge contract.",
          "_dailyLimitMaxPerTxMinPerTxArray": "array with limit values for the assets to be bridged to the other network.  [ 0 = dailyLimit, 1 = maxPerTx, 2 = minPerTx ]",
          "_decimalShift": "number of decimals shift required to adjust the amount of tokens bridged.",
          "_executionDailyLimitExecutionMaxPerTxArray": "array with limit values for the assets bridged from the other network.  [ 0 = executionDailyLimit, 1 = executionMaxPerTx ]",
          "_feeManager": "address of the fee manager contract",
          "_mediatorContract": "the address of the mediator contract on the other network.",
          "_owner": "address of the owner of the mediator contract",
          "_requestGasLimit": "the gas limit for the message execution."
        }
      },
      "maxAvailablePerTx()": {
        "details": "Retrieves maximum available bridge amount per one transaction taking into account maxPerTx() and dailyLimit() parameters.",
        "return": "minimum of maxPerTx parameter and remaining daily quota."
      },
      "mediatorBalance()": {
        "details": "Tells the expected mediator balance.",
        "return": "the current expected mediator balance."
      },
      "mediatorContractOnOtherSide()": {
        "details": "Tells the mediator contract address from the other network.",
        "return": "the address of the mediator contract."
      },
      "messageFixed(bytes32)": {
        "details": "Tells if a message sent to the AMB bridge has been fixed.",
        "return": "bool indicating the status of the message."
      },
      "owner()": {
        "details": "Tells the address of the owner",
        "return": "the address of the owner"
      },
      "relayTokens(address)": {
        "details": "Method to be called to initiate the bridge operation of the native tokens to an erc20 representation that the user will receive in the address specified by parameter on the other network.",
        "params": {
          "_receiver": "address that will receive the erc20 tokens on the other network."
        }
      },
      "requestFailedMessageFix(bytes32)": {
        "details": "Method to be called when a bridged message execution failed. It will generate a new message requesting to fix/roll back the transferred assets on the other network.",
        "params": {
          "_messageId": "id of the message which execution failed."
        }
      },
      "requestGasLimit()": {
        "details": "Tells the gas limit to be used in the message execution by the AMB bridge on the other network.",
        "return": "the gas limit for the message execution."
      },
      "setBridgeContract(address)": {
        "details": "Sets the AMB bridge contract address. Only the owner can call this method.",
        "params": {
          "_bridgeContract": "the address of the bridge contract."
        }
      },
      "setFeeManagerContract(address)": {
        "details": "Sets the fee manager contract address. Only the owner can call this method.",
        "params": {
          "_feeManager": "the address of the fee manager contract."
        }
      },
      "setMediatorContractOnOtherSide(address)": {
        "details": "Sets the mediator contract address from the other network. Only the owner can call this method.",
        "params": {
          "_mediatorContract": "the address of the mediator contract."
        }
      },
      "setRequestGasLimit(uint256)": {
        "details": "Sets the gas limit to be used in the message execution by the AMB bridge on the other network. This value can't exceed the parameter maxGasPerTx defined on the AMB bridge. Only the owner can call this method.",
        "params": {
          "_requestGasLimit": "the gas limit for the message execution."
        }
      },
      "transferOwnership(address)": {
        "details": "Allows the current owner to transfer control of the contract to a newOwner.",
        "params": {
          "newOwner": "the address to transfer ownership to."
        }
      }
    },
    "title": "HomeAMBNativeToErc20"
  },
  "userdoc": {
    "methods": {}
  }
}