{
  "contractName": "HomeAMBErc20ToNative",
  "abi": [
    {
      "constant": true,
      "inputs": [
        {
          "name": "_addr",
          "type": "address"
        }
      ],
      "name": "isRewardAddress",
      "outputs": [
        {
          "name": "",
          "type": "bool"
        }
      ],
      "payable": false,
      "stateMutability": "view",
      "type": "function"
    },
    {
      "constant": false,
      "inputs": [
        {
          "name": "_messageId",
          "type": "bytes32"
        }
      ],
      "name": "fixFailedMessage",
      "outputs": [],
      "payable": false,
      "stateMutability": "nonpayable",
      "type": "function"
    },
    {
      "constant": false,
      "inputs": [
        {
          "name": "_bridgeContract",
          "type": "address"
        }
      ],
      "name": "setBridgeContract",
      "outputs": [],
      "payable": false,
      "stateMutability": "nonpayable",
      "type": "function"
    },
    {
      "constant": false,
      "inputs": [
        {
          "name": "_addr",
          "type": "address"
        }
      ],
      "name": "removeRewardAddress",
      "outputs": [],
      "payable": false,
      "stateMutability": "nonpayable",
      "type": "function"
    },
    {
      "constant": true,
      "inputs": [
        {
          "name": "_day",
          "type": "uint256"
        }
      ],
      "name": "totalSpentPerDay",
      "outputs": [
        {
          "name": "",
          "type": "uint256"
        }
      ],
      "payable": false,
      "stateMutability": "view",
      "type": "function"
    },
    {
      "constant": true,
      "inputs": [],
      "name": "isInitialized",
      "outputs": [
        {
          "name": "",
          "type": "bool"
        }
      ],
      "payable": false,
      "stateMutability": "view",
      "type": "function"
    },
    {
      "constant": false,
      "inputs": [
        {
          "name": "_dailyLimit",
          "type": "uint256"
        }
      ],
      "name": "setExecutionDailyLimit",
      "outputs": [],
      "payable": false,
      "stateMutability": "nonpayable",
      "type": "function"
    },
    {
      "constant": true,
      "inputs": [],
      "name": "getCurrentDay",
      "outputs": [
        {
          "name": "",
          "type": "uint256"
        }
      ],
      "payable": false,
      "stateMutability": "view",
      "type": "function"
    },
    {
      "constant": true,
      "inputs": [],
      "name": "getBridgeMode",
      "outputs": [
        {
          "name": "_data",
          "type": "bytes4"
        }
      ],
      "payable": false,
      "stateMutability": "pure",
      "type": "function"
    },
    {
      "constant": true,
      "inputs": [],
      "name": "executionDailyLimit",
      "outputs": [
        {
          "name": "",
          "type": "uint256"
        }
      ],
      "payable": false,
      "stateMutability": "view",
      "type": "function"
    },
    {
      "constant": true,
      "inputs": [
        {
          "name": "_day",
          "type": "uint256"
        }
      ],
      "name": "totalExecutedPerDay",
      "outputs": [
        {
          "name": "",
          "type": "uint256"
        }
      ],
      "payable": false,
      "stateMutability": "view",
      "type": "function"
    },
    {
      "constant": true,
      "inputs": [
        {
          "name": "_messageId",
          "type": "bytes32"
        }
      ],
      "name": "messageFixed",
      "outputs": [
        {
          "name": "",
          "type": "bool"
        }
      ],
      "payable": false,
      "stateMutability": "view",
      "type": "function"
    },
    {
      "constant": true,
      "inputs": [],
      "name": "dailyLimit",
      "outputs": [
        {
          "name": "",
          "type": "uint256"
        }
      ],
      "payable": false,
      "stateMutability": "view",
      "type": "function"
    },
    {
      "constant": true,
      "inputs": [
        {
          "name": "_address",
          "type": "address"
        }
      ],
      "name": "getNextRewardAddress",
      "outputs": [
        {
          "name": "",
          "type": "address"
        }
      ],
      "payable": false,
      "stateMutability": "view",
      "type": "function"
    },
    {
      "constant": false,
      "inputs": [
        {
          "name": "_mediatorContract",
          "type": "address"
        }
      ],
      "name": "setMediatorContractOnOtherSide",
      "outputs": [],
      "payable": false,
      "stateMutability": "nonpayable",
      "type": "function"
    },
    {
      "constant": true,
      "inputs": [],
      "name": "rewardAddressCount",
      "outputs": [
        {
          "name": "",
          "type": "uint256"
        }
      ],
      "payable": false,
      "stateMutability": "view",
      "type": "function"
    },
    {
      "constant": true,
      "inputs": [],
      "name": "mediatorContractOnOtherSide",
      "outputs": [
        {
          "name": "",
          "type": "address"
        }
      ],
      "payable": false,
      "stateMutability": "view",
      "type": "function"
    },
    {
      "constant": true,
      "inputs": [
        {
          "name": "_amount",
          "type": "uint256"
        }
      ],
      "name": "withinExecutionLimit",
      "outputs": [
        {
          "name": "",
          "type": "bool"
        }
      ],
      "payable": false,
      "stateMutability": "view",
      "type": "function"
    },
    {
      "constant": true,
      "inputs": [],
      "name": "executionMaxPerTx",
      "outputs": [
        {
          "name": "",
          "type": "uint256"
        }
      ],
      "payable": false,
      "stateMutability": "view",
      "type": "function"
    },
    {
      "constant": false,
      "inputs": [
        {
          "name": "_recipient",
          "type": "address"
        },
        {
          "name": "_value",
          "type": "uint256"
        }
      ],
      "name": "handleBridgedTokens",
      "outputs": [],
      "payable": false,
      "stateMutability": "nonpayable",
      "type": "function"
    },
    {
      "constant": true,
      "inputs": [],
      "name": "owner",
      "outputs": [
        {
          "name": "",
          "type": "address"
        }
      ],
      "payable": false,
      "stateMutability": "view",
      "type": "function"
    },
    {
      "constant": true,
      "inputs": [],
      "name": "maxAvailablePerTx",
      "outputs": [
        {
          "name": "",
          "type": "uint256"
        }
      ],
      "payable": false,
      "stateMutability": "view",
      "type": "function"
    },
    {
      "constant": false,
      "inputs": [
        {
          "name": "_messageId",
          "type": "bytes32"
        }
      ],
      "name": "requestFailedMessageFix",
      "outputs": [],
      "payable": false,
      "stateMutability": "nonpayable",
      "type": "function"
    },
    {
      "constant": true,
      "inputs": [],
      "name": "getBridgeInterfacesVersion",
      "outputs": [
        {
          "name": "major",
          "type": "uint64"
        },
        {
          "name": "minor",
          "type": "uint64"
        },
        {
          "name": "patch",
          "type": "uint64"
        }
      ],
      "payable": false,
      "stateMutability": "pure",
      "type": "function"
    },
    {
      "constant": false,
      "inputs": [
        {
          "name": "_minPerTx",
          "type": "uint256"
        }
      ],
      "name": "setMinPerTx",
      "outputs": [],
      "payable": false,
      "stateMutability": "nonpayable",
      "type": "function"
    },
    {
      "constant": false,
      "inputs": [
        {
          "name": "_dailyLimit",
          "type": "uint256"
        }
      ],
      "name": "setDailyLimit",
      "outputs": [],
      "payable": false,
      "stateMutability": "nonpayable",
      "type": "function"
    },
    {
      "constant": false,
      "inputs": [
        {
          "name": "_addr",
          "type": "address"
        }
      ],
      "name": "addRewardAddress",
      "outputs": [],
      "payable": false,
      "stateMutability": "nonpayable",
      "type": "function"
    },
    {
      "constant": false,
      "inputs": [
        {
          "name": "_feeType",
          "type": "bytes32"
        },
        {
          "name": "_fee",
          "type": "uint256"
        }
      ],
      "name": "setFee",
      "outputs": [],
      "payable": false,
      "stateMutability": "nonpayable",
      "type": "function"
    },
    {
      "constant": true,
      "inputs": [],
      "name": "requestGasLimit",
      "outputs": [
        {
          "name": "",
          "type": "uint256"
        }
      ],
      "payable": false,
      "stateMutability": "view",
      "type": "function"
    },
    {
      "constant": false,
      "inputs": [
        {
          "name": "_maxPerTx",
          "type": "uint256"
        }
      ],
      "name": "setMaxPerTx",
      "outputs": [],
      "payable": false,
      "stateMutability": "nonpayable",
      "type": "function"
    },
    {
      "constant": true,
      "inputs": [],
      "name": "F_ADDR",
      "outputs": [
        {
          "name": "",
          "type": "address"
        }
      ],
      "payable": false,
      "stateMutability": "view",
      "type": "function"
    },
    {
      "constant": true,
      "inputs": [
        {
          "name": "_feeType",
          "type": "bytes32"
        },
        {
          "name": "_value",
          "type": "uint256"
        }
      ],
      "name": "calculateFee",
      "outputs": [
        {
          "name": "",
          "type": "uint256"
        }
      ],
      "payable": false,
      "stateMutability": "view",
      "type": "function"
    },
    {
      "constant": true,
      "inputs": [],
      "name": "bridgeContract",
      "outputs": [
        {
          "name": "",
          "type": "address"
        }
      ],
      "payable": false,
      "stateMutability": "view",
      "type": "function"
    },
    {
      "constant": true,
      "inputs": [],
      "name": "decimalShift",
      "outputs": [
        {
          "name": "",
          "type": "int256"
        }
      ],
      "payable": false,
      "stateMutability": "view",
      "type": "function"
    },
    {
      "constant": true,
      "inputs": [],
      "name": "minPerTx",
      "outputs": [
        {
          "name": "",
          "type": "uint256"
        }
      ],
      "payable": false,
      "stateMutability": "view",
      "type": "function"
    },
    {
      "constant": true,
      "inputs": [
        {
          "name": "_feeType",
          "type": "bytes32"
        }
      ],
      "name": "getFee",
      "outputs": [
        {
          "name": "",
          "type": "uint256"
        }
      ],
      "payable": false,
      "stateMutability": "view",
      "type": "function"
    },
    {
      "constant": true,
      "inputs": [],
      "name": "rewardAddressList",
      "outputs": [
        {
          "name": "",
          "type": "address[]"
        }
      ],
      "payable": false,
      "stateMutability": "view",
      "type": "function"
    },
    {
      "constant": true,
      "inputs": [
        {
          "name": "_amount",
          "type": "uint256"
        }
      ],
      "name": "withinLimit",
      "outputs": [
        {
          "name": "",
          "type": "bool"
        }
      ],
      "payable": false,
      "stateMutability": "view",
      "type": "function"
    },
    {
      "constant": false,
      "inputs": [
        {
          "name": "_maxPerTx",
          "type": "uint256"
        }
      ],
      "name": "setExecutionMaxPerTx",
      "outputs": [],
      "payable": false,
      "stateMutability": "nonpayable",
      "type": "function"
    },
    {
      "constant": false,
      "inputs": [
        {
          "name": "newOwner",
          "type": "address"
        }
      ],
      "name": "transferOwnership",
      "outputs": [],
      "payable": false,
      "stateMutability": "nonpayable",
      "type": "function"
    },
    {
      "constant": false,
      "inputs": [
        {
          "name": "_requestGasLimit",
          "type": "uint256"
        }
      ],
      "name": "setRequestGasLimit",
      "outputs": [],
      "payable": false,
      "stateMutability": "nonpayable",
      "type": "function"
    },
    {
      "constant": true,
      "inputs": [],
      "name": "FOREIGN_TO_HOME_FEE",
      "outputs": [
        {
          "name": "",
          "type": "bytes32"
        }
      ],
      "payable": false,
      "stateMutability": "view",
      "type": "function"
    },
    {
      "constant": true,
      "inputs": [],
      "name": "maxPerTx",
      "outputs": [
        {
          "name": "",
          "type": "uint256"
        }
      ],
      "payable": false,
      "stateMutability": "view",
      "type": "function"
    },
    {
      "constant": true,
      "inputs": [],
      "name": "HOME_TO_FOREIGN_FEE",
      "outputs": [
        {
          "name": "",
          "type": "bytes32"
        }
      ],
      "payable": false,
      "stateMutability": "view",
      "type": "function"
    },
    {
      "payable": true,
      "stateMutability": "payable",
      "type": "fallback"
    },
    {
      "anonymous": false,
      "inputs": [
        {
          "indexed": false,
          "name": "feeType",
          "type": "bytes32"
        },
        {
          "indexed": false,
          "name": "fee",
          "type": "uint256"
        }
      ],
      "name": "FeeUpdated",
      "type": "event"
    },
    {
      "anonymous": false,
      "inputs": [
        {
          "indexed": false,
          "name": "fee",
          "type": "uint256"
        },
        {
          "indexed": true,
          "name": "messageId",
          "type": "bytes32"
        }
      ],
      "name": "FeeDistributed",
      "type": "event"
    },
    {
      "anonymous": false,
      "inputs": [
        {
          "indexed": true,
          "name": "messageId",
          "type": "bytes32"
        },
        {
          "indexed": false,
          "name": "recipient",
          "type": "address"
        },
        {
          "indexed": false,
          "name": "value",
          "type": "uint256"
        }
      ],
      "name": "FailedMessageFixed",
      "type": "event"
    },
    {
      "anonymous": false,
      "inputs": [
        {
          "indexed": true,
          "name": "recipient",
          "type": "address"
        },
        {
          "indexed": false,
          "name": "value",
          "type": "uint256"
        },
        {
          "indexed": true,
          "name": "messageId",
          "type": "bytes32"
        }
      ],
      "name": "TokensBridged",
      "type": "event"
    },
    {
      "anonymous": false,
      "inputs": [
        {
          "indexed": false,
          "name": "newLimit",
          "type": "uint256"
        }
      ],
      "name": "DailyLimitChanged",
      "type": "event"
    },
    {
      "anonymous": false,
      "inputs": [
        {
          "indexed": false,
          "name": "newLimit",
          "type": "uint256"
        }
      ],
      "name": "ExecutionDailyLimitChanged",
      "type": "event"
    },
    {
      "anonymous": false,
      "inputs": [
        {
          "indexed": false,
          "name": "previousOwner",
          "type": "address"
        },
        {
          "indexed": false,
          "name": "newOwner",
          "type": "address"
        }
      ],
      "name": "OwnershipTransferred",
      "type": "event"
    },
    {
      "anonymous": false,
      "inputs": [
        {
          "indexed": true,
          "name": "addr",
          "type": "address"
        }
      ],
      "name": "RewardAddressAdded",
      "type": "event"
    },
    {
      "anonymous": false,
      "inputs": [
        {
          "indexed": true,
          "name": "addr",
          "type": "address"
        }
      ],
      "name": "RewardAddressRemoved",
      "type": "event"
    },
    {
      "constant": false,
      "inputs": [
        {
          "name": "_bridgeContract",
          "type": "address"
        },
        {
          "name": "_mediatorContract",
          "type": "address"
        },
        {
          "name": "_dailyLimitMaxPerTxMinPerTxArray",
          "type": "uint256[3]"
        },
        {
          "name": "_executionDailyLimitExecutionMaxPerTxArray",
          "type": "uint256[2]"
        },
        {
          "name": "_requestGasLimit",
          "type": "uint256"
        },
        {
          "name": "_decimalShift",
          "type": "int256"
        },
        {
          "name": "_owner",
          "type": "address"
        },
        {
          "name": "_blockReward",
          "type": "address"
        }
      ],
      "name": "initialize",
      "outputs": [
        {
          "name": "",
          "type": "bool"
        }
      ],
      "payable": false,
      "stateMutability": "nonpayable",
      "type": "function"
    },
    {
      "constant": false,
      "inputs": [
        {
          "name": "_bridgeContract",
          "type": "address"
        },
        {
          "name": "_mediatorContract",
          "type": "address"
        },
        {
          "name": "_dailyLimitMaxPerTxMinPerTxArray",
          "type": "uint256[3]"
        },
        {
          "name": "_executionDailyLimitExecutionMaxPerTxArray",
          "type": "uint256[2]"
        },
        {
          "name": "_requestGasLimit",
          "type": "uint256"
        },
        {
          "name": "_decimalShift",
          "type": "int256"
        },
        {
          "name": "_owner",
          "type": "address"
        },
        {
          "name": "_blockReward",
          "type": "address"
        },
        {
          "name": "_rewardAddresses",
          "type": "address[]"
        },
        {
          "name": "_fees",
          "type": "uint256[2]"
        }
      ],
      "name": "rewardableInitialize",
      "outputs": [
        {
          "name": "",
          "type": "bool"
        }
      ],
      "payable": false,
      "stateMutability": "nonpayable",
      "type": "function"
    },
    {
      "constant": false,
      "inputs": [
        {
          "name": "_receiver",
          "type": "address"
        }
      ],
      "name": "relayTokens",
      "outputs": [],
      "payable": true,
      "stateMutability": "payable",
      "type": "function"
    },
    {
      "constant": false,
      "inputs": [
        {
          "name": "_blockReward",
          "type": "address"
        }
      ],
      "name": "setBlockRewardContract",
      "outputs": [],
      "payable": false,
      "stateMutability": "nonpayable",
      "type": "function"
    },
    {
      "constant": true,
      "inputs": [],
      "name": "blockRewardContract",
      "outputs": [
        {
          "name": "",
          "type": "address"
        }
      ],
      "payable": false,
      "stateMutability": "view",
      "type": "function"
    },
    {
      "constant": true,
      "inputs": [],
      "name": "totalBurntCoins",
      "outputs": [
        {
          "name": "",
          "type": "uint256"
        }
      ],
      "payable": false,
      "stateMutability": "view",
      "type": "function"
    },
    {
      "constant": false,
      "inputs": [
        {
          "name": "_token",
          "type": "address"
        },
        {
          "name": "_to",
          "type": "address"
        }
      ],
      "name": "claimTokens",
      "outputs": [],
      "payable": false,
      "stateMutability": "nonpayable",
      "type": "function"
    },
    {
      "constant": false,
      "inputs": [
        {
          "name": "_receiver",
          "type": "address"
        }
      ],
      "name": "fixMediatorBalance",
      "outputs": [],
      "payable": false,
      "stateMutability": "nonpayable",
      "type": "function"
    }
  ],
  "bytecode": "0x608060405234801561001057600080fd5b50613e03806100206000396000f3006080604052600436106102585763ffffffff60e060020a600035041663071664c5811461026e5780630950d515146102a35780630b26cf66146102bb5780630e8162ba146102dc57806310b8075b1461030357806327a3e16b146103245780632bd0bb0514610345578063392e53cd1461035d5780633dd95d1b146103725780633e6968b61461038a578063437764df1461039f57806343b37dd3146103e65780634fb3fef7146103fb578063521c5dcf1461041357806356b54bae146104aa57806358bf7c79146104db57806359339982146104fc5780635d1e93071461051457806367eeba0c1461052857806369ffa08a1461053d5780636d92f509146105645780636e5d6bea1461058557806371e9a8b2146105a6578063871c0760146105bb578063879ce676146105d05780638aa1949a146105e85780638b6c0354146105fd5780638da5cb5b1461062157806395e54a17146106365780639a4a43951461064b5780639cb7595a14610663578063a2a6ca27146106a4578063b20d30a9146106bc578063b4be506e146106d4578063b96f8f32146106f5578063be3b625b14610710578063c6f6f21614610725578063c794c7691461073d578063cc65e6e514610752578063cd5965831461076d578063dae5f0fd14610782578063df25f3f014610797578063e5047d7b146107ac578063e5f3d3a514610802578063e9d6c0591461081a578063ea9f49681461087f578063f20151e114610897578063f2fde38b146108af578063f3b83791146108d0578063f3ce14c2146108e8578063f968adbe146108fd578063fab1909114610912575b361561026357600080fd5b61026c33610927565b005b34801561027a57600080fd5b5061028f600160a060020a0360043516610aac565b604080519115158252519081900360200190f35b3480156102af57600080fd5b5061026c600435610adf565b3480156102c757600080fd5b5061026c600160a060020a0360043516610bae565b3480156102e857600080fd5b506102f1610bd6565b60408051918252519081900360200190f35b34801561030f57600080fd5b5061026c600160a060020a0360043516610c24565b34801561033057600080fd5b5061026c600160a060020a0360043516610c49565b34801561035157600080fd5b506102f1600435610c6e565b34801561036957600080fd5b5061028f610d2b565b34801561037e57600080fd5b5061026c600435610d7c565b34801561039657600080fd5b506102f1610e3c565b3480156103ab57600080fd5b506103b4610e45565b604080517bffffffffffffffffffffffffffffffffffffffffffffffffffffffff199092168252519081900360200190f35b3480156103f257600080fd5b506102f1610e69565b34801561040757600080fd5b506102f1600435610eb7565b34801561041f57600080fd5b5060408051606081810190925261028f91600160a060020a036004803582169360243590921692369260a491604490600390839083908082843750506040805180820182529497969581810195945092506002915083908390808284375093965050833594505050602082013591600160a060020a0360408201358116925060609091013516610f32565b3480156104b657600080fd5b506104bf6110a7565b60408051600160a060020a039092168252519081900360200190f35b3480156104e757600080fd5b5061026c600160a060020a03600435166110b6565b34801561050857600080fd5b5061028f60043561119f565b61026c600160a060020a0360043516611268565b34801561053457600080fd5b506102f1611271565b34801561054957600080fd5b5061026c600160a060020a03600435811690602435166112bf565b34801561057057600080fd5b506104bf600160a060020a0360043516611360565b34801561059157600080fd5b5061026c600160a060020a0360043516611448565b3480156105b257600080fd5b506102f161146d565b3480156105c757600080fd5b506104bf6114bb565b3480156105dc57600080fd5b5061028f600435611512565b3480156105f457600080fd5b506102f161155c565b34801561060957600080fd5b5061026c600160a060020a03600435166024356115aa565b34801561062d57600080fd5b506104bf61162a565b34801561064257600080fd5b506102f1611681565b34801561065757600080fd5b5061026c6004356116db565b34801561066f57600080fd5b50610678611a17565b6040805167ffffffffffffffff9485168152928416602084015292168183015290519081900360600190f35b3480156106b057600080fd5b5061026c600435611a20565b3480156106c857600080fd5b5061026c600435611abc565b3480156106e057600080fd5b5061026c600160a060020a0360043516611b7c565b34801561070157600080fd5b5061026c600435602435611ba1565b34801561071c57600080fd5b506102f1611bc7565b34801561073157600080fd5b5061026c600435611c15565b34801561074957600080fd5b506104bf611cad565b34801561075e57600080fd5b506102f1600435602435611cb8565b34801561077957600080fd5b506104bf611cf6565b34801561078e57600080fd5b506102f1611d4d565b3480156107a357600080fd5b506102f1611d9b565b3480156107b857600080fd5b5061028f600160a060020a03600480358216916024803582169260449260a49260e43592610104359261012435811692610144359091169161016435918201910135610184611de9565b34801561080e57600080fd5b506102f1600435611ec5565b34801561082657600080fd5b5061082f611f10565b60408051602080825283518183015283519192839290830191858101910280838360005b8381101561086b578181015183820152602001610853565b505050509050019250505060405180910390f35b34801561088b57600080fd5b5061028f600435611fca565b3480156108a357600080fd5b5061026c600435612015565b3480156108bb57600080fd5b5061026c600160a060020a0360043516612091565b3480156108dc57600080fd5b5061026c6004356120b6565b3480156108f457600080fd5b506102f16120db565b34801561090957600080fd5b506102f16120ed565b34801561091e57600080fd5b506102f161213b565b60008060008060008061093934611fca565b151561094457600080fd5b61094c6110a7565b604080517fb4a523e80000000000000000000000000000000000000000000000000000000081523060048201529051919750600160a060020a0388169163b4a523e8916024808201926020929091908290030181600087803b1580156109b157600080fd5b505af11580156109c5573d6000803e3d6000fd5b505050506040513d60208110156109db57600080fd5b505194506109e7610bd6565b93506109f9858563ffffffff61214d16565b341115610a0557600080fd5b610a16610a10610e3c565b3461215f565b349250610a21612228565b9150610a3b600080516020613d98833981519152846122a0565b90506000811115610a8f5760408051828152905183917f681bf203c0adea167c3149ed45e4ec409535394f7bd8941e675f26d1b1a4b656919081900360200190a2610a8c838263ffffffff61214d16565b92505b610a9a3388856123ea565b610aa38361257c565b50505050505050565b6000600160a060020a0382811614801590610ad957506000610acd83611360565b600160a060020a031614155b92915050565b600080610aea611cf6565b600160a060020a03163314610afe57600080fd5b610b066114bb565b600160a060020a0316610b176125bd565b600160a060020a031614610b2a57600080fd5b610b338361119f565b15610b3d57600080fd5b610b4683612604565b9150610b5183612688565b9050610b5c8361270b565b610b6682826127dd565b60408051600160a060020a038416815260208101839052815185927f06297b0797e3363e96e454edd4ab62862051bf559a7a431ce09415306771d133928290030190a2505050565b610bb661162a565b600160a060020a03163314610bca57600080fd5b610bd381612860565b50565b7f17f187b2e5d1f8770602b32c1159b85c9600859277fae1eaa9982e9bcf63384c60009081526020527fdb09a09557fcb6a80beaaeeb5e8935e3bc5b43e4685b36cbc7f7f31d3b0a97635490565b610c2c61162a565b600160a060020a03163314610c4057600080fd5b610bd3816128eb565b610c5161162a565b600160a060020a03163314610c6557600080fd5b610bd381612a94565b60008060008360405160200180807f746f74616c5370656e74506572446179000000000000000000000000000000008152506010018281526020019150506040516020818303038152906040526040518082805190602001908083835b60208310610cea5780518252601f199092019160209182019101610ccb565b51815160209384036101000a600019018019909216911617905260408051929094018290039091208652850195909552929092016000205495945050505050565b7f0a6f646cd611241d8073675e00d1a1ff700fbf1b53fcf473de56d1e6e4b714ba60005260046020527f078d888f9b66f3f8bfa10909e31f1e16240db73449f0500afdbbe3a70da457cc5460ff1690565b610d8461162a565b600160a060020a03163314610d9857600080fd5b610da061155c565b811180610dab575080155b1515610db657600080fd5b7f21dbcab260e413c20dc13c28b7db95e2b423d1135f42bb8b7d5214a92270d237600090815260209081527fadd938dbd083a16bae12238cd914fca0afc7a30edb55b1cd5c7f1823f1b0e4218290556040805183815290517f9bebf928b90863f24cc31f726a3a7545efd409f1dcf552301b1ee3710da70d3b929181900390910190a150565b62015180420490565b7fe177c00f0000000000000000000000000000000000000000000000000000000090565b7f21dbcab260e413c20dc13c28b7db95e2b423d1135f42bb8b7d5214a92270d23760009081526020527fadd938dbd083a16bae12238cd914fca0afc7a30edb55b1cd5c7f1823f1b0e4215490565b60008060008360405160200180807f746f74616c45786563757465645065724461790000000000000000000000000081525060130182815260200191505060405160208183030381529060405260405180828051906020019080838360208310610cea5780518252601f199092019160209182019101610ccb565b6040805160048152602481018252602081018051600160e060020a03167f6fde8202000000000000000000000000000000000000000000000000000000001781529151815160009330939291829190808383895b83811015610f9e578181015183820152602001610f86565b50505050905090810190601f168015610fcb5780820380516001836020036101000a031916815260200191505b509150506000604051808303816000865af1915050158061105d575030600160a060020a0316636fde82026040518163ffffffff1660e060020a028152600401602060405180830381600087803b15801561102557600080fd5b505af1158015611039573d6000803e3d6000fd5b505050506040513d602081101561104f57600080fd5b5051600160a060020a031633145b8061106757503330145b151561107257600080fd5b61108189898989898989612d02565b61108a82612a94565b611092612d53565b61109a610d2b565b9998505050505050505050565b60006110b1612daa565b905090565b60008030600160a060020a0316636fde82026040518163ffffffff1660e060020a028152600401602060405180830381600087803b1580156110f757600080fd5b505af115801561110b573d6000803e3d6000fd5b505050506040513d602081101561112157600080fd5b5051600160a060020a0316331461113757600080fd5b82600160a060020a038116151561114d57600080fd5b30319250611159611681565b915081831115611167578192505b6000831161117457600080fd5b61118561117f610e3c565b8461215f565b6111908485856123ea565b6111998361257c565b50505050565b6000600460008360405160200180807f6d65737361676546697865640000000000000000000000000000000000000000815250600c0182600019166000191681526020019150506040516020818303038152906040526040518082805190602001908083835b602083106112245780518252601f199092019160209182019101611205565b51815160209384036101000a600019018019909216911617905260408051929094018290039091208652850195909552929092016000205460ff1695945050505050565b610bd381610927565b7f4a6a899679f26b73530d8cf1001e83b6f7702e04b6fdb98f3c62dc7e47e041a560009081526020527f1ab29a5cca988aee50edccdd61c5bcaa7ad4b29a03b7ee50f298ceccfe14cc4e5490565b30600160a060020a0316636fde82026040518163ffffffff1660e060020a028152600401602060405180830381600087803b1580156112fd57600080fd5b505af1158015611311573d6000803e3d6000fd5b505050506040513d602081101561132757600080fd5b5051600160a060020a0316331461133d57600080fd5b600160a060020a038216151561135257600080fd5b61135c8282612e01565b5050565b6000600260008360405160200180807f726577617264416464726573734c69737400000000000000000000000000000081525060110182600160a060020a0316600160a060020a03166c010000000000000000000000000281526014019150506040516020818303038152906040526040518082805190602001908083835b602083106113fe5780518252601f1990920191602091820191016113df565b51815160209384036101000a6000190180199092169116179052604080519290940182900390912086528501959095529290920160002054600160a060020a031695945050505050565b61145061162a565b600160a060020a0316331461146457600080fd5b610bd381612e44565b7fabc77c82721ced73eef2645facebe8c30249e6ac372cce6eb9d1fed31bd6648f60009081526020527f75fbf9e7a88379132f510aaafa152e59a595fda8e70d0b76dd34200dac99f82e5490565b7f98aa806e31e94a687a31c65769cb99670064dd7f5a87526da075c5fb4eab988060005260026020527f0c1206883be66049a02d4937078367c00b3d71dd1a9465df969363c6ddeac96d54600160a060020a031690565b60008061153583611529611524610e3c565b610eb7565b9063ffffffff612ebb16565b905080611540610e69565b10158015611555575061155161155c565b8311155b9392505050565b7fc0ed44c192c86d1cc1ba51340b032c2766b4a2b0041031de13c46dd7104888d560009081526020527ff8e983ee86e5e377e9e34c9131b266382c3f04113d20de077f9e12663c7a646b5490565b6115b2611cf6565b600160a060020a031633146115c657600080fd5b6115ce6114bb565b600160a060020a03166115df6125bd565b600160a060020a0316146115f257600080fd5b6115fb81611512565b156116205761161161160b610e3c565b82612ec8565b61161b8282612f4e565b61135c565b61135c82826130a2565b7f02016836a56b71f0d02689e69e326f4f4c1b9057164ef592671cf0d37c8040c060005260026020527fb7802e97e87ef2842a6cce7da7ffaeaedaa2f61a6a7870b23d9d01fc9b73712e54600160a060020a031690565b60008060008060006116916120ed565b935061169b611271565b92506116ad6116a8610e3c565b610c6e565b91508183116116bd5760006116c1565b8183035b90508084106116d057806116d2565b835b94505050505090565b600060606116e7611cf6565b600160a060020a031663cb08a10c846040518263ffffffff1660e060020a028152600401808260001916600019168152602001915050602060405180830381600087803b15801561173757600080fd5b505af115801561174b573d6000803e3d6000fd5b505050506040513d602081101561176157600080fd5b50511561176d57600080fd5b30611776611cf6565b600160a060020a0316633f9a8e7e856040518263ffffffff1660e060020a028152600401808260001916600019168152602001915050602060405180830381600087803b1580156117c657600080fd5b505af11580156117da573d6000803e3d6000fd5b505050506040513d60208110156117f057600080fd5b5051600160a060020a03161461180557600080fd5b61180d6114bb565b600160a060020a031661181e611cf6565b600160a060020a0316634a610b04856040518263ffffffff1660e060020a028152600401808260001916600019168152602001915050602060405180830381600087803b15801561186e57600080fd5b505af1158015611882573d6000803e3d6000fd5b505050506040513d602081101561189857600080fd5b5051600160a060020a0316146118ad57600080fd5b5050604080516024808201849052825180830390910181526044909101909152602081018051600160e060020a03167f0950d515000000000000000000000000000000000000000000000000000000009081179091529061190c611cf6565b600160a060020a031663dc8601b36119226114bb565b8361192b611bc7565b6040518463ffffffff1660e060020a0281526004018084600160a060020a0316600160a060020a0316815260200180602001838152602001828103825284818151815260200191508051906020019080838360005b83811015611998578181015183820152602001611980565b50505050905090810190601f1680156119c55780820380516001836020036101000a031916815260200191505b50945050505050602060405180830381600087803b1580156119e657600080fd5b505af11580156119fa573d6000803e3d6000fd5b505050506040513d6020811015611a1057600080fd5b5050505050565b60018080909192565b611a2861162a565b600160a060020a03163314611a3c57600080fd5b600081118015611a525750611a4f611271565b81105b8015611a645750611a616120ed565b81105b1515611a6f57600080fd5b7fbbb088c505d18e049d114c7c91f11724e69c55ad6c5397e2b929e68b41fa05d160009081526020527f8df5c48c6b6e11d97548adc824ba0c99103ec09830fa5d53a179984085e6eaa055565b611ac461162a565b600160a060020a03163314611ad857600080fd5b611ae06120ed565b811180611aeb575080155b1515611af657600080fd5b7f4a6a899679f26b73530d8cf1001e83b6f7702e04b6fdb98f3c62dc7e47e041a5600090815260209081527f1ab29a5cca988aee50edccdd61c5bcaa7ad4b29a03b7ee50f298ceccfe14cc4e8290556040805183815290517fad4123ae17c414d9c6d2fec478b402e6b01856cc250fd01fbfd252fda0089d3c929181900390910190a150565b611b8461162a565b600160a060020a03163314611b9857600080fd5b610bd3816130a7565b611ba961162a565b600160a060020a03163314611bbd57600080fd5b61135c828261313a565b7f2dfd6c9f781bb6bbb5369c114e949b69ebb440ef3d4dd6b2836225eb1dc3a2be60009081526020527f2de0d2cdc19d356cb53b5984f91bfd3b31fe0c678a0d190a6db39274bb34753f5490565b611c1d61162a565b600160a060020a03163314611c3157600080fd5b801580611c555750611c41611d9b565b81118015611c555750611c52611271565b81105b1515611c6057600080fd5b7f0f8803acad17c63ee38bf2de71e1888bc7a079a6f73658e274b08018bea4e29c60009081526020527f9de0f81379b4d8e60fe509315d071b56e7b732abaf193e74e0d15808b0951d0955565b600160a060020a0381565b600080611cc484611ec5565b9050611cee670de0b6b3a7640000611ce2858463ffffffff6131d516565b9063ffffffff6131fe16565b949350505050565b7f811bbb11e8899da471f0e69a3ed55090fc90215227fc5fb1cb0d6e962ea7b74f60005260026020527fb4ed64697d3ef8518241966f7c6f28b0d72f20f51198717d198d2d55076c593d54600160a060020a031690565b7f1e8ecaafaddea96ed9ac6d2642dcdfe1bebe58a930b1085842d8fc122b371ee560009081526020527fd5c78dd9468716ca9bb96be25d56436811b20aab3523a9904b12deef1cab239d5490565b7fbbb088c505d18e049d114c7c91f11724e69c55ad6c5397e2b929e68b41fa05d160009081526020527f8df5c48c6b6e11d97548adc824ba0c99103ec09830fa5d53a179984085e6eaa05490565b6000611e2184848080602002602001604051908101604052809392919081815260200183836020028082843750613213945050505050565b611e41600080516020613d988339815191528360005b602002013561313a565b611e5b600080516020613db8833981519152836001611e37565b611eb58c8c8c600380602002604051908101604052809291908260036020028082843782019150505050508c600280602002604051908101604052809291908260026020028082843782019150505050508c8c8c8c610f32565b9c9b505050505050505050505050565b600081600080516020613d98833981519152811480611ef15750600080516020613db883398151915281145b1515611efc57600080fd5b505060009081526020819052604090205490565b606080600080611f1e61146d565b604051908082528060200260200182016040528015611f47578160200160208202803883390190505b50925060009150611f5e600160a060020a03611360565b90505b600160a060020a0381811614611fc257600160a060020a0381161515611f8657600080fd5b808383815181101515611f9557fe5b600160a060020a03909216602092830290910190910152611fb581611360565b6001909201919050611f61565b509092915050565b600080611fdc836115296116a8610e3c565b905080611fe7611271565b10158015611ffc5750611ff86120ed565b8311155b8015611555575061200b611d9b565b9092101592915050565b61201d61162a565b600160a060020a0316331461203157600080fd5b612039610e69565b811061204457600080fd5b7fc0ed44c192c86d1cc1ba51340b032c2766b4a2b0041031de13c46dd7104888d560009081526020527ff8e983ee86e5e377e9e34c9131b266382c3f04113d20de077f9e12663c7a646b55565b61209961162a565b600160a060020a031633146120ad57600080fd5b610bd3816133ad565b6120be61162a565b600160a060020a031633146120d257600080fd5b610bd381613484565b600080516020613db883398151915281565b7f0f8803acad17c63ee38bf2de71e1888bc7a079a6f73658e274b08018bea4e29c60009081526020527f9de0f81379b4d8e60fe509315d071b56e7b732abaf193e74e0d15808b0951d095490565b600080516020613d9883398151915281565b60008282111561215957fe5b50900390565b61216c8161152984610c6e565b6000808460405160200180807f746f74616c5370656e74506572446179000000000000000000000000000000008152506010018281526020019150506040516020818303038152906040526040518082805190602001908083835b602083106121e65780518252601f1990920191602091820191016121c7565b51815160209384036101000a60001901801990921691161790526040805192909401829003909120865285019590955292909201600020939093555050505050565b6000612232611cf6565b600160a060020a031663669f618b6040518163ffffffff1660e060020a028152600401602060405180830381600087803b15801561226f57600080fd5b505af1158015612283573d6000803e3d6000fd5b505050506040513d602081101561229957600080fd5b5051905090565b60008060008060008060008060006122b661146d565b97506122c28b8b611cb8565b96508715806122cf575086155b156122dd57600098506123dc565b6122ed878963ffffffff6131fe16565b955061230f612302878a63ffffffff6131d516565b889063ffffffff61214d16565b9350600084111561232657612323886134e5565b94505b612336600160a060020a03611360565b9250600160a060020a03808416148015906123595750600160a060020a03831615155b151561236457600080fd5b600091505b600160a060020a03838116146123d857508460008411801561238a57508185145b156123a25761239f818563ffffffff612ebb16565b90505b6123ad8b848361350a565b6123b683611360565b9250600160a060020a03831615156123cd57600080fd5b816001019150612369565b8698505b505050505050505092915050565b60408051600160a060020a03841660248201526044808201849052825180830390910181526064909101909152602081018051600160e060020a03167f8b6c035400000000000000000000000000000000000000000000000000000000908117909152906000612458611cf6565b600160a060020a031663dc8601b361246e6114bb565b84612477611bc7565b6040518463ffffffff1660e060020a0281526004018084600160a060020a0316600160a060020a0316815260200180602001838152602001828103825284818151815260200191508051906020019080838360005b838110156124e45781810151838201526020016124cc565b50505050905090810190601f1680156125115780820380516001836020036101000a031916815260200191505b50945050505050602060405180830381600087803b15801561253257600080fd5b505af1158015612546573d6000803e3d6000fd5b505050506040513d602081101561255c57600080fd5b5051905061256a81856135bc565b612574818761363e565b505050505050565b61259061258b82611529610bd6565b61372c565b60405160009082156108fc0290839083818181858288f1935050505015801561135c573d6000803e3d6000fd5b60006125c7611cf6565b600160a060020a031663d67bdd256040518163ffffffff1660e060020a028152600401602060405180830381600087803b15801561226f57600080fd5b6000600260008360405160200180807f6d657373616765526563697069656e74000000000000000000000000000000008152506010018260001916600019168152602001915050604051602081830303815290604052604051808280519060200190808383602083106113fe5780518252601f1990920191602091820191016113df565b60008060008360405160200180807f6d65737361676556616c75650000000000000000000000000000000000000000815250600c01826000191660001916815260200191505060405160208183030381529060405260405180828051906020019080838360208310610cea5780518252601f199092019160209182019101610ccb565b6001600460008360405160200180807f6d65737361676546697865640000000000000000000000000000000000000000815250600c0182600019166000191681526020019150506040516020818303038152906040526040518082805190602001908083835b602083106127905780518252601f199092019160209182019101612771565b51815160209384036101000a60001901801990921691161790526040805192909401829003909120865285019590955292909201600020805460ff19169415159490941790935550505050565b60006127e76110a7565b905080600160a060020a031663aa9fa27483856040518363ffffffff1660e060020a0281526004018083815260200182600160a060020a0316600160a060020a0316815260200192505050600060405180830381600087803b15801561284c57600080fd5b505af1158015610aa3573d6000803e3d6000fd5b61286981613779565b151561287457600080fd5b7f811bbb11e8899da471f0e69a3ed55090fc90215227fc5fb1cb0d6e962ea7b74f60005260026020527fb4ed64697d3ef8518241966f7c6f28b0d72f20f51198717d198d2d55076c593d805473ffffffffffffffffffffffffffffffffffffffff1916600160a060020a0392909216919091179055565b60008060006128f984610aac565b151561290457600080fd5b61290d84611360565b9250600160a060020a03915061292282611360565b90505b600160a060020a038181169085161461297657600160a060020a038116151561294d57600080fd5b80915061295982611360565b9050600160a060020a03808216141561297157600080fd5b612925565b6129808284613781565b600260008560405160200180807f726577617264416464726573734c69737400000000000000000000000000000081525060110182600160a060020a0316600160a060020a03166c010000000000000000000000000281526014019150506040516020818303038152906040526040518082805190602001908083835b60208310612a1c5780518252601f1990920191602091820191016129fd565b51815160209384036101000a60001901801990921691161790526040805192909401829003909120865285019590955292909201600020805473ffffffffffffffffffffffffffffffffffffffff19169055506111999150612a8f90506001612a8361146d565b9063ffffffff61214d16565b61381d565b6000612a9f82613779565b1515612aaa57600080fd5b6000905081600160a060020a0316632ee57f8d60e060020a0260e060020a90046040518163ffffffff1660e060020a0281526004016000604051808303816000875af19250505015612bc75760405180807f626c6f636b526577617264000000000000000000000000000000000000000000815250600b0190506040518091039020600160e060020a03191682600160a060020a0316632ee57f8d6040518163ffffffff1660e060020a028152600401602060405180830381600087803b158015612b7457600080fd5b505af1158015612b88573d6000803e3d6000fd5b505050506040513d6020811015612b9e57600080fd5b50517bffffffffffffffffffffffffffffffffffffffffffffffffffffffff1916149050612c7e565b81600160a060020a03166310f2ee7c60e060020a0260e060020a90046040518163ffffffff1660e060020a0281526004016000604051808303816000875af19250505015612c7e5781600160a060020a03166310f2ee7c6040518163ffffffff1660e060020a028152600401602060405180830381600087803b158015612c4d57600080fd5b505af1158015612c61573d6000803e3d6000fd5b505050506040513d6020811015612c7757600080fd5b5051151590505b801515612c8a57600080fd5b507f20ae0b8a761b32f3124efb075f427dd6ca669e88ae7747fec9fd1ad688699f3260005260026020527fd76793c705b076d97d490f0c1e5a620caae2c4973213dc37ef69a1be2a5ec070805473ffffffffffffffffffffffffffffffffffffffff1916600160a060020a0392909216919091179055565b612d0a610d2b565b15612d1457600080fd5b612d1d87612860565b612d2686612e44565b612d2f83613484565b612d3885613878565b612d41846139d5565b612d4a82613aaa565b610aa3816133ad565b7f0a6f646cd611241d8073675e00d1a1ff700fbf1b53fcf473de56d1e6e4b714ba60005260046020527f078d888f9b66f3f8bfa10909e31f1e16240db73449f0500afdbbe3a70da457cc805460ff19166001179055565b7f20ae0b8a761b32f3124efb075f427dd6ca669e88ae7747fec9fd1ad688699f3260005260026020527fd76793c705b076d97d490f0c1e5a620caae2c4973213dc37ef69a1be2a5ec07054600160a060020a031690565b80600160a060020a0381161515612e1757600080fd5b600160a060020a0383161515612e3557612e3082613b13565b612e3f565b612e3f8383613b1f565b505050565b7f98aa806e31e94a687a31c65769cb99670064dd7f5a87526da075c5fb4eab988060005260026020527f0c1206883be66049a02d4937078367c00b3d71dd1a9465df969363c6ddeac96d805473ffffffffffffffffffffffffffffffffffffffff1916600160a060020a0392909216919091179055565b81810182811015610ad957fe5b612ed58161152984610eb7565b6000808460405160200180807f746f74616c457865637574656450657244617900000000000000000000000000815250601301828152602001915050604051602081830303815290604052604051808280519060200190808383602083106121e65780518252601f1990920191602091820191016121c7565b600080600080612f5d85613bcc565b9350612f67612228565b9250612f81600080516020613db8833981519152856122a0565b91506000821115612fd55760408051838152905184917f681bf203c0adea167c3149ed45e4ec409535394f7bd8941e675f26d1b1a4b656919081900360200190a2612fd2848363ffffffff61214d16565b93505b612fdd6110a7565b905080600160a060020a031663aa9fa27485886040518363ffffffff1660e060020a0281526004018083815260200182600160a060020a0316600160a060020a0316815260200192505050600060405180830381600087803b15801561304257600080fd5b505af1158015613056573d6000803e3d6000fd5b5050604080518781529051869350600160a060020a038a1692507f2f9a6098d4503a127779ba975f5f6b04f842362b1809f346989e9abc0b4dedb69181900360200190a3505050505050565b600080fd5b6000600160a060020a038216158015906130ca5750600160a060020a0382811614155b15156130d557600080fd5b6130de82610aac565b156130e857600080fd5b6130f8600160a060020a03611360565b9050600160a060020a038116151561310f57600080fd5b6131198282613781565b61312a600160a060020a0383613781565b61135c612a8f600161152961146d565b81600080516020613d988339815191528114806131645750600080516020613db883398151915281145b151561316f57600080fd5b81670de0b6b3a7640000811061318457600080fd5b60008481526020818152604091829020859055815186815290810185905281517f6ff8895cab9b0756060f51407ed2675e887fdbddebb7c41ce5de2ea3c23da360929181900390910190a150505050565b60008215156131e657506000610ad9565b508181028183828115156131f657fe5b0414610ad957fe5b6000818381151561320b57fe5b049392505050565b600080825111151561322457600080fd5b61324d600160a060020a0383600081518110151561323e57fe5b90602001906020020151613781565b5060005b81518110156133a357815160009083908390811061326b57fe5b90602001906020020151600160a060020a0316141580156132b457508151600160a060020a039083908390811061329e57fe5b90602001906020020151600160a060020a031614155b15156132bf57600080fd5b6132df82828151811015156132d057fe5b90602001906020020151610aac565b156132e957600080fd5b60018251038114156133225761331d828281518110151561330657fe5b90602001906020020151600160a060020a03613781565b61334e565b61334e828281518110151561333357fe5b90602001906020020151838360010181518110151561323e57fe5b818181518110151561335c57fe5b90602001906020020151600160a060020a03167f63aa7448a25a575731a7ec06b055a192c07c9c51fc76dbde2aab575401e4714260405160405180910390a2600101613251565b61135c825161381d565b600160a060020a03811615156133c257600080fd5b7f8be0079c531659141344cd1fd0a4f28419497f9722a3daafe3b4186f6b6457e06133eb61162a565b60408051600160a060020a03928316815291841660208301528051918290030190a17f02016836a56b71f0d02689e69e326f4f4c1b9057164ef592671cf0d37c8040c060005260026020527fb7802e97e87ef2842a6cce7da7ffaeaedaa2f61a6a7870b23d9d01fc9b73712e805473ffffffffffffffffffffffffffffffffffffffff1916600160a060020a0392909216919091179055565b61348c613bdf565b81111561349857600080fd5b7f2dfd6c9f781bb6bbb5369c114e949b69ebb440ef3d4dd6b2836225eb1dc3a2be60009081526020527f2de0d2cdc19d356cb53b5984f91bfd3b31fe0c678a0d190a6db39274bb34753f55565b6000816134f943600163ffffffff61214d16565b4081151561350357fe5b0692915050565b6000600080516020613d988339815191528414156135315761352c8383613c26565b611199565b6135396110a7565b905080600160a060020a031663aa9fa27483856040518363ffffffff1660e060020a0281526004018083815260200182600160a060020a0316600160a060020a0316815260200192505050600060405180830381600087803b15801561359e57600080fd5b505af11580156135b2573d6000803e3d6000fd5b5050505050505050565b806000808460405160200180807f6d65737361676556616c75650000000000000000000000000000000000000000815250600c018260001916600019168152602001915050604051602081830303815290604052604051808280519060200190808383602083106121e65780518252601f1990920191602091820191016121c7565b80600260008460405160200180807f6d657373616765526563697069656e740000000000000000000000000000000081525060100182600019166000191681526020019150506040516020818303038152906040526040518082805190602001908083835b602083106136c25780518252601f1990920191602091820191016136a3565b51815160209384036101000a60001901801990921691161790526040805192909401829003909120865285019590955292909201600020805473ffffffffffffffffffffffffffffffffffffffff1916600160a060020a0395909516949094179093555050505050565b7f17f187b2e5d1f8770602b32c1159b85c9600859277fae1eaa9982e9bcf63384c60009081526020527fdb09a09557fcb6a80beaaeeb5e8935e3bc5b43e4685b36cbc7f7f31d3b0a976355565b6000903b1190565b80600260008460405160200180807f726577617264416464726573734c69737400000000000000000000000000000081525060110182600160a060020a0316600160a060020a03166c01000000000000000000000000028152601401915050604051602081830303815290604052604051808280519060200190808383602083106136c25780518252601f1990920191602091820191016136a3565b603281111561382b57600080fd5b7fabc77c82721ced73eef2645facebe8c30249e6ac372cce6eb9d1fed31bd6648f60009081526020527f75fbf9e7a88379132f510aaafa152e59a595fda8e70d0b76dd34200dac99f82e55565b60408101516000108015613893575060408101516020820151115b80156138a3575060208101518151115b15156138ae57600080fd5b80517f4a6a899679f26b73530d8cf1001e83b6f7702e04b6fdb98f3c62dc7e47e041a5600090815260208181527f1ab29a5cca988aee50edccdd61c5bcaa7ad4b29a03b7ee50f298ceccfe14cc4e92909255908201517f0f8803acad17c63ee38bf2de71e1888bc7a079a6f73658e274b08018bea4e29c82527f9de0f81379b4d8e60fe509315d071b56e7b732abaf193e74e0d15808b0951d095560408201517fbbb088c505d18e049d114c7c91f11724e69c55ad6c5397e2b929e68b41fa05d182527f8df5c48c6b6e11d97548adc824ba0c99103ec09830fa5d53a179984085e6eaa0557fad4123ae17c414d9c6d2fec478b402e6b01856cc250fd01fbfd252fda0089d3c9082905b60200201516040518082815260200191505060405180910390a150565b80516020820151106139e657600080fd5b80517f21dbcab260e413c20dc13c28b7db95e2b423d1135f42bb8b7d5214a92270d237600090815260208181527fadd938dbd083a16bae12238cd914fca0afc7a30edb55b1cd5c7f1823f1b0e42192909255908201517fc0ed44c192c86d1cc1ba51340b032c2766b4a2b0041031de13c46dd7104888d582527ff8e983ee86e5e377e9e34c9131b266382c3f04113d20de077f9e12663c7a646b557f9bebf928b90863f24cc31f726a3a7545efd409f1dcf552301b1ee3710da70d3b9082906139b8565b604c1981138015613abb5750604d81125b1515613ac657600080fd5b7f1e8ecaafaddea96ed9ac6d2642dcdfe1bebe58a930b1085842d8fc122b371ee560009081526020527fd5c78dd9468716ca9bb96be25d56436811b20aab3523a9904b12deef1cab239d55565b303161135c8282613c26565b604080517f70a0823100000000000000000000000000000000000000000000000000000000815230600482015290518391600091600160a060020a038416916370a0823191602480830192602092919082900301818787803b158015613b8457600080fd5b505af1158015613b98573d6000803e3d6000fd5b505050506040513d6020811015613bae57600080fd5b50519050611199600160a060020a038516848363ffffffff613c8716565b6000610ad982613bda611d4d565b613d1c565b6000613be9611cf6565b600160a060020a031663e5789d036040518163ffffffff1660e060020a028152600401602060405180830381600087803b15801561226f57600080fd5b604051600160a060020a0383169082156108fc029083906000818181858888f19350505050151561135c578082613c5b613d67565b600160a060020a039091168152604051908190036020019082f080158015611a10573d6000803e3d6000fd5b82600160a060020a031663a9059cbb83836040518363ffffffff1660e060020a0281526004018083600160a060020a0316600160a060020a0316815260200182815260200192505050600060405180830381600087803b158015613cea57600080fd5b505af1158015613cfe573d6000803e3d6000fd5b505050503d15612e3f5760206000803e6000511515612e3f57600080fd5b6000811515613d2c575081610ad9565b6000821315613d5057613d4983600a84900a63ffffffff6131d516565b9050610ad9565b611555836000849003600a0a63ffffffff6131fe16565b604051602180613d77833901905600608060405260405160208060218339810160405251600160a060020a038116ff00741ede137d0537e88e0ea0ff25b1f22d837903dbbee8980b4a06e8523247ee2603be2b2875cb41e0e77355e802a16769bb8dfcf825061cde185c73bf94f12625a165627a7a723058205adc0249f8b282f65bd9f31f6b90b398698d38f6f2808122a1830b5d800ed6c30029",
  "source": "pragma solidity 0.4.24;\n\nimport \"./BasicAMBErc20ToNative.sol\";\nimport \"./HomeFeeManagerAMBErc20ToNative.sol\";\nimport \"../BlockRewardBridge.sol\";\n\n/**\n* @title HomeAMBErc20ToNative\n* @dev Home mediator implementation for erc20-to-native bridge intended to work on top of AMB bridge.\n* It is design to be used as implementation contract of EternalStorageProxy contract.\n*/\ncontract HomeAMBErc20ToNative is BasicAMBErc20ToNative, BlockRewardBridge, HomeFeeManagerAMBErc20ToNative {\n    bytes32 internal constant TOTAL_BURNT_COINS = 0x17f187b2e5d1f8770602b32c1159b85c9600859277fae1eaa9982e9bcf63384c; // keccak256(abi.encodePacked(\"totalBurntCoins\"))\n\n    /**\n    * @dev Stores the initial parameters of the mediator.\n    * @param _bridgeContract the address of the AMB bridge contract.\n    * @param _mediatorContract the address of the mediator contract on the other network.\n    * @param _dailyLimitMaxPerTxMinPerTxArray array with limit values for the assets to be bridged to the other network.\n    *   [ 0 = dailyLimit, 1 = maxPerTx, 2 = minPerTx ]\n    * @param _executionDailyLimitExecutionMaxPerTxArray array with limit values for the assets bridged from the other network.\n    *   [ 0 = executionDailyLimit, 1 = executionMaxPerTx ]\n    * @param _requestGasLimit the gas limit for the message execution.\n    * @param _decimalShift number of decimals shift required to adjust the amount of tokens bridged.\n    * @param _owner address of the owner of the mediator contract\n    * @param _blockReward address of the block reward contract\n    */\n    function initialize(\n        address _bridgeContract,\n        address _mediatorContract,\n        uint256[3] _dailyLimitMaxPerTxMinPerTxArray, // [ 0 = dailyLimit, 1 = maxPerTx, 2 = minPerTx ]\n        uint256[2] _executionDailyLimitExecutionMaxPerTxArray, // [ 0 = executionDailyLimit, 1 = executionMaxPerTx ]\n        uint256 _requestGasLimit,\n        int256 _decimalShift,\n        address _owner,\n        address _blockReward\n    ) public onlyRelevantSender returns (bool) {\n        _initialize(\n            _bridgeContract,\n            _mediatorContract,\n            _dailyLimitMaxPerTxMinPerTxArray,\n            _executionDailyLimitExecutionMaxPerTxArray,\n            _requestGasLimit,\n            _decimalShift,\n            _owner\n        );\n        _setBlockRewardContract(_blockReward);\n        setInitialize();\n        return isInitialized();\n    }\n\n    /**\n    * @dev Stores the initial parameters of the mediator, sets the rewardable mediator as well.\n    * @param _bridgeContract the address of the AMB bridge contract.\n    * @param _mediatorContract the address of the mediator contract on the other network.\n    * @param _dailyLimitMaxPerTxMinPerTxArray array with limit values for the assets to be bridged to the other network.\n    *   [ 0 = dailyLimit, 1 = maxPerTx, 2 = minPerTx ]\n    * @param _executionDailyLimitExecutionMaxPerTxArray array with limit values for the assets bridged from the other network.\n    *   [ 0 = executionDailyLimit, 1 = executionMaxPerTx ]\n    * @param _requestGasLimit the gas limit for the message execution.\n    * @param _decimalShift number of decimals shift required to adjust the amount of tokens bridged.\n    * @param _owner address of the owner of the mediator contract\n    * @param _blockReward address of the block reward contract\n    * @param _rewardAddresses list of reward addresses, between whom fees will be distributed\n    * @param _fees array with initial fees for both bridge directions\n    *   [ 0 = homeToForeignFee, 1 = foreignToHomeFee ]\n    */\n    function rewardableInitialize(\n        address _bridgeContract,\n        address _mediatorContract,\n        uint256[3] _dailyLimitMaxPerTxMinPerTxArray, // [ 0 = dailyLimit, 1 = maxPerTx, 2 = minPerTx ]\n        uint256[2] _executionDailyLimitExecutionMaxPerTxArray, // [ 0 = executionDailyLimit, 1 = executionMaxPerTx ]\n        uint256 _requestGasLimit,\n        int256 _decimalShift,\n        address _owner,\n        address _blockReward,\n        address[] _rewardAddresses,\n        uint256[2] _fees // [ 0 = homeToForeignFee, 1 = foreignToHomeFee ]\n    ) external returns (bool) {\n        _setRewardAddressList(_rewardAddresses);\n        _setFee(HOME_TO_FOREIGN_FEE, _fees[0]);\n        _setFee(FOREIGN_TO_HOME_FEE, _fees[1]);\n        return\n            initialize(\n                _bridgeContract,\n                _mediatorContract,\n                _dailyLimitMaxPerTxMinPerTxArray,\n                _executionDailyLimitExecutionMaxPerTxArray,\n                _requestGasLimit,\n                _decimalShift,\n                _owner,\n                _blockReward\n            );\n    }\n\n    /**\n    * @dev Fallback method to be called to initiate the bridge operation of the native tokens to an erc20 representation\n    * that the user will receive in the same address on the other network.\n    */\n    function() public payable {\n        require(msg.data.length == 0);\n        nativeTransfer(msg.sender);\n    }\n\n    /**\n    * @dev Method to be called to initiate the bridge operation of the native tokens to an erc20 representation\n    * that the user will receive in the address specified by parameter on the other network.\n    * @param _receiver address that will receive the erc20 tokens on the other network.\n    */\n    function relayTokens(address _receiver) external payable {\n        nativeTransfer(_receiver);\n    }\n\n    /**\n    * @dev Updates an address of the block reward contract that is used for minting native coins.\n    * @param _blockReward address of new block reward contract.\n    */\n    function setBlockRewardContract(address _blockReward) external onlyOwner {\n        _setBlockRewardContract(_blockReward);\n    }\n\n    /**\n    * @dev Retrieves address of the currently used block reward contract.\n    * @return address of block reward contract.\n    */\n    function blockRewardContract() public view returns (IBlockReward) {\n        return _blockRewardContract();\n    }\n\n    /**\n    * @dev Retrieves total burnt coins by this bridge.\n    * @return amount of burnt coins.\n    */\n    function totalBurntCoins() public view returns (uint256) {\n        return uintStorage[TOTAL_BURNT_COINS];\n    }\n\n    /**\n    * @dev Validates the received native tokens and makes the request to unlock the erc20 tokens on the other network.\n    * @param _receiver address that will receive the erc20 tokens on the other network.\n    */\n    function nativeTransfer(address _receiver) internal {\n        // this check also validates that msg.value is positive, since minPerTx() > 0\n        require(withinLimit(msg.value));\n\n        IBlockReward blockReward = blockRewardContract();\n        uint256 totalMinted = blockReward.mintedTotallyByBridge(address(this));\n        uint256 totalBurnt = totalBurntCoins();\n        require(msg.value <= totalMinted.sub(totalBurnt));\n\n        addTotalSpentPerDay(getCurrentDay(), msg.value);\n\n        uint256 valueToTransfer = msg.value;\n        bytes32 _messageId = messageId();\n\n        uint256 fee = _distributeFee(HOME_TO_FOREIGN_FEE, valueToTransfer);\n        if (fee > 0) {\n            emit FeeDistributed(fee, _messageId);\n            valueToTransfer = valueToTransfer.sub(fee);\n        }\n\n        passMessage(msg.sender, _receiver, valueToTransfer);\n        _burnCoins(valueToTransfer);\n    }\n\n    /**\n    * @dev Internal function for updating amount of burnt coins by this bridge.\n    * @param _amount new amount of burned coins.\n    */\n    function _setTotalBurntCoins(uint256 _amount) internal {\n        uintStorage[TOTAL_BURNT_COINS] = _amount;\n    }\n\n    /**\n    * @dev Mints the amount of native tokens that were bridged from the other network.\n    * @param _receiver address that will receive the native tokens\n    * @param _value amount of native tokens to be received\n    */\n    function executeActionOnBridgedTokens(address _receiver, uint256 _value) internal {\n        uint256 valueToMint = _shiftValue(_value);\n        bytes32 _messageId = messageId();\n\n        uint256 fee = _distributeFee(FOREIGN_TO_HOME_FEE, valueToMint);\n        if (fee > 0) {\n            emit FeeDistributed(fee, _messageId);\n            valueToMint = valueToMint.sub(fee);\n        }\n\n        IBlockReward blockReward = blockRewardContract();\n        blockReward.addExtraReceiver(valueToMint, _receiver);\n        emit TokensBridged(_receiver, valueToMint, _messageId);\n    }\n\n    /**\n    * @dev Mints back the amount of native tokens that were bridged to the other network but failed.\n    * @param _receiver address that will receive the native tokens\n    * @param _value amount of native tokens to be received\n    */\n    function executeActionOnFixedTokens(address _receiver, uint256 _value) internal {\n        IBlockReward blockReward = blockRewardContract();\n        blockReward.addExtraReceiver(_value, _receiver);\n    }\n\n    /**\n    * @dev Allows to transfer any locked tokens or native coins on this contract.\n    * @param _token address of the token, address(0) for native coins.\n    * @param _to address that will receive the locked tokens on this contract.\n    */\n    function claimTokens(address _token, address _to) external onlyIfUpgradeabilityOwner {\n        // In case native coins were forced into this contract by using a selfdestruct opcode,\n        // they should be handled by a call to fixMediatorBalance, instead of using a claimTokens function.\n        require(_token != address(0));\n        claimValues(_token, _to);\n    }\n\n    /**\n    * @dev Allows to send to the other network the amount of locked native tokens that can be forced into the contract\n    * without the invocation of the required methods.\n    * @param _receiver the address that will receive the tokens on the other network\n    */\n    function fixMediatorBalance(address _receiver) external onlyIfUpgradeabilityOwner validAddress(_receiver) {\n        uint256 balance = address(this).balance;\n        uint256 available = maxAvailablePerTx();\n        if (balance > available) {\n            balance = available;\n        }\n        require(balance > 0);\n        addTotalSpentPerDay(getCurrentDay(), balance);\n        passMessage(_receiver, _receiver, balance);\n        _burnCoins(balance);\n    }\n\n    /**\n    * @dev Internal function for \"burning\" native coins. Coins are burnt by sending them to address(0x00..00).\n    * @param _amount amount of native coins to burn.\n    */\n    function _burnCoins(uint256 _amount) internal {\n        _setTotalBurntCoins(totalBurntCoins().add(_amount));\n        address(0).transfer(_amount);\n    }\n\n    /**\n    * @dev Internal function distributing a piece of collected fee to the particular reward address.\n    * @param _feeType used fee type, can be one of [HOME_TO_FOREIGN_FEE, FOREIGN_TO_HOME_FEE].\n    * @param _receiver particular reward address, where the fee should be sent/minted.\n    * @param _fee amount of fee to send/mint to given address.\n    */\n    function onFeeDistribution(bytes32 _feeType, address _receiver, uint256 _fee) internal {\n        if (_feeType == HOME_TO_FOREIGN_FEE) {\n            Address.safeSendValue(_receiver, _fee);\n        } else {\n            IBlockReward blockReward = blockRewardContract();\n            blockReward.addExtraReceiver(_fee, _receiver);\n        }\n    }\n}\n",
  "sourcePath": "/Users/max/Projects/Symblox/TokenBridge/tokenbridge/contracts/contracts/upgradeable_contracts/amb_erc20_to_native/HomeAMBErc20ToNative.sol",
  "compiler": {
    "name": "solc",
    "version": "0.4.24+commit.e67f0147.Emscripten.clang"
  },
  "schemaVersion": "3.1.0",
  "updatedAt": "2020-11-26T16:22:39.882Z",
  "devdoc": {
    "methods": {
      "addRewardAddress(address)": {
        "details": "Adds a new reward address to the list, which will receive fees collected from the bridge operations. Only the owner can call this method.",
        "params": {
          "_addr": "new reward account."
        }
      },
      "blockRewardContract()": {
        "details": "Retrieves address of the currently used block reward contract.",
        "return": "address of block reward contract."
      },
      "bridgeContract()": {
        "details": "Get the AMB interface for the bridge contract address",
        "return": "AMB interface for the bridge contract address"
      },
      "calculateFee(bytes32,uint256)": {
        "details": "Calculates the amount of fee to pay for the value of the particular fee type.",
        "params": {
          "_feeType": "type of the updated fee, can be one of [HOME_TO_FOREIGN_FEE, FOREIGN_TO_HOME_FEE].",
          "_value": "bridged value, for which fee should be evaluated."
        },
        "return": "amount of fee to be subtracted from the transferred value."
      },
      "claimTokens(address,address)": {
        "details": "Allows to transfer any locked tokens or native coins on this contract.",
        "params": {
          "_to": "address that will receive the locked tokens on this contract.",
          "_token": "address of the token, address(0) for native coins."
        }
      },
      "decimalShift()": {
        "details": "Returns the value of foreign-to-home decimal shift.",
        "return": "decimal shift."
      },
      "fixFailedMessage(bytes32)": {
        "details": "Handles the request to fix transferred assets which bridged message execution failed on the other network. It uses the information stored by passMessage method when the assets were initially transferred",
        "params": {
          "_messageId": "id of the message which execution failed on the other network."
        }
      },
      "fixMediatorBalance(address)": {
        "details": "Allows to send to the other network the amount of locked native tokens that can be forced into the contract without the invocation of the required methods.",
        "params": {
          "_receiver": "the address that will receive the tokens on the other network"
        }
      },
      "getBridgeInterfacesVersion()": {
        "details": "Tells the bridge interface version that this contract supports.",
        "return": "major value of the versionminor value of the versionpatch value of the version"
      },
      "getBridgeMode()": {
        "details": "Tells the bridge mode that this contract supports.",
        "return": "_data 4 bytes representing the bridge mode"
      },
      "getFee(bytes32)": {
        "details": "Retrieves the value for the particular fee type.",
        "params": {
          "_feeType": "type of the updated fee, can be one of [HOME_TO_FOREIGN_FEE, FOREIGN_TO_HOME_FEE]."
        },
        "return": "fee value associated with the requested fee type."
      },
      "getNextRewardAddress(address)": {
        "details": "Retrieves next reward address in the linked list, or F_ADDR if given address is the last one.",
        "params": {
          "_address": "address of some reward account."
        },
        "return": "address of the next reward receiver."
      },
      "handleBridgedTokens(address,uint256)": {
        "details": "Handles the bridged tokens. Checks that the value is inside the execution limits and invokes the method to execute the Mint or Unlock accordingly.",
        "params": {
          "_recipient": "address that will receive the tokens",
          "_value": "amount of tokens to be received"
        }
      },
      "initialize(address,address,uint256[3],uint256[2],uint256,int256,address,address)": {
        "details": "Stores the initial parameters of the mediator.",
        "params": {
          "_blockReward": "address of the block reward contract",
          "_bridgeContract": "the address of the AMB bridge contract.",
          "_dailyLimitMaxPerTxMinPerTxArray": "array with limit values for the assets to be bridged to the other network.  [ 0 = dailyLimit, 1 = maxPerTx, 2 = minPerTx ]",
          "_decimalShift": "number of decimals shift required to adjust the amount of tokens bridged.",
          "_executionDailyLimitExecutionMaxPerTxArray": "array with limit values for the assets bridged from the other network.  [ 0 = executionDailyLimit, 1 = executionMaxPerTx ]",
          "_mediatorContract": "the address of the mediator contract on the other network.",
          "_owner": "address of the owner of the mediator contract",
          "_requestGasLimit": "the gas limit for the message execution."
        }
      },
      "isRewardAddress(address)": {
        "details": "Checks if specified address is included into the registered rewards receivers list.",
        "params": {
          "_addr": "address to verify."
        },
        "return": "true, if specified address is associated with one of the registered reward accounts."
      },
      "maxAvailablePerTx()": {
        "details": "Retrieves maximum available bridge amount per one transaction taking into account maxPerTx() and dailyLimit() parameters.",
        "return": "minimum of maxPerTx parameter and remaining daily quota."
      },
      "mediatorContractOnOtherSide()": {
        "details": "Tells the mediator contract address from the other network.",
        "return": "the address of the mediator contract."
      },
      "messageFixed(bytes32)": {
        "details": "Tells if a message sent to the AMB bridge has been fixed.",
        "return": "bool indicating the status of the message."
      },
      "owner()": {
        "details": "Tells the address of the owner",
        "return": "the address of the owner"
      },
      "relayTokens(address)": {
        "details": "Method to be called to initiate the bridge operation of the native tokens to an erc20 representation that the user will receive in the address specified by parameter on the other network.",
        "params": {
          "_receiver": "address that will receive the erc20 tokens on the other network."
        }
      },
      "removeRewardAddress(address)": {
        "details": "Removes a reward address from the rewards list. Only the owner can call this method.",
        "params": {
          "_addr": "old reward account, that should be removed."
        }
      },
      "requestFailedMessageFix(bytes32)": {
        "details": "Method to be called when a bridged message execution failed. It will generate a new message requesting to fix/roll back the transferred assets on the other network.",
        "params": {
          "_messageId": "id of the message which execution failed."
        }
      },
      "requestGasLimit()": {
        "details": "Tells the gas limit to be used in the message execution by the AMB bridge on the other network.",
        "return": "the gas limit for the message execution."
      },
      "rewardAddressCount()": {
        "details": "Retrieves amount of registered reward accounts.",
        "return": "length of reward addresses list."
      },
      "rewardAddressList()": {
        "details": "Retrieves all registered reward accounts.",
        "return": "address list of the registered reward receivers."
      },
      "rewardableInitialize(address,address,uint256[3],uint256[2],uint256,int256,address,address,address[],uint256[2])": {
        "details": "Stores the initial parameters of the mediator, sets the rewardable mediator as well.",
        "params": {
          "_blockReward": "address of the block reward contract",
          "_bridgeContract": "the address of the AMB bridge contract.",
          "_dailyLimitMaxPerTxMinPerTxArray": "array with limit values for the assets to be bridged to the other network.  [ 0 = dailyLimit, 1 = maxPerTx, 2 = minPerTx ]",
          "_decimalShift": "number of decimals shift required to adjust the amount of tokens bridged.",
          "_executionDailyLimitExecutionMaxPerTxArray": "array with limit values for the assets bridged from the other network.  [ 0 = executionDailyLimit, 1 = executionMaxPerTx ]",
          "_fees": "array with initial fees for both bridge directions  [ 0 = homeToForeignFee, 1 = foreignToHomeFee ]",
          "_mediatorContract": "the address of the mediator contract on the other network.",
          "_owner": "address of the owner of the mediator contract",
          "_requestGasLimit": "the gas limit for the message execution.",
          "_rewardAddresses": "list of reward addresses, between whom fees will be distributed"
        }
      },
      "setBlockRewardContract(address)": {
        "details": "Updates an address of the block reward contract that is used for minting native coins.",
        "params": {
          "_blockReward": "address of new block reward contract."
        }
      },
      "setBridgeContract(address)": {
        "details": "Sets the AMB bridge contract address. Only the owner can call this method.",
        "params": {
          "_bridgeContract": "the address of the bridge contract."
        }
      },
      "setFee(bytes32,uint256)": {
        "details": "Updates the value for the particular fee type. Only the owner can call this method.",
        "params": {
          "_fee": "new fee value, in percentage (1 ether == 10**18 == 100%).",
          "_feeType": "type of the updated fee, can be one of [HOME_TO_FOREIGN_FEE, FOREIGN_TO_HOME_FEE]."
        }
      },
      "setMediatorContractOnOtherSide(address)": {
        "details": "Sets the mediator contract address from the other network. Only the owner can call this method.",
        "params": {
          "_mediatorContract": "the address of the mediator contract."
        }
      },
      "setRequestGasLimit(uint256)": {
        "details": "Sets the gas limit to be used in the message execution by the AMB bridge on the other network. This value can't exceed the parameter maxGasPerTx defined on the AMB bridge. Only the owner can call this method.",
        "params": {
          "_requestGasLimit": "the gas limit for the message execution."
        }
      },
      "totalBurntCoins()": {
        "details": "Retrieves total burnt coins by this bridge.",
        "return": "amount of burnt coins."
      },
      "transferOwnership(address)": {
        "details": "Allows the current owner to transfer control of the contract to a newOwner.",
        "params": {
          "newOwner": "the address to transfer ownership to."
        }
      }
    },
    "title": "HomeAMBErc20ToNative"
  },
  "userdoc": {
    "methods": {}
  }
}