{
  "contractName": "HomeStakeTokenFeeManager",
  "abi": [
    {
      "constant": true,
      "inputs": [],
      "name": "owner",
      "outputs": [
        {
          "name": "",
          "type": "address"
        }
      ],
      "payable": false,
      "stateMutability": "view",
      "type": "function"
    },
    {
      "constant": false,
      "inputs": [
        {
          "name": "newOwner",
          "type": "address"
        }
      ],
      "name": "transferOwnership",
      "outputs": [],
      "payable": false,
      "stateMutability": "nonpayable",
      "type": "function"
    },
    {
      "anonymous": false,
      "inputs": [
        {
          "indexed": false,
          "name": "fee",
          "type": "uint256"
        }
      ],
      "name": "FeeUpdated",
      "type": "event"
    },
    {
      "anonymous": false,
      "inputs": [
        {
          "indexed": false,
          "name": "previousOwner",
          "type": "address"
        },
        {
          "indexed": false,
          "name": "newOwner",
          "type": "address"
        }
      ],
      "name": "OwnershipTransferred",
      "type": "event"
    },
    {
      "constant": true,
      "inputs": [],
      "name": "blockRewardContract",
      "outputs": [
        {
          "name": "",
          "type": "address"
        }
      ],
      "payable": false,
      "stateMutability": "view",
      "type": "function"
    },
    {
      "constant": false,
      "inputs": [
        {
          "name": "_blockReward",
          "type": "address"
        }
      ],
      "name": "setBlockRewardContract",
      "outputs": [],
      "payable": false,
      "stateMutability": "nonpayable",
      "type": "function"
    },
    {
      "constant": true,
      "inputs": [],
      "name": "getFee",
      "outputs": [
        {
          "name": "",
          "type": "uint256"
        }
      ],
      "payable": false,
      "stateMutability": "view",
      "type": "function"
    },
    {
      "constant": true,
      "inputs": [
        {
          "name": "_value",
          "type": "uint256"
        }
      ],
      "name": "calculateFee",
      "outputs": [
        {
          "name": "",
          "type": "uint256"
        }
      ],
      "payable": false,
      "stateMutability": "view",
      "type": "function"
    },
    {
      "constant": false,
      "inputs": [
        {
          "name": "_fee",
          "type": "uint256"
        }
      ],
      "name": "setFee",
      "outputs": [],
      "payable": false,
      "stateMutability": "nonpayable",
      "type": "function"
    },
    {
      "constant": true,
      "inputs": [],
      "name": "isFeeCollectingActivated",
      "outputs": [
        {
          "name": "",
          "type": "bool"
        }
      ],
      "payable": false,
      "stateMutability": "view",
      "type": "function"
    }
  ],
  "bytecode": "0x608060405234801561001057600080fd5b506107ca806100206000396000f3006080604052600436106100745763ffffffff60e060020a6000350416631c86a526811461007957806327a3e16b146100a257806356b54bae146100c557806369fe0e2d146100f65780638da5cb5b1461010e57806399a5d74714610123578063ced72f871461014d578063f2fde38b14610162575b600080fd5b34801561008557600080fd5b5061008e610183565b604080519115158252519081900360200190f35b3480156100ae57600080fd5b506100c3600160a060020a03600435166101b1565b005b3480156100d157600080fd5b506100da6101d9565b60408051600160a060020a039092168252519081900360200190f35b34801561010257600080fd5b506100c36004356101e3565b34801561011a57600080fd5b506100da610208565b34801561012f57600080fd5b5061013b60043561025f565b60408051918252519081900360200190f35b34801561015957600080fd5b5061013b610297565b34801561016e57600080fd5b506100c3600160a060020a03600435166102e5565b60008061018e61030a565b600160a060020a0316141580156101ac575060006101aa610297565b115b905090565b6101b9610208565b600160a060020a031633146101cd57600080fd5b6101d681610361565b50565b60006101ac61030a565b6101eb610208565b600160a060020a031633146101ff57600080fd5b6101d6816105e7565b7f02016836a56b71f0d02689e69e326f4f4c1b9057164ef592671cf0d37c8040c060005260026020527fb7802e97e87ef2842a6cce7da7ffaeaedaa2f61a6a7870b23d9d01fc9b73712e54600160a060020a031690565b6000610291670de0b6b3a7640000610285610278610297565b859063ffffffff61068116565b9063ffffffff6106aa16565b92915050565b7f241773621b963145d8e249ca69b0240df7de56fca52fb3ec9e2ddd08a968570e60009081526020527f5a69665d049b580e222420a3d5bc58a062e4ab28243d1b83814ab8de398d3a175490565b6102ed610208565b600160a060020a0316331461030157600080fd5b6101d6816106bf565b7f20ae0b8a761b32f3124efb075f427dd6ca669e88ae7747fec9fd1ad688699f3260005260026020527fd76793c705b076d97d490f0c1e5a620caae2c4973213dc37ef69a1be2a5ec07054600160a060020a031690565b600061036c82610796565b151561037757600080fd5b6000905081600160a060020a0316632ee57f8d60e060020a0260e060020a90046040518163ffffffff1660e060020a0281526004016000604051808303816000875af192505050156104ac5760405180807f626c6f636b526577617264000000000000000000000000000000000000000000815250600b01905060405180910390207bffffffffffffffffffffffffffffffffffffffffffffffffffffffff191682600160a060020a0316632ee57f8d6040518163ffffffff1660e060020a028152600401602060405180830381600087803b15801561045657600080fd5b505af115801561046a573d6000803e3d6000fd5b505050506040513d602081101561048057600080fd5b50517fffffffff0000000000000000000000000000000000000000000000000000000016149050610563565b81600160a060020a03166310f2ee7c60e060020a0260e060020a90046040518163ffffffff1660e060020a0281526004016000604051808303816000875af192505050156105635781600160a060020a03166310f2ee7c6040518163ffffffff1660e060020a028152600401602060405180830381600087803b15801561053257600080fd5b505af1158015610546573d6000803e3d6000fd5b505050506040513d602081101561055c57600080fd5b5051151590505b80151561056f57600080fd5b507f20ae0b8a761b32f3124efb075f427dd6ca669e88ae7747fec9fd1ad688699f3260005260026020527fd76793c705b076d97d490f0c1e5a620caae2c4973213dc37ef69a1be2a5ec070805473ffffffffffffffffffffffffffffffffffffffff1916600160a060020a0392909216919091179055565b670de0b6b3a764000081106105fb57600080fd5b7f241773621b963145d8e249ca69b0240df7de56fca52fb3ec9e2ddd08a968570e600090815260209081527f5a69665d049b580e222420a3d5bc58a062e4ab28243d1b83814ab8de398d3a178290556040805183815290517f8c4d35e54a3f2ef1134138fd8ea3daee6a3c89e10d2665996babdf70261e2c76929181900390910190a150565b600082151561069257506000610291565b508181028183828115156106a257fe5b041461029157fe5b600081838115156106b757fe5b049392505050565b600160a060020a03811615156106d457600080fd5b7f8be0079c531659141344cd1fd0a4f28419497f9722a3daafe3b4186f6b6457e06106fd610208565b60408051600160a060020a03928316815291841660208301528051918290030190a17f02016836a56b71f0d02689e69e326f4f4c1b9057164ef592671cf0d37c8040c060005260026020527fb7802e97e87ef2842a6cce7da7ffaeaedaa2f61a6a7870b23d9d01fc9b73712e805473ffffffffffffffffffffffffffffffffffffffff1916600160a060020a0392909216919091179055565b6000903b11905600a165627a7a723058203c89e68f284f0a8d3f7706dc75b3b71da513c49c69b16897a03bd3bb05349f970029",
  "source": "pragma solidity 0.4.24;\n\nimport \"../BlockRewardBridge.sol\";\nimport \"../Ownable.sol\";\nimport \"openzeppelin-solidity/contracts/math/SafeMath.sol\";\n\ncontract HomeStakeTokenFeeManager is BlockRewardBridge, Ownable {\n    using SafeMath for uint256;\n\n    event FeeUpdated(uint256 fee);\n\n    uint256 internal constant MAX_FEE = 1 ether;\n    bytes32 internal constant FEE = 0x241773621b963145d8e249ca69b0240df7de56fca52fb3ec9e2ddd08a968570e; // keccak256(abi.encodePacked(\"stakeTokenFee\"));\n\n    /**\n     * @dev Retrieves currently used block reward contract\n     * @return configured block reward contract address\n     */\n    function blockRewardContract() external view returns (IBlockReward) {\n        return _blockRewardContract();\n    }\n\n    /**\n     * @dev Updates address of currently used block reward contract\n     * @param _blockReward address of a new contract\n     */\n    function setBlockRewardContract(address _blockReward) external onlyOwner {\n        _setBlockRewardContract(_blockReward);\n    }\n\n    /**\n     * @dev Retrieves current fee value\n     * @return current value of fee, 1e18 is 100%\n     */\n    function getFee() public view returns (uint256) {\n        return uintStorage[FEE];\n    }\n\n    /**\n     * @dev Calculates the fee amount to be subtracted from the value.\n     * @param _value the base value from which fees are calculated\n     */\n    function calculateFee(uint256 _value) public view returns (uint256) {\n        return _value.mul(getFee()).div(MAX_FEE);\n    }\n\n    /**\n     * @dev Sets the fee percentage amount for the mediator operations.\n     * Only the owner can call this method.\n     * @param _fee the fee percentage\n     */\n    function setFee(uint256 _fee) external onlyOwner {\n        _setFee(_fee);\n    }\n\n    /**\n     * @dev Internal setter for fee\n     * @param _fee the fee percentage\n     */\n    function _setFee(uint256 _fee) internal {\n        require(_fee < MAX_FEE);\n        uintStorage[FEE] = _fee;\n        emit FeeUpdated(_fee);\n    }\n\n    /**\n     * @dev Returns the state of the fee manager configuration: whether\n     * it is ready to collect and distribute fee or not.\n     */\n    function isFeeCollectingActivated() public view returns (bool) {\n        return ((address(_blockRewardContract()) != address(0)) && (getFee() > 0));\n    }\n\n    /**\n     * @dev Distributes fee as per the logic of the fee manager.\n     * In this particular case, the amount of fee is passed the block \n     * reward contract which will mint new tokens and distribute them\n     * among the stakers.\n     * IMPORTANT: make sure that the code checks that the block reward\n     * contract is initialized before calling this method.\n     * @param _fee amount of tokens to be distributed\n     */\n    function _distributeFee(uint256 _fee) internal {\n        _blockRewardContract().addBridgeTokenRewardReceivers(_fee);\n    }\n}\n",
  "sourcePath": "/Users/max/Projects/Symblox/TokenBridge/tokenbridge/contracts/contracts/upgradeable_contracts/amb_erc677_to_erc677/HomeStakeTokenFeeManager.sol",
  "compiler": {
    "name": "solc",
    "version": "0.4.24+commit.e67f0147.Emscripten.clang"
  },
  "schemaVersion": "3.1.0",
  "updatedAt": "2020-11-26T16:22:39.905Z",
  "devdoc": {
    "methods": {
      "blockRewardContract()": {
        "details": "Retrieves currently used block reward contract",
        "return": "configured block reward contract address"
      },
      "calculateFee(uint256)": {
        "details": "Calculates the fee amount to be subtracted from the value.",
        "params": {
          "_value": "the base value from which fees are calculated"
        }
      },
      "getFee()": {
        "details": "Retrieves current fee value",
        "return": "current value of fee, 1e18 is 100%"
      },
      "isFeeCollectingActivated()": {
        "details": "Returns the state of the fee manager configuration: whether it is ready to collect and distribute fee or not."
      },
      "owner()": {
        "details": "Tells the address of the owner",
        "return": "the address of the owner"
      },
      "setBlockRewardContract(address)": {
        "details": "Updates address of currently used block reward contract",
        "params": {
          "_blockReward": "address of a new contract"
        }
      },
      "setFee(uint256)": {
        "details": "Sets the fee percentage amount for the mediator operations. Only the owner can call this method.",
        "params": {
          "_fee": "the fee percentage"
        }
      },
      "transferOwnership(address)": {
        "details": "Allows the current owner to transfer control of the contract to a newOwner.",
        "params": {
          "newOwner": "the address to transfer ownership to."
        }
      }
    }
  },
  "userdoc": {
    "methods": {}
  }
}