{
  "contractName": "Initializable",
  "abi": [
    {
      "constant": true,
      "inputs": [],
      "name": "isInitialized",
      "outputs": [
        {
          "name": "",
          "type": "bool"
        }
      ],
      "payable": false,
      "stateMutability": "view",
      "type": "function"
    }
  ],
  "bytecode": "0x6080604052348015600f57600080fd5b5060e68061001e6000396000f300608060405260043610603e5763ffffffff7c0100000000000000000000000000000000000000000000000000000000600035041663392e53cd81146043575b600080fd5b348015604e57600080fd5b5060556069565b604080519115158252519081900360200190f35b7f0a6f646cd611241d8073675e00d1a1ff700fbf1b53fcf473de56d1e6e4b714ba60005260046020527f078d888f9b66f3f8bfa10909e31f1e16240db73449f0500afdbbe3a70da457cc5460ff16905600a165627a7a72305820dc52c9f803abe0b526e370681762adfb3eb6eb36f8ad2ae07f4f0bc78a63ac920029",
  "source": "pragma solidity 0.4.24;\n\nimport \"../upgradeability/EternalStorage.sol\";\n\ncontract Initializable is EternalStorage {\n    bytes32 internal constant INITIALIZED = 0x0a6f646cd611241d8073675e00d1a1ff700fbf1b53fcf473de56d1e6e4b714ba; // keccak256(abi.encodePacked(\"isInitialized\"))\n\n    function setInitialize() internal {\n        boolStorage[INITIALIZED] = true;\n    }\n\n    function isInitialized() public view returns (bool) {\n        return boolStorage[INITIALIZED];\n    }\n}\n",
  "sourcePath": "/Users/max/Projects/Symblox/TokenBridge/tokenbridge/contracts/contracts/upgradeable_contracts/Initializable.sol",
  "compiler": {
    "name": "solc",
    "version": "0.4.24+commit.e67f0147.Emscripten.clang"
  },
  "schemaVersion": "3.1.0",
  "updatedAt": "2020-11-26T16:22:39.848Z",
  "devdoc": {
    "methods": {}
  },
  "userdoc": {
    "methods": {}
  }
}