{
  "contractName": "InterestReceiver",
  "abi": [
    {
      "constant": false,
      "inputs": [],
      "name": "renounceOwnership",
      "outputs": [],
      "payable": false,
      "stateMutability": "nonpayable",
      "type": "function"
    },
    {
      "constant": true,
      "inputs": [],
      "name": "owner",
      "outputs": [
        {
          "name": "",
          "type": "address"
        }
      ],
      "payable": false,
      "stateMutability": "view",
      "type": "function"
    },
    {
      "constant": true,
      "inputs": [],
      "name": "receiverInXDai",
      "outputs": [
        {
          "name": "",
          "type": "address"
        }
      ],
      "payable": false,
      "stateMutability": "view",
      "type": "function"
    },
    {
      "constant": true,
      "inputs": [],
      "name": "bridgeContract",
      "outputs": [
        {
          "name": "",
          "type": "address"
        }
      ],
      "payable": false,
      "stateMutability": "view",
      "type": "function"
    },
    {
      "constant": false,
      "inputs": [
        {
          "name": "_newOwner",
          "type": "address"
        }
      ],
      "name": "transferOwnership",
      "outputs": [],
      "payable": false,
      "stateMutability": "nonpayable",
      "type": "function"
    },
    {
      "inputs": [
        {
          "name": "_owner",
          "type": "address"
        },
        {
          "name": "_bridgeContract",
          "type": "address"
        },
        {
          "name": "_receiverInXDai",
          "type": "address"
        }
      ],
      "payable": false,
      "stateMutability": "nonpayable",
      "type": "constructor"
    },
    {
      "anonymous": false,
      "inputs": [
        {
          "indexed": false,
          "name": "receiver",
          "type": "address"
        },
        {
          "indexed": false,
          "name": "amount",
          "type": "uint256"
        }
      ],
      "name": "RelayTokensFailed",
      "type": "event"
    },
    {
      "anonymous": false,
      "inputs": [
        {
          "indexed": true,
          "name": "from",
          "type": "address"
        },
        {
          "indexed": true,
          "name": "to",
          "type": "address"
        },
        {
          "indexed": false,
          "name": "value",
          "type": "uint256"
        }
      ],
      "name": "TokensSwapped",
      "type": "event"
    },
    {
      "anonymous": false,
      "inputs": [
        {
          "indexed": true,
          "name": "previousOwner",
          "type": "address"
        }
      ],
      "name": "OwnershipRenounced",
      "type": "event"
    },
    {
      "anonymous": false,
      "inputs": [
        {
          "indexed": true,
          "name": "previousOwner",
          "type": "address"
        },
        {
          "indexed": true,
          "name": "newOwner",
          "type": "address"
        }
      ],
      "name": "OwnershipTransferred",
      "type": "event"
    },
    {
      "constant": false,
      "inputs": [
        {
          "name": "_bridgeContract",
          "type": "address"
        }
      ],
      "name": "setBridgeContract",
      "outputs": [],
      "payable": false,
      "stateMutability": "nonpayable",
      "type": "function"
    },
    {
      "constant": false,
      "inputs": [
        {
          "name": "_receiverInXDai",
          "type": "address"
        }
      ],
      "name": "setReceiverInXDai",
      "outputs": [],
      "payable": false,
      "stateMutability": "nonpayable",
      "type": "function"
    },
    {
      "constant": true,
      "inputs": [],
      "name": "chaiToken",
      "outputs": [
        {
          "name": "",
          "type": "address"
        }
      ],
      "payable": false,
      "stateMutability": "view",
      "type": "function"
    },
    {
      "constant": true,
      "inputs": [],
      "name": "daiToken",
      "outputs": [
        {
          "name": "",
          "type": "address"
        }
      ],
      "payable": false,
      "stateMutability": "view",
      "type": "function"
    },
    {
      "constant": false,
      "inputs": [
        {
          "name": "",
          "type": "address"
        },
        {
          "name": "",
          "type": "uint256"
        },
        {
          "name": "",
          "type": "bytes"
        }
      ],
      "name": "onTokenTransfer",
      "outputs": [
        {
          "name": "",
          "type": "bool"
        }
      ],
      "payable": false,
      "stateMutability": "nonpayable",
      "type": "function"
    },
    {
      "constant": false,
      "inputs": [
        {
          "name": "_token",
          "type": "address"
        },
        {
          "name": "_to",
          "type": "address"
        }
      ],
      "name": "claimTokens",
      "outputs": [],
      "payable": false,
      "stateMutability": "nonpayable",
      "type": "function"
    }
  ],
  "bytecode": "0x608060405234801561001057600080fd5b50604051606080610d7b83398101604090815281516020830151919092015160008054600160a060020a03191633179055610057826401000000006109596100bb82021704565b151561006257600080fd5b600160a060020a038116151561007757600080fd5b610089836401000000006100c3810204565b60018054600160a060020a03938416600160a060020a0319918216179091556002805492909316911617905550610133565b6000903b1190565b600160a060020a03811615156100d857600080fd5b60008054604051600160a060020a03808516939216917f8be0079c531659141344cd1fd0a4f28419497f9722a3daafe3b4186f6b6457e091a360008054600160a060020a031916600160a060020a0392909216919091179055565b610c39806101426000396000f3006080604052600436106100955763ffffffff60e060020a6000350416630b26cf66811461009a5780636611e243146100bd57806369ffa08a146100de578063715018a6146101055780638da5cb5b1461011a578063a4c0ed361461014b578063aa2dfdaf14610190578063af624fec146101a5578063be22f546146101ba578063cd596583146101cf578063f2fde38b146101e4575b600080fd5b3480156100a657600080fd5b506100bb600160a060020a0360043516610205565b005b3480156100c957600080fd5b506100bb600160a060020a036004351661025f565b3480156100ea57600080fd5b506100bb600160a060020a03600435811690602435166102ba565b34801561011157600080fd5b506100bb61032c565b34801561012657600080fd5b5061012f610398565b60408051600160a060020a039092168252519081900360200190f35b34801561015757600080fd5b5061017c60048035600160a060020a03169060248035916044359182019101356103a7565b604080519115158252519081900360200190f35b34801561019c57600080fd5b5061012f6108e8565b3480156101b157600080fd5b5061012f610900565b3480156101c657600080fd5b5061012f61090f565b3480156101db57600080fd5b5061012f610927565b3480156101f057600080fd5b506100bb600160a060020a0360043516610936565b600054600160a060020a0316331461021c57600080fd5b61022581610959565b151561023057600080fd5b6001805473ffffffffffffffffffffffffffffffffffffffff1916600160a060020a0392909216919091179055565b600054600160a060020a0316331461027657600080fd5b600160a060020a038116151561028b57600080fd5b6002805473ffffffffffffffffffffffffffffffffffffffff1916600160a060020a0392909216919091179055565b600054600160a060020a031633146102d157600080fd5b6102d96108e8565b600160a060020a031682600160a060020a03161415801561031357506102fd61090f565b600160a060020a031682600160a060020a031614155b151561031e57600080fd5b6103288282610961565b5050565b600054600160a060020a0316331461034357600080fd5b60008054604051600160a060020a03909116917ff8df31144d9c2f0f6b59d69b8b98abd5459d07f2742c4df920b25aae33c6482091a26000805473ffffffffffffffffffffffffffffffffffffffff19169055565b600054600160a060020a031681565b60008060008060006103b76108e8565b600160a060020a03166370a08231306040518263ffffffff1660e060020a0281526004018082600160a060020a0316600160a060020a03168152602001915050602060405180830381600087803b15801561041157600080fd5b505af1158015610425573d6000803e3d6000fd5b505050506040513d602081101561043b57600080fd5b5051935061044761090f565b600160a060020a03166370a08231306040518263ffffffff1660e060020a0281526004018082600160a060020a0316600160a060020a03168152602001915050602060405180830381600087803b1580156104a157600080fd5b505af11580156104b5573d6000803e3d6000fd5b505050506040513d60208110156104cb57600080fd5b505192508291506000841115610657576104e36108e8565b600160a060020a031663ef693bed30866040518363ffffffff1660e060020a0281526004018083600160a060020a0316600160a060020a0316815260200182815260200192505050600060405180830381600087803b15801561054557600080fd5b505af1158015610559573d6000803e3d6000fd5b5050505061056561090f565b600160a060020a03166370a08231306040518263ffffffff1660e060020a0281526004018082600160a060020a0316600160a060020a03168152602001915050602060405180830381600087803b1580156105bf57600080fd5b505af11580156105d3573d6000803e3d6000fd5b505050506040513d60208110156105e957600080fd5b50519150508181036105f961090f565b600160a060020a031661060a6108e8565b600160a060020a03167fc9eb26923da1234c68dca895268e287fcc49c6aa94a6da3cc280180ae378de13836040518082815260200191505060405180910390a38381101561065757600080fd5b61065f61090f565b600154604080517f095ea7b3000000000000000000000000000000000000000000000000000000008152600160a060020a039283166004820152602481018690529051929091169163095ea7b3916044808201926020929091908290030181600087803b1580156106cf57600080fd5b505af11580156106e3573d6000803e3d6000fd5b505050506040513d60208110156106f957600080fd5b505060015460025460408051600160a060020a039283166024820152604480820187905282518083039091018152606490910182526020810180517bffffffffffffffffffffffffffffffffffffffffffffffffffffffff167f01e4f53a0000000000000000000000000000000000000000000000000000000017815291518151939094169390929091829180838360005b838110156107a357818101518382015260200161078b565b50505050905090810190601f1680156107d05780820380516001836020036101000a031916815260200191505b509150506000604051808303816000865af191505015156108d9576107f361090f565b600154604080517f095ea7b3000000000000000000000000000000000000000000000000000000008152600160a060020a0392831660048201526000602482018190529151939092169263095ea7b3926044808201936020939283900390910190829087803b15801561086557600080fd5b505af1158015610879573d6000803e3d6000fd5b505050506040513d602081101561088f57600080fd5b505060025460408051600160a060020a0390921682526020820184905280517faac23013851deb9c91b07548b467b7f814ced08e097a24ae9200cc60562f327a9281900390910190a15b50600198975050505050505050565b7306af07097c9eeb7fd685c692751d5c66db49c21590565b600254600160a060020a031681565b736b175474e89094c44da98b954eedeac495271d0f90565b600154600160a060020a031681565b600054600160a060020a0316331461094d57600080fd5b610956816109a4565b50565b6000903b1190565b80600160a060020a038116151561097757600080fd5b600160a060020a03831615156109955761099082610a21565b61099f565b61099f8383610a2d565b505050565b600160a060020a03811615156109b957600080fd5b60008054604051600160a060020a03808516939216917f8be0079c531659141344cd1fd0a4f28419497f9722a3daafe3b4186f6b6457e091a36000805473ffffffffffffffffffffffffffffffffffffffff1916600160a060020a0392909216919091179055565b30316103288282610ae0565b604080517f70a0823100000000000000000000000000000000000000000000000000000000815230600482015290518391600091600160a060020a038416916370a0823191602480830192602092919082900301818787803b158015610a9257600080fd5b505af1158015610aa6573d6000803e3d6000fd5b505050506040513d6020811015610abc57600080fd5b50519050610ada600160a060020a038516848363ffffffff610b4816565b50505050565b604051600160a060020a0383169082156108fc029083906000818181858888f193505050501515610328578082610b15610bdd565b600160a060020a039091168152604051908190036020019082f080158015610b41573d6000803e3d6000fd5b5050505050565b82600160a060020a031663a9059cbb83836040518363ffffffff1660e060020a0281526004018083600160a060020a0316600160a060020a0316815260200182815260200192505050600060405180830381600087803b158015610bab57600080fd5b505af1158015610bbf573d6000803e3d6000fd5b505050503d1561099f5760206000803e600051151561099f57600080fd5b604051602180610bed833901905600608060405260405160208060218339810160405251600160a060020a038116ff00a165627a7a72305820dc82f77a4a512ace5977bfad413fd6aaf99f90217dfcee06d922525603bdd7c80029",
  "source": "pragma solidity 0.4.24;\n\nimport \"openzeppelin-solidity/contracts/token/ERC20/ERC20.sol\";\nimport \"openzeppelin-solidity/contracts/ownership/Ownable.sol\";\nimport \"openzeppelin-solidity/contracts/AddressUtils.sol\";\nimport \"../interfaces/IChai.sol\";\nimport \"../interfaces/ERC677Receiver.sol\";\nimport \"./Claimable.sol\";\nimport \"./TokenSwapper.sol\";\n\n/**\n* @title InterestReceiver\n* @dev Сontract for receiving Chai interest and immediatly converting it into Dai.\n* Contract also will try to automaticaly relay tokens to configured xDai receiver\n*/\ncontract InterestReceiver is ERC677Receiver, Ownable, Claimable, TokenSwapper {\n    bytes4 internal constant RELAY_TOKENS = 0x01e4f53a; // relayTokens(address,uint256)\n\n    address public bridgeContract;\n    address public receiverInXDai;\n\n    event RelayTokensFailed(address receiver, uint256 amount);\n\n    /**\n    * @dev Initializes interest receiver, sets an owner of a contract\n    * @param _owner address of owner account, only owner can withdraw Dai tokens from contract\n    * @param _bridgeContract address of the bridge contract in the foreign chain\n    * @param _receiverInXDai address of the receiver account, in the xDai chain\n    */\n    constructor(address _owner, address _bridgeContract, address _receiverInXDai) public {\n        require(AddressUtils.isContract(_bridgeContract));\n        require(_receiverInXDai != address(0));\n        _transferOwnership(_owner);\n        bridgeContract = _bridgeContract;\n        receiverInXDai = _receiverInXDai;\n    }\n\n    /**\n    * @dev Updates bridge contract from which interest is expected to come from,\n    * the incoming tokens will be relayed through this bridge also\n    * @param _bridgeContract address of new contract in the foreign chain\n    */\n    function setBridgeContract(address _bridgeContract) external onlyOwner {\n        require(AddressUtils.isContract(_bridgeContract));\n        bridgeContract = _bridgeContract;\n    }\n\n    /**\n    * @dev Updates receiver address in the xDai chain\n    * @param _receiverInXDai address of new receiver account in the xDai chain\n    */\n    function setReceiverInXDai(address _receiverInXDai) external onlyOwner {\n        require(_receiverInXDai != address(0));\n        receiverInXDai = _receiverInXDai;\n    }\n\n    /**\n    * @return Chai token contract address\n    */\n    function chaiToken() public view returns (IChai) {\n        return IChai(0x06AF07097C9Eeb7fD685c692751D5C66dB49c215);\n    }\n\n    /**\n    * @return Dai token contract address\n    */\n    function daiToken() public view returns (ERC20) {\n        return ERC20(0x6B175474E89094C44Da98b954EedeAC495271d0F);\n    }\n\n    /**\n    * @dev ERC677 transfer callback function, received interest is converted from Chai token into Dai\n    * and then relayed via bridge to xDai receiver\n    */\n    function onTokenTransfer(address, uint256, bytes) external returns (bool) {\n        uint256 chaiBalance = chaiToken().balanceOf(address(this));\n        uint256 initialDaiBalance = daiToken().balanceOf(address(this));\n        uint256 finalDaiBalance = initialDaiBalance;\n\n        if (chaiBalance > 0) {\n            chaiToken().exit(address(this), chaiBalance);\n\n            finalDaiBalance = daiToken().balanceOf(address(this));\n            // Dai balance cannot decrease here, so SafeMath is not needed\n            uint256 redeemed = finalDaiBalance - initialDaiBalance;\n\n            emit TokensSwapped(chaiToken(), daiToken(), redeemed);\n\n            // chi is always >= 10**27, so chai/dai rate is always >= 1\n            require(redeemed >= chaiBalance);\n        }\n\n        daiToken().approve(address(bridgeContract), finalDaiBalance);\n        if (!bridgeContract.call(abi.encodeWithSelector(RELAY_TOKENS, receiverInXDai, finalDaiBalance))) {\n            daiToken().approve(address(bridgeContract), 0);\n            emit RelayTokensFailed(receiverInXDai, finalDaiBalance);\n        }\n        return true;\n    }\n\n    /**\n    * @dev Claims tokens from receiver account\n    * @param _token address of claimed token, address(0) for native\n    * @param _to address of tokens receiver\n    */\n    function claimTokens(address _token, address _to) external onlyOwner {\n        // Only tokens other than CHAI/DAI can be claimed from this contract.\n        require(_token != address(chaiToken()) && _token != address(daiToken()));\n        claimValues(_token, _to);\n    }\n}\n",
  "sourcePath": "/Users/max/Projects/Symblox/TokenBridge/tokenbridge/contracts/contracts/upgradeable_contracts/InterestReceiver.sol",
  "compiler": {
    "name": "solc",
    "version": "0.4.24+commit.e67f0147.Emscripten.clang"
  },
  "schemaVersion": "3.1.0",
  "updatedAt": "2020-11-26T16:22:39.848Z",
  "devdoc": {
    "methods": {
      "chaiToken()": {
        "return": "Chai token contract address"
      },
      "claimTokens(address,address)": {
        "details": "Claims tokens from receiver account",
        "params": {
          "_to": "address of tokens receiver",
          "_token": "address of claimed token, address(0) for native"
        }
      },
      "daiToken()": {
        "return": "Dai token contract address"
      },
      "onTokenTransfer(address,uint256,bytes)": {
        "details": "ERC677 transfer callback function, received interest is converted from Chai token into Dai and then relayed via bridge to xDai receiver"
      },
      "renounceOwnership()": {
        "details": "Allows the current owner to relinquish control of the contract."
      },
      "setBridgeContract(address)": {
        "details": "Updates bridge contract from which interest is expected to come from, the incoming tokens will be relayed through this bridge also",
        "params": {
          "_bridgeContract": "address of new contract in the foreign chain"
        }
      },
      "setReceiverInXDai(address)": {
        "details": "Updates receiver address in the xDai chain",
        "params": {
          "_receiverInXDai": "address of new receiver account in the xDai chain"
        }
      },
      "transferOwnership(address)": {
        "details": "Allows the current owner to transfer control of the contract to a newOwner.",
        "params": {
          "_newOwner": "The address to transfer ownership to."
        }
      }
    },
    "title": "InterestReceiver"
  },
  "userdoc": {
    "methods": {
      "renounceOwnership()": {
        "notice": "Renouncing to ownership will leave the contract without an owner. It will not be possible to call the functions with the `onlyOwner` modifier anymore."
      }
    }
  }
}