{
  "contractName": "InterestReceiverMock",
  "abi": [
    {
      "constant": false,
      "inputs": [
        {
          "name": "_bridgeContract",
          "type": "address"
        }
      ],
      "name": "setBridgeContract",
      "outputs": [],
      "payable": false,
      "stateMutability": "nonpayable",
      "type": "function"
    },
    {
      "constant": false,
      "inputs": [
        {
          "name": "_receiverInXDai",
          "type": "address"
        }
      ],
      "name": "setReceiverInXDai",
      "outputs": [],
      "payable": false,
      "stateMutability": "nonpayable",
      "type": "function"
    },
    {
      "constant": false,
      "inputs": [
        {
          "name": "_token",
          "type": "address"
        },
        {
          "name": "_to",
          "type": "address"
        }
      ],
      "name": "claimTokens",
      "outputs": [],
      "payable": false,
      "stateMutability": "nonpayable",
      "type": "function"
    },
    {
      "constant": false,
      "inputs": [],
      "name": "renounceOwnership",
      "outputs": [],
      "payable": false,
      "stateMutability": "nonpayable",
      "type": "function"
    },
    {
      "constant": true,
      "inputs": [],
      "name": "owner",
      "outputs": [
        {
          "name": "",
          "type": "address"
        }
      ],
      "payable": false,
      "stateMutability": "view",
      "type": "function"
    },
    {
      "constant": false,
      "inputs": [
        {
          "name": "",
          "type": "address"
        },
        {
          "name": "",
          "type": "uint256"
        },
        {
          "name": "",
          "type": "bytes"
        }
      ],
      "name": "onTokenTransfer",
      "outputs": [
        {
          "name": "",
          "type": "bool"
        }
      ],
      "payable": false,
      "stateMutability": "nonpayable",
      "type": "function"
    },
    {
      "constant": true,
      "inputs": [],
      "name": "receiverInXDai",
      "outputs": [
        {
          "name": "",
          "type": "address"
        }
      ],
      "payable": false,
      "stateMutability": "view",
      "type": "function"
    },
    {
      "constant": true,
      "inputs": [],
      "name": "bridgeContract",
      "outputs": [
        {
          "name": "",
          "type": "address"
        }
      ],
      "payable": false,
      "stateMutability": "view",
      "type": "function"
    },
    {
      "constant": false,
      "inputs": [
        {
          "name": "_newOwner",
          "type": "address"
        }
      ],
      "name": "transferOwnership",
      "outputs": [],
      "payable": false,
      "stateMutability": "nonpayable",
      "type": "function"
    },
    {
      "inputs": [
        {
          "name": "_owner",
          "type": "address"
        },
        {
          "name": "_bridge",
          "type": "address"
        },
        {
          "name": "_xDaiReceiver",
          "type": "address"
        }
      ],
      "payable": false,
      "stateMutability": "nonpayable",
      "type": "constructor"
    },
    {
      "anonymous": false,
      "inputs": [
        {
          "indexed": false,
          "name": "receiver",
          "type": "address"
        },
        {
          "indexed": false,
          "name": "amount",
          "type": "uint256"
        }
      ],
      "name": "RelayTokensFailed",
      "type": "event"
    },
    {
      "anonymous": false,
      "inputs": [
        {
          "indexed": true,
          "name": "from",
          "type": "address"
        },
        {
          "indexed": true,
          "name": "to",
          "type": "address"
        },
        {
          "indexed": false,
          "name": "value",
          "type": "uint256"
        }
      ],
      "name": "TokensSwapped",
      "type": "event"
    },
    {
      "anonymous": false,
      "inputs": [
        {
          "indexed": true,
          "name": "previousOwner",
          "type": "address"
        }
      ],
      "name": "OwnershipRenounced",
      "type": "event"
    },
    {
      "anonymous": false,
      "inputs": [
        {
          "indexed": true,
          "name": "previousOwner",
          "type": "address"
        },
        {
          "indexed": true,
          "name": "newOwner",
          "type": "address"
        }
      ],
      "name": "OwnershipTransferred",
      "type": "event"
    },
    {
      "constant": false,
      "inputs": [
        {
          "name": "_chaiToken",
          "type": "address"
        }
      ],
      "name": "setChaiToken",
      "outputs": [],
      "payable": false,
      "stateMutability": "nonpayable",
      "type": "function"
    },
    {
      "constant": true,
      "inputs": [],
      "name": "chaiToken",
      "outputs": [
        {
          "name": "",
          "type": "address"
        }
      ],
      "payable": false,
      "stateMutability": "view",
      "type": "function"
    },
    {
      "constant": true,
      "inputs": [],
      "name": "daiToken",
      "outputs": [
        {
          "name": "",
          "type": "address"
        }
      ],
      "payable": false,
      "stateMutability": "view",
      "type": "function"
    }
  ],
  "bytecode": "0x608060405234801561001057600080fd5b50604051606080610e7383398101604090815281516020830151919092015160008054600160a060020a0319163317905582828261005a82640100000000610a4a6100c282021704565b151561006557600080fd5b600160a060020a038116151561007a57600080fd5b61008c836401000000006100ca810204565b60018054600160a060020a03938416600160a060020a031991821617909155600280549290931691161790555061013a92505050565b6000903b1190565b600160a060020a03811615156100df57600080fd5b60008054604051600160a060020a03808516939216917f8be0079c531659141344cd1fd0a4f28419497f9722a3daafe3b4186f6b6457e091a360008054600160a060020a031916600160a060020a0392909216919091179055565b610d2a806101496000396000f3006080604052600436106100a05763ffffffff60e060020a6000350416630b26cf6681146100a55780636611e243146100c857806369ffa08a146100e9578063715018a6146101105780638da5cb5b14610125578063a4c0ed3614610156578063aa2dfdaf1461019b578063af624fec146101b0578063be22f546146101c5578063cd596583146101da578063f2fde38b146101ef578063f7069ef214610210575b600080fd5b3480156100b157600080fd5b506100c6600160a060020a0360043516610231565b005b3480156100d457600080fd5b506100c6600160a060020a036004351661028b565b3480156100f557600080fd5b506100c6600160a060020a03600435811690602435166102e6565b34801561011c57600080fd5b506100c6610358565b34801561013157600080fd5b5061013a6103c4565b60408051600160a060020a039092168252519081900360200190f35b34801561016257600080fd5b5061018760048035600160a060020a03169060248035916044359182019101356103d3565b604080519115158252519081900360200190f35b3480156101a757600080fd5b5061013a610914565b3480156101bc57600080fd5b5061013a610923565b3480156101d157600080fd5b5061013a610932565b3480156101e657600080fd5b5061013a610941565b3480156101fb57600080fd5b506100c6600160a060020a0360043516610950565b34801561021c57600080fd5b506100c6600160a060020a0360043516610973565b600054600160a060020a0316331461024857600080fd5b61025181610a4a565b151561025c57600080fd5b6001805473ffffffffffffffffffffffffffffffffffffffff1916600160a060020a0392909216919091179055565b600054600160a060020a031633146102a257600080fd5b600160a060020a03811615156102b757600080fd5b6002805473ffffffffffffffffffffffffffffffffffffffff1916600160a060020a0392909216919091179055565b600054600160a060020a031633146102fd57600080fd5b610305610914565b600160a060020a031682600160a060020a03161415801561033f5750610329610932565b600160a060020a031682600160a060020a031614155b151561034a57600080fd5b6103548282610a52565b5050565b600054600160a060020a0316331461036f57600080fd5b60008054604051600160a060020a03909116917ff8df31144d9c2f0f6b59d69b8b98abd5459d07f2742c4df920b25aae33c6482091a26000805473ffffffffffffffffffffffffffffffffffffffff19169055565b600054600160a060020a031681565b60008060008060006103e3610914565b600160a060020a03166370a08231306040518263ffffffff1660e060020a0281526004018082600160a060020a0316600160a060020a03168152602001915050602060405180830381600087803b15801561043d57600080fd5b505af1158015610451573d6000803e3d6000fd5b505050506040513d602081101561046757600080fd5b50519350610473610932565b600160a060020a03166370a08231306040518263ffffffff1660e060020a0281526004018082600160a060020a0316600160a060020a03168152602001915050602060405180830381600087803b1580156104cd57600080fd5b505af11580156104e1573d6000803e3d6000fd5b505050506040513d60208110156104f757600080fd5b5051925082915060008411156106835761050f610914565b600160a060020a031663ef693bed30866040518363ffffffff1660e060020a0281526004018083600160a060020a0316600160a060020a0316815260200182815260200192505050600060405180830381600087803b15801561057157600080fd5b505af1158015610585573d6000803e3d6000fd5b50505050610591610932565b600160a060020a03166370a08231306040518263ffffffff1660e060020a0281526004018082600160a060020a0316600160a060020a03168152602001915050602060405180830381600087803b1580156105eb57600080fd5b505af11580156105ff573d6000803e3d6000fd5b505050506040513d602081101561061557600080fd5b5051915050818103610625610932565b600160a060020a0316610636610914565b600160a060020a03167fc9eb26923da1234c68dca895268e287fcc49c6aa94a6da3cc280180ae378de13836040518082815260200191505060405180910390a38381101561068357600080fd5b61068b610932565b600154604080517f095ea7b3000000000000000000000000000000000000000000000000000000008152600160a060020a039283166004820152602481018690529051929091169163095ea7b3916044808201926020929091908290030181600087803b1580156106fb57600080fd5b505af115801561070f573d6000803e3d6000fd5b505050506040513d602081101561072557600080fd5b505060015460025460408051600160a060020a039283166024820152604480820187905282518083039091018152606490910182526020810180517bffffffffffffffffffffffffffffffffffffffffffffffffffffffff167f01e4f53a0000000000000000000000000000000000000000000000000000000017815291518151939094169390929091829180838360005b838110156107cf5781810151838201526020016107b7565b50505050905090810190601f1680156107fc5780820380516001836020036101000a031916815260200191505b509150506000604051808303816000865af191505015156109055761081f610932565b600154604080517f095ea7b3000000000000000000000000000000000000000000000000000000008152600160a060020a0392831660048201526000602482018190529151939092169263095ea7b3926044808201936020939283900390910190829087803b15801561089157600080fd5b505af11580156108a5573d6000803e3d6000fd5b505050506040513d60208110156108bb57600080fd5b505060025460408051600160a060020a0390921682526020820184905280517faac23013851deb9c91b07548b467b7f814ced08e097a24ae9200cc60562f327a9281900390910190a15b50600198975050505050505050565b600354600160a060020a031690565b600254600160a060020a031681565b600454600160a060020a031690565b600154600160a060020a031681565b600054600160a060020a0316331461096757600080fd5b61097081610a95565b50565b6003805473ffffffffffffffffffffffffffffffffffffffff1916600160a060020a038316908117909155604080517fbe22f546000000000000000000000000000000000000000000000000000000008152905163be22f546916004808201926020929091908290030181600087803b1580156109ef57600080fd5b505af1158015610a03573d6000803e3d6000fd5b505050506040513d6020811015610a1957600080fd5b50516004805473ffffffffffffffffffffffffffffffffffffffff1916600160a060020a0390921691909117905550565b6000903b1190565b80600160a060020a0381161515610a6857600080fd5b600160a060020a0383161515610a8657610a8182610b12565b610a90565b610a908383610b1e565b505050565b600160a060020a0381161515610aaa57600080fd5b60008054604051600160a060020a03808516939216917f8be0079c531659141344cd1fd0a4f28419497f9722a3daafe3b4186f6b6457e091a36000805473ffffffffffffffffffffffffffffffffffffffff1916600160a060020a0392909216919091179055565b30316103548282610bd1565b604080517f70a0823100000000000000000000000000000000000000000000000000000000815230600482015290518391600091600160a060020a038416916370a0823191602480830192602092919082900301818787803b158015610b8357600080fd5b505af1158015610b97573d6000803e3d6000fd5b505050506040513d6020811015610bad57600080fd5b50519050610bcb600160a060020a038516848363ffffffff610c3916565b50505050565b604051600160a060020a0383169082156108fc029083906000818181858888f193505050501515610354578082610c06610cce565b600160a060020a039091168152604051908190036020019082f080158015610c32573d6000803e3d6000fd5b5050505050565b82600160a060020a031663a9059cbb83836040518363ffffffff1660e060020a0281526004018083600160a060020a0316600160a060020a0316815260200182815260200192505050600060405180830381600087803b158015610c9c57600080fd5b505af1158015610cb0573d6000803e3d6000fd5b505050503d15610a905760206000803e6000511515610a9057600080fd5b604051602180610cde833901905600608060405260405160208060218339810160405251600160a060020a038116ff00a165627a7a72305820e2ae8e33d11dca56f8aa59d898bf85b0ed3fe0664ea9405d42c510cbef7ca23e0029",
  "source": "pragma solidity 0.4.24;\n\nimport \"../upgradeable_contracts/InterestReceiver.sol\";\n\ncontract InterestReceiverMock is InterestReceiver {\n    address private chaiTokenMock;\n    address private daiTokenMock;\n\n    // solhint-disable no-empty-blocks\n    constructor(address _owner, address _bridge, address _xDaiReceiver)\n        public\n        InterestReceiver(_owner, _bridge, _xDaiReceiver)\n    {}\n    // solhint-enable no-empty-blocks\n\n    function setChaiToken(IChai _chaiToken) external {\n        chaiTokenMock = _chaiToken;\n        daiTokenMock = _chaiToken.daiToken();\n    }\n\n    function chaiToken() public view returns (IChai) {\n        return IChai(chaiTokenMock);\n    }\n\n    function daiToken() public view returns (ERC20) {\n        return ERC20(daiTokenMock);\n    }\n}\n",
  "sourcePath": "/Users/max/Projects/Symblox/TokenBridge/tokenbridge/contracts/contracts/mocks/InterestReceiverMock.sol",
  "compiler": {
    "name": "solc",
    "version": "0.4.24+commit.e67f0147.Emscripten.clang"
  },
  "schemaVersion": "3.1.0",
  "updatedAt": "2020-11-26T16:22:39.694Z",
  "devdoc": {
    "methods": {
      "claimTokens(address,address)": {
        "details": "Claims tokens from receiver account",
        "params": {
          "_to": "address of tokens receiver",
          "_token": "address of claimed token, address(0) for native"
        }
      },
      "onTokenTransfer(address,uint256,bytes)": {
        "details": "ERC677 transfer callback function, received interest is converted from Chai token into Dai and then relayed via bridge to xDai receiver"
      },
      "renounceOwnership()": {
        "details": "Allows the current owner to relinquish control of the contract."
      },
      "setBridgeContract(address)": {
        "details": "Updates bridge contract from which interest is expected to come from, the incoming tokens will be relayed through this bridge also",
        "params": {
          "_bridgeContract": "address of new contract in the foreign chain"
        }
      },
      "setReceiverInXDai(address)": {
        "details": "Updates receiver address in the xDai chain",
        "params": {
          "_receiverInXDai": "address of new receiver account in the xDai chain"
        }
      },
      "transferOwnership(address)": {
        "details": "Allows the current owner to transfer control of the contract to a newOwner.",
        "params": {
          "_newOwner": "The address to transfer ownership to."
        }
      }
    }
  },
  "userdoc": {
    "methods": {
      "renounceOwnership()": {
        "notice": "Renouncing to ownership will leave the contract without an owner. It will not be possible to call the functions with the `onlyOwner` modifier anymore."
      }
    }
  }
}