{
  "contractName": "MediatorBalanceStorage",
  "abi": [
    {
      "constant": true,
      "inputs": [],
      "name": "mediatorBalance",
      "outputs": [
        {
          "name": "",
          "type": "uint256"
        }
      ],
      "payable": false,
      "stateMutability": "view",
      "type": "function"
    }
  ],
  "bytecode": "0x6080604052348015600f57600080fd5b5060e08061001e6000396000f300608060405260043610603e5763ffffffff7c01000000000000000000000000000000000000000000000000000000006000350416634b94f81581146043575b600080fd5b348015604e57600080fd5b5060556067565b60408051918252519081900360200190f35b7f3db340e280667ee926fa8c51e8f9fcf88a0ff221a66d84d63b4778127d97d13960009081526020527ef98556deae64bbaa11436ee534ae029e85ed112aff9b71330af4c2d320eac954905600a165627a7a7230582038751992eb7b1ab35db12a8bd48294d8422c464de995068c89f17e9d6032c2600029",
  "source": "pragma solidity 0.4.24;\n\nimport \"../upgradeability/EternalStorage.sol\";\n\n/**\n * @title MediatorBalanceStorage\n * @dev Storage helpers for the mediator balance tracking.\n */\ncontract MediatorBalanceStorage is EternalStorage {\n    bytes32 internal constant MEDIATOR_BALANCE = 0x3db340e280667ee926fa8c51e8f9fcf88a0ff221a66d84d63b4778127d97d139; // keccak256(abi.encodePacked(\"mediatorBalance\"))\n\n    /**\n     * @dev Tells the expected mediator balance.\n     * @return the current expected mediator balance.\n     */\n    function mediatorBalance() public view returns (uint256) {\n        return uintStorage[MEDIATOR_BALANCE];\n    }\n\n    /**\n     * @dev Sets the expected mediator balance of the contract.\n     * @param _balance the new expected mediator balance value.\n     */\n    function _setMediatorBalance(uint256 _balance) internal {\n        uintStorage[MEDIATOR_BALANCE] = _balance;\n    }\n}\n",
  "sourcePath": "/Users/max/Projects/Symblox/TokenBridge/tokenbridge/contracts/contracts/upgradeable_contracts/MediatorBalanceStorage.sol",
  "compiler": {
    "name": "solc",
    "version": "0.4.24+commit.e67f0147.Emscripten.clang"
  },
  "schemaVersion": "3.1.0",
  "updatedAt": "2020-11-26T16:22:39.852Z",
  "devdoc": {
    "methods": {
      "mediatorBalance()": {
        "details": "Tells the expected mediator balance.",
        "return": "the current expected mediator balance."
      }
    },
    "title": "MediatorBalanceStorage"
  },
  "userdoc": {
    "methods": {}
  }
}