{
  "contractName": "MessageRelay",
  "abi": [
    {
      "constant": true,
      "inputs": [
        {
          "name": "_txHash",
          "type": "bytes32"
        }
      ],
      "name": "relayedMessages",
      "outputs": [
        {
          "name": "",
          "type": "bool"
        }
      ],
      "payable": false,
      "stateMutability": "view",
      "type": "function"
    }
  ],
  "bytecode": "0x608060405234801561001057600080fd5b50610166806100206000396000f3006080604052600436106100405763ffffffff7c010000000000000000000000000000000000000000000000000000000060003504166321d800ec8114610045575b600080fd5b34801561005157600080fd5b5061005d600435610071565b604080519115158252519081900360200190f35b6000600460008360405160200180807f72656c617965644d657373616765730000000000000000000000000000000000815250600f0182600019166000191681526020019150506040516020818303038152906040526040518082805190602001908083835b602083106100f65780518252601f1990920191602091820191016100d7565b51815160209384036101000a600019018019909216911617905260408051929094018290039091208652850195909552929092016000205460ff16959450505050505600a165627a7a72305820876d8bd678f5c2a94efdadb4972ed6c6fb9a4389d272331a040a4595733865050029",
  "source": "pragma solidity 0.4.24;\n\nimport \"../upgradeability/EternalStorage.sol\";\n\ncontract MessageRelay is EternalStorage {\n    function relayedMessages(bytes32 _txHash) public view returns (bool) {\n        return boolStorage[keccak256(abi.encodePacked(\"relayedMessages\", _txHash))];\n    }\n\n    function setRelayedMessages(bytes32 _txHash, bool _status) internal {\n        boolStorage[keccak256(abi.encodePacked(\"relayedMessages\", _txHash))] = _status;\n    }\n}\n",
  "sourcePath": "/Users/max/Projects/Symblox/TokenBridge/tokenbridge/contracts/contracts/upgradeable_contracts/MessageRelay.sol",
  "compiler": {
    "name": "solc",
    "version": "0.4.24+commit.e67f0147.Emscripten.clang"
  },
  "schemaVersion": "3.1.0",
  "updatedAt": "2020-11-26T16:22:39.852Z",
  "devdoc": {
    "methods": {}
  },
  "userdoc": {
    "methods": {}
  }
}