{
  "contractName": "MultiTokenForwardingRules",
  "abi": [
    {
      "constant": true,
      "inputs": [],
      "name": "owner",
      "outputs": [
        {
          "name": "",
          "type": "address"
        }
      ],
      "payable": false,
      "stateMutability": "view",
      "type": "function"
    },
    {
      "constant": false,
      "inputs": [
        {
          "name": "newOwner",
          "type": "address"
        }
      ],
      "name": "transferOwnership",
      "outputs": [],
      "payable": false,
      "stateMutability": "nonpayable",
      "type": "function"
    },
    {
      "anonymous": false,
      "inputs": [
        {
          "indexed": false,
          "name": "token",
          "type": "address"
        },
        {
          "indexed": false,
          "name": "sender",
          "type": "address"
        },
        {
          "indexed": false,
          "name": "receiver",
          "type": "address"
        },
        {
          "indexed": false,
          "name": "lane",
          "type": "int256"
        }
      ],
      "name": "ForwardingRuleUpdated",
      "type": "event"
    },
    {
      "anonymous": false,
      "inputs": [
        {
          "indexed": false,
          "name": "previousOwner",
          "type": "address"
        },
        {
          "indexed": false,
          "name": "newOwner",
          "type": "address"
        }
      ],
      "name": "OwnershipTransferred",
      "type": "event"
    },
    {
      "constant": true,
      "inputs": [
        {
          "name": "_token",
          "type": "address"
        },
        {
          "name": "_sender",
          "type": "address"
        },
        {
          "name": "_receiver",
          "type": "address"
        }
      ],
      "name": "destinationLane",
      "outputs": [
        {
          "name": "",
          "type": "int256"
        }
      ],
      "payable": false,
      "stateMutability": "view",
      "type": "function"
    },
    {
      "constant": false,
      "inputs": [
        {
          "name": "_token",
          "type": "address"
        },
        {
          "name": "_enable",
          "type": "bool"
        }
      ],
      "name": "setTokenForwardingRule",
      "outputs": [],
      "payable": false,
      "stateMutability": "nonpayable",
      "type": "function"
    },
    {
      "constant": false,
      "inputs": [
        {
          "name": "_token",
          "type": "address"
        },
        {
          "name": "_sender",
          "type": "address"
        },
        {
          "name": "_enable",
          "type": "bool"
        }
      ],
      "name": "setSenderExceptionForTokenForwardingRule",
      "outputs": [],
      "payable": false,
      "stateMutability": "nonpayable",
      "type": "function"
    },
    {
      "constant": false,
      "inputs": [
        {
          "name": "_token",
          "type": "address"
        },
        {
          "name": "_receiver",
          "type": "address"
        },
        {
          "name": "_enable",
          "type": "bool"
        }
      ],
      "name": "setReceiverExceptionForTokenForwardingRule",
      "outputs": [],
      "payable": false,
      "stateMutability": "nonpayable",
      "type": "function"
    },
    {
      "constant": false,
      "inputs": [
        {
          "name": "_sender",
          "type": "address"
        },
        {
          "name": "_enable",
          "type": "bool"
        }
      ],
      "name": "setSenderForwardingRule",
      "outputs": [],
      "payable": false,
      "stateMutability": "nonpayable",
      "type": "function"
    },
    {
      "constant": false,
      "inputs": [
        {
          "name": "_receiver",
          "type": "address"
        },
        {
          "name": "_enable",
          "type": "bool"
        }
      ],
      "name": "setReceiverForwardingRule",
      "outputs": [],
      "payable": false,
      "stateMutability": "nonpayable",
      "type": "function"
    },
    {
      "constant": true,
      "inputs": [
        {
          "name": "_token",
          "type": "address"
        },
        {
          "name": "_sender",
          "type": "address"
        },
        {
          "name": "_receiver",
          "type": "address"
        }
      ],
      "name": "forwardingRule",
      "outputs": [
        {
          "name": "",
          "type": "int256"
        }
      ],
      "payable": false,
      "stateMutability": "view",
      "type": "function"
    }
  ],
  "bytecode": "0x608060405234801561001057600080fd5b506107dc806100206000396000f3006080604052600436106100985763ffffffff7c010000000000000000000000000000000000000000000000000000000060003504166324d05aa2811461009d5780634721ff79146100c55780637060ed89146100eb578063878236191461012a5780638da5cb5b146101505780638efeb22d14610181578063c98cb30e146101ad578063f2fde38b146101d9578063f7baa049146101fa575b600080fd5b3480156100a957600080fd5b506100c3600160a060020a03600435166024351515610227565b005b3480156100d157600080fd5b506100c3600160a060020a03600435166024351515610263565b3480156100f757600080fd5b50610118600160a060020a0360043581169060243581169060443516610292565b60408051918252519081900360200190f35b34801561013657600080fd5b506100c3600160a060020a0360043516602435151561037c565b34801561015c57600080fd5b506101656103b2565b60408051600160a060020a039092168252519081900360200190f35b34801561018d57600080fd5b506100c3600160a060020a03600435811690602435166044351515610409565b3480156101b957600080fd5b506100c3600160a060020a0360043581169060243516604435151561045a565b3480156101e557600080fd5b506100c3600160a060020a036004351661049f565b34801561020657600080fd5b50610118600160a060020a03600435811690602435811690604435166104c7565b600160a060020a03828116141561023d57600080fd5b61025f82600160a060020a03808461025657600061025a565b6000195b61057c565b5050565b600160a060020a03828116141561027957600080fd5b61025f600160a060020a0380848461025657600061025a565b604080517f666f7277617264546f00000000000000000000000000000000000000000000006020808301919091526c01000000000000000000000000600160a060020a03808816820260298501528087168202603d85015285160260518301528251604581840301815260659092019283905281516000936005938593909282918401908083835b602083106103395780518252601f19909201916020918201910161031a565b51815160209384036101000a6000190180199092169116179052604080519290940182900390912086528501959095529290920160002054979650505050505050565b600160a060020a03828116141561039257600080fd5b61025f600160a060020a0383600160a060020a038461025657600061025a565b7f02016836a56b71f0d02689e69e326f4f4c1b9057164ef592671cf0d37c8040c060005260026020527fb7802e97e87ef2842a6cce7da7ffaeaedaa2f61a6a7870b23d9d01fc9b73712e54600160a060020a031690565b600160a060020a03838116141561041f57600080fd5b600160a060020a03828116141561043557600080fd5b6104558383600160a060020a038461044e57600061025a565b600161057c565b505050565b600160a060020a03838116141561047057600080fd5b600160a060020a03828116141561048657600080fd5b61045583600160a060020a03848461044e57600061025a565b6104a76103b2565b600160a060020a031633146104bb57600080fd5b6104c4816106d9565b50565b60008060006104de86600160a060020a0380610292565b91506000821215610535576104fb8686600160a060020a03610292565b9050801561050b57809250610573565b61051d86600160a060020a0386610292565b9050801561052d57809250610573565b819250610573565b61054e600160a060020a0386600160a060020a03610292565b9050801561055e57809250610573565b610570600160a060020a038086610292565b92505b50509392505050565b6105846103b2565b600160a060020a0316331461059857600080fd5b604080517f666f7277617264546f00000000000000000000000000000000000000000000006020808301919091526c01000000000000000000000000600160a060020a03808916820260298501528088168202603d85015286160260518301528251604581840301815260659092019283905281518493600593600093909282918401908083835b6020831061063f5780518252601f199092019160209182019101610620565b51815160001960209485036101000a0190811690199190911617905260408051949092018490039093208652858301969096525092840160002094909455508151600160a060020a03808916825280881692820192909252908516818301526060810184905290517fa999f8c73447a5021a8e358783df77bbe2c90529cadb1fb1ef8f30cd9f9d8c9392509081900360800190a150505050565b600160a060020a03811615156106ee57600080fd5b7f8be0079c531659141344cd1fd0a4f28419497f9722a3daafe3b4186f6b6457e06107176103b2565b60408051600160a060020a03928316815291841660208301528051918290030190a17f02016836a56b71f0d02689e69e326f4f4c1b9057164ef592671cf0d37c8040c060005260026020527fb7802e97e87ef2842a6cce7da7ffaeaedaa2f61a6a7870b23d9d01fc9b73712e805473ffffffffffffffffffffffffffffffffffffffff1916600160a060020a03929092169190911790555600a165627a7a72305820eb9038b386478633781862b9a87bee10be3c20eec20854068ffbc2eb8b5119660029",
  "source": "pragma solidity 0.4.24;\n\nimport \"../../upgradeable_contracts/Ownable.sol\";\n\n/**\n * @title MultiTokenForwardingRules\n * @dev Multi token mediator functionality for managing destination AMB lanes permissions.\n */\ncontract MultiTokenForwardingRules is Ownable {\n    address internal constant ANY_ADDRESS = 0xFFfFfFffFFfffFFfFFfFFFFFffFFFffffFfFFFfF;\n\n    event ForwardingRuleUpdated(address token, address sender, address receiver, int256 lane);\n\n    /**\n     * @dev Tells the destination lane for a particular bridge operation by checking several wildcard forwarding rules.\n     * @param _token address of the token contract on the foreign side of the bridge.\n     * @param _sender address of the tokens sender on the home side of the bridge.\n     * @param _receiver address of the tokens receiver on the foreign side of the bridge.\n     * @return destination lane identifier, where the message should be forwarded to.\n     *  1 - oracle-driven-lane should be used.\n     *  0 - default behaviour should be applied.\n     * -1 - manual lane should be used.\n     */\n    function destinationLane(address _token, address _sender, address _receiver) public view returns (int256) {\n        int256 defaultLane = forwardingRule(_token, ANY_ADDRESS, ANY_ADDRESS); // specific token for all senders and receivers\n        int256 lane;\n        if (defaultLane < 0) {\n            lane = forwardingRule(_token, _sender, ANY_ADDRESS); // specific token for specific sender\n            if (lane != 0) return lane;\n            lane = forwardingRule(_token, ANY_ADDRESS, _receiver); // specific token for specific receiver\n            if (lane != 0) return lane;\n            return defaultLane;\n        }\n        lane = forwardingRule(ANY_ADDRESS, _sender, ANY_ADDRESS); // all tokens for specific sender\n        if (lane != 0) return lane;\n        return forwardingRule(ANY_ADDRESS, ANY_ADDRESS, _receiver); // all tokens for specific receiver\n    }\n\n    /**\n     * Updates the forwarding rule for bridging specific token.\n     * Only owner can call this method.\n     * @param _token address of the token contract on the foreign side.\n     * @param _enable true, if bridge operations for a given token should be forwarded to the manual lane.\n     */\n    function setTokenForwardingRule(address _token, bool _enable) external {\n        require(_token != ANY_ADDRESS);\n        _setForwardingRule(_token, ANY_ADDRESS, ANY_ADDRESS, _enable ? int256(-1) : int256(0));\n    }\n\n    /**\n     * Allows a particular address to send bridge requests to the oracle-driven lane for a particular token.\n     * Only owner can call this method.\n     * @param _token address of the token contract on the foreign side.\n     * @param _sender address of the tokens sender on the home side of the bridge.\n     * @param _enable true, if bridge operations for a given token and sender should be forwarded to the oracle-driven lane.\n     */\n    function setSenderExceptionForTokenForwardingRule(address _token, address _sender, bool _enable) external {\n        require(_token != ANY_ADDRESS);\n        require(_sender != ANY_ADDRESS);\n        _setForwardingRule(_token, _sender, ANY_ADDRESS, _enable ? int256(1) : int256(0));\n    }\n\n    /**\n     * Allows a particular address to receive bridged tokens from the oracle-driven lane for a particular token.\n     * Only owner can call this method.\n     * @param _token address of the token contract on the foreign side.\n     * @param _receiver address of the tokens receiver on the foreign side of the bridge.\n     * @param _enable true, if bridge operations for a given token and receiver should be forwarded to the oracle-driven lane.\n     */\n    function setReceiverExceptionForTokenForwardingRule(address _token, address _receiver, bool _enable) external {\n        require(_token != ANY_ADDRESS);\n        require(_receiver != ANY_ADDRESS);\n        _setForwardingRule(_token, ANY_ADDRESS, _receiver, _enable ? int256(1) : int256(0));\n    }\n\n    /**\n     * Updates the forwarding rule for the specific sender.\n     * Only owner can call this method.\n     * @param _sender address of the tokens sender on the home side.\n     * @param _enable true, if all bridge operations from a given sender should be forwarded to the manual lane.\n     */\n    function setSenderForwardingRule(address _sender, bool _enable) external {\n        require(_sender != ANY_ADDRESS);\n        _setForwardingRule(ANY_ADDRESS, _sender, ANY_ADDRESS, _enable ? int256(-1) : int256(0));\n    }\n\n    /**\n     * Updates the forwarding rule for the specific receiver.\n     * Only owner can call this method.\n     * @param _receiver address of the tokens receiver on the foreign side.\n     * @param _enable true, if all bridge operations to a given receiver should be forwarded to the manual lane.\n     */\n    function setReceiverForwardingRule(address _receiver, bool _enable) external {\n        require(_receiver != ANY_ADDRESS);\n        _setForwardingRule(ANY_ADDRESS, ANY_ADDRESS, _receiver, _enable ? int256(-1) : int256(0));\n    }\n\n    /**\n     * @dev Tells forwarding rule set up for a particular bridge operation.\n     * @param _token address of the token contract on the foreign side of the bridge.\n     * @param _sender address of the tokens sender on the home side of the bridge.\n     * @param _receiver address of the tokens receiver on the foreign side of the bridge.\n     * @return preferred destination lane for the particular bridge operation.\n     */\n    function forwardingRule(address _token, address _sender, address _receiver) public view returns (int256) {\n        return intStorage[keccak256(abi.encodePacked(\"forwardTo\", _token, _sender, _receiver))];\n    }\n\n    /**\n     * @dev Internal function for updating the preferred destination lane for the specific wildcard pattern.\n     * Only owner can call this method.\n     * Examples:\n     *   _setForwardingRule(tokenA, ANY_ADDRESS, ANY_ADDRESS, -1) - forward all operations on tokenA to the manual lane\n     *   _setForwardingRule(tokenA, Alice, ANY_ADDRESS, 1) - allow Alice to use the oracle-driven lane for bridging tokenA\n     *   _setForwardingRule(tokenA, ANY_ADDRESS, Bob, 1) - forward all tokenA bridge operations, where Bob is the receiver, to the oracle-driven lane\n     *   _setForwardingRule(ANY_ADDRESS, Mallory, ANY_ADDRESS, -1) - forward all bridge operations from Mallory to the manual lane\n     * @param _token address of the token contract on the foreign side of the bridge.\n     * @param _sender address of the tokens sender on the home side of the bridge.\n     * @param _receiver address of the tokens receiver on the foreign side of the bridge.\n     * @param _lane preferred destination lane for the particular sender.\n     *  1 - forward to the oracle-driven lane.\n     *  0 - behaviour is unset, proceed by checking other less-specific rules.\n     * -1 - manual lane should be used.\n     */\n    function _setForwardingRule(address _token, address _sender, address _receiver, int256 _lane) internal onlyOwner {\n        intStorage[keccak256(abi.encodePacked(\"forwardTo\", _token, _sender, _receiver))] = _lane;\n\n        emit ForwardingRuleUpdated(_token, _sender, _receiver, _lane);\n    }\n}\n",
  "sourcePath": "/Users/max/Projects/Symblox/TokenBridge/tokenbridge/contracts/contracts/upgradeable_contracts/multi_amb_erc20_to_erc677/MultiTokenForwardingRules.sol",
  "compiler": {
    "name": "solc",
    "version": "0.4.24+commit.e67f0147.Emscripten.clang"
  },
  "schemaVersion": "3.1.0",
  "updatedAt": "2020-11-26T16:22:40.014Z",
  "devdoc": {
    "methods": {
      "destinationLane(address,address,address)": {
        "details": "Tells the destination lane for a particular bridge operation by checking several wildcard forwarding rules.",
        "params": {
          "_receiver": "address of the tokens receiver on the foreign side of the bridge.",
          "_sender": "address of the tokens sender on the home side of the bridge.",
          "_token": "address of the token contract on the foreign side of the bridge."
        },
        "return": "destination lane identifier, where the message should be forwarded to. 1 - oracle-driven-lane should be used. 0 - default behaviour should be applied. -1 - manual lane should be used."
      },
      "forwardingRule(address,address,address)": {
        "details": "Tells forwarding rule set up for a particular bridge operation.",
        "params": {
          "_receiver": "address of the tokens receiver on the foreign side of the bridge.",
          "_sender": "address of the tokens sender on the home side of the bridge.",
          "_token": "address of the token contract on the foreign side of the bridge."
        },
        "return": "preferred destination lane for the particular bridge operation."
      },
      "owner()": {
        "details": "Tells the address of the owner",
        "return": "the address of the owner"
      },
      "setReceiverExceptionForTokenForwardingRule(address,address,bool)": {
        "params": {
          "_enable": "true, if bridge operations for a given token and receiver should be forwarded to the oracle-driven lane.",
          "_receiver": "address of the tokens receiver on the foreign side of the bridge.",
          "_token": "address of the token contract on the foreign side."
        }
      },
      "setReceiverForwardingRule(address,bool)": {
        "params": {
          "_enable": "true, if all bridge operations to a given receiver should be forwarded to the manual lane.",
          "_receiver": "address of the tokens receiver on the foreign side."
        }
      },
      "setSenderExceptionForTokenForwardingRule(address,address,bool)": {
        "params": {
          "_enable": "true, if bridge operations for a given token and sender should be forwarded to the oracle-driven lane.",
          "_sender": "address of the tokens sender on the home side of the bridge.",
          "_token": "address of the token contract on the foreign side."
        }
      },
      "setSenderForwardingRule(address,bool)": {
        "params": {
          "_enable": "true, if all bridge operations from a given sender should be forwarded to the manual lane.",
          "_sender": "address of the tokens sender on the home side."
        }
      },
      "setTokenForwardingRule(address,bool)": {
        "params": {
          "_enable": "true, if bridge operations for a given token should be forwarded to the manual lane.",
          "_token": "address of the token contract on the foreign side."
        }
      },
      "transferOwnership(address)": {
        "details": "Allows the current owner to transfer control of the contract to a newOwner.",
        "params": {
          "newOwner": "the address to transfer ownership to."
        }
      }
    },
    "title": "MultiTokenForwardingRules"
  },
  "userdoc": {
    "methods": {
      "setReceiverExceptionForTokenForwardingRule(address,address,bool)": {
        "notice": "Allows a particular address to receive bridged tokens from the oracle-driven lane for a particular token. Only owner can call this method."
      },
      "setReceiverForwardingRule(address,bool)": {
        "notice": "Updates the forwarding rule for the specific receiver. Only owner can call this method."
      },
      "setSenderExceptionForTokenForwardingRule(address,address,bool)": {
        "notice": "Allows a particular address to send bridge requests to the oracle-driven lane for a particular token. Only owner can call this method."
      },
      "setSenderForwardingRule(address,bool)": {
        "notice": "Updates the forwarding rule for the specific sender. Only owner can call this method."
      },
      "setTokenForwardingRule(address,bool)": {
        "notice": "Updates the forwarding rule for bridging specific token. Only owner can call this method."
      }
    }
  }
}