{
  "contractName": "OldBlockReward",
  "abi": [
    {
      "constant": true,
      "inputs": [],
      "name": "bridgesAllowedLength",
      "outputs": [
        {
          "name": "",
          "type": "uint256"
        }
      ],
      "payable": false,
      "stateMutability": "view",
      "type": "function"
    }
  ],
  "bytecode": "0x6080604052348015600f57600080fd5b5060988061001e6000396000f300608060405260043610603e5763ffffffff7c010000000000000000000000000000000000000000000000000000000060003504166310f2ee7c81146043575b600080fd5b348015604e57600080fd5b5060556067565b60408051918252519081900360200190f35b6003905600a165627a7a72305820167b5c4758bedc40e02ab72f768c73153f7abed391a231e147d2a98d291d98580029",
  "source": "pragma solidity 0.4.24;\n\ncontract OldBlockReward {\n    function bridgesAllowedLength() external view returns (uint256) {\n        return 3;\n    }\n}\n",
  "sourcePath": "/Users/max/Projects/Symblox/TokenBridge/tokenbridge/contracts/contracts/mocks/OldBlockReward.sol",
  "compiler": {
    "name": "solc",
    "version": "0.4.24+commit.e67f0147.Emscripten.clang"
  },
  "schemaVersion": "3.1.0",
  "updatedAt": "2020-11-26T16:22:39.699Z",
  "devdoc": {
    "methods": {}
  },
  "userdoc": {
    "methods": {}
  }
}