{
  "contractName": "PermittableTokenMock",
  "abi": [
    {
      "constant": true,
      "inputs": [],
      "name": "mintingFinished",
      "outputs": [
        {
          "name": "",
          "type": "bool"
        }
      ],
      "payable": false,
      "stateMutability": "view",
      "type": "function"
    },
    {
      "constant": true,
      "inputs": [],
      "name": "name",
      "outputs": [
        {
          "name": "",
          "type": "string"
        }
      ],
      "payable": false,
      "stateMutability": "view",
      "type": "function"
    },
    {
      "constant": false,
      "inputs": [
        {
          "name": "_to",
          "type": "address"
        },
        {
          "name": "_value",
          "type": "uint256"
        }
      ],
      "name": "approve",
      "outputs": [
        {
          "name": "result",
          "type": "bool"
        }
      ],
      "payable": false,
      "stateMutability": "nonpayable",
      "type": "function"
    },
    {
      "constant": false,
      "inputs": [
        {
          "name": "_bridgeContract",
          "type": "address"
        }
      ],
      "name": "setBridgeContract",
      "outputs": [],
      "payable": false,
      "stateMutability": "nonpayable",
      "type": "function"
    },
    {
      "constant": true,
      "inputs": [],
      "name": "totalSupply",
      "outputs": [
        {
          "name": "",
          "type": "uint256"
        }
      ],
      "payable": false,
      "stateMutability": "view",
      "type": "function"
    },
    {
      "constant": false,
      "inputs": [
        {
          "name": "_sender",
          "type": "address"
        },
        {
          "name": "_recipient",
          "type": "address"
        },
        {
          "name": "_amount",
          "type": "uint256"
        }
      ],
      "name": "transferFrom",
      "outputs": [
        {
          "name": "",
          "type": "bool"
        }
      ],
      "payable": false,
      "stateMutability": "nonpayable",
      "type": "function"
    },
    {
      "constant": true,
      "inputs": [],
      "name": "PERMIT_TYPEHASH",
      "outputs": [
        {
          "name": "",
          "type": "bytes32"
        }
      ],
      "payable": false,
      "stateMutability": "view",
      "type": "function"
    },
    {
      "constant": true,
      "inputs": [],
      "name": "decimals",
      "outputs": [
        {
          "name": "",
          "type": "uint8"
        }
      ],
      "payable": false,
      "stateMutability": "view",
      "type": "function"
    },
    {
      "constant": true,
      "inputs": [],
      "name": "DOMAIN_SEPARATOR",
      "outputs": [
        {
          "name": "",
          "type": "bytes32"
        }
      ],
      "payable": false,
      "stateMutability": "view",
      "type": "function"
    },
    {
      "constant": false,
      "inputs": [
        {
          "name": "_to",
          "type": "address"
        },
        {
          "name": "_addedValue",
          "type": "uint256"
        }
      ],
      "name": "increaseAllowance",
      "outputs": [
        {
          "name": "result",
          "type": "bool"
        }
      ],
      "payable": false,
      "stateMutability": "nonpayable",
      "type": "function"
    },
    {
      "constant": false,
      "inputs": [
        {
          "name": "_to",
          "type": "address"
        },
        {
          "name": "_value",
          "type": "uint256"
        },
        {
          "name": "_data",
          "type": "bytes"
        }
      ],
      "name": "transferAndCall",
      "outputs": [
        {
          "name": "",
          "type": "bool"
        }
      ],
      "payable": false,
      "stateMutability": "nonpayable",
      "type": "function"
    },
    {
      "constant": false,
      "inputs": [
        {
          "name": "_to",
          "type": "address"
        },
        {
          "name": "_amount",
          "type": "uint256"
        }
      ],
      "name": "mint",
      "outputs": [
        {
          "name": "",
          "type": "bool"
        }
      ],
      "payable": false,
      "stateMutability": "nonpayable",
      "type": "function"
    },
    {
      "constant": false,
      "inputs": [
        {
          "name": "_value",
          "type": "uint256"
        }
      ],
      "name": "burn",
      "outputs": [],
      "payable": false,
      "stateMutability": "nonpayable",
      "type": "function"
    },
    {
      "constant": true,
      "inputs": [],
      "name": "version",
      "outputs": [
        {
          "name": "",
          "type": "string"
        }
      ],
      "payable": false,
      "stateMutability": "view",
      "type": "function"
    },
    {
      "constant": false,
      "inputs": [
        {
          "name": "_spender",
          "type": "address"
        },
        {
          "name": "_subtractedValue",
          "type": "uint256"
        }
      ],
      "name": "decreaseApproval",
      "outputs": [
        {
          "name": "",
          "type": "bool"
        }
      ],
      "payable": false,
      "stateMutability": "nonpayable",
      "type": "function"
    },
    {
      "constant": false,
      "inputs": [
        {
          "name": "_token",
          "type": "address"
        },
        {
          "name": "_to",
          "type": "address"
        }
      ],
      "name": "claimTokens",
      "outputs": [],
      "payable": false,
      "stateMutability": "nonpayable",
      "type": "function"
    },
    {
      "constant": true,
      "inputs": [
        {
          "name": "_owner",
          "type": "address"
        }
      ],
      "name": "balanceOf",
      "outputs": [
        {
          "name": "",
          "type": "uint256"
        }
      ],
      "payable": false,
      "stateMutability": "view",
      "type": "function"
    },
    {
      "constant": false,
      "inputs": [],
      "name": "renounceOwnership",
      "outputs": [],
      "payable": false,
      "stateMutability": "nonpayable",
      "type": "function"
    },
    {
      "constant": true,
      "inputs": [
        {
          "name": "_address",
          "type": "address"
        }
      ],
      "name": "isBridge",
      "outputs": [
        {
          "name": "",
          "type": "bool"
        }
      ],
      "payable": false,
      "stateMutability": "view",
      "type": "function"
    },
    {
      "constant": false,
      "inputs": [],
      "name": "finishMinting",
      "outputs": [
        {
          "name": "",
          "type": "bool"
        }
      ],
      "payable": false,
      "stateMutability": "nonpayable",
      "type": "function"
    },
    {
      "constant": true,
      "inputs": [
        {
          "name": "",
          "type": "address"
        }
      ],
      "name": "nonces",
      "outputs": [
        {
          "name": "",
          "type": "uint256"
        }
      ],
      "payable": false,
      "stateMutability": "view",
      "type": "function"
    },
    {
      "constant": true,
      "inputs": [],
      "name": "getTokenInterfacesVersion",
      "outputs": [
        {
          "name": "major",
          "type": "uint64"
        },
        {
          "name": "minor",
          "type": "uint64"
        },
        {
          "name": "patch",
          "type": "uint64"
        }
      ],
      "payable": false,
      "stateMutability": "pure",
      "type": "function"
    },
    {
      "constant": true,
      "inputs": [],
      "name": "owner",
      "outputs": [
        {
          "name": "",
          "type": "address"
        }
      ],
      "payable": false,
      "stateMutability": "view",
      "type": "function"
    },
    {
      "constant": false,
      "inputs": [
        {
          "name": "_holder",
          "type": "address"
        },
        {
          "name": "_spender",
          "type": "address"
        },
        {
          "name": "_nonce",
          "type": "uint256"
        },
        {
          "name": "_expiry",
          "type": "uint256"
        },
        {
          "name": "_allowed",
          "type": "bool"
        },
        {
          "name": "_v",
          "type": "uint8"
        },
        {
          "name": "_r",
          "type": "bytes32"
        },
        {
          "name": "_s",
          "type": "bytes32"
        }
      ],
      "name": "permit",
      "outputs": [],
      "payable": false,
      "stateMutability": "nonpayable",
      "type": "function"
    },
    {
      "constant": true,
      "inputs": [],
      "name": "symbol",
      "outputs": [
        {
          "name": "",
          "type": "string"
        }
      ],
      "payable": false,
      "stateMutability": "view",
      "type": "function"
    },
    {
      "constant": false,
      "inputs": [
        {
          "name": "spender",
          "type": "address"
        },
        {
          "name": "subtractedValue",
          "type": "uint256"
        }
      ],
      "name": "decreaseAllowance",
      "outputs": [
        {
          "name": "",
          "type": "bool"
        }
      ],
      "payable": false,
      "stateMutability": "nonpayable",
      "type": "function"
    },
    {
      "constant": false,
      "inputs": [
        {
          "name": "_to",
          "type": "address"
        },
        {
          "name": "_value",
          "type": "uint256"
        }
      ],
      "name": "transfer",
      "outputs": [
        {
          "name": "",
          "type": "bool"
        }
      ],
      "payable": false,
      "stateMutability": "nonpayable",
      "type": "function"
    },
    {
      "constant": false,
      "inputs": [
        {
          "name": "_to",
          "type": "address"
        },
        {
          "name": "_amount",
          "type": "uint256"
        }
      ],
      "name": "push",
      "outputs": [],
      "payable": false,
      "stateMutability": "nonpayable",
      "type": "function"
    },
    {
      "constant": false,
      "inputs": [
        {
          "name": "_from",
          "type": "address"
        },
        {
          "name": "_to",
          "type": "address"
        },
        {
          "name": "_amount",
          "type": "uint256"
        }
      ],
      "name": "move",
      "outputs": [],
      "payable": false,
      "stateMutability": "nonpayable",
      "type": "function"
    },
    {
      "constant": true,
      "inputs": [],
      "name": "bridgeContract",
      "outputs": [
        {
          "name": "",
          "type": "address"
        }
      ],
      "payable": false,
      "stateMutability": "view",
      "type": "function"
    },
    {
      "constant": false,
      "inputs": [
        {
          "name": "_spender",
          "type": "address"
        },
        {
          "name": "_addedValue",
          "type": "uint256"
        }
      ],
      "name": "increaseApproval",
      "outputs": [
        {
          "name": "",
          "type": "bool"
        }
      ],
      "payable": false,
      "stateMutability": "nonpayable",
      "type": "function"
    },
    {
      "constant": true,
      "inputs": [
        {
          "name": "_owner",
          "type": "address"
        },
        {
          "name": "_spender",
          "type": "address"
        }
      ],
      "name": "allowance",
      "outputs": [
        {
          "name": "",
          "type": "uint256"
        }
      ],
      "payable": false,
      "stateMutability": "view",
      "type": "function"
    },
    {
      "constant": false,
      "inputs": [
        {
          "name": "_from",
          "type": "address"
        },
        {
          "name": "_amount",
          "type": "uint256"
        }
      ],
      "name": "pull",
      "outputs": [],
      "payable": false,
      "stateMutability": "nonpayable",
      "type": "function"
    },
    {
      "constant": false,
      "inputs": [
        {
          "name": "_newOwner",
          "type": "address"
        }
      ],
      "name": "transferOwnership",
      "outputs": [],
      "payable": false,
      "stateMutability": "nonpayable",
      "type": "function"
    },
    {
      "constant": true,
      "inputs": [
        {
          "name": "",
          "type": "address"
        },
        {
          "name": "",
          "type": "address"
        }
      ],
      "name": "expirations",
      "outputs": [
        {
          "name": "",
          "type": "uint256"
        }
      ],
      "payable": false,
      "stateMutability": "view",
      "type": "function"
    },
    {
      "inputs": [
        {
          "name": "_name",
          "type": "string"
        },
        {
          "name": "_symbol",
          "type": "string"
        },
        {
          "name": "_decimals",
          "type": "uint8"
        },
        {
          "name": "_chainId",
          "type": "uint256"
        }
      ],
      "payable": false,
      "stateMutability": "nonpayable",
      "type": "constructor"
    },
    {
      "anonymous": false,
      "inputs": [
        {
          "indexed": true,
          "name": "to",
          "type": "address"
        },
        {
          "indexed": false,
          "name": "amount",
          "type": "uint256"
        }
      ],
      "name": "Mint",
      "type": "event"
    },
    {
      "anonymous": false,
      "inputs": [],
      "name": "MintFinished",
      "type": "event"
    },
    {
      "anonymous": false,
      "inputs": [
        {
          "indexed": true,
          "name": "previousOwner",
          "type": "address"
        }
      ],
      "name": "OwnershipRenounced",
      "type": "event"
    },
    {
      "anonymous": false,
      "inputs": [
        {
          "indexed": true,
          "name": "previousOwner",
          "type": "address"
        },
        {
          "indexed": true,
          "name": "newOwner",
          "type": "address"
        }
      ],
      "name": "OwnershipTransferred",
      "type": "event"
    },
    {
      "anonymous": false,
      "inputs": [
        {
          "indexed": true,
          "name": "burner",
          "type": "address"
        },
        {
          "indexed": false,
          "name": "value",
          "type": "uint256"
        }
      ],
      "name": "Burn",
      "type": "event"
    },
    {
      "anonymous": false,
      "inputs": [
        {
          "indexed": true,
          "name": "from",
          "type": "address"
        },
        {
          "indexed": true,
          "name": "to",
          "type": "address"
        },
        {
          "indexed": false,
          "name": "value",
          "type": "uint256"
        },
        {
          "indexed": false,
          "name": "data",
          "type": "bytes"
        }
      ],
      "name": "Transfer",
      "type": "event"
    },
    {
      "anonymous": false,
      "inputs": [
        {
          "indexed": true,
          "name": "owner",
          "type": "address"
        },
        {
          "indexed": true,
          "name": "spender",
          "type": "address"
        },
        {
          "indexed": false,
          "name": "value",
          "type": "uint256"
        }
      ],
      "name": "Approval",
      "type": "event"
    },
    {
      "anonymous": false,
      "inputs": [
        {
          "indexed": true,
          "name": "from",
          "type": "address"
        },
        {
          "indexed": true,
          "name": "to",
          "type": "address"
        },
        {
          "indexed": false,
          "name": "value",
          "type": "uint256"
        }
      ],
      "name": "Transfer",
      "type": "event"
    },
    {
      "constant": false,
      "inputs": [
        {
          "name": "_timestamp",
          "type": "uint256"
        }
      ],
      "name": "setNow",
      "outputs": [],
      "payable": false,
      "stateMutability": "nonpayable",
      "type": "function"
    }
  ],
  "bytecode": "0x60806040526006805460a060020a60ff02191690553480156200002157600080fd5b5060405162001e7a38038062001e7a833981016040908152815160208084015192840151606085015192850180519095949094019390929185918591859185918591859185918491849184916200007e91600091860190620002dc565b50815162000094906001906020850190620002dc565b506002805460ff90921660ff19909216919091179055505060068054600160a060020a03191633179055505050801515620000ce57600080fd5b60405180807f454950373132446f6d61696e28737472696e67206e616d652c737472696e672081526020017f76657273696f6e2c75696e7432353620636861696e49642c616464726573732081526020017f766572696679696e67436f6e747261637429000000000000000000000000000081525060520190506040518091039020846040518082805190602001908083835b60208310620001825780518252601f19909201916020918201910162000161565b51815160209384036101000a600019018019909216911617905260408051929094018290038220828501855260018084527f3100000000000000000000000000000000000000000000000000000000000000928401928352945190965091945090928392508083835b602083106200020c5780518252601f199092019160209182019101620001eb565b51815160209384036101000a6000190180199092169116179052604080519290940182900382208282019890985281840196909652606081019690965250608085018690523060a0808701919091528151808703909101815260c09095019081905284519093849350850191508083835b602083106200029e5780518252601f1990920191602091820191016200027d565b5181516020939093036101000a6000190180199091169216919091179052604051920182900390912060085550620003819950505050505050505050565b828054600181600116156101000203166002900490600052602060002090601f016020900481019282601f106200031f57805160ff19168380011785556200034f565b828001600101855582156200034f579182015b828111156200034f57825182559160200191906001019062000332565b506200035d92915062000361565b5090565b6200037e91905b808211156200035d576000815560010162000368565b90565b611ae980620003916000396000f3006080604052600436106101a85763ffffffff60e060020a60003504166305d2035b81146101ad57806306fdde03146101d6578063095ea7b3146102605780630b26cf661461028457806318160ddd146102a757806323b872dd146102ce57806330adf81f146102f8578063313ce5671461030d5780633644e51514610338578063395093511461034d5780634000aea01461037157806340c10f19146103a257806342966c68146103c657806354fd4d50146103de57806366188463146103f357806369ffa08a1461041757806370a082311461043e578063715018a61461045f578063726600ce146104745780637d64bcb4146104955780637ecebe00146104aa578063859ba28c146104cb5780638da5cb5b1461050c5780638fcbaf0c1461053d57806395d89b411461057b578063a457c2d714610590578063a9059cbb146105b4578063b753a98c146105d8578063bb35783b146105fc578063cd59658314610626578063d73dd6231461063b578063dd62ed3e1461065f578063e380ae9614610686578063f2d5d56b1461069e578063f2fde38b146106c2578063ff9e884d146106e3575b600080fd5b3480156101b957600080fd5b506101c261070a565b604080519115158252519081900360200190f35b3480156101e257600080fd5b506101eb61072b565b6040805160208082528351818301528351919283929083019185019080838360005b8381101561022557818101518382015260200161020d565b50505050905090810190601f1680156102525780820380516001836020036101000a031916815260200191505b509250505060405180910390f35b34801561026c57600080fd5b506101c2600160a060020a03600435166024356107b9565b34801561029057600080fd5b506102a5600160a060020a03600435166107fc565b005b3480156102b357600080fd5b506102bc610856565b60408051918252519081900360200190f35b3480156102da57600080fd5b506101c2600160a060020a036004358116906024351660443561085c565b34801561030457600080fd5b506102bc610a2b565b34801561031957600080fd5b50610322610a4f565b6040805160ff9092168252519081900360200190f35b34801561034457600080fd5b506102bc610a58565b34801561035957600080fd5b506101c2600160a060020a0360043516602435610a5e565b34801561037d57600080fd5b506101c260048035600160a060020a0316906024803591604435918201910135610ac4565b3480156103ae57600080fd5b506101c2600160a060020a0360043516602435610bd5565b3480156103d257600080fd5b506102a5600435610ce0565b3480156103ea57600080fd5b506101eb610ced565b3480156103ff57600080fd5b506101c2600160a060020a0360043516602435610d24565b34801561042357600080fd5b506102a5600160a060020a0360043581169060243516610e01565b34801561044a57600080fd5b506102bc600160a060020a0360043516610e26565b34801561046b57600080fd5b506102a5610e41565b34801561048057600080fd5b506101c2600160a060020a0360043516610e58565b3480156104a157600080fd5b506101c2610e6c565b3480156104b657600080fd5b506102bc600160a060020a0360043516610e73565b3480156104d757600080fd5b506104e0610e85565b6040805167ffffffffffffffff9485168152928416602084015292168183015290519081900360600190f35b34801561051857600080fd5b50610521610e90565b60408051600160a060020a039092168252519081900360200190f35b34801561054957600080fd5b506102a5600160a060020a0360043581169060243516604435606435608435151560ff60a4351660c43560e435610e9f565b34801561058757600080fd5b506101eb6111f3565b34801561059c57600080fd5b506101c2600160a060020a036004351660243561124d565b3480156105c057600080fd5b506101c2600160a060020a0360043516602435611260565b3480156105e457600080fd5b506102a5600160a060020a036004351660243561128b565b34801561060857600080fd5b506102a5600160a060020a036004358116906024351660443561129b565b34801561063257600080fd5b506105216112ac565b34801561064757600080fd5b506101c2600160a060020a03600435166024356112bb565b34801561066b57600080fd5b506102bc600160a060020a0360043581169060243516611342565b34801561069257600080fd5b506102a560043561136d565b3480156106aa57600080fd5b506102a5600160a060020a0360043516602435611372565b3480156106ce57600080fd5b506102a5600160a060020a036004351661137d565b3480156106ef57600080fd5b506102bc600160a060020a036004358116906024351661139d565b60065474010000000000000000000000000000000000000000900460ff1681565b6000805460408051602060026001851615610100026000190190941693909304601f810184900484028201840190925281815292918301828280156107b15780601f10610786576101008083540402835291602001916107b1565b820191906000526020600020905b81548152906001019060200180831161079457829003601f168201915b505050505081565b60006107c583836113ba565b90506000198214156107f657336000908152600a60209081526040808320600160a060020a03871684529091528120555b92915050565b600654600160a060020a0316331461081357600080fd5b61081c8161140e565b151561082757600080fd5b6007805473ffffffffffffffffffffffffffffffffffffffff1916600160a060020a0392909216919091179055565b60045490565b600080600160a060020a038516151561087457600080fd5b600160a060020a038416151561088957600080fd5b600160a060020a0385166000908152600360205260409020546108b2908463ffffffff61141616565b600160a060020a0380871660009081526003602052604080822093909355908616815220546108e7908463ffffffff61142816565b600160a060020a038086166000818152600360209081526040918290209490945580518781529051919392891692600080516020611a7e83398151915292918290030190a3600160a060020a0385163314610a15576109468533611342565b905060001981146109b057610961818463ffffffff61141616565b600160a060020a038616600081815260056020908152604080832033808552908352928190208590558051948552519193600080516020611a9e833981519152929081900390910190a3610a15565b600160a060020a0385166000908152600a602090815260408083203384529091529020541580610a0a57506109e3611435565b600160a060020a0386166000908152600a6020908152604080832033845290915290205410155b1515610a1557600080fd5b610a20858585611451565b506001949350505050565b7fea2aa0a1be11a07ed86d755c93467f4f82362b452371d1ba94d1715123511acb81565b60025460ff1681565b60085481565b6000610a6a8383611488565b336000908152600560209081526040808320600160a060020a038816845290915290205490915060001914156107f657336000908152600a60209081526040808320600160a060020a038716845290915281205592915050565b600084600160a060020a03811615801590610ae85750600160a060020a0381163014155b1515610af357600080fd5b610afd8686611494565b1515610b0857600080fd5b85600160a060020a031633600160a060020a03167fe19260aff97b920c7df27010903aeb9c8d2be5d310a2c67824cf3f15396e4c16878787604051808481526020018060200182810382528484828181526020019250808284376040519201829003965090945050505050a3610b7d8661140e565b15610bc957610bbe33878787878080601f016020809104026020016040519081016040528093929190818152602001838380828437506114a0945050505050565b1515610bc957600080fd5b50600195945050505050565b600654600090600160a060020a03163314610bef57600080fd5b60065474010000000000000000000000000000000000000000900460ff1615610c1757600080fd5b600454610c2a908363ffffffff61142816565b600455600160a060020a038316600090815260036020526040902054610c56908363ffffffff61142816565b600160a060020a038416600081815260036020908152604091829020939093558051858152905191927f0f6798a560793a54c3bcfe86a93cde1e73087d944c0ea20544137d412139688592918290030190a2604080518381529051600160a060020a03851691600091600080516020611a7e8339815191529181900360200190a350600192915050565b610cea338261161d565b50565b60408051808201909152600181527f3100000000000000000000000000000000000000000000000000000000000000602082015281565b336000908152600560209081526040808320600160a060020a0386168452909152812054808310610d7857336000908152600560209081526040808320600160a060020a0388168452909152812055610dad565b610d88818463ffffffff61141616565b336000908152600560209081526040808320600160a060020a03891684529091529020555b336000818152600560209081526040808320600160a060020a038916808552908352928190205481519081529051929392600080516020611a9e833981519152929181900390910190a35060019392505050565b600654600160a060020a03163314610e1857600080fd5b610e22828261170c565b5050565b600160a060020a031660009081526003602052604090205490565b600654600160a060020a031633146101a857600080fd5b600754600160a060020a0390811691161490565b6000806000fd5b60096020526000908152604090205481565b600260046000909192565b600654600160a060020a031681565b600080600160a060020a038a161515610eb757600080fd5b600160a060020a0389161515610ecc57600080fd5b861580610ee0575086610edd611435565b11155b1515610eeb57600080fd5b8460ff16601b1480610f0057508460ff16601c145b1515610f0b57600080fd5b7f7fffffffffffffffffffffffffffffff5d576e7357a4501ddfe92f46681b20a0831115610f3857600080fd5b600854604080517fea2aa0a1be11a07ed86d755c93467f4f82362b452371d1ba94d1715123511acb602080830191909152600160a060020a03808f16838501528d166060830152608082018c905260a082018b905289151560c0808401919091528351808403909101815260e090920192839052815191929182918401908083835b60208310610fd95780518252601f199092019160209182019101610fba565b51815160209384036101000a6000190180199092169116179052604080519290940182900382207f190100000000000000000000000000000000000000000000000000000000000083830152602283019790975260428083019790975283518083039097018752606290910192839052855192945084935085019190508083835b602083106110795780518252601f19909201916020918201910161105a565b51815160209384036101000a600019018019909216911617905260408051929094018290038220600080845283830180875282905260ff8d1684870152606084018c9052608084018b905294519098506001965060a080840196509194601f19820194509281900390910191865af11580156110f9573d6000803e3d6000fd5b50505060206040510351600160a060020a03168a600160a060020a031614151561112257600080fd5b600160a060020a038a166000908152600960205260409020805460018101909155881461114e57600080fd5b8561115a57600061115e565b6000195b600160a060020a03808c166000908152600560209081526040808320938e16835292905220819055905085611194576000611196565b865b600160a060020a03808c166000818152600a60209081526040808320948f1680845294825291829020949094558051858152905192939192600080516020611a9e833981519152929181900390910190a350505050505050505050565b60018054604080516020600284861615610100026000190190941693909304601f810184900484028201840190925281815292918301828280156107b15780601f10610786576101008083540402835291602001916107b1565b60006112598383610d24565b9392505050565b600061126c8383611494565b151561127757600080fd5b611282338484611451565b50600192915050565b61129633838361085c565b505050565b6112a683838361085c565b50505050565b600754600160a060020a031690565b336000908152600560209081526040808320600160a060020a03861684529091528120546112ef908363ffffffff61142816565b336000818152600560209081526040808320600160a060020a038916808552908352928190208590558051948552519193600080516020611a9e833981519152929081900390910190a350600192915050565b600160a060020a03918216600090815260056020908152604080832093909416825291909152205490565b600b55565b61129682338361085c565b600654600160a060020a0316331461139457600080fd5b610cea8161174a565b600a60209081526000928352604080842090915290825290205481565b336000818152600560209081526040808320600160a060020a03871680855290835281842086905581518681529151939490939092600080516020611a9e833981519152928290030190a350600192915050565b6000903b1190565b60008282111561142257fe5b50900390565b818101828110156107f657fe5b6000600b5460001415611448574261144c565b600b545b905090565b61145a82610e58565b156112965760408051600081526020810190915261147d908490849084906114a0565b151561129657600080fd5b600061125983836112bb565b600061125983836117c8565b600083600160a060020a031663a4c0ed3660e060020a028685856040516024018084600160a060020a0316600160a060020a0316815260200183815260200180602001828103825283818151815260200191508051906020019080838360005b83811015611518578181015183820152602001611500565b50505050905090810190601f1680156115455780820380516001836020036101000a031916815260200191505b5060408051601f198184030181529181526020820180517bffffffffffffffffffffffffffffffffffffffffffffffffffffffff167fffffffff00000000000000000000000000000000000000000000000000000000909916989098178852518151919790965086955093509150819050838360005b838110156115d35781810151838201526020016115bb565b50505050905090810190601f1680156116005780820380516001836020036101000a031916815260200191505b509150506000604051808303816000865af1979650505050505050565b600160a060020a03821660009081526003602052604090205481111561164257600080fd5b600160a060020a03821660009081526003602052604090205461166b908263ffffffff61141616565b600160a060020a038316600090815260036020526040902055600454611697908263ffffffff61141616565b600455604080518281529051600160a060020a038416917fcc16f5dbb4873280815c1ee09dbd06736cffcc184412cf7a71a0fdb75d397ca5919081900360200190a2604080518281529051600091600160a060020a03851691600080516020611a7e8339815191529181900360200190a35050565b80600160a060020a038116151561172257600080fd5b600160a060020a03831615156117405761173b82611897565b611296565b61129683836118a3565b600160a060020a038116151561175f57600080fd5b600654604051600160a060020a038084169216907f8be0079c531659141344cd1fd0a4f28419497f9722a3daafe3b4186f6b6457e090600090a36006805473ffffffffffffffffffffffffffffffffffffffff1916600160a060020a0392909216919091179055565b336000908152600360205260408120548211156117e457600080fd5b600160a060020a03831615156117f957600080fd5b33600090815260036020526040902054611819908363ffffffff61141616565b3360009081526003602052604080822092909255600160a060020a0385168152205461184b908363ffffffff61142816565b600160a060020a038416600081815260036020908152604091829020939093558051858152905191923392600080516020611a7e8339815191529281900390910190a350600192915050565b3031610e228282611950565b604080517f70a0823100000000000000000000000000000000000000000000000000000000815230600482015290518391600091600160a060020a038416916370a0823191602480830192602092919082900301818787803b15801561190857600080fd5b505af115801561191c573d6000803e3d6000fd5b505050506040513d602081101561193257600080fd5b505190506112a6600160a060020a038516848363ffffffff6119b816565b604051600160a060020a0383169082156108fc029083906000818181858888f193505050501515610e22578082611985611a4d565b600160a060020a039091168152604051908190036020019082f0801580156119b1573d6000803e3d6000fd5b5050505050565b82600160a060020a031663a9059cbb83836040518363ffffffff1660e060020a0281526004018083600160a060020a0316600160a060020a0316815260200182815260200192505050600060405180830381600087803b158015611a1b57600080fd5b505af1158015611a2f573d6000803e3d6000fd5b505050503d156112965760206000803e600051151561129657600080fd5b604051602180611a5d833901905600608060405260405160208060218339810160405251600160a060020a038116ff00ddf252ad1be2c89b69c2b068fc378daa952ba7f163c4a11628f55a4df523b3ef8c5be1e5ebec7d5bd14f71427d1e84f3dd0314c0f7b2291e5b200ac8c7c3b925a165627a7a72305820a685abc636b53204181d7055a723bda7637c9af2eb1b94e767f35bd5e22c58ba0029",
  "source": "pragma solidity 0.4.24;\n\nimport \"../PermittableToken.sol\";\n\ncontract PermittableTokenMock is PermittableToken {\n    uint256 private _blockTimestamp;\n\n    constructor(string _name, string _symbol, uint8 _decimals, uint256 _chainId)\n        public\n        PermittableToken(_name, _symbol, _decimals, _chainId)\n    {\n        // solhint-disable-previous-line no-empty-blocks\n    }\n\n    function setNow(uint256 _timestamp) public {\n        _blockTimestamp = _timestamp;\n    }\n\n    function _now() internal view returns (uint256) {\n        return _blockTimestamp != 0 ? _blockTimestamp : now;\n    }\n\n}\n",
  "sourcePath": "/Users/max/Projects/Symblox/TokenBridge/tokenbridge/contracts/contracts/mocks/PermittableTokenMock.sol",
  "compiler": {
    "name": "solc",
    "version": "0.4.24+commit.e67f0147.Emscripten.clang"
  },
  "schemaVersion": "3.1.0",
  "updatedAt": "2020-11-26T16:22:39.699Z",
  "devdoc": {
    "methods": {
      "allowance(address,address)": {
        "details": "Function to check the amount of tokens that an owner allowed to a spender.",
        "params": {
          "_owner": "address The address which owns the funds.",
          "_spender": "address The address which will spend the funds."
        },
        "return": "A uint256 specifying the amount of tokens still available for the spender."
      },
      "approve(address,uint256)": {
        "details": "Approve the passed address to spend the specified amount of tokens on behalf of msg.sender.",
        "params": {
          "_to": "The address which will spend the funds.",
          "_value": "The amount of tokens to be spent."
        }
      },
      "balanceOf(address)": {
        "details": "Gets the balance of the specified address.",
        "params": {
          "_owner": "The address to query the the balance of."
        },
        "return": "An uint256 representing the amount owned by the passed address."
      },
      "burn(uint256)": {
        "details": "Burns a specific amount of tokens.",
        "params": {
          "_value": "The amount of token to be burned."
        }
      },
      "claimTokens(address,address)": {
        "details": "Withdraws the erc20 tokens or native coins from this contract.",
        "params": {
          "_to": "address of the tokens/coins receiver.",
          "_token": "address of the claimed token or address(0) for native coins."
        }
      },
      "decreaseApproval(address,uint256)": {
        "details": "Decrease the amount of tokens that an owner allowed to a spender. approve should be called when allowed[_spender] == 0. To decrement allowed value is better to use this function to avoid 2 calls (and wait until the first transaction is mined) From MonolithDAO Token.sol",
        "params": {
          "_spender": "The address which will spend the funds.",
          "_subtractedValue": "The amount of tokens to decrease the allowance by."
        }
      },
      "increaseAllowance(address,uint256)": {
        "details": "Atomically increases the allowance granted to spender by the caller.",
        "params": {
          "_addedValue": "The amount of tokens to increase the allowance by.",
          "_to": "The address which will spend the funds."
        }
      },
      "increaseApproval(address,uint256)": {
        "details": "Increase the amount of tokens that an owner allowed to a spender. approve should be called when allowed[_spender] == 0. To increment allowed value is better to use this function to avoid 2 calls (and wait until the first transaction is mined) From MonolithDAO Token.sol",
        "params": {
          "_addedValue": "The amount of tokens to increase the allowance by.",
          "_spender": "The address which will spend the funds."
        }
      },
      "mint(address,uint256)": {
        "details": "Function to mint tokens",
        "params": {
          "_amount": "The amount of tokens to mint.",
          "_to": "The address that will receive the minted tokens."
        },
        "return": "A boolean that indicates if the operation was successful."
      },
      "move(address,address,uint256)": {
        "details": "An alias for `transferFrom` function.",
        "params": {
          "_amount": "The value to transfer.",
          "_from": "The address of the sender.",
          "_to": "The address of the recipient."
        }
      },
      "permit(address,address,uint256,uint256,bool,uint8,bytes32,bytes32)": {
        "details": "Allows to spend holder's unlimited amount by the specified spender. The function can be called by anyone, but requires having allowance parameters signed by the holder according to EIP712.",
        "params": {
          "_allowed": "True to enable unlimited allowance for the spender by the holder. False to disable.",
          "_expiry": "The allowance expiration date (unix timestamp in UTC). Can be zero for no expiration. Forced to zero if `_allowed` is `false`. Note that timestamps are not precise, malicious miner/validator can manipulate them to some extend. Assume that there can be a 900 seconds time delta between the desired timestamp and the actual expiration.",
          "_holder": "The holder's address.",
          "_nonce": "The nonce taken from `nonces(_holder)` public getter.",
          "_r": "The first 32 bytes of signature (ECDSA component).",
          "_s": "The second 32 bytes of signature (ECDSA component).",
          "_spender": "The spender's address.",
          "_v": "A final byte of signature (ECDSA component)."
        }
      },
      "pull(address,uint256)": {
        "details": "Makes a request to transfer the specified amount from the specified address to the caller's address.",
        "params": {
          "_amount": "The value to transfer.",
          "_from": "The address of the holder."
        }
      },
      "push(address,uint256)": {
        "details": "An alias for `transfer` function.",
        "params": {
          "_amount": "The value to transfer.",
          "_to": "The address of the recipient."
        }
      },
      "totalSupply()": {
        "details": "Total number of tokens in existence"
      },
      "transferFrom(address,address,uint256)": {
        "details": "transferFrom in this contract works in a slightly different form than the generic transferFrom function. This contract allows for \"unlimited approval\". Should the user approve an address for the maximum uint256 value, then that address will have unlimited approval until told otherwise.",
        "params": {
          "_amount": "The value to transfer.",
          "_recipient": "The address of the recipient.",
          "_sender": "The address of the sender."
        },
        "return": "Success status."
      },
      "transferOwnership(address)": {
        "details": "Allows the current owner to transfer control of the contract to a newOwner.",
        "params": {
          "_newOwner": "The address to transfer ownership to."
        }
      }
    }
  },
  "userdoc": {
    "methods": {}
  }
}