{
  "contractName": "PotMock2",
  "abi": [
    {
      "constant": true,
      "inputs": [],
      "name": "rho",
      "outputs": [
        {
          "name": "",
          "type": "uint256"
        }
      ],
      "payable": false,
      "stateMutability": "view",
      "type": "function"
    },
    {
      "constant": true,
      "inputs": [],
      "name": "dsr",
      "outputs": [
        {
          "name": "",
          "type": "uint256"
        }
      ],
      "payable": false,
      "stateMutability": "view",
      "type": "function"
    },
    {
      "constant": true,
      "inputs": [],
      "name": "chi",
      "outputs": [
        {
          "name": "",
          "type": "uint256"
        }
      ],
      "payable": false,
      "stateMutability": "view",
      "type": "function"
    },
    {
      "constant": false,
      "inputs": [],
      "name": "drip",
      "outputs": [
        {
          "name": "",
          "type": "uint256"
        }
      ],
      "payable": false,
      "stateMutability": "nonpayable",
      "type": "function"
    }
  ],
  "bytecode": "0x608060405234801561001057600080fd5b5060e38061001f6000396000f300608060405260043610605c5763ffffffff7c010000000000000000000000000000000000000000000000000000000060003504166320aba08b81146061578063487bf0821460615780639f678cca146085578063c92aecc4146061575b600080fd5b348015606c57600080fd5b5060736097565b60408051918252519081900360200190f35b348015609057600080fd5b50607360a7565b6b033b2e3c9fd0803ce800000081565b6b033b2e3c9fd0803ce8000000905600a165627a7a72305820c1684a842e89fab32a48acb2003de916be06da55ee254e90c5fc135232e2769f0029",
  "source": "pragma solidity 0.4.24;\n\ncontract GemLike {\n    function transfer(address, uint256) external returns (bool);\n    function transferFrom(address, address, uint256) external returns (bool);\n}\n\n/**\n * @title PotMock2\n * @dev This contract is used for e2e tests only\n */\ncontract PotMock2 {\n    // solhint-disable const-name-snakecase\n    uint256 public constant dsr = 10**27; // the Dai Savings Rate\n    uint256 public constant chi = 10**27; // the Rate Accumulator\n    uint256 public constant rho = 10**27; // time of last drip\n    // solhint-enable const-name-snakecase\n\n    function drip() external returns (uint256) {\n        return chi;\n    }\n}\n",
  "sourcePath": "/Users/max/Projects/Symblox/TokenBridge/tokenbridge/contracts/contracts/mocks/PotMock2.sol",
  "compiler": {
    "name": "solc",
    "version": "0.4.24+commit.e67f0147.Emscripten.clang"
  },
  "schemaVersion": "3.1.0",
  "updatedAt": "2020-11-26T16:22:39.704Z",
  "devdoc": {
    "methods": {},
    "title": "PotMock2"
  },
  "userdoc": {
    "methods": {}
  }
}