{
  "contractName": "PotMock",
  "abi": [
    {
      "constant": true,
      "inputs": [
        {
          "name": "",
          "type": "address"
        }
      ],
      "name": "pie",
      "outputs": [
        {
          "name": "",
          "type": "uint256"
        }
      ],
      "payable": false,
      "stateMutability": "view",
      "type": "function"
    },
    {
      "constant": true,
      "inputs": [],
      "name": "rho",
      "outputs": [
        {
          "name": "",
          "type": "uint256"
        }
      ],
      "payable": false,
      "stateMutability": "view",
      "type": "function"
    },
    {
      "constant": true,
      "inputs": [],
      "name": "Pie",
      "outputs": [
        {
          "name": "",
          "type": "uint256"
        }
      ],
      "payable": false,
      "stateMutability": "view",
      "type": "function"
    },
    {
      "constant": true,
      "inputs": [],
      "name": "vat",
      "outputs": [
        {
          "name": "",
          "type": "address"
        }
      ],
      "payable": false,
      "stateMutability": "view",
      "type": "function"
    },
    {
      "constant": true,
      "inputs": [],
      "name": "dsr",
      "outputs": [
        {
          "name": "",
          "type": "uint256"
        }
      ],
      "payable": false,
      "stateMutability": "view",
      "type": "function"
    },
    {
      "constant": true,
      "inputs": [],
      "name": "vow",
      "outputs": [
        {
          "name": "",
          "type": "address"
        }
      ],
      "payable": false,
      "stateMutability": "view",
      "type": "function"
    },
    {
      "constant": true,
      "inputs": [],
      "name": "live",
      "outputs": [
        {
          "name": "",
          "type": "uint256"
        }
      ],
      "payable": false,
      "stateMutability": "view",
      "type": "function"
    },
    {
      "constant": true,
      "inputs": [
        {
          "name": "",
          "type": "address"
        }
      ],
      "name": "wards",
      "outputs": [
        {
          "name": "",
          "type": "uint256"
        }
      ],
      "payable": false,
      "stateMutability": "view",
      "type": "function"
    },
    {
      "constant": true,
      "inputs": [],
      "name": "chi",
      "outputs": [
        {
          "name": "",
          "type": "uint256"
        }
      ],
      "payable": false,
      "stateMutability": "view",
      "type": "function"
    },
    {
      "inputs": [
        {
          "name": "vat_",
          "type": "address"
        }
      ],
      "payable": false,
      "stateMutability": "nonpayable",
      "type": "constructor"
    },
    {
      "constant": false,
      "inputs": [
        {
          "name": "guy",
          "type": "address"
        }
      ],
      "name": "rely",
      "outputs": [],
      "payable": false,
      "stateMutability": "nonpayable",
      "type": "function"
    },
    {
      "constant": false,
      "inputs": [
        {
          "name": "guy",
          "type": "address"
        }
      ],
      "name": "deny",
      "outputs": [],
      "payable": false,
      "stateMutability": "nonpayable",
      "type": "function"
    },
    {
      "constant": false,
      "inputs": [
        {
          "name": "what",
          "type": "bytes32"
        },
        {
          "name": "data",
          "type": "uint256"
        }
      ],
      "name": "file",
      "outputs": [],
      "payable": false,
      "stateMutability": "nonpayable",
      "type": "function"
    },
    {
      "constant": false,
      "inputs": [
        {
          "name": "what",
          "type": "bytes32"
        },
        {
          "name": "addr",
          "type": "address"
        }
      ],
      "name": "file",
      "outputs": [],
      "payable": false,
      "stateMutability": "nonpayable",
      "type": "function"
    },
    {
      "constant": false,
      "inputs": [],
      "name": "cage",
      "outputs": [],
      "payable": false,
      "stateMutability": "nonpayable",
      "type": "function"
    },
    {
      "constant": false,
      "inputs": [],
      "name": "drip",
      "outputs": [
        {
          "name": "tmp",
          "type": "uint256"
        }
      ],
      "payable": false,
      "stateMutability": "nonpayable",
      "type": "function"
    },
    {
      "constant": false,
      "inputs": [
        {
          "name": "wad",
          "type": "uint256"
        }
      ],
      "name": "join",
      "outputs": [],
      "payable": false,
      "stateMutability": "nonpayable",
      "type": "function"
    },
    {
      "constant": false,
      "inputs": [
        {
          "name": "wad",
          "type": "uint256"
        }
      ],
      "name": "exit",
      "outputs": [],
      "payable": false,
      "stateMutability": "nonpayable",
      "type": "function"
    }
  ],
  "bytecode": "0x608060405234801561001057600080fd5b50604051602080610b7f8339810160409081529051336000908152602081905291822060019081905560058054600160a060020a031916600160a060020a03909316929092179091556b033b2e3dd0d78f60556d65846003556b033b2e3c9fd0803ce800000060045542600755600855610aef90819061009090396000f3006080604052600436106100d75763ffffffff60e060020a600035041663049878f381146100dc5780630bebac86146100f657806320aba08b1461012957806329ae81141461013e5780632c69ed581461015957806336569e771461016e578063487bf0821461019f578063626cb3c5146101b457806365fae35e146101c957806369245009146101ea5780637f8661a1146101ff578063957aa58c146102175780639c52a7f11461022c5780639f678cca1461024d578063bf353dbb14610262578063c92aecc414610283578063d4e8be8314610298575b600080fd5b3480156100e857600080fd5b506100f46004356102bc565b005b34801561010257600080fd5b50610117600160a060020a03600435166103e3565b60408051918252519081900360200190f35b34801561013557600080fd5b506101176103f5565b34801561014a57600080fd5b506100f46004356024356103fb565b34801561016557600080fd5b50610117610592565b34801561017a57600080fd5b50610183610598565b60408051600160a060020a039092168252519081900360200190f35b3480156101ab57600080fd5b506101176105a7565b3480156101c057600080fd5b506101836105ad565b3480156101d557600080fd5b506100f4600160a060020a03600435166105bc565b3480156101f657600080fd5b506100f461062e565b34801561020b57600080fd5b506100f460043561069a565b34801561022357600080fd5b506101176106fa565b34801561023857600080fd5b506100f4600160a060020a0360043516610700565b34801561025957600080fd5b5061011761076f565b34801561026e57600080fd5b50610117600160a060020a03600435166108aa565b34801561028f57600080fd5b506101176108bc565b3480156102a457600080fd5b506100f4600435600160a060020a03602435166108c2565b6007544214610315576040805160e560020a62461bcd02815260206004820152601360248201527f506f742f72686f2d6e6f742d7570646174656400000000000000000000000000604482015290519081900360640190fd5b3360009081526001602052604090205461032f908261096c565b3360009081526001602052604090205560025461034c908261096c565b600255600554600454600160a060020a039091169063bb35783b90339030906103759086610982565b6040805160e060020a63ffffffff8716028152600160a060020a03948516600482015292909316602483015260448201529051606480830192600092919082900301818387803b1580156103c857600080fd5b505af11580156103dc573d6000803e3d6000fd5b5050505050565b60016020526000908152604090205481565b60075481565b33600090815260208190526040902054600114610450576040805160e560020a62461bcd0281526020600482015260126024820152600080516020610aa4833981519152604482015290519081900360640190fd5b6008546001146104aa576040805160e560020a62461bcd02815260206004820152600c60248201527f506f742f6e6f742d6c6976650000000000000000000000000000000000000000604482015290519081900360640190fd5b6104b261076f565b50600754421461050c576040805160e560020a62461bcd02815260206004820152601360248201527f506f742f72686f2d6e6f742d7570646174656400000000000000000000000000604482015290519081900360640190fd5b7f647372000000000000000000000000000000000000000000000000000000000082141561053e57600381905561058e565b6040805160e560020a62461bcd02815260206004820152601b60248201527f506f742f66696c652d756e7265636f676e697a65642d706172616d0000000000604482015290519081900360640190fd5b5050565b60025481565b600554600160a060020a031681565b60035481565b600654600160a060020a031681565b33600090815260208190526040902054600114610611576040805160e560020a62461bcd0281526020600482015260126024820152600080516020610aa4833981519152604482015290519081900360640190fd5b600160a060020a0316600090815260208190526040902060019055565b33600090815260208190526040902054600114610683576040805160e560020a62461bcd0281526020600482015260126024820152600080516020610aa4833981519152604482015290519081900360640190fd5b60006008556b033b2e3c9fd0803ce8000000600355565b336000908152600160205260409020546106b490826109aa565b336000908152600160205260409020556002546106d190826109aa565b600255600554600454600160a060020a039091169063bb35783b90309033906103759086610982565b60085481565b33600090815260208190526040902054600114610755576040805160e560020a62461bcd0281526020600482015260126024820152600080516020610aa4833981519152604482015290519081900360640190fd5b600160a060020a0316600090815260208190526040812055565b60008060075442101515156107ce576040805160e560020a62461bcd02815260206004820152600f60248201527f506f742f696e76616c69642d6e6f770000000000000000000000000000000000604482015290519081900360640190fd5b6107f66107ee60035460075442036b033b2e3c9fd0803ce80000006109ba565b600454610a79565b9150610804826004546109aa565b600483905542600755600554600654600254929350600160a060020a039182169263f24e23eb9290911690309061083b9086610982565b6040805160e060020a63ffffffff8716028152600160a060020a03948516600482015292909316602483015260448201529051606480830192600092919082900301818387803b15801561088e57600080fd5b505af11580156108a2573d6000803e3d6000fd5b505050505090565b60006020819052908152604090205481565b60045481565b33600090815260208190526040902054600114610917576040805160e560020a62461bcd0281526020600482015260126024820152600080516020610aa4833981519152604482015290519081900360640190fd5b7f766f77000000000000000000000000000000000000000000000000000000000082141561053e576006805473ffffffffffffffffffffffffffffffffffffffff1916600160a060020a03831617905561058e565b8082018281101561097c57600080fd5b92915050565b600081158061099f57505080820282828281151561099c57fe5b04145b151561097c57600080fd5b8082038281111561097c57600080fd5b6000838015610a5b576001841680156109d5578592506109d9565b8392505b50600283046002850494505b8415610a555785800286810487146109fc57600080fd5b81810181811015610a0c57600080fd5b85810497506002870615610a48578785028589820414158915151615610a3157600080fd5b83810181811015610a4157600080fd5b8790049550505b50506002850494506109e5565b50610a71565b838015610a6b5760009250610a6f565b8392505b505b509392505050565b60006b033b2e3c9fd0803ce8000000610a928484610982565b811515610a9b57fe5b0493925050505600506f742f6e6f742d617574686f72697a65640000000000000000000000000000a165627a7a72305820a3732d31c7b7e666e33f45ecd74ccbb71959525f71d0e37283efd96898de38000029",
  "source": "/// pot.sol -- Dai Savings Rate\n\n// Copyright (C) 2018 Rain <rainbreak@riseup.net>\n//\n// This program is free software: you can redistribute it and/or modify\n// it under the terms of the GNU Affero General Public License as published by\n// the Free Software Foundation, either version 3 of the License, or\n// (at your option) any later version.\n//\n// This program is distributed in the hope that it will be useful,\n// but WITHOUT ANY WARRANTY; without even the implied warranty of\n// MERCHANTABILITY or FITNESS FOR A PARTICULAR PURPOSE.  See the\n// GNU Affero General Public License for more details.\n//\n// You should have received a copy of the GNU Affero General Public License\n// along with this program.  If not, see <https://www.gnu.org/licenses/>.\n\n/* solhint-disable */\npragma solidity 0.4.24;\n\n/*\n   \"Savings Dai\" is obtained when Dai is deposited into\n   this contract. Each \"Savings Dai\" accrues Dai interest\n   at the \"Dai Savings Rate\".\n   This contract does not implement a user tradeable token\n   and is intended to be used with adapters.\n         --- `save` your `dai` in the `pot` ---\n   - `dsr`: the Dai Savings Rate\n   - `pie`: user balance of Savings Dai\n   - `join`: start saving some dai\n   - `exit`: remove some dai\n   - `drip`: perform rate collection\n*/\n\ncontract VatLike {\n    function move(address, address, uint256) external;\n    function suck(address, address, uint256) external;\n}\n\ncontract PotMock {\n    // --- Auth ---\n    mapping(address => uint256) public wards;\n    function rely(address guy) external auth {\n        wards[guy] = 1;\n    }\n    function deny(address guy) external auth {\n        wards[guy] = 0;\n    }\n    modifier auth {\n        require(wards[msg.sender] == 1, \"Pot/not-authorized\");\n        _;\n    }\n\n    // --- Data ---\n    mapping(address => uint256) public pie; // user Savings Dai\n\n    uint256 public Pie; // total Savings Dai\n    uint256 public dsr; // the Dai Savings Rate\n    uint256 public chi; // the Rate Accumulator\n\n    VatLike public vat; // CDP engine\n    address public vow; // debt engine\n    uint256 public rho; // time of last drip\n\n    uint256 public live; // Access Flag\n\n    // --- Init ---\n    constructor(address vat_) public {\n        wards[msg.sender] = 1;\n        vat = VatLike(vat_);\n        dsr = 1000000021979553151239153028; // 100% anually\n        chi = ONE;\n        rho = now;\n        live = 1;\n    }\n\n    // --- Math ---\n    uint256 constant ONE = 10**27;\n    function rpow(uint256 x, uint256 n, uint256 base) internal pure returns (uint256 z) {\n        assembly {\n            switch x\n                case 0 {\n                    switch n\n                        case 0 {\n                            z := base\n                        }\n                        default {\n                            z := 0\n                        }\n                }\n                default {\n                    switch mod(n, 2)\n                        case 0 {\n                            z := base\n                        }\n                        default {\n                            z := x\n                        }\n                    let half := div(base, 2) // for rounding.\n                    for {\n                        n := div(n, 2)\n                    } n {\n                        n := div(n, 2)\n                    } {\n                        let xx := mul(x, x)\n                        if iszero(eq(div(xx, x), x)) {\n                            revert(0, 0)\n                        }\n                        let xxRound := add(xx, half)\n                        if lt(xxRound, xx) {\n                            revert(0, 0)\n                        }\n                        x := div(xxRound, base)\n                        if mod(n, 2) {\n                            let zx := mul(z, x)\n                            if and(iszero(iszero(x)), iszero(eq(div(zx, x), z))) {\n                                revert(0, 0)\n                            }\n                            let zxRound := add(zx, half)\n                            if lt(zxRound, zx) {\n                                revert(0, 0)\n                            }\n                            z := div(zxRound, base)\n                        }\n                    }\n                }\n        }\n    }\n\n    function rmul(uint256 x, uint256 y) internal pure returns (uint256 z) {\n        z = mul(x, y) / ONE;\n    }\n\n    function add(uint256 x, uint256 y) internal pure returns (uint256 z) {\n        require((z = x + y) >= x);\n    }\n\n    function sub(uint256 x, uint256 y) internal pure returns (uint256 z) {\n        require((z = x - y) <= x);\n    }\n\n    function mul(uint256 x, uint256 y) internal pure returns (uint256 z) {\n        require(y == 0 || (z = x * y) / y == x);\n    }\n\n    // --- Administration ---\n    function file(bytes32 what, uint256 data) external auth {\n        require(live == 1, \"Pot/not-live\");\n        drip();\n        require(now == rho, \"Pot/rho-not-updated\");\n        if (what == \"dsr\") dsr = data;\n        else revert(\"Pot/file-unrecognized-param\");\n    }\n\n    function file(bytes32 what, address addr) external auth {\n        if (what == \"vow\") vow = addr;\n        else revert(\"Pot/file-unrecognized-param\");\n    }\n\n    function cage() external auth {\n        live = 0;\n        dsr = ONE;\n    }\n\n    // --- Savings Rate Accumulation ---\n    function drip() public returns (uint256 tmp) {\n        require(now >= rho, \"Pot/invalid-now\");\n        tmp = rmul(rpow(dsr, now - rho, ONE), chi);\n        uint256 chi_ = sub(tmp, chi);\n        chi = tmp;\n        rho = now;\n        vat.suck(address(vow), address(this), mul(Pie, chi_));\n    }\n\n    // --- Savings Dai Management ---\n    function join(uint256 wad) external {\n        require(now == rho, \"Pot/rho-not-updated\");\n        pie[msg.sender] = add(pie[msg.sender], wad);\n        Pie = add(Pie, wad);\n        vat.move(msg.sender, address(this), mul(chi, wad));\n    }\n\n    function exit(uint256 wad) external {\n        pie[msg.sender] = sub(pie[msg.sender], wad);\n        Pie = sub(Pie, wad);\n        vat.move(address(this), msg.sender, mul(chi, wad));\n    }\n}\n",
  "sourcePath": "/Users/max/Projects/Symblox/TokenBridge/tokenbridge/contracts/contracts/mocks/PotMock.sol",
  "compiler": {
    "name": "solc",
    "version": "0.4.24+commit.e67f0147.Emscripten.clang"
  },
  "schemaVersion": "3.1.0",
  "updatedAt": "2020-11-26T16:22:39.700Z",
  "devdoc": {
    "methods": {}
  },
  "userdoc": {
    "methods": {}
  }
}