{
  "contractName": "RewardableHomeBridgeErcToErc",
  "abi": [
    {
      "constant": false,
      "inputs": [
        {
          "name": "_feeManager",
          "type": "address"
        }
      ],
      "name": "setFeeManagerContract",
      "outputs": [],
      "payable": false,
      "stateMutability": "nonpayable",
      "type": "function"
    },
    {
      "constant": true,
      "inputs": [],
      "name": "owner",
      "outputs": [
        {
          "name": "",
          "type": "address"
        }
      ],
      "payable": false,
      "stateMutability": "view",
      "type": "function"
    },
    {
      "constant": true,
      "inputs": [],
      "name": "feeManagerContract",
      "outputs": [
        {
          "name": "",
          "type": "address"
        }
      ],
      "payable": false,
      "stateMutability": "view",
      "type": "function"
    },
    {
      "constant": true,
      "inputs": [],
      "name": "getFeeManagerMode",
      "outputs": [
        {
          "name": "mode",
          "type": "bytes4"
        }
      ],
      "payable": false,
      "stateMutability": "view",
      "type": "function"
    },
    {
      "constant": false,
      "inputs": [
        {
          "name": "newOwner",
          "type": "address"
        }
      ],
      "name": "transferOwnership",
      "outputs": [],
      "payable": false,
      "stateMutability": "nonpayable",
      "type": "function"
    },
    {
      "anonymous": false,
      "inputs": [
        {
          "indexed": false,
          "name": "feeAmount",
          "type": "uint256"
        },
        {
          "indexed": true,
          "name": "transactionHash",
          "type": "bytes32"
        }
      ],
      "name": "FeeDistributedFromAffirmation",
      "type": "event"
    },
    {
      "anonymous": false,
      "inputs": [
        {
          "indexed": false,
          "name": "feeAmount",
          "type": "uint256"
        },
        {
          "indexed": true,
          "name": "transactionHash",
          "type": "bytes32"
        }
      ],
      "name": "FeeDistributedFromSignatures",
      "type": "event"
    },
    {
      "anonymous": false,
      "inputs": [
        {
          "indexed": false,
          "name": "previousOwner",
          "type": "address"
        },
        {
          "indexed": false,
          "name": "newOwner",
          "type": "address"
        }
      ],
      "name": "OwnershipTransferred",
      "type": "event"
    },
    {
      "constant": false,
      "inputs": [
        {
          "name": "_fee",
          "type": "uint256"
        }
      ],
      "name": "setHomeFee",
      "outputs": [],
      "payable": false,
      "stateMutability": "nonpayable",
      "type": "function"
    },
    {
      "constant": false,
      "inputs": [
        {
          "name": "_fee",
          "type": "uint256"
        }
      ],
      "name": "setForeignFee",
      "outputs": [],
      "payable": false,
      "stateMutability": "nonpayable",
      "type": "function"
    },
    {
      "constant": true,
      "inputs": [],
      "name": "getHomeFee",
      "outputs": [
        {
          "name": "",
          "type": "uint256"
        }
      ],
      "payable": false,
      "stateMutability": "view",
      "type": "function"
    },
    {
      "constant": true,
      "inputs": [],
      "name": "getForeignFee",
      "outputs": [
        {
          "name": "",
          "type": "uint256"
        }
      ],
      "payable": false,
      "stateMutability": "view",
      "type": "function"
    }
  ],
  "bytecode": "0x608060405234801561001057600080fd5b50610892806100206000396000f3006080604052600436106100985763ffffffff7c0100000000000000000000000000000000000000000000000000000000600035041663286c4066811461009d57806334a9e148146100b757806360756f7c146100cf5780638da5cb5b146100f057806394da17cd14610121578063dbe03a8b14610148578063f2ba95611461015d578063f2fde38b146101a4578063ffd66196146101c5575b600080fd5b3480156100a957600080fd5b506100b56004356101da565b005b3480156100c357600080fd5b506100b5600435610219565b3480156100db57600080fd5b506100b5600160a060020a0360043516610255565b3480156100fc57600080fd5b5061010561030d565b60408051600160a060020a039092168252519081900360200190f35b34801561012d57600080fd5b50610136610364565b60408051918252519081900360200190f35b34801561015457600080fd5b50610105610382565b34801561016957600080fd5b506101726103d9565b604080517bffffffffffffffffffffffffffffffffffffffffffffffffffffffff199092168252519081900360200190f35b3480156101b057600080fd5b506100b5600160a060020a0360043516610464565b3480156101d157600080fd5b50610136610489565b6101e261030d565b600160a060020a031633146101f657600080fd5b610216610201610382565b826000805160206108278339815191526104a2565b50565b61022161030d565b600160a060020a0316331461023557600080fd5b610216610240610382565b826000805160206108478339815191526104a2565b61025d61030d565b600160a060020a0316331461027157600080fd5b600160a060020a038116158061028b575061028b81610623565b151561029657600080fd5b7f779a349c5bee7817f04c960f525ee3e2f2516078c38c68a3149787976ee837e560005260026020527fc155b21a14c4592b97825e495fbe0d2705fb46420018cac5bfa7a09c43fae517805473ffffffffffffffffffffffffffffffffffffffff1916600160a060020a0392909216919091179055565b7f02016836a56b71f0d02689e69e326f4f4c1b9057164ef592671cf0d37c8040c060005260026020527fb7802e97e87ef2842a6cce7da7ffaeaedaa2f61a6a7870b23d9d01fc9b73712e54600160a060020a031690565b600061037d60008051602061084783398151915261062b565b905090565b7f779a349c5bee7817f04c960f525ee3e2f2516078c38c68a3149787976ee837e560005260026020527fc155b21a14c4592b97825e495fbe0d2705fb46420018cac5bfa7a09c43fae51754600160a060020a031690565b6040805160048152602481019091526020810180517bffffffffffffffffffffffffffffffffffffffffffffffffffffffff167ff2ba9561000000000000000000000000000000000000000000000000000000001790526000908161043c610382565b9050600460008351602085016000855af28060203d14161561045e5760005193505b50505090565b61046c61030d565b600160a060020a0316331461048057600080fd5b6102168161074f565b600061037d60008051602061082783398151915261062b565b6000816000805160206108478339815191528114806104ce575060008051602061082783398151915281145b15156104d957600080fd5b6000805160206108478339815191528314610514577f286c406600000000000000000000000000000000000000000000000000000000610536565b7f34a9e148000000000000000000000000000000000000000000000000000000005b60408051602480820188905282518083039091018152604490910182526020810180517bffffffffffffffffffffffffffffffffffffffffffffffffffffffff167bffffffffffffffffffffffffffffffffffffffffffffffffffffffff19851617815291518151939550600160a060020a038916939192909182919080838360005b838110156105d15781810151838201526020016105b9565b50505050905090810190601f1680156105fe5780820380516001836020036101000a031916815260200191505b50915050600060405180830381855af4915050151561061c57600080fd5b5050505050565b6000903b1190565b6000808060608460008051602061084783398151915281148061065b575060008051602061082783398151915281145b151561066657600080fd5b61066e610382565b935060008051602061084783398151915286146106ab577fffd66196000000000000000000000000000000000000000000000000000000006106cd565b7f94da17cd000000000000000000000000000000000000000000000000000000005b604080516004815260248101909152602080820180517bffffffffffffffffffffffffffffffffffffffffffffffffffffffff167bffffffffffffffffffffffffffffffffffffffffffffffffffffffff19851617815282519396509194509160009182885af28060203d1416156107455760005195505b5050505050919050565b600160a060020a038116151561076457600080fd5b7f8be0079c531659141344cd1fd0a4f28419497f9722a3daafe3b4186f6b6457e061078d61030d565b60408051600160a060020a03928316815291841660208301528051918290030190a17f02016836a56b71f0d02689e69e326f4f4c1b9057164ef592671cf0d37c8040c060005260026020527fb7802e97e87ef2842a6cce7da7ffaeaedaa2f61a6a7870b23d9d01fc9b73712e805473ffffffffffffffffffffffffffffffffffffffff1916600160a060020a03929092169190911790555600deb7f3adca07d6d1f708c1774389db532a2b2f18fd05a62b957e4089f4696ed589d93e5e92f7e37e490c25f0e50f7f4aad7cc94b308a566553280967be38bcf1a165627a7a723058200243401dc8bb308f443f493c3241380e4ee8784d40595acac75b2e308ca21b6a0029",
  "source": "pragma solidity 0.4.24;\n\nimport \"../RewardableBridge.sol\";\n\ncontract RewardableHomeBridgeErcToErc is RewardableBridge {\n    /**\n     * @dev Updates the fee percentage for home->foreign bridge operations.\n     * Only owner is allowed to call this method.\n     * If during this operation, home fee is changed, it is highly recommended to stop the bridge operations first.\n     * Otherwise, pending signature requests can become a reason for imbalance between two bridge sides.\n     * @param _fee new value for fee percentage.\n     */\n    function setHomeFee(uint256 _fee) external onlyOwner {\n        _setFee(feeManagerContract(), _fee, HOME_FEE);\n    }\n\n    /**\n     * @dev Updates the fee percentage for foreign->home bridge operations.\n     * Only owner is allowed to call this method.\n     * @param _fee new value for fee percentage.\n     */\n    function setForeignFee(uint256 _fee) external onlyOwner {\n        _setFee(feeManagerContract(), _fee, FOREIGN_FEE);\n    }\n\n    function getHomeFee() public view returns (uint256) {\n        return _getFee(HOME_FEE);\n    }\n\n    function getForeignFee() public view returns (uint256) {\n        return _getFee(FOREIGN_FEE);\n    }\n}\n",
  "sourcePath": "/Users/max/Projects/Symblox/TokenBridge/tokenbridge/contracts/contracts/upgradeable_contracts/erc20_to_erc20/RewardableHomeBridgeErcToErc.sol",
  "compiler": {
    "name": "solc",
    "version": "0.4.24+commit.e67f0147.Emscripten.clang"
  },
  "schemaVersion": "3.1.0",
  "updatedAt": "2020-11-26T16:22:39.960Z",
  "devdoc": {
    "methods": {
      "feeManagerContract()": {
        "details": "Retrieves the address of the fee manager contract used.",
        "return": "address of the fee manager contract."
      },
      "getFeeManagerMode()": {
        "details": "Retrieves the mode of the used fee manager.",
        "return": "manager mode identifier, or zero bytes otherwise."
      },
      "owner()": {
        "details": "Tells the address of the owner",
        "return": "the address of the owner"
      },
      "setFeeManagerContract(address)": {
        "details": "Updates the address of the used fee manager contract. Only contract owner can call this method. If during this operation, home fee is changed, it is highly recommended to stop the bridge operations first. Otherwise, pending signature requests can become a reason for imbalance between two bridge sides.",
        "params": {
          "_feeManager": "address of the new fee manager contract, or zero address to disable fee collection."
        }
      },
      "setForeignFee(uint256)": {
        "details": "Updates the fee percentage for foreign->home bridge operations. Only owner is allowed to call this method.",
        "params": {
          "_fee": "new value for fee percentage."
        }
      },
      "setHomeFee(uint256)": {
        "details": "Updates the fee percentage for home->foreign bridge operations. Only owner is allowed to call this method. If during this operation, home fee is changed, it is highly recommended to stop the bridge operations first. Otherwise, pending signature requests can become a reason for imbalance between two bridge sides.",
        "params": {
          "_fee": "new value for fee percentage."
        }
      },
      "transferOwnership(address)": {
        "details": "Allows the current owner to transfer control of the contract to a newOwner.",
        "params": {
          "newOwner": "the address to transfer ownership to."
        }
      }
    }
  },
  "userdoc": {
    "methods": {}
  }
}