{
  "contractName": "RewardableValidators",
  "abi": [
    {
      "constant": true,
      "inputs": [],
      "name": "validatorCount",
      "outputs": [
        {
          "name": "",
          "type": "uint256"
        }
      ],
      "payable": false,
      "stateMutability": "view",
      "type": "function"
    },
    {
      "constant": true,
      "inputs": [],
      "name": "getBridgeValidatorsInterfacesVersion",
      "outputs": [
        {
          "name": "major",
          "type": "uint64"
        },
        {
          "name": "minor",
          "type": "uint64"
        },
        {
          "name": "patch",
          "type": "uint64"
        }
      ],
      "payable": false,
      "stateMutability": "pure",
      "type": "function"
    },
    {
      "constant": true,
      "inputs": [],
      "name": "isInitialized",
      "outputs": [
        {
          "name": "",
          "type": "bool"
        }
      ],
      "payable": false,
      "stateMutability": "view",
      "type": "function"
    },
    {
      "constant": true,
      "inputs": [],
      "name": "validatorList",
      "outputs": [
        {
          "name": "",
          "type": "address[]"
        }
      ],
      "payable": false,
      "stateMutability": "view",
      "type": "function"
    },
    {
      "constant": false,
      "inputs": [
        {
          "name": "_requiredSignatures",
          "type": "uint256"
        }
      ],
      "name": "setRequiredSignatures",
      "outputs": [],
      "payable": false,
      "stateMutability": "nonpayable",
      "type": "function"
    },
    {
      "constant": true,
      "inputs": [],
      "name": "requiredSignatures",
      "outputs": [
        {
          "name": "",
          "type": "uint256"
        }
      ],
      "payable": false,
      "stateMutability": "view",
      "type": "function"
    },
    {
      "constant": true,
      "inputs": [
        {
          "name": "_address",
          "type": "address"
        }
      ],
      "name": "getNextValidator",
      "outputs": [
        {
          "name": "",
          "type": "address"
        }
      ],
      "payable": false,
      "stateMutability": "view",
      "type": "function"
    },
    {
      "constant": true,
      "inputs": [],
      "name": "owner",
      "outputs": [
        {
          "name": "",
          "type": "address"
        }
      ],
      "payable": false,
      "stateMutability": "view",
      "type": "function"
    },
    {
      "constant": true,
      "inputs": [
        {
          "name": "_validator",
          "type": "address"
        }
      ],
      "name": "isValidatorDuty",
      "outputs": [
        {
          "name": "",
          "type": "bool"
        }
      ],
      "payable": false,
      "stateMutability": "view",
      "type": "function"
    },
    {
      "constant": true,
      "inputs": [],
      "name": "deployedAtBlock",
      "outputs": [
        {
          "name": "",
          "type": "uint256"
        }
      ],
      "payable": false,
      "stateMutability": "view",
      "type": "function"
    },
    {
      "constant": true,
      "inputs": [],
      "name": "F_ADDR",
      "outputs": [
        {
          "name": "",
          "type": "address"
        }
      ],
      "payable": false,
      "stateMutability": "view",
      "type": "function"
    },
    {
      "constant": false,
      "inputs": [
        {
          "name": "newOwner",
          "type": "address"
        }
      ],
      "name": "transferOwnership",
      "outputs": [],
      "payable": false,
      "stateMutability": "nonpayable",
      "type": "function"
    },
    {
      "constant": true,
      "inputs": [
        {
          "name": "_validator",
          "type": "address"
        }
      ],
      "name": "isValidator",
      "outputs": [
        {
          "name": "",
          "type": "bool"
        }
      ],
      "payable": false,
      "stateMutability": "view",
      "type": "function"
    },
    {
      "anonymous": false,
      "inputs": [
        {
          "indexed": true,
          "name": "validator",
          "type": "address"
        }
      ],
      "name": "ValidatorAdded",
      "type": "event"
    },
    {
      "anonymous": false,
      "inputs": [
        {
          "indexed": true,
          "name": "validator",
          "type": "address"
        }
      ],
      "name": "ValidatorRemoved",
      "type": "event"
    },
    {
      "anonymous": false,
      "inputs": [
        {
          "indexed": false,
          "name": "requiredSignatures",
          "type": "uint256"
        }
      ],
      "name": "RequiredSignaturesChanged",
      "type": "event"
    },
    {
      "anonymous": false,
      "inputs": [
        {
          "indexed": false,
          "name": "previousOwner",
          "type": "address"
        },
        {
          "indexed": false,
          "name": "newOwner",
          "type": "address"
        }
      ],
      "name": "OwnershipTransferred",
      "type": "event"
    },
    {
      "constant": false,
      "inputs": [
        {
          "name": "_requiredSignatures",
          "type": "uint256"
        },
        {
          "name": "_initialValidators",
          "type": "address[]"
        },
        {
          "name": "_initialRewards",
          "type": "address[]"
        },
        {
          "name": "_owner",
          "type": "address"
        }
      ],
      "name": "initialize",
      "outputs": [
        {
          "name": "",
          "type": "bool"
        }
      ],
      "payable": false,
      "stateMutability": "nonpayable",
      "type": "function"
    },
    {
      "constant": false,
      "inputs": [
        {
          "name": "_validator",
          "type": "address"
        },
        {
          "name": "_reward",
          "type": "address"
        }
      ],
      "name": "addRewardableValidator",
      "outputs": [],
      "payable": false,
      "stateMutability": "nonpayable",
      "type": "function"
    },
    {
      "constant": false,
      "inputs": [
        {
          "name": "_validator",
          "type": "address"
        }
      ],
      "name": "removeValidator",
      "outputs": [],
      "payable": false,
      "stateMutability": "nonpayable",
      "type": "function"
    },
    {
      "constant": true,
      "inputs": [
        {
          "name": "_validator",
          "type": "address"
        }
      ],
      "name": "getValidatorRewardAddress",
      "outputs": [
        {
          "name": "",
          "type": "address"
        }
      ],
      "payable": false,
      "stateMutability": "view",
      "type": "function"
    }
  ],
  "bytecode": "0x608060405234801561001057600080fd5b5061158f806100206000396000f3006080604052600436106100f05763ffffffff7c01000000000000000000000000000000000000000000000000000000006000350416630f43a67781146100f55780632bda4eee1461011c578063392e53cd1461015d57806340a141ff146101865780635890ef79146101a95780637739ab291461020e5780637d2b9cc01461023557806381b911741461024d5780638d0680431461028a5780638d37052c1461029f5780638da5cb5b146102c05780638e4ec60a146102d55780639a454b99146102f6578063c4c4c7b31461030b578063c794c76914610347578063f2fde38b1461035c578063facd743b1461037d575b600080fd5b34801561010157600080fd5b5061010a61039e565b60408051918252519081900360200190f35b34801561012857600080fd5b506101316103ec565b6040805167ffffffffffffffff9485168152928416602084015292168183015290519081900360600190f35b34801561016957600080fd5b506101726103f7565b604080519115158252519081900360200190f35b34801561019257600080fd5b506101a7600160a060020a0360043516610448565b005b3480156101b557600080fd5b506101be6104e3565b60408051602080825283518183015283519192839290830191858101910280838360005b838110156101fa5781810151838201526020016101e2565b505050509050019250505060405180910390f35b34801561021a57600080fd5b506101a7600160a060020a03600435811690602435166105b1565b34801561024157600080fd5b506101a760043561062d565b34801561025957600080fd5b5061026e600160a060020a03600435166106ef565b60408051600160a060020a039092168252519081900360200190f35b34801561029657600080fd5b5061010a6107d7565b3480156102ab57600080fd5b5061026e600160a060020a0360043516610825565b3480156102cc57600080fd5b5061026e6108c2565b3480156102e157600080fd5b50610172600160a060020a0360043516610919565b34801561030257600080fd5b5061010a6109c1565b34801561031757600080fd5b50610172600480359060248035808201929081013591604435908101910135600160a060020a0360643516610a0f565b34801561035357600080fd5b5061026e610ec9565b34801561036857600080fd5b506101a7600160a060020a0360043516610ed4565b34801561038957600080fd5b50610172600160a060020a0360043516610efc565b7f8656d603d9f985c3483946a92789d52202f49736384ba131cb92f62c4c1aa08260009081526020527f95d17efd9f452ee83a125e41a6180e225f2e2ff7d47d2c1f6cd9b2e14a207ba15490565b600260036000909192565b7f0a6f646cd611241d8073675e00d1a1ff700fbf1b53fcf473de56d1e6e4b714ba60005260046020527f078d888f9b66f3f8bfa10909e31f1e16240db73449f0500afdbbe3a70da457cc5460ff1690565b6104506108c2565b600160a060020a0316331461046457600080fd5b61046d81610f2f565b6104ac6040805190810160405280601181526020017f76616c696461746f72735265776172647300000000000000000000000000000081525082611059565b604051600160a060020a038216907fe1434e25d6611e0db941968fdc97811c982ac1602e951637d206f5fdda9dd8f190600090a250565b6060806000806104f161039e565b60405190808252806020026020018201604052801561051a578160200160208202803883390190505b50925060009150610531600160a060020a03610825565b9050600160a060020a038116151561054857600080fd5b600160a060020a03818116146105a95780838381518110151561056757fe5b600160a060020a0390921660209283029091019091015261058781610825565b6001909201919050600160a060020a03811615156105a457600080fd5b610548565b509092915050565b6105b96108c2565b600160a060020a031633146105cd57600080fd5b600160a060020a03811615156105e257600080fd5b6105eb82611175565b6105f58282611218565b604051600160a060020a038316907fe366c1c0452ed8eec96861e9e54141ebff23c9ec89fe27b996b45f5ec388498790600090a25050565b6106356108c2565b600160a060020a0316331461064957600080fd5b8061065261039e565b101561065d57600080fd5b80151561066957600080fd5b7fd18ea17c351d6834a0e568067fb71804d2a588d5e26d60f792b1c724b1bd53b1600090815260209081527f8a247e09a5673bd4d93a4e76d8fb9553523aa0d77f51f3d576e7421f5295b9bc8290556040805183815290517f10dbc913050d3180c3b99f7da91fd514af7cbc9c1bb59a0da5d2bc38f0cf395a929181900390910190a150565b6000600260008360405160200180807f76616c696461746f72735265776172647300000000000000000000000000000081525060110182600160a060020a0316600160a060020a03166c010000000000000000000000000281526014019150506040516020818303038152906040526040518082805190602001908083835b6020831061078d5780518252601f19909201916020918201910161076e565b51815160209384036101000a6000190180199092169116179052604080519290940182900390912086528501959095529290920160002054600160a060020a031695945050505050565b7fd18ea17c351d6834a0e568067fb71804d2a588d5e26d60f792b1c724b1bd53b160009081526020527f8a247e09a5673bd4d93a4e76d8fb9553523aa0d77f51f3d576e7421f5295b9bc5490565b6000600260008360405160200180807f76616c696461746f72734c697374000000000000000000000000000000000000815250600e0182600160a060020a0316600160a060020a03166c010000000000000000000000000281526014019150506040516020818303038152906040526040518082805190602001908083836020831061078d5780518252601f19909201916020918201910161076e565b7f02016836a56b71f0d02689e69e326f4f4c1b9057164ef592671cf0d37c8040c060005260026020527fb7802e97e87ef2842a6cce7da7ffaeaedaa2f61a6a7870b23d9d01fc9b73712e54600160a060020a031690565b6000808061092d600160a060020a03610825565b9050600160a060020a038116151561094457600080fd5b600160a060020a03818116146109b55783600160a060020a031681600160a060020a0316141561098a578161097761039e565b4381151561098157fe5b061492506109ba565b61099381610825565b6001909201919050600160a060020a03811615156109b057600080fd5b610944565b600092505b5050919050565b7fb120ceec05576ad0c710bc6e85f1768535e27554458f05dcbb5c65b8c7a749b060009081526020527fe66bef0282a446f9848e2903380099bb6e431483ee78778868f33b4a154c818b5490565b60408051600481526024810182526020810180517bffffffffffffffffffffffffffffffffffffffffffffffffffffffff167f6fde8202000000000000000000000000000000000000000000000000000000001781529151815160009384933093909290918291808383895b83811015610a93578181015183820152602001610a7b565b50505050905090810190601f168015610ac05780820380516001836020036101000a031916815260200191505b509150506000604051808303816000865af19150501580610b6b575030600160a060020a0316636fde82026040518163ffffffff167c0100000000000000000000000000000000000000000000000000000000028152600401602060405180830381600087803b158015610b3357600080fd5b505af1158015610b47573d6000803e3d6000fd5b505050506040513d6020811015610b5d57600080fd5b5051600160a060020a031633145b80610b7557503330145b1515610b8057600080fd5b610b886103f7565b15610b9257600080fd5b610b9b8361131f565b871515610ba757600080fd5b87861015610bb457600080fd5b858414610bc057600080fd5b5060005b85811015610e00576000878783818110610bda57fe5b90506020020135600160a060020a0316600160a060020a031614158015610c2c5750600160a060020a03878783818110610c1057fe5b90506020020135600160a060020a0316600160a060020a031614155b1515610c3757600080fd5b6000858583818110610c4557fe5b90506020020135600160a060020a0316600160a060020a031614151515610c6b57600080fd5b610c8f878783818110610c7a57fe5b90506020020135600160a060020a0316610efc565b15610c9957600080fd5b801515610d0657610ccc600160a060020a03888884818110610cb757fe5b90506020020135600160a060020a03166113f6565b6001861415610d0157610d01878783818110610ce457fe5b90506020020135600160a060020a0316600160a060020a036113f6565b610d65565b6000198601811415610d5257610d4387876000198401818110610d2557fe5b90506020020135600160a060020a03168888848181101515610cb757fe5b610d01878783818110610ce457fe5b610d6587876000198401818110610d2557fe5b610da7878783818110610d7457fe5b90506020020135600160a060020a03168686848181101515610d9257fe5b90506020020135600160a060020a0316611218565b868682818110610db357fe5b90506020020135600160a060020a0316600160a060020a03167fe366c1c0452ed8eec96861e9e54141ebff23c9ec89fe27b996b45f5ec388498760405160405180910390a2600101610bc4565b610e0986611492565b600060208190527f8a247e09a5673bd4d93a4e76d8fb9553523aa0d77f51f3d576e7421f5295b9bc8990557fb120ceec05576ad0c710bc6e85f1768535e27554458f05dcbb5c65b8c7a749b09052437fe66bef0282a446f9848e2903380099bb6e431483ee78778868f33b4a154c818b55610e826114ed565b6040805189815290517f10dbc913050d3180c3b99f7da91fd514af7cbc9c1bb59a0da5d2bc38f0cf395a9181900360200190a1610ebd6103f7565b98975050505050505050565b600160a060020a0381565b610edc6108c2565b600160a060020a03163314610ef057600080fd5b610ef98161131f565b50565b6000600160a060020a0382811614801590610f2957506000610f1d83610825565b600160a060020a031614155b92915050565b6000806000610f3c6107d7565b610f4461039e565b11610f4e57600080fd5b610f5784610efc565b1515610f6257600080fd5b610f6b84610825565b9250600160a060020a039150610f8082610825565b9050600160a060020a0381161515610f9757600080fd5b600160a060020a0381811690851614610fe957809150610fb682610825565b9050600160a060020a0380821614801590610fd95750600160a060020a03811615155b1515610fe457600080fd5b610f97565b610ff382846113f6565b6110326040805190810160405280600e81526020017f76616c696461746f72734c69737400000000000000000000000000000000000081525085611059565b61105361104e600161104261039e565b9063ffffffff61154416565b611492565b50505050565b6002600083836040516020018083805190602001908083835b602083106110915780518252601f199092019160209182019101611072565b6001836020036101000a03801982511681845116808217855250505050505090500182600160a060020a0316600160a060020a03166c01000000000000000000000000028152601401925050506040516020818303038152906040526040518082805190602001908083835b6020831061111c5780518252601f1990920191602091820191016110fd565b51815160209384036101000a60001901801990921691161790526040805192909401829003909120865285019590955292909201600020805473ffffffffffffffffffffffffffffffffffffffff191690555050505050565b6000600160a060020a038216158015906111985750600160a060020a0382811614155b15156111a357600080fd5b6111ac82610efc565b156111b657600080fd5b6111c6600160a060020a03610825565b9050600160a060020a03811615156111dd57600080fd5b6111e782826113f6565b6111f8600160a060020a03836113f6565b61121461104e600161120861039e565b9063ffffffff61155616565b5050565b80600260008460405160200180807f76616c696461746f72735265776172647300000000000000000000000000000081525060110182600160a060020a0316600160a060020a03166c010000000000000000000000000281526014019150506040516020818303038152906040526040518082805190602001908083835b602083106112b55780518252601f199092019160209182019101611296565b51815160209384036101000a60001901801990921691161790526040805192909401829003909120865285019590955292909201600020805473ffffffffffffffffffffffffffffffffffffffff1916600160a060020a0395909516949094179093555050505050565b600160a060020a038116151561133457600080fd5b7f8be0079c531659141344cd1fd0a4f28419497f9722a3daafe3b4186f6b6457e061135d6108c2565b60408051600160a060020a03928316815291841660208301528051918290030190a17f02016836a56b71f0d02689e69e326f4f4c1b9057164ef592671cf0d37c8040c060005260026020527fb7802e97e87ef2842a6cce7da7ffaeaedaa2f61a6a7870b23d9d01fc9b73712e805473ffffffffffffffffffffffffffffffffffffffff1916600160a060020a0392909216919091179055565b80600260008460405160200180807f76616c696461746f72734c697374000000000000000000000000000000000000815250600e0182600160a060020a0316600160a060020a03166c01000000000000000000000000028152601401915050604051602081830303815290604052604051808280519060200190808383602083106112b55780518252601f199092019160209182019101611296565b60328111156114a057600080fd5b7f8656d603d9f985c3483946a92789d52202f49736384ba131cb92f62c4c1aa08260009081526020527f95d17efd9f452ee83a125e41a6180e225f2e2ff7d47d2c1f6cd9b2e14a207ba155565b7f0a6f646cd611241d8073675e00d1a1ff700fbf1b53fcf473de56d1e6e4b714ba60005260046020527f078d888f9b66f3f8bfa10909e31f1e16240db73449f0500afdbbe3a70da457cc805460ff19166001179055565b60008282111561155057fe5b50900390565b81810182811015610f2957fe00a165627a7a72305820d7320d1b4650fa5de0f9d4e32e81a85fe0af62ebfbb69929f57d7dca138aacfb0029",
  "source": "pragma solidity 0.4.24;\n\nimport \"./BaseBridgeValidators.sol\";\n\ncontract RewardableValidators is BaseBridgeValidators {\n    function initialize(\n        uint256 _requiredSignatures,\n        address[] _initialValidators,\n        address[] _initialRewards,\n        address _owner\n    ) external onlyRelevantSender returns (bool) {\n        require(!isInitialized());\n        _setOwner(_owner);\n        require(_requiredSignatures != 0);\n        require(_initialValidators.length >= _requiredSignatures);\n        require(_initialValidators.length == _initialRewards.length);\n\n        for (uint256 i = 0; i < _initialValidators.length; i++) {\n            require(_initialValidators[i] != address(0) && _initialValidators[i] != F_ADDR);\n            require(_initialRewards[i] != address(0));\n            require(!isValidator(_initialValidators[i]));\n\n            if (i == 0) {\n                setNextValidator(F_ADDR, _initialValidators[i]);\n                if (_initialValidators.length == 1) {\n                    setNextValidator(_initialValidators[i], F_ADDR);\n                }\n            } else if (i == _initialValidators.length - 1) {\n                setNextValidator(_initialValidators[i - 1], _initialValidators[i]);\n                setNextValidator(_initialValidators[i], F_ADDR);\n            } else {\n                setNextValidator(_initialValidators[i - 1], _initialValidators[i]);\n            }\n\n            setValidatorRewardAddress(_initialValidators[i], _initialRewards[i]);\n            emit ValidatorAdded(_initialValidators[i]);\n        }\n\n        setValidatorCount(_initialValidators.length);\n        uintStorage[REQUIRED_SIGNATURES] = _requiredSignatures;\n        uintStorage[DEPLOYED_AT_BLOCK] = block.number;\n        setInitialize();\n        emit RequiredSignaturesChanged(_requiredSignatures);\n\n        return isInitialized();\n    }\n\n    function addRewardableValidator(address _validator, address _reward) external onlyOwner {\n        require(_reward != address(0));\n        _addValidator(_validator);\n        setValidatorRewardAddress(_validator, _reward);\n        emit ValidatorAdded(_validator);\n    }\n\n    function removeValidator(address _validator) external onlyOwner {\n        _removeValidator(_validator);\n        deleteItemFromAddressStorage(\"validatorsRewards\", _validator);\n        emit ValidatorRemoved(_validator);\n    }\n\n    function getValidatorRewardAddress(address _validator) external view returns (address) {\n        return addressStorage[keccak256(abi.encodePacked(\"validatorsRewards\", _validator))];\n    }\n\n    function setValidatorRewardAddress(address _validator, address _reward) internal {\n        addressStorage[keccak256(abi.encodePacked(\"validatorsRewards\", _validator))] = _reward;\n    }\n}\n",
  "sourcePath": "/Users/max/Projects/Symblox/TokenBridge/tokenbridge/contracts/contracts/upgradeable_contracts/RewardableValidators.sol",
  "compiler": {
    "name": "solc",
    "version": "0.4.24+commit.e67f0147.Emscripten.clang"
  },
  "schemaVersion": "3.1.0",
  "updatedAt": "2020-11-26T16:22:39.858Z",
  "devdoc": {
    "methods": {
      "owner()": {
        "details": "Tells the address of the owner",
        "return": "the address of the owner"
      },
      "transferOwnership(address)": {
        "details": "Allows the current owner to transfer control of the contract to a newOwner.",
        "params": {
          "newOwner": "the address to transfer ownership to."
        }
      }
    }
  },
  "userdoc": {
    "methods": {}
  }
}