{
  "contractName": "RewardableForeignBridgeNativeToErc",
  "abi": [
    {
      "constant": false,
      "inputs": [
        {
          "name": "_feeManager",
          "type": "address"
        }
      ],
      "name": "setFeeManagerContract",
      "outputs": [],
      "payable": false,
      "stateMutability": "nonpayable",
      "type": "function"
    },
    {
      "constant": true,
      "inputs": [],
      "name": "owner",
      "outputs": [
        {
          "name": "",
          "type": "address"
        }
      ],
      "payable": false,
      "stateMutability": "view",
      "type": "function"
    },
    {
      "constant": true,
      "inputs": [],
      "name": "feeManagerContract",
      "outputs": [
        {
          "name": "",
          "type": "address"
        }
      ],
      "payable": false,
      "stateMutability": "view",
      "type": "function"
    },
    {
      "constant": true,
      "inputs": [],
      "name": "getFeeManagerMode",
      "outputs": [
        {
          "name": "mode",
          "type": "bytes4"
        }
      ],
      "payable": false,
      "stateMutability": "view",
      "type": "function"
    },
    {
      "constant": false,
      "inputs": [
        {
          "name": "newOwner",
          "type": "address"
        }
      ],
      "name": "transferOwnership",
      "outputs": [],
      "payable": false,
      "stateMutability": "nonpayable",
      "type": "function"
    },
    {
      "anonymous": false,
      "inputs": [
        {
          "indexed": false,
          "name": "feeAmount",
          "type": "uint256"
        },
        {
          "indexed": true,
          "name": "transactionHash",
          "type": "bytes32"
        }
      ],
      "name": "FeeDistributedFromAffirmation",
      "type": "event"
    },
    {
      "anonymous": false,
      "inputs": [
        {
          "indexed": false,
          "name": "feeAmount",
          "type": "uint256"
        },
        {
          "indexed": true,
          "name": "transactionHash",
          "type": "bytes32"
        }
      ],
      "name": "FeeDistributedFromSignatures",
      "type": "event"
    },
    {
      "anonymous": false,
      "inputs": [
        {
          "indexed": false,
          "name": "previousOwner",
          "type": "address"
        },
        {
          "indexed": false,
          "name": "newOwner",
          "type": "address"
        }
      ],
      "name": "OwnershipTransferred",
      "type": "event"
    },
    {
      "constant": false,
      "inputs": [
        {
          "name": "_fee",
          "type": "uint256"
        }
      ],
      "name": "setHomeFee",
      "outputs": [],
      "payable": false,
      "stateMutability": "nonpayable",
      "type": "function"
    },
    {
      "constant": true,
      "inputs": [],
      "name": "getHomeFee",
      "outputs": [
        {
          "name": "",
          "type": "uint256"
        }
      ],
      "payable": false,
      "stateMutability": "view",
      "type": "function"
    }
  ],
  "bytecode": "0x608060405234801561001057600080fd5b506107fe806100206000396000f3006080604052600436106100825763ffffffff7c010000000000000000000000000000000000000000000000000000000060003504166334a9e148811461008757806360756f7c146100a15780638da5cb5b146100c257806394da17cd146100f3578063dbe03a8b1461011a578063f2ba95611461012f578063f2fde38b14610176575b600080fd5b34801561009357600080fd5b5061009f600435610197565b005b3480156100ad57600080fd5b5061009f600160a060020a03600435166101d6565b3480156100ce57600080fd5b506100d761028e565b60408051600160a060020a039092168252519081900360200190f35b3480156100ff57600080fd5b506101086102e5565b60408051918252519081900360200190f35b34801561012657600080fd5b506100d7610303565b34801561013b57600080fd5b5061014461035a565b604080517bffffffffffffffffffffffffffffffffffffffffffffffffffffffff199092168252519081900360200190f35b34801561018257600080fd5b5061009f600160a060020a03600435166103e5565b61019f61028e565b600160a060020a031633146101b357600080fd5b6101d36101be610303565b826000805160206107b383398151915261040a565b50565b6101de61028e565b600160a060020a031633146101f257600080fd5b600160a060020a038116158061020c575061020c8161059d565b151561021757600080fd5b7f779a349c5bee7817f04c960f525ee3e2f2516078c38c68a3149787976ee837e560005260026020527fc155b21a14c4592b97825e495fbe0d2705fb46420018cac5bfa7a09c43fae517805473ffffffffffffffffffffffffffffffffffffffff1916600160a060020a0392909216919091179055565b7f02016836a56b71f0d02689e69e326f4f4c1b9057164ef592671cf0d37c8040c060005260026020527fb7802e97e87ef2842a6cce7da7ffaeaedaa2f61a6a7870b23d9d01fc9b73712e54600160a060020a031690565b60006102fe6000805160206107b38339815191526105a5565b905090565b7f779a349c5bee7817f04c960f525ee3e2f2516078c38c68a3149787976ee837e560005260026020527fc155b21a14c4592b97825e495fbe0d2705fb46420018cac5bfa7a09c43fae51754600160a060020a031690565b6040805160048152602481019091526020810180517bffffffffffffffffffffffffffffffffffffffffffffffffffffffff167ff2ba956100000000000000000000000000000000000000000000000000000000179052600090816103bd610303565b9050600460008351602085016000855af28060203d1416156103df5760005193505b50505090565b6103ed61028e565b600160a060020a0316331461040157600080fd5b6101d3816106db565b6000816000805160206107b383398151915281148061044857507fdeb7f3adca07d6d1f708c1774389db532a2b2f18fd05a62b957e4089f4696ed581145b151561045357600080fd5b6000805160206107b3833981519152831461048e577f286c4066000000000000000000000000000000000000000000000000000000006104b0565b7f34a9e148000000000000000000000000000000000000000000000000000000005b60408051602480820188905282518083039091018152604490910182526020810180517bffffffffffffffffffffffffffffffffffffffffffffffffffffffff167bffffffffffffffffffffffffffffffffffffffffffffffffffffffff19851617815291518151939550600160a060020a038916939192909182919080838360005b8381101561054b578181015183820152602001610533565b50505050905090810190601f1680156105785780820380516001836020036101000a031916815260200191505b50915050600060405180830381855af4915050151561059657600080fd5b5050505050565b6000903b1190565b600080806060846000805160206107b38339815191528114806105e757507fdeb7f3adca07d6d1f708c1774389db532a2b2f18fd05a62b957e4089f4696ed581145b15156105f257600080fd5b6105fa610303565b93506000805160206107b38339815191528614610637577fffd6619600000000000000000000000000000000000000000000000000000000610659565b7f94da17cd000000000000000000000000000000000000000000000000000000005b604080516004815260248101909152602080820180517bffffffffffffffffffffffffffffffffffffffffffffffffffffffff167bffffffffffffffffffffffffffffffffffffffffffffffffffffffff19851617815282519396509194509160009182885af28060203d1416156106d15760005195505b5050505050919050565b600160a060020a03811615156106f057600080fd5b7f8be0079c531659141344cd1fd0a4f28419497f9722a3daafe3b4186f6b6457e061071961028e565b60408051600160a060020a03928316815291841660208301528051918290030190a17f02016836a56b71f0d02689e69e326f4f4c1b9057164ef592671cf0d37c8040c060005260026020527fb7802e97e87ef2842a6cce7da7ffaeaedaa2f61a6a7870b23d9d01fc9b73712e805473ffffffffffffffffffffffffffffffffffffffff1916600160a060020a0392909216919091179055560089d93e5e92f7e37e490c25f0e50f7f4aad7cc94b308a566553280967be38bcf1a165627a7a7230582055a7e92023cea81f392bcfb1e9d939369b707eddccd8edc8bfa134affb2404170029",
  "source": "pragma solidity 0.4.24;\n\nimport \"../RewardableBridge.sol\";\n\ncontract RewardableForeignBridgeNativeToErc is RewardableBridge {\n    /**\n     * @dev Updates the fee percentage for home->foreign bridge operations.\n     * Only owner is allowed to call this method.\n     * If during this operation, home fee is changed, it is highly recommended to stop the bridge operations first.\n     * Otherwise, pending signature requests can become a reason for imbalance between two bridge sides.\n     * @param _fee new value for fee percentage.\n     */\n    function setHomeFee(uint256 _fee) external onlyOwner {\n        _setFee(feeManagerContract(), _fee, HOME_FEE);\n    }\n\n    function getHomeFee() public view returns (uint256) {\n        return _getFee(HOME_FEE);\n    }\n\n    /**\n     * @dev Internal function for distributing the fee for collecting sufficient amount of signatures.\n     * @param _fee amount of fee to distribute.\n     * @param _feeManager address of the fee manager contract.\n     * @param _txHash reference transaction hash where the original bridge request happened.\n     */\n    function distributeFeeFromSignatures(uint256 _fee, address _feeManager, bytes32 _txHash) internal {\n        require(_feeManager.delegatecall(abi.encodeWithSelector(DISTRIBUTE_FEE_FROM_SIGNATURES, _fee)));\n        emit FeeDistributedFromSignatures(_fee, _txHash);\n    }\n}\n",
  "sourcePath": "/Users/max/Projects/Symblox/TokenBridge/tokenbridge/contracts/contracts/upgradeable_contracts/native_to_erc20/RewardableForeignBridgeNativeToErc.sol",
  "compiler": {
    "name": "solc",
    "version": "0.4.24+commit.e67f0147.Emscripten.clang"
  },
  "schemaVersion": "3.1.0",
  "updatedAt": "2020-11-26T16:22:40.029Z",
  "devdoc": {
    "methods": {
      "feeManagerContract()": {
        "details": "Retrieves the address of the fee manager contract used.",
        "return": "address of the fee manager contract."
      },
      "getFeeManagerMode()": {
        "details": "Retrieves the mode of the used fee manager.",
        "return": "manager mode identifier, or zero bytes otherwise."
      },
      "owner()": {
        "details": "Tells the address of the owner",
        "return": "the address of the owner"
      },
      "setFeeManagerContract(address)": {
        "details": "Updates the address of the used fee manager contract. Only contract owner can call this method. If during this operation, home fee is changed, it is highly recommended to stop the bridge operations first. Otherwise, pending signature requests can become a reason for imbalance between two bridge sides.",
        "params": {
          "_feeManager": "address of the new fee manager contract, or zero address to disable fee collection."
        }
      },
      "setHomeFee(uint256)": {
        "details": "Updates the fee percentage for home->foreign bridge operations. Only owner is allowed to call this method. If during this operation, home fee is changed, it is highly recommended to stop the bridge operations first. Otherwise, pending signature requests can become a reason for imbalance between two bridge sides.",
        "params": {
          "_fee": "new value for fee percentage."
        }
      },
      "transferOwnership(address)": {
        "details": "Allows the current owner to transfer control of the contract to a newOwner.",
        "params": {
          "newOwner": "the address to transfer ownership to."
        }
      }
    }
  },
  "userdoc": {
    "methods": {}
  }
}