{
  "contractName": "Token6",
  "abi": [
    {
      "constant": true,
      "inputs": [],
      "name": "NAME",
      "outputs": [
        {
          "name": "",
          "type": "string"
        }
      ],
      "payable": false,
      "stateMutability": "view",
      "type": "function"
    },
    {
      "constant": true,
      "inputs": [],
      "name": "symbol",
      "outputs": [
        {
          "name": "",
          "type": "string"
        }
      ],
      "payable": false,
      "stateMutability": "view",
      "type": "function"
    }
  ],
  "bytecode": "0x608060405234801561001057600080fd5b506101d9806100206000396000f30060806040526004361061004b5763ffffffff7c010000000000000000000000000000000000000000000000000000000060003504166395d89b418114610050578063a3f4df7e146100da575b600080fd5b34801561005c57600080fd5b506100656100ef565b6040805160208082528351818301528351919283929083019185019080838360005b8381101561009f578181015183820152602001610087565b50505050905090810190601f1680156100cc5780820380516001836020036101000a031916815260200191505b509250505060405180910390f35b3480156100e657600080fd5b5061006561014e565b60408051606081018252602181527f303132333435363738396162636465663031323334353637383961626364656660208201527f59000000000000000000000000000000000000000000000000000000000000009181019190915290565b60408051606081018252602181527f303132333435363738396162636465663031323334353637383961626364656660208201527f580000000000000000000000000000000000000000000000000000000000000091810191909152905600a165627a7a72305820b022b2ca58a2a497ff6a1eb6fd609504518bf43b2bd623be16bd7029bb76ffc40029",
  "source": "/* solhint-disable */\npragma solidity 0.4.24;\n\nimport \"../../contracts/libraries/TokenReader.sol\";\n\ncontract Token1 {\n    function name() external view returns (string) {\n        return \"Token\";\n    }\n\n    function symbol() external view returns (string) {\n        return \"TKN\";\n    }\n\n    function decimals() external view returns (uint8) {\n        return 18;\n    }\n}\n\ncontract Token2 {\n    function NAME() external view returns (string) {\n        return \"Token\";\n    }\n\n    function SYMBOL() external view returns (string) {\n        return \"TKN\";\n    }\n\n    function DECIMALS() external view returns (uint8) {\n        return 18;\n    }\n}\n\ncontract Token3 {\n    function name() external view returns (bytes32) {\n        return bytes32(\"Token\");\n    }\n\n    function symbol() external view returns (bytes32) {\n        return bytes32(\"TKN\");\n    }\n\n    function decimals() external view returns (uint256) {\n        return 9;\n    }\n}\n\ncontract Token4 {\n    function NAME() external view returns (bytes32) {\n        return bytes32(\"Token\");\n    }\n\n    function SYMBOL() external view returns (bytes32) {\n        return bytes32(\"TKN\");\n    }\n}\n\ncontract Token5 {\n    function name() external view returns (bytes32) {\n        return bytes32(\"0123456789abcdef0123456789abcdef\");\n    }\n\n    function SYMBOL() external view returns (bytes32) {\n        return bytes32(\"0123456789abcdef0123456789abcdef\");\n    }\n}\n\ncontract Token6 {\n    function NAME() external view returns (string) {\n        return \"0123456789abcdef0123456789abcdefX\";\n    }\n\n    function symbol() external view returns (string) {\n        return \"0123456789abcdef0123456789abcdefY\";\n    }\n}\n\ncontract Token7 {\n    function symbol() external view returns (string) {\n        return \"\";\n    }\n\n    function decimals() external view returns (uint8) {\n        return 0;\n    }\n}\n\ncontract TokenReaderTest {\n    function test1() external {\n        address token = new Token1();\n\n        require(keccak256(TokenReader.readName(token)) == keccak256(\"Token\"));\n        require(keccak256(TokenReader.readSymbol(token)) == keccak256(\"TKN\"));\n        require(TokenReader.readDecimals(token) == 18);\n    }\n\n    function test2() external {\n        address token = new Token2();\n\n        require(keccak256(TokenReader.readName(token)) == keccak256(\"Token\"));\n        require(keccak256(TokenReader.readSymbol(token)) == keccak256(\"TKN\"));\n        require(TokenReader.readDecimals(token) == 18);\n    }\n\n    function test3() external {\n        address token = new Token3();\n\n        require(keccak256(TokenReader.readName(token)) == keccak256(\"Token\"));\n        require(keccak256(TokenReader.readSymbol(token)) == keccak256(\"TKN\"));\n        require(TokenReader.readDecimals(token) == 9);\n    }\n\n    function test4() external {\n        address token = new Token4();\n\n        require(keccak256(TokenReader.readName(token)) == keccak256(\"Token\"));\n        require(keccak256(TokenReader.readSymbol(token)) == keccak256(\"TKN\"));\n        require(TokenReader.readDecimals(token) == 0);\n    }\n\n    function test5() external {\n        address token = new Token5();\n\n        require(keccak256(TokenReader.readName(token)) == keccak256(\"0123456789abcdef0123456789abcdef\"));\n        require(keccak256(TokenReader.readSymbol(token)) == keccak256(\"0123456789abcdef0123456789abcdef\"));\n        require(TokenReader.readDecimals(token) == 0);\n    }\n\n    function test6() external {\n        address token = new Token6();\n\n        require(keccak256(TokenReader.readName(token)) == keccak256(\"0123456789abcdef0123456789abcdefX\"));\n        require(keccak256(TokenReader.readSymbol(token)) == keccak256(\"0123456789abcdef0123456789abcdefY\"));\n        require(TokenReader.readDecimals(token) == 0);\n    }\n\n    function test7() external {\n        address token = new Token7();\n\n        require(keccak256(TokenReader.readName(token)) == keccak256(\"\"));\n        require(keccak256(TokenReader.readSymbol(token)) == keccak256(\"\"));\n        require(TokenReader.readDecimals(token) == 0);\n    }\n}\n/* solhint-enable */\n",
  "sourcePath": "/Users/max/Projects/Symblox/TokenBridge/tokenbridge/contracts/contracts/mocks/TokenReaderTest.sol",
  "compiler": {
    "name": "solc",
    "version": "0.4.24+commit.e67f0147.Emscripten.clang"
  },
  "schemaVersion": "3.1.0",
  "updatedAt": "2020-11-26T16:22:39.736Z",
  "devdoc": {
    "methods": {}
  },
  "userdoc": {
    "methods": {}
  }
}