{
  "contractName": "TokenProxy",
  "abi": [
    {
      "inputs": [
        {
          "name": "_tokenImage",
          "type": "address"
        },
        {
          "name": "_name",
          "type": "string"
        },
        {
          "name": "_symbol",
          "type": "string"
        },
        {
          "name": "_decimals",
          "type": "uint8"
        },
        {
          "name": "_chainId",
          "type": "uint256"
        }
      ],
      "payable": false,
      "stateMutability": "nonpayable",
      "type": "constructor"
    },
    {
      "payable": true,
      "stateMutability": "payable",
      "type": "fallback"
    },
    {
      "constant": true,
      "inputs": [],
      "name": "implementation",
      "outputs": [
        {
          "name": "impl",
          "type": "address"
        }
      ],
      "payable": false,
      "stateMutability": "view",
      "type": "function"
    }
  ],
  "bytecode": "0x608060405234801561001057600080fd5b50604051610548380380610548833981016040818152825160208401518285015160608087015160808801517f54fd4d500000000000000000000000000000000000000000000000000000000088529551949793840196929093019492939091600160a060020a038816916354fd4d509160048082019260009290919082900301818387803b1580156100a257600080fd5b505af11580156100b6573d6000803e3d6000fd5b505050506040513d6000823e601f3d908101601f1916820160405260208110156100df57600080fd5b8101908080516401000000008111156100f757600080fd5b8201602081018481111561010a57600080fd5b815164010000000081118282018710171561012457600080fd5b50507f360894a13ba1a3210667c828492db98dca3e2076cc3735a920a3ca505d382bbc8a90558851909450610163935060009250602089019150610380565b508351610177906001906020870190610380565b506002805460ff851660ff1990911617905560068054600160a060020a031990811633908117909255600780549091169091179055604080517f454950373132446f6d61696e28737472696e67206e616d652c737472696e672081527f76657273696f6e2c75696e7432353620636861696e49642c61646472657373206020808301919091527f766572696679696e67436f6e74726163742900000000000000000000000000008284015291519081900360520181208751909288929182918401908083835b6020831061025c5780518252601f19909201916020918201910161023d565b51815160209384036101000a6000190180199092169116179052604051919093018190038120875190955087945090928392508401908083835b602083106102b55780518252601f199092019160209182019101610296565b51815160209384036101000a6000190180199092169116179052604080519290940182900382208282019890985281840196909652606081019690965250608085018790523060a0808701919091528151808703909101815260c09095019081905284519093849350850191508083835b602083106103455780518252601f199092019160209182019101610326565b5181516020939093036101000a600019018019909116921691909117905260405192018290039091206008555061041b975050505050505050565b828054600181600116156101000203166002900490600052602060002090601f016020900481019282601f106103c157805160ff19168380011785556103ee565b828001600101855582156103ee579182015b828111156103ee5782518255916020019190600101906103d3565b506103fa9291506103fe565b5090565b61041891905b808211156103fa5760008155600101610404565b90565b61011e8061042a6000396000f300608060405260043610603e5763ffffffff7c01000000000000000000000000000000000000000000000000000000006000350416635c60da1b81146092575b6000604660cd565b905073ffffffffffffffffffffffffffffffffffffffff81161515606957600080fd5b60405136600082376000803683855af43d82016040523d6000833e808015608e573d83f35b3d83fd5b348015609d57600080fd5b5060a460cd565b6040805173ffffffffffffffffffffffffffffffffffffffff9092168252519081900360200190f35b7f360894a13ba1a3210667c828492db98dca3e2076cc3735a920a3ca505d382bbc54905600a165627a7a723058206b3caee7215810e1395bfc14d71622d1a68a5062be524c2662cb485837a5d4c80029",
  "source": "pragma solidity 0.4.24;\n\nimport \"../../upgradeability/Proxy.sol\";\n\ninterface IPermittableTokenVersion {\n    function version() external pure returns (string);\n}\n\n/**\n* @title TokenProxy\n* @dev Helps to reduces the size of the deployed bytecode for automatically created tokens, by using a proxy contract.\n*/\ncontract TokenProxy is Proxy {\n    // storage layout is copied from PermittableToken.sol\n    string internal name;\n    string internal symbol;\n    uint8 internal decimals;\n    mapping(address => uint256) internal balances;\n    uint256 internal totalSupply;\n    mapping(address => mapping(address => uint256)) internal allowed;\n    address internal owner;\n    bool internal mintingFinished;\n    address internal bridgeContractAddr;\n    // string public constant version = \"1\";\n    bytes32 internal DOMAIN_SEPARATOR;\n    // bytes32 public constant PERMIT_TYPEHASH = 0xea2aa0a1be11a07ed86d755c93467f4f82362b452371d1ba94d1715123511acb;\n    mapping(address => uint256) internal nonces;\n    mapping(address => mapping(address => uint256)) internal expirations;\n\n    /**\n    * @dev Creates a non-upgradeable token proxy for PermitableToken.sol, initializes its eternalStorage.\n    * @param _tokenImage address of the token image used for mirroring all functions.\n    * @param _name token name.\n    * @param _symbol token symbol.\n    * @param _decimals token decimals.\n    * @param _chainId chain id for current network.\n    */\n    constructor(address _tokenImage, string memory _name, string memory _symbol, uint8 _decimals, uint256 _chainId)\n        public\n    {\n        string memory version = IPermittableTokenVersion(_tokenImage).version();\n\n        assembly {\n            // EIP 1967\n            // bytes32(uint256(keccak256('eip1967.proxy.implementation')) - 1)\n            sstore(0x360894a13ba1a3210667c828492db98dca3e2076cc3735a920a3ca505d382bbc, _tokenImage)\n        }\n        name = _name;\n        symbol = _symbol;\n        decimals = _decimals;\n        owner = msg.sender; // msg.sender == HomeMultiAMBErc20ToErc677 mediator\n        bridgeContractAddr = msg.sender;\n        DOMAIN_SEPARATOR = keccak256(\n            abi.encode(\n                keccak256(\"EIP712Domain(string name,string version,uint256 chainId,address verifyingContract)\"),\n                keccak256(bytes(_name)),\n                keccak256(bytes(version)),\n                _chainId,\n                address(this)\n            )\n        );\n    }\n\n    /**\n    * @dev Retrieves the implementation contract address, mirrored token image.\n    * @return token image address.\n    */\n    function implementation() public view returns (address impl) {\n        assembly {\n            impl := sload(0x360894a13ba1a3210667c828492db98dca3e2076cc3735a920a3ca505d382bbc)\n        }\n    }\n}\n",
  "sourcePath": "/Users/max/Projects/Symblox/TokenBridge/tokenbridge/contracts/contracts/upgradeable_contracts/multi_amb_erc20_to_erc677/TokenProxy.sol",
  "compiler": {
    "name": "solc",
    "version": "0.4.24+commit.e67f0147.Emscripten.clang"
  },
  "schemaVersion": "3.1.0",
  "updatedAt": "2020-11-26T16:22:40.018Z",
  "devdoc": {
    "methods": {
      "implementation()": {
        "details": "Retrieves the implementation contract address, mirrored token image.",
        "return": "token image address."
      }
    },
    "title": "TokenProxy"
  },
  "userdoc": {
    "methods": {}
  }
}