{
  "contractName": "TransferInfoStorage",
  "abi": [
    {
      "constant": true,
      "inputs": [
        {
          "name": "_messageId",
          "type": "bytes32"
        }
      ],
      "name": "messageFixed",
      "outputs": [
        {
          "name": "",
          "type": "bool"
        }
      ],
      "payable": false,
      "stateMutability": "view",
      "type": "function"
    }
  ],
  "bytecode": "0x608060405234801561001057600080fd5b50610166806100206000396000f3006080604052600436106100405763ffffffff7c0100000000000000000000000000000000000000000000000000000000600035041663593399828114610045575b600080fd5b34801561005157600080fd5b5061005d600435610071565b604080519115158252519081900360200190f35b6000600460008360405160200180807f6d65737361676546697865640000000000000000000000000000000000000000815250600c0182600019166000191681526020019150506040516020818303038152906040526040518082805190602001908083835b602083106100f65780518252601f1990920191602091820191016100d7565b51815160209384036101000a600019018019909216911617905260408051929094018290039091208652850195909552929092016000205460ff16959450505050505600a165627a7a7230582034d8b433aeb8ce726c44990ce8b6d54ba947f5024e010c0fac705c71c156d9be0029",
  "source": "pragma solidity 0.4.24;\n\nimport \"../upgradeability/EternalStorage.sol\";\n\ncontract TransferInfoStorage is EternalStorage {\n    /**\n    * @dev Stores the value of a message sent to the AMB bridge.\n    * @param _messageId of the message sent to the bridge.\n    * @param _value amount of tokens bridged.\n    */\n    function setMessageValue(bytes32 _messageId, uint256 _value) internal {\n        uintStorage[keccak256(abi.encodePacked(\"messageValue\", _messageId))] = _value;\n    }\n\n    /**\n    * @dev Tells the amount of tokens of a message sent to the AMB bridge.\n    * @return value representing amount of tokens.\n    */\n    function messageValue(bytes32 _messageId) internal view returns (uint256) {\n        return uintStorage[keccak256(abi.encodePacked(\"messageValue\", _messageId))];\n    }\n\n    /**\n    * @dev Stores the receiver of a message sent to the AMB bridge.\n    * @param _messageId of the message sent to the bridge.\n    * @param _recipient receiver of the tokens bridged.\n    */\n    function setMessageRecipient(bytes32 _messageId, address _recipient) internal {\n        addressStorage[keccak256(abi.encodePacked(\"messageRecipient\", _messageId))] = _recipient;\n    }\n\n    /**\n    * @dev Tells the receiver of a message sent to the AMB bridge.\n    * @return address of the receiver.\n    */\n    function messageRecipient(bytes32 _messageId) internal view returns (address) {\n        return addressStorage[keccak256(abi.encodePacked(\"messageRecipient\", _messageId))];\n    }\n\n    /**\n    * @dev Sets that the message sent to the AMB bridge has been fixed.\n    * @param _messageId of the message sent to the bridge.\n    */\n    function setMessageFixed(bytes32 _messageId) internal {\n        boolStorage[keccak256(abi.encodePacked(\"messageFixed\", _messageId))] = true;\n    }\n\n    /**\n    * @dev Tells if a message sent to the AMB bridge has been fixed.\n    * @return bool indicating the status of the message.\n    */\n    function messageFixed(bytes32 _messageId) public view returns (bool) {\n        return boolStorage[keccak256(abi.encodePacked(\"messageFixed\", _messageId))];\n    }\n}\n",
  "sourcePath": "/Users/max/Projects/Symblox/TokenBridge/tokenbridge/contracts/contracts/upgradeable_contracts/TransferInfoStorage.sol",
  "compiler": {
    "name": "solc",
    "version": "0.4.24+commit.e67f0147.Emscripten.clang"
  },
  "schemaVersion": "3.1.0",
  "updatedAt": "2020-11-26T16:22:39.865Z",
  "devdoc": {
    "methods": {
      "messageFixed(bytes32)": {
        "details": "Tells if a message sent to the AMB bridge has been fixed.",
        "return": "bool indicating the status of the message."
      }
    }
  },
  "userdoc": {
    "methods": {}
  }
}