{
  "contractName": "UpgradeabilityProxy",
  "abi": [
    {
      "constant": true,
      "inputs": [],
      "name": "version",
      "outputs": [
        {
          "name": "",
          "type": "uint256"
        }
      ],
      "payable": false,
      "stateMutability": "view",
      "type": "function"
    },
    {
      "constant": true,
      "inputs": [],
      "name": "implementation",
      "outputs": [
        {
          "name": "",
          "type": "address"
        }
      ],
      "payable": false,
      "stateMutability": "view",
      "type": "function"
    },
    {
      "payable": true,
      "stateMutability": "payable",
      "type": "fallback"
    },
    {
      "anonymous": false,
      "inputs": [
        {
          "indexed": false,
          "name": "version",
          "type": "uint256"
        },
        {
          "indexed": true,
          "name": "implementation",
          "type": "address"
        }
      ],
      "name": "Upgraded",
      "type": "event"
    }
  ],
  "bytecode": "0x608060405234801561001057600080fd5b50610156806100206000396000f30060806040526004361061004b5763ffffffff7c010000000000000000000000000000000000000000000000000000000060003504166354fd4d5081146100a35780635c60da1b146100ca575b6000610055610108565b905073ffffffffffffffffffffffffffffffffffffffff8116151561007957600080fd5b60405136600082376000803683855af43d82016040523d6000833e80801561009f573d83f35b3d83fd5b3480156100af57600080fd5b506100b8610124565b60408051918252519081900360200190f35b3480156100d657600080fd5b506100df610108565b6040805173ffffffffffffffffffffffffffffffffffffffff9092168252519081900360200190f35b60015473ffffffffffffffffffffffffffffffffffffffff1690565b600054905600a165627a7a72305820e62edef1b2597fc6f77e5c0c44ec0680843d21c6a922e7405ffd0e7d8deaf7fb0029",
  "source": "pragma solidity 0.4.24;\n\nimport \"openzeppelin-solidity/contracts/AddressUtils.sol\";\nimport \"./Proxy.sol\";\nimport \"./UpgradeabilityStorage.sol\";\n\n/**\n * @title UpgradeabilityProxy\n * @dev This contract represents a proxy where the implementation address to which it will delegate can be upgraded\n */\ncontract UpgradeabilityProxy is Proxy, UpgradeabilityStorage {\n    /**\n    * @dev This event will be emitted every time the implementation gets upgraded\n    * @param version representing the version name of the upgraded implementation\n    * @param implementation representing the address of the upgraded implementation\n    */\n    event Upgraded(uint256 version, address indexed implementation);\n\n    /**\n    * @dev Upgrades the implementation address\n    * @param version representing the version name of the new implementation to be set\n    * @param implementation representing the address of the new implementation to be set\n    */\n    function _upgradeTo(uint256 version, address implementation) internal {\n        require(_implementation != implementation);\n\n        // This additional check verifies that provided implementation is at least a contract\n        require(AddressUtils.isContract(implementation));\n\n        // This additional check guarantees that new version will be at least greater than the privios one,\n        // so it is impossible to reuse old versions, or use the last version twice\n        require(version > _version);\n\n        _version = version;\n        _implementation = implementation;\n        emit Upgraded(version, implementation);\n    }\n}\n",
  "sourcePath": "/Users/max/Projects/Symblox/TokenBridge/tokenbridge/contracts/contracts/upgradeability/UpgradeabilityProxy.sol",
  "compiler": {
    "name": "solc",
    "version": "0.4.24+commit.e67f0147.Emscripten.clang"
  },
  "schemaVersion": "3.1.0",
  "updatedAt": "2020-11-26T16:22:39.770Z",
  "devdoc": {
    "methods": {
      "implementation()": {
        "details": "Tells the address of the current implementation",
        "return": "address of the current implementation"
      },
      "version()": {
        "details": "Tells the version name of the current implementation",
        "return": "uint256 representing the name of the current version"
      }
    },
    "title": "UpgradeabilityProxy"
  },
  "userdoc": {
    "methods": {}
  }
}