{
  "contractName": "VatMock",
  "abi": [
    {
      "constant": true,
      "inputs": [],
      "name": "debt",
      "outputs": [
        {
          "name": "",
          "type": "uint256"
        }
      ],
      "payable": false,
      "stateMutability": "view",
      "type": "function"
    },
    {
      "constant": true,
      "inputs": [
        {
          "name": "",
          "type": "bytes32"
        },
        {
          "name": "",
          "type": "address"
        }
      ],
      "name": "gem",
      "outputs": [
        {
          "name": "",
          "type": "uint256"
        }
      ],
      "payable": false,
      "stateMutability": "view",
      "type": "function"
    },
    {
      "constant": true,
      "inputs": [
        {
          "name": "",
          "type": "bytes32"
        },
        {
          "name": "",
          "type": "address"
        }
      ],
      "name": "urns",
      "outputs": [
        {
          "name": "ink",
          "type": "uint256"
        },
        {
          "name": "art",
          "type": "uint256"
        }
      ],
      "payable": false,
      "stateMutability": "view",
      "type": "function"
    },
    {
      "constant": true,
      "inputs": [],
      "name": "vice",
      "outputs": [
        {
          "name": "",
          "type": "uint256"
        }
      ],
      "payable": false,
      "stateMutability": "view",
      "type": "function"
    },
    {
      "constant": true,
      "inputs": [
        {
          "name": "",
          "type": "address"
        },
        {
          "name": "",
          "type": "address"
        }
      ],
      "name": "can",
      "outputs": [
        {
          "name": "",
          "type": "uint256"
        }
      ],
      "payable": false,
      "stateMutability": "view",
      "type": "function"
    },
    {
      "constant": true,
      "inputs": [
        {
          "name": "",
          "type": "address"
        }
      ],
      "name": "dai",
      "outputs": [
        {
          "name": "",
          "type": "uint256"
        }
      ],
      "payable": false,
      "stateMutability": "view",
      "type": "function"
    },
    {
      "constant": true,
      "inputs": [],
      "name": "live",
      "outputs": [
        {
          "name": "",
          "type": "uint256"
        }
      ],
      "payable": false,
      "stateMutability": "view",
      "type": "function"
    },
    {
      "constant": true,
      "inputs": [],
      "name": "Line",
      "outputs": [
        {
          "name": "",
          "type": "uint256"
        }
      ],
      "payable": false,
      "stateMutability": "view",
      "type": "function"
    },
    {
      "constant": true,
      "inputs": [
        {
          "name": "",
          "type": "address"
        }
      ],
      "name": "wards",
      "outputs": [
        {
          "name": "",
          "type": "uint256"
        }
      ],
      "payable": false,
      "stateMutability": "view",
      "type": "function"
    },
    {
      "constant": true,
      "inputs": [
        {
          "name": "",
          "type": "bytes32"
        }
      ],
      "name": "ilks",
      "outputs": [
        {
          "name": "Art",
          "type": "uint256"
        },
        {
          "name": "rate",
          "type": "uint256"
        },
        {
          "name": "spot",
          "type": "uint256"
        },
        {
          "name": "line",
          "type": "uint256"
        },
        {
          "name": "dust",
          "type": "uint256"
        }
      ],
      "payable": false,
      "stateMutability": "view",
      "type": "function"
    },
    {
      "constant": true,
      "inputs": [
        {
          "name": "",
          "type": "address"
        }
      ],
      "name": "sin",
      "outputs": [
        {
          "name": "",
          "type": "uint256"
        }
      ],
      "payable": false,
      "stateMutability": "view",
      "type": "function"
    },
    {
      "inputs": [],
      "payable": false,
      "stateMutability": "nonpayable",
      "type": "constructor"
    },
    {
      "anonymous": true,
      "inputs": [
        {
          "indexed": true,
          "name": "sig",
          "type": "bytes4"
        },
        {
          "indexed": true,
          "name": "arg1",
          "type": "bytes32"
        },
        {
          "indexed": true,
          "name": "arg2",
          "type": "bytes32"
        },
        {
          "indexed": true,
          "name": "arg3",
          "type": "bytes32"
        },
        {
          "indexed": false,
          "name": "data",
          "type": "bytes"
        }
      ],
      "name": "LogNote",
      "type": "event"
    },
    {
      "constant": false,
      "inputs": [
        {
          "name": "usr",
          "type": "address"
        }
      ],
      "name": "rely",
      "outputs": [],
      "payable": false,
      "stateMutability": "nonpayable",
      "type": "function"
    },
    {
      "constant": false,
      "inputs": [
        {
          "name": "usr",
          "type": "address"
        }
      ],
      "name": "deny",
      "outputs": [],
      "payable": false,
      "stateMutability": "nonpayable",
      "type": "function"
    },
    {
      "constant": false,
      "inputs": [
        {
          "name": "usr",
          "type": "address"
        }
      ],
      "name": "hope",
      "outputs": [],
      "payable": false,
      "stateMutability": "nonpayable",
      "type": "function"
    },
    {
      "constant": false,
      "inputs": [
        {
          "name": "usr",
          "type": "address"
        }
      ],
      "name": "nope",
      "outputs": [],
      "payable": false,
      "stateMutability": "nonpayable",
      "type": "function"
    },
    {
      "constant": false,
      "inputs": [
        {
          "name": "a",
          "type": "address"
        },
        {
          "name": "v",
          "type": "uint256"
        }
      ],
      "name": "setDai",
      "outputs": [],
      "payable": false,
      "stateMutability": "nonpayable",
      "type": "function"
    },
    {
      "constant": false,
      "inputs": [
        {
          "name": "ilk",
          "type": "bytes32"
        }
      ],
      "name": "init",
      "outputs": [],
      "payable": false,
      "stateMutability": "nonpayable",
      "type": "function"
    },
    {
      "constant": false,
      "inputs": [
        {
          "name": "ilk",
          "type": "bytes32"
        },
        {
          "name": "what",
          "type": "bytes32"
        },
        {
          "name": "data",
          "type": "uint256"
        }
      ],
      "name": "file",
      "outputs": [],
      "payable": false,
      "stateMutability": "nonpayable",
      "type": "function"
    },
    {
      "constant": false,
      "inputs": [
        {
          "name": "what",
          "type": "bytes32"
        },
        {
          "name": "data",
          "type": "uint256"
        }
      ],
      "name": "file",
      "outputs": [],
      "payable": false,
      "stateMutability": "nonpayable",
      "type": "function"
    },
    {
      "constant": false,
      "inputs": [],
      "name": "cage",
      "outputs": [],
      "payable": false,
      "stateMutability": "nonpayable",
      "type": "function"
    },
    {
      "constant": false,
      "inputs": [
        {
          "name": "ilk",
          "type": "bytes32"
        },
        {
          "name": "usr",
          "type": "address"
        },
        {
          "name": "wad",
          "type": "int256"
        }
      ],
      "name": "slip",
      "outputs": [],
      "payable": false,
      "stateMutability": "nonpayable",
      "type": "function"
    },
    {
      "constant": false,
      "inputs": [
        {
          "name": "ilk",
          "type": "bytes32"
        },
        {
          "name": "src",
          "type": "address"
        },
        {
          "name": "dst",
          "type": "address"
        },
        {
          "name": "wad",
          "type": "uint256"
        }
      ],
      "name": "flux",
      "outputs": [],
      "payable": false,
      "stateMutability": "nonpayable",
      "type": "function"
    },
    {
      "constant": false,
      "inputs": [
        {
          "name": "src",
          "type": "address"
        },
        {
          "name": "dst",
          "type": "address"
        },
        {
          "name": "rad",
          "type": "uint256"
        }
      ],
      "name": "move",
      "outputs": [],
      "payable": false,
      "stateMutability": "nonpayable",
      "type": "function"
    },
    {
      "constant": false,
      "inputs": [
        {
          "name": "i",
          "type": "bytes32"
        },
        {
          "name": "u",
          "type": "address"
        },
        {
          "name": "v",
          "type": "address"
        },
        {
          "name": "w",
          "type": "address"
        },
        {
          "name": "dink",
          "type": "int256"
        },
        {
          "name": "dart",
          "type": "int256"
        }
      ],
      "name": "frob",
      "outputs": [],
      "payable": false,
      "stateMutability": "nonpayable",
      "type": "function"
    },
    {
      "constant": false,
      "inputs": [
        {
          "name": "ilk",
          "type": "bytes32"
        },
        {
          "name": "src",
          "type": "address"
        },
        {
          "name": "dst",
          "type": "address"
        },
        {
          "name": "dink",
          "type": "int256"
        },
        {
          "name": "dart",
          "type": "int256"
        }
      ],
      "name": "fork",
      "outputs": [],
      "payable": false,
      "stateMutability": "nonpayable",
      "type": "function"
    },
    {
      "constant": false,
      "inputs": [
        {
          "name": "i",
          "type": "bytes32"
        },
        {
          "name": "u",
          "type": "address"
        },
        {
          "name": "v",
          "type": "address"
        },
        {
          "name": "w",
          "type": "address"
        },
        {
          "name": "dink",
          "type": "int256"
        },
        {
          "name": "dart",
          "type": "int256"
        }
      ],
      "name": "grab",
      "outputs": [],
      "payable": false,
      "stateMutability": "nonpayable",
      "type": "function"
    },
    {
      "constant": false,
      "inputs": [
        {
          "name": "rad",
          "type": "uint256"
        }
      ],
      "name": "heal",
      "outputs": [],
      "payable": false,
      "stateMutability": "nonpayable",
      "type": "function"
    },
    {
      "constant": false,
      "inputs": [
        {
          "name": "u",
          "type": "address"
        },
        {
          "name": "v",
          "type": "address"
        },
        {
          "name": "rad",
          "type": "uint256"
        }
      ],
      "name": "suck",
      "outputs": [],
      "payable": false,
      "stateMutability": "nonpayable",
      "type": "function"
    },
    {
      "constant": false,
      "inputs": [
        {
          "name": "i",
          "type": "bytes32"
        },
        {
          "name": "u",
          "type": "address"
        },
        {
          "name": "rate",
          "type": "int256"
        }
      ],
      "name": "fold",
      "outputs": [],
      "payable": false,
      "stateMutability": "nonpayable",
      "type": "function"
    }
  ],
  "bytecode": "0x608060405234801561001057600080fd5b50336000908152602081905260409020600190819055600a556120f0806100386000396000f3006080604052600436106101745763ffffffff7c01000000000000000000000000000000000000000000000000000000006000350416630dca59c181146101795780631a0b287e146101a0578063214414d5146101c05780632424be5c146101e457806329ae8114146102205780632d61a3551461023b5780633b663195146102505780634538c4eb146102685780636111be2e1461028f57806365fae35e146102bc57806369245009146102dd5780636c25b346146102f257806376088703146103135780637bab3f40146103495780637cdd3fde1461037f578063870c616d146103a6578063957aa58c146103d65780639c52a7f1146103eb578063a3b22fc41461040c578063b65337df1461042d578063babe8a3f14610454578063bb35783b14610469578063bf353dbb14610493578063d9638d36146104b4578063dc4d20fa146104fe578063e7086ccb1461051f578063f059212a14610543578063f24e23eb14610564578063f37ac61c1461058e575b600080fd5b34801561018557600080fd5b5061018e6105a6565b60405190815260200160405180910390f35b3480156101ac57600080fd5b506101be6004356024356044356105ac565b005b3480156101cc57600080fd5b5061018e600435600160a060020a0360243516610793565b3480156101f057600080fd5b50610208600435600160a060020a03602435166107b5565b60405191825260208201526040908101905180910390f35b34801561022c57600080fd5b506101be6004356024356107df565b34801561024757600080fd5b5061018e6108e0565b34801561025c57600080fd5b506101be6004356108e6565b34801561027457600080fd5b5061018e600160a060020a03600435811690602435166109f8565b34801561029b57600080fd5b506101be600435600160a060020a0360243581169060443516606435610a1a565b3480156102c857600080fd5b506101be600160a060020a0360043516610b68565b3480156102e957600080fd5b506101be610c57565b3480156102fe57600080fd5b5061018e600160a060020a0360043516610ce7565b34801561031f57600080fd5b506101be600435600160a060020a036024358116906044358116906064351660843560a435610cfb565b34801561035557600080fd5b506101be600435600160a060020a036024358116906044358116906064351660843560a4356112a5565b34801561038b57600080fd5b506101be600435600160a060020a036024351660443561145f565b3480156103b257600080fd5b506101be600435600160a060020a0360243581169060443516606435608435611547565b3480156103e257600080fd5b5061018e61187c565b3480156103f757600080fd5b506101be600160a060020a0360043516611882565b34801561041857600080fd5b506101be600160a060020a036004351661196e565b34801561043957600080fd5b506101be600435600160a060020a03602435166044356119d2565b34801561046057600080fd5b5061018e611b28565b34801561047557600080fd5b506101be600160a060020a0360043581169060243516604435611b2e565b34801561049f57600080fd5b5061018e600160a060020a0360043516611c3f565b3480156104c057600080fd5b506104cc600435611c53565b604051808681526020018581526020018481526020018381526020018281526020019550505050505060405180910390f35b34801561050a57600080fd5b506101be600160a060020a0360043516611c82565b34801561052b57600080fd5b506101be600160a060020a0360043516602435611ce3565b34801561054f57600080fd5b5061018e600160a060020a0360043516611d02565b34801561057057600080fd5b506101be600160a060020a0360043581169060243516604435611d16565b34801561059a57600080fd5b506101be600435611e3c565b60075481565b336000908152602081905260409020546001146106005760405160e560020a62461bcd02815260206004820152601260248201526000805160206120a5833981519152604482015260640160405180910390fd5b600a546001146106475760405160e560020a62461bcd02815260206004820152600c6024820152600080516020612085833981519152604482015260640160405180910390fd5b7f73706f7400000000000000000000000000000000000000000000000000000000821415610688576000838152600260205281906040902060020155610759565b7f6c696e65000000000000000000000000000000000000000000000000000000008214156106c9576000838152600260205281906040902060030155610759565b7f647573740000000000000000000000000000000000000000000000000000000082141561070a576000838152600260205281906040902060040155610759565b60405160e560020a62461bcd02815260206004820152601b60248201527f5661742f66696c652d756e7265636f676e697a65642d706172616d0000000000604482015260640160405180910390fd5b5961012081016040526020815260e0602082015260e06000604083013760443560243560043560003560e01c60e01b61012085a450505050565b6004602052816000526040600020602052806000526040600020549150829050565b60036020528160005260406000206020528060005260406000208054600190910154909250905082565b336000908152602081905260409020546001146108335760405160e560020a62461bcd02815260206004820152601260248201526000805160206120a5833981519152604482015260640160405180910390fd5b600a5460011461087a5760405160e560020a62461bcd02815260206004820152600c6024820152600080516020612085833981519152604482015260640160405180910390fd5b7f4c696e650000000000000000000000000000000000000000000000000000000082141561070a5760098190555961012081016040526020815260e0602082015260e06000604083013760443560243560043560003560e01c60e01b61012085a4505050565b60085481565b3360009081526020819052604090205460011461093a5760405160e560020a62461bcd02815260206004820152601260248201526000805160206120a5833981519152604482015260640160405180910390fd5b600081815260026020526040902060010154156109a05760405160e560020a62461bcd02815260206004820152601460248201527f5661742f696c6b2d616c72656164792d696e6974000000000000000000000000604482015260640160405180910390fd5b600081815260026020526b033b2e3c9fd0803ce80000009060409020600101555961012081016040526020815260e0602082015260e06000604083013760443560243560043560003560e01c60e01b61012085a45050565b6001602052816000526040600020602052806000526040600020549150829050565b610a248333611f04565b1515610a795760405160e560020a62461bcd02815260206004820152600f60248201527f5661742f6e6f742d616c6c6f7765640000000000000000000000000000000000604482015260640160405180910390fd5b60008481526004602052610aab9060409020600160a060020a0385166000908152602091909152604090205482611f51565b6000858152600460205260409020600160a060020a0385166000908152602091909152604090205560008481526004602052610b059060409020600160a060020a0384166000908152602091909152604090205482611f61565b6000858152600460205260409020600160a060020a038416600090815260209190915260409020555961012081016040526020815260e0602082015260e06000604083013760443560243560043560003560e01c60e01b61012085a45050505050565b33600090815260208190526040902054600114610bbc5760405160e560020a62461bcd02815260206004820152601260248201526000805160206120a5833981519152604482015260640160405180910390fd5b600a54600114610c035760405160e560020a62461bcd02815260206004820152600c6024820152600080516020612085833981519152604482015260640160405180910390fd5b600160a060020a0381166000908152602081905260019060409020555961012081016040526020815260e0602082015260e06000604083013760443560243560043560003560e01c60e01b61012085a45050565b33600090815260208190526040902054600114610cab5760405160e560020a62461bcd02815260206004820152601260248201526000805160206120a5833981519152604482015260640160405180910390fd5b6000600a555961012081016040526020815260e0602082015260e06000604083013760443560243560043560003560e01c60e01b61012085a450565b600560205280600052604060002054905081565b610d0361203d565b610d0b612054565b600080600a546001141515610d575760405160e560020a62461bcd02815260206004820152600c6024820152600080516020612085833981519152604482015260640160405180910390fd5b60008a8152600360205260409020600160a060020a038a166000908152602091909152604090206040805190810160409081528254825260019092015460208083019190915260008d815260029091529095502060a06040519081016040908152825482526001830154602083019081526002840154918301919091526003830154606083015260049092015460808201529350511515610e415760405160e560020a62461bcd02815260206004820152601060248201527f5661742f696c6b2d6e6f742d696e697400000000000000000000000000000000604482015260640160405180910390fd5b610e4c845187611f71565b8452610e5c602085015186611f71565b6020850152610e6c835186611f71565b8352610e7c602084015186611faa565b9150610e9083602001518560200151611fda565b9050610e9e60075483611f71565b600755610ed46000861315610ecf6060860151610ec087518860200151611fda565b11156009546007541115611fff565b612003565b1515610f295760405160e560020a62461bcd02815260206004820152601460248201527f5661742f6365696c696e672d6578636565646564000000000000000000000000604482015260640160405180910390fd5b610f55610f3e60008713156000891215611fff565b610f4d86518660400151611fda565b831115612003565b1515610faa5760405160e560020a62461bcd02815260206004820152600c60248201527f5661742f6e6f742d736166650000000000000000000000000000000000000000604482015260640160405180910390fd5b610fc9610fbf60008713156000891215611fff565b610ecf8b33611f04565b151561101e5760405160e560020a62461bcd02815260206004820152601160248201527f5661742f6e6f742d616c6c6f7765642d75000000000000000000000000000000604482015260640160405180910390fd5b6110306000871315610ecf8a33611f04565b15156110855760405160e560020a62461bcd02815260206004820152601160248201527f5661742f6e6f742d616c6c6f7765642d76000000000000000000000000000000604482015260640160405180910390fd5b6110976000861215610ecf8933611f04565b15156110ec5760405160e560020a62461bcd02815260206004820152601160248201527f5661742f6e6f742d616c6c6f7765642d77000000000000000000000000000000604482015260640160405180910390fd5b6111028460200151156080850151831015612003565b15156111575760405160e560020a62461bcd02815260206004820152600860248201527f5661742f64757374000000000000000000000000000000000000000000000000604482015260640160405180910390fd5b60008a815260046020526111899060409020600160a060020a038a166000908152602091909152604090205487612007565b60008b8152600460205260409020600160a060020a038a1660009081526020919091526040902055600160a060020a038716600090815260056020526111d490604090205483611f71565b600160a060020a03881660009081526005602052604090205560008a81526003602052849060409020600160a060020a038b166000908152602091909152604090208151815560208201516001909101555060008a81526002602052839060409020815181556020820151816001015560408201518160020155606082015181600301556080820151600490910155505961012081016040526020815260e0602082015260e06000604083013760443560243560043560003560e01c60e01b61012085a45050505050505050505050565b3360009081526020819052808060408120546001146112fb5760405160e560020a62461bcd02815260206004820152601260248201526000805160206120a5833981519152604482015260640160405180910390fd5b6000898152600360205260409020600160a060020a03891660009081526020919091526040902060008a81526002602052909350604090209150611343836000015486611f71565b835560018301546113549085611f71565b600184015581546113659085611f71565b825560018201546113769085611faa565b60008a815260046020529091506113ab9060409020600160a060020a0389166000908152602091909152604090205486612007565b60008a8152600460205260409020600160a060020a03891660009081526020919091526040902055600160a060020a038616600090815260066020526113f690604090205482612007565b600160a060020a03871660009081526006602052604090205560085461141c9082612007565b6008555961012081016040526020815260e0602082015260e06000604083013760443560243560043560003560e01c60e01b61012085a450505050505050505050565b336000908152602081905260409020546001146114b35760405160e560020a62461bcd02815260206004820152601260248201526000805160206120a5833981519152604482015260640160405180910390fd5b600083815260046020526114e59060409020600160a060020a0384166000908152602091909152604090205482611f71565b6000848152600460205260409020600160a060020a038416600090815260209190915260409020555961012081016040526020815260e0602082015260e06000604083013760443560243560043560003560e01c60e01b61012085a450505050565b600085815260036020528080808060408120600160a060020a038a1660009081526020919091526040902060008b8152600360205290955060409020600160a060020a03891660009081526020919091526040902060008b815260026020529094506040902092506115bd856000015488612007565b855560018501546115ce9087612007565b600186015583546115df9088611f71565b845560018401546115f09087611f71565b846001018190555061160a85600101548460010154611fda565b915061161e84600101548460010154611fda565b905061163c61162d8a33611f04565b6116378a33611f04565b611fff565b15156116915760405160e560020a62461bcd02815260206004820152600f60248201527f5661742f6e6f742d616c6c6f7765640000000000000000000000000000000000604482015260640160405180910390fd5b6116a385600001548460020154611fda565b8211156116f95760405160e560020a62461bcd02815260206004820152601060248201527f5661742f6e6f742d736166652d73726300000000000000000000000000000000604482015260640160405180910390fd5b61170b84600001548460020154611fda565b8111156117615760405160e560020a62461bcd02815260206004820152601060248201527f5661742f6e6f742d736166652d64737400000000000000000000000000000000604482015260640160405180910390fd5b61177983600401548310158660010154600014612003565b15156117ce5760405160e560020a62461bcd02815260206004820152600c60248201527f5661742f647573742d7372630000000000000000000000000000000000000000604482015260640160405180910390fd5b6117e683600401548210158560010154600014612003565b151561183b5760405160e560020a62461bcd02815260206004820152600c60248201527f5661742f647573742d6473740000000000000000000000000000000000000000604482015260640160405180910390fd5b5961012081016040526020815260e0602082015260e06000604083013760443560243560043560003560e01c60e01b61012085a45050505050505050505050565b600a5481565b336000908152602081905260409020546001146118d65760405160e560020a62461bcd02815260206004820152601260248201526000805160206120a5833981519152604482015260640160405180910390fd5b600a5460011461191d5760405160e560020a62461bcd02815260206004820152600c6024820152600080516020612085833981519152604482015260640160405180910390fd5b600160a060020a0381166000908152602081905260408120555961012081016040526020815260e0602082015260e06000604083013760443560243560043560003560e01c60e01b61012085a45050565b336000908152600160208190529060409020600160a060020a038316600090815260209190915260409020555961012081016040526020815260e0602082015260e06000604083013760443560243560043560003560e01c60e01b61012085a45050565b3360009081526020819052806040812054600114611a275760405160e560020a62461bcd02815260206004820152601260248201526000805160206120a5833981519152604482015260640160405180910390fd5b600a54600114611a6e5760405160e560020a62461bcd02815260206004820152600c6024820152600080516020612085833981519152604482015260640160405180910390fd5b60008581526002602052604090209150611a8c826001015484611f71565b60018301558154611a9d9084611faa565b600160a060020a03851660009081526005602052909150611ac390604090205482611f71565b600160a060020a038516600090815260056020526040902055600754611ae99082611f71565b6007555961012081016040526020815260e0602082015260e06000604083013760443560243560043560003560e01c60e01b61012085a4505050505050565b60095481565b611b388333611f04565b1515611b8d5760405160e560020a62461bcd02815260206004820152600f60248201527f5661742f6e6f742d616c6c6f7765640000000000000000000000000000000000604482015260640160405180910390fd5b600160a060020a03831660009081526005602052611bb090604090205482611f51565b600160a060020a038416600090815260056020526040902055600160a060020a03821660009081526005602052611bec90604090205482611f61565b600160a060020a0383166000908152600560205260409020555961012081016040526020815260e0602082015260e06000604083013760443560243560043560003560e01c60e01b61012085a450505050565b600060205280600052604060002054905081565b600260205280600052604060002080546001820154600283015460038401546004909401549294509092909185565b336000908152600160205260408120600160a060020a038316600090815260209190915260409020555961012081016040526020815260e0602082015260e06000604083013760443560243560043560003560e01c60e01b61012085a45050565b600160a060020a03821660009081526005602052819060409020555050565b600660205280600052604060002054905081565b33600090815260208190526040902054600114611d6a5760405160e560020a62461bcd02815260206004820152601260248201526000805160206120a5833981519152604482015260640160405180910390fd5b600160a060020a03831660009081526006602052611d8d90604090205482611f61565b600160a060020a038416600090815260066020526040902055600160a060020a03821660009081526005602052611dc990604090205482611f61565b600160a060020a038316600090815260056020526040902055600854611def9082611f61565b600855600754611dff9082611f61565b6007555961012081016040526020815260e0602082015260e06000604083013760443560243560043560003560e01c60e01b61012085a450505050565b3360008181526006602052611e5690604090205483611f51565b600160a060020a038216600090815260066020526040902055600160a060020a03811660009081526005602052611e9290604090205483611f51565b600160a060020a038216600090815260056020526040902055600854611eb89083611f51565b600855600754611ec89083611f51565b6007555961012081016040526020815260e0602082015260e06000604083013760443560243560043560003560e01c60e01b61012085a4505050565b600160a060020a038281166000818152600160205291611f48919084161460408320600160a060020a03851660009081526020919091526040902054600114612003565b90505b92915050565b80820382811115611f4b57600080fd5b80820182811015611f4b57600080fd5b818101600082121580611f845750828111155b1515611f8f57600080fd5b600082131580611f9f5750828110155b1515611f4b57600080fd5b8181026000831215611fbb57600080fd5b811580611f9f5750828282811515611fcf57fe5b0514611f4b57600080fd5b6000811580611f9f575050808202828282811515611ff457fe5b0414611f4b57600080fd5b1690565b1790565b80820360008213158061201a5750828111155b151561202557600080fd5b600082121580611f9f575082811015611f4b57600080fd5b604080519081016040526000808252602082015290565b60a0604051908101604052806000815260200160008152602001600081526020016000815260200160008152509056005661742f6e6f742d6c69766500000000000000000000000000000000000000005661742f6e6f742d617574686f72697a65640000000000000000000000000000a165627a7a723058205f0dab333074d1edf27ab39631917394075528564a0061dc0250d3d175cbb3420029",
  "source": "/// vat.sol -- Dai CDP database\n\n// Copyright (C) 2018 Rain <rainbreak@riseup.net>\n//\n// This program is free software: you can redistribute it and/or modify\n// it under the terms of the GNU Affero General Public License as published by\n// the Free Software Foundation, either version 3 of the License, or\n// (at your option) any later version.\n//\n// This program is distributed in the hope that it will be useful,\n// but WITHOUT ANY WARRANTY; without even the implied warranty of\n// MERCHANTABILITY or FITNESS FOR A PARTICULAR PURPOSE.  See the\n// GNU Affero General Public License for more details.\n//\n// You should have received a copy of the GNU Affero General Public License\n// along with this program.  If not, see <https://www.gnu.org/licenses/>.\n\n/* solhint-disable */\npragma solidity 0.4.24;\n\ncontract VatMock {\n    // --- Auth ---\n    mapping(address => uint256) public wards;\n    function rely(address usr) external note auth {\n        require(live == 1, \"Vat/not-live\");\n        wards[usr] = 1;\n    }\n    function deny(address usr) external note auth {\n        require(live == 1, \"Vat/not-live\");\n        wards[usr] = 0;\n    }\n    modifier auth {\n        require(wards[msg.sender] == 1, \"Vat/not-authorized\");\n        _;\n    }\n\n    mapping(address => mapping(address => uint256)) public can;\n    function hope(address usr) external note {\n        can[msg.sender][usr] = 1;\n    }\n    function nope(address usr) external note {\n        can[msg.sender][usr] = 0;\n    }\n    function wish(address bit, address usr) internal view returns (bool) {\n        return either(bit == usr, can[bit][usr] == 1);\n    }\n\n    // --- Data ---\n    struct Ilk {\n        uint256 Art; // Total Normalised Debt     [wad]\n        uint256 rate; // Accumulated Rates         [ray]\n        uint256 spot; // Price with Safety Margin  [ray]\n        uint256 line; // Debt Ceiling              [rad]\n        uint256 dust; // Urn Debt Floor            [rad]\n    }\n    struct Urn {\n        uint256 ink; // Locked Collateral  [wad]\n        uint256 art; // Normalised Debt    [wad]\n    }\n\n    mapping(bytes32 => Ilk) public ilks;\n    mapping(bytes32 => mapping(address => Urn)) public urns;\n    mapping(bytes32 => mapping(address => uint256)) public gem; // [wad]\n    mapping(address => uint256) public dai; // [rad]\n    mapping(address => uint256) public sin; // [rad]\n\n    uint256 public debt; // Total Dai Issued    [rad]\n    uint256 public vice; // Total Unbacked Dai  [rad]\n    uint256 public Line; // Total Debt Ceiling  [rad]\n    uint256 public live; // Access Flag\n\n    // --- Logs ---\n    event LogNote(bytes4 indexed sig, bytes32 indexed arg1, bytes32 indexed arg2, bytes32 indexed arg3, bytes data) anonymous;\n\n    modifier note {\n        _;\n        assembly {\n            // log an 'anonymous' event with a constant 6 words of calldata\n            // and four indexed topics: the selector and the first three args\n            let mark := msize // end of memory ensures zero\n            mstore(0x40, add(mark, 288)) // update free memory pointer\n            mstore(mark, 0x20) // bytes type data offset\n            mstore(add(mark, 0x20), 224) // bytes size (padded)\n            calldatacopy(add(mark, 0x40), 0, 224) // bytes payload\n            log4(\n                mark,\n                288, // calldata\n                shl(224, shr(224, calldataload(0))), // msg.sig\n                calldataload(4), // arg1\n                calldataload(36), // arg2\n                calldataload(68) // arg3\n            )\n        }\n    }\n\n    // --- Init ---\n    constructor() public {\n        wards[msg.sender] = 1;\n        live = 1;\n    }\n\n    function setDai(address a, uint256 v) external {\n        dai[a] = v;\n    }\n\n    // --- Math ---\n    function add(uint256 x, int256 y) internal pure returns (uint256 z) {\n        z = x + uint256(y);\n        require(y >= 0 || z <= x);\n        require(y <= 0 || z >= x);\n    }\n    function sub(uint256 x, int256 y) internal pure returns (uint256 z) {\n        z = x - uint256(y);\n        require(y <= 0 || z <= x);\n        require(y >= 0 || z >= x);\n    }\n    function mul(uint256 x, int256 y) internal pure returns (int256 z) {\n        z = int256(x) * y;\n        require(int256(x) >= 0);\n        require(y == 0 || z / y == int256(x));\n    }\n    function add(uint256 x, uint256 y) internal pure returns (uint256 z) {\n        require((z = x + y) >= x);\n    }\n    function sub(uint256 x, uint256 y) internal pure returns (uint256 z) {\n        require((z = x - y) <= x);\n    }\n    function mul(uint256 x, uint256 y) internal pure returns (uint256 z) {\n        require(y == 0 || (z = x * y) / y == x);\n    }\n\n    // --- Administration ---\n    function init(bytes32 ilk) external note auth {\n        require(ilks[ilk].rate == 0, \"Vat/ilk-already-init\");\n        ilks[ilk].rate = 10**27;\n    }\n    function file(bytes32 what, uint256 data) external note auth {\n        require(live == 1, \"Vat/not-live\");\n        if (what == \"Line\") Line = data;\n        else revert(\"Vat/file-unrecognized-param\");\n    }\n    function file(bytes32 ilk, bytes32 what, uint256 data) external note auth {\n        require(live == 1, \"Vat/not-live\");\n        if (what == \"spot\") ilks[ilk].spot = data;\n        else if (what == \"line\") ilks[ilk].line = data;\n        else if (what == \"dust\") ilks[ilk].dust = data;\n        else revert(\"Vat/file-unrecognized-param\");\n    }\n    function cage() external note auth {\n        live = 0;\n    }\n\n    // --- Fungibility ---\n    function slip(bytes32 ilk, address usr, int256 wad) external note auth {\n        gem[ilk][usr] = add(gem[ilk][usr], wad);\n    }\n    function flux(bytes32 ilk, address src, address dst, uint256 wad) external note {\n        require(wish(src, msg.sender), \"Vat/not-allowed\");\n        gem[ilk][src] = sub(gem[ilk][src], wad);\n        gem[ilk][dst] = add(gem[ilk][dst], wad);\n    }\n    function move(address src, address dst, uint256 rad) external note {\n        require(wish(src, msg.sender), \"Vat/not-allowed\");\n        dai[src] = sub(dai[src], rad);\n        dai[dst] = add(dai[dst], rad);\n    }\n\n    function either(bool x, bool y) internal pure returns (bool z) {\n        assembly {\n            z := or(x, y)\n        }\n    }\n    function both(bool x, bool y) internal pure returns (bool z) {\n        assembly {\n            z := and(x, y)\n        }\n    }\n\n    // --- CDP Manipulation ---\n    function frob(bytes32 i, address u, address v, address w, int256 dink, int256 dart) external note {\n        // system is live\n        require(live == 1, \"Vat/not-live\");\n\n        Urn memory urn = urns[i][u];\n        Ilk memory ilk = ilks[i];\n        // ilk has been initialised\n        require(ilk.rate != 0, \"Vat/ilk-not-init\");\n\n        urn.ink = add(urn.ink, dink);\n        urn.art = add(urn.art, dart);\n        ilk.Art = add(ilk.Art, dart);\n\n        int256 dtab = mul(ilk.rate, dart);\n        uint256 tab = mul(ilk.rate, urn.art);\n        debt = add(debt, dtab);\n\n        // either debt has decreased, or debt ceilings are not exceeded\n        require(either(dart <= 0, both(mul(ilk.Art, ilk.rate) <= ilk.line, debt <= Line)), \"Vat/ceiling-exceeded\");\n        // urn is either less risky than before, or it is safe\n        require(either(both(dart <= 0, dink >= 0), tab <= mul(urn.ink, ilk.spot)), \"Vat/not-safe\");\n\n        // urn is either more safe, or the owner consents\n        require(either(both(dart <= 0, dink >= 0), wish(u, msg.sender)), \"Vat/not-allowed-u\");\n        // collateral src consents\n        require(either(dink <= 0, wish(v, msg.sender)), \"Vat/not-allowed-v\");\n        // debt dst consents\n        require(either(dart >= 0, wish(w, msg.sender)), \"Vat/not-allowed-w\");\n\n        // urn has no debt, or a non-dusty amount\n        require(either(urn.art == 0, tab >= ilk.dust), \"Vat/dust\");\n\n        gem[i][v] = sub(gem[i][v], dink);\n        dai[w] = add(dai[w], dtab);\n\n        urns[i][u] = urn;\n        ilks[i] = ilk;\n    }\n    // --- CDP Fungibility ---\n    function fork(bytes32 ilk, address src, address dst, int256 dink, int256 dart) external note {\n        Urn storage u = urns[ilk][src];\n        Urn storage v = urns[ilk][dst];\n        Ilk storage i = ilks[ilk];\n\n        u.ink = sub(u.ink, dink);\n        u.art = sub(u.art, dart);\n        v.ink = add(v.ink, dink);\n        v.art = add(v.art, dart);\n\n        uint256 utab = mul(u.art, i.rate);\n        uint256 vtab = mul(v.art, i.rate);\n\n        // both sides consent\n        require(both(wish(src, msg.sender), wish(dst, msg.sender)), \"Vat/not-allowed\");\n\n        // both sides safe\n        require(utab <= mul(u.ink, i.spot), \"Vat/not-safe-src\");\n        require(vtab <= mul(v.ink, i.spot), \"Vat/not-safe-dst\");\n\n        // both sides non-dusty\n        require(either(utab >= i.dust, u.art == 0), \"Vat/dust-src\");\n        require(either(vtab >= i.dust, v.art == 0), \"Vat/dust-dst\");\n    }\n    // --- CDP Confiscation ---\n    function grab(bytes32 i, address u, address v, address w, int256 dink, int256 dart) external note auth {\n        Urn storage urn = urns[i][u];\n        Ilk storage ilk = ilks[i];\n\n        urn.ink = add(urn.ink, dink);\n        urn.art = add(urn.art, dart);\n        ilk.Art = add(ilk.Art, dart);\n\n        int256 dtab = mul(ilk.rate, dart);\n\n        gem[i][v] = sub(gem[i][v], dink);\n        sin[w] = sub(sin[w], dtab);\n        vice = sub(vice, dtab);\n    }\n\n    // --- Settlement ---\n    function heal(uint256 rad) external note {\n        address u = msg.sender;\n        sin[u] = sub(sin[u], rad);\n        dai[u] = sub(dai[u], rad);\n        vice = sub(vice, rad);\n        debt = sub(debt, rad);\n    }\n    function suck(address u, address v, uint256 rad) external note auth {\n        sin[u] = add(sin[u], rad);\n        dai[v] = add(dai[v], rad);\n        vice = add(vice, rad);\n        debt = add(debt, rad);\n    }\n\n    // --- Rates ---\n    function fold(bytes32 i, address u, int256 rate) external note auth {\n        require(live == 1, \"Vat/not-live\");\n        Ilk storage ilk = ilks[i];\n        ilk.rate = add(ilk.rate, rate);\n        int256 rad = mul(ilk.Art, rate);\n        dai[u] = add(dai[u], rad);\n        debt = add(debt, rad);\n    }\n}\n",
  "sourcePath": "/Users/max/Projects/Symblox/TokenBridge/tokenbridge/contracts/contracts/mocks/VatMock.sol",
  "compiler": {
    "name": "solc",
    "version": "0.4.24+commit.e67f0147.Emscripten.clang"
  },
  "schemaVersion": "3.1.0",
  "updatedAt": "2020-11-26T16:22:39.751Z",
  "devdoc": {
    "methods": {}
  },
  "userdoc": {
    "methods": {}
  }
}